{
	"data": {
		"bytecode": {
			"linkReferences": {},
			"object": "608060405260646007556969e10de76676d080000060085562989680600955600b80547401df50ef7e506536354e7a805442dcbf25c7ac249b6001600160a81b03199091161790556014600c8190556228de80600d55600e805463ffffffff19166006179055805460ff60a01b1916600160a01b1790553480156200008357600080fd5b50604051620059af380380620059af833981016040819052620000a69162000552565b6001600081815581546001600160a01b031916339081179092556040518291907f8be0079c531659141344cd1fd0a4f28419497f9722a3daafe3b4186f6b6457e0908290a350600e8054600160201b600160c01b0319166401000000006001600160a01b038781169190910291909117909155601480548483166001600160a81b031990911617600160a01b841515810291909117909155600b805460ff60a01b19168615159092029190911781556001805460038054919094166001600160a01b03199182168117909455600480548216851790556002805490911690931790925560116020527f4ad3b33220dddc71b994a52d72c06b10862965f7d926534c05c00fb7e819e7b7805463ffffffff1990811690931790557f17bc176d2408558f6e4111feebc3cab4e16b63e967be91cde721f4c8a488b5528054831690911790557f08037d7b151cc412d25674a4e66b334d9ae9d2e5517a7feaae5cdb828bf1c62880548216606f1790557f9bfbaa59f8e10e7868f8b402de9d605a390c45ddaebd8c9de3c6f31e733c87ff805482166104571790557f251164fe1d8864fe5e86082eae9c288bc2b58695a4d28538dfe86e9e4f17558580548216612b67179055600560008181527fc550213cee30afd5e67ccba7be3d381bbc169034ae08eb3ec9168caca9fe55e780549093166201b20717909255805491620002ac83620005af565b9091555050604080516101a08101909152806003815260200142815260200142815260200160008152602001600081526020016040518060c0016040528060fa8152602001610177815260200161027181526020016104e281526020016109c4815260200161138881525081526020016107d081526020016040518060c001604052806000815260200160008152602001600081526020016000815260200160008152602001600081525081526020016040518060c0016040528060008152602001600081526020016000815260200160008152602001600081526020016000815250815260200160065481526020016006548152602001600a548152602001620f424063ffffffff16815250600f6000600554815260200190815260200160002060008201518160000160006101000a81548160ff02191690836003811115620003fb57620003fb620005d7565b02179055506020820151600182015560408201516002820155606082015160038201556080820151600482015560a08201516200043f9060058301906006620004ca565b5060c0820151600b82015560e08201516200046190600c8301906006620004ca565b506101008201516200047a9060128301906006620004ca565b5061012082015160188201556101408201516019820155610160820151601a82015561018090910151601b909101805463ffffffff191663ffffffff90921691909117905550620005ed92505050565b8260068101928215620004fb579160200282015b82811115620004fb578251825591602001919060010190620004de565b50620005099291506200050d565b5090565b5b808211156200050957600081556001016200050e565b80516001600160a01b03811681146200053c57600080fd5b919050565b805180151581146200053c57600080fd5b600080600080608085870312156200056957600080fd5b620005748562000524565b9350620005846020860162000541565b9250620005946040860162000524565b9150620005a46060860162000541565b905092959194509250565b600060018201620005d057634e487b7160e01b600052601160045260246000fd5b5060010190565b634e487b7160e01b600052602160045260246000fd5b6153b280620005fd6000396000f3fe608060405234801561001057600080fd5b50600436106103205760003560e01c80637cb583bd116101a7578063c5f956af116100ee578063db19da0d11610097578063f2fde38b11610071578063f2fde38b146106e8578063f6783518146106fb578063fe0140661461071b57600080fd5b8063db19da0d146106cd578063dbdec7ec146106d7578063f2b3c809146106df57600080fd5b8063d86b2982116100c8578063d86b298214610682578063da4ca039146106a7578063da7429f8146106ba57600080fd5b8063c5f956af1461062a578063c914914f1461064a578063cec331991461065d57600080fd5b80639c38465311610150578063b1829b821161012a578063b1829b82146105f1578063be2ff4a914610604578063c4937ab91461061757600080fd5b80639c384653146105ab5780639d8ca531146105cb578063a3c1c4a9146105de57600080fd5b80638904bf2f116101815780638904bf2f146105445780638da5cb5b1461056c5780638fc3539a1461058a57600080fd5b80637cb583bd1461035157806380a061601461052957806388303dbd1461053157600080fd5b80632cfaf7971161026b57806348c2c21f116102145780636b873788116101ee5780636b873788146105055780636be4097c14610518578063715018a61461052157600080fd5b806348c2c21f146104b7578063628a167c146104d7578063686465b8146104fc57600080fd5b80633cbfe3a1116102455780633cbfe3a1146104885780633f138d4b14610491578063471aeab4146104a457600080fd5b80632cfaf797146104495780632e530cae1461046c57806331feb5651461047f57600080fd5b80631f73664b116102cd5780632385860b116102a75780632385860b146104035780632423807a146104165780632c4e93b01461043657600080fd5b80631f73664b146103de5780631fe86c6b146103e757806320211a30146103f057600080fd5b8063127effb2116102fe578063127effb21461037d57806312a9769d146103c25780631f710996146103cb57600080fd5b806305531eeb1461032557806307fb5a9c1461035157806309b86c9d14610368575b600080fd5b6103386103333660046149b2565b61072e565b6040516103489493929190614a5e565b60405180910390f35b61035a61012c81565b604051908152602001610348565b61037b610376366004614ad2565b610a5a565b005b60035461039d9073ffffffffffffffffffffffffffffffffffffffff1681565b60405173ffffffffffffffffffffffffffffffffffffffff9091168152602001610348565b61035a600a5481565b61037b6103d9366004614afb565b610b4d565b61035a60085481565b61035a60075481565b61037b6103fe366004614b2c565b610c3e565b61037b610411366004614b47565b610e72565b610429610424366004614b80565b611567565b6040516103489190614c26565b61037b610444366004614afb565b6116c8565b61045c610457366004614ad2565b611793565b6040519015158152602001610348565b61035a61047a366004614cea565b611893565b61035a60095481565b61035a600d5481565b61037b61049f366004614d1f565b611918565b61037b6104b2366004614d49565b611abf565b600b5461039d9073ffffffffffffffffffffffffffffffffffffffff1681565b600b5461045c9074010000000000000000000000000000000000000000900460ff1681565b61035a60065481565b61037b610513366004614b80565b611c7a565b61035a60055481565b61037b611d6a565b60055461035a565b61037b61053f366004614db0565b611e5a565b600e5461039d90640100000000900473ffffffffffffffffffffffffffffffffffffffff1681565b60015473ffffffffffffffffffffffffffffffffffffffff1661039d565b61059d610598366004614dfc565b612736565b604051610348929190614e3e565b60025461039d9073ffffffffffffffffffffffffffffffffffffffff1681565b61037b6105d9366004614b80565b6128fc565b61037b6105ec366004614ad2565b612ba3565b61037b6105ff366004614e6c565b612c6b565b61037b610612366004614b80565b61323d565b61035a610625366004614ebb565b6134b8565b60045461039d9073ffffffffffffffffffffffffffffffffffffffff1681565b61037b610658366004614ee7565b61359b565b60145461045c9074010000000000000000000000000000000000000000900460ff1681565b600e546106929063ffffffff1681565b60405163ffffffff9091168152602001610348565b61037b6106b5366004614f61565b613d33565b61037b6106c8366004614d49565b613fd4565b61035a6228dfac81565b61045c600181565b61035a610bb881565b61037b6106f6366004614ad2565b6140ca565b60145461039d9073ffffffffffffffffffffffffffffffffffffffff1681565b61037b610729366004614ad2565b61427c565b73ffffffffffffffffffffffffffffffffffffffff84166000908152601360209081526040808320868452909152812054606091829182919085906107738882614fca565b821115610787576107848882614fca565b91505b60008267ffffffffffffffff8111156107a2576107a2614fe3565b6040519080825280602002602001820160405280156107cb578160200160208202803683370190505b50905060008367ffffffffffffffff8111156107e9576107e9614fe3565b604051908082528060200260200182016040528015610812578160200160208202803683370190505b50905060008467ffffffffffffffff81111561083057610830614fe3565b604051908082528060200260200182016040528015610859578160200160208202803683370190505b50905060005b85811015610a3457601360008f73ffffffffffffffffffffffffffffffffffffffff1673ffffffffffffffffffffffffffffffffffffffff16815260200190815260200160002060008e81526020019081526020016000208c826108c39190615012565b815481106108d3576108d3615025565b90600052602060002001548482815181106108f0576108f0615025565b6020026020010181815250506010600085838151811061091257610912615025565b6020026020010151815260200190815260200160002060000160009054906101000a900463ffffffff1683828151811061094e5761094e615025565b602002602001019063ffffffff16908163ffffffff1681525050600073ffffffffffffffffffffffffffffffffffffffff166010600086848151811061099657610996615025565b602090810291909101810151825281019190915260400160002054640100000000900473ffffffffffffffffffffffffffffffffffffffff16036109fd5760018282815181106109e8576109e8615025565b91151560209283029190910190910152610a22565b6000828281518110610a1157610a11615025565b911515602092830291909101909101525b80610a2c81615054565b91505061085f565b50828282610a42888f615012565b98509850985098505050505050945094509450949050565b600b5473ffffffffffffffffffffffffffffffffffffffff163314610b06576040517f08c379a000000000000000000000000000000000000000000000000000000000815260206004820152602160248201527f4f6e6c79204f6e6f75742063616e206368616e6765206665652061646472657360448201527f730000000000000000000000000000000000000000000000000000000000000060648201526084015b60405180910390fd5b600b80547fffffffffffffffffffffffff00000000000000000000000000000000000000001673ffffffffffffffffffffffffffffffffffffffff92909216919091179055565b600b5473ffffffffffffffffffffffffffffffffffffffff163314610bf4576040517f08c379a000000000000000000000000000000000000000000000000000000000815260206004820152602960248201527f4f6e6c79204f6e6f75742063616e20656e61626c652f64697361626c6520736560448201527f72766963652066656500000000000000000000000000000000000000000000006064820152608401610afd565b600b805491151574010000000000000000000000000000000000000000027fffffffffffffffffffffff00ffffffffffffffffffffffffffffffffffffffff909216919091179055565b60015473ffffffffffffffffffffffffffffffffffffffff163314610cbf576040517f08c379a000000000000000000000000000000000000000000000000000000000815260206004820181905260248201527f4f776e61626c653a2063616c6c6572206973206e6f7420746865206f776e65726044820152606401610afd565b60068163ffffffff161115610d30576040517f08c379a000000000000000000000000000000000000000000000000000000000815260206004820152601960248201527f6e756d62657273436f756e74206d757374206265203c3d2036000000000000006044820152606401610afd565b60028163ffffffff161015610da1576040517f08c379a000000000000000000000000000000000000000000000000000000000815260206004820152601960248201527f6e756d62657273436f756e74206d757374206265203e3d2032000000000000006044820152606401610afd565b6005541580610dd5575060036005546000908152600f602052604090205460ff166003811115610dd357610dd3614b99565b145b610e3b576040517f08c379a000000000000000000000000000000000000000000000000000000000815260206004820152601860248201527f486173206e6f742066696e6973686564206c6f747465727900000000000000006044820152606401610afd565b600e80547fffffffffffffffffffffffffffffffffffffffffffffffffffffffff000000001663ffffffff92909216919091179055565b60015473ffffffffffffffffffffffffffffffffffffffff16331480610eaf575060035473ffffffffffffffffffffffffffffffffffffffff1633145b610f15576040517f08c379a000000000000000000000000000000000000000000000000000000000815260206004820152601560248201527f4e6f74206f776e6572206f72206f70657261746f7200000000000000000000006044820152606401610afd565b600260005403610f81576040517f08c379a000000000000000000000000000000000000000000000000000000000815260206004820152601f60248201527f5265656e7472616e637947756172643a207265656e7472616e742063616c6c006044820152606401610afd565b60026000818155848152600f602052604090205460ff166003811115610fa957610fa9614b99565b14611010576040517f08c379a000000000000000000000000000000000000000000000000000000000815260206004820152601160248201527f4c6f7474657279206e6f7420636c6f73650000000000000000000000000000006044820152606401610afd565b6000838152600f60205260408120600b01548190612710906110329082614fca565b6000878152600f60205260409020601a015461104e919061508c565b61105891906150d2565b6000868152600f6020908152604080832060188101546019820154601a90920154835142818701528085018c905260608082018e9052608082019390935260a081019390935260c083015260e08201869052434061010083015241901b7fffffffffffffffffffffffffffffffffffffffff0000000000000000000000001661012082015244610134820152456101548201523a6101748083019190915282518083039091018152610194909101909152805191012091925061111e620f4240836150e6565b61112b90620f4240615012565b90506000805b600e5463ffffffff90811690821610156113c157600e54600090829061115f9060019063ffffffff166150fa565b61116991906150fa565b90506000611178826001615117565b61118390600a615245565b61118d908661525a565b63ffffffff8084166000908152601160205260409020546111af929116615117565b60008c815260126020908152604080832063ffffffff851684529091529020549091506111dd908990614fca565b60008c8152600f6020526040902060120163ffffffff84166006811061120557611205615025565b015560008b815260126020908152604080832063ffffffff85168452909152902054611232908990614fca565b156113315760008b8152600f6020526040902060050163ffffffff83166006811061125f5761125f615025565b01541561132c5760008b815260126020908152604080832063ffffffff8516845290915290205461271090611295908a90614fca565b60008d8152600f60205260409020899060050163ffffffff8616600681106112bf576112bf615025565b01546112cb919061508c565b6112d591906150d2565b6112df91906150d2565b60008c8152600f60205260409020600c0163ffffffff84166006811061130757611307615025565b015560008b815260126020908152604080832063ffffffff8516845290915290205497505b6113ac565b60008b8152600f60205260408120600c0163ffffffff84166006811061135957611359615025565b015560008b8152600f6020526040902061271090889060050163ffffffff85166006811061138957611389615025565b0154611395919061508c565b61139f91906150d2565b6113a99085615012565b93505b505080806113b99061527d565b915050611131565b506000888152600f60205260409020601b8101805463ffffffff85167fffffffffffffffffffffffffffffffffffffffffffffffffffffffff0000000090911617905580547fffffffffffffffffffffffffffffffffffffffffffffffffffffffffffffff00166003179055851561143957600a5560005b6000888152600f60205260409020601a0154611456908590614fca565b6114609082615012565b600b5490915074010000000000000000000000000000000000000000900460ff16156114e457600c546000906114976064846150d2565b6114a1919061508c565b90506114ad8183614fca565b600b54600e549193506114e291640100000000900473ffffffffffffffffffffffffffffffffffffffff9081169116836143c1565b505b600454600e546115169173ffffffffffffffffffffffffffffffffffffffff64010000000090920482169116836143c1565b6005546040805163ffffffff85168152602081018890527f98e31a6607b8b15b4d5b91de54f4c09ffe4c4cf162aa532c70b5213754e2e703910160405180910390a250506001600055505050505050565b61156f614897565b6000828152600f60205260409081902081516101a081019092528054829060ff1660038111156115a1576115a1614b99565b60038111156115b2576115b2614b99565b81526001820154602082015260028201546040808301919091526003830154606083015260048301546080830152805160c081019182905260a09092019190600584019060069082845b8154815260200190600101908083116115fc575050509183525050600b82015460208201526040805160c081018252910190600c830160068282826020028201915b81548152602001906001019080831161163e5750505091835250506040805160c081019182905260209092019190601284019060069082845b8154815260200190600101908083116116775750505091835250506018820154602082015260198201546040820152601a8201546060820152601b9091015463ffffffff1660809091015292915050565b60015473ffffffffffffffffffffffffffffffffffffffff163314611749576040517f08c379a000000000000000000000000000000000000000000000000000000000815260206004820181905260248201527f4f776e61626c653a2063616c6c6572206973206e6f7420746865206f776e65726044820152606401610afd565b6014805491151574010000000000000000000000000000000000000000027fffffffffffffffffffffff00ffffffffffffffffffffffffffffffffffffffff909216919091179055565b60145460009074010000000000000000000000000000000000000000900460ff1615806117d6575060145473ffffffffffffffffffffffffffffffffffffffff16155b156117e357506001919050565b6014546040517f70a0823100000000000000000000000000000000000000000000000000000000815273ffffffffffffffffffffffffffffffffffffffff848116600483015260009216906370a0823190602401602060405180830381865afa158015611854573d6000803e3d6000fd5b505050506040513d601f19601f8201168201806040525081019061187891906152a0565b90506000811161188957600061188c565b60015b9392505050565b600060036000858152600f602052604090205460ff1660038111156118ba576118ba614b99565b146118c75750600061188c565b6000848152600f6020526040902060190154831180156118f857506000848152600f60205260409020601801548311155b156119055750600061188c565b61191084848461449a565b949350505050565b60015473ffffffffffffffffffffffffffffffffffffffff163314611999576040517f08c379a000000000000000000000000000000000000000000000000000000000815260206004820181905260248201527f4f776e61626c653a2063616c6c6572206973206e6f7420746865206f776e65726044820152606401610afd565b600e5473ffffffffffffffffffffffffffffffffffffffff8381166401000000009092041614611a4b576040517f08c379a000000000000000000000000000000000000000000000000000000000815260206004820152602260248201527f596f7520646f6e742063616e207265636f766572206c6f747465727920746f6b60448201527f656e0000000000000000000000000000000000000000000000000000000000006064820152608401610afd565b611a6c73ffffffffffffffffffffffffffffffffffffffff831633836143c1565b6040805173ffffffffffffffffffffffffffffffffffffffff84168152602081018390527f74545154aac348a3eac92596bd1971957ca94795f4e954ec5f613b55fab78129910160405180910390a15050565b60015473ffffffffffffffffffffffffffffffffffffffff16331480611afc575060025473ffffffffffffffffffffffffffffffffffffffff1633145b611b62576040517f08c379a000000000000000000000000000000000000000000000000000000000815260206004820152601560248201527f4e6f74206f776e6572206f7220696e6a6563746f7200000000000000000000006044820152606401610afd565b60016000838152600f602052604090205460ff166003811115611b8757611b87614b99565b14611bee576040517f08c379a000000000000000000000000000000000000000000000000000000000815260206004820152601060248201527f4c6f7474657279206e6f74206f70656e000000000000000000000000000000006044820152606401610afd565b600e54611c1b90640100000000900473ffffffffffffffffffffffffffffffffffffffff163330846145a4565b6000828152600f60205260408120601a018054839290611c3c908490615012565b909155505060405181815282907f1bbd659dd628a25f7ff2eabb69c74a56939c539728282275c1c9c1a2d3e340499060200160405180910390a25050565b60015473ffffffffffffffffffffffffffffffffffffffff163314611cfb576040517f08c379a000000000000000000000000000000000000000000000000000000000815260206004820181905260248201527f4f776e61626c653a2063616c6c6572206973206e6f7420746865206f776e65726044820152606401610afd565b80600003611d65576040517f08c379a000000000000000000000000000000000000000000000000000000000815260206004820152600b60248201527f4d757374206265203e20300000000000000000000000000000000000000000006044820152606401610afd565b600755565b60015473ffffffffffffffffffffffffffffffffffffffff163314611deb576040517f08c379a000000000000000000000000000000000000000000000000000000000815260206004820181905260248201527f4f776e61626c653a2063616c6c6572206973206e6f7420746865206f776e65726044820152606401610afd565b60015460405160009173ffffffffffffffffffffffffffffffffffffffff16907f8be0079c531659141344cd1fd0a4f28419497f9722a3daafe3b4186f6b6457e0908390a3600180547fffffffffffffffffffffffff0000000000000000000000000000000000000000169055565b333b15611ec3576040517f08c379a000000000000000000000000000000000000000000000000000000000815260206004820152601460248201527f436f6e7472616374206e6f7420616c6c6f7765640000000000000000000000006044820152606401610afd565b333214611f2c576040517f08c379a000000000000000000000000000000000000000000000000000000000815260206004820152601a60248201527f50726f787920636f6e7472616374206e6f7420616c6c6f7765640000000000006044820152606401610afd565b600260005403611f98576040517f08c379a000000000000000000000000000000000000000000000000000000000815260206004820152601f60248201527f5265656e7472616e637947756172643a207265656e7472616e742063616c6c006044820152606401610afd565b600260005560145474010000000000000000000000000000000000000000900460ff168015611fde575060145473ffffffffffffffffffffffffffffffffffffffff1615155b1561210a576014546040517f70a0823100000000000000000000000000000000000000000000000000000000815233600482015260009173ffffffffffffffffffffffffffffffffffffffff16906370a0823190602401602060405180830381865afa158015612052573d6000803e3d6000fd5b505050506040513d601f19601f8201168201806040525081019061207691906152a0565b905060008111612108576040517f08c379a000000000000000000000000000000000000000000000000000000000815260206004820152602260248201527f596f752077616c6c6574206d757374206265207665726966696564206279204b60448201527f59430000000000000000000000000000000000000000000000000000000000006064820152608401610afd565b505b6000819003612175576040517f08c379a000000000000000000000000000000000000000000000000000000000815260206004820152601360248201527f4e6f207469636b657420737065636966696564000000000000000000000000006044820152606401610afd565b6007548111156121e1576040517f08c379a000000000000000000000000000000000000000000000000000000000815260206004820152601060248201527f546f6f206d616e79207469636b657473000000000000000000000000000000006044820152606401610afd565b60016000848152600f602052604090205460ff16600381111561220657612206614b99565b1461226d576040517f08c379a000000000000000000000000000000000000000000000000000000000815260206004820152601360248201527f4c6f7474657279206973206e6f74206f70656e000000000000000000000000006044820152606401610afd565b6000838152600f602052604090206002015442106122e7576040517f08c379a000000000000000000000000000000000000000000000000000000000815260206004820152600f60248201527f4c6f7474657279206973206f76657200000000000000000000000000000000006044820152606401610afd565b6000838152600f60205260408120600481015460039091015461230b919084614608565b600e5490915061233b90640100000000900473ffffffffffffffffffffffffffffffffffffffff163330846145a4565b6000848152600f60205260408120601a01805483929061235c908490615012565b90915550600090505b828110156126f357600084848381811061238157612381615025565b90506020020160208101906123969190614b2c565b90506123a46006600a6152b9565b6123ae90826150fa565b6123bb90620f4240615117565b9050620f42408163ffffffff16101580156123df5750621e847f8163ffffffff1611155b612445576040517f08c379a000000000000000000000000000000000000000000000000000000000815260206004820152600d60248201527f4f7574736964652072616e6765000000000000000000000000000000000000006044820152606401610afd565b60008681526012602052604081209061245f600a8461525a565b61246a906001615117565b63ffffffff1681526020810191909152604001600090812080549161248e83615054565b90915550506000868152601260205260408120906124ad60648461525a565b6124b890600b615117565b63ffffffff168152602081019190915260400160009081208054916124dc83615054565b90915550506000868152601260205260408120906124fc6103e88461525a565b61250790606f615117565b63ffffffff1681526020810191909152604001600090812080549161252b83615054565b909155505060008681526012602052604081209061254b6127108461525a565b61255790610457615117565b63ffffffff1681526020810191909152604001600090812080549161257b83615054565b909155505060008681526012602052604081209061259c620186a08461525a565b6125a890612b67615117565b63ffffffff168152602081019190915260400160009081208054916125cc83615054565b90915550506000868152601260205260408120906125ed620f42408461525a565b6125fa906201b207615117565b63ffffffff1681526020810191909152604001600090812080549161261e83615054565b90915550503360008181526013602090815260408083208a84528252808320600680548254600181018455928652848620909201919091558151808301835263ffffffff808816825281850196875282548652601090945291842091518254955173ffffffffffffffffffffffffffffffffffffffff16640100000000027fffffffffffffffff00000000000000000000000000000000000000000000000090961693169290921793909317909255815491906126da83615054565b91905055505080806126eb90615054565b915050612365565b50604051828152849033907fd7d247b583de1023852eef87b48f54354dbec771d01bc2cc49e96094efc322b99060200160405180910390a3505060016000555050565b6060808260008167ffffffffffffffff81111561275557612755614fe3565b60405190808252806020026020018201604052801561277e578160200160208202803683370190505b50905060008267ffffffffffffffff81111561279c5761279c614fe3565b6040519080825280602002602001820160405280156127c5578160200160208202803683370190505b50905060005b838110156128ed57601060008989848181106127e9576127e9615025565b90506020020135815260200190815260200160002060000160009054906101000a900463ffffffff1683828151811061282457612824615025565b63ffffffff9092166020928302919091019091015260006010818a8a8581811061285057612850615025565b6020908102929092013583525081019190915260400160002054640100000000900473ffffffffffffffffffffffffffffffffffffffff16036128b65760018282815181106128a1576128a1615025565b911515602092830291909101909101526128db565b60008282815181106128ca576128ca615025565b911515602092830291909101909101525b806128e581615054565b9150506127cb565b509093509150505b9250929050565b60015473ffffffffffffffffffffffffffffffffffffffff16331480612939575060035473ffffffffffffffffffffffffffffffffffffffff1633145b61299f576040517f08c379a000000000000000000000000000000000000000000000000000000000815260206004820152601560248201527f4e6f74206f776e6572206f72206f70657261746f7200000000000000000000006044820152606401610afd565b600260005403612a0b576040517f08c379a000000000000000000000000000000000000000000000000000000000815260206004820152601f60248201527f5265656e7472616e637947756172643a207265656e7472616e742063616c6c006044820152606401610afd565b600260005560016000828152600f602052604090205460ff166003811115612a3557612a35614b99565b14612a9c576040517f08c379a000000000000000000000000000000000000000000000000000000000815260206004820152601060248201527f4c6f7474657279206e6f74206f70656e000000000000000000000000000000006044820152606401610afd565b6000818152600f60205260409020600201544211612b16576040517f08c379a000000000000000000000000000000000000000000000000000000000815260206004820152601060248201527f4c6f7474657279206e6f74206f766572000000000000000000000000000000006044820152606401610afd565b6006546000828152600f6020526040902060198101919091558054600291907fffffffffffffffffffffffffffffffffffffffffffffffffffffffffffffff00166001830217905550807f3728e75294796694d59d2ffced9c394279baf7b9ebd2702db43f5f04bac67929600654604051612b9391815260200190565b60405180910390a2506001600055565b60015473ffffffffffffffffffffffffffffffffffffffff163314612c24576040517f08c379a000000000000000000000000000000000000000000000000000000000815260206004820181905260248201527f4f776e61626c653a2063616c6c6572206973206e6f7420746865206f776e65726044820152606401610afd565b601480547fffffffffffffffffffffffff00000000000000000000000000000000000000001673ffffffffffffffffffffffffffffffffffffffff92909216919091179055565b60015473ffffffffffffffffffffffffffffffffffffffff16331480612ca8575060035473ffffffffffffffffffffffffffffffffffffffff1633145b612d0e576040517f08c379a000000000000000000000000000000000000000000000000000000000815260206004820152601560248201527f4e6f74206f776e6572206f72206f70657261746f7200000000000000000000006044820152606401610afd565b6005541580612d42575060036005546000908152600f602052604090205460ff166003811115612d4057612d40614b99565b145b612da8576040517f08c379a000000000000000000000000000000000000000000000000000000000815260206004820152601960248201527f4e6f742074696d6520746f207374617274206c6f7474657279000000000000006044820152606401610afd565b61012c612db54287614fca565b118015612dcd57506228dfac612dcb4287614fca565b105b612e33576040517f08c379a000000000000000000000000000000000000000000000000000000000815260206004820152601f60248201527f4c6f7474657279206c656e677468206f757473696465206f662072616e6765006044820152606401610afd565b61012c831015612e9f576040517f08c379a000000000000000000000000000000000000000000000000000000000815260206004820152601860248201527f446973636f756e742064697669736f7220746f6f206c6f7700000000000000006044820152606401610afd565b610bb8811115612f0b576040517f08c379a000000000000000000000000000000000000000000000000000000000815260206004820152601560248201527f54726561737572792066656520746f6f206869676800000000000000000000006044820152606401610afd565b60a0820135608083013560608401356040850135612f2e60208701358735615012565b612f389190615012565b612f429190615012565b612f4c9190615012565b612f569190615012565b61271014612fc0576040517f08c379a000000000000000000000000000000000000000000000000000000000815260206004820152601860248201527f52657761726473206d75737420657175616c20313030303000000000000000006044820152606401610afd565b60058054906000612fd083615054565b9091555050604080516101a0810190915280600181526020014281526020018681526020018581526020018481526020018360068060200260405190810160405280929190826006602002808284376000920182905250928452505060208083018590526040805160c080820183528482528184018590528183018590526060808301869052608080840187905260a080850188905285890194909452845180840186528781528087018890528086018890528083018890528082018890528085018890529188019190915260065490870181905291860191909152600a549085015260e09093018290526005548252600f9052208151815482907fffffffffffffffffffffffffffffffffffffffffffffffffffffffffffffff0016600183600381111561310157613101614b99565b02179055506020820151600182015560408201516002820155606082015160038201556080820151600482015560a08201516131439060058301906006614918565b5060c0820151600b82015560e082015161316390600c8301906006614918565b5061010082015161317a9060128301906006614918565b5061012082015160188201556101408201516019820155610160820151601a82015561018090910151601b90910180547fffffffffffffffffffffffffffffffffffffffffffffffffffffffff000000001663ffffffff909216919091179055600554600654600a5460408051428152602081018a9052908101889052606081019290925260808201527f367e70f8c0e0c0a6504d92172bda155c02022d532fc85b5d66a9c49e31c8bc779060a00160405180910390a250506000600a55505050565b60015473ffffffffffffffffffffffffffffffffffffffff1633146132be576040517f08c379a000000000000000000000000000000000000000000000000000000000815260206004820181905260248201527f4f776e61626c653a2063616c6c6572206973206e6f7420746865206f776e65726044820152606401610afd565b60055415806132f2575060036005546000908152600f602052604090205460ff1660038111156132f0576132f0614b99565b145b61337e576040517f08c379a000000000000000000000000000000000000000000000000000000000815260206004820152603460248201527f596f752063616e742077697468647261772062616e6b207768696c65206c6f7460448201527f74657279206973206e6f742066696e69736865640000000000000000000000006064820152608401610afd565b600d546005546000908152600f60205260409020600201546133a09190615012565b4211613408576040517f08c379a000000000000000000000000000000000000000000000000000000000815260206004820152601260248201527f576974686472617720636f6f6c646f776e2100000000000000000000000000006044820152606401610afd565b600b5474010000000000000000000000000000000000000000900460ff161561348957600c5460009061343c6064846150d2565b613446919061508c565b90506134528183614fca565b600b54600e5491935061348791640100000000900473ffffffffffffffffffffffffffffffffffffffff9081169116836143c1565b505b600e546134b590640100000000900473ffffffffffffffffffffffffffffffffffffffff1633836143c1565b50565b600061012c841015613526576040517f08c379a000000000000000000000000000000000000000000000000000000000815260206004820152601f60248201527f4d757374206265203e3d204d494e5f444953434f554e545f44495649534f52006044820152606401610afd565b81600003613590576040517f08c379a000000000000000000000000000000000000000000000000000000000815260206004820152601d60248201527f4e756d626572206f66207469636b657473206d757374206265203e20300000006044820152606401610afd565b611910848484614608565b333b15613604576040517f08c379a000000000000000000000000000000000000000000000000000000000815260206004820152601460248201527f436f6e7472616374206e6f7420616c6c6f7765640000000000000000000000006044820152606401610afd565b33321461366d576040517f08c379a000000000000000000000000000000000000000000000000000000000815260206004820152601a60248201527f50726f787920636f6e7472616374206e6f7420616c6c6f7765640000000000006044820152606401610afd565b6002600054036136d9576040517f08c379a000000000000000000000000000000000000000000000000000000000815260206004820152601f60248201527f5265656e7472616e637947756172643a207265656e7472616e742063616c6c006044820152606401610afd565b6002600055828114613747576040517f08c379a000000000000000000000000000000000000000000000000000000000815260206004820152600f60248201527f4e6f742073616d65206c656e67746800000000000000000000000000000000006044820152606401610afd565b60008390036137b2576040517f08c379a000000000000000000000000000000000000000000000000000000000815260206004820152601160248201527f4c656e677468206d757374206265203e300000000000000000000000000000006044820152606401610afd565b60075483111561381e576040517f08c379a000000000000000000000000000000000000000000000000000000000815260206004820152601060248201527f546f6f206d616e79207469636b657473000000000000000000000000000000006044820152606401610afd565b60036000868152600f602052604090205460ff16600381111561384357613843614b99565b146138aa576040517f08c379a000000000000000000000000000000000000000000000000000000000815260206004820152601560248201527f4c6f7474657279206e6f7420636c61696d61626c6500000000000000000000006044820152606401610afd565b6000805b84811015613cbc5760068484838181106138ca576138ca615025565b90506020020160208101906138df9190614b2c565b63ffffffff161061394c576040517f08c379a000000000000000000000000000000000000000000000000000000000815260206004820152601460248201527f427261636b6574206f7574206f662072616e67650000000000000000000000006044820152606401610afd565b600086868381811061396057613960615025565b90506020020135905080600f60008a815260200190815260200160002060190154116139e8576040517f08c379a000000000000000000000000000000000000000000000000000000000815260206004820152601160248201527f5469636b6574496420746f6f20686967680000000000000000000000000000006044820152606401610afd565b6000888152600f6020526040902060180154811015613a63576040517f08c379a000000000000000000000000000000000000000000000000000000000815260206004820152601060248201527f5469636b6574496420746f6f206c6f77000000000000000000000000000000006044820152606401610afd565b600081815260106020526040902054640100000000900473ffffffffffffffffffffffffffffffffffffffff163314613af8576040517f08c379a000000000000000000000000000000000000000000000000000000000815260206004820152600d60248201527f4e6f7420746865206f776e6572000000000000000000000000000000000000006044820152606401610afd565b600081815260106020526040812080547fffffffffffffffff0000000000000000000000000000000000000000ffffffff169055613b5d8983888887818110613b4357613b43615025565b9050602002016020810190613b589190614b2c565b61449a565b905080600003613bc9576040517f08c379a000000000000000000000000000000000000000000000000000000000815260206004820152601960248201527f4e6f207072697a6520666f72207468697320627261636b6574000000000000006044820152606401610afd565b858584818110613bdb57613bdb615025565b9050602002016020810190613bf09190614b2c565b63ffffffff16600514613c9b57613c348983888887818110613c1457613c14615025565b9050602002016020810190613c299190614b2c565b613b58906001615117565b15613c9b576040517f08c379a000000000000000000000000000000000000000000000000000000000815260206004820152601660248201527f427261636b6574206d75737420626520686967686572000000000000000000006044820152606401610afd565b613ca58185615012565b935050508080613cb490615054565b9150506138ae565b50600e54613ce990640100000000900473ffffffffffffffffffffffffffffffffffffffff1633836143c1565b6040805182815260208101869052879133917f0f5fca62da8fb5d95525b49e5eaa7b20bc6bd9e2f6b64b493442d1c0bd6ef486910160405180910390a35050600160005550505050565b60015473ffffffffffffffffffffffffffffffffffffffff163314613db4576040517f08c379a000000000000000000000000000000000000000000000000000000000815260206004820181905260248201527f4f776e61626c653a2063616c6c6572206973206e6f7420746865206f776e65726044820152606401610afd565b73ffffffffffffffffffffffffffffffffffffffff8316613e31576040517f08c379a000000000000000000000000000000000000000000000000000000000815260206004820152601660248201527f43616e6e6f74206265207a65726f2061646472657373000000000000000000006044820152606401610afd565b73ffffffffffffffffffffffffffffffffffffffff8216613eae576040517f08c379a000000000000000000000000000000000000000000000000000000000815260206004820152601660248201527f43616e6e6f74206265207a65726f2061646472657373000000000000000000006044820152606401610afd565b73ffffffffffffffffffffffffffffffffffffffff8116613f2b576040517f08c379a000000000000000000000000000000000000000000000000000000000815260206004820152601660248201527f43616e6e6f74206265207a65726f2061646472657373000000000000000000006044820152606401610afd565b6003805473ffffffffffffffffffffffffffffffffffffffff8581167fffffffffffffffffffffffff0000000000000000000000000000000000000000928316811790935560048054868316908416811790915560028054928616929093168217909255604080519384526020840192909252908201527f3e945b7660001d46cfd5e729545f7f0b6c65bdee54066a91c7acad703f1b731e9060600160405180910390a1505050565b60015473ffffffffffffffffffffffffffffffffffffffff163314614055576040517f08c379a000000000000000000000000000000000000000000000000000000000815260206004820181905260248201527f4f776e61626c653a2063616c6c6572206973206e6f7420746865206f776e65726044820152606401610afd565b808211156140bf576040517f08c379a000000000000000000000000000000000000000000000000000000000815260206004820152601b60248201527f6d696e5072696365206d757374206265203c206d6178507269636500000000006044820152606401610afd565b600991909155600855565b60015473ffffffffffffffffffffffffffffffffffffffff16331461414b576040517f08c379a000000000000000000000000000000000000000000000000000000000815260206004820181905260248201527f4f776e61626c653a2063616c6c6572206973206e6f7420746865206f776e65726044820152606401610afd565b73ffffffffffffffffffffffffffffffffffffffff81166141ee576040517f08c379a000000000000000000000000000000000000000000000000000000000815260206004820152602660248201527f4f776e61626c653a206e6577206f776e657220697320746865207a65726f206160448201527f64647265737300000000000000000000000000000000000000000000000000006064820152608401610afd565b60015460405173ffffffffffffffffffffffffffffffffffffffff8084169216907f8be0079c531659141344cd1fd0a4f28419497f9722a3daafe3b4186f6b6457e090600090a3600180547fffffffffffffffffffffffff00000000000000000000000000000000000000001673ffffffffffffffffffffffffffffffffffffffff92909216919091179055565b60015473ffffffffffffffffffffffffffffffffffffffff1633146142fd576040517f08c379a000000000000000000000000000000000000000000000000000000000815260206004820181905260248201527f4f776e61626c653a2063616c6c6572206973206e6f7420746865206f776e65726044820152606401610afd565b73ffffffffffffffffffffffffffffffffffffffff811661437a576040517f08c379a000000000000000000000000000000000000000000000000000000000815260206004820152601660248201527f43616e6e6f74206265207a65726f2061646472657373000000000000000000006044820152606401610afd565b600380547fffffffffffffffffffffffff00000000000000000000000000000000000000001673ffffffffffffffffffffffffffffffffffffffff92909216919091179055565b60405173ffffffffffffffffffffffffffffffffffffffff83166024820152604481018290526144959084907fa9059cbb00000000000000000000000000000000000000000000000000000000906064015b604080517fffffffffffffffffffffffffffffffffffffffffffffffffffffffffffffffe08184030181529190526020810180517bffffffffffffffffffffffffffffffffffffffffffffffffffffffff167fffffffff000000000000000000000000000000000000000000000000000000009093169290921790915261463f565b505050565b6000838152600f60209081526040808320601b0154858452601090925282205463ffffffff9182169116826144d0856001615117565b6144db90600a615245565b6144e5908361525a565b63ffffffff808716600090815260116020526040902054614507929116615117565b90506000614516866001615117565b61452190600a615245565b61452b908561525a565b63ffffffff80881660009081526011602052604090205461454d929116615117565b90508063ffffffff168263ffffffff1603614597576000888152600f60205260409020600c0163ffffffff87166006811061458a5761458a615025565b015494505050505061188c565b600094505050505061188c565b60405173ffffffffffffffffffffffffffffffffffffffff808516602483015283166044820152606481018290526146029085907f23b872dd0000000000000000000000000000000000000000000000000000000090608401614413565b50505050565b60008382614617826001615012565b6146219190614fca565b61462b848661508c565b614635919061508c565b61191091906150d2565b60006146a1826040518060400160405280602081526020017f5361666545524332303a206c6f772d6c6576656c2063616c6c206661696c65648152508573ffffffffffffffffffffffffffffffffffffffff1661474b9092919063ffffffff16565b80519091501561449557808060200190518101906146bf91906152ce565b614495576040517f08c379a000000000000000000000000000000000000000000000000000000000815260206004820152602a60248201527f5361666545524332303a204552433230206f7065726174696f6e20646964206e60448201527f6f742073756363656564000000000000000000000000000000000000000000006064820152608401610afd565b6060611910848460008585843b6147be576040517f08c379a000000000000000000000000000000000000000000000000000000000815260206004820152601d60248201527f416464726573733a2063616c6c20746f206e6f6e2d636f6e74726163740000006044820152606401610afd565b6000808673ffffffffffffffffffffffffffffffffffffffff1685876040516147e7919061530f565b60006040518083038185875af1925050503d8060008114614824576040519150601f19603f3d011682016040523d82523d6000602084013e614829565b606091505b5091509150614839828286614844565b979650505050505050565b6060831561485357508161188c565b8251156148635782518084602001fd5b816040517f08c379a0000000000000000000000000000000000000000000000000000000008152600401610afd919061532b565b604080516101a081019091528060008152602001600081526020016000815260200160008152602001600081526020016148cf614956565b8152602001600081526020016148e3614956565b81526020016148f0614956565b8152602001600081526020016000815260200160008152602001600063ffffffff1681525090565b8260068101928215614946579160200282015b8281111561494657825182559160200191906001019061492b565b50614952929150614974565b5090565b6040518060c001604052806006906020820280368337509192915050565b5b808211156149525760008155600101614975565b803573ffffffffffffffffffffffffffffffffffffffff811681146149ad57600080fd5b919050565b600080600080608085870312156149c857600080fd5b6149d185614989565b966020860135965060408601359560600135945092505050565b600081518084526020808501945080840160005b83811015614a2157815163ffffffff16875295820195908201906001016149ff565b509495945050505050565b600081518084526020808501945080840160005b83811015614a21578151151587529582019590820190600101614a40565b6080808252855190820181905260009060209060a0840190828901845b82811015614a9757815184529284019290840190600101614a7b565b50505083810382850152614aab81886149eb565b9150508281036040840152614ac08186614a2c565b91505082606083015295945050505050565b600060208284031215614ae457600080fd5b61188c82614989565b80151581146134b557600080fd5b600060208284031215614b0d57600080fd5b813561188c81614aed565b803563ffffffff811681146149ad57600080fd5b600060208284031215614b3e57600080fd5b61188c82614b18565b600080600060608486031215614b5c57600080fd5b83359250602084013591506040840135614b7581614aed565b809150509250925092565b600060208284031215614b9257600080fd5b5035919050565b7f4e487b7100000000000000000000000000000000000000000000000000000000600052602160045260246000fd5b60048110614bff577f4e487b7100000000000000000000000000000000000000000000000000000000600052602160045260246000fd5b9052565b8060005b6006811015614602578151845260209384019390910190600101614c07565b600061038082019050614c3a828451614bc8565b6020830151602083015260408301516040830152606083015160608301526080830151608083015260a0830151614c7460a0840182614c03565b5060c0830151610160818185015260e08501519150610180614c9881860184614c03565b6101008601519250614cae610240860184614c03565b6101208601516103008601526101408601516103208601529085015161034085015284015163ffffffff811661036085015290505b5092915050565b600080600060608486031215614cff57600080fd5b8335925060208401359150614d1660408501614b18565b90509250925092565b60008060408385031215614d3257600080fd5b614d3b83614989565b946020939093013593505050565b60008060408385031215614d5c57600080fd5b50508035926020909101359150565b60008083601f840112614d7d57600080fd5b50813567ffffffffffffffff811115614d9557600080fd5b6020830191508360208260051b85010111156128f557600080fd5b600080600060408486031215614dc557600080fd5b83359250602084013567ffffffffffffffff811115614de357600080fd5b614def86828701614d6b565b9497909650939450505050565b60008060208385031215614e0f57600080fd5b823567ffffffffffffffff811115614e2657600080fd5b614e3285828601614d6b565b90969095509350505050565b604081526000614e5160408301856149eb565b8281036020840152614e638185614a2c565b95945050505050565b60008060008060006101408688031215614e8557600080fd5b853594506020860135935060408601359250610120860187811115614ea957600080fd5b94979396509194606001933592915050565b600080600060608486031215614ed057600080fd5b505081359360208301359350604090920135919050565b600080600080600060608688031215614eff57600080fd5b85359450602086013567ffffffffffffffff80821115614f1e57600080fd5b614f2a89838a01614d6b565b90965094506040880135915080821115614f4357600080fd5b50614f5088828901614d6b565b969995985093965092949392505050565b600080600060608486031215614f7657600080fd5b614f7f84614989565b9250614f8d60208501614989565b9150614d1660408501614989565b7f4e487b7100000000000000000000000000000000000000000000000000000000600052601160045260246000fd5b81810381811115614fdd57614fdd614f9b565b92915050565b7f4e487b7100000000000000000000000000000000000000000000000000000000600052604160045260246000fd5b80820180821115614fdd57614fdd614f9b565b7f4e487b7100000000000000000000000000000000000000000000000000000000600052603260045260246000fd5b60007fffffffffffffffffffffffffffffffffffffffffffffffffffffffffffffffff820361508557615085614f9b565b5060010190565b8082028115828204841417614fdd57614fdd614f9b565b7f4e487b7100000000000000000000000000000000000000000000000000000000600052601260045260246000fd5b6000826150e1576150e16150a3565b500490565b6000826150f5576150f56150a3565b500690565b63ffffffff828116828216039080821115614ce357614ce3614f9b565b63ffffffff818116838216019080821115614ce357614ce3614f9b565b600181815b80851115615171578163ffffffff0482111561515757615157614f9b565b8085161561516457918102915b93841c9390800290615139565b509250929050565b60008261518857506001614fdd565b8161519557506000614fdd565b81600181146151ab57600281146151b5576151e6565b6001915050614fdd565b60ff8411156151c6576151c6614f9b565b6001841b915063ffffffff8211156151e0576151e0614f9b565b50614fdd565b5060208310610133831016604e8410600b841016171561521d575081810a63ffffffff81111561521857615218614f9b565b614fdd565b6152278383615134565b8063ffffffff0482111561523d5761523d614f9b565b029392505050565b600063ffffffff611910818516828516615179565b600063ffffffff80841680615271576152716150a3565b92169190910692915050565b600063ffffffff80831681810361529657615296614f9b565b6001019392505050565b6000602082840312156152b257600080fd5b5051919050565b600061188c60ff841663ffffffff8416615179565b6000602082840312156152e057600080fd5b815161188c81614aed565b60005b838110156153065781810151838201526020016152ee565b50506000910152565b600082516153218184602087016152eb565b9190910192915050565b602081526000825180602084015261534a8160408501602087016152eb565b601f017fffffffffffffffffffffffffffffffffffffffffffffffffffffffffffffffe016919091016040019291505056fea264697066735822122086ce4985d096b8a644ddadd154950e87fccb0a6fb919b4f3652303d7cb8e1c5c64736f6c63430008110033",
			"opcodes": "PUSH1 0x80 PUSH1 0x40 MSTORE PUSH1 0x64 PUSH1 0x7 SSTORE PUSH10 0x69E10DE76676D0800000 PUSH1 0x8 SSTORE PUSH3 0x989680 PUSH1 0x9 SSTORE PUSH1 0xB DUP1 SLOAD PUSH21 0x1DF50EF7E506536354E7A805442DCBF25C7AC249B PUSH1 0x1 PUSH1 0x1 PUSH1 0xA8 SHL SUB NOT SWAP1 SWAP2 AND OR SWAP1 SSTORE PUSH1 0x14 PUSH1 0xC DUP2 SWAP1 SSTORE PUSH3 0x28DE80 PUSH1 0xD SSTORE PUSH1 0xE DUP1 SLOAD PUSH4 0xFFFFFFFF NOT AND PUSH1 0x6 OR SWAP1 SSTORE DUP1 SLOAD PUSH1 0xFF PUSH1 0xA0 SHL NOT AND PUSH1 0x1 PUSH1 0xA0 SHL OR SWAP1 SSTORE CALLVALUE DUP1 ISZERO PUSH3 0x83 JUMPI PUSH1 0x0 DUP1 REVERT JUMPDEST POP PUSH1 0x40 MLOAD PUSH3 0x59AF CODESIZE SUB DUP1 PUSH3 0x59AF DUP4 CODECOPY DUP2 ADD PUSH1 0x40 DUP2 SWAP1 MSTORE PUSH3 0xA6 SWAP2 PUSH3 0x552 JUMP JUMPDEST PUSH1 0x1 PUSH1 0x0 DUP2 DUP2 SSTORE DUP2 SLOAD PUSH1 0x1 PUSH1 0x1 PUSH1 0xA0 SHL SUB NOT AND CALLER SWAP1 DUP2 OR SWAP1 SWAP3 SSTORE PUSH1 0x40 MLOAD DUP3 SWAP2 SWAP1 PUSH32 0x8BE0079C531659141344CD1FD0A4F28419497F9722A3DAAFE3B4186F6B6457E0 SWAP1 DUP3 SWAP1 LOG3 POP PUSH1 0xE DUP1 SLOAD PUSH1 0x1 PUSH1 0x20 SHL PUSH1 0x1 PUSH1 0xC0 SHL SUB NOT AND PUSH5 0x100000000 PUSH1 0x1 PUSH1 0x1 PUSH1 0xA0 SHL SUB DUP8 DUP2 AND SWAP2 SWAP1 SWAP2 MUL SWAP2 SWAP1 SWAP2 OR SWAP1 SWAP2 SSTORE PUSH1 0x14 DUP1 SLOAD DUP5 DUP4 AND PUSH1 0x1 PUSH1 0x1 PUSH1 0xA8 SHL SUB NOT SWAP1 SWAP2 AND OR PUSH1 0x1 PUSH1 0xA0 SHL DUP5 ISZERO ISZERO DUP2 MUL SWAP2 SWAP1 SWAP2 OR SWAP1 SWAP2 SSTORE PUSH1 0xB DUP1 SLOAD PUSH1 0xFF PUSH1 0xA0 SHL NOT AND DUP7 ISZERO ISZERO SWAP1 SWAP3 MUL SWAP2 SWAP1 SWAP2 OR DUP2 SSTORE PUSH1 0x1 DUP1 SLOAD PUSH1 0x3 DUP1 SLOAD SWAP2 SWAP1 SWAP5 AND PUSH1 0x1 PUSH1 0x1 PUSH1 0xA0 SHL SUB NOT SWAP2 DUP3 AND DUP2 OR SWAP1 SWAP5 SSTORE PUSH1 0x4 DUP1 SLOAD DUP3 AND DUP6 OR SWAP1 SSTORE PUSH1 0x2 DUP1 SLOAD SWAP1 SWAP2 AND SWAP1 SWAP4 OR SWAP1 SWAP3 SSTORE PUSH1 0x11 PUSH1 0x20 MSTORE PUSH32 0x4AD3B33220DDDC71B994A52D72C06B10862965F7D926534C05C00FB7E819E7B7 DUP1 SLOAD PUSH4 0xFFFFFFFF NOT SWAP1 DUP2 AND SWAP1 SWAP4 OR SWAP1 SSTORE PUSH32 0x17BC176D2408558F6E4111FEEBC3CAB4E16B63E967BE91CDE721F4C8A488B552 DUP1 SLOAD DUP4 AND SWAP1 SWAP2 OR SWAP1 SSTORE PUSH32 0x8037D7B151CC412D25674A4E66B334D9AE9D2E5517A7FEAAE5CDB828BF1C628 DUP1 SLOAD DUP3 AND PUSH1 0x6F OR SWAP1 SSTORE PUSH32 0x9BFBAA59F8E10E7868F8B402DE9D605A390C45DDAEBD8C9DE3C6F31E733C87FF DUP1 SLOAD DUP3 AND PUSH2 0x457 OR SWAP1 SSTORE PUSH32 0x251164FE1D8864FE5E86082EAE9C288BC2B58695A4D28538DFE86E9E4F175585 DUP1 SLOAD DUP3 AND PUSH2 0x2B67 OR SWAP1 SSTORE PUSH1 0x5 PUSH1 0x0 DUP2 DUP2 MSTORE PUSH32 0xC550213CEE30AFD5E67CCBA7BE3D381BBC169034AE08EB3EC9168CACA9FE55E7 DUP1 SLOAD SWAP1 SWAP4 AND PUSH3 0x1B207 OR SWAP1 SWAP3 SSTORE DUP1 SLOAD SWAP2 PUSH3 0x2AC DUP4 PUSH3 0x5AF JUMP JUMPDEST SWAP1 SWAP2 SSTORE POP POP PUSH1 0x40 DUP1 MLOAD PUSH2 0x1A0 DUP2 ADD SWAP1 SWAP2 MSTORE DUP1 PUSH1 0x3 DUP2 MSTORE PUSH1 0x20 ADD TIMESTAMP DUP2 MSTORE PUSH1 0x20 ADD TIMESTAMP DUP2 MSTORE PUSH1 0x20 ADD PUSH1 0x0 DUP2 MSTORE PUSH1 0x20 ADD PUSH1 0x0 DUP2 MSTORE PUSH1 0x20 ADD PUSH1 0x40 MLOAD DUP1 PUSH1 0xC0 ADD PUSH1 0x40 MSTORE DUP1 PUSH1 0xFA DUP2 MSTORE PUSH1 0x20 ADD PUSH2 0x177 DUP2 MSTORE PUSH1 0x20 ADD PUSH2 0x271 DUP2 MSTORE PUSH1 0x20 ADD PUSH2 0x4E2 DUP2 MSTORE PUSH1 0x20 ADD PUSH2 0x9C4 DUP2 MSTORE PUSH1 0x20 ADD PUSH2 0x1388 DUP2 MSTORE POP DUP2 MSTORE PUSH1 0x20 ADD PUSH2 0x7D0 DUP2 MSTORE PUSH1 0x20 ADD PUSH1 0x40 MLOAD DUP1 PUSH1 0xC0 ADD PUSH1 0x40 MSTORE DUP1 PUSH1 0x0 DUP2 MSTORE PUSH1 0x20 ADD PUSH1 0x0 DUP2 MSTORE PUSH1 0x20 ADD PUSH1 0x0 DUP2 MSTORE PUSH1 0x20 ADD PUSH1 0x0 DUP2 MSTORE PUSH1 0x20 ADD PUSH1 0x0 DUP2 MSTORE PUSH1 0x20 ADD PUSH1 0x0 DUP2 MSTORE POP DUP2 MSTORE PUSH1 0x20 ADD PUSH1 0x40 MLOAD DUP1 PUSH1 0xC0 ADD PUSH1 0x40 MSTORE DUP1 PUSH1 0x0 DUP2 MSTORE PUSH1 0x20 ADD PUSH1 0x0 DUP2 MSTORE PUSH1 0x20 ADD PUSH1 0x0 DUP2 MSTORE PUSH1 0x20 ADD PUSH1 0x0 DUP2 MSTORE PUSH1 0x20 ADD PUSH1 0x0 DUP2 MSTORE PUSH1 0x20 ADD PUSH1 0x0 DUP2 MSTORE POP DUP2 MSTORE PUSH1 0x20 ADD PUSH1 0x6 SLOAD DUP2 MSTORE PUSH1 0x20 ADD PUSH1 0x6 SLOAD DUP2 MSTORE PUSH1 0x20 ADD PUSH1 0xA SLOAD DUP2 MSTORE PUSH1 0x20 ADD PUSH3 0xF4240 PUSH4 0xFFFFFFFF AND DUP2 MSTORE POP PUSH1 0xF PUSH1 0x0 PUSH1 0x5 SLOAD DUP2 MSTORE PUSH1 0x20 ADD SWAP1 DUP2 MSTORE PUSH1 0x20 ADD PUSH1 0x0 KECCAK256 PUSH1 0x0 DUP3 ADD MLOAD DUP2 PUSH1 0x0 ADD PUSH1 0x0 PUSH2 0x100 EXP DUP2 SLOAD DUP2 PUSH1 0xFF MUL NOT AND SWAP1 DUP4 PUSH1 0x3 DUP2 GT ISZERO PUSH3 0x3FB JUMPI PUSH3 0x3FB PUSH3 0x5D7 JUMP JUMPDEST MUL OR SWAP1 SSTORE POP PUSH1 0x20 DUP3 ADD MLOAD PUSH1 0x1 DUP3 ADD SSTORE PUSH1 0x40 DUP3 ADD MLOAD PUSH1 0x2 DUP3 ADD SSTORE PUSH1 0x60 DUP3 ADD MLOAD PUSH1 0x3 DUP3 ADD SSTORE PUSH1 0x80 DUP3 ADD MLOAD PUSH1 0x4 DUP3 ADD SSTORE PUSH1 0xA0 DUP3 ADD MLOAD PUSH3 0x43F SWAP1 PUSH1 0x5 DUP4 ADD SWAP1 PUSH1 0x6 PUSH3 0x4CA JUMP JUMPDEST POP PUSH1 0xC0 DUP3 ADD MLOAD PUSH1 0xB DUP3 ADD SSTORE PUSH1 0xE0 DUP3 ADD MLOAD PUSH3 0x461 SWAP1 PUSH1 0xC DUP4 ADD SWAP1 PUSH1 0x6 PUSH3 0x4CA JUMP JUMPDEST POP PUSH2 0x100 DUP3 ADD MLOAD PUSH3 0x47A SWAP1 PUSH1 0x12 DUP4 ADD SWAP1 PUSH1 0x6 PUSH3 0x4CA JUMP JUMPDEST POP PUSH2 0x120 DUP3 ADD MLOAD PUSH1 0x18 DUP3 ADD SSTORE PUSH2 0x140 DUP3 ADD MLOAD PUSH1 0x19 DUP3 ADD SSTORE PUSH2 0x160 DUP3 ADD MLOAD PUSH1 0x1A DUP3 ADD SSTORE PUSH2 0x180 SWAP1 SWAP2 ADD MLOAD PUSH1 0x1B SWAP1 SWAP2 ADD DUP1 SLOAD PUSH4 0xFFFFFFFF NOT AND PUSH4 0xFFFFFFFF SWAP1 SWAP3 AND SWAP2 SWAP1 SWAP2 OR SWAP1 SSTORE POP PUSH3 0x5ED SWAP3 POP POP POP JUMP JUMPDEST DUP3 PUSH1 0x6 DUP2 ADD SWAP3 DUP3 ISZERO PUSH3 0x4FB JUMPI SWAP2 PUSH1 0x20 MUL DUP3 ADD JUMPDEST DUP3 DUP2 GT ISZERO PUSH3 0x4FB JUMPI DUP3 MLOAD DUP3 SSTORE SWAP2 PUSH1 0x20 ADD SWAP2 SWAP1 PUSH1 0x1 ADD SWAP1 PUSH3 0x4DE JUMP JUMPDEST POP PUSH3 0x509 SWAP3 SWAP2 POP PUSH3 0x50D JUMP JUMPDEST POP SWAP1 JUMP JUMPDEST JUMPDEST DUP1 DUP3 GT ISZERO PUSH3 0x509 JUMPI PUSH1 0x0 DUP2 SSTORE PUSH1 0x1 ADD PUSH3 0x50E JUMP JUMPDEST DUP1 MLOAD PUSH1 0x1 PUSH1 0x1 PUSH1 0xA0 SHL SUB DUP2 AND DUP2 EQ PUSH3 0x53C JUMPI PUSH1 0x0 DUP1 REVERT JUMPDEST SWAP2 SWAP1 POP JUMP JUMPDEST DUP1 MLOAD DUP1 ISZERO ISZERO DUP2 EQ PUSH3 0x53C JUMPI PUSH1 0x0 DUP1 REVERT JUMPDEST PUSH1 0x0 DUP1 PUSH1 0x0 DUP1 PUSH1 0x80 DUP6 DUP8 SUB SLT ISZERO PUSH3 0x569 JUMPI PUSH1 0x0 DUP1 REVERT JUMPDEST PUSH3 0x574 DUP6 PUSH3 0x524 JUMP JUMPDEST SWAP4 POP PUSH3 0x584 PUSH1 0x20 DUP7 ADD PUSH3 0x541 JUMP JUMPDEST SWAP3 POP PUSH3 0x594 PUSH1 0x40 DUP7 ADD PUSH3 0x524 JUMP JUMPDEST SWAP2 POP PUSH3 0x5A4 PUSH1 0x60 DUP7 ADD PUSH3 0x541 JUMP JUMPDEST SWAP1 POP SWAP3 SWAP6 SWAP2 SWAP5 POP SWAP3 POP JUMP JUMPDEST PUSH1 0x0 PUSH1 0x1 DUP3 ADD PUSH3 0x5D0 JUMPI PUSH4 0x4E487B71 PUSH1 0xE0 SHL PUSH1 0x0 MSTORE PUSH1 0x11 PUSH1 0x4 MSTORE PUSH1 0x24 PUSH1 0x0 REVERT JUMPDEST POP PUSH1 0x1 ADD SWAP1 JUMP JUMPDEST PUSH4 0x4E487B71 PUSH1 0xE0 SHL PUSH1 0x0 MSTORE PUSH1 0x21 PUSH1 0x4 MSTORE PUSH1 0x24 PUSH1 0x0 REVERT JUMPDEST PUSH2 0x53B2 DUP1 PUSH3 0x5FD PUSH1 0x0 CODECOPY PUSH1 0x0 RETURN INVALID PUSH1 0x80 PUSH1 0x40 MSTORE CALLVALUE DUP1 ISZERO PUSH2 0x10 JUMPI PUSH1 0x0 DUP1 REVERT JUMPDEST POP PUSH1 0x4 CALLDATASIZE LT PUSH2 0x320 JUMPI PUSH1 0x0 CALLDATALOAD PUSH1 0xE0 SHR DUP1 PUSH4 0x7CB583BD GT PUSH2 0x1A7 JUMPI DUP1 PUSH4 0xC5F956AF GT PUSH2 0xEE JUMPI DUP1 PUSH4 0xDB19DA0D GT PUSH2 0x97 JUMPI DUP1 PUSH4 0xF2FDE38B GT PUSH2 0x71 JUMPI DUP1 PUSH4 0xF2FDE38B EQ PUSH2 0x6E8 JUMPI DUP1 PUSH4 0xF6783518 EQ PUSH2 0x6FB JUMPI DUP1 PUSH4 0xFE014066 EQ PUSH2 0x71B JUMPI PUSH1 0x0 DUP1 REVERT JUMPDEST DUP1 PUSH4 0xDB19DA0D EQ PUSH2 0x6CD JUMPI DUP1 PUSH4 0xDBDEC7EC EQ PUSH2 0x6D7 JUMPI DUP1 PUSH4 0xF2B3C809 EQ PUSH2 0x6DF JUMPI PUSH1 0x0 DUP1 REVERT JUMPDEST DUP1 PUSH4 0xD86B2982 GT PUSH2 0xC8 JUMPI DUP1 PUSH4 0xD86B2982 EQ PUSH2 0x682 JUMPI DUP1 PUSH4 0xDA4CA039 EQ PUSH2 0x6A7 JUMPI DUP1 PUSH4 0xDA7429F8 EQ PUSH2 0x6BA JUMPI PUSH1 0x0 DUP1 REVERT JUMPDEST DUP1 PUSH4 0xC5F956AF EQ PUSH2 0x62A JUMPI DUP1 PUSH4 0xC914914F EQ PUSH2 0x64A JUMPI DUP1 PUSH4 0xCEC33199 EQ PUSH2 0x65D JUMPI PUSH1 0x0 DUP1 REVERT JUMPDEST DUP1 PUSH4 0x9C384653 GT PUSH2 0x150 JUMPI DUP1 PUSH4 0xB1829B82 GT PUSH2 0x12A JUMPI DUP1 PUSH4 0xB1829B82 EQ PUSH2 0x5F1 JUMPI DUP1 PUSH4 0xBE2FF4A9 EQ PUSH2 0x604 JUMPI DUP1 PUSH4 0xC4937AB9 EQ PUSH2 0x617 JUMPI PUSH1 0x0 DUP1 REVERT JUMPDEST DUP1 PUSH4 0x9C384653 EQ PUSH2 0x5AB JUMPI DUP1 PUSH4 0x9D8CA531 EQ PUSH2 0x5CB JUMPI DUP1 PUSH4 0xA3C1C4A9 EQ PUSH2 0x5DE JUMPI PUSH1 0x0 DUP1 REVERT JUMPDEST DUP1 PUSH4 0x8904BF2F GT PUSH2 0x181 JUMPI DUP1 PUSH4 0x8904BF2F EQ PUSH2 0x544 JUMPI DUP1 PUSH4 0x8DA5CB5B EQ PUSH2 0x56C JUMPI DUP1 PUSH4 0x8FC3539A EQ PUSH2 0x58A JUMPI PUSH1 0x0 DUP1 REVERT JUMPDEST DUP1 PUSH4 0x7CB583BD EQ PUSH2 0x351 JUMPI DUP1 PUSH4 0x80A06160 EQ PUSH2 0x529 JUMPI DUP1 PUSH4 0x88303DBD EQ PUSH2 0x531 JUMPI PUSH1 0x0 DUP1 REVERT JUMPDEST DUP1 PUSH4 0x2CFAF797 GT PUSH2 0x26B JUMPI DUP1 PUSH4 0x48C2C21F GT PUSH2 0x214 JUMPI DUP1 PUSH4 0x6B873788 GT PUSH2 0x1EE JUMPI DUP1 PUSH4 0x6B873788 EQ PUSH2 0x505 JUMPI DUP1 PUSH4 0x6BE4097C EQ PUSH2 0x518 JUMPI DUP1 PUSH4 0x715018A6 EQ PUSH2 0x521 JUMPI PUSH1 0x0 DUP1 REVERT JUMPDEST DUP1 PUSH4 0x48C2C21F EQ PUSH2 0x4B7 JUMPI DUP1 PUSH4 0x628A167C EQ PUSH2 0x4D7 JUMPI DUP1 PUSH4 0x686465B8 EQ PUSH2 0x4FC JUMPI PUSH1 0x0 DUP1 REVERT JUMPDEST DUP1 PUSH4 0x3CBFE3A1 GT PUSH2 0x245 JUMPI DUP1 PUSH4 0x3CBFE3A1 EQ PUSH2 0x488 JUMPI DUP1 PUSH4 0x3F138D4B EQ PUSH2 0x491 JUMPI DUP1 PUSH4 0x471AEAB4 EQ PUSH2 0x4A4 JUMPI PUSH1 0x0 DUP1 REVERT JUMPDEST DUP1 PUSH4 0x2CFAF797 EQ PUSH2 0x449 JUMPI DUP1 PUSH4 0x2E530CAE EQ PUSH2 0x46C JUMPI DUP1 PUSH4 0x31FEB565 EQ PUSH2 0x47F JUMPI PUSH1 0x0 DUP1 REVERT JUMPDEST DUP1 PUSH4 0x1F73664B GT PUSH2 0x2CD JUMPI DUP1 PUSH4 0x2385860B GT PUSH2 0x2A7 JUMPI DUP1 PUSH4 0x2385860B EQ PUSH2 0x403 JUMPI DUP1 PUSH4 0x2423807A EQ PUSH2 0x416 JUMPI DUP1 PUSH4 0x2C4E93B0 EQ PUSH2 0x436 JUMPI PUSH1 0x0 DUP1 REVERT JUMPDEST DUP1 PUSH4 0x1F73664B EQ PUSH2 0x3DE JUMPI DUP1 PUSH4 0x1FE86C6B EQ PUSH2 0x3E7 JUMPI DUP1 PUSH4 0x20211A30 EQ PUSH2 0x3F0 JUMPI PUSH1 0x0 DUP1 REVERT JUMPDEST DUP1 PUSH4 0x127EFFB2 GT PUSH2 0x2FE JUMPI DUP1 PUSH4 0x127EFFB2 EQ PUSH2 0x37D JUMPI DUP1 PUSH4 0x12A9769D EQ PUSH2 0x3C2 JUMPI DUP1 PUSH4 0x1F710996 EQ PUSH2 0x3CB JUMPI PUSH1 0x0 DUP1 REVERT JUMPDEST DUP1 PUSH4 0x5531EEB EQ PUSH2 0x325 JUMPI DUP1 PUSH4 0x7FB5A9C EQ PUSH2 0x351 JUMPI DUP1 PUSH4 0x9B86C9D EQ PUSH2 0x368 JUMPI JUMPDEST PUSH1 0x0 DUP1 REVERT JUMPDEST PUSH2 0x338 PUSH2 0x333 CALLDATASIZE PUSH1 0x4 PUSH2 0x49B2 JUMP JUMPDEST PUSH2 0x72E JUMP JUMPDEST PUSH1 0x40 MLOAD PUSH2 0x348 SWAP5 SWAP4 SWAP3 SWAP2 SWAP1 PUSH2 0x4A5E JUMP JUMPDEST PUSH1 0x40 MLOAD DUP1 SWAP2 SUB SWAP1 RETURN JUMPDEST PUSH2 0x35A PUSH2 0x12C DUP2 JUMP JUMPDEST PUSH1 0x40 MLOAD SWAP1 DUP2 MSTORE PUSH1 0x20 ADD PUSH2 0x348 JUMP JUMPDEST PUSH2 0x37B PUSH2 0x376 CALLDATASIZE PUSH1 0x4 PUSH2 0x4AD2 JUMP JUMPDEST PUSH2 0xA5A JUMP JUMPDEST STOP JUMPDEST PUSH1 0x3 SLOAD PUSH2 0x39D SWAP1 PUSH20 0xFFFFFFFFFFFFFFFFFFFFFFFFFFFFFFFFFFFFFFFF AND DUP2 JUMP JUMPDEST PUSH1 0x40 MLOAD PUSH20 0xFFFFFFFFFFFFFFFFFFFFFFFFFFFFFFFFFFFFFFFF SWAP1 SWAP2 AND DUP2 MSTORE PUSH1 0x20 ADD PUSH2 0x348 JUMP JUMPDEST PUSH2 0x35A PUSH1 0xA SLOAD DUP2 JUMP JUMPDEST PUSH2 0x37B PUSH2 0x3D9 CALLDATASIZE PUSH1 0x4 PUSH2 0x4AFB JUMP JUMPDEST PUSH2 0xB4D JUMP JUMPDEST PUSH2 0x35A PUSH1 0x8 SLOAD DUP2 JUMP JUMPDEST PUSH2 0x35A PUSH1 0x7 SLOAD DUP2 JUMP JUMPDEST PUSH2 0x37B PUSH2 0x3FE CALLDATASIZE PUSH1 0x4 PUSH2 0x4B2C JUMP JUMPDEST PUSH2 0xC3E JUMP JUMPDEST PUSH2 0x37B PUSH2 0x411 CALLDATASIZE PUSH1 0x4 PUSH2 0x4B47 JUMP JUMPDEST PUSH2 0xE72 JUMP JUMPDEST PUSH2 0x429 PUSH2 0x424 CALLDATASIZE PUSH1 0x4 PUSH2 0x4B80 JUMP JUMPDEST PUSH2 0x1567 JUMP JUMPDEST PUSH1 0x40 MLOAD PUSH2 0x348 SWAP2 SWAP1 PUSH2 0x4C26 JUMP JUMPDEST PUSH2 0x37B PUSH2 0x444 CALLDATASIZE PUSH1 0x4 PUSH2 0x4AFB JUMP JUMPDEST PUSH2 0x16C8 JUMP JUMPDEST PUSH2 0x45C PUSH2 0x457 CALLDATASIZE PUSH1 0x4 PUSH2 0x4AD2 JUMP JUMPDEST PUSH2 0x1793 JUMP JUMPDEST PUSH1 0x40 MLOAD SWAP1 ISZERO ISZERO DUP2 MSTORE PUSH1 0x20 ADD PUSH2 0x348 JUMP JUMPDEST PUSH2 0x35A PUSH2 0x47A CALLDATASIZE PUSH1 0x4 PUSH2 0x4CEA JUMP JUMPDEST PUSH2 0x1893 JUMP JUMPDEST PUSH2 0x35A PUSH1 0x9 SLOAD DUP2 JUMP JUMPDEST PUSH2 0x35A PUSH1 0xD SLOAD DUP2 JUMP JUMPDEST PUSH2 0x37B PUSH2 0x49F CALLDATASIZE PUSH1 0x4 PUSH2 0x4D1F JUMP JUMPDEST PUSH2 0x1918 JUMP JUMPDEST PUSH2 0x37B PUSH2 0x4B2 CALLDATASIZE PUSH1 0x4 PUSH2 0x4D49 JUMP JUMPDEST PUSH2 0x1ABF JUMP JUMPDEST PUSH1 0xB SLOAD PUSH2 0x39D SWAP1 PUSH20 0xFFFFFFFFFFFFFFFFFFFFFFFFFFFFFFFFFFFFFFFF AND DUP2 JUMP JUMPDEST PUSH1 0xB SLOAD PUSH2 0x45C SWAP1 PUSH21 0x10000000000000000000000000000000000000000 SWAP1 DIV PUSH1 0xFF AND DUP2 JUMP JUMPDEST PUSH2 0x35A PUSH1 0x6 SLOAD DUP2 JUMP JUMPDEST PUSH2 0x37B PUSH2 0x513 CALLDATASIZE PUSH1 0x4 PUSH2 0x4B80 JUMP JUMPDEST PUSH2 0x1C7A JUMP JUMPDEST PUSH2 0x35A PUSH1 0x5 SLOAD DUP2 JUMP JUMPDEST PUSH2 0x37B PUSH2 0x1D6A JUMP JUMPDEST PUSH1 0x5 SLOAD PUSH2 0x35A JUMP JUMPDEST PUSH2 0x37B PUSH2 0x53F CALLDATASIZE PUSH1 0x4 PUSH2 0x4DB0 JUMP JUMPDEST PUSH2 0x1E5A JUMP JUMPDEST PUSH1 0xE SLOAD PUSH2 0x39D SWAP1 PUSH5 0x100000000 SWAP1 DIV PUSH20 0xFFFFFFFFFFFFFFFFFFFFFFFFFFFFFFFFFFFFFFFF AND DUP2 JUMP JUMPDEST PUSH1 0x1 SLOAD PUSH20 0xFFFFFFFFFFFFFFFFFFFFFFFFFFFFFFFFFFFFFFFF AND PUSH2 0x39D JUMP JUMPDEST PUSH2 0x59D PUSH2 0x598 CALLDATASIZE PUSH1 0x4 PUSH2 0x4DFC JUMP JUMPDEST PUSH2 0x2736 JUMP JUMPDEST PUSH1 0x40 MLOAD PUSH2 0x348 SWAP3 SWAP2 SWAP1 PUSH2 0x4E3E JUMP JUMPDEST PUSH1 0x2 SLOAD PUSH2 0x39D SWAP1 PUSH20 0xFFFFFFFFFFFFFFFFFFFFFFFFFFFFFFFFFFFFFFFF AND DUP2 JUMP JUMPDEST PUSH2 0x37B PUSH2 0x5D9 CALLDATASIZE PUSH1 0x4 PUSH2 0x4B80 JUMP JUMPDEST PUSH2 0x28FC JUMP JUMPDEST PUSH2 0x37B PUSH2 0x5EC CALLDATASIZE PUSH1 0x4 PUSH2 0x4AD2 JUMP JUMPDEST PUSH2 0x2BA3 JUMP JUMPDEST PUSH2 0x37B PUSH2 0x5FF CALLDATASIZE PUSH1 0x4 PUSH2 0x4E6C JUMP JUMPDEST PUSH2 0x2C6B JUMP JUMPDEST PUSH2 0x37B PUSH2 0x612 CALLDATASIZE PUSH1 0x4 PUSH2 0x4B80 JUMP JUMPDEST PUSH2 0x323D JUMP JUMPDEST PUSH2 0x35A PUSH2 0x625 CALLDATASIZE PUSH1 0x4 PUSH2 0x4EBB JUMP JUMPDEST PUSH2 0x34B8 JUMP JUMPDEST PUSH1 0x4 SLOAD PUSH2 0x39D SWAP1 PUSH20 0xFFFFFFFFFFFFFFFFFFFFFFFFFFFFFFFFFFFFFFFF AND DUP2 JUMP JUMPDEST PUSH2 0x37B PUSH2 0x658 CALLDATASIZE PUSH1 0x4 PUSH2 0x4EE7 JUMP JUMPDEST PUSH2 0x359B JUMP JUMPDEST PUSH1 0x14 SLOAD PUSH2 0x45C SWAP1 PUSH21 0x10000000000000000000000000000000000000000 SWAP1 DIV PUSH1 0xFF AND DUP2 JUMP JUMPDEST PUSH1 0xE SLOAD PUSH2 0x692 SWAP1 PUSH4 0xFFFFFFFF AND DUP2 JUMP JUMPDEST PUSH1 0x40 MLOAD PUSH4 0xFFFFFFFF SWAP1 SWAP2 AND DUP2 MSTORE PUSH1 0x20 ADD PUSH2 0x348 JUMP JUMPDEST PUSH2 0x37B PUSH2 0x6B5 CALLDATASIZE PUSH1 0x4 PUSH2 0x4F61 JUMP JUMPDEST PUSH2 0x3D33 JUMP JUMPDEST PUSH2 0x37B PUSH2 0x6C8 CALLDATASIZE PUSH1 0x4 PUSH2 0x4D49 JUMP JUMPDEST PUSH2 0x3FD4 JUMP JUMPDEST PUSH2 0x35A PUSH3 0x28DFAC DUP2 JUMP JUMPDEST PUSH2 0x45C PUSH1 0x1 DUP2 JUMP JUMPDEST PUSH2 0x35A PUSH2 0xBB8 DUP2 JUMP JUMPDEST PUSH2 0x37B PUSH2 0x6F6 CALLDATASIZE PUSH1 0x4 PUSH2 0x4AD2 JUMP JUMPDEST PUSH2 0x40CA JUMP JUMPDEST PUSH1 0x14 SLOAD PUSH2 0x39D SWAP1 PUSH20 0xFFFFFFFFFFFFFFFFFFFFFFFFFFFFFFFFFFFFFFFF AND DUP2 JUMP JUMPDEST PUSH2 0x37B PUSH2 0x729 CALLDATASIZE PUSH1 0x4 PUSH2 0x4AD2 JUMP JUMPDEST PUSH2 0x427C JUMP JUMPDEST PUSH20 0xFFFFFFFFFFFFFFFFFFFFFFFFFFFFFFFFFFFFFFFF DUP5 AND PUSH1 0x0 SWAP1 DUP2 MSTORE PUSH1 0x13 PUSH1 0x20 SWAP1 DUP2 MSTORE PUSH1 0x40 DUP1 DUP4 KECCAK256 DUP7 DUP5 MSTORE SWAP1 SWAP2 MSTORE DUP2 KECCAK256 SLOAD PUSH1 0x60 SWAP2 DUP3 SWAP2 DUP3 SWAP2 SWAP1 DUP6 SWAP1 PUSH2 0x773 DUP9 DUP3 PUSH2 0x4FCA JUMP JUMPDEST DUP3 GT ISZERO PUSH2 0x787 JUMPI PUSH2 0x784 DUP9 DUP3 PUSH2 0x4FCA JUMP JUMPDEST SWAP2 POP JUMPDEST PUSH1 0x0 DUP3 PUSH8 0xFFFFFFFFFFFFFFFF DUP2 GT ISZERO PUSH2 0x7A2 JUMPI PUSH2 0x7A2 PUSH2 0x4FE3 JUMP JUMPDEST PUSH1 0x40 MLOAD SWAP1 DUP1 DUP3 MSTORE DUP1 PUSH1 0x20 MUL PUSH1 0x20 ADD DUP3 ADD PUSH1 0x40 MSTORE DUP1 ISZERO PUSH2 0x7CB JUMPI DUP2 PUSH1 0x20 ADD PUSH1 0x20 DUP3 MUL DUP1 CALLDATASIZE DUP4 CALLDATACOPY ADD SWAP1 POP JUMPDEST POP SWAP1 POP PUSH1 0x0 DUP4 PUSH8 0xFFFFFFFFFFFFFFFF DUP2 GT ISZERO PUSH2 0x7E9 JUMPI PUSH2 0x7E9 PUSH2 0x4FE3 JUMP JUMPDEST PUSH1 0x40 MLOAD SWAP1 DUP1 DUP3 MSTORE DUP1 PUSH1 0x20 MUL PUSH1 0x20 ADD DUP3 ADD PUSH1 0x40 MSTORE DUP1 ISZERO PUSH2 0x812 JUMPI DUP2 PUSH1 0x20 ADD PUSH1 0x20 DUP3 MUL DUP1 CALLDATASIZE DUP4 CALLDATACOPY ADD SWAP1 POP JUMPDEST POP SWAP1 POP PUSH1 0x0 DUP5 PUSH8 0xFFFFFFFFFFFFFFFF DUP2 GT ISZERO PUSH2 0x830 JUMPI PUSH2 0x830 PUSH2 0x4FE3 JUMP JUMPDEST PUSH1 0x40 MLOAD SWAP1 DUP1 DUP3 MSTORE DUP1 PUSH1 0x20 MUL PUSH1 0x20 ADD DUP3 ADD PUSH1 0x40 MSTORE DUP1 ISZERO PUSH2 0x859 JUMPI DUP2 PUSH1 0x20 ADD PUSH1 0x20 DUP3 MUL DUP1 CALLDATASIZE DUP4 CALLDATACOPY ADD SWAP1 POP JUMPDEST POP SWAP1 POP PUSH1 0x0 JUMPDEST DUP6 DUP2 LT ISZERO PUSH2 0xA34 JUMPI PUSH1 0x13 PUSH1 0x0 DUP16 PUSH20 0xFFFFFFFFFFFFFFFFFFFFFFFFFFFFFFFFFFFFFFFF AND PUSH20 0xFFFFFFFFFFFFFFFFFFFFFFFFFFFFFFFFFFFFFFFF AND DUP2 MSTORE PUSH1 0x20 ADD SWAP1 DUP2 MSTORE PUSH1 0x20 ADD PUSH1 0x0 KECCAK256 PUSH1 0x0 DUP15 DUP2 MSTORE PUSH1 0x20 ADD SWAP1 DUP2 MSTORE PUSH1 0x20 ADD PUSH1 0x0 KECCAK256 DUP13 DUP3 PUSH2 0x8C3 SWAP2 SWAP1 PUSH2 0x5012 JUMP JUMPDEST DUP2 SLOAD DUP2 LT PUSH2 0x8D3 JUMPI PUSH2 0x8D3 PUSH2 0x5025 JUMP JUMPDEST SWAP1 PUSH1 0x0 MSTORE PUSH1 0x20 PUSH1 0x0 KECCAK256 ADD SLOAD DUP5 DUP3 DUP2 MLOAD DUP2 LT PUSH2 0x8F0 JUMPI PUSH2 0x8F0 PUSH2 0x5025 JUMP JUMPDEST PUSH1 0x20 MUL PUSH1 0x20 ADD ADD DUP2 DUP2 MSTORE POP POP PUSH1 0x10 PUSH1 0x0 DUP6 DUP4 DUP2 MLOAD DUP2 LT PUSH2 0x912 JUMPI PUSH2 0x912 PUSH2 0x5025 JUMP JUMPDEST PUSH1 0x20 MUL PUSH1 0x20 ADD ADD MLOAD DUP2 MSTORE PUSH1 0x20 ADD SWAP1 DUP2 MSTORE PUSH1 0x20 ADD PUSH1 0x0 KECCAK256 PUSH1 0x0 ADD PUSH1 0x0 SWAP1 SLOAD SWAP1 PUSH2 0x100 EXP SWAP1 DIV PUSH4 0xFFFFFFFF AND DUP4 DUP3 DUP2 MLOAD DUP2 LT PUSH2 0x94E JUMPI PUSH2 0x94E PUSH2 0x5025 JUMP JUMPDEST PUSH1 0x20 MUL PUSH1 0x20 ADD ADD SWAP1 PUSH4 0xFFFFFFFF AND SWAP1 DUP2 PUSH4 0xFFFFFFFF AND DUP2 MSTORE POP POP PUSH1 0x0 PUSH20 0xFFFFFFFFFFFFFFFFFFFFFFFFFFFFFFFFFFFFFFFF AND PUSH1 0x10 PUSH1 0x0 DUP7 DUP5 DUP2 MLOAD DUP2 LT PUSH2 0x996 JUMPI PUSH2 0x996 PUSH2 0x5025 JUMP JUMPDEST PUSH1 0x20 SWAP1 DUP2 MUL SWAP2 SWAP1 SWAP2 ADD DUP2 ADD MLOAD DUP3 MSTORE DUP2 ADD SWAP2 SWAP1 SWAP2 MSTORE PUSH1 0x40 ADD PUSH1 0x0 KECCAK256 SLOAD PUSH5 0x100000000 SWAP1 DIV PUSH20 0xFFFFFFFFFFFFFFFFFFFFFFFFFFFFFFFFFFFFFFFF AND SUB PUSH2 0x9FD JUMPI PUSH1 0x1 DUP3 DUP3 DUP2 MLOAD DUP2 LT PUSH2 0x9E8 JUMPI PUSH2 0x9E8 PUSH2 0x5025 JUMP JUMPDEST SWAP2 ISZERO ISZERO PUSH1 0x20 SWAP3 DUP4 MUL SWAP2 SWAP1 SWAP2 ADD SWAP1 SWAP2 ADD MSTORE PUSH2 0xA22 JUMP JUMPDEST PUSH1 0x0 DUP3 DUP3 DUP2 MLOAD DUP2 LT PUSH2 0xA11 JUMPI PUSH2 0xA11 PUSH2 0x5025 JUMP JUMPDEST SWAP2 ISZERO ISZERO PUSH1 0x20 SWAP3 DUP4 MUL SWAP2 SWAP1 SWAP2 ADD SWAP1 SWAP2 ADD MSTORE JUMPDEST DUP1 PUSH2 0xA2C DUP2 PUSH2 0x5054 JUMP JUMPDEST SWAP2 POP POP PUSH2 0x85F JUMP JUMPDEST POP DUP3 DUP3 DUP3 PUSH2 0xA42 DUP9 DUP16 PUSH2 0x5012 JUMP JUMPDEST SWAP9 POP SWAP9 POP SWAP9 POP SWAP9 POP POP POP POP POP POP SWAP5 POP SWAP5 POP SWAP5 POP SWAP5 SWAP1 POP JUMP JUMPDEST PUSH1 0xB SLOAD PUSH20 0xFFFFFFFFFFFFFFFFFFFFFFFFFFFFFFFFFFFFFFFF AND CALLER EQ PUSH2 0xB06 JUMPI PUSH1 0x40 MLOAD PUSH32 0x8C379A000000000000000000000000000000000000000000000000000000000 DUP2 MSTORE PUSH1 0x20 PUSH1 0x4 DUP3 ADD MSTORE PUSH1 0x21 PUSH1 0x24 DUP3 ADD MSTORE PUSH32 0x4F6E6C79204F6E6F75742063616E206368616E67652066656520616464726573 PUSH1 0x44 DUP3 ADD MSTORE PUSH32 0x7300000000000000000000000000000000000000000000000000000000000000 PUSH1 0x64 DUP3 ADD MSTORE PUSH1 0x84 ADD JUMPDEST PUSH1 0x40 MLOAD DUP1 SWAP2 SUB SWAP1 REVERT JUMPDEST PUSH1 0xB DUP1 SLOAD PUSH32 0xFFFFFFFFFFFFFFFFFFFFFFFF0000000000000000000000000000000000000000 AND PUSH20 0xFFFFFFFFFFFFFFFFFFFFFFFFFFFFFFFFFFFFFFFF SWAP3 SWAP1 SWAP3 AND SWAP2 SWAP1 SWAP2 OR SWAP1 SSTORE JUMP JUMPDEST PUSH1 0xB SLOAD PUSH20 0xFFFFFFFFFFFFFFFFFFFFFFFFFFFFFFFFFFFFFFFF AND CALLER EQ PUSH2 0xBF4 JUMPI PUSH1 0x40 MLOAD PUSH32 0x8C379A000000000000000000000000000000000000000000000000000000000 DUP2 MSTORE PUSH1 0x20 PUSH1 0x4 DUP3 ADD MSTORE PUSH1 0x29 PUSH1 0x24 DUP3 ADD MSTORE PUSH32 0x4F6E6C79204F6E6F75742063616E20656E61626C652F64697361626C65207365 PUSH1 0x44 DUP3 ADD MSTORE PUSH32 0x7276696365206665650000000000000000000000000000000000000000000000 PUSH1 0x64 DUP3 ADD MSTORE PUSH1 0x84 ADD PUSH2 0xAFD JUMP JUMPDEST PUSH1 0xB DUP1 SLOAD SWAP2 ISZERO ISZERO PUSH21 0x10000000000000000000000000000000000000000 MUL PUSH32 0xFFFFFFFFFFFFFFFFFFFFFF00FFFFFFFFFFFFFFFFFFFFFFFFFFFFFFFFFFFFFFFF SWAP1 SWAP3 AND SWAP2 SWAP1 SWAP2 OR SWAP1 SSTORE JUMP JUMPDEST PUSH1 0x1 SLOAD PUSH20 0xFFFFFFFFFFFFFFFFFFFFFFFFFFFFFFFFFFFFFFFF AND CALLER EQ PUSH2 0xCBF JUMPI PUSH1 0x40 MLOAD PUSH32 0x8C379A000000000000000000000000000000000000000000000000000000000 DUP2 MSTORE PUSH1 0x20 PUSH1 0x4 DUP3 ADD DUP2 SWAP1 MSTORE PUSH1 0x24 DUP3 ADD MSTORE PUSH32 0x4F776E61626C653A2063616C6C6572206973206E6F7420746865206F776E6572 PUSH1 0x44 DUP3 ADD MSTORE PUSH1 0x64 ADD PUSH2 0xAFD JUMP JUMPDEST PUSH1 0x6 DUP2 PUSH4 0xFFFFFFFF AND GT ISZERO PUSH2 0xD30 JUMPI PUSH1 0x40 MLOAD PUSH32 0x8C379A000000000000000000000000000000000000000000000000000000000 DUP2 MSTORE PUSH1 0x20 PUSH1 0x4 DUP3 ADD MSTORE PUSH1 0x19 PUSH1 0x24 DUP3 ADD MSTORE PUSH32 0x6E756D62657273436F756E74206D757374206265203C3D203600000000000000 PUSH1 0x44 DUP3 ADD MSTORE PUSH1 0x64 ADD PUSH2 0xAFD JUMP JUMPDEST PUSH1 0x2 DUP2 PUSH4 0xFFFFFFFF AND LT ISZERO PUSH2 0xDA1 JUMPI PUSH1 0x40 MLOAD PUSH32 0x8C379A000000000000000000000000000000000000000000000000000000000 DUP2 MSTORE PUSH1 0x20 PUSH1 0x4 DUP3 ADD MSTORE PUSH1 0x19 PUSH1 0x24 DUP3 ADD MSTORE PUSH32 0x6E756D62657273436F756E74206D757374206265203E3D203200000000000000 PUSH1 0x44 DUP3 ADD MSTORE PUSH1 0x64 ADD PUSH2 0xAFD JUMP JUMPDEST PUSH1 0x5 SLOAD ISZERO DUP1 PUSH2 0xDD5 JUMPI POP PUSH1 0x3 PUSH1 0x5 SLOAD PUSH1 0x0 SWAP1 DUP2 MSTORE PUSH1 0xF PUSH1 0x20 MSTORE PUSH1 0x40 SWAP1 KECCAK256 SLOAD PUSH1 0xFF AND PUSH1 0x3 DUP2 GT ISZERO PUSH2 0xDD3 JUMPI PUSH2 0xDD3 PUSH2 0x4B99 JUMP JUMPDEST EQ JUMPDEST PUSH2 0xE3B JUMPI PUSH1 0x40 MLOAD PUSH32 0x8C379A000000000000000000000000000000000000000000000000000000000 DUP2 MSTORE PUSH1 0x20 PUSH1 0x4 DUP3 ADD MSTORE PUSH1 0x18 PUSH1 0x24 DUP3 ADD MSTORE PUSH32 0x486173206E6F742066696E6973686564206C6F74746572790000000000000000 PUSH1 0x44 DUP3 ADD MSTORE PUSH1 0x64 ADD PUSH2 0xAFD JUMP JUMPDEST PUSH1 0xE DUP1 SLOAD PUSH32 0xFFFFFFFFFFFFFFFFFFFFFFFFFFFFFFFFFFFFFFFFFFFFFFFFFFFFFFFF00000000 AND PUSH4 0xFFFFFFFF SWAP3 SWAP1 SWAP3 AND SWAP2 SWAP1 SWAP2 OR SWAP1 SSTORE JUMP JUMPDEST PUSH1 0x1 SLOAD PUSH20 0xFFFFFFFFFFFFFFFFFFFFFFFFFFFFFFFFFFFFFFFF AND CALLER EQ DUP1 PUSH2 0xEAF JUMPI POP PUSH1 0x3 SLOAD PUSH20 0xFFFFFFFFFFFFFFFFFFFFFFFFFFFFFFFFFFFFFFFF AND CALLER EQ JUMPDEST PUSH2 0xF15 JUMPI PUSH1 0x40 MLOAD PUSH32 0x8C379A000000000000000000000000000000000000000000000000000000000 DUP2 MSTORE PUSH1 0x20 PUSH1 0x4 DUP3 ADD MSTORE PUSH1 0x15 PUSH1 0x24 DUP3 ADD MSTORE PUSH32 0x4E6F74206F776E6572206F72206F70657261746F720000000000000000000000 PUSH1 0x44 DUP3 ADD MSTORE PUSH1 0x64 ADD PUSH2 0xAFD JUMP JUMPDEST PUSH1 0x2 PUSH1 0x0 SLOAD SUB PUSH2 0xF81 JUMPI PUSH1 0x40 MLOAD PUSH32 0x8C379A000000000000000000000000000000000000000000000000000000000 DUP2 MSTORE PUSH1 0x20 PUSH1 0x4 DUP3 ADD MSTORE PUSH1 0x1F PUSH1 0x24 DUP3 ADD MSTORE PUSH32 0x5265656E7472616E637947756172643A207265656E7472616E742063616C6C00 PUSH1 0x44 DUP3 ADD MSTORE PUSH1 0x64 ADD PUSH2 0xAFD JUMP JUMPDEST PUSH1 0x2 PUSH1 0x0 DUP2 DUP2 SSTORE DUP5 DUP2 MSTORE PUSH1 0xF PUSH1 0x20 MSTORE PUSH1 0x40 SWAP1 KECCAK256 SLOAD PUSH1 0xFF AND PUSH1 0x3 DUP2 GT ISZERO PUSH2 0xFA9 JUMPI PUSH2 0xFA9 PUSH2 0x4B99 JUMP JUMPDEST EQ PUSH2 0x1010 JUMPI PUSH1 0x40 MLOAD PUSH32 0x8C379A000000000000000000000000000000000000000000000000000000000 DUP2 MSTORE PUSH1 0x20 PUSH1 0x4 DUP3 ADD MSTORE PUSH1 0x11 PUSH1 0x24 DUP3 ADD MSTORE PUSH32 0x4C6F7474657279206E6F7420636C6F7365000000000000000000000000000000 PUSH1 0x44 DUP3 ADD MSTORE PUSH1 0x64 ADD PUSH2 0xAFD JUMP JUMPDEST PUSH1 0x0 DUP4 DUP2 MSTORE PUSH1 0xF PUSH1 0x20 MSTORE PUSH1 0x40 DUP2 KECCAK256 PUSH1 0xB ADD SLOAD DUP2 SWAP1 PUSH2 0x2710 SWAP1 PUSH2 0x1032 SWAP1 DUP3 PUSH2 0x4FCA JUMP JUMPDEST PUSH1 0x0 DUP8 DUP2 MSTORE PUSH1 0xF PUSH1 0x20 MSTORE PUSH1 0x40 SWAP1 KECCAK256 PUSH1 0x1A ADD SLOAD PUSH2 0x104E SWAP2 SWAP1 PUSH2 0x508C JUMP JUMPDEST PUSH2 0x1058 SWAP2 SWAP1 PUSH2 0x50D2 JUMP JUMPDEST PUSH1 0x0 DUP7 DUP2 MSTORE PUSH1 0xF PUSH1 0x20 SWAP1 DUP2 MSTORE PUSH1 0x40 DUP1 DUP4 KECCAK256 PUSH1 0x18 DUP2 ADD SLOAD PUSH1 0x19 DUP3 ADD SLOAD PUSH1 0x1A SWAP1 SWAP3 ADD SLOAD DUP4 MLOAD TIMESTAMP DUP2 DUP8 ADD MSTORE DUP1 DUP6 ADD DUP13 SWAP1 MSTORE PUSH1 0x60 DUP1 DUP3 ADD DUP15 SWAP1 MSTORE PUSH1 0x80 DUP3 ADD SWAP4 SWAP1 SWAP4 MSTORE PUSH1 0xA0 DUP2 ADD SWAP4 SWAP1 SWAP4 MSTORE PUSH1 0xC0 DUP4 ADD MSTORE PUSH1 0xE0 DUP3 ADD DUP7 SWAP1 MSTORE NUMBER BLOCKHASH PUSH2 0x100 DUP4 ADD MSTORE COINBASE SWAP1 SHL PUSH32 0xFFFFFFFFFFFFFFFFFFFFFFFFFFFFFFFFFFFFFFFF000000000000000000000000 AND PUSH2 0x120 DUP3 ADD MSTORE DIFFICULTY PUSH2 0x134 DUP3 ADD MSTORE GASLIMIT PUSH2 0x154 DUP3 ADD MSTORE GASPRICE PUSH2 0x174 DUP1 DUP4 ADD SWAP2 SWAP1 SWAP2 MSTORE DUP3 MLOAD DUP1 DUP4 SUB SWAP1 SWAP2 ADD DUP2 MSTORE PUSH2 0x194 SWAP1 SWAP2 ADD SWAP1 SWAP2 MSTORE DUP1 MLOAD SWAP2 ADD KECCAK256 SWAP2 SWAP3 POP PUSH2 0x111E PUSH3 0xF4240 DUP4 PUSH2 0x50E6 JUMP JUMPDEST PUSH2 0x112B SWAP1 PUSH3 0xF4240 PUSH2 0x5012 JUMP JUMPDEST SWAP1 POP PUSH1 0x0 DUP1 JUMPDEST PUSH1 0xE SLOAD PUSH4 0xFFFFFFFF SWAP1 DUP2 AND SWAP1 DUP3 AND LT ISZERO PUSH2 0x13C1 JUMPI PUSH1 0xE SLOAD PUSH1 0x0 SWAP1 DUP3 SWAP1 PUSH2 0x115F SWAP1 PUSH1 0x1 SWAP1 PUSH4 0xFFFFFFFF AND PUSH2 0x50FA JUMP JUMPDEST PUSH2 0x1169 SWAP2 SWAP1 PUSH2 0x50FA JUMP JUMPDEST SWAP1 POP PUSH1 0x0 PUSH2 0x1178 DUP3 PUSH1 0x1 PUSH2 0x5117 JUMP JUMPDEST PUSH2 0x1183 SWAP1 PUSH1 0xA PUSH2 0x5245 JUMP JUMPDEST PUSH2 0x118D SWAP1 DUP7 PUSH2 0x525A JUMP JUMPDEST PUSH4 0xFFFFFFFF DUP1 DUP5 AND PUSH1 0x0 SWAP1 DUP2 MSTORE PUSH1 0x11 PUSH1 0x20 MSTORE PUSH1 0x40 SWAP1 KECCAK256 SLOAD PUSH2 0x11AF SWAP3 SWAP2 AND PUSH2 0x5117 JUMP JUMPDEST PUSH1 0x0 DUP13 DUP2 MSTORE PUSH1 0x12 PUSH1 0x20 SWAP1 DUP2 MSTORE PUSH1 0x40 DUP1 DUP4 KECCAK256 PUSH4 0xFFFFFFFF DUP6 AND DUP5 MSTORE SWAP1 SWAP2 MSTORE SWAP1 KECCAK256 SLOAD SWAP1 SWAP2 POP PUSH2 0x11DD SWAP1 DUP10 SWAP1 PUSH2 0x4FCA JUMP JUMPDEST PUSH1 0x0 DUP13 DUP2 MSTORE PUSH1 0xF PUSH1 0x20 MSTORE PUSH1 0x40 SWAP1 KECCAK256 PUSH1 0x12 ADD PUSH4 0xFFFFFFFF DUP5 AND PUSH1 0x6 DUP2 LT PUSH2 0x1205 JUMPI PUSH2 0x1205 PUSH2 0x5025 JUMP JUMPDEST ADD SSTORE PUSH1 0x0 DUP12 DUP2 MSTORE PUSH1 0x12 PUSH1 0x20 SWAP1 DUP2 MSTORE PUSH1 0x40 DUP1 DUP4 KECCAK256 PUSH4 0xFFFFFFFF DUP6 AND DUP5 MSTORE SWAP1 SWAP2 MSTORE SWAP1 KECCAK256 SLOAD PUSH2 0x1232 SWAP1 DUP10 SWAP1 PUSH2 0x4FCA JUMP JUMPDEST ISZERO PUSH2 0x1331 JUMPI PUSH1 0x0 DUP12 DUP2 MSTORE PUSH1 0xF PUSH1 0x20 MSTORE PUSH1 0x40 SWAP1 KECCAK256 PUSH1 0x5 ADD PUSH4 0xFFFFFFFF DUP4 AND PUSH1 0x6 DUP2 LT PUSH2 0x125F JUMPI PUSH2 0x125F PUSH2 0x5025 JUMP JUMPDEST ADD SLOAD ISZERO PUSH2 0x132C JUMPI PUSH1 0x0 DUP12 DUP2 MSTORE PUSH1 0x12 PUSH1 0x20 SWAP1 DUP2 MSTORE PUSH1 0x40 DUP1 DUP4 KECCAK256 PUSH4 0xFFFFFFFF DUP6 AND DUP5 MSTORE SWAP1 SWAP2 MSTORE SWAP1 KECCAK256 SLOAD PUSH2 0x2710 SWAP1 PUSH2 0x1295 SWAP1 DUP11 SWAP1 PUSH2 0x4FCA JUMP JUMPDEST PUSH1 0x0 DUP14 DUP2 MSTORE PUSH1 0xF PUSH1 0x20 MSTORE PUSH1 0x40 SWAP1 KECCAK256 DUP10 SWAP1 PUSH1 0x5 ADD PUSH4 0xFFFFFFFF DUP7 AND PUSH1 0x6 DUP2 LT PUSH2 0x12BF JUMPI PUSH2 0x12BF PUSH2 0x5025 JUMP JUMPDEST ADD SLOAD PUSH2 0x12CB SWAP2 SWAP1 PUSH2 0x508C JUMP JUMPDEST PUSH2 0x12D5 SWAP2 SWAP1 PUSH2 0x50D2 JUMP JUMPDEST PUSH2 0x12DF SWAP2 SWAP1 PUSH2 0x50D2 JUMP JUMPDEST PUSH1 0x0 DUP13 DUP2 MSTORE PUSH1 0xF PUSH1 0x20 MSTORE PUSH1 0x40 SWAP1 KECCAK256 PUSH1 0xC ADD PUSH4 0xFFFFFFFF DUP5 AND PUSH1 0x6 DUP2 LT PUSH2 0x1307 JUMPI PUSH2 0x1307 PUSH2 0x5025 JUMP JUMPDEST ADD SSTORE PUSH1 0x0 DUP12 DUP2 MSTORE PUSH1 0x12 PUSH1 0x20 SWAP1 DUP2 MSTORE PUSH1 0x40 DUP1 DUP4 KECCAK256 PUSH4 0xFFFFFFFF DUP6 AND DUP5 MSTORE SWAP1 SWAP2 MSTORE SWAP1 KECCAK256 SLOAD SWAP8 POP JUMPDEST PUSH2 0x13AC JUMP JUMPDEST PUSH1 0x0 DUP12 DUP2 MSTORE PUSH1 0xF PUSH1 0x20 MSTORE PUSH1 0x40 DUP2 KECCAK256 PUSH1 0xC ADD PUSH4 0xFFFFFFFF DUP5 AND PUSH1 0x6 DUP2 LT PUSH2 0x1359 JUMPI PUSH2 0x1359 PUSH2 0x5025 JUMP JUMPDEST ADD SSTORE PUSH1 0x0 DUP12 DUP2 MSTORE PUSH1 0xF PUSH1 0x20 MSTORE PUSH1 0x40 SWAP1 KECCAK256 PUSH2 0x2710 SWAP1 DUP9 SWAP1 PUSH1 0x5 ADD PUSH4 0xFFFFFFFF DUP6 AND PUSH1 0x6 DUP2 LT PUSH2 0x1389 JUMPI PUSH2 0x1389 PUSH2 0x5025 JUMP JUMPDEST ADD SLOAD PUSH2 0x1395 SWAP2 SWAP1 PUSH2 0x508C JUMP JUMPDEST PUSH2 0x139F SWAP2 SWAP1 PUSH2 0x50D2 JUMP JUMPDEST PUSH2 0x13A9 SWAP1 DUP6 PUSH2 0x5012 JUMP JUMPDEST SWAP4 POP JUMPDEST POP POP DUP1 DUP1 PUSH2 0x13B9 SWAP1 PUSH2 0x527D JUMP JUMPDEST SWAP2 POP POP PUSH2 0x1131 JUMP JUMPDEST POP PUSH1 0x0 DUP9 DUP2 MSTORE PUSH1 0xF PUSH1 0x20 MSTORE PUSH1 0x40 SWAP1 KECCAK256 PUSH1 0x1B DUP2 ADD DUP1 SLOAD PUSH4 0xFFFFFFFF DUP6 AND PUSH32 0xFFFFFFFFFFFFFFFFFFFFFFFFFFFFFFFFFFFFFFFFFFFFFFFFFFFFFFFF00000000 SWAP1 SWAP2 AND OR SWAP1 SSTORE DUP1 SLOAD PUSH32 0xFFFFFFFFFFFFFFFFFFFFFFFFFFFFFFFFFFFFFFFFFFFFFFFFFFFFFFFFFFFFFF00 AND PUSH1 0x3 OR SWAP1 SSTORE DUP6 ISZERO PUSH2 0x1439 JUMPI PUSH1 0xA SSTORE PUSH1 0x0 JUMPDEST PUSH1 0x0 DUP9 DUP2 MSTORE PUSH1 0xF PUSH1 0x20 MSTORE PUSH1 0x40 SWAP1 KECCAK256 PUSH1 0x1A ADD SLOAD PUSH2 0x1456 SWAP1 DUP6 SWAP1 PUSH2 0x4FCA JUMP JUMPDEST PUSH2 0x1460 SWAP1 DUP3 PUSH2 0x5012 JUMP JUMPDEST PUSH1 0xB SLOAD SWAP1 SWAP2 POP PUSH21 0x10000000000000000000000000000000000000000 SWAP1 DIV PUSH1 0xFF AND ISZERO PUSH2 0x14E4 JUMPI PUSH1 0xC SLOAD PUSH1 0x0 SWAP1 PUSH2 0x1497 PUSH1 0x64 DUP5 PUSH2 0x50D2 JUMP JUMPDEST PUSH2 0x14A1 SWAP2 SWAP1 PUSH2 0x508C JUMP JUMPDEST SWAP1 POP PUSH2 0x14AD DUP2 DUP4 PUSH2 0x4FCA JUMP JUMPDEST PUSH1 0xB SLOAD PUSH1 0xE SLOAD SWAP2 SWAP4 POP PUSH2 0x14E2 SWAP2 PUSH5 0x100000000 SWAP1 DIV PUSH20 0xFFFFFFFFFFFFFFFFFFFFFFFFFFFFFFFFFFFFFFFF SWAP1 DUP2 AND SWAP2 AND DUP4 PUSH2 0x43C1 JUMP JUMPDEST POP JUMPDEST PUSH1 0x4 SLOAD PUSH1 0xE SLOAD PUSH2 0x1516 SWAP2 PUSH20 0xFFFFFFFFFFFFFFFFFFFFFFFFFFFFFFFFFFFFFFFF PUSH5 0x100000000 SWAP1 SWAP3 DIV DUP3 AND SWAP2 AND DUP4 PUSH2 0x43C1 JUMP JUMPDEST PUSH1 0x5 SLOAD PUSH1 0x40 DUP1 MLOAD PUSH4 0xFFFFFFFF DUP6 AND DUP2 MSTORE PUSH1 0x20 DUP2 ADD DUP9 SWAP1 MSTORE PUSH32 0x98E31A6607B8B15B4D5B91DE54F4C09FFE4C4CF162AA532C70B5213754E2E703 SWAP2 ADD PUSH1 0x40 MLOAD DUP1 SWAP2 SUB SWAP1 LOG2 POP POP PUSH1 0x1 PUSH1 0x0 SSTORE POP POP POP POP POP POP JUMP JUMPDEST PUSH2 0x156F PUSH2 0x4897 JUMP JUMPDEST PUSH1 0x0 DUP3 DUP2 MSTORE PUSH1 0xF PUSH1 0x20 MSTORE PUSH1 0x40 SWAP1 DUP2 SWAP1 KECCAK256 DUP2 MLOAD PUSH2 0x1A0 DUP2 ADD SWAP1 SWAP3 MSTORE DUP1 SLOAD DUP3 SWAP1 PUSH1 0xFF AND PUSH1 0x3 DUP2 GT ISZERO PUSH2 0x15A1 JUMPI PUSH2 0x15A1 PUSH2 0x4B99 JUMP JUMPDEST PUSH1 0x3 DUP2 GT ISZERO PUSH2 0x15B2 JUMPI PUSH2 0x15B2 PUSH2 0x4B99 JUMP JUMPDEST DUP2 MSTORE PUSH1 0x1 DUP3 ADD SLOAD PUSH1 0x20 DUP3 ADD MSTORE PUSH1 0x2 DUP3 ADD SLOAD PUSH1 0x40 DUP1 DUP4 ADD SWAP2 SWAP1 SWAP2 MSTORE PUSH1 0x3 DUP4 ADD SLOAD PUSH1 0x60 DUP4 ADD MSTORE PUSH1 0x4 DUP4 ADD SLOAD PUSH1 0x80 DUP4 ADD MSTORE DUP1 MLOAD PUSH1 0xC0 DUP2 ADD SWAP2 DUP3 SWAP1 MSTORE PUSH1 0xA0 SWAP1 SWAP3 ADD SWAP2 SWAP1 PUSH1 0x5 DUP5 ADD SWAP1 PUSH1 0x6 SWAP1 DUP3 DUP5 JUMPDEST DUP2 SLOAD DUP2 MSTORE PUSH1 0x20 ADD SWAP1 PUSH1 0x1 ADD SWAP1 DUP1 DUP4 GT PUSH2 0x15FC JUMPI POP POP POP SWAP2 DUP4 MSTORE POP POP PUSH1 0xB DUP3 ADD SLOAD PUSH1 0x20 DUP3 ADD MSTORE PUSH1 0x40 DUP1 MLOAD PUSH1 0xC0 DUP2 ADD DUP3 MSTORE SWAP2 ADD SWAP1 PUSH1 0xC DUP4 ADD PUSH1 0x6 DUP3 DUP3 DUP3 PUSH1 0x20 MUL DUP3 ADD SWAP2 JUMPDEST DUP2 SLOAD DUP2 MSTORE PUSH1 0x20 ADD SWAP1 PUSH1 0x1 ADD SWAP1 DUP1 DUP4 GT PUSH2 0x163E JUMPI POP POP POP SWAP2 DUP4 MSTORE POP POP PUSH1 0x40 DUP1 MLOAD PUSH1 0xC0 DUP2 ADD SWAP2 DUP3 SWAP1 MSTORE PUSH1 0x20 SWAP1 SWAP3 ADD SWAP2 SWAP1 PUSH1 0x12 DUP5 ADD SWAP1 PUSH1 0x6 SWAP1 DUP3 DUP5 JUMPDEST DUP2 SLOAD DUP2 MSTORE PUSH1 0x20 ADD SWAP1 PUSH1 0x1 ADD SWAP1 DUP1 DUP4 GT PUSH2 0x1677 JUMPI POP POP POP SWAP2 DUP4 MSTORE POP POP PUSH1 0x18 DUP3 ADD SLOAD PUSH1 0x20 DUP3 ADD MSTORE PUSH1 0x19 DUP3 ADD SLOAD PUSH1 0x40 DUP3 ADD MSTORE PUSH1 0x1A DUP3 ADD SLOAD PUSH1 0x60 DUP3 ADD MSTORE PUSH1 0x1B SWAP1 SWAP2 ADD SLOAD PUSH4 0xFFFFFFFF AND PUSH1 0x80 SWAP1 SWAP2 ADD MSTORE SWAP3 SWAP2 POP POP JUMP JUMPDEST PUSH1 0x1 SLOAD PUSH20 0xFFFFFFFFFFFFFFFFFFFFFFFFFFFFFFFFFFFFFFFF AND CALLER EQ PUSH2 0x1749 JUMPI PUSH1 0x40 MLOAD PUSH32 0x8C379A000000000000000000000000000000000000000000000000000000000 DUP2 MSTORE PUSH1 0x20 PUSH1 0x4 DUP3 ADD DUP2 SWAP1 MSTORE PUSH1 0x24 DUP3 ADD MSTORE PUSH32 0x4F776E61626C653A2063616C6C6572206973206E6F7420746865206F776E6572 PUSH1 0x44 DUP3 ADD MSTORE PUSH1 0x64 ADD PUSH2 0xAFD JUMP JUMPDEST PUSH1 0x14 DUP1 SLOAD SWAP2 ISZERO ISZERO PUSH21 0x10000000000000000000000000000000000000000 MUL PUSH32 0xFFFFFFFFFFFFFFFFFFFFFF00FFFFFFFFFFFFFFFFFFFFFFFFFFFFFFFFFFFFFFFF SWAP1 SWAP3 AND SWAP2 SWAP1 SWAP2 OR SWAP1 SSTORE JUMP JUMPDEST PUSH1 0x14 SLOAD PUSH1 0x0 SWAP1 PUSH21 0x10000000000000000000000000000000000000000 SWAP1 DIV PUSH1 0xFF AND ISZERO DUP1 PUSH2 0x17D6 JUMPI POP PUSH1 0x14 SLOAD PUSH20 0xFFFFFFFFFFFFFFFFFFFFFFFFFFFFFFFFFFFFFFFF AND ISZERO JUMPDEST ISZERO PUSH2 0x17E3 JUMPI POP PUSH1 0x1 SWAP2 SWAP1 POP JUMP JUMPDEST PUSH1 0x14 SLOAD PUSH1 0x40 MLOAD PUSH32 0x70A0823100000000000000000000000000000000000000000000000000000000 DUP2 MSTORE PUSH20 0xFFFFFFFFFFFFFFFFFFFFFFFFFFFFFFFFFFFFFFFF DUP5 DUP2 AND PUSH1 0x4 DUP4 ADD MSTORE PUSH1 0x0 SWAP3 AND SWAP1 PUSH4 0x70A08231 SWAP1 PUSH1 0x24 ADD PUSH1 0x20 PUSH1 0x40 MLOAD DUP1 DUP4 SUB DUP2 DUP7 GAS STATICCALL ISZERO DUP1 ISZERO PUSH2 0x1854 JUMPI RETURNDATASIZE PUSH1 0x0 DUP1 RETURNDATACOPY RETURNDATASIZE PUSH1 0x0 REVERT JUMPDEST POP POP POP POP PUSH1 0x40 MLOAD RETURNDATASIZE PUSH1 0x1F NOT PUSH1 0x1F DUP3 ADD AND DUP3 ADD DUP1 PUSH1 0x40 MSTORE POP DUP2 ADD SWAP1 PUSH2 0x1878 SWAP2 SWAP1 PUSH2 0x52A0 JUMP JUMPDEST SWAP1 POP PUSH1 0x0 DUP2 GT PUSH2 0x1889 JUMPI PUSH1 0x0 PUSH2 0x188C JUMP JUMPDEST PUSH1 0x1 JUMPDEST SWAP4 SWAP3 POP POP POP JUMP JUMPDEST PUSH1 0x0 PUSH1 0x3 PUSH1 0x0 DUP6 DUP2 MSTORE PUSH1 0xF PUSH1 0x20 MSTORE PUSH1 0x40 SWAP1 KECCAK256 SLOAD PUSH1 0xFF AND PUSH1 0x3 DUP2 GT ISZERO PUSH2 0x18BA JUMPI PUSH2 0x18BA PUSH2 0x4B99 JUMP JUMPDEST EQ PUSH2 0x18C7 JUMPI POP PUSH1 0x0 PUSH2 0x188C JUMP JUMPDEST PUSH1 0x0 DUP5 DUP2 MSTORE PUSH1 0xF PUSH1 0x20 MSTORE PUSH1 0x40 SWAP1 KECCAK256 PUSH1 0x19 ADD SLOAD DUP4 GT DUP1 ISZERO PUSH2 0x18F8 JUMPI POP PUSH1 0x0 DUP5 DUP2 MSTORE PUSH1 0xF PUSH1 0x20 MSTORE PUSH1 0x40 SWAP1 KECCAK256 PUSH1 0x18 ADD SLOAD DUP4 GT ISZERO JUMPDEST ISZERO PUSH2 0x1905 JUMPI POP PUSH1 0x0 PUSH2 0x188C JUMP JUMPDEST PUSH2 0x1910 DUP5 DUP5 DUP5 PUSH2 0x449A JUMP JUMPDEST SWAP5 SWAP4 POP POP POP POP JUMP JUMPDEST PUSH1 0x1 SLOAD PUSH20 0xFFFFFFFFFFFFFFFFFFFFFFFFFFFFFFFFFFFFFFFF AND CALLER EQ PUSH2 0x1999 JUMPI PUSH1 0x40 MLOAD PUSH32 0x8C379A000000000000000000000000000000000000000000000000000000000 DUP2 MSTORE PUSH1 0x20 PUSH1 0x4 DUP3 ADD DUP2 SWAP1 MSTORE PUSH1 0x24 DUP3 ADD MSTORE PUSH32 0x4F776E61626C653A2063616C6C6572206973206E6F7420746865206F776E6572 PUSH1 0x44 DUP3 ADD MSTORE PUSH1 0x64 ADD PUSH2 0xAFD JUMP JUMPDEST PUSH1 0xE SLOAD PUSH20 0xFFFFFFFFFFFFFFFFFFFFFFFFFFFFFFFFFFFFFFFF DUP4 DUP2 AND PUSH5 0x100000000 SWAP1 SWAP3 DIV AND EQ PUSH2 0x1A4B JUMPI PUSH1 0x40 MLOAD PUSH32 0x8C379A000000000000000000000000000000000000000000000000000000000 DUP2 MSTORE PUSH1 0x20 PUSH1 0x4 DUP3 ADD MSTORE PUSH1 0x22 PUSH1 0x24 DUP3 ADD MSTORE PUSH32 0x596F7520646F6E742063616E207265636F766572206C6F747465727920746F6B PUSH1 0x44 DUP3 ADD MSTORE PUSH32 0x656E000000000000000000000000000000000000000000000000000000000000 PUSH1 0x64 DUP3 ADD MSTORE PUSH1 0x84 ADD PUSH2 0xAFD JUMP JUMPDEST PUSH2 0x1A6C PUSH20 0xFFFFFFFFFFFFFFFFFFFFFFFFFFFFFFFFFFFFFFFF DUP4 AND CALLER DUP4 PUSH2 0x43C1 JUMP JUMPDEST PUSH1 0x40 DUP1 MLOAD PUSH20 0xFFFFFFFFFFFFFFFFFFFFFFFFFFFFFFFFFFFFFFFF DUP5 AND DUP2 MSTORE PUSH1 0x20 DUP2 ADD DUP4 SWAP1 MSTORE PUSH32 0x74545154AAC348A3EAC92596BD1971957CA94795F4E954EC5F613B55FAB78129 SWAP2 ADD PUSH1 0x40 MLOAD DUP1 SWAP2 SUB SWAP1 LOG1 POP POP JUMP JUMPDEST PUSH1 0x1 SLOAD PUSH20 0xFFFFFFFFFFFFFFFFFFFFFFFFFFFFFFFFFFFFFFFF AND CALLER EQ DUP1 PUSH2 0x1AFC JUMPI POP PUSH1 0x2 SLOAD PUSH20 0xFFFFFFFFFFFFFFFFFFFFFFFFFFFFFFFFFFFFFFFF AND CALLER EQ JUMPDEST PUSH2 0x1B62 JUMPI PUSH1 0x40 MLOAD PUSH32 0x8C379A000000000000000000000000000000000000000000000000000000000 DUP2 MSTORE PUSH1 0x20 PUSH1 0x4 DUP3 ADD MSTORE PUSH1 0x15 PUSH1 0x24 DUP3 ADD MSTORE PUSH32 0x4E6F74206F776E6572206F7220696E6A6563746F720000000000000000000000 PUSH1 0x44 DUP3 ADD MSTORE PUSH1 0x64 ADD PUSH2 0xAFD JUMP JUMPDEST PUSH1 0x1 PUSH1 0x0 DUP4 DUP2 MSTORE PUSH1 0xF PUSH1 0x20 MSTORE PUSH1 0x40 SWAP1 KECCAK256 SLOAD PUSH1 0xFF AND PUSH1 0x3 DUP2 GT ISZERO PUSH2 0x1B87 JUMPI PUSH2 0x1B87 PUSH2 0x4B99 JUMP JUMPDEST EQ PUSH2 0x1BEE JUMPI PUSH1 0x40 MLOAD PUSH32 0x8C379A000000000000000000000000000000000000000000000000000000000 DUP2 MSTORE PUSH1 0x20 PUSH1 0x4 DUP3 ADD MSTORE PUSH1 0x10 PUSH1 0x24 DUP3 ADD MSTORE PUSH32 0x4C6F7474657279206E6F74206F70656E00000000000000000000000000000000 PUSH1 0x44 DUP3 ADD MSTORE PUSH1 0x64 ADD PUSH2 0xAFD JUMP JUMPDEST PUSH1 0xE SLOAD PUSH2 0x1C1B SWAP1 PUSH5 0x100000000 SWAP1 DIV PUSH20 0xFFFFFFFFFFFFFFFFFFFFFFFFFFFFFFFFFFFFFFFF AND CALLER ADDRESS DUP5 PUSH2 0x45A4 JUMP JUMPDEST PUSH1 0x0 DUP3 DUP2 MSTORE PUSH1 0xF PUSH1 0x20 MSTORE PUSH1 0x40 DUP2 KECCAK256 PUSH1 0x1A ADD DUP1 SLOAD DUP4 SWAP3 SWAP1 PUSH2 0x1C3C SWAP1 DUP5 SWAP1 PUSH2 0x5012 JUMP JUMPDEST SWAP1 SWAP2 SSTORE POP POP PUSH1 0x40 MLOAD DUP2 DUP2 MSTORE DUP3 SWAP1 PUSH32 0x1BBD659DD628A25F7FF2EABB69C74A56939C539728282275C1C9C1A2D3E34049 SWAP1 PUSH1 0x20 ADD PUSH1 0x40 MLOAD DUP1 SWAP2 SUB SWAP1 LOG2 POP POP JUMP JUMPDEST PUSH1 0x1 SLOAD PUSH20 0xFFFFFFFFFFFFFFFFFFFFFFFFFFFFFFFFFFFFFFFF AND CALLER EQ PUSH2 0x1CFB JUMPI PUSH1 0x40 MLOAD PUSH32 0x8C379A000000000000000000000000000000000000000000000000000000000 DUP2 MSTORE PUSH1 0x20 PUSH1 0x4 DUP3 ADD DUP2 SWAP1 MSTORE PUSH1 0x24 DUP3 ADD MSTORE PUSH32 0x4F776E61626C653A2063616C6C6572206973206E6F7420746865206F776E6572 PUSH1 0x44 DUP3 ADD MSTORE PUSH1 0x64 ADD PUSH2 0xAFD JUMP JUMPDEST DUP1 PUSH1 0x0 SUB PUSH2 0x1D65 JUMPI PUSH1 0x40 MLOAD PUSH32 0x8C379A000000000000000000000000000000000000000000000000000000000 DUP2 MSTORE PUSH1 0x20 PUSH1 0x4 DUP3 ADD MSTORE PUSH1 0xB PUSH1 0x24 DUP3 ADD MSTORE PUSH32 0x4D757374206265203E2030000000000000000000000000000000000000000000 PUSH1 0x44 DUP3 ADD MSTORE PUSH1 0x64 ADD PUSH2 0xAFD JUMP JUMPDEST PUSH1 0x7 SSTORE JUMP JUMPDEST PUSH1 0x1 SLOAD PUSH20 0xFFFFFFFFFFFFFFFFFFFFFFFFFFFFFFFFFFFFFFFF AND CALLER EQ PUSH2 0x1DEB JUMPI PUSH1 0x40 MLOAD PUSH32 0x8C379A000000000000000000000000000000000000000000000000000000000 DUP2 MSTORE PUSH1 0x20 PUSH1 0x4 DUP3 ADD DUP2 SWAP1 MSTORE PUSH1 0x24 DUP3 ADD MSTORE PUSH32 0x4F776E61626C653A2063616C6C6572206973206E6F7420746865206F776E6572 PUSH1 0x44 DUP3 ADD MSTORE PUSH1 0x64 ADD PUSH2 0xAFD JUMP JUMPDEST PUSH1 0x1 SLOAD PUSH1 0x40 MLOAD PUSH1 0x0 SWAP2 PUSH20 0xFFFFFFFFFFFFFFFFFFFFFFFFFFFFFFFFFFFFFFFF AND SWAP1 PUSH32 0x8BE0079C531659141344CD1FD0A4F28419497F9722A3DAAFE3B4186F6B6457E0 SWAP1 DUP4 SWAP1 LOG3 PUSH1 0x1 DUP1 SLOAD PUSH32 0xFFFFFFFFFFFFFFFFFFFFFFFF0000000000000000000000000000000000000000 AND SWAP1 SSTORE JUMP JUMPDEST CALLER EXTCODESIZE ISZERO PUSH2 0x1EC3 JUMPI PUSH1 0x40 MLOAD PUSH32 0x8C379A000000000000000000000000000000000000000000000000000000000 DUP2 MSTORE PUSH1 0x20 PUSH1 0x4 DUP3 ADD MSTORE PUSH1 0x14 PUSH1 0x24 DUP3 ADD MSTORE PUSH32 0x436F6E7472616374206E6F7420616C6C6F776564000000000000000000000000 PUSH1 0x44 DUP3 ADD MSTORE PUSH1 0x64 ADD PUSH2 0xAFD JUMP JUMPDEST CALLER ORIGIN EQ PUSH2 0x1F2C JUMPI PUSH1 0x40 MLOAD PUSH32 0x8C379A000000000000000000000000000000000000000000000000000000000 DUP2 MSTORE PUSH1 0x20 PUSH1 0x4 DUP3 ADD MSTORE PUSH1 0x1A PUSH1 0x24 DUP3 ADD MSTORE PUSH32 0x50726F787920636F6E7472616374206E6F7420616C6C6F776564000000000000 PUSH1 0x44 DUP3 ADD MSTORE PUSH1 0x64 ADD PUSH2 0xAFD JUMP JUMPDEST PUSH1 0x2 PUSH1 0x0 SLOAD SUB PUSH2 0x1F98 JUMPI PUSH1 0x40 MLOAD PUSH32 0x8C379A000000000000000000000000000000000000000000000000000000000 DUP2 MSTORE PUSH1 0x20 PUSH1 0x4 DUP3 ADD MSTORE PUSH1 0x1F PUSH1 0x24 DUP3 ADD MSTORE PUSH32 0x5265656E7472616E637947756172643A207265656E7472616E742063616C6C00 PUSH1 0x44 DUP3 ADD MSTORE PUSH1 0x64 ADD PUSH2 0xAFD JUMP JUMPDEST PUSH1 0x2 PUSH1 0x0 SSTORE PUSH1 0x14 SLOAD PUSH21 0x10000000000000000000000000000000000000000 SWAP1 DIV PUSH1 0xFF AND DUP1 ISZERO PUSH2 0x1FDE JUMPI POP PUSH1 0x14 SLOAD PUSH20 0xFFFFFFFFFFFFFFFFFFFFFFFFFFFFFFFFFFFFFFFF AND ISZERO ISZERO JUMPDEST ISZERO PUSH2 0x210A JUMPI PUSH1 0x14 SLOAD PUSH1 0x40 MLOAD PUSH32 0x70A0823100000000000000000000000000000000000000000000000000000000 DUP2 MSTORE CALLER PUSH1 0x4 DUP3 ADD MSTORE PUSH1 0x0 SWAP2 PUSH20 0xFFFFFFFFFFFFFFFFFFFFFFFFFFFFFFFFFFFFFFFF AND SWAP1 PUSH4 0x70A08231 SWAP1 PUSH1 0x24 ADD PUSH1 0x20 PUSH1 0x40 MLOAD DUP1 DUP4 SUB DUP2 DUP7 GAS STATICCALL ISZERO DUP1 ISZERO PUSH2 0x2052 JUMPI RETURNDATASIZE PUSH1 0x0 DUP1 RETURNDATACOPY RETURNDATASIZE PUSH1 0x0 REVERT JUMPDEST POP POP POP POP PUSH1 0x40 MLOAD RETURNDATASIZE PUSH1 0x1F NOT PUSH1 0x1F DUP3 ADD AND DUP3 ADD DUP1 PUSH1 0x40 MSTORE POP DUP2 ADD SWAP1 PUSH2 0x2076 SWAP2 SWAP1 PUSH2 0x52A0 JUMP JUMPDEST SWAP1 POP PUSH1 0x0 DUP2 GT PUSH2 0x2108 JUMPI PUSH1 0x40 MLOAD PUSH32 0x8C379A000000000000000000000000000000000000000000000000000000000 DUP2 MSTORE PUSH1 0x20 PUSH1 0x4 DUP3 ADD MSTORE PUSH1 0x22 PUSH1 0x24 DUP3 ADD MSTORE PUSH32 0x596F752077616C6C6574206D757374206265207665726966696564206279204B PUSH1 0x44 DUP3 ADD MSTORE PUSH32 0x5943000000000000000000000000000000000000000000000000000000000000 PUSH1 0x64 DUP3 ADD MSTORE PUSH1 0x84 ADD PUSH2 0xAFD JUMP JUMPDEST POP JUMPDEST PUSH1 0x0 DUP2 SWAP1 SUB PUSH2 0x2175 JUMPI PUSH1 0x40 MLOAD PUSH32 0x8C379A000000000000000000000000000000000000000000000000000000000 DUP2 MSTORE PUSH1 0x20 PUSH1 0x4 DUP3 ADD MSTORE PUSH1 0x13 PUSH1 0x24 DUP3 ADD MSTORE PUSH32 0x4E6F207469636B65742073706563696669656400000000000000000000000000 PUSH1 0x44 DUP3 ADD MSTORE PUSH1 0x64 ADD PUSH2 0xAFD JUMP JUMPDEST PUSH1 0x7 SLOAD DUP2 GT ISZERO PUSH2 0x21E1 JUMPI PUSH1 0x40 MLOAD PUSH32 0x8C379A000000000000000000000000000000000000000000000000000000000 DUP2 MSTORE PUSH1 0x20 PUSH1 0x4 DUP3 ADD MSTORE PUSH1 0x10 PUSH1 0x24 DUP3 ADD MSTORE PUSH32 0x546F6F206D616E79207469636B65747300000000000000000000000000000000 PUSH1 0x44 DUP3 ADD MSTORE PUSH1 0x64 ADD PUSH2 0xAFD JUMP JUMPDEST PUSH1 0x1 PUSH1 0x0 DUP5 DUP2 MSTORE PUSH1 0xF PUSH1 0x20 MSTORE PUSH1 0x40 SWAP1 KECCAK256 SLOAD PUSH1 0xFF AND PUSH1 0x3 DUP2 GT ISZERO PUSH2 0x2206 JUMPI PUSH2 0x2206 PUSH2 0x4B99 JUMP JUMPDEST EQ PUSH2 0x226D JUMPI PUSH1 0x40 MLOAD PUSH32 0x8C379A000000000000000000000000000000000000000000000000000000000 DUP2 MSTORE PUSH1 0x20 PUSH1 0x4 DUP3 ADD MSTORE PUSH1 0x13 PUSH1 0x24 DUP3 ADD MSTORE PUSH32 0x4C6F7474657279206973206E6F74206F70656E00000000000000000000000000 PUSH1 0x44 DUP3 ADD MSTORE PUSH1 0x64 ADD PUSH2 0xAFD JUMP JUMPDEST PUSH1 0x0 DUP4 DUP2 MSTORE PUSH1 0xF PUSH1 0x20 MSTORE PUSH1 0x40 SWAP1 KECCAK256 PUSH1 0x2 ADD SLOAD TIMESTAMP LT PUSH2 0x22E7 JUMPI PUSH1 0x40 MLOAD PUSH32 0x8C379A000000000000000000000000000000000000000000000000000000000 DUP2 MSTORE PUSH1 0x20 PUSH1 0x4 DUP3 ADD MSTORE PUSH1 0xF PUSH1 0x24 DUP3 ADD MSTORE PUSH32 0x4C6F7474657279206973206F7665720000000000000000000000000000000000 PUSH1 0x44 DUP3 ADD MSTORE PUSH1 0x64 ADD PUSH2 0xAFD JUMP JUMPDEST PUSH1 0x0 DUP4 DUP2 MSTORE PUSH1 0xF PUSH1 0x20 MSTORE PUSH1 0x40 DUP2 KECCAK256 PUSH1 0x4 DUP2 ADD SLOAD PUSH1 0x3 SWAP1 SWAP2 ADD SLOAD PUSH2 0x230B SWAP2 SWAP1 DUP5 PUSH2 0x4608 JUMP JUMPDEST PUSH1 0xE SLOAD SWAP1 SWAP2 POP PUSH2 0x233B SWAP1 PUSH5 0x100000000 SWAP1 DIV PUSH20 0xFFFFFFFFFFFFFFFFFFFFFFFFFFFFFFFFFFFFFFFF AND CALLER ADDRESS DUP5 PUSH2 0x45A4 JUMP JUMPDEST PUSH1 0x0 DUP5 DUP2 MSTORE PUSH1 0xF PUSH1 0x20 MSTORE PUSH1 0x40 DUP2 KECCAK256 PUSH1 0x1A ADD DUP1 SLOAD DUP4 SWAP3 SWAP1 PUSH2 0x235C SWAP1 DUP5 SWAP1 PUSH2 0x5012 JUMP JUMPDEST SWAP1 SWAP2 SSTORE POP PUSH1 0x0 SWAP1 POP JUMPDEST DUP3 DUP2 LT ISZERO PUSH2 0x26F3 JUMPI PUSH1 0x0 DUP5 DUP5 DUP4 DUP2 DUP2 LT PUSH2 0x2381 JUMPI PUSH2 0x2381 PUSH2 0x5025 JUMP JUMPDEST SWAP1 POP PUSH1 0x20 MUL ADD PUSH1 0x20 DUP2 ADD SWAP1 PUSH2 0x2396 SWAP2 SWAP1 PUSH2 0x4B2C JUMP JUMPDEST SWAP1 POP PUSH2 0x23A4 PUSH1 0x6 PUSH1 0xA PUSH2 0x52B9 JUMP JUMPDEST PUSH2 0x23AE SWAP1 DUP3 PUSH2 0x50FA JUMP JUMPDEST PUSH2 0x23BB SWAP1 PUSH3 0xF4240 PUSH2 0x5117 JUMP JUMPDEST SWAP1 POP PUSH3 0xF4240 DUP2 PUSH4 0xFFFFFFFF AND LT ISZERO DUP1 ISZERO PUSH2 0x23DF JUMPI POP PUSH3 0x1E847F DUP2 PUSH4 0xFFFFFFFF AND GT ISZERO JUMPDEST PUSH2 0x2445 JUMPI PUSH1 0x40 MLOAD PUSH32 0x8C379A000000000000000000000000000000000000000000000000000000000 DUP2 MSTORE PUSH1 0x20 PUSH1 0x4 DUP3 ADD MSTORE PUSH1 0xD PUSH1 0x24 DUP3 ADD MSTORE PUSH32 0x4F7574736964652072616E676500000000000000000000000000000000000000 PUSH1 0x44 DUP3 ADD MSTORE PUSH1 0x64 ADD PUSH2 0xAFD JUMP JUMPDEST PUSH1 0x0 DUP7 DUP2 MSTORE PUSH1 0x12 PUSH1 0x20 MSTORE PUSH1 0x40 DUP2 KECCAK256 SWAP1 PUSH2 0x245F PUSH1 0xA DUP5 PUSH2 0x525A JUMP JUMPDEST PUSH2 0x246A SWAP1 PUSH1 0x1 PUSH2 0x5117 JUMP JUMPDEST PUSH4 0xFFFFFFFF AND DUP2 MSTORE PUSH1 0x20 DUP2 ADD SWAP2 SWAP1 SWAP2 MSTORE PUSH1 0x40 ADD PUSH1 0x0 SWAP1 DUP2 KECCAK256 DUP1 SLOAD SWAP2 PUSH2 0x248E DUP4 PUSH2 0x5054 JUMP JUMPDEST SWAP1 SWAP2 SSTORE POP POP PUSH1 0x0 DUP7 DUP2 MSTORE PUSH1 0x12 PUSH1 0x20 MSTORE PUSH1 0x40 DUP2 KECCAK256 SWAP1 PUSH2 0x24AD PUSH1 0x64 DUP5 PUSH2 0x525A JUMP JUMPDEST PUSH2 0x24B8 SWAP1 PUSH1 0xB PUSH2 0x5117 JUMP JUMPDEST PUSH4 0xFFFFFFFF AND DUP2 MSTORE PUSH1 0x20 DUP2 ADD SWAP2 SWAP1 SWAP2 MSTORE PUSH1 0x40 ADD PUSH1 0x0 SWAP1 DUP2 KECCAK256 DUP1 SLOAD SWAP2 PUSH2 0x24DC DUP4 PUSH2 0x5054 JUMP JUMPDEST SWAP1 SWAP2 SSTORE POP POP PUSH1 0x0 DUP7 DUP2 MSTORE PUSH1 0x12 PUSH1 0x20 MSTORE PUSH1 0x40 DUP2 KECCAK256 SWAP1 PUSH2 0x24FC PUSH2 0x3E8 DUP5 PUSH2 0x525A JUMP JUMPDEST PUSH2 0x2507 SWAP1 PUSH1 0x6F PUSH2 0x5117 JUMP JUMPDEST PUSH4 0xFFFFFFFF AND DUP2 MSTORE PUSH1 0x20 DUP2 ADD SWAP2 SWAP1 SWAP2 MSTORE PUSH1 0x40 ADD PUSH1 0x0 SWAP1 DUP2 KECCAK256 DUP1 SLOAD SWAP2 PUSH2 0x252B DUP4 PUSH2 0x5054 JUMP JUMPDEST SWAP1 SWAP2 SSTORE POP POP PUSH1 0x0 DUP7 DUP2 MSTORE PUSH1 0x12 PUSH1 0x20 MSTORE PUSH1 0x40 DUP2 KECCAK256 SWAP1 PUSH2 0x254B PUSH2 0x2710 DUP5 PUSH2 0x525A JUMP JUMPDEST PUSH2 0x2557 SWAP1 PUSH2 0x457 PUSH2 0x5117 JUMP JUMPDEST PUSH4 0xFFFFFFFF AND DUP2 MSTORE PUSH1 0x20 DUP2 ADD SWAP2 SWAP1 SWAP2 MSTORE PUSH1 0x40 ADD PUSH1 0x0 SWAP1 DUP2 KECCAK256 DUP1 SLOAD SWAP2 PUSH2 0x257B DUP4 PUSH2 0x5054 JUMP JUMPDEST SWAP1 SWAP2 SSTORE POP POP PUSH1 0x0 DUP7 DUP2 MSTORE PUSH1 0x12 PUSH1 0x20 MSTORE PUSH1 0x40 DUP2 KECCAK256 SWAP1 PUSH2 0x259C PUSH3 0x186A0 DUP5 PUSH2 0x525A JUMP JUMPDEST PUSH2 0x25A8 SWAP1 PUSH2 0x2B67 PUSH2 0x5117 JUMP JUMPDEST PUSH4 0xFFFFFFFF AND DUP2 MSTORE PUSH1 0x20 DUP2 ADD SWAP2 SWAP1 SWAP2 MSTORE PUSH1 0x40 ADD PUSH1 0x0 SWAP1 DUP2 KECCAK256 DUP1 SLOAD SWAP2 PUSH2 0x25CC DUP4 PUSH2 0x5054 JUMP JUMPDEST SWAP1 SWAP2 SSTORE POP POP PUSH1 0x0 DUP7 DUP2 MSTORE PUSH1 0x12 PUSH1 0x20 MSTORE PUSH1 0x40 DUP2 KECCAK256 SWAP1 PUSH2 0x25ED PUSH3 0xF4240 DUP5 PUSH2 0x525A JUMP JUMPDEST PUSH2 0x25FA SWAP1 PUSH3 0x1B207 PUSH2 0x5117 JUMP JUMPDEST PUSH4 0xFFFFFFFF AND DUP2 MSTORE PUSH1 0x20 DUP2 ADD SWAP2 SWAP1 SWAP2 MSTORE PUSH1 0x40 ADD PUSH1 0x0 SWAP1 DUP2 KECCAK256 DUP1 SLOAD SWAP2 PUSH2 0x261E DUP4 PUSH2 0x5054 JUMP JUMPDEST SWAP1 SWAP2 SSTORE POP POP CALLER PUSH1 0x0 DUP2 DUP2 MSTORE PUSH1 0x13 PUSH1 0x20 SWAP1 DUP2 MSTORE PUSH1 0x40 DUP1 DUP4 KECCAK256 DUP11 DUP5 MSTORE DUP3 MSTORE DUP1 DUP4 KECCAK256 PUSH1 0x6 DUP1 SLOAD DUP3 SLOAD PUSH1 0x1 DUP2 ADD DUP5 SSTORE SWAP3 DUP7 MSTORE DUP5 DUP7 KECCAK256 SWAP1 SWAP3 ADD SWAP2 SWAP1 SWAP2 SSTORE DUP2 MLOAD DUP1 DUP4 ADD DUP4 MSTORE PUSH4 0xFFFFFFFF DUP1 DUP9 AND DUP3 MSTORE DUP2 DUP6 ADD SWAP7 DUP8 MSTORE DUP3 SLOAD DUP7 MSTORE PUSH1 0x10 SWAP1 SWAP5 MSTORE SWAP2 DUP5 KECCAK256 SWAP2 MLOAD DUP3 SLOAD SWAP6 MLOAD PUSH20 0xFFFFFFFFFFFFFFFFFFFFFFFFFFFFFFFFFFFFFFFF AND PUSH5 0x100000000 MUL PUSH32 0xFFFFFFFFFFFFFFFF000000000000000000000000000000000000000000000000 SWAP1 SWAP7 AND SWAP4 AND SWAP3 SWAP1 SWAP3 OR SWAP4 SWAP1 SWAP4 OR SWAP1 SWAP3 SSTORE DUP2 SLOAD SWAP2 SWAP1 PUSH2 0x26DA DUP4 PUSH2 0x5054 JUMP JUMPDEST SWAP2 SWAP1 POP SSTORE POP POP DUP1 DUP1 PUSH2 0x26EB SWAP1 PUSH2 0x5054 JUMP JUMPDEST SWAP2 POP POP PUSH2 0x2365 JUMP JUMPDEST POP PUSH1 0x40 MLOAD DUP3 DUP2 MSTORE DUP5 SWAP1 CALLER SWAP1 PUSH32 0xD7D247B583DE1023852EEF87B48F54354DBEC771D01BC2CC49E96094EFC322B9 SWAP1 PUSH1 0x20 ADD PUSH1 0x40 MLOAD DUP1 SWAP2 SUB SWAP1 LOG3 POP POP PUSH1 0x1 PUSH1 0x0 SSTORE POP POP JUMP JUMPDEST PUSH1 0x60 DUP1 DUP3 PUSH1 0x0 DUP2 PUSH8 0xFFFFFFFFFFFFFFFF DUP2 GT ISZERO PUSH2 0x2755 JUMPI PUSH2 0x2755 PUSH2 0x4FE3 JUMP JUMPDEST PUSH1 0x40 MLOAD SWAP1 DUP1 DUP3 MSTORE DUP1 PUSH1 0x20 MUL PUSH1 0x20 ADD DUP3 ADD PUSH1 0x40 MSTORE DUP1 ISZERO PUSH2 0x277E JUMPI DUP2 PUSH1 0x20 ADD PUSH1 0x20 DUP3 MUL DUP1 CALLDATASIZE DUP4 CALLDATACOPY ADD SWAP1 POP JUMPDEST POP SWAP1 POP PUSH1 0x0 DUP3 PUSH8 0xFFFFFFFFFFFFFFFF DUP2 GT ISZERO PUSH2 0x279C JUMPI PUSH2 0x279C PUSH2 0x4FE3 JUMP JUMPDEST PUSH1 0x40 MLOAD SWAP1 DUP1 DUP3 MSTORE DUP1 PUSH1 0x20 MUL PUSH1 0x20 ADD DUP3 ADD PUSH1 0x40 MSTORE DUP1 ISZERO PUSH2 0x27C5 JUMPI DUP2 PUSH1 0x20 ADD PUSH1 0x20 DUP3 MUL DUP1 CALLDATASIZE DUP4 CALLDATACOPY ADD SWAP1 POP JUMPDEST POP SWAP1 POP PUSH1 0x0 JUMPDEST DUP4 DUP2 LT ISZERO PUSH2 0x28ED JUMPI PUSH1 0x10 PUSH1 0x0 DUP10 DUP10 DUP5 DUP2 DUP2 LT PUSH2 0x27E9 JUMPI PUSH2 0x27E9 PUSH2 0x5025 JUMP JUMPDEST SWAP1 POP PUSH1 0x20 MUL ADD CALLDATALOAD DUP2 MSTORE PUSH1 0x20 ADD SWAP1 DUP2 MSTORE PUSH1 0x20 ADD PUSH1 0x0 KECCAK256 PUSH1 0x0 ADD PUSH1 0x0 SWAP1 SLOAD SWAP1 PUSH2 0x100 EXP SWAP1 DIV PUSH4 0xFFFFFFFF AND DUP4 DUP3 DUP2 MLOAD DUP2 LT PUSH2 0x2824 JUMPI PUSH2 0x2824 PUSH2 0x5025 JUMP JUMPDEST PUSH4 0xFFFFFFFF SWAP1 SWAP3 AND PUSH1 0x20 SWAP3 DUP4 MUL SWAP2 SWAP1 SWAP2 ADD SWAP1 SWAP2 ADD MSTORE PUSH1 0x0 PUSH1 0x10 DUP2 DUP11 DUP11 DUP6 DUP2 DUP2 LT PUSH2 0x2850 JUMPI PUSH2 0x2850 PUSH2 0x5025 JUMP JUMPDEST PUSH1 0x20 SWAP1 DUP2 MUL SWAP3 SWAP1 SWAP3 ADD CALLDATALOAD DUP4 MSTORE POP DUP2 ADD SWAP2 SWAP1 SWAP2 MSTORE PUSH1 0x40 ADD PUSH1 0x0 KECCAK256 SLOAD PUSH5 0x100000000 SWAP1 DIV PUSH20 0xFFFFFFFFFFFFFFFFFFFFFFFFFFFFFFFFFFFFFFFF AND SUB PUSH2 0x28B6 JUMPI PUSH1 0x1 DUP3 DUP3 DUP2 MLOAD DUP2 LT PUSH2 0x28A1 JUMPI PUSH2 0x28A1 PUSH2 0x5025 JUMP JUMPDEST SWAP2 ISZERO ISZERO PUSH1 0x20 SWAP3 DUP4 MUL SWAP2 SWAP1 SWAP2 ADD SWAP1 SWAP2 ADD MSTORE PUSH2 0x28DB JUMP JUMPDEST PUSH1 0x0 DUP3 DUP3 DUP2 MLOAD DUP2 LT PUSH2 0x28CA JUMPI PUSH2 0x28CA PUSH2 0x5025 JUMP JUMPDEST SWAP2 ISZERO ISZERO PUSH1 0x20 SWAP3 DUP4 MUL SWAP2 SWAP1 SWAP2 ADD SWAP1 SWAP2 ADD MSTORE JUMPDEST DUP1 PUSH2 0x28E5 DUP2 PUSH2 0x5054 JUMP JUMPDEST SWAP2 POP POP PUSH2 0x27CB JUMP JUMPDEST POP SWAP1 SWAP4 POP SWAP2 POP POP JUMPDEST SWAP3 POP SWAP3 SWAP1 POP JUMP JUMPDEST PUSH1 0x1 SLOAD PUSH20 0xFFFFFFFFFFFFFFFFFFFFFFFFFFFFFFFFFFFFFFFF AND CALLER EQ DUP1 PUSH2 0x2939 JUMPI POP PUSH1 0x3 SLOAD PUSH20 0xFFFFFFFFFFFFFFFFFFFFFFFFFFFFFFFFFFFFFFFF AND CALLER EQ JUMPDEST PUSH2 0x299F JUMPI PUSH1 0x40 MLOAD PUSH32 0x8C379A000000000000000000000000000000000000000000000000000000000 DUP2 MSTORE PUSH1 0x20 PUSH1 0x4 DUP3 ADD MSTORE PUSH1 0x15 PUSH1 0x24 DUP3 ADD MSTORE PUSH32 0x4E6F74206F776E6572206F72206F70657261746F720000000000000000000000 PUSH1 0x44 DUP3 ADD MSTORE PUSH1 0x64 ADD PUSH2 0xAFD JUMP JUMPDEST PUSH1 0x2 PUSH1 0x0 SLOAD SUB PUSH2 0x2A0B JUMPI PUSH1 0x40 MLOAD PUSH32 0x8C379A000000000000000000000000000000000000000000000000000000000 DUP2 MSTORE PUSH1 0x20 PUSH1 0x4 DUP3 ADD MSTORE PUSH1 0x1F PUSH1 0x24 DUP3 ADD MSTORE PUSH32 0x5265656E7472616E637947756172643A207265656E7472616E742063616C6C00 PUSH1 0x44 DUP3 ADD MSTORE PUSH1 0x64 ADD PUSH2 0xAFD JUMP JUMPDEST PUSH1 0x2 PUSH1 0x0 SSTORE PUSH1 0x1 PUSH1 0x0 DUP3 DUP2 MSTORE PUSH1 0xF PUSH1 0x20 MSTORE PUSH1 0x40 SWAP1 KECCAK256 SLOAD PUSH1 0xFF AND PUSH1 0x3 DUP2 GT ISZERO PUSH2 0x2A35 JUMPI PUSH2 0x2A35 PUSH2 0x4B99 JUMP JUMPDEST EQ PUSH2 0x2A9C JUMPI PUSH1 0x40 MLOAD PUSH32 0x8C379A000000000000000000000000000000000000000000000000000000000 DUP2 MSTORE PUSH1 0x20 PUSH1 0x4 DUP3 ADD MSTORE PUSH1 0x10 PUSH1 0x24 DUP3 ADD MSTORE PUSH32 0x4C6F7474657279206E6F74206F70656E00000000000000000000000000000000 PUSH1 0x44 DUP3 ADD MSTORE PUSH1 0x64 ADD PUSH2 0xAFD JUMP JUMPDEST PUSH1 0x0 DUP2 DUP2 MSTORE PUSH1 0xF PUSH1 0x20 MSTORE PUSH1 0x40 SWAP1 KECCAK256 PUSH1 0x2 ADD SLOAD TIMESTAMP GT PUSH2 0x2B16 JUMPI PUSH1 0x40 MLOAD PUSH32 0x8C379A000000000000000000000000000000000000000000000000000000000 DUP2 MSTORE PUSH1 0x20 PUSH1 0x4 DUP3 ADD MSTORE PUSH1 0x10 PUSH1 0x24 DUP3 ADD MSTORE PUSH32 0x4C6F7474657279206E6F74206F76657200000000000000000000000000000000 PUSH1 0x44 DUP3 ADD MSTORE PUSH1 0x64 ADD PUSH2 0xAFD JUMP JUMPDEST PUSH1 0x6 SLOAD PUSH1 0x0 DUP3 DUP2 MSTORE PUSH1 0xF PUSH1 0x20 MSTORE PUSH1 0x40 SWAP1 KECCAK256 PUSH1 0x19 DUP2 ADD SWAP2 SWAP1 SWAP2 SSTORE DUP1 SLOAD PUSH1 0x2 SWAP2 SWAP1 PUSH32 0xFFFFFFFFFFFFFFFFFFFFFFFFFFFFFFFFFFFFFFFFFFFFFFFFFFFFFFFFFFFFFF00 AND PUSH1 0x1 DUP4 MUL OR SWAP1 SSTORE POP DUP1 PUSH32 0x3728E75294796694D59D2FFCED9C394279BAF7B9EBD2702DB43F5F04BAC67929 PUSH1 0x6 SLOAD PUSH1 0x40 MLOAD PUSH2 0x2B93 SWAP2 DUP2 MSTORE PUSH1 0x20 ADD SWAP1 JUMP JUMPDEST PUSH1 0x40 MLOAD DUP1 SWAP2 SUB SWAP1 LOG2 POP PUSH1 0x1 PUSH1 0x0 SSTORE JUMP JUMPDEST PUSH1 0x1 SLOAD PUSH20 0xFFFFFFFFFFFFFFFFFFFFFFFFFFFFFFFFFFFFFFFF AND CALLER EQ PUSH2 0x2C24 JUMPI PUSH1 0x40 MLOAD PUSH32 0x8C379A000000000000000000000000000000000000000000000000000000000 DUP2 MSTORE PUSH1 0x20 PUSH1 0x4 DUP3 ADD DUP2 SWAP1 MSTORE PUSH1 0x24 DUP3 ADD MSTORE PUSH32 0x4F776E61626C653A2063616C6C6572206973206E6F7420746865206F776E6572 PUSH1 0x44 DUP3 ADD MSTORE PUSH1 0x64 ADD PUSH2 0xAFD JUMP JUMPDEST PUSH1 0x14 DUP1 SLOAD PUSH32 0xFFFFFFFFFFFFFFFFFFFFFFFF0000000000000000000000000000000000000000 AND PUSH20 0xFFFFFFFFFFFFFFFFFFFFFFFFFFFFFFFFFFFFFFFF SWAP3 SWAP1 SWAP3 AND SWAP2 SWAP1 SWAP2 OR SWAP1 SSTORE JUMP JUMPDEST PUSH1 0x1 SLOAD PUSH20 0xFFFFFFFFFFFFFFFFFFFFFFFFFFFFFFFFFFFFFFFF AND CALLER EQ DUP1 PUSH2 0x2CA8 JUMPI POP PUSH1 0x3 SLOAD PUSH20 0xFFFFFFFFFFFFFFFFFFFFFFFFFFFFFFFFFFFFFFFF AND CALLER EQ JUMPDEST PUSH2 0x2D0E JUMPI PUSH1 0x40 MLOAD PUSH32 0x8C379A000000000000000000000000000000000000000000000000000000000 DUP2 MSTORE PUSH1 0x20 PUSH1 0x4 DUP3 ADD MSTORE PUSH1 0x15 PUSH1 0x24 DUP3 ADD MSTORE PUSH32 0x4E6F74206F776E6572206F72206F70657261746F720000000000000000000000 PUSH1 0x44 DUP3 ADD MSTORE PUSH1 0x64 ADD PUSH2 0xAFD JUMP JUMPDEST PUSH1 0x5 SLOAD ISZERO DUP1 PUSH2 0x2D42 JUMPI POP PUSH1 0x3 PUSH1 0x5 SLOAD PUSH1 0x0 SWAP1 DUP2 MSTORE PUSH1 0xF PUSH1 0x20 MSTORE PUSH1 0x40 SWAP1 KECCAK256 SLOAD PUSH1 0xFF AND PUSH1 0x3 DUP2 GT ISZERO PUSH2 0x2D40 JUMPI PUSH2 0x2D40 PUSH2 0x4B99 JUMP JUMPDEST EQ JUMPDEST PUSH2 0x2DA8 JUMPI PUSH1 0x40 MLOAD PUSH32 0x8C379A000000000000000000000000000000000000000000000000000000000 DUP2 MSTORE PUSH1 0x20 PUSH1 0x4 DUP3 ADD MSTORE PUSH1 0x19 PUSH1 0x24 DUP3 ADD MSTORE PUSH32 0x4E6F742074696D6520746F207374617274206C6F747465727900000000000000 PUSH1 0x44 DUP3 ADD MSTORE PUSH1 0x64 ADD PUSH2 0xAFD JUMP JUMPDEST PUSH2 0x12C PUSH2 0x2DB5 TIMESTAMP DUP8 PUSH2 0x4FCA JUMP JUMPDEST GT DUP1 ISZERO PUSH2 0x2DCD JUMPI POP PUSH3 0x28DFAC PUSH2 0x2DCB TIMESTAMP DUP8 PUSH2 0x4FCA JUMP JUMPDEST LT JUMPDEST PUSH2 0x2E33 JUMPI PUSH1 0x40 MLOAD PUSH32 0x8C379A000000000000000000000000000000000000000000000000000000000 DUP2 MSTORE PUSH1 0x20 PUSH1 0x4 DUP3 ADD MSTORE PUSH1 0x1F PUSH1 0x24 DUP3 ADD MSTORE PUSH32 0x4C6F7474657279206C656E677468206F757473696465206F662072616E676500 PUSH1 0x44 DUP3 ADD MSTORE PUSH1 0x64 ADD PUSH2 0xAFD JUMP JUMPDEST PUSH2 0x12C DUP4 LT ISZERO PUSH2 0x2E9F JUMPI PUSH1 0x40 MLOAD PUSH32 0x8C379A000000000000000000000000000000000000000000000000000000000 DUP2 MSTORE PUSH1 0x20 PUSH1 0x4 DUP3 ADD MSTORE PUSH1 0x18 PUSH1 0x24 DUP3 ADD MSTORE PUSH32 0x446973636F756E742064697669736F7220746F6F206C6F770000000000000000 PUSH1 0x44 DUP3 ADD MSTORE PUSH1 0x64 ADD PUSH2 0xAFD JUMP JUMPDEST PUSH2 0xBB8 DUP2 GT ISZERO PUSH2 0x2F0B JUMPI PUSH1 0x40 MLOAD PUSH32 0x8C379A000000000000000000000000000000000000000000000000000000000 DUP2 MSTORE PUSH1 0x20 PUSH1 0x4 DUP3 ADD MSTORE PUSH1 0x15 PUSH1 0x24 DUP3 ADD MSTORE PUSH32 0x54726561737572792066656520746F6F20686967680000000000000000000000 PUSH1 0x44 DUP3 ADD MSTORE PUSH1 0x64 ADD PUSH2 0xAFD JUMP JUMPDEST PUSH1 0xA0 DUP3 ADD CALLDATALOAD PUSH1 0x80 DUP4 ADD CALLDATALOAD PUSH1 0x60 DUP5 ADD CALLDATALOAD PUSH1 0x40 DUP6 ADD CALLDATALOAD PUSH2 0x2F2E PUSH1 0x20 DUP8 ADD CALLDATALOAD DUP8 CALLDATALOAD PUSH2 0x5012 JUMP JUMPDEST PUSH2 0x2F38 SWAP2 SWAP1 PUSH2 0x5012 JUMP JUMPDEST PUSH2 0x2F42 SWAP2 SWAP1 PUSH2 0x5012 JUMP JUMPDEST PUSH2 0x2F4C SWAP2 SWAP1 PUSH2 0x5012 JUMP JUMPDEST PUSH2 0x2F56 SWAP2 SWAP1 PUSH2 0x5012 JUMP JUMPDEST PUSH2 0x2710 EQ PUSH2 0x2FC0 JUMPI PUSH1 0x40 MLOAD PUSH32 0x8C379A000000000000000000000000000000000000000000000000000000000 DUP2 MSTORE PUSH1 0x20 PUSH1 0x4 DUP3 ADD MSTORE PUSH1 0x18 PUSH1 0x24 DUP3 ADD MSTORE PUSH32 0x52657761726473206D75737420657175616C2031303030300000000000000000 PUSH1 0x44 DUP3 ADD MSTORE PUSH1 0x64 ADD PUSH2 0xAFD JUMP JUMPDEST PUSH1 0x5 DUP1 SLOAD SWAP1 PUSH1 0x0 PUSH2 0x2FD0 DUP4 PUSH2 0x5054 JUMP JUMPDEST SWAP1 SWAP2 SSTORE POP POP PUSH1 0x40 DUP1 MLOAD PUSH2 0x1A0 DUP2 ADD SWAP1 SWAP2 MSTORE DUP1 PUSH1 0x1 DUP2 MSTORE PUSH1 0x20 ADD TIMESTAMP DUP2 MSTORE PUSH1 0x20 ADD DUP7 DUP2 MSTORE PUSH1 0x20 ADD DUP6 DUP2 MSTORE PUSH1 0x20 ADD DUP5 DUP2 MSTORE PUSH1 0x20 ADD DUP4 PUSH1 0x6 DUP1 PUSH1 0x20 MUL PUSH1 0x40 MLOAD SWAP1 DUP2 ADD PUSH1 0x40 MSTORE DUP1 SWAP3 SWAP2 SWAP1 DUP3 PUSH1 0x6 PUSH1 0x20 MUL DUP1 DUP3 DUP5 CALLDATACOPY PUSH1 0x0 SWAP3 ADD DUP3 SWAP1 MSTORE POP SWAP3 DUP5 MSTORE POP POP PUSH1 0x20 DUP1 DUP4 ADD DUP6 SWAP1 MSTORE PUSH1 0x40 DUP1 MLOAD PUSH1 0xC0 DUP1 DUP3 ADD DUP4 MSTORE DUP5 DUP3 MSTORE DUP2 DUP5 ADD DUP6 SWAP1 MSTORE DUP2 DUP4 ADD DUP6 SWAP1 MSTORE PUSH1 0x60 DUP1 DUP4 ADD DUP7 SWAP1 MSTORE PUSH1 0x80 DUP1 DUP5 ADD DUP8 SWAP1 MSTORE PUSH1 0xA0 DUP1 DUP6 ADD DUP9 SWAP1 MSTORE DUP6 DUP10 ADD SWAP5 SWAP1 SWAP5 MSTORE DUP5 MLOAD DUP1 DUP5 ADD DUP7 MSTORE DUP8 DUP2 MSTORE DUP1 DUP8 ADD DUP9 SWAP1 MSTORE DUP1 DUP7 ADD DUP9 SWAP1 MSTORE DUP1 DUP4 ADD DUP9 SWAP1 MSTORE DUP1 DUP3 ADD DUP9 SWAP1 MSTORE DUP1 DUP6 ADD DUP9 SWAP1 MSTORE SWAP2 DUP9 ADD SWAP2 SWAP1 SWAP2 MSTORE PUSH1 0x6 SLOAD SWAP1 DUP8 ADD DUP2 SWAP1 MSTORE SWAP2 DUP7 ADD SWAP2 SWAP1 SWAP2 MSTORE PUSH1 0xA SLOAD SWAP1 DUP6 ADD MSTORE PUSH1 0xE0 SWAP1 SWAP4 ADD DUP3 SWAP1 MSTORE PUSH1 0x5 SLOAD DUP3 MSTORE PUSH1 0xF SWAP1 MSTORE KECCAK256 DUP2 MLOAD DUP2 SLOAD DUP3 SWAP1 PUSH32 0xFFFFFFFFFFFFFFFFFFFFFFFFFFFFFFFFFFFFFFFFFFFFFFFFFFFFFFFFFFFFFF00 AND PUSH1 0x1 DUP4 PUSH1 0x3 DUP2 GT ISZERO PUSH2 0x3101 JUMPI PUSH2 0x3101 PUSH2 0x4B99 JUMP JUMPDEST MUL OR SWAP1 SSTORE POP PUSH1 0x20 DUP3 ADD MLOAD PUSH1 0x1 DUP3 ADD SSTORE PUSH1 0x40 DUP3 ADD MLOAD PUSH1 0x2 DUP3 ADD SSTORE PUSH1 0x60 DUP3 ADD MLOAD PUSH1 0x3 DUP3 ADD SSTORE PUSH1 0x80 DUP3 ADD MLOAD PUSH1 0x4 DUP3 ADD SSTORE PUSH1 0xA0 DUP3 ADD MLOAD PUSH2 0x3143 SWAP1 PUSH1 0x5 DUP4 ADD SWAP1 PUSH1 0x6 PUSH2 0x4918 JUMP JUMPDEST POP PUSH1 0xC0 DUP3 ADD MLOAD PUSH1 0xB DUP3 ADD SSTORE PUSH1 0xE0 DUP3 ADD MLOAD PUSH2 0x3163 SWAP1 PUSH1 0xC DUP4 ADD SWAP1 PUSH1 0x6 PUSH2 0x4918 JUMP JUMPDEST POP PUSH2 0x100 DUP3 ADD MLOAD PUSH2 0x317A SWAP1 PUSH1 0x12 DUP4 ADD SWAP1 PUSH1 0x6 PUSH2 0x4918 JUMP JUMPDEST POP PUSH2 0x120 DUP3 ADD MLOAD PUSH1 0x18 DUP3 ADD SSTORE PUSH2 0x140 DUP3 ADD MLOAD PUSH1 0x19 DUP3 ADD SSTORE PUSH2 0x160 DUP3 ADD MLOAD PUSH1 0x1A DUP3 ADD SSTORE PUSH2 0x180 SWAP1 SWAP2 ADD MLOAD PUSH1 0x1B SWAP1 SWAP2 ADD DUP1 SLOAD PUSH32 0xFFFFFFFFFFFFFFFFFFFFFFFFFFFFFFFFFFFFFFFFFFFFFFFFFFFFFFFF00000000 AND PUSH4 0xFFFFFFFF SWAP1 SWAP3 AND SWAP2 SWAP1 SWAP2 OR SWAP1 SSTORE PUSH1 0x5 SLOAD PUSH1 0x6 SLOAD PUSH1 0xA SLOAD PUSH1 0x40 DUP1 MLOAD TIMESTAMP DUP2 MSTORE PUSH1 0x20 DUP2 ADD DUP11 SWAP1 MSTORE SWAP1 DUP2 ADD DUP9 SWAP1 MSTORE PUSH1 0x60 DUP2 ADD SWAP3 SWAP1 SWAP3 MSTORE PUSH1 0x80 DUP3 ADD MSTORE PUSH32 0x367E70F8C0E0C0A6504D92172BDA155C02022D532FC85B5D66A9C49E31C8BC77 SWAP1 PUSH1 0xA0 ADD PUSH1 0x40 MLOAD DUP1 SWAP2 SUB SWAP1 LOG2 POP POP PUSH1 0x0 PUSH1 0xA SSTORE POP POP POP JUMP JUMPDEST PUSH1 0x1 SLOAD PUSH20 0xFFFFFFFFFFFFFFFFFFFFFFFFFFFFFFFFFFFFFFFF AND CALLER EQ PUSH2 0x32BE JUMPI PUSH1 0x40 MLOAD PUSH32 0x8C379A000000000000000000000000000000000000000000000000000000000 DUP2 MSTORE PUSH1 0x20 PUSH1 0x4 DUP3 ADD DUP2 SWAP1 MSTORE PUSH1 0x24 DUP3 ADD MSTORE PUSH32 0x4F776E61626C653A2063616C6C6572206973206E6F7420746865206F776E6572 PUSH1 0x44 DUP3 ADD MSTORE PUSH1 0x64 ADD PUSH2 0xAFD JUMP JUMPDEST PUSH1 0x5 SLOAD ISZERO DUP1 PUSH2 0x32F2 JUMPI POP PUSH1 0x3 PUSH1 0x5 SLOAD PUSH1 0x0 SWAP1 DUP2 MSTORE PUSH1 0xF PUSH1 0x20 MSTORE PUSH1 0x40 SWAP1 KECCAK256 SLOAD PUSH1 0xFF AND PUSH1 0x3 DUP2 GT ISZERO PUSH2 0x32F0 JUMPI PUSH2 0x32F0 PUSH2 0x4B99 JUMP JUMPDEST EQ JUMPDEST PUSH2 0x337E JUMPI PUSH1 0x40 MLOAD PUSH32 0x8C379A000000000000000000000000000000000000000000000000000000000 DUP2 MSTORE PUSH1 0x20 PUSH1 0x4 DUP3 ADD MSTORE PUSH1 0x34 PUSH1 0x24 DUP3 ADD MSTORE PUSH32 0x596F752063616E742077697468647261772062616E6B207768696C65206C6F74 PUSH1 0x44 DUP3 ADD MSTORE PUSH32 0x74657279206973206E6F742066696E6973686564000000000000000000000000 PUSH1 0x64 DUP3 ADD MSTORE PUSH1 0x84 ADD PUSH2 0xAFD JUMP JUMPDEST PUSH1 0xD SLOAD PUSH1 0x5 SLOAD PUSH1 0x0 SWAP1 DUP2 MSTORE PUSH1 0xF PUSH1 0x20 MSTORE PUSH1 0x40 SWAP1 KECCAK256 PUSH1 0x2 ADD SLOAD PUSH2 0x33A0 SWAP2 SWAP1 PUSH2 0x5012 JUMP JUMPDEST TIMESTAMP GT PUSH2 0x3408 JUMPI PUSH1 0x40 MLOAD PUSH32 0x8C379A000000000000000000000000000000000000000000000000000000000 DUP2 MSTORE PUSH1 0x20 PUSH1 0x4 DUP3 ADD MSTORE PUSH1 0x12 PUSH1 0x24 DUP3 ADD MSTORE PUSH32 0x576974686472617720636F6F6C646F776E210000000000000000000000000000 PUSH1 0x44 DUP3 ADD MSTORE PUSH1 0x64 ADD PUSH2 0xAFD JUMP JUMPDEST PUSH1 0xB SLOAD PUSH21 0x10000000000000000000000000000000000000000 SWAP1 DIV PUSH1 0xFF AND ISZERO PUSH2 0x3489 JUMPI PUSH1 0xC SLOAD PUSH1 0x0 SWAP1 PUSH2 0x343C PUSH1 0x64 DUP5 PUSH2 0x50D2 JUMP JUMPDEST PUSH2 0x3446 SWAP2 SWAP1 PUSH2 0x508C JUMP JUMPDEST SWAP1 POP PUSH2 0x3452 DUP2 DUP4 PUSH2 0x4FCA JUMP JUMPDEST PUSH1 0xB SLOAD PUSH1 0xE SLOAD SWAP2 SWAP4 POP PUSH2 0x3487 SWAP2 PUSH5 0x100000000 SWAP1 DIV PUSH20 0xFFFFFFFFFFFFFFFFFFFFFFFFFFFFFFFFFFFFFFFF SWAP1 DUP2 AND SWAP2 AND DUP4 PUSH2 0x43C1 JUMP JUMPDEST POP JUMPDEST PUSH1 0xE SLOAD PUSH2 0x34B5 SWAP1 PUSH5 0x100000000 SWAP1 DIV PUSH20 0xFFFFFFFFFFFFFFFFFFFFFFFFFFFFFFFFFFFFFFFF AND CALLER DUP4 PUSH2 0x43C1 JUMP JUMPDEST POP JUMP JUMPDEST PUSH1 0x0 PUSH2 0x12C DUP5 LT ISZERO PUSH2 0x3526 JUMPI PUSH1 0x40 MLOAD PUSH32 0x8C379A000000000000000000000000000000000000000000000000000000000 DUP2 MSTORE PUSH1 0x20 PUSH1 0x4 DUP3 ADD MSTORE PUSH1 0x1F PUSH1 0x24 DUP3 ADD MSTORE PUSH32 0x4D757374206265203E3D204D494E5F444953434F554E545F44495649534F5200 PUSH1 0x44 DUP3 ADD MSTORE PUSH1 0x64 ADD PUSH2 0xAFD JUMP JUMPDEST DUP2 PUSH1 0x0 SUB PUSH2 0x3590 JUMPI PUSH1 0x40 MLOAD PUSH32 0x8C379A000000000000000000000000000000000000000000000000000000000 DUP2 MSTORE PUSH1 0x20 PUSH1 0x4 DUP3 ADD MSTORE PUSH1 0x1D PUSH1 0x24 DUP3 ADD MSTORE PUSH32 0x4E756D626572206F66207469636B657473206D757374206265203E2030000000 PUSH1 0x44 DUP3 ADD MSTORE PUSH1 0x64 ADD PUSH2 0xAFD JUMP JUMPDEST PUSH2 0x1910 DUP5 DUP5 DUP5 PUSH2 0x4608 JUMP JUMPDEST CALLER EXTCODESIZE ISZERO PUSH2 0x3604 JUMPI PUSH1 0x40 MLOAD PUSH32 0x8C379A000000000000000000000000000000000000000000000000000000000 DUP2 MSTORE PUSH1 0x20 PUSH1 0x4 DUP3 ADD MSTORE PUSH1 0x14 PUSH1 0x24 DUP3 ADD MSTORE PUSH32 0x436F6E7472616374206E6F7420616C6C6F776564000000000000000000000000 PUSH1 0x44 DUP3 ADD MSTORE PUSH1 0x64 ADD PUSH2 0xAFD JUMP JUMPDEST CALLER ORIGIN EQ PUSH2 0x366D JUMPI PUSH1 0x40 MLOAD PUSH32 0x8C379A000000000000000000000000000000000000000000000000000000000 DUP2 MSTORE PUSH1 0x20 PUSH1 0x4 DUP3 ADD MSTORE PUSH1 0x1A PUSH1 0x24 DUP3 ADD MSTORE PUSH32 0x50726F787920636F6E7472616374206E6F7420616C6C6F776564000000000000 PUSH1 0x44 DUP3 ADD MSTORE PUSH1 0x64 ADD PUSH2 0xAFD JUMP JUMPDEST PUSH1 0x2 PUSH1 0x0 SLOAD SUB PUSH2 0x36D9 JUMPI PUSH1 0x40 MLOAD PUSH32 0x8C379A000000000000000000000000000000000000000000000000000000000 DUP2 MSTORE PUSH1 0x20 PUSH1 0x4 DUP3 ADD MSTORE PUSH1 0x1F PUSH1 0x24 DUP3 ADD MSTORE PUSH32 0x5265656E7472616E637947756172643A207265656E7472616E742063616C6C00 PUSH1 0x44 DUP3 ADD MSTORE PUSH1 0x64 ADD PUSH2 0xAFD JUMP JUMPDEST PUSH1 0x2 PUSH1 0x0 SSTORE DUP3 DUP2 EQ PUSH2 0x3747 JUMPI PUSH1 0x40 MLOAD PUSH32 0x8C379A000000000000000000000000000000000000000000000000000000000 DUP2 MSTORE PUSH1 0x20 PUSH1 0x4 DUP3 ADD MSTORE PUSH1 0xF PUSH1 0x24 DUP3 ADD MSTORE PUSH32 0x4E6F742073616D65206C656E6774680000000000000000000000000000000000 PUSH1 0x44 DUP3 ADD MSTORE PUSH1 0x64 ADD PUSH2 0xAFD JUMP JUMPDEST PUSH1 0x0 DUP4 SWAP1 SUB PUSH2 0x37B2 JUMPI PUSH1 0x40 MLOAD PUSH32 0x8C379A000000000000000000000000000000000000000000000000000000000 DUP2 MSTORE PUSH1 0x20 PUSH1 0x4 DUP3 ADD MSTORE PUSH1 0x11 PUSH1 0x24 DUP3 ADD MSTORE PUSH32 0x4C656E677468206D757374206265203E30000000000000000000000000000000 PUSH1 0x44 DUP3 ADD MSTORE PUSH1 0x64 ADD PUSH2 0xAFD JUMP JUMPDEST PUSH1 0x7 SLOAD DUP4 GT ISZERO PUSH2 0x381E JUMPI PUSH1 0x40 MLOAD PUSH32 0x8C379A000000000000000000000000000000000000000000000000000000000 DUP2 MSTORE PUSH1 0x20 PUSH1 0x4 DUP3 ADD MSTORE PUSH1 0x10 PUSH1 0x24 DUP3 ADD MSTORE PUSH32 0x546F6F206D616E79207469636B65747300000000000000000000000000000000 PUSH1 0x44 DUP3 ADD MSTORE PUSH1 0x64 ADD PUSH2 0xAFD JUMP JUMPDEST PUSH1 0x3 PUSH1 0x0 DUP7 DUP2 MSTORE PUSH1 0xF PUSH1 0x20 MSTORE PUSH1 0x40 SWAP1 KECCAK256 SLOAD PUSH1 0xFF AND PUSH1 0x3 DUP2 GT ISZERO PUSH2 0x3843 JUMPI PUSH2 0x3843 PUSH2 0x4B99 JUMP JUMPDEST EQ PUSH2 0x38AA JUMPI PUSH1 0x40 MLOAD PUSH32 0x8C379A000000000000000000000000000000000000000000000000000000000 DUP2 MSTORE PUSH1 0x20 PUSH1 0x4 DUP3 ADD MSTORE PUSH1 0x15 PUSH1 0x24 DUP3 ADD MSTORE PUSH32 0x4C6F7474657279206E6F7420636C61696D61626C650000000000000000000000 PUSH1 0x44 DUP3 ADD MSTORE PUSH1 0x64 ADD PUSH2 0xAFD JUMP JUMPDEST PUSH1 0x0 DUP1 JUMPDEST DUP5 DUP2 LT ISZERO PUSH2 0x3CBC JUMPI PUSH1 0x6 DUP5 DUP5 DUP4 DUP2 DUP2 LT PUSH2 0x38CA JUMPI PUSH2 0x38CA PUSH2 0x5025 JUMP JUMPDEST SWAP1 POP PUSH1 0x20 MUL ADD PUSH1 0x20 DUP2 ADD SWAP1 PUSH2 0x38DF SWAP2 SWAP1 PUSH2 0x4B2C JUMP JUMPDEST PUSH4 0xFFFFFFFF AND LT PUSH2 0x394C JUMPI PUSH1 0x40 MLOAD PUSH32 0x8C379A000000000000000000000000000000000000000000000000000000000 DUP2 MSTORE PUSH1 0x20 PUSH1 0x4 DUP3 ADD MSTORE PUSH1 0x14 PUSH1 0x24 DUP3 ADD MSTORE PUSH32 0x427261636B6574206F7574206F662072616E6765000000000000000000000000 PUSH1 0x44 DUP3 ADD MSTORE PUSH1 0x64 ADD PUSH2 0xAFD JUMP JUMPDEST PUSH1 0x0 DUP7 DUP7 DUP4 DUP2 DUP2 LT PUSH2 0x3960 JUMPI PUSH2 0x3960 PUSH2 0x5025 JUMP JUMPDEST SWAP1 POP PUSH1 0x20 MUL ADD CALLDATALOAD SWAP1 POP DUP1 PUSH1 0xF PUSH1 0x0 DUP11 DUP2 MSTORE PUSH1 0x20 ADD SWAP1 DUP2 MSTORE PUSH1 0x20 ADD PUSH1 0x0 KECCAK256 PUSH1 0x19 ADD SLOAD GT PUSH2 0x39E8 JUMPI PUSH1 0x40 MLOAD PUSH32 0x8C379A000000000000000000000000000000000000000000000000000000000 DUP2 MSTORE PUSH1 0x20 PUSH1 0x4 DUP3 ADD MSTORE PUSH1 0x11 PUSH1 0x24 DUP3 ADD MSTORE PUSH32 0x5469636B6574496420746F6F2068696768000000000000000000000000000000 PUSH1 0x44 DUP3 ADD MSTORE PUSH1 0x64 ADD PUSH2 0xAFD JUMP JUMPDEST PUSH1 0x0 DUP9 DUP2 MSTORE PUSH1 0xF PUSH1 0x20 MSTORE PUSH1 0x40 SWAP1 KECCAK256 PUSH1 0x18 ADD SLOAD DUP2 LT ISZERO PUSH2 0x3A63 JUMPI PUSH1 0x40 MLOAD PUSH32 0x8C379A000000000000000000000000000000000000000000000000000000000 DUP2 MSTORE PUSH1 0x20 PUSH1 0x4 DUP3 ADD MSTORE PUSH1 0x10 PUSH1 0x24 DUP3 ADD MSTORE PUSH32 0x5469636B6574496420746F6F206C6F7700000000000000000000000000000000 PUSH1 0x44 DUP3 ADD MSTORE PUSH1 0x64 ADD PUSH2 0xAFD JUMP JUMPDEST PUSH1 0x0 DUP2 DUP2 MSTORE PUSH1 0x10 PUSH1 0x20 MSTORE PUSH1 0x40 SWAP1 KECCAK256 SLOAD PUSH5 0x100000000 SWAP1 DIV PUSH20 0xFFFFFFFFFFFFFFFFFFFFFFFFFFFFFFFFFFFFFFFF AND CALLER EQ PUSH2 0x3AF8 JUMPI PUSH1 0x40 MLOAD PUSH32 0x8C379A000000000000000000000000000000000000000000000000000000000 DUP2 MSTORE PUSH1 0x20 PUSH1 0x4 DUP3 ADD MSTORE PUSH1 0xD PUSH1 0x24 DUP3 ADD MSTORE PUSH32 0x4E6F7420746865206F776E657200000000000000000000000000000000000000 PUSH1 0x44 DUP3 ADD MSTORE PUSH1 0x64 ADD PUSH2 0xAFD JUMP JUMPDEST PUSH1 0x0 DUP2 DUP2 MSTORE PUSH1 0x10 PUSH1 0x20 MSTORE PUSH1 0x40 DUP2 KECCAK256 DUP1 SLOAD PUSH32 0xFFFFFFFFFFFFFFFF0000000000000000000000000000000000000000FFFFFFFF AND SWAP1 SSTORE PUSH2 0x3B5D DUP10 DUP4 DUP9 DUP9 DUP8 DUP2 DUP2 LT PUSH2 0x3B43 JUMPI PUSH2 0x3B43 PUSH2 0x5025 JUMP JUMPDEST SWAP1 POP PUSH1 0x20 MUL ADD PUSH1 0x20 DUP2 ADD SWAP1 PUSH2 0x3B58 SWAP2 SWAP1 PUSH2 0x4B2C JUMP JUMPDEST PUSH2 0x449A JUMP JUMPDEST SWAP1 POP DUP1 PUSH1 0x0 SUB PUSH2 0x3BC9 JUMPI PUSH1 0x40 MLOAD PUSH32 0x8C379A000000000000000000000000000000000000000000000000000000000 DUP2 MSTORE PUSH1 0x20 PUSH1 0x4 DUP3 ADD MSTORE PUSH1 0x19 PUSH1 0x24 DUP3 ADD MSTORE PUSH32 0x4E6F207072697A6520666F72207468697320627261636B657400000000000000 PUSH1 0x44 DUP3 ADD MSTORE PUSH1 0x64 ADD PUSH2 0xAFD JUMP JUMPDEST DUP6 DUP6 DUP5 DUP2 DUP2 LT PUSH2 0x3BDB JUMPI PUSH2 0x3BDB PUSH2 0x5025 JUMP JUMPDEST SWAP1 POP PUSH1 0x20 MUL ADD PUSH1 0x20 DUP2 ADD SWAP1 PUSH2 0x3BF0 SWAP2 SWAP1 PUSH2 0x4B2C JUMP JUMPDEST PUSH4 0xFFFFFFFF AND PUSH1 0x5 EQ PUSH2 0x3C9B JUMPI PUSH2 0x3C34 DUP10 DUP4 DUP9 DUP9 DUP8 DUP2 DUP2 LT PUSH2 0x3C14 JUMPI PUSH2 0x3C14 PUSH2 0x5025 JUMP JUMPDEST SWAP1 POP PUSH1 0x20 MUL ADD PUSH1 0x20 DUP2 ADD SWAP1 PUSH2 0x3C29 SWAP2 SWAP1 PUSH2 0x4B2C JUMP JUMPDEST PUSH2 0x3B58 SWAP1 PUSH1 0x1 PUSH2 0x5117 JUMP JUMPDEST ISZERO PUSH2 0x3C9B JUMPI PUSH1 0x40 MLOAD PUSH32 0x8C379A000000000000000000000000000000000000000000000000000000000 DUP2 MSTORE PUSH1 0x20 PUSH1 0x4 DUP3 ADD MSTORE PUSH1 0x16 PUSH1 0x24 DUP3 ADD MSTORE PUSH32 0x427261636B6574206D7573742062652068696768657200000000000000000000 PUSH1 0x44 DUP3 ADD MSTORE PUSH1 0x64 ADD PUSH2 0xAFD JUMP JUMPDEST PUSH2 0x3CA5 DUP2 DUP6 PUSH2 0x5012 JUMP JUMPDEST SWAP4 POP POP POP DUP1 DUP1 PUSH2 0x3CB4 SWAP1 PUSH2 0x5054 JUMP JUMPDEST SWAP2 POP POP PUSH2 0x38AE JUMP JUMPDEST POP PUSH1 0xE SLOAD PUSH2 0x3CE9 SWAP1 PUSH5 0x100000000 SWAP1 DIV PUSH20 0xFFFFFFFFFFFFFFFFFFFFFFFFFFFFFFFFFFFFFFFF AND CALLER DUP4 PUSH2 0x43C1 JUMP JUMPDEST PUSH1 0x40 DUP1 MLOAD DUP3 DUP2 MSTORE PUSH1 0x20 DUP2 ADD DUP7 SWAP1 MSTORE DUP8 SWAP2 CALLER SWAP2 PUSH32 0xF5FCA62DA8FB5D95525B49E5EAA7B20BC6BD9E2F6B64B493442D1C0BD6EF486 SWAP2 ADD PUSH1 0x40 MLOAD DUP1 SWAP2 SUB SWAP1 LOG3 POP POP PUSH1 0x1 PUSH1 0x0 SSTORE POP POP POP POP JUMP JUMPDEST PUSH1 0x1 SLOAD PUSH20 0xFFFFFFFFFFFFFFFFFFFFFFFFFFFFFFFFFFFFFFFF AND CALLER EQ PUSH2 0x3DB4 JUMPI PUSH1 0x40 MLOAD PUSH32 0x8C379A000000000000000000000000000000000000000000000000000000000 DUP2 MSTORE PUSH1 0x20 PUSH1 0x4 DUP3 ADD DUP2 SWAP1 MSTORE PUSH1 0x24 DUP3 ADD MSTORE PUSH32 0x4F776E61626C653A2063616C6C6572206973206E6F7420746865206F776E6572 PUSH1 0x44 DUP3 ADD MSTORE PUSH1 0x64 ADD PUSH2 0xAFD JUMP JUMPDEST PUSH20 0xFFFFFFFFFFFFFFFFFFFFFFFFFFFFFFFFFFFFFFFF DUP4 AND PUSH2 0x3E31 JUMPI PUSH1 0x40 MLOAD PUSH32 0x8C379A000000000000000000000000000000000000000000000000000000000 DUP2 MSTORE PUSH1 0x20 PUSH1 0x4 DUP3 ADD MSTORE PUSH1 0x16 PUSH1 0x24 DUP3 ADD MSTORE PUSH32 0x43616E6E6F74206265207A65726F206164647265737300000000000000000000 PUSH1 0x44 DUP3 ADD MSTORE PUSH1 0x64 ADD PUSH2 0xAFD JUMP JUMPDEST PUSH20 0xFFFFFFFFFFFFFFFFFFFFFFFFFFFFFFFFFFFFFFFF DUP3 AND PUSH2 0x3EAE JUMPI PUSH1 0x40 MLOAD PUSH32 0x8C379A000000000000000000000000000000000000000000000000000000000 DUP2 MSTORE PUSH1 0x20 PUSH1 0x4 DUP3 ADD MSTORE PUSH1 0x16 PUSH1 0x24 DUP3 ADD MSTORE PUSH32 0x43616E6E6F74206265207A65726F206164647265737300000000000000000000 PUSH1 0x44 DUP3 ADD MSTORE PUSH1 0x64 ADD PUSH2 0xAFD JUMP JUMPDEST PUSH20 0xFFFFFFFFFFFFFFFFFFFFFFFFFFFFFFFFFFFFFFFF DUP2 AND PUSH2 0x3F2B JUMPI PUSH1 0x40 MLOAD PUSH32 0x8C379A000000000000000000000000000000000000000000000000000000000 DUP2 MSTORE PUSH1 0x20 PUSH1 0x4 DUP3 ADD MSTORE PUSH1 0x16 PUSH1 0x24 DUP3 ADD MSTORE PUSH32 0x43616E6E6F74206265207A65726F206164647265737300000000000000000000 PUSH1 0x44 DUP3 ADD MSTORE PUSH1 0x64 ADD PUSH2 0xAFD JUMP JUMPDEST PUSH1 0x3 DUP1 SLOAD PUSH20 0xFFFFFFFFFFFFFFFFFFFFFFFFFFFFFFFFFFFFFFFF DUP6 DUP2 AND PUSH32 0xFFFFFFFFFFFFFFFFFFFFFFFF0000000000000000000000000000000000000000 SWAP3 DUP4 AND DUP2 OR SWAP1 SWAP4 SSTORE PUSH1 0x4 DUP1 SLOAD DUP7 DUP4 AND SWAP1 DUP5 AND DUP2 OR SWAP1 SWAP2 SSTORE PUSH1 0x2 DUP1 SLOAD SWAP3 DUP7 AND SWAP3 SWAP1 SWAP4 AND DUP3 OR SWAP1 SWAP3 SSTORE PUSH1 0x40 DUP1 MLOAD SWAP4 DUP5 MSTORE PUSH1 0x20 DUP5 ADD SWAP3 SWAP1 SWAP3 MSTORE SWAP1 DUP3 ADD MSTORE PUSH32 0x3E945B7660001D46CFD5E729545F7F0B6C65BDEE54066A91C7ACAD703F1B731E SWAP1 PUSH1 0x60 ADD PUSH1 0x40 MLOAD DUP1 SWAP2 SUB SWAP1 LOG1 POP POP POP JUMP JUMPDEST PUSH1 0x1 SLOAD PUSH20 0xFFFFFFFFFFFFFFFFFFFFFFFFFFFFFFFFFFFFFFFF AND CALLER EQ PUSH2 0x4055 JUMPI PUSH1 0x40 MLOAD PUSH32 0x8C379A000000000000000000000000000000000000000000000000000000000 DUP2 MSTORE PUSH1 0x20 PUSH1 0x4 DUP3 ADD DUP2 SWAP1 MSTORE PUSH1 0x24 DUP3 ADD MSTORE PUSH32 0x4F776E61626C653A2063616C6C6572206973206E6F7420746865206F776E6572 PUSH1 0x44 DUP3 ADD MSTORE PUSH1 0x64 ADD PUSH2 0xAFD JUMP JUMPDEST DUP1 DUP3 GT ISZERO PUSH2 0x40BF JUMPI PUSH1 0x40 MLOAD PUSH32 0x8C379A000000000000000000000000000000000000000000000000000000000 DUP2 MSTORE PUSH1 0x20 PUSH1 0x4 DUP3 ADD MSTORE PUSH1 0x1B PUSH1 0x24 DUP3 ADD MSTORE PUSH32 0x6D696E5072696365206D757374206265203C206D617850726963650000000000 PUSH1 0x44 DUP3 ADD MSTORE PUSH1 0x64 ADD PUSH2 0xAFD JUMP JUMPDEST PUSH1 0x9 SWAP2 SWAP1 SWAP2 SSTORE PUSH1 0x8 SSTORE JUMP JUMPDEST PUSH1 0x1 SLOAD PUSH20 0xFFFFFFFFFFFFFFFFFFFFFFFFFFFFFFFFFFFFFFFF AND CALLER EQ PUSH2 0x414B JUMPI PUSH1 0x40 MLOAD PUSH32 0x8C379A000000000000000000000000000000000000000000000000000000000 DUP2 MSTORE PUSH1 0x20 PUSH1 0x4 DUP3 ADD DUP2 SWAP1 MSTORE PUSH1 0x24 DUP3 ADD MSTORE PUSH32 0x4F776E61626C653A2063616C6C6572206973206E6F7420746865206F776E6572 PUSH1 0x44 DUP3 ADD MSTORE PUSH1 0x64 ADD PUSH2 0xAFD JUMP JUMPDEST PUSH20 0xFFFFFFFFFFFFFFFFFFFFFFFFFFFFFFFFFFFFFFFF DUP2 AND PUSH2 0x41EE JUMPI PUSH1 0x40 MLOAD PUSH32 0x8C379A000000000000000000000000000000000000000000000000000000000 DUP2 MSTORE PUSH1 0x20 PUSH1 0x4 DUP3 ADD MSTORE PUSH1 0x26 PUSH1 0x24 DUP3 ADD MSTORE PUSH32 0x4F776E61626C653A206E6577206F776E657220697320746865207A65726F2061 PUSH1 0x44 DUP3 ADD MSTORE PUSH32 0x6464726573730000000000000000000000000000000000000000000000000000 PUSH1 0x64 DUP3 ADD MSTORE PUSH1 0x84 ADD PUSH2 0xAFD JUMP JUMPDEST PUSH1 0x1 SLOAD PUSH1 0x40 MLOAD PUSH20 0xFFFFFFFFFFFFFFFFFFFFFFFFFFFFFFFFFFFFFFFF DUP1 DUP5 AND SWAP3 AND SWAP1 PUSH32 0x8BE0079C531659141344CD1FD0A4F28419497F9722A3DAAFE3B4186F6B6457E0 SWAP1 PUSH1 0x0 SWAP1 LOG3 PUSH1 0x1 DUP1 SLOAD PUSH32 0xFFFFFFFFFFFFFFFFFFFFFFFF0000000000000000000000000000000000000000 AND PUSH20 0xFFFFFFFFFFFFFFFFFFFFFFFFFFFFFFFFFFFFFFFF SWAP3 SWAP1 SWAP3 AND SWAP2 SWAP1 SWAP2 OR SWAP1 SSTORE JUMP JUMPDEST PUSH1 0x1 SLOAD PUSH20 0xFFFFFFFFFFFFFFFFFFFFFFFFFFFFFFFFFFFFFFFF AND CALLER EQ PUSH2 0x42FD JUMPI PUSH1 0x40 MLOAD PUSH32 0x8C379A000000000000000000000000000000000000000000000000000000000 DUP2 MSTORE PUSH1 0x20 PUSH1 0x4 DUP3 ADD DUP2 SWAP1 MSTORE PUSH1 0x24 DUP3 ADD MSTORE PUSH32 0x4F776E61626C653A2063616C6C6572206973206E6F7420746865206F776E6572 PUSH1 0x44 DUP3 ADD MSTORE PUSH1 0x64 ADD PUSH2 0xAFD JUMP JUMPDEST PUSH20 0xFFFFFFFFFFFFFFFFFFFFFFFFFFFFFFFFFFFFFFFF DUP2 AND PUSH2 0x437A JUMPI PUSH1 0x40 MLOAD PUSH32 0x8C379A000000000000000000000000000000000000000000000000000000000 DUP2 MSTORE PUSH1 0x20 PUSH1 0x4 DUP3 ADD MSTORE PUSH1 0x16 PUSH1 0x24 DUP3 ADD MSTORE PUSH32 0x43616E6E6F74206265207A65726F206164647265737300000000000000000000 PUSH1 0x44 DUP3 ADD MSTORE PUSH1 0x64 ADD PUSH2 0xAFD JUMP JUMPDEST PUSH1 0x3 DUP1 SLOAD PUSH32 0xFFFFFFFFFFFFFFFFFFFFFFFF0000000000000000000000000000000000000000 AND PUSH20 0xFFFFFFFFFFFFFFFFFFFFFFFFFFFFFFFFFFFFFFFF SWAP3 SWAP1 SWAP3 AND SWAP2 SWAP1 SWAP2 OR SWAP1 SSTORE JUMP JUMPDEST PUSH1 0x40 MLOAD PUSH20 0xFFFFFFFFFFFFFFFFFFFFFFFFFFFFFFFFFFFFFFFF DUP4 AND PUSH1 0x24 DUP3 ADD MSTORE PUSH1 0x44 DUP2 ADD DUP3 SWAP1 MSTORE PUSH2 0x4495 SWAP1 DUP5 SWAP1 PUSH32 0xA9059CBB00000000000000000000000000000000000000000000000000000000 SWAP1 PUSH1 0x64 ADD JUMPDEST PUSH1 0x40 DUP1 MLOAD PUSH32 0xFFFFFFFFFFFFFFFFFFFFFFFFFFFFFFFFFFFFFFFFFFFFFFFFFFFFFFFFFFFFFFE0 DUP2 DUP5 SUB ADD DUP2 MSTORE SWAP2 SWAP1 MSTORE PUSH1 0x20 DUP2 ADD DUP1 MLOAD PUSH28 0xFFFFFFFFFFFFFFFFFFFFFFFFFFFFFFFFFFFFFFFFFFFFFFFFFFFFFFFF AND PUSH32 0xFFFFFFFF00000000000000000000000000000000000000000000000000000000 SWAP1 SWAP4 AND SWAP3 SWAP1 SWAP3 OR SWAP1 SWAP2 MSTORE PUSH2 0x463F JUMP JUMPDEST POP POP POP JUMP JUMPDEST PUSH1 0x0 DUP4 DUP2 MSTORE PUSH1 0xF PUSH1 0x20 SWAP1 DUP2 MSTORE PUSH1 0x40 DUP1 DUP4 KECCAK256 PUSH1 0x1B ADD SLOAD DUP6 DUP5 MSTORE PUSH1 0x10 SWAP1 SWAP3 MSTORE DUP3 KECCAK256 SLOAD PUSH4 0xFFFFFFFF SWAP2 DUP3 AND SWAP2 AND DUP3 PUSH2 0x44D0 DUP6 PUSH1 0x1 PUSH2 0x5117 JUMP JUMPDEST PUSH2 0x44DB SWAP1 PUSH1 0xA PUSH2 0x5245 JUMP JUMPDEST PUSH2 0x44E5 SWAP1 DUP4 PUSH2 0x525A JUMP JUMPDEST PUSH4 0xFFFFFFFF DUP1 DUP8 AND PUSH1 0x0 SWAP1 DUP2 MSTORE PUSH1 0x11 PUSH1 0x20 MSTORE PUSH1 0x40 SWAP1 KECCAK256 SLOAD PUSH2 0x4507 SWAP3 SWAP2 AND PUSH2 0x5117 JUMP JUMPDEST SWAP1 POP PUSH1 0x0 PUSH2 0x4516 DUP7 PUSH1 0x1 PUSH2 0x5117 JUMP JUMPDEST PUSH2 0x4521 SWAP1 PUSH1 0xA PUSH2 0x5245 JUMP JUMPDEST PUSH2 0x452B SWAP1 DUP6 PUSH2 0x525A JUMP JUMPDEST PUSH4 0xFFFFFFFF DUP1 DUP9 AND PUSH1 0x0 SWAP1 DUP2 MSTORE PUSH1 0x11 PUSH1 0x20 MSTORE PUSH1 0x40 SWAP1 KECCAK256 SLOAD PUSH2 0x454D SWAP3 SWAP2 AND PUSH2 0x5117 JUMP JUMPDEST SWAP1 POP DUP1 PUSH4 0xFFFFFFFF AND DUP3 PUSH4 0xFFFFFFFF AND SUB PUSH2 0x4597 JUMPI PUSH1 0x0 DUP9 DUP2 MSTORE PUSH1 0xF PUSH1 0x20 MSTORE PUSH1 0x40 SWAP1 KECCAK256 PUSH1 0xC ADD PUSH4 0xFFFFFFFF DUP8 AND PUSH1 0x6 DUP2 LT PUSH2 0x458A JUMPI PUSH2 0x458A PUSH2 0x5025 JUMP JUMPDEST ADD SLOAD SWAP5 POP POP POP POP POP PUSH2 0x188C JUMP JUMPDEST PUSH1 0x0 SWAP5 POP POP POP POP POP PUSH2 0x188C JUMP JUMPDEST PUSH1 0x40 MLOAD PUSH20 0xFFFFFFFFFFFFFFFFFFFFFFFFFFFFFFFFFFFFFFFF DUP1 DUP6 AND PUSH1 0x24 DUP4 ADD MSTORE DUP4 AND PUSH1 0x44 DUP3 ADD MSTORE PUSH1 0x64 DUP2 ADD DUP3 SWAP1 MSTORE PUSH2 0x4602 SWAP1 DUP6 SWAP1 PUSH32 0x23B872DD00000000000000000000000000000000000000000000000000000000 SWAP1 PUSH1 0x84 ADD PUSH2 0x4413 JUMP JUMPDEST POP POP POP POP JUMP JUMPDEST PUSH1 0x0 DUP4 DUP3 PUSH2 0x4617 DUP3 PUSH1 0x1 PUSH2 0x5012 JUMP JUMPDEST PUSH2 0x4621 SWAP2 SWAP1 PUSH2 0x4FCA JUMP JUMPDEST PUSH2 0x462B DUP5 DUP7 PUSH2 0x508C JUMP JUMPDEST PUSH2 0x4635 SWAP2 SWAP1 PUSH2 0x508C JUMP JUMPDEST PUSH2 0x1910 SWAP2 SWAP1 PUSH2 0x50D2 JUMP JUMPDEST PUSH1 0x0 PUSH2 0x46A1 DUP3 PUSH1 0x40 MLOAD DUP1 PUSH1 0x40 ADD PUSH1 0x40 MSTORE DUP1 PUSH1 0x20 DUP2 MSTORE PUSH1 0x20 ADD PUSH32 0x5361666545524332303A206C6F772D6C6576656C2063616C6C206661696C6564 DUP2 MSTORE POP DUP6 PUSH20 0xFFFFFFFFFFFFFFFFFFFFFFFFFFFFFFFFFFFFFFFF AND PUSH2 0x474B SWAP1 SWAP3 SWAP2 SWAP1 PUSH4 0xFFFFFFFF AND JUMP JUMPDEST DUP1 MLOAD SWAP1 SWAP2 POP ISZERO PUSH2 0x4495 JUMPI DUP1 DUP1 PUSH1 0x20 ADD SWAP1 MLOAD DUP2 ADD SWAP1 PUSH2 0x46BF SWAP2 SWAP1 PUSH2 0x52CE JUMP JUMPDEST PUSH2 0x4495 JUMPI PUSH1 0x40 MLOAD PUSH32 0x8C379A000000000000000000000000000000000000000000000000000000000 DUP2 MSTORE PUSH1 0x20 PUSH1 0x4 DUP3 ADD MSTORE PUSH1 0x2A PUSH1 0x24 DUP3 ADD MSTORE PUSH32 0x5361666545524332303A204552433230206F7065726174696F6E20646964206E PUSH1 0x44 DUP3 ADD MSTORE PUSH32 0x6F74207375636365656400000000000000000000000000000000000000000000 PUSH1 0x64 DUP3 ADD MSTORE PUSH1 0x84 ADD PUSH2 0xAFD JUMP JUMPDEST PUSH1 0x60 PUSH2 0x1910 DUP5 DUP5 PUSH1 0x0 DUP6 DUP6 DUP5 EXTCODESIZE PUSH2 0x47BE JUMPI PUSH1 0x40 MLOAD PUSH32 0x8C379A000000000000000000000000000000000000000000000000000000000 DUP2 MSTORE PUSH1 0x20 PUSH1 0x4 DUP3 ADD MSTORE PUSH1 0x1D PUSH1 0x24 DUP3 ADD MSTORE PUSH32 0x416464726573733A2063616C6C20746F206E6F6E2D636F6E7472616374000000 PUSH1 0x44 DUP3 ADD MSTORE PUSH1 0x64 ADD PUSH2 0xAFD JUMP JUMPDEST PUSH1 0x0 DUP1 DUP7 PUSH20 0xFFFFFFFFFFFFFFFFFFFFFFFFFFFFFFFFFFFFFFFF AND DUP6 DUP8 PUSH1 0x40 MLOAD PUSH2 0x47E7 SWAP2 SWAP1 PUSH2 0x530F JUMP JUMPDEST PUSH1 0x0 PUSH1 0x40 MLOAD DUP1 DUP4 SUB DUP2 DUP6 DUP8 GAS CALL SWAP3 POP POP POP RETURNDATASIZE DUP1 PUSH1 0x0 DUP2 EQ PUSH2 0x4824 JUMPI PUSH1 0x40 MLOAD SWAP2 POP PUSH1 0x1F NOT PUSH1 0x3F RETURNDATASIZE ADD AND DUP3 ADD PUSH1 0x40 MSTORE RETURNDATASIZE DUP3 MSTORE RETURNDATASIZE PUSH1 0x0 PUSH1 0x20 DUP5 ADD RETURNDATACOPY PUSH2 0x4829 JUMP JUMPDEST PUSH1 0x60 SWAP2 POP JUMPDEST POP SWAP2 POP SWAP2 POP PUSH2 0x4839 DUP3 DUP3 DUP7 PUSH2 0x4844 JUMP JUMPDEST SWAP8 SWAP7 POP POP POP POP POP POP POP JUMP JUMPDEST PUSH1 0x60 DUP4 ISZERO PUSH2 0x4853 JUMPI POP DUP2 PUSH2 0x188C JUMP JUMPDEST DUP3 MLOAD ISZERO PUSH2 0x4863 JUMPI DUP3 MLOAD DUP1 DUP5 PUSH1 0x20 ADD REVERT JUMPDEST DUP2 PUSH1 0x40 MLOAD PUSH32 0x8C379A000000000000000000000000000000000000000000000000000000000 DUP2 MSTORE PUSH1 0x4 ADD PUSH2 0xAFD SWAP2 SWAP1 PUSH2 0x532B JUMP JUMPDEST PUSH1 0x40 DUP1 MLOAD PUSH2 0x1A0 DUP2 ADD SWAP1 SWAP2 MSTORE DUP1 PUSH1 0x0 DUP2 MSTORE PUSH1 0x20 ADD PUSH1 0x0 DUP2 MSTORE PUSH1 0x20 ADD PUSH1 0x0 DUP2 MSTORE PUSH1 0x20 ADD PUSH1 0x0 DUP2 MSTORE PUSH1 0x20 ADD PUSH1 0x0 DUP2 MSTORE PUSH1 0x20 ADD PUSH2 0x48CF PUSH2 0x4956 JUMP JUMPDEST DUP2 MSTORE PUSH1 0x20 ADD PUSH1 0x0 DUP2 MSTORE PUSH1 0x20 ADD PUSH2 0x48E3 PUSH2 0x4956 JUMP JUMPDEST DUP2 MSTORE PUSH1 0x20 ADD PUSH2 0x48F0 PUSH2 0x4956 JUMP JUMPDEST DUP2 MSTORE PUSH1 0x20 ADD PUSH1 0x0 DUP2 MSTORE PUSH1 0x20 ADD PUSH1 0x0 DUP2 MSTORE PUSH1 0x20 ADD PUSH1 0x0 DUP2 MSTORE PUSH1 0x20 ADD PUSH1 0x0 PUSH4 0xFFFFFFFF AND DUP2 MSTORE POP SWAP1 JUMP JUMPDEST DUP3 PUSH1 0x6 DUP2 ADD SWAP3 DUP3 ISZERO PUSH2 0x4946 JUMPI SWAP2 PUSH1 0x20 MUL DUP3 ADD JUMPDEST DUP3 DUP2 GT ISZERO PUSH2 0x4946 JUMPI DUP3 MLOAD DUP3 SSTORE SWAP2 PUSH1 0x20 ADD SWAP2 SWAP1 PUSH1 0x1 ADD SWAP1 PUSH2 0x492B JUMP JUMPDEST POP PUSH2 0x4952 SWAP3 SWAP2 POP PUSH2 0x4974 JUMP JUMPDEST POP SWAP1 JUMP JUMPDEST PUSH1 0x40 MLOAD DUP1 PUSH1 0xC0 ADD PUSH1 0x40 MSTORE DUP1 PUSH1 0x6 SWAP1 PUSH1 0x20 DUP3 MUL DUP1 CALLDATASIZE DUP4 CALLDATACOPY POP SWAP2 SWAP3 SWAP2 POP POP JUMP JUMPDEST JUMPDEST DUP1 DUP3 GT ISZERO PUSH2 0x4952 JUMPI PUSH1 0x0 DUP2 SSTORE PUSH1 0x1 ADD PUSH2 0x4975 JUMP JUMPDEST DUP1 CALLDATALOAD PUSH20 0xFFFFFFFFFFFFFFFFFFFFFFFFFFFFFFFFFFFFFFFF DUP2 AND DUP2 EQ PUSH2 0x49AD JUMPI PUSH1 0x0 DUP1 REVERT JUMPDEST SWAP2 SWAP1 POP JUMP JUMPDEST PUSH1 0x0 DUP1 PUSH1 0x0 DUP1 PUSH1 0x80 DUP6 DUP8 SUB SLT ISZERO PUSH2 0x49C8 JUMPI PUSH1 0x0 DUP1 REVERT JUMPDEST PUSH2 0x49D1 DUP6 PUSH2 0x4989 JUMP JUMPDEST SWAP7 PUSH1 0x20 DUP7 ADD CALLDATALOAD SWAP7 POP PUSH1 0x40 DUP7 ADD CALLDATALOAD SWAP6 PUSH1 0x60 ADD CALLDATALOAD SWAP5 POP SWAP3 POP POP POP JUMP JUMPDEST PUSH1 0x0 DUP2 MLOAD DUP1 DUP5 MSTORE PUSH1 0x20 DUP1 DUP6 ADD SWAP5 POP DUP1 DUP5 ADD PUSH1 0x0 JUMPDEST DUP4 DUP2 LT ISZERO PUSH2 0x4A21 JUMPI DUP2 MLOAD PUSH4 0xFFFFFFFF AND DUP8 MSTORE SWAP6 DUP3 ADD SWAP6 SWAP1 DUP3 ADD SWAP1 PUSH1 0x1 ADD PUSH2 0x49FF JUMP JUMPDEST POP SWAP5 SWAP6 SWAP5 POP POP POP POP POP JUMP JUMPDEST PUSH1 0x0 DUP2 MLOAD DUP1 DUP5 MSTORE PUSH1 0x20 DUP1 DUP6 ADD SWAP5 POP DUP1 DUP5 ADD PUSH1 0x0 JUMPDEST DUP4 DUP2 LT ISZERO PUSH2 0x4A21 JUMPI DUP2 MLOAD ISZERO ISZERO DUP8 MSTORE SWAP6 DUP3 ADD SWAP6 SWAP1 DUP3 ADD SWAP1 PUSH1 0x1 ADD PUSH2 0x4A40 JUMP JUMPDEST PUSH1 0x80 DUP1 DUP3 MSTORE DUP6 MLOAD SWAP1 DUP3 ADD DUP2 SWAP1 MSTORE PUSH1 0x0 SWAP1 PUSH1 0x20 SWAP1 PUSH1 0xA0 DUP5 ADD SWAP1 DUP3 DUP10 ADD DUP5 JUMPDEST DUP3 DUP2 LT ISZERO PUSH2 0x4A97 JUMPI DUP2 MLOAD DUP5 MSTORE SWAP3 DUP5 ADD SWAP3 SWAP1 DUP5 ADD SWAP1 PUSH1 0x1 ADD PUSH2 0x4A7B JUMP JUMPDEST POP POP POP DUP4 DUP2 SUB DUP3 DUP6 ADD MSTORE PUSH2 0x4AAB DUP2 DUP9 PUSH2 0x49EB JUMP JUMPDEST SWAP2 POP POP DUP3 DUP2 SUB PUSH1 0x40 DUP5 ADD MSTORE PUSH2 0x4AC0 DUP2 DUP7 PUSH2 0x4A2C JUMP JUMPDEST SWAP2 POP POP DUP3 PUSH1 0x60 DUP4 ADD MSTORE SWAP6 SWAP5 POP POP POP POP POP JUMP JUMPDEST PUSH1 0x0 PUSH1 0x20 DUP3 DUP5 SUB SLT ISZERO PUSH2 0x4AE4 JUMPI PUSH1 0x0 DUP1 REVERT JUMPDEST PUSH2 0x188C DUP3 PUSH2 0x4989 JUMP JUMPDEST DUP1 ISZERO ISZERO DUP2 EQ PUSH2 0x34B5 JUMPI PUSH1 0x0 DUP1 REVERT JUMPDEST PUSH1 0x0 PUSH1 0x20 DUP3 DUP5 SUB SLT ISZERO PUSH2 0x4B0D JUMPI PUSH1 0x0 DUP1 REVERT JUMPDEST DUP2 CALLDATALOAD PUSH2 0x188C DUP2 PUSH2 0x4AED JUMP JUMPDEST DUP1 CALLDATALOAD PUSH4 0xFFFFFFFF DUP2 AND DUP2 EQ PUSH2 0x49AD JUMPI PUSH1 0x0 DUP1 REVERT JUMPDEST PUSH1 0x0 PUSH1 0x20 DUP3 DUP5 SUB SLT ISZERO PUSH2 0x4B3E JUMPI PUSH1 0x0 DUP1 REVERT JUMPDEST PUSH2 0x188C DUP3 PUSH2 0x4B18 JUMP JUMPDEST PUSH1 0x0 DUP1 PUSH1 0x0 PUSH1 0x60 DUP5 DUP7 SUB SLT ISZERO PUSH2 0x4B5C JUMPI PUSH1 0x0 DUP1 REVERT JUMPDEST DUP4 CALLDATALOAD SWAP3 POP PUSH1 0x20 DUP5 ADD CALLDATALOAD SWAP2 POP PUSH1 0x40 DUP5 ADD CALLDATALOAD PUSH2 0x4B75 DUP2 PUSH2 0x4AED JUMP JUMPDEST DUP1 SWAP2 POP POP SWAP3 POP SWAP3 POP SWAP3 JUMP JUMPDEST PUSH1 0x0 PUSH1 0x20 DUP3 DUP5 SUB SLT ISZERO PUSH2 0x4B92 JUMPI PUSH1 0x0 DUP1 REVERT JUMPDEST POP CALLDATALOAD SWAP2 SWAP1 POP JUMP JUMPDEST PUSH32 0x4E487B7100000000000000000000000000000000000000000000000000000000 PUSH1 0x0 MSTORE PUSH1 0x21 PUSH1 0x4 MSTORE PUSH1 0x24 PUSH1 0x0 REVERT JUMPDEST PUSH1 0x4 DUP2 LT PUSH2 0x4BFF JUMPI PUSH32 0x4E487B7100000000000000000000000000000000000000000000000000000000 PUSH1 0x0 MSTORE PUSH1 0x21 PUSH1 0x4 MSTORE PUSH1 0x24 PUSH1 0x0 REVERT JUMPDEST SWAP1 MSTORE JUMP JUMPDEST DUP1 PUSH1 0x0 JUMPDEST PUSH1 0x6 DUP2 LT ISZERO PUSH2 0x4602 JUMPI DUP2 MLOAD DUP5 MSTORE PUSH1 0x20 SWAP4 DUP5 ADD SWAP4 SWAP1 SWAP2 ADD SWAP1 PUSH1 0x1 ADD PUSH2 0x4C07 JUMP JUMPDEST PUSH1 0x0 PUSH2 0x380 DUP3 ADD SWAP1 POP PUSH2 0x4C3A DUP3 DUP5 MLOAD PUSH2 0x4BC8 JUMP JUMPDEST PUSH1 0x20 DUP4 ADD MLOAD PUSH1 0x20 DUP4 ADD MSTORE PUSH1 0x40 DUP4 ADD MLOAD PUSH1 0x40 DUP4 ADD MSTORE PUSH1 0x60 DUP4 ADD MLOAD PUSH1 0x60 DUP4 ADD MSTORE PUSH1 0x80 DUP4 ADD MLOAD PUSH1 0x80 DUP4 ADD MSTORE PUSH1 0xA0 DUP4 ADD MLOAD PUSH2 0x4C74 PUSH1 0xA0 DUP5 ADD DUP3 PUSH2 0x4C03 JUMP JUMPDEST POP PUSH1 0xC0 DUP4 ADD MLOAD PUSH2 0x160 DUP2 DUP2 DUP6 ADD MSTORE PUSH1 0xE0 DUP6 ADD MLOAD SWAP2 POP PUSH2 0x180 PUSH2 0x4C98 DUP2 DUP7 ADD DUP5 PUSH2 0x4C03 JUMP JUMPDEST PUSH2 0x100 DUP7 ADD MLOAD SWAP3 POP PUSH2 0x4CAE PUSH2 0x240 DUP7 ADD DUP5 PUSH2 0x4C03 JUMP JUMPDEST PUSH2 0x120 DUP7 ADD MLOAD PUSH2 0x300 DUP7 ADD MSTORE PUSH2 0x140 DUP7 ADD MLOAD PUSH2 0x320 DUP7 ADD MSTORE SWAP1 DUP6 ADD MLOAD PUSH2 0x340 DUP6 ADD MSTORE DUP5 ADD MLOAD PUSH4 0xFFFFFFFF DUP2 AND PUSH2 0x360 DUP6 ADD MSTORE SWAP1 POP JUMPDEST POP SWAP3 SWAP2 POP POP JUMP JUMPDEST PUSH1 0x0 DUP1 PUSH1 0x0 PUSH1 0x60 DUP5 DUP7 SUB SLT ISZERO PUSH2 0x4CFF JUMPI PUSH1 0x0 DUP1 REVERT JUMPDEST DUP4 CALLDATALOAD SWAP3 POP PUSH1 0x20 DUP5 ADD CALLDATALOAD SWAP2 POP PUSH2 0x4D16 PUSH1 0x40 DUP6 ADD PUSH2 0x4B18 JUMP JUMPDEST SWAP1 POP SWAP3 POP SWAP3 POP SWAP3 JUMP JUMPDEST PUSH1 0x0 DUP1 PUSH1 0x40 DUP4 DUP6 SUB SLT ISZERO PUSH2 0x4D32 JUMPI PUSH1 0x0 DUP1 REVERT JUMPDEST PUSH2 0x4D3B DUP4 PUSH2 0x4989 JUMP JUMPDEST SWAP5 PUSH1 0x20 SWAP4 SWAP1 SWAP4 ADD CALLDATALOAD SWAP4 POP POP POP JUMP JUMPDEST PUSH1 0x0 DUP1 PUSH1 0x40 DUP4 DUP6 SUB SLT ISZERO PUSH2 0x4D5C JUMPI PUSH1 0x0 DUP1 REVERT JUMPDEST POP POP DUP1 CALLDATALOAD SWAP3 PUSH1 0x20 SWAP1 SWAP2 ADD CALLDATALOAD SWAP2 POP JUMP JUMPDEST PUSH1 0x0 DUP1 DUP4 PUSH1 0x1F DUP5 ADD SLT PUSH2 0x4D7D JUMPI PUSH1 0x0 DUP1 REVERT JUMPDEST POP DUP2 CALLDATALOAD PUSH8 0xFFFFFFFFFFFFFFFF DUP2 GT ISZERO PUSH2 0x4D95 JUMPI PUSH1 0x0 DUP1 REVERT JUMPDEST PUSH1 0x20 DUP4 ADD SWAP2 POP DUP4 PUSH1 0x20 DUP3 PUSH1 0x5 SHL DUP6 ADD ADD GT ISZERO PUSH2 0x28F5 JUMPI PUSH1 0x0 DUP1 REVERT JUMPDEST PUSH1 0x0 DUP1 PUSH1 0x0 PUSH1 0x40 DUP5 DUP7 SUB SLT ISZERO PUSH2 0x4DC5 JUMPI PUSH1 0x0 DUP1 REVERT JUMPDEST DUP4 CALLDATALOAD SWAP3 POP PUSH1 0x20 DUP5 ADD CALLDATALOAD PUSH8 0xFFFFFFFFFFFFFFFF DUP2 GT ISZERO PUSH2 0x4DE3 JUMPI PUSH1 0x0 DUP1 REVERT JUMPDEST PUSH2 0x4DEF DUP7 DUP3 DUP8 ADD PUSH2 0x4D6B JUMP JUMPDEST SWAP5 SWAP8 SWAP1 SWAP7 POP SWAP4 SWAP5 POP POP POP POP JUMP JUMPDEST PUSH1 0x0 DUP1 PUSH1 0x20 DUP4 DUP6 SUB SLT ISZERO PUSH2 0x4E0F JUMPI PUSH1 0x0 DUP1 REVERT JUMPDEST DUP3 CALLDATALOAD PUSH8 0xFFFFFFFFFFFFFFFF DUP2 GT ISZERO PUSH2 0x4E26 JUMPI PUSH1 0x0 DUP1 REVERT JUMPDEST PUSH2 0x4E32 DUP6 DUP3 DUP7 ADD PUSH2 0x4D6B JUMP JUMPDEST SWAP1 SWAP7 SWAP1 SWAP6 POP SWAP4 POP POP POP POP JUMP JUMPDEST PUSH1 0x40 DUP2 MSTORE PUSH1 0x0 PUSH2 0x4E51 PUSH1 0x40 DUP4 ADD DUP6 PUSH2 0x49EB JUMP JUMPDEST DUP3 DUP2 SUB PUSH1 0x20 DUP5 ADD MSTORE PUSH2 0x4E63 DUP2 DUP6 PUSH2 0x4A2C JUMP JUMPDEST SWAP6 SWAP5 POP POP POP POP POP JUMP JUMPDEST PUSH1 0x0 DUP1 PUSH1 0x0 DUP1 PUSH1 0x0 PUSH2 0x140 DUP7 DUP9 SUB SLT ISZERO PUSH2 0x4E85 JUMPI PUSH1 0x0 DUP1 REVERT JUMPDEST DUP6 CALLDATALOAD SWAP5 POP PUSH1 0x20 DUP7 ADD CALLDATALOAD SWAP4 POP PUSH1 0x40 DUP7 ADD CALLDATALOAD SWAP3 POP PUSH2 0x120 DUP7 ADD DUP8 DUP2 GT ISZERO PUSH2 0x4EA9 JUMPI PUSH1 0x0 DUP1 REVERT JUMPDEST SWAP5 SWAP8 SWAP4 SWAP7 POP SWAP2 SWAP5 PUSH1 0x60 ADD SWAP4 CALLDATALOAD SWAP3 SWAP2 POP POP JUMP JUMPDEST PUSH1 0x0 DUP1 PUSH1 0x0 PUSH1 0x60 DUP5 DUP7 SUB SLT ISZERO PUSH2 0x4ED0 JUMPI PUSH1 0x0 DUP1 REVERT JUMPDEST POP POP DUP2 CALLDATALOAD SWAP4 PUSH1 0x20 DUP4 ADD CALLDATALOAD SWAP4 POP PUSH1 0x40 SWAP1 SWAP3 ADD CALLDATALOAD SWAP2 SWAP1 POP JUMP JUMPDEST PUSH1 0x0 DUP1 PUSH1 0x0 DUP1 PUSH1 0x0 PUSH1 0x60 DUP7 DUP9 SUB SLT ISZERO PUSH2 0x4EFF JUMPI PUSH1 0x0 DUP1 REVERT JUMPDEST DUP6 CALLDATALOAD SWAP5 POP PUSH1 0x20 DUP7 ADD CALLDATALOAD PUSH8 0xFFFFFFFFFFFFFFFF DUP1 DUP3 GT ISZERO PUSH2 0x4F1E JUMPI PUSH1 0x0 DUP1 REVERT JUMPDEST PUSH2 0x4F2A DUP10 DUP4 DUP11 ADD PUSH2 0x4D6B JUMP JUMPDEST SWAP1 SWAP7 POP SWAP5 POP PUSH1 0x40 DUP9 ADD CALLDATALOAD SWAP2 POP DUP1 DUP3 GT ISZERO PUSH2 0x4F43 JUMPI PUSH1 0x0 DUP1 REVERT JUMPDEST POP PUSH2 0x4F50 DUP9 DUP3 DUP10 ADD PUSH2 0x4D6B JUMP JUMPDEST SWAP7 SWAP10 SWAP6 SWAP9 POP SWAP4 SWAP7 POP SWAP3 SWAP5 SWAP4 SWAP3 POP POP POP JUMP JUMPDEST PUSH1 0x0 DUP1 PUSH1 0x0 PUSH1 0x60 DUP5 DUP7 SUB SLT ISZERO PUSH2 0x4F76 JUMPI PUSH1 0x0 DUP1 REVERT JUMPDEST PUSH2 0x4F7F DUP5 PUSH2 0x4989 JUMP JUMPDEST SWAP3 POP PUSH2 0x4F8D PUSH1 0x20 DUP6 ADD PUSH2 0x4989 JUMP JUMPDEST SWAP2 POP PUSH2 0x4D16 PUSH1 0x40 DUP6 ADD PUSH2 0x4989 JUMP JUMPDEST PUSH32 0x4E487B7100000000000000000000000000000000000000000000000000000000 PUSH1 0x0 MSTORE PUSH1 0x11 PUSH1 0x4 MSTORE PUSH1 0x24 PUSH1 0x0 REVERT JUMPDEST DUP2 DUP2 SUB DUP2 DUP2 GT ISZERO PUSH2 0x4FDD JUMPI PUSH2 0x4FDD PUSH2 0x4F9B JUMP JUMPDEST SWAP3 SWAP2 POP POP JUMP JUMPDEST PUSH32 0x4E487B7100000000000000000000000000000000000000000000000000000000 PUSH1 0x0 MSTORE PUSH1 0x41 PUSH1 0x4 MSTORE PUSH1 0x24 PUSH1 0x0 REVERT JUMPDEST DUP1 DUP3 ADD DUP1 DUP3 GT ISZERO PUSH2 0x4FDD JUMPI PUSH2 0x4FDD PUSH2 0x4F9B JUMP JUMPDEST PUSH32 0x4E487B7100000000000000000000000000000000000000000000000000000000 PUSH1 0x0 MSTORE PUSH1 0x32 PUSH1 0x4 MSTORE PUSH1 0x24 PUSH1 0x0 REVERT JUMPDEST PUSH1 0x0 PUSH32 0xFFFFFFFFFFFFFFFFFFFFFFFFFFFFFFFFFFFFFFFFFFFFFFFFFFFFFFFFFFFFFFFF DUP3 SUB PUSH2 0x5085 JUMPI PUSH2 0x5085 PUSH2 0x4F9B JUMP JUMPDEST POP PUSH1 0x1 ADD SWAP1 JUMP JUMPDEST DUP1 DUP3 MUL DUP2 ISZERO DUP3 DUP3 DIV DUP5 EQ OR PUSH2 0x4FDD JUMPI PUSH2 0x4FDD PUSH2 0x4F9B JUMP JUMPDEST PUSH32 0x4E487B7100000000000000000000000000000000000000000000000000000000 PUSH1 0x0 MSTORE PUSH1 0x12 PUSH1 0x4 MSTORE PUSH1 0x24 PUSH1 0x0 REVERT JUMPDEST PUSH1 0x0 DUP3 PUSH2 0x50E1 JUMPI PUSH2 0x50E1 PUSH2 0x50A3 JUMP JUMPDEST POP DIV SWAP1 JUMP JUMPDEST PUSH1 0x0 DUP3 PUSH2 0x50F5 JUMPI PUSH2 0x50F5 PUSH2 0x50A3 JUMP JUMPDEST POP MOD SWAP1 JUMP JUMPDEST PUSH4 0xFFFFFFFF DUP3 DUP2 AND DUP3 DUP3 AND SUB SWAP1 DUP1 DUP3 GT ISZERO PUSH2 0x4CE3 JUMPI PUSH2 0x4CE3 PUSH2 0x4F9B JUMP JUMPDEST PUSH4 0xFFFFFFFF DUP2 DUP2 AND DUP4 DUP3 AND ADD SWAP1 DUP1 DUP3 GT ISZERO PUSH2 0x4CE3 JUMPI PUSH2 0x4CE3 PUSH2 0x4F9B JUMP JUMPDEST PUSH1 0x1 DUP2 DUP2 JUMPDEST DUP1 DUP6 GT ISZERO PUSH2 0x5171 JUMPI DUP2 PUSH4 0xFFFFFFFF DIV DUP3 GT ISZERO PUSH2 0x5157 JUMPI PUSH2 0x5157 PUSH2 0x4F9B JUMP JUMPDEST DUP1 DUP6 AND ISZERO PUSH2 0x5164 JUMPI SWAP2 DUP2 MUL SWAP2 JUMPDEST SWAP4 DUP5 SHR SWAP4 SWAP1 DUP1 MUL SWAP1 PUSH2 0x5139 JUMP JUMPDEST POP SWAP3 POP SWAP3 SWAP1 POP JUMP JUMPDEST PUSH1 0x0 DUP3 PUSH2 0x5188 JUMPI POP PUSH1 0x1 PUSH2 0x4FDD JUMP JUMPDEST DUP2 PUSH2 0x5195 JUMPI POP PUSH1 0x0 PUSH2 0x4FDD JUMP JUMPDEST DUP2 PUSH1 0x1 DUP2 EQ PUSH2 0x51AB JUMPI PUSH1 0x2 DUP2 EQ PUSH2 0x51B5 JUMPI PUSH2 0x51E6 JUMP JUMPDEST PUSH1 0x1 SWAP2 POP POP PUSH2 0x4FDD JUMP JUMPDEST PUSH1 0xFF DUP5 GT ISZERO PUSH2 0x51C6 JUMPI PUSH2 0x51C6 PUSH2 0x4F9B JUMP JUMPDEST PUSH1 0x1 DUP5 SHL SWAP2 POP PUSH4 0xFFFFFFFF DUP3 GT ISZERO PUSH2 0x51E0 JUMPI PUSH2 0x51E0 PUSH2 0x4F9B JUMP JUMPDEST POP PUSH2 0x4FDD JUMP JUMPDEST POP PUSH1 0x20 DUP4 LT PUSH2 0x133 DUP4 LT AND PUSH1 0x4E DUP5 LT PUSH1 0xB DUP5 LT AND OR ISZERO PUSH2 0x521D JUMPI POP DUP2 DUP2 EXP PUSH4 0xFFFFFFFF DUP2 GT ISZERO PUSH2 0x5218 JUMPI PUSH2 0x5218 PUSH2 0x4F9B JUMP JUMPDEST PUSH2 0x4FDD JUMP JUMPDEST PUSH2 0x5227 DUP4 DUP4 PUSH2 0x5134 JUMP JUMPDEST DUP1 PUSH4 0xFFFFFFFF DIV DUP3 GT ISZERO PUSH2 0x523D JUMPI PUSH2 0x523D PUSH2 0x4F9B JUMP JUMPDEST MUL SWAP4 SWAP3 POP POP POP JUMP JUMPDEST PUSH1 0x0 PUSH4 0xFFFFFFFF PUSH2 0x1910 DUP2 DUP6 AND DUP3 DUP6 AND PUSH2 0x5179 JUMP JUMPDEST PUSH1 0x0 PUSH4 0xFFFFFFFF DUP1 DUP5 AND DUP1 PUSH2 0x5271 JUMPI PUSH2 0x5271 PUSH2 0x50A3 JUMP JUMPDEST SWAP3 AND SWAP2 SWAP1 SWAP2 MOD SWAP3 SWAP2 POP POP JUMP JUMPDEST PUSH1 0x0 PUSH4 0xFFFFFFFF DUP1 DUP4 AND DUP2 DUP2 SUB PUSH2 0x5296 JUMPI PUSH2 0x5296 PUSH2 0x4F9B JUMP JUMPDEST PUSH1 0x1 ADD SWAP4 SWAP3 POP POP POP JUMP JUMPDEST PUSH1 0x0 PUSH1 0x20 DUP3 DUP5 SUB SLT ISZERO PUSH2 0x52B2 JUMPI PUSH1 0x0 DUP1 REVERT JUMPDEST POP MLOAD SWAP2 SWAP1 POP JUMP JUMPDEST PUSH1 0x0 PUSH2 0x188C PUSH1 0xFF DUP5 AND PUSH4 0xFFFFFFFF DUP5 AND PUSH2 0x5179 JUMP JUMPDEST PUSH1 0x0 PUSH1 0x20 DUP3 DUP5 SUB SLT ISZERO PUSH2 0x52E0 JUMPI PUSH1 0x0 DUP1 REVERT JUMPDEST DUP2 MLOAD PUSH2 0x188C DUP2 PUSH2 0x4AED JUMP JUMPDEST PUSH1 0x0 JUMPDEST DUP4 DUP2 LT ISZERO PUSH2 0x5306 JUMPI DUP2 DUP2 ADD MLOAD DUP4 DUP3 ADD MSTORE PUSH1 0x20 ADD PUSH2 0x52EE JUMP JUMPDEST POP POP PUSH1 0x0 SWAP2 ADD MSTORE JUMP JUMPDEST PUSH1 0x0 DUP3 MLOAD PUSH2 0x5321 DUP2 DUP5 PUSH1 0x20 DUP8 ADD PUSH2 0x52EB JUMP JUMPDEST SWAP2 SWAP1 SWAP2 ADD SWAP3 SWAP2 POP POP JUMP JUMPDEST PUSH1 0x20 DUP2 MSTORE PUSH1 0x0 DUP3 MLOAD DUP1 PUSH1 0x20 DUP5 ADD MSTORE PUSH2 0x534A DUP2 PUSH1 0x40 DUP6 ADD PUSH1 0x20 DUP8 ADD PUSH2 0x52EB JUMP JUMPDEST PUSH1 0x1F ADD PUSH32 0xFFFFFFFFFFFFFFFFFFFFFFFFFFFFFFFFFFFFFFFFFFFFFFFFFFFFFFFFFFFFFFE0 AND SWAP2 SWAP1 SWAP2 ADD PUSH1 0x40 ADD SWAP3 SWAP2 POP POP JUMP INVALID LOG2 PUSH5 0x6970667358 0x22 SLT KECCAK256 DUP7 0xCE 0x49 DUP6 0xD0 SWAP7 0xB8 0xA6 DIFFICULTY 0xDD 0xAD 0xD1 SLOAD SWAP6 0xE DUP8 0xFC 0xCB EXP PUSH16 0xB919B4F3652303D7CB8E1C5C64736F6C PUSH4 0x43000811 STOP CALLER "
		},
		"gasEstimates": {
			"creation": {
				"codeDepositCost": "4285200",
				"executionCost": "infinite",
				"totalCost": "infinite"
			},
			"external": {
				"KYCEnabled()": "2433",
				"KYCToken()": "2401",
				"MAX_LENGTH_LOTTERY()": "262",
				"MAX_TREASURY_FEE()": "306",
				"MIN_DISCOUNT_DIVISOR()": "264",
				"MIN_LENGTH_LOTTERY()": "287",
				"OnoutAddress()": "2381",
				"OnoutFeeEnabled()": "2411",
				"buyTickets(uint256,uint32[])": "infinite",
				"cakeToken()": "2392",
				"calculateTotalPriceForBulkTickets(uint256,uint256,uint256)": "infinite",
				"checkWalletKYC(address)": "infinite",
				"claimTickets(uint256,uint256[],uint32[])": "infinite",
				"closeLottery(uint256)": "107401",
				"currentLotteryId()": "2384",
				"currentTicketId()": "2407",
				"drawFinalNumberAndMakeLotteryClaimable(uint256,bytes32,bool)": "infinite",
				"existKyc()": "290",
				"injectFunds(uint256,uint256)": "infinite",
				"injectorAddress()": "2381",
				"maxNumberTicketsPerBuyOrClaim()": "2386",
				"maxPriceTicketInCake()": "2364",
				"minPriceTicketInCake()": "2408",
				"numbersCount()": "2380",
				"operatorAddress()": "2382",
				"owner()": "2397",
				"pendingInjectionNextLottery()": "2386",
				"recoverWrongTokens(address,uint256)": "infinite",
				"renounceOwnership()": "30234",
				"setKYCEnabled(bool)": "26774",
				"setKYCToken(address)": "26772",
				"setMaxNumberTicketsPerBuy(uint256)": "24542",
				"setMinAndMaxTicketPriceInCake(uint256,uint256)": "46724",
				"setNumbersCount(uint32)": "33286",
				"setOnoutAddress(address)": "26774",
				"setOnoutFeeEnabled(bool)": "26775",
				"setOperatorAddresses(address)": "26793",
				"setOperatorAndTreasuryAndInjectorAddresses(address,address,address)": "infinite",
				"startLottery(uint256,uint256,uint256,uint256[6],uint256)": "infinite",
				"transferOwnership(address)": "30391",
				"treasuryAddress()": "2381",
				"viewCurrentLotteryId()": "2383",
				"viewLottery(uint256)": "infinite",
				"viewNumbersAndStatusesForTicketIds(uint256[])": "infinite",
				"viewRewardsForTicketId(uint256,uint256,uint32)": "infinite",
				"viewUserInfoForLotteryId(address,uint256,uint256,uint256)": "infinite",
				"withdrawBank(uint256)": "infinite",
				"withdrawCooldown()": "2363"
			},
			"internal": {
				"_calculateRewardsForTicketId(uint256,uint256,uint32)": "infinite",
				"_calculateTotalPriceForBulkTickets(uint256,uint256,uint256)": "infinite",
				"_isContract(address)": "infinite"
			}
		},
		"methodIdentifiers": {
			"KYCEnabled()": "cec33199",
			"KYCToken()": "f6783518",
			"MAX_LENGTH_LOTTERY()": "db19da0d",
			"MAX_TREASURY_FEE()": "f2b3c809",
			"MIN_DISCOUNT_DIVISOR()": "7cb583bd",
			"MIN_LENGTH_LOTTERY()": "07fb5a9c",
			"OnoutAddress()": "48c2c21f",
			"OnoutFeeEnabled()": "628a167c",
			"buyTickets(uint256,uint32[])": "88303dbd",
			"cakeToken()": "8904bf2f",
			"calculateTotalPriceForBulkTickets(uint256,uint256,uint256)": "c4937ab9",
			"checkWalletKYC(address)": "2cfaf797",
			"claimTickets(uint256,uint256[],uint32[])": "c914914f",
			"closeLottery(uint256)": "9d8ca531",
			"currentLotteryId()": "6be4097c",
			"currentTicketId()": "686465b8",
			"drawFinalNumberAndMakeLotteryClaimable(uint256,bytes32,bool)": "2385860b",
			"existKyc()": "dbdec7ec",
			"injectFunds(uint256,uint256)": "471aeab4",
			"injectorAddress()": "9c384653",
			"maxNumberTicketsPerBuyOrClaim()": "1fe86c6b",
			"maxPriceTicketInCake()": "1f73664b",
			"minPriceTicketInCake()": "31feb565",
			"numbersCount()": "d86b2982",
			"operatorAddress()": "127effb2",
			"owner()": "8da5cb5b",
			"pendingInjectionNextLottery()": "12a9769d",
			"recoverWrongTokens(address,uint256)": "3f138d4b",
			"renounceOwnership()": "715018a6",
			"setKYCEnabled(bool)": "2c4e93b0",
			"setKYCToken(address)": "a3c1c4a9",
			"setMaxNumberTicketsPerBuy(uint256)": "6b873788",
			"setMinAndMaxTicketPriceInCake(uint256,uint256)": "da7429f8",
			"setNumbersCount(uint32)": "20211a30",
			"setOnoutAddress(address)": "09b86c9d",
			"setOnoutFeeEnabled(bool)": "1f710996",
			"setOperatorAddresses(address)": "fe014066",
			"setOperatorAndTreasuryAndInjectorAddresses(address,address,address)": "da4ca039",
			"startLottery(uint256,uint256,uint256,uint256[6],uint256)": "b1829b82",
			"transferOwnership(address)": "f2fde38b",
			"treasuryAddress()": "c5f956af",
			"viewCurrentLotteryId()": "80a06160",
			"viewLottery(uint256)": "2423807a",
			"viewNumbersAndStatusesForTicketIds(uint256[])": "8fc3539a",
			"viewRewardsForTicketId(uint256,uint256,uint32)": "2e530cae",
			"viewUserInfoForLotteryId(address,uint256,uint256,uint256)": "05531eeb",
			"withdrawBank(uint256)": "be2ff4a9",
			"withdrawCooldown()": "3cbfe3a1"
		}
	},
	"abi": [
		{
			"inputs": [
				{
					"internalType": "address",
					"name": "_cakeTokenAddress",
					"type": "address"
				},
				{
					"internalType": "bool",
					"name": "_OnoutFeeEnabled",
					"type": "bool"
				},
				{
					"internalType": "address",
					"name": "_KycToken",
					"type": "address"
				},
				{
					"internalType": "bool",
					"name": "_KycEnabled",
					"type": "bool"
				}
			],
			"stateMutability": "nonpayable",
			"type": "constructor"
		},
		{
			"anonymous": false,
			"inputs": [
				{
					"indexed": false,
					"internalType": "address",
					"name": "token",
					"type": "address"
				},
				{
					"indexed": false,
					"internalType": "uint256",
					"name": "amount",
					"type": "uint256"
				}
			],
			"name": "AdminTokenRecovery",
			"type": "event"
		},
		{
			"anonymous": false,
			"inputs": [
				{
					"indexed": true,
					"internalType": "uint256",
					"name": "lotteryId",
					"type": "uint256"
				},
				{
					"indexed": false,
					"internalType": "uint256",
					"name": "firstTicketIdNextLottery",
					"type": "uint256"
				}
			],
			"name": "LotteryClose",
			"type": "event"
		},
		{
			"anonymous": false,
			"inputs": [
				{
					"indexed": true,
					"internalType": "uint256",
					"name": "lotteryId",
					"type": "uint256"
				},
				{
					"indexed": false,
					"internalType": "uint256",
					"name": "injectedAmount",
					"type": "uint256"
				}
			],
			"name": "LotteryInjection",
			"type": "event"
		},
		{
			"anonymous": false,
			"inputs": [
				{
					"indexed": true,
					"internalType": "uint256",
					"name": "lotteryId",
					"type": "uint256"
				},
				{
					"indexed": false,
					"internalType": "uint256",
					"name": "finalNumber",
					"type": "uint256"
				},
				{
					"indexed": false,
					"internalType": "uint256",
					"name": "countWinningTickets",
					"type": "uint256"
				}
			],
			"name": "LotteryNumberDrawn",
			"type": "event"
		},
		{
			"anonymous": false,
			"inputs": [
				{
					"indexed": true,
					"internalType": "uint256",
					"name": "lotteryId",
					"type": "uint256"
				},
				{
					"indexed": false,
					"internalType": "uint256",
					"name": "startTime",
					"type": "uint256"
				},
				{
					"indexed": false,
					"internalType": "uint256",
					"name": "endTime",
					"type": "uint256"
				},
				{
					"indexed": false,
					"internalType": "uint256",
					"name": "priceTicketInCake",
					"type": "uint256"
				},
				{
					"indexed": false,
					"internalType": "uint256",
					"name": "firstTicketId",
					"type": "uint256"
				},
				{
					"indexed": false,
					"internalType": "uint256",
					"name": "injectedAmount",
					"type": "uint256"
				}
			],
			"name": "LotteryOpen",
			"type": "event"
		},
		{
			"anonymous": false,
			"inputs": [
				{
					"indexed": false,
					"internalType": "address",
					"name": "operator",
					"type": "address"
				},
				{
					"indexed": false,
					"internalType": "address",
					"name": "treasury",
					"type": "address"
				},
				{
					"indexed": false,
					"internalType": "address",
					"name": "injector",
					"type": "address"
				}
			],
			"name": "NewOperatorAndTreasuryAndInjectorAddresses",
			"type": "event"
		},
		{
			"anonymous": false,
			"inputs": [
				{
					"indexed": true,
					"internalType": "address",
					"name": "previousOwner",
					"type": "address"
				},
				{
					"indexed": true,
					"internalType": "address",
					"name": "newOwner",
					"type": "address"
				}
			],
			"name": "OwnershipTransferred",
			"type": "event"
		},
		{
			"anonymous": false,
			"inputs": [
				{
					"indexed": true,
					"internalType": "address",
					"name": "claimer",
					"type": "address"
				},
				{
					"indexed": false,
					"internalType": "uint256",
					"name": "amount",
					"type": "uint256"
				},
				{
					"indexed": true,
					"internalType": "uint256",
					"name": "lotteryId",
					"type": "uint256"
				},
				{
					"indexed": false,
					"internalType": "uint256",
					"name": "numberTickets",
					"type": "uint256"
				}
			],
			"name": "TicketsClaim",
			"type": "event"
		},
		{
			"anonymous": false,
			"inputs": [
				{
					"indexed": true,
					"internalType": "address",
					"name": "buyer",
					"type": "address"
				},
				{
					"indexed": true,
					"internalType": "uint256",
					"name": "lotteryId",
					"type": "uint256"
				},
				{
					"indexed": false,
					"internalType": "uint256",
					"name": "numberTickets",
					"type": "uint256"
				}
			],
			"name": "TicketsPurchase",
			"type": "event"
		},
		{
			"inputs": [],
			"name": "KYCEnabled",
			"outputs": [
				{
					"internalType": "bool",
					"name": "",
					"type": "bool"
				}
			],
			"stateMutability": "view",
			"type": "function"
		},
		{
			"inputs": [],
			"name": "KYCToken",
			"outputs": [
				{
					"internalType": "contract IKYCToken",
					"name": "",
					"type": "address"
				}
			],
			"stateMutability": "view",
			"type": "function"
		},
		{
			"inputs": [],
			"name": "MAX_LENGTH_LOTTERY",
			"outputs": [
				{
					"internalType": "uint256",
					"name": "",
					"type": "uint256"
				}
			],
			"stateMutability": "view",
			"type": "function"
		},
		{
			"inputs": [],
			"name": "MAX_TREASURY_FEE",
			"outputs": [
				{
					"internalType": "uint256",
					"name": "",
					"type": "uint256"
				}
			],
			"stateMutability": "view",
			"type": "function"
		},
		{
			"inputs": [],
			"name": "MIN_DISCOUNT_DIVISOR",
			"outputs": [
				{
					"internalType": "uint256",
					"name": "",
					"type": "uint256"
				}
			],
			"stateMutability": "view",
			"type": "function"
		},
		{
			"inputs": [],
			"name": "MIN_LENGTH_LOTTERY",
			"outputs": [
				{
					"internalType": "uint256",
					"name": "",
					"type": "uint256"
				}
			],
			"stateMutability": "view",
			"type": "function"
		},
		{
			"inputs": [],
			"name": "OnoutAddress",
			"outputs": [
				{
					"internalType": "address",
					"name": "",
					"type": "address"
				}
			],
			"stateMutability": "view",
			"type": "function"
		},
		{
			"inputs": [],
			"name": "OnoutFeeEnabled",
			"outputs": [
				{
					"internalType": "bool",
					"name": "",
					"type": "bool"
				}
			],
			"stateMutability": "view",
			"type": "function"
		},
		{
			"inputs": [
				{
					"internalType": "uint256",
					"name": "_lotteryId",
					"type": "uint256"
				},
				{
					"internalType": "uint32[]",
					"name": "_ticketNumbers",
					"type": "uint32[]"
				}
			],
			"name": "buyTickets",
			"outputs": [],
			"stateMutability": "nonpayable",
			"type": "function"
		},
		{
			"inputs": [],
			"name": "cakeToken",
			"outputs": [
				{
					"internalType": "contract IERC20",
					"name": "",
					"type": "address"
				}
			],
			"stateMutability": "view",
			"type": "function"
		},
		{
			"inputs": [
				{
					"internalType": "uint256",
					"name": "_discountDivisor",
					"type": "uint256"
				},
				{
					"internalType": "uint256",
					"name": "_priceTicket",
					"type": "uint256"
				},
				{
					"internalType": "uint256",
					"name": "_numberTickets",
					"type": "uint256"
				}
			],
			"name": "calculateTotalPriceForBulkTickets",
			"outputs": [
				{
					"internalType": "uint256",
					"name": "",
					"type": "uint256"
				}
			],
			"stateMutability": "pure",
			"type": "function"
		},
		{
			"inputs": [
				{
					"internalType": "address",
					"name": "_wallet",
					"type": "address"
				}
			],
			"name": "checkWalletKYC",
			"outputs": [
				{
					"internalType": "bool",
					"name": "",
					"type": "bool"
				}
			],
			"stateMutability": "view",
			"type": "function"
		},
		{
			"inputs": [
				{
					"internalType": "uint256",
					"name": "_lotteryId",
					"type": "uint256"
				},
				{
					"internalType": "uint256[]",
					"name": "_ticketIds",
					"type": "uint256[]"
				},
				{
					"internalType": "uint32[]",
					"name": "_brackets",
					"type": "uint32[]"
				}
			],
			"name": "claimTickets",
			"outputs": [],
			"stateMutability": "nonpayable",
			"type": "function"
		},
		{
			"inputs": [
				{
					"internalType": "uint256",
					"name": "_lotteryId",
					"type": "uint256"
				}
			],
			"name": "closeLottery",
			"outputs": [],
			"stateMutability": "nonpayable",
			"type": "function"
		},
		{
			"inputs": [],
			"name": "currentLotteryId",
			"outputs": [
				{
					"internalType": "uint256",
					"name": "",
					"type": "uint256"
				}
			],
			"stateMutability": "view",
			"type": "function"
		},
		{
			"inputs": [],
			"name": "currentTicketId",
			"outputs": [
				{
					"internalType": "uint256",
					"name": "",
					"type": "uint256"
				}
			],
			"stateMutability": "view",
			"type": "function"
		},
		{
			"inputs": [
				{
					"internalType": "uint256",
					"name": "_lotteryId",
					"type": "uint256"
				},
				{
					"internalType": "bytes32",
					"name": "_seed",
					"type": "bytes32"
				},
				{
					"internalType": "bool",
					"name": "_autoInjection",
					"type": "bool"
				}
			],
			"name": "drawFinalNumberAndMakeLotteryClaimable",
			"outputs": [],
			"stateMutability": "nonpayable",
			"type": "function"
		},
		{
			"inputs": [],
			"name": "existKyc",
			"outputs": [
				{
					"internalType": "bool",
					"name": "",
					"type": "bool"
				}
			],
			"stateMutability": "view",
			"type": "function"
		},
		{
			"inputs": [
				{
					"internalType": "uint256",
					"name": "_lotteryId",
					"type": "uint256"
				},
				{
					"internalType": "uint256",
					"name": "_amount",
					"type": "uint256"
				}
			],
			"name": "injectFunds",
			"outputs": [],
			"stateMutability": "nonpayable",
			"type": "function"
		},
		{
			"inputs": [],
			"name": "injectorAddress",
			"outputs": [
				{
					"internalType": "address",
					"name": "",
					"type": "address"
				}
			],
			"stateMutability": "view",
			"type": "function"
		},
		{
			"inputs": [],
			"name": "maxNumberTicketsPerBuyOrClaim",
			"outputs": [
				{
					"internalType": "uint256",
					"name": "",
					"type": "uint256"
				}
			],
			"stateMutability": "view",
			"type": "function"
		},
		{
			"inputs": [],
			"name": "maxPriceTicketInCake",
			"outputs": [
				{
					"internalType": "uint256",
					"name": "",
					"type": "uint256"
				}
			],
			"stateMutability": "view",
			"type": "function"
		},
		{
			"inputs": [],
			"name": "minPriceTicketInCake",
			"outputs": [
				{
					"internalType": "uint256",
					"name": "",
					"type": "uint256"
				}
			],
			"stateMutability": "view",
			"type": "function"
		},
		{
			"inputs": [],
			"name": "numbersCount",
			"outputs": [
				{
					"internalType": "uint32",
					"name": "",
					"type": "uint32"
				}
			],
			"stateMutability": "view",
			"type": "function"
		},
		{
			"inputs": [],
			"name": "operatorAddress",
			"outputs": [
				{
					"internalType": "address",
					"name": "",
					"type": "address"
				}
			],
			"stateMutability": "view",
			"type": "function"
		},
		{
			"inputs": [],
			"name": "owner",
			"outputs": [
				{
					"internalType": "address",
					"name": "",
					"type": "address"
				}
			],
			"stateMutability": "view",
			"type": "function"
		},
		{
			"inputs": [],
			"name": "pendingInjectionNextLottery",
			"outputs": [
				{
					"internalType": "uint256",
					"name": "",
					"type": "uint256"
				}
			],
			"stateMutability": "view",
			"type": "function"
		},
		{
			"inputs": [
				{
					"internalType": "address",
					"name": "_tokenAddress",
					"type": "address"
				},
				{
					"internalType": "uint256",
					"name": "_tokenAmount",
					"type": "uint256"
				}
			],
			"name": "recoverWrongTokens",
			"outputs": [],
			"stateMutability": "nonpayable",
			"type": "function"
		},
		{
			"inputs": [],
			"name": "renounceOwnership",
			"outputs": [],
			"stateMutability": "nonpayable",
			"type": "function"
		},
		{
			"inputs": [
				{
					"internalType": "bool",
					"name": "_KYCEnabled",
					"type": "bool"
				}
			],
			"name": "setKYCEnabled",
			"outputs": [],
			"stateMutability": "nonpayable",
			"type": "function"
		},
		{
			"inputs": [
				{
					"internalType": "address",
					"name": "_KYCTokenAddress",
					"type": "address"
				}
			],
			"name": "setKYCToken",
			"outputs": [],
			"stateMutability": "nonpayable",
			"type": "function"
		},
		{
			"inputs": [
				{
					"internalType": "uint256",
					"name": "_maxNumberTicketsPerBuy",
					"type": "uint256"
				}
			],
			"name": "setMaxNumberTicketsPerBuy",
			"outputs": [],
			"stateMutability": "nonpayable",
			"type": "function"
		},
		{
			"inputs": [
				{
					"internalType": "uint256",
					"name": "_minPriceTicketInCake",
					"type": "uint256"
				},
				{
					"internalType": "uint256",
					"name": "_maxPriceTicketInCake",
					"type": "uint256"
				}
			],
			"name": "setMinAndMaxTicketPriceInCake",
			"outputs": [],
			"stateMutability": "nonpayable",
			"type": "function"
		},
		{
			"inputs": [
				{
					"internalType": "uint32",
					"name": "_numbersCount",
					"type": "uint32"
				}
			],
			"name": "setNumbersCount",
			"outputs": [],
			"stateMutability": "nonpayable",
			"type": "function"
		},
		{
			"inputs": [
				{
					"internalType": "address",
					"name": "_newFeeAddress",
					"type": "address"
				}
			],
			"name": "setOnoutAddress",
			"outputs": [],
			"stateMutability": "nonpayable",
			"type": "function"
		},
		{
			"inputs": [
				{
					"internalType": "bool",
					"name": "_value",
					"type": "bool"
				}
			],
			"name": "setOnoutFeeEnabled",
			"outputs": [],
			"stateMutability": "nonpayable",
			"type": "function"
		},
		{
			"inputs": [
				{
					"internalType": "address",
					"name": "_operatorAddress",
					"type": "address"
				}
			],
			"name": "setOperatorAddresses",
			"outputs": [],
			"stateMutability": "nonpayable",
			"type": "function"
		},
		{
			"inputs": [
				{
					"internalType": "address",
					"name": "_operatorAddress",
					"type": "address"
				},
				{
					"internalType": "address",
					"name": "_treasuryAddress",
					"type": "address"
				},
				{
					"internalType": "address",
					"name": "_injectorAddress",
					"type": "address"
				}
			],
			"name": "setOperatorAndTreasuryAndInjectorAddresses",
			"outputs": [],
			"stateMutability": "nonpayable",
			"type": "function"
		},
		{
			"inputs": [
				{
					"internalType": "uint256",
					"name": "_endTime",
					"type": "uint256"
				},
				{
					"internalType": "uint256",
					"name": "_priceTicketInCake",
					"type": "uint256"
				},
				{
					"internalType": "uint256",
					"name": "_discountDivisor",
					"type": "uint256"
				},
				{
					"internalType": "uint256[6]",
					"name": "_rewardsBreakdown",
					"type": "uint256[6]"
				},
				{
					"internalType": "uint256",
					"name": "_treasuryFee",
					"type": "uint256"
				}
			],
			"name": "startLottery",
			"outputs": [],
			"stateMutability": "nonpayable",
			"type": "function"
		},
		{
			"inputs": [
				{
					"internalType": "address",
					"name": "newOwner",
					"type": "address"
				}
			],
			"name": "transferOwnership",
			"outputs": [],
			"stateMutability": "nonpayable",
			"type": "function"
		},
		{
			"inputs": [],
			"name": "treasuryAddress",
			"outputs": [
				{
					"internalType": "address",
					"name": "",
					"type": "address"
				}
			],
			"stateMutability": "view",
			"type": "function"
		},
		{
			"inputs": [],
			"name": "viewCurrentLotteryId",
			"outputs": [
				{
					"internalType": "uint256",
					"name": "",
					"type": "uint256"
				}
			],
			"stateMutability": "view",
			"type": "function"
		},
		{
			"inputs": [
				{
					"internalType": "uint256",
					"name": "_lotteryId",
					"type": "uint256"
				}
			],
			"name": "viewLottery",
			"outputs": [
				{
					"components": [
						{
							"internalType": "enum PancakeSwapLotteryKYC.Status",
							"name": "status",
							"type": "uint8"
						},
						{
							"internalType": "uint256",
							"name": "startTime",
							"type": "uint256"
						},
						{
							"internalType": "uint256",
							"name": "endTime",
							"type": "uint256"
						},
						{
							"internalType": "uint256",
							"name": "priceTicketInCake",
							"type": "uint256"
						},
						{
							"internalType": "uint256",
							"name": "discountDivisor",
							"type": "uint256"
						},
						{
							"internalType": "uint256[6]",
							"name": "rewardsBreakdown",
							"type": "uint256[6]"
						},
						{
							"internalType": "uint256",
							"name": "treasuryFee",
							"type": "uint256"
						},
						{
							"internalType": "uint256[6]",
							"name": "cakePerBracket",
							"type": "uint256[6]"
						},
						{
							"internalType": "uint256[6]",
							"name": "countWinnersPerBracket",
							"type": "uint256[6]"
						},
						{
							"internalType": "uint256",
							"name": "firstTicketId",
							"type": "uint256"
						},
						{
							"internalType": "uint256",
							"name": "firstTicketIdNextLottery",
							"type": "uint256"
						},
						{
							"internalType": "uint256",
							"name": "amountCollectedInCake",
							"type": "uint256"
						},
						{
							"internalType": "uint32",
							"name": "finalNumber",
							"type": "uint32"
						}
					],
					"internalType": "struct PancakeSwapLotteryKYC.Lottery",
					"name": "",
					"type": "tuple"
				}
			],
			"stateMutability": "view",
			"type": "function"
		},
		{
			"inputs": [
				{
					"internalType": "uint256[]",
					"name": "_ticketIds",
					"type": "uint256[]"
				}
			],
			"name": "viewNumbersAndStatusesForTicketIds",
			"outputs": [
				{
					"internalType": "uint32[]",
					"name": "",
					"type": "uint32[]"
				},
				{
					"internalType": "bool[]",
					"name": "",
					"type": "bool[]"
				}
			],
			"stateMutability": "view",
			"type": "function"
		},
		{
			"inputs": [
				{
					"internalType": "uint256",
					"name": "_lotteryId",
					"type": "uint256"
				},
				{
					"internalType": "uint256",
					"name": "_ticketId",
					"type": "uint256"
				},
				{
					"internalType": "uint32",
					"name": "_bracket",
					"type": "uint32"
				}
			],
			"name": "viewRewardsForTicketId",
			"outputs": [
				{
					"internalType": "uint256",
					"name": "",
					"type": "uint256"
				}
			],
			"stateMutability": "view",
			"type": "function"
		},
		{
			"inputs": [
				{
					"internalType": "address",
					"name": "_user",
					"type": "address"
				},
				{
					"internalType": "uint256",
					"name": "_lotteryId",
					"type": "uint256"
				},
				{
					"internalType": "uint256",
					"name": "_cursor",
					"type": "uint256"
				},
				{
					"internalType": "uint256",
					"name": "_size",
					"type": "uint256"
				}
			],
			"name": "viewUserInfoForLotteryId",
			"outputs": [
				{
					"internalType": "uint256[]",
					"name": "",
					"type": "uint256[]"
				},
				{
					"internalType": "uint32[]",
					"name": "",
					"type": "uint32[]"
				},
				{
					"internalType": "bool[]",
					"name": "",
					"type": "bool[]"
				},
				{
					"internalType": "uint256",
					"name": "",
					"type": "uint256"
				}
			],
			"stateMutability": "view",
			"type": "function"
		},
		{
			"inputs": [
				{
					"internalType": "uint256",
					"name": "_tokenAmount",
					"type": "uint256"
				}
			],
			"name": "withdrawBank",
			"outputs": [],
			"stateMutability": "nonpayable",
			"type": "function"
		},
		{
			"inputs": [],
			"name": "withdrawCooldown",
			"outputs": [
				{
					"internalType": "uint256",
					"name": "",
					"type": "uint256"
				}
			],
			"stateMutability": "view",
			"type": "function"
		}
	]
}