{
	"data": {
		"bytecode": {
			"linkReferences": {},
			"object": "608060405260646007556969e10de76676d080000060085562989680600955600b80547401df50ef7e506536354e7a805442dcbf25c7ac249b6001600160a81b03199091161790556014600c8190556228de80600d55600e805463ffffffff19166006179055805460ff60a01b1916600160a01b1790553480156200008357600080fd5b506040516200597038038062005970833981016040819052620000a69162000552565b6001600081815581546001600160a01b031916339081179092556040518291907f8be0079c531659141344cd1fd0a4f28419497f9722a3daafe3b4186f6b6457e0908290a350600e8054600160201b600160c01b0319166401000000006001600160a01b038781169190910291909117909155601480548483166001600160a81b031990911617600160a01b841515810291909117909155600b805460ff60a01b19168615159092029190911781556001805460038054919094166001600160a01b03199182168117909455600480548216851790556002805490911690931790925560116020527f4ad3b33220dddc71b994a52d72c06b10862965f7d926534c05c00fb7e819e7b7805463ffffffff1990811690931790557f17bc176d2408558f6e4111feebc3cab4e16b63e967be91cde721f4c8a488b5528054831690911790557f08037d7b151cc412d25674a4e66b334d9ae9d2e5517a7feaae5cdb828bf1c62880548216606f1790557f9bfbaa59f8e10e7868f8b402de9d605a390c45ddaebd8c9de3c6f31e733c87ff805482166104571790557f251164fe1d8864fe5e86082eae9c288bc2b58695a4d28538dfe86e9e4f17558580548216612b67179055600560008181527fc550213cee30afd5e67ccba7be3d381bbc169034ae08eb3ec9168caca9fe55e780549093166201b20717909255805491620002ac83620005af565b9091555050604080516101a08101909152806003815260200142815260200142815260200160008152602001600081526020016040518060c0016040528060fa8152602001610177815260200161027181526020016104e281526020016109c4815260200161138881525081526020016107d081526020016040518060c001604052806000815260200160008152602001600081526020016000815260200160008152602001600081525081526020016040518060c0016040528060008152602001600081526020016000815260200160008152602001600081526020016000815250815260200160065481526020016006548152602001600a548152602001620f424063ffffffff16815250600f6000600554815260200190815260200160002060008201518160000160006101000a81548160ff02191690836003811115620003fb57620003fb620005d7565b02179055506020820151600182015560408201516002820155606082015160038201556080820151600482015560a08201516200043f9060058301906006620004ca565b5060c0820151600b82015560e08201516200046190600c8301906006620004ca565b506101008201516200047a9060128301906006620004ca565b5061012082015160188201556101408201516019820155610160820151601a82015561018090910151601b909101805463ffffffff191663ffffffff90921691909117905550620005ed92505050565b8260068101928215620004fb579160200282015b82811115620004fb578251825591602001919060010190620004de565b50620005099291506200050d565b5090565b5b808211156200050957600081556001016200050e565b80516001600160a01b03811681146200053c57600080fd5b919050565b805180151581146200053c57600080fd5b600080600080608085870312156200056957600080fd5b620005748562000524565b9350620005846020860162000541565b9250620005946040860162000524565b9150620005a46060860162000541565b905092959194509250565b600060018201620005d057634e487b7160e01b600052601160045260246000fd5b5060010190565b634e487b7160e01b600052602160045260246000fd5b61537380620005fd6000396000f3fe608060405234801561001057600080fd5b50600436106103205760003560e01c80637cb583bd116101a7578063c5f956af116100ee578063db19da0d11610097578063f2fde38b11610071578063f2fde38b146106e8578063f6783518146106fb578063fe0140661461071b57600080fd5b8063db19da0d146106cd578063dbdec7ec146106d7578063f2b3c809146106df57600080fd5b8063d86b2982116100c8578063d86b298214610682578063da4ca039146106a7578063da7429f8146106ba57600080fd5b8063c5f956af1461062a578063c914914f1461064a578063cec331991461065d57600080fd5b80639c38465311610150578063b1829b821161012a578063b1829b82146105f1578063be2ff4a914610604578063c4937ab91461061757600080fd5b80639c384653146105ab5780639d8ca531146105cb578063a3c1c4a9146105de57600080fd5b80638904bf2f116101815780638904bf2f146105445780638da5cb5b1461056c5780638fc3539a1461058a57600080fd5b80637cb583bd1461035157806380a061601461052957806388303dbd1461053157600080fd5b80632cfaf7971161026b57806348c2c21f116102145780636b873788116101ee5780636b873788146105055780636be4097c14610518578063715018a61461052157600080fd5b806348c2c21f146104b7578063628a167c146104d7578063686465b8146104fc57600080fd5b80633cbfe3a1116102455780633cbfe3a1146104885780633f138d4b14610491578063471aeab4146104a457600080fd5b80632cfaf797146104495780632e530cae1461046c57806331feb5651461047f57600080fd5b80631f73664b116102cd5780632385860b116102a75780632385860b146104035780632423807a146104165780632c4e93b01461043657600080fd5b80631f73664b146103de5780631fe86c6b146103e757806320211a30146103f057600080fd5b8063127effb2116102fe578063127effb21461037d57806312a9769d146103c25780631f710996146103cb57600080fd5b806305531eeb1461032557806307fb5a9c1461035157806309b86c9d14610368575b600080fd5b610338610333366004614973565b61072e565b6040516103489493929190614a1f565b60405180910390f35b61035a61012c81565b604051908152602001610348565b61037b610376366004614a93565b610a5a565b005b60035461039d9073ffffffffffffffffffffffffffffffffffffffff1681565b60405173ffffffffffffffffffffffffffffffffffffffff9091168152602001610348565b61035a600a5481565b61037b6103d9366004614abc565b610b4d565b61035a60085481565b61035a60075481565b61037b6103fe366004614aed565b610c3e565b61037b610411366004614b08565b610e72565b610429610424366004614b41565b611567565b6040516103489190614be7565b61037b610444366004614abc565b6116c8565b61045c610457366004614a93565b611793565b6040519015158152602001610348565b61035a61047a366004614cab565b611870565b61035a60095481565b61035a600d5481565b61037b61049f366004614ce0565b6118f5565b61037b6104b2366004614d0a565b611a9c565b600b5461039d9073ffffffffffffffffffffffffffffffffffffffff1681565b600b5461045c9074010000000000000000000000000000000000000000900460ff1681565b61035a60065481565b61037b610513366004614b41565b611c57565b61035a60055481565b61037b611d47565b60055461035a565b61037b61053f366004614d71565b611e37565b600e5461039d90640100000000900473ffffffffffffffffffffffffffffffffffffffff1681565b60015473ffffffffffffffffffffffffffffffffffffffff1661039d565b61059d610598366004614dbd565b6125ae565b604051610348929190614dff565b60025461039d9073ffffffffffffffffffffffffffffffffffffffff1681565b61037b6105d9366004614b41565b612774565b61037b6105ec366004614a93565b612a1b565b61037b6105ff366004614e2d565b612ae3565b61037b610612366004614b41565b6130b5565b61035a610625366004614e7c565b613330565b60045461039d9073ffffffffffffffffffffffffffffffffffffffff1681565b61037b610658366004614ea8565b613413565b60145461045c9074010000000000000000000000000000000000000000900460ff1681565b600e546106929063ffffffff1681565b60405163ffffffff9091168152602001610348565b61037b6106b5366004614f22565b613bab565b61037b6106c8366004614d0a565b613e4c565b61035a6228dfac81565b61045c600181565b61035a610bb881565b61037b6106f6366004614a93565b613f42565b60145461039d9073ffffffffffffffffffffffffffffffffffffffff1681565b61037b610729366004614a93565b6140f4565b73ffffffffffffffffffffffffffffffffffffffff84166000908152601360209081526040808320868452909152812054606091829182919085906107738882614f8b565b821115610787576107848882614f8b565b91505b60008267ffffffffffffffff8111156107a2576107a2614fa4565b6040519080825280602002602001820160405280156107cb578160200160208202803683370190505b50905060008367ffffffffffffffff8111156107e9576107e9614fa4565b604051908082528060200260200182016040528015610812578160200160208202803683370190505b50905060008467ffffffffffffffff81111561083057610830614fa4565b604051908082528060200260200182016040528015610859578160200160208202803683370190505b50905060005b85811015610a3457601360008f73ffffffffffffffffffffffffffffffffffffffff1673ffffffffffffffffffffffffffffffffffffffff16815260200190815260200160002060008e81526020019081526020016000208c826108c39190614fd3565b815481106108d3576108d3614fe6565b90600052602060002001548482815181106108f0576108f0614fe6565b6020026020010181815250506010600085838151811061091257610912614fe6565b6020026020010151815260200190815260200160002060000160009054906101000a900463ffffffff1683828151811061094e5761094e614fe6565b602002602001019063ffffffff16908163ffffffff1681525050600073ffffffffffffffffffffffffffffffffffffffff166010600086848151811061099657610996614fe6565b602090810291909101810151825281019190915260400160002054640100000000900473ffffffffffffffffffffffffffffffffffffffff16036109fd5760018282815181106109e8576109e8614fe6565b91151560209283029190910190910152610a22565b6000828281518110610a1157610a11614fe6565b911515602092830291909101909101525b80610a2c81615015565b91505061085f565b50828282610a42888f614fd3565b98509850985098505050505050945094509450949050565b600b5473ffffffffffffffffffffffffffffffffffffffff163314610b06576040517f08c379a000000000000000000000000000000000000000000000000000000000815260206004820152602160248201527f4f6e6c79204f6e6f75742063616e206368616e6765206665652061646472657360448201527f730000000000000000000000000000000000000000000000000000000000000060648201526084015b60405180910390fd5b600b80547fffffffffffffffffffffffff00000000000000000000000000000000000000001673ffffffffffffffffffffffffffffffffffffffff92909216919091179055565b600b5473ffffffffffffffffffffffffffffffffffffffff163314610bf4576040517f08c379a000000000000000000000000000000000000000000000000000000000815260206004820152602960248201527f4f6e6c79204f6e6f75742063616e20656e61626c652f64697361626c6520736560448201527f72766963652066656500000000000000000000000000000000000000000000006064820152608401610afd565b600b805491151574010000000000000000000000000000000000000000027fffffffffffffffffffffff00ffffffffffffffffffffffffffffffffffffffff909216919091179055565b60015473ffffffffffffffffffffffffffffffffffffffff163314610cbf576040517f08c379a000000000000000000000000000000000000000000000000000000000815260206004820181905260248201527f4f776e61626c653a2063616c6c6572206973206e6f7420746865206f776e65726044820152606401610afd565b60068163ffffffff161115610d30576040517f08c379a000000000000000000000000000000000000000000000000000000000815260206004820152601960248201527f6e756d62657273436f756e74206d757374206265203c3d2036000000000000006044820152606401610afd565b60028163ffffffff161015610da1576040517f08c379a000000000000000000000000000000000000000000000000000000000815260206004820152601960248201527f6e756d62657273436f756e74206d757374206265203e3d2032000000000000006044820152606401610afd565b6005541580610dd5575060036005546000908152600f602052604090205460ff166003811115610dd357610dd3614b5a565b145b610e3b576040517f08c379a000000000000000000000000000000000000000000000000000000000815260206004820152601860248201527f486173206e6f742066696e6973686564206c6f747465727900000000000000006044820152606401610afd565b600e80547fffffffffffffffffffffffffffffffffffffffffffffffffffffffff000000001663ffffffff92909216919091179055565b60015473ffffffffffffffffffffffffffffffffffffffff16331480610eaf575060035473ffffffffffffffffffffffffffffffffffffffff1633145b610f15576040517f08c379a000000000000000000000000000000000000000000000000000000000815260206004820152601560248201527f4e6f74206f776e6572206f72206f70657261746f7200000000000000000000006044820152606401610afd565b600260005403610f81576040517f08c379a000000000000000000000000000000000000000000000000000000000815260206004820152601f60248201527f5265656e7472616e637947756172643a207265656e7472616e742063616c6c006044820152606401610afd565b60026000818155848152600f602052604090205460ff166003811115610fa957610fa9614b5a565b14611010576040517f08c379a000000000000000000000000000000000000000000000000000000000815260206004820152601160248201527f4c6f7474657279206e6f7420636c6f73650000000000000000000000000000006044820152606401610afd565b6000838152600f60205260408120600b01548190612710906110329082614f8b565b6000878152600f60205260409020601a015461104e919061504d565b6110589190615093565b6000868152600f6020908152604080832060188101546019820154601a90920154835142818701528085018c905260608082018e9052608082019390935260a081019390935260c083015260e08201869052434061010083015241901b7fffffffffffffffffffffffffffffffffffffffff0000000000000000000000001661012082015244610134820152456101548201523a6101748083019190915282518083039091018152610194909101909152805191012091925061111e620f4240836150a7565b61112b90620f4240614fd3565b90506000805b600e5463ffffffff90811690821610156113c157600e54600090829061115f9060019063ffffffff166150bb565b61116991906150bb565b905060006111788260016150d8565b61118390600a615206565b61118d908661521b565b63ffffffff8084166000908152601160205260409020546111af9291166150d8565b60008c815260126020908152604080832063ffffffff851684529091529020549091506111dd908990614f8b565b60008c8152600f6020526040902060120163ffffffff84166006811061120557611205614fe6565b015560008b815260126020908152604080832063ffffffff85168452909152902054611232908990614f8b565b156113315760008b8152600f6020526040902060050163ffffffff83166006811061125f5761125f614fe6565b01541561132c5760008b815260126020908152604080832063ffffffff8516845290915290205461271090611295908a90614f8b565b60008d8152600f60205260409020899060050163ffffffff8616600681106112bf576112bf614fe6565b01546112cb919061504d565b6112d59190615093565b6112df9190615093565b60008c8152600f60205260409020600c0163ffffffff84166006811061130757611307614fe6565b015560008b815260126020908152604080832063ffffffff8516845290915290205497505b6113ac565b60008b8152600f60205260408120600c0163ffffffff84166006811061135957611359614fe6565b015560008b8152600f6020526040902061271090889060050163ffffffff85166006811061138957611389614fe6565b0154611395919061504d565b61139f9190615093565b6113a99085614fd3565b93505b505080806113b99061523e565b915050611131565b506000888152600f60205260409020601b8101805463ffffffff85167fffffffffffffffffffffffffffffffffffffffffffffffffffffffff0000000090911617905580547fffffffffffffffffffffffffffffffffffffffffffffffffffffffffffffff00166003179055851561143957600a5560005b6000888152600f60205260409020601a0154611456908590614f8b565b6114609082614fd3565b600b5490915074010000000000000000000000000000000000000000900460ff16156114e457600c54600090611497606484615093565b6114a1919061504d565b90506114ad8183614f8b565b600b54600e549193506114e291640100000000900473ffffffffffffffffffffffffffffffffffffffff908116911683614239565b505b600454600e546115169173ffffffffffffffffffffffffffffffffffffffff6401000000009092048216911683614239565b6005546040805163ffffffff85168152602081018890527f98e31a6607b8b15b4d5b91de54f4c09ffe4c4cf162aa532c70b5213754e2e703910160405180910390a250506001600055505050505050565b61156f614858565b6000828152600f60205260409081902081516101a081019092528054829060ff1660038111156115a1576115a1614b5a565b60038111156115b2576115b2614b5a565b81526001820154602082015260028201546040808301919091526003830154606083015260048301546080830152805160c081019182905260a09092019190600584019060069082845b8154815260200190600101908083116115fc575050509183525050600b82015460208201526040805160c081018252910190600c830160068282826020028201915b81548152602001906001019080831161163e5750505091835250506040805160c081019182905260209092019190601284019060069082845b8154815260200190600101908083116116775750505091835250506018820154602082015260198201546040820152601a8201546060820152601b9091015463ffffffff1660809091015292915050565b60015473ffffffffffffffffffffffffffffffffffffffff163314611749576040517f08c379a000000000000000000000000000000000000000000000000000000000815260206004820181905260248201527f4f776e61626c653a2063616c6c6572206973206e6f7420746865206f776e65726044820152606401610afd565b6014805491151574010000000000000000000000000000000000000000027fffffffffffffffffffffff00ffffffffffffffffffffffffffffffffffffffff909216919091179055565b60145460009074010000000000000000000000000000000000000000900460ff166117c057506001919050565b6014546040517f70a0823100000000000000000000000000000000000000000000000000000000815273ffffffffffffffffffffffffffffffffffffffff848116600483015260009216906370a0823190602401602060405180830381865afa158015611831573d6000803e3d6000fd5b505050506040513d601f19601f820116820180604052508101906118559190615261565b905060008111611866576000611869565b60015b9392505050565b600060036000858152600f602052604090205460ff16600381111561189757611897614b5a565b146118a457506000611869565b6000848152600f6020526040902060190154831180156118d557506000848152600f60205260409020601801548311155b156118e257506000611869565b6118ed848484614312565b949350505050565b60015473ffffffffffffffffffffffffffffffffffffffff163314611976576040517f08c379a000000000000000000000000000000000000000000000000000000000815260206004820181905260248201527f4f776e61626c653a2063616c6c6572206973206e6f7420746865206f776e65726044820152606401610afd565b600e5473ffffffffffffffffffffffffffffffffffffffff8381166401000000009092041614611a28576040517f08c379a000000000000000000000000000000000000000000000000000000000815260206004820152602260248201527f596f7520646f6e742063616e207265636f766572206c6f747465727920746f6b60448201527f656e0000000000000000000000000000000000000000000000000000000000006064820152608401610afd565b611a4973ffffffffffffffffffffffffffffffffffffffff83163383614239565b6040805173ffffffffffffffffffffffffffffffffffffffff84168152602081018390527f74545154aac348a3eac92596bd1971957ca94795f4e954ec5f613b55fab78129910160405180910390a15050565b60015473ffffffffffffffffffffffffffffffffffffffff16331480611ad9575060025473ffffffffffffffffffffffffffffffffffffffff1633145b611b3f576040517f08c379a000000000000000000000000000000000000000000000000000000000815260206004820152601560248201527f4e6f74206f776e6572206f7220696e6a6563746f7200000000000000000000006044820152606401610afd565b60016000838152600f602052604090205460ff166003811115611b6457611b64614b5a565b14611bcb576040517f08c379a000000000000000000000000000000000000000000000000000000000815260206004820152601060248201527f4c6f7474657279206e6f74206f70656e000000000000000000000000000000006044820152606401610afd565b600e54611bf890640100000000900473ffffffffffffffffffffffffffffffffffffffff1633308461441c565b6000828152600f60205260408120601a018054839290611c19908490614fd3565b909155505060405181815282907f1bbd659dd628a25f7ff2eabb69c74a56939c539728282275c1c9c1a2d3e340499060200160405180910390a25050565b60015473ffffffffffffffffffffffffffffffffffffffff163314611cd8576040517f08c379a000000000000000000000000000000000000000000000000000000000815260206004820181905260248201527f4f776e61626c653a2063616c6c6572206973206e6f7420746865206f776e65726044820152606401610afd565b80600003611d42576040517f08c379a000000000000000000000000000000000000000000000000000000000815260206004820152600b60248201527f4d757374206265203e20300000000000000000000000000000000000000000006044820152606401610afd565b600755565b60015473ffffffffffffffffffffffffffffffffffffffff163314611dc8576040517f08c379a000000000000000000000000000000000000000000000000000000000815260206004820181905260248201527f4f776e61626c653a2063616c6c6572206973206e6f7420746865206f776e65726044820152606401610afd565b60015460405160009173ffffffffffffffffffffffffffffffffffffffff16907f8be0079c531659141344cd1fd0a4f28419497f9722a3daafe3b4186f6b6457e0908390a3600180547fffffffffffffffffffffffff0000000000000000000000000000000000000000169055565b333b15611ea0576040517f08c379a000000000000000000000000000000000000000000000000000000000815260206004820152601460248201527f436f6e7472616374206e6f7420616c6c6f7765640000000000000000000000006044820152606401610afd565b333214611f09576040517f08c379a000000000000000000000000000000000000000000000000000000000815260206004820152601a60248201527f50726f787920636f6e7472616374206e6f7420616c6c6f7765640000000000006044820152606401610afd565b600260005403611f75576040517f08c379a000000000000000000000000000000000000000000000000000000000815260206004820152601f60248201527f5265656e7472616e637947756172643a207265656e7472616e742063616c6c006044820152606401610afd565b6002600055611f82614480565b6000819003611fed576040517f08c379a000000000000000000000000000000000000000000000000000000000815260206004820152601360248201527f4e6f207469636b657420737065636966696564000000000000000000000000006044820152606401610afd565b600754811115612059576040517f08c379a000000000000000000000000000000000000000000000000000000000815260206004820152601060248201527f546f6f206d616e79207469636b657473000000000000000000000000000000006044820152606401610afd565b60016000848152600f602052604090205460ff16600381111561207e5761207e614b5a565b146120e5576040517f08c379a000000000000000000000000000000000000000000000000000000000815260206004820152601360248201527f4c6f7474657279206973206e6f74206f70656e000000000000000000000000006044820152606401610afd565b6000838152600f6020526040902060020154421061215f576040517f08c379a000000000000000000000000000000000000000000000000000000000815260206004820152600f60248201527f4c6f7474657279206973206f76657200000000000000000000000000000000006044820152606401610afd565b6000838152600f6020526040812060048101546003909101546121839190846145c9565b600e549091506121b390640100000000900473ffffffffffffffffffffffffffffffffffffffff1633308461441c565b6000848152600f60205260408120601a0180548392906121d4908490614fd3565b90915550600090505b8281101561256b5760008484838181106121f9576121f9614fe6565b905060200201602081019061220e9190614aed565b905061221c6006600a61527a565b61222690826150bb565b61223390620f42406150d8565b9050620f42408163ffffffff16101580156122575750621e847f8163ffffffff1611155b6122bd576040517f08c379a000000000000000000000000000000000000000000000000000000000815260206004820152600d60248201527f4f7574736964652072616e6765000000000000000000000000000000000000006044820152606401610afd565b6000868152601260205260408120906122d7600a8461521b565b6122e29060016150d8565b63ffffffff1681526020810191909152604001600090812080549161230683615015565b909155505060008681526012602052604081209061232560648461521b565b61233090600b6150d8565b63ffffffff1681526020810191909152604001600090812080549161235483615015565b90915550506000868152601260205260408120906123746103e88461521b565b61237f90606f6150d8565b63ffffffff168152602081019190915260400160009081208054916123a383615015565b90915550506000868152601260205260408120906123c36127108461521b565b6123cf906104576150d8565b63ffffffff168152602081019190915260400160009081208054916123f383615015565b9091555050600086815260126020526040812090612414620186a08461521b565b61242090612b676150d8565b63ffffffff1681526020810191909152604001600090812080549161244483615015565b9091555050600086815260126020526040812090612465620f42408461521b565b612472906201b2076150d8565b63ffffffff1681526020810191909152604001600090812080549161249683615015565b90915550503360008181526013602090815260408083208a84528252808320600680548254600181018455928652848620909201919091558151808301835263ffffffff808816825281850196875282548652601090945291842091518254955173ffffffffffffffffffffffffffffffffffffffff16640100000000027fffffffffffffffff000000000000000000000000000000000000000000000000909616931692909217939093179092558154919061255283615015565b919050555050808061256390615015565b9150506121dd565b50604051828152849033907fd7d247b583de1023852eef87b48f54354dbec771d01bc2cc49e96094efc322b99060200160405180910390a3505060016000555050565b6060808260008167ffffffffffffffff8111156125cd576125cd614fa4565b6040519080825280602002602001820160405280156125f6578160200160208202803683370190505b50905060008267ffffffffffffffff81111561261457612614614fa4565b60405190808252806020026020018201604052801561263d578160200160208202803683370190505b50905060005b83811015612765576010600089898481811061266157612661614fe6565b90506020020135815260200190815260200160002060000160009054906101000a900463ffffffff1683828151811061269c5761269c614fe6565b63ffffffff9092166020928302919091019091015260006010818a8a858181106126c8576126c8614fe6565b6020908102929092013583525081019190915260400160002054640100000000900473ffffffffffffffffffffffffffffffffffffffff160361272e57600182828151811061271957612719614fe6565b91151560209283029190910190910152612753565b600082828151811061274257612742614fe6565b911515602092830291909101909101525b8061275d81615015565b915050612643565b509093509150505b9250929050565b60015473ffffffffffffffffffffffffffffffffffffffff163314806127b1575060035473ffffffffffffffffffffffffffffffffffffffff1633145b612817576040517f08c379a000000000000000000000000000000000000000000000000000000000815260206004820152601560248201527f4e6f74206f776e6572206f72206f70657261746f7200000000000000000000006044820152606401610afd565b600260005403612883576040517f08c379a000000000000000000000000000000000000000000000000000000000815260206004820152601f60248201527f5265656e7472616e637947756172643a207265656e7472616e742063616c6c006044820152606401610afd565b600260005560016000828152600f602052604090205460ff1660038111156128ad576128ad614b5a565b14612914576040517f08c379a000000000000000000000000000000000000000000000000000000000815260206004820152601060248201527f4c6f7474657279206e6f74206f70656e000000000000000000000000000000006044820152606401610afd565b6000818152600f6020526040902060020154421161298e576040517f08c379a000000000000000000000000000000000000000000000000000000000815260206004820152601060248201527f4c6f7474657279206e6f74206f766572000000000000000000000000000000006044820152606401610afd565b6006546000828152600f6020526040902060198101919091558054600291907fffffffffffffffffffffffffffffffffffffffffffffffffffffffffffffff00166001830217905550807f3728e75294796694d59d2ffced9c394279baf7b9ebd2702db43f5f04bac67929600654604051612a0b91815260200190565b60405180910390a2506001600055565b60015473ffffffffffffffffffffffffffffffffffffffff163314612a9c576040517f08c379a000000000000000000000000000000000000000000000000000000000815260206004820181905260248201527f4f776e61626c653a2063616c6c6572206973206e6f7420746865206f776e65726044820152606401610afd565b601480547fffffffffffffffffffffffff00000000000000000000000000000000000000001673ffffffffffffffffffffffffffffffffffffffff92909216919091179055565b60015473ffffffffffffffffffffffffffffffffffffffff16331480612b20575060035473ffffffffffffffffffffffffffffffffffffffff1633145b612b86576040517f08c379a000000000000000000000000000000000000000000000000000000000815260206004820152601560248201527f4e6f74206f776e6572206f72206f70657261746f7200000000000000000000006044820152606401610afd565b6005541580612bba575060036005546000908152600f602052604090205460ff166003811115612bb857612bb8614b5a565b145b612c20576040517f08c379a000000000000000000000000000000000000000000000000000000000815260206004820152601960248201527f4e6f742074696d6520746f207374617274206c6f7474657279000000000000006044820152606401610afd565b61012c612c2d4287614f8b565b118015612c4557506228dfac612c434287614f8b565b105b612cab576040517f08c379a000000000000000000000000000000000000000000000000000000000815260206004820152601f60248201527f4c6f7474657279206c656e677468206f757473696465206f662072616e6765006044820152606401610afd565b61012c831015612d17576040517f08c379a000000000000000000000000000000000000000000000000000000000815260206004820152601860248201527f446973636f756e742064697669736f7220746f6f206c6f7700000000000000006044820152606401610afd565b610bb8811115612d83576040517f08c379a000000000000000000000000000000000000000000000000000000000815260206004820152601560248201527f54726561737572792066656520746f6f206869676800000000000000000000006044820152606401610afd565b60a0820135608083013560608401356040850135612da660208701358735614fd3565b612db09190614fd3565b612dba9190614fd3565b612dc49190614fd3565b612dce9190614fd3565b61271014612e38576040517f08c379a000000000000000000000000000000000000000000000000000000000815260206004820152601860248201527f52657761726473206d75737420657175616c20313030303000000000000000006044820152606401610afd565b60058054906000612e4883615015565b9091555050604080516101a0810190915280600181526020014281526020018681526020018581526020018481526020018360068060200260405190810160405280929190826006602002808284376000920182905250928452505060208083018590526040805160c080820183528482528184018590528183018590526060808301869052608080840187905260a080850188905285890194909452845180840186528781528087018890528086018890528083018890528082018890528085018890529188019190915260065490870181905291860191909152600a549085015260e09093018290526005548252600f9052208151815482907fffffffffffffffffffffffffffffffffffffffffffffffffffffffffffffff00166001836003811115612f7957612f79614b5a565b02179055506020820151600182015560408201516002820155606082015160038201556080820151600482015560a0820151612fbb90600583019060066148d9565b5060c0820151600b82015560e0820151612fdb90600c83019060066148d9565b50610100820151612ff290601283019060066148d9565b5061012082015160188201556101408201516019820155610160820151601a82015561018090910151601b90910180547fffffffffffffffffffffffffffffffffffffffffffffffffffffffff000000001663ffffffff909216919091179055600554600654600a5460408051428152602081018a9052908101889052606081019290925260808201527f367e70f8c0e0c0a6504d92172bda155c02022d532fc85b5d66a9c49e31c8bc779060a00160405180910390a250506000600a55505050565b60015473ffffffffffffffffffffffffffffffffffffffff163314613136576040517f08c379a000000000000000000000000000000000000000000000000000000000815260206004820181905260248201527f4f776e61626c653a2063616c6c6572206973206e6f7420746865206f776e65726044820152606401610afd565b600554158061316a575060036005546000908152600f602052604090205460ff16600381111561316857613168614b5a565b145b6131f6576040517f08c379a000000000000000000000000000000000000000000000000000000000815260206004820152603460248201527f596f752063616e742077697468647261772062616e6b207768696c65206c6f7460448201527f74657279206973206e6f742066696e69736865640000000000000000000000006064820152608401610afd565b600d546005546000908152600f60205260409020600201546132189190614fd3565b4211613280576040517f08c379a000000000000000000000000000000000000000000000000000000000815260206004820152601260248201527f576974686472617720636f6f6c646f776e2100000000000000000000000000006044820152606401610afd565b600b5474010000000000000000000000000000000000000000900460ff161561330157600c546000906132b4606484615093565b6132be919061504d565b90506132ca8183614f8b565b600b54600e549193506132ff91640100000000900473ffffffffffffffffffffffffffffffffffffffff908116911683614239565b505b600e5461332d90640100000000900473ffffffffffffffffffffffffffffffffffffffff163383614239565b50565b600061012c84101561339e576040517f08c379a000000000000000000000000000000000000000000000000000000000815260206004820152601f60248201527f4d757374206265203e3d204d494e5f444953434f554e545f44495649534f52006044820152606401610afd565b81600003613408576040517f08c379a000000000000000000000000000000000000000000000000000000000815260206004820152601d60248201527f4e756d626572206f66207469636b657473206d757374206265203e20300000006044820152606401610afd565b6118ed8484846145c9565b333b1561347c576040517f08c379a000000000000000000000000000000000000000000000000000000000815260206004820152601460248201527f436f6e7472616374206e6f7420616c6c6f7765640000000000000000000000006044820152606401610afd565b3332146134e5576040517f08c379a000000000000000000000000000000000000000000000000000000000815260206004820152601a60248201527f50726f787920636f6e7472616374206e6f7420616c6c6f7765640000000000006044820152606401610afd565b600260005403613551576040517f08c379a000000000000000000000000000000000000000000000000000000000815260206004820152601f60248201527f5265656e7472616e637947756172643a207265656e7472616e742063616c6c006044820152606401610afd565b60026000558281146135bf576040517f08c379a000000000000000000000000000000000000000000000000000000000815260206004820152600f60248201527f4e6f742073616d65206c656e67746800000000000000000000000000000000006044820152606401610afd565b600083900361362a576040517f08c379a000000000000000000000000000000000000000000000000000000000815260206004820152601160248201527f4c656e677468206d757374206265203e300000000000000000000000000000006044820152606401610afd565b600754831115613696576040517f08c379a000000000000000000000000000000000000000000000000000000000815260206004820152601060248201527f546f6f206d616e79207469636b657473000000000000000000000000000000006044820152606401610afd565b60036000868152600f602052604090205460ff1660038111156136bb576136bb614b5a565b14613722576040517f08c379a000000000000000000000000000000000000000000000000000000000815260206004820152601560248201527f4c6f7474657279206e6f7420636c61696d61626c6500000000000000000000006044820152606401610afd565b6000805b84811015613b3457600684848381811061374257613742614fe6565b90506020020160208101906137579190614aed565b63ffffffff16106137c4576040517f08c379a000000000000000000000000000000000000000000000000000000000815260206004820152601460248201527f427261636b6574206f7574206f662072616e67650000000000000000000000006044820152606401610afd565b60008686838181106137d8576137d8614fe6565b90506020020135905080600f60008a81526020019081526020016000206019015411613860576040517f08c379a000000000000000000000000000000000000000000000000000000000815260206004820152601160248201527f5469636b6574496420746f6f20686967680000000000000000000000000000006044820152606401610afd565b6000888152600f60205260409020601801548110156138db576040517f08c379a000000000000000000000000000000000000000000000000000000000815260206004820152601060248201527f5469636b6574496420746f6f206c6f77000000000000000000000000000000006044820152606401610afd565b600081815260106020526040902054640100000000900473ffffffffffffffffffffffffffffffffffffffff163314613970576040517f08c379a000000000000000000000000000000000000000000000000000000000815260206004820152600d60248201527f4e6f7420746865206f776e6572000000000000000000000000000000000000006044820152606401610afd565b600081815260106020526040812080547fffffffffffffffff0000000000000000000000000000000000000000ffffffff1690556139d589838888878181106139bb576139bb614fe6565b90506020020160208101906139d09190614aed565b614312565b905080600003613a41576040517f08c379a000000000000000000000000000000000000000000000000000000000815260206004820152601960248201527f4e6f207072697a6520666f72207468697320627261636b6574000000000000006044820152606401610afd565b858584818110613a5357613a53614fe6565b9050602002016020810190613a689190614aed565b63ffffffff16600514613b1357613aac8983888887818110613a8c57613a8c614fe6565b9050602002016020810190613aa19190614aed565b6139d09060016150d8565b15613b13576040517f08c379a000000000000000000000000000000000000000000000000000000000815260206004820152601660248201527f427261636b6574206d75737420626520686967686572000000000000000000006044820152606401610afd565b613b1d8185614fd3565b935050508080613b2c90615015565b915050613726565b50600e54613b6190640100000000900473ffffffffffffffffffffffffffffffffffffffff163383614239565b6040805182815260208101869052879133917f0f5fca62da8fb5d95525b49e5eaa7b20bc6bd9e2f6b64b493442d1c0bd6ef486910160405180910390a35050600160005550505050565b60015473ffffffffffffffffffffffffffffffffffffffff163314613c2c576040517f08c379a000000000000000000000000000000000000000000000000000000000815260206004820181905260248201527f4f776e61626c653a2063616c6c6572206973206e6f7420746865206f776e65726044820152606401610afd565b73ffffffffffffffffffffffffffffffffffffffff8316613ca9576040517f08c379a000000000000000000000000000000000000000000000000000000000815260206004820152601660248201527f43616e6e6f74206265207a65726f2061646472657373000000000000000000006044820152606401610afd565b73ffffffffffffffffffffffffffffffffffffffff8216613d26576040517f08c379a000000000000000000000000000000000000000000000000000000000815260206004820152601660248201527f43616e6e6f74206265207a65726f2061646472657373000000000000000000006044820152606401610afd565b73ffffffffffffffffffffffffffffffffffffffff8116613da3576040517f08c379a000000000000000000000000000000000000000000000000000000000815260206004820152601660248201527f43616e6e6f74206265207a65726f2061646472657373000000000000000000006044820152606401610afd565b6003805473ffffffffffffffffffffffffffffffffffffffff8581167fffffffffffffffffffffffff0000000000000000000000000000000000000000928316811790935560048054868316908416811790915560028054928616929093168217909255604080519384526020840192909252908201527f3e945b7660001d46cfd5e729545f7f0b6c65bdee54066a91c7acad703f1b731e9060600160405180910390a1505050565b60015473ffffffffffffffffffffffffffffffffffffffff163314613ecd576040517f08c379a000000000000000000000000000000000000000000000000000000000815260206004820181905260248201527f4f776e61626c653a2063616c6c6572206973206e6f7420746865206f776e65726044820152606401610afd565b80821115613f37576040517f08c379a000000000000000000000000000000000000000000000000000000000815260206004820152601b60248201527f6d696e5072696365206d757374206265203c206d6178507269636500000000006044820152606401610afd565b600991909155600855565b60015473ffffffffffffffffffffffffffffffffffffffff163314613fc3576040517f08c379a000000000000000000000000000000000000000000000000000000000815260206004820181905260248201527f4f776e61626c653a2063616c6c6572206973206e6f7420746865206f776e65726044820152606401610afd565b73ffffffffffffffffffffffffffffffffffffffff8116614066576040517f08c379a000000000000000000000000000000000000000000000000000000000815260206004820152602660248201527f4f776e61626c653a206e6577206f776e657220697320746865207a65726f206160448201527f64647265737300000000000000000000000000000000000000000000000000006064820152608401610afd565b60015460405173ffffffffffffffffffffffffffffffffffffffff8084169216907f8be0079c531659141344cd1fd0a4f28419497f9722a3daafe3b4186f6b6457e090600090a3600180547fffffffffffffffffffffffff00000000000000000000000000000000000000001673ffffffffffffffffffffffffffffffffffffffff92909216919091179055565b60015473ffffffffffffffffffffffffffffffffffffffff163314614175576040517f08c379a000000000000000000000000000000000000000000000000000000000815260206004820181905260248201527f4f776e61626c653a2063616c6c6572206973206e6f7420746865206f776e65726044820152606401610afd565b73ffffffffffffffffffffffffffffffffffffffff81166141f2576040517f08c379a000000000000000000000000000000000000000000000000000000000815260206004820152601660248201527f43616e6e6f74206265207a65726f2061646472657373000000000000000000006044820152606401610afd565b600380547fffffffffffffffffffffffff00000000000000000000000000000000000000001673ffffffffffffffffffffffffffffffffffffffff92909216919091179055565b60405173ffffffffffffffffffffffffffffffffffffffff831660248201526044810182905261430d9084907fa9059cbb00000000000000000000000000000000000000000000000000000000906064015b604080517fffffffffffffffffffffffffffffffffffffffffffffffffffffffffffffffe08184030181529190526020810180517bffffffffffffffffffffffffffffffffffffffffffffffffffffffff167fffffffff0000000000000000000000000000000000000000000000000000000090931692909217909152614600565b505050565b6000838152600f60209081526040808320601b0154858452601090925282205463ffffffff9182169116826143488560016150d8565b61435390600a615206565b61435d908361521b565b63ffffffff80871660009081526011602052604090205461437f9291166150d8565b9050600061438e8660016150d8565b61439990600a615206565b6143a3908561521b565b63ffffffff8088166000908152601160205260409020546143c59291166150d8565b90508063ffffffff168263ffffffff160361440f576000888152600f60205260409020600c0163ffffffff87166006811061440257614402614fe6565b0154945050505050611869565b6000945050505050611869565b60405173ffffffffffffffffffffffffffffffffffffffff8085166024830152831660448201526064810182905261447a9085907f23b872dd000000000000000000000000000000000000000000000000000000009060840161428b565b50505050565b60145474010000000000000000000000000000000000000000900460ff166144a457565b6014546040517f70a0823100000000000000000000000000000000000000000000000000000000815233600482015260009173ffffffffffffffffffffffffffffffffffffffff16906370a0823190602401602060405180830381865afa158015614513573d6000803e3d6000fd5b505050506040513d601f19601f820116820180604052508101906145379190615261565b90506000811161332d576040517f08c379a000000000000000000000000000000000000000000000000000000000815260206004820152602260248201527f596f752077616c6c6574206d757374206265207665726966696564206279204b60448201527f59430000000000000000000000000000000000000000000000000000000000006064820152608401610afd565b600083826145d8826001614fd3565b6145e29190614f8b565b6145ec848661504d565b6145f6919061504d565b6118ed9190615093565b6000614662826040518060400160405280602081526020017f5361666545524332303a206c6f772d6c6576656c2063616c6c206661696c65648152508573ffffffffffffffffffffffffffffffffffffffff1661470c9092919063ffffffff16565b80519091501561430d5780806020019051810190614680919061528f565b61430d576040517f08c379a000000000000000000000000000000000000000000000000000000000815260206004820152602a60248201527f5361666545524332303a204552433230206f7065726174696f6e20646964206e60448201527f6f742073756363656564000000000000000000000000000000000000000000006064820152608401610afd565b60606118ed848460008585843b61477f576040517f08c379a000000000000000000000000000000000000000000000000000000000815260206004820152601d60248201527f416464726573733a2063616c6c20746f206e6f6e2d636f6e74726163740000006044820152606401610afd565b6000808673ffffffffffffffffffffffffffffffffffffffff1685876040516147a891906152d0565b60006040518083038185875af1925050503d80600081146147e5576040519150601f19603f3d011682016040523d82523d6000602084013e6147ea565b606091505b50915091506147fa828286614805565b979650505050505050565b60608315614814575081611869565b8251156148245782518084602001fd5b816040517f08c379a0000000000000000000000000000000000000000000000000000000008152600401610afd91906152ec565b604080516101a08101909152806000815260200160008152602001600081526020016000815260200160008152602001614890614917565b8152602001600081526020016148a4614917565b81526020016148b1614917565b8152602001600081526020016000815260200160008152602001600063ffffffff1681525090565b8260068101928215614907579160200282015b828111156149075782518255916020019190600101906148ec565b50614913929150614935565b5090565b6040518060c001604052806006906020820280368337509192915050565b5b808211156149135760008155600101614936565b803573ffffffffffffffffffffffffffffffffffffffff8116811461496e57600080fd5b919050565b6000806000806080858703121561498957600080fd5b6149928561494a565b966020860135965060408601359560600135945092505050565b600081518084526020808501945080840160005b838110156149e257815163ffffffff16875295820195908201906001016149c0565b509495945050505050565b600081518084526020808501945080840160005b838110156149e2578151151587529582019590820190600101614a01565b6080808252855190820181905260009060209060a0840190828901845b82811015614a5857815184529284019290840190600101614a3c565b50505083810382850152614a6c81886149ac565b9150508281036040840152614a8181866149ed565b91505082606083015295945050505050565b600060208284031215614aa557600080fd5b6118698261494a565b801515811461332d57600080fd5b600060208284031215614ace57600080fd5b813561186981614aae565b803563ffffffff8116811461496e57600080fd5b600060208284031215614aff57600080fd5b61186982614ad9565b600080600060608486031215614b1d57600080fd5b83359250602084013591506040840135614b3681614aae565b809150509250925092565b600060208284031215614b5357600080fd5b5035919050565b7f4e487b7100000000000000000000000000000000000000000000000000000000600052602160045260246000fd5b60048110614bc0577f4e487b7100000000000000000000000000000000000000000000000000000000600052602160045260246000fd5b9052565b8060005b600681101561447a578151845260209384019390910190600101614bc8565b600061038082019050614bfb828451614b89565b6020830151602083015260408301516040830152606083015160608301526080830151608083015260a0830151614c3560a0840182614bc4565b5060c0830151610160818185015260e08501519150610180614c5981860184614bc4565b6101008601519250614c6f610240860184614bc4565b6101208601516103008601526101408601516103208601529085015161034085015284015163ffffffff811661036085015290505b5092915050565b600080600060608486031215614cc057600080fd5b8335925060208401359150614cd760408501614ad9565b90509250925092565b60008060408385031215614cf357600080fd5b614cfc8361494a565b946020939093013593505050565b60008060408385031215614d1d57600080fd5b50508035926020909101359150565b60008083601f840112614d3e57600080fd5b50813567ffffffffffffffff811115614d5657600080fd5b6020830191508360208260051b850101111561276d57600080fd5b600080600060408486031215614d8657600080fd5b83359250602084013567ffffffffffffffff811115614da457600080fd5b614db086828701614d2c565b9497909650939450505050565b60008060208385031215614dd057600080fd5b823567ffffffffffffffff811115614de757600080fd5b614df385828601614d2c565b90969095509350505050565b604081526000614e1260408301856149ac565b8281036020840152614e2481856149ed565b95945050505050565b60008060008060006101408688031215614e4657600080fd5b853594506020860135935060408601359250610120860187811115614e6a57600080fd5b94979396509194606001933592915050565b600080600060608486031215614e9157600080fd5b505081359360208301359350604090920135919050565b600080600080600060608688031215614ec057600080fd5b85359450602086013567ffffffffffffffff80821115614edf57600080fd5b614eeb89838a01614d2c565b90965094506040880135915080821115614f0457600080fd5b50614f1188828901614d2c565b969995985093965092949392505050565b600080600060608486031215614f3757600080fd5b614f408461494a565b9250614f4e6020850161494a565b9150614cd76040850161494a565b7f4e487b7100000000000000000000000000000000000000000000000000000000600052601160045260246000fd5b81810381811115614f9e57614f9e614f5c565b92915050565b7f4e487b7100000000000000000000000000000000000000000000000000000000600052604160045260246000fd5b80820180821115614f9e57614f9e614f5c565b7f4e487b7100000000000000000000000000000000000000000000000000000000600052603260045260246000fd5b60007fffffffffffffffffffffffffffffffffffffffffffffffffffffffffffffffff820361504657615046614f5c565b5060010190565b8082028115828204841417614f9e57614f9e614f5c565b7f4e487b7100000000000000000000000000000000000000000000000000000000600052601260045260246000fd5b6000826150a2576150a2615064565b500490565b6000826150b6576150b6615064565b500690565b63ffffffff828116828216039080821115614ca457614ca4614f5c565b63ffffffff818116838216019080821115614ca457614ca4614f5c565b600181815b80851115615132578163ffffffff0482111561511857615118614f5c565b8085161561512557918102915b93841c93908002906150fa565b509250929050565b60008261514957506001614f9e565b8161515657506000614f9e565b816001811461516c5760028114615176576151a7565b6001915050614f9e565b60ff84111561518757615187614f5c565b6001841b915063ffffffff8211156151a1576151a1614f5c565b50614f9e565b5060208310610133831016604e8410600b84101617156151de575081810a63ffffffff8111156151d9576151d9614f5c565b614f9e565b6151e883836150f5565b8063ffffffff048211156151fe576151fe614f5c565b029392505050565b600063ffffffff6118ed81851682851661513a565b600063ffffffff8084168061523257615232615064565b92169190910692915050565b600063ffffffff80831681810361525757615257614f5c565b6001019392505050565b60006020828403121561527357600080fd5b5051919050565b600061186960ff841663ffffffff841661513a565b6000602082840312156152a157600080fd5b815161186981614aae565b60005b838110156152c75781810151838201526020016152af565b50506000910152565b600082516152e28184602087016152ac565b9190910192915050565b602081526000825180602084015261530b8160408501602087016152ac565b601f017fffffffffffffffffffffffffffffffffffffffffffffffffffffffffffffffe016919091016040019291505056fea2646970667358221220577552dd48b12eab521783b5cd86666fa7be11b851dc7f10098108987aaa25a764736f6c63430008110033",
			"opcodes": "PUSH1 0x80 PUSH1 0x40 MSTORE PUSH1 0x64 PUSH1 0x7 SSTORE PUSH10 0x69E10DE76676D0800000 PUSH1 0x8 SSTORE PUSH3 0x989680 PUSH1 0x9 SSTORE PUSH1 0xB DUP1 SLOAD PUSH21 0x1DF50EF7E506536354E7A805442DCBF25C7AC249B PUSH1 0x1 PUSH1 0x1 PUSH1 0xA8 SHL SUB NOT SWAP1 SWAP2 AND OR SWAP1 SSTORE PUSH1 0x14 PUSH1 0xC DUP2 SWAP1 SSTORE PUSH3 0x28DE80 PUSH1 0xD SSTORE PUSH1 0xE DUP1 SLOAD PUSH4 0xFFFFFFFF NOT AND PUSH1 0x6 OR SWAP1 SSTORE DUP1 SLOAD PUSH1 0xFF PUSH1 0xA0 SHL NOT AND PUSH1 0x1 PUSH1 0xA0 SHL OR SWAP1 SSTORE CALLVALUE DUP1 ISZERO PUSH3 0x83 JUMPI PUSH1 0x0 DUP1 REVERT JUMPDEST POP PUSH1 0x40 MLOAD PUSH3 0x5970 CODESIZE SUB DUP1 PUSH3 0x5970 DUP4 CODECOPY DUP2 ADD PUSH1 0x40 DUP2 SWAP1 MSTORE PUSH3 0xA6 SWAP2 PUSH3 0x552 JUMP JUMPDEST PUSH1 0x1 PUSH1 0x0 DUP2 DUP2 SSTORE DUP2 SLOAD PUSH1 0x1 PUSH1 0x1 PUSH1 0xA0 SHL SUB NOT AND CALLER SWAP1 DUP2 OR SWAP1 SWAP3 SSTORE PUSH1 0x40 MLOAD DUP3 SWAP2 SWAP1 PUSH32 0x8BE0079C531659141344CD1FD0A4F28419497F9722A3DAAFE3B4186F6B6457E0 SWAP1 DUP3 SWAP1 LOG3 POP PUSH1 0xE DUP1 SLOAD PUSH1 0x1 PUSH1 0x20 SHL PUSH1 0x1 PUSH1 0xC0 SHL SUB NOT AND PUSH5 0x100000000 PUSH1 0x1 PUSH1 0x1 PUSH1 0xA0 SHL SUB DUP8 DUP2 AND SWAP2 SWAP1 SWAP2 MUL SWAP2 SWAP1 SWAP2 OR SWAP1 SWAP2 SSTORE PUSH1 0x14 DUP1 SLOAD DUP5 DUP4 AND PUSH1 0x1 PUSH1 0x1 PUSH1 0xA8 SHL SUB NOT SWAP1 SWAP2 AND OR PUSH1 0x1 PUSH1 0xA0 SHL DUP5 ISZERO ISZERO DUP2 MUL SWAP2 SWAP1 SWAP2 OR SWAP1 SWAP2 SSTORE PUSH1 0xB DUP1 SLOAD PUSH1 0xFF PUSH1 0xA0 SHL NOT AND DUP7 ISZERO ISZERO SWAP1 SWAP3 MUL SWAP2 SWAP1 SWAP2 OR DUP2 SSTORE PUSH1 0x1 DUP1 SLOAD PUSH1 0x3 DUP1 SLOAD SWAP2 SWAP1 SWAP5 AND PUSH1 0x1 PUSH1 0x1 PUSH1 0xA0 SHL SUB NOT SWAP2 DUP3 AND DUP2 OR SWAP1 SWAP5 SSTORE PUSH1 0x4 DUP1 SLOAD DUP3 AND DUP6 OR SWAP1 SSTORE PUSH1 0x2 DUP1 SLOAD SWAP1 SWAP2 AND SWAP1 SWAP4 OR SWAP1 SWAP3 SSTORE PUSH1 0x11 PUSH1 0x20 MSTORE PUSH32 0x4AD3B33220DDDC71B994A52D72C06B10862965F7D926534C05C00FB7E819E7B7 DUP1 SLOAD PUSH4 0xFFFFFFFF NOT SWAP1 DUP2 AND SWAP1 SWAP4 OR SWAP1 SSTORE PUSH32 0x17BC176D2408558F6E4111FEEBC3CAB4E16B63E967BE91CDE721F4C8A488B552 DUP1 SLOAD DUP4 AND SWAP1 SWAP2 OR SWAP1 SSTORE PUSH32 0x8037D7B151CC412D25674A4E66B334D9AE9D2E5517A7FEAAE5CDB828BF1C628 DUP1 SLOAD DUP3 AND PUSH1 0x6F OR SWAP1 SSTORE PUSH32 0x9BFBAA59F8E10E7868F8B402DE9D605A390C45DDAEBD8C9DE3C6F31E733C87FF DUP1 SLOAD DUP3 AND PUSH2 0x457 OR SWAP1 SSTORE PUSH32 0x251164FE1D8864FE5E86082EAE9C288BC2B58695A4D28538DFE86E9E4F175585 DUP1 SLOAD DUP3 AND PUSH2 0x2B67 OR SWAP1 SSTORE PUSH1 0x5 PUSH1 0x0 DUP2 DUP2 MSTORE PUSH32 0xC550213CEE30AFD5E67CCBA7BE3D381BBC169034AE08EB3EC9168CACA9FE55E7 DUP1 SLOAD SWAP1 SWAP4 AND PUSH3 0x1B207 OR SWAP1 SWAP3 SSTORE DUP1 SLOAD SWAP2 PUSH3 0x2AC DUP4 PUSH3 0x5AF JUMP JUMPDEST SWAP1 SWAP2 SSTORE POP POP PUSH1 0x40 DUP1 MLOAD PUSH2 0x1A0 DUP2 ADD SWAP1 SWAP2 MSTORE DUP1 PUSH1 0x3 DUP2 MSTORE PUSH1 0x20 ADD TIMESTAMP DUP2 MSTORE PUSH1 0x20 ADD TIMESTAMP DUP2 MSTORE PUSH1 0x20 ADD PUSH1 0x0 DUP2 MSTORE PUSH1 0x20 ADD PUSH1 0x0 DUP2 MSTORE PUSH1 0x20 ADD PUSH1 0x40 MLOAD DUP1 PUSH1 0xC0 ADD PUSH1 0x40 MSTORE DUP1 PUSH1 0xFA DUP2 MSTORE PUSH1 0x20 ADD PUSH2 0x177 DUP2 MSTORE PUSH1 0x20 ADD PUSH2 0x271 DUP2 MSTORE PUSH1 0x20 ADD PUSH2 0x4E2 DUP2 MSTORE PUSH1 0x20 ADD PUSH2 0x9C4 DUP2 MSTORE PUSH1 0x20 ADD PUSH2 0x1388 DUP2 MSTORE POP DUP2 MSTORE PUSH1 0x20 ADD PUSH2 0x7D0 DUP2 MSTORE PUSH1 0x20 ADD PUSH1 0x40 MLOAD DUP1 PUSH1 0xC0 ADD PUSH1 0x40 MSTORE DUP1 PUSH1 0x0 DUP2 MSTORE PUSH1 0x20 ADD PUSH1 0x0 DUP2 MSTORE PUSH1 0x20 ADD PUSH1 0x0 DUP2 MSTORE PUSH1 0x20 ADD PUSH1 0x0 DUP2 MSTORE PUSH1 0x20 ADD PUSH1 0x0 DUP2 MSTORE PUSH1 0x20 ADD PUSH1 0x0 DUP2 MSTORE POP DUP2 MSTORE PUSH1 0x20 ADD PUSH1 0x40 MLOAD DUP1 PUSH1 0xC0 ADD PUSH1 0x40 MSTORE DUP1 PUSH1 0x0 DUP2 MSTORE PUSH1 0x20 ADD PUSH1 0x0 DUP2 MSTORE PUSH1 0x20 ADD PUSH1 0x0 DUP2 MSTORE PUSH1 0x20 ADD PUSH1 0x0 DUP2 MSTORE PUSH1 0x20 ADD PUSH1 0x0 DUP2 MSTORE PUSH1 0x20 ADD PUSH1 0x0 DUP2 MSTORE POP DUP2 MSTORE PUSH1 0x20 ADD PUSH1 0x6 SLOAD DUP2 MSTORE PUSH1 0x20 ADD PUSH1 0x6 SLOAD DUP2 MSTORE PUSH1 0x20 ADD PUSH1 0xA SLOAD DUP2 MSTORE PUSH1 0x20 ADD PUSH3 0xF4240 PUSH4 0xFFFFFFFF AND DUP2 MSTORE POP PUSH1 0xF PUSH1 0x0 PUSH1 0x5 SLOAD DUP2 MSTORE PUSH1 0x20 ADD SWAP1 DUP2 MSTORE PUSH1 0x20 ADD PUSH1 0x0 KECCAK256 PUSH1 0x0 DUP3 ADD MLOAD DUP2 PUSH1 0x0 ADD PUSH1 0x0 PUSH2 0x100 EXP DUP2 SLOAD DUP2 PUSH1 0xFF MUL NOT AND SWAP1 DUP4 PUSH1 0x3 DUP2 GT ISZERO PUSH3 0x3FB JUMPI PUSH3 0x3FB PUSH3 0x5D7 JUMP JUMPDEST MUL OR SWAP1 SSTORE POP PUSH1 0x20 DUP3 ADD MLOAD PUSH1 0x1 DUP3 ADD SSTORE PUSH1 0x40 DUP3 ADD MLOAD PUSH1 0x2 DUP3 ADD SSTORE PUSH1 0x60 DUP3 ADD MLOAD PUSH1 0x3 DUP3 ADD SSTORE PUSH1 0x80 DUP3 ADD MLOAD PUSH1 0x4 DUP3 ADD SSTORE PUSH1 0xA0 DUP3 ADD MLOAD PUSH3 0x43F SWAP1 PUSH1 0x5 DUP4 ADD SWAP1 PUSH1 0x6 PUSH3 0x4CA JUMP JUMPDEST POP PUSH1 0xC0 DUP3 ADD MLOAD PUSH1 0xB DUP3 ADD SSTORE PUSH1 0xE0 DUP3 ADD MLOAD PUSH3 0x461 SWAP1 PUSH1 0xC DUP4 ADD SWAP1 PUSH1 0x6 PUSH3 0x4CA JUMP JUMPDEST POP PUSH2 0x100 DUP3 ADD MLOAD PUSH3 0x47A SWAP1 PUSH1 0x12 DUP4 ADD SWAP1 PUSH1 0x6 PUSH3 0x4CA JUMP JUMPDEST POP PUSH2 0x120 DUP3 ADD MLOAD PUSH1 0x18 DUP3 ADD SSTORE PUSH2 0x140 DUP3 ADD MLOAD PUSH1 0x19 DUP3 ADD SSTORE PUSH2 0x160 DUP3 ADD MLOAD PUSH1 0x1A DUP3 ADD SSTORE PUSH2 0x180 SWAP1 SWAP2 ADD MLOAD PUSH1 0x1B SWAP1 SWAP2 ADD DUP1 SLOAD PUSH4 0xFFFFFFFF NOT AND PUSH4 0xFFFFFFFF SWAP1 SWAP3 AND SWAP2 SWAP1 SWAP2 OR SWAP1 SSTORE POP PUSH3 0x5ED SWAP3 POP POP POP JUMP JUMPDEST DUP3 PUSH1 0x6 DUP2 ADD SWAP3 DUP3 ISZERO PUSH3 0x4FB JUMPI SWAP2 PUSH1 0x20 MUL DUP3 ADD JUMPDEST DUP3 DUP2 GT ISZERO PUSH3 0x4FB JUMPI DUP3 MLOAD DUP3 SSTORE SWAP2 PUSH1 0x20 ADD SWAP2 SWAP1 PUSH1 0x1 ADD SWAP1 PUSH3 0x4DE JUMP JUMPDEST POP PUSH3 0x509 SWAP3 SWAP2 POP PUSH3 0x50D JUMP JUMPDEST POP SWAP1 JUMP JUMPDEST JUMPDEST DUP1 DUP3 GT ISZERO PUSH3 0x509 JUMPI PUSH1 0x0 DUP2 SSTORE PUSH1 0x1 ADD PUSH3 0x50E JUMP JUMPDEST DUP1 MLOAD PUSH1 0x1 PUSH1 0x1 PUSH1 0xA0 SHL SUB DUP2 AND DUP2 EQ PUSH3 0x53C JUMPI PUSH1 0x0 DUP1 REVERT JUMPDEST SWAP2 SWAP1 POP JUMP JUMPDEST DUP1 MLOAD DUP1 ISZERO ISZERO DUP2 EQ PUSH3 0x53C JUMPI PUSH1 0x0 DUP1 REVERT JUMPDEST PUSH1 0x0 DUP1 PUSH1 0x0 DUP1 PUSH1 0x80 DUP6 DUP8 SUB SLT ISZERO PUSH3 0x569 JUMPI PUSH1 0x0 DUP1 REVERT JUMPDEST PUSH3 0x574 DUP6 PUSH3 0x524 JUMP JUMPDEST SWAP4 POP PUSH3 0x584 PUSH1 0x20 DUP7 ADD PUSH3 0x541 JUMP JUMPDEST SWAP3 POP PUSH3 0x594 PUSH1 0x40 DUP7 ADD PUSH3 0x524 JUMP JUMPDEST SWAP2 POP PUSH3 0x5A4 PUSH1 0x60 DUP7 ADD PUSH3 0x541 JUMP JUMPDEST SWAP1 POP SWAP3 SWAP6 SWAP2 SWAP5 POP SWAP3 POP JUMP JUMPDEST PUSH1 0x0 PUSH1 0x1 DUP3 ADD PUSH3 0x5D0 JUMPI PUSH4 0x4E487B71 PUSH1 0xE0 SHL PUSH1 0x0 MSTORE PUSH1 0x11 PUSH1 0x4 MSTORE PUSH1 0x24 PUSH1 0x0 REVERT JUMPDEST POP PUSH1 0x1 ADD SWAP1 JUMP JUMPDEST PUSH4 0x4E487B71 PUSH1 0xE0 SHL PUSH1 0x0 MSTORE PUSH1 0x21 PUSH1 0x4 MSTORE PUSH1 0x24 PUSH1 0x0 REVERT JUMPDEST PUSH2 0x5373 DUP1 PUSH3 0x5FD PUSH1 0x0 CODECOPY PUSH1 0x0 RETURN INVALID PUSH1 0x80 PUSH1 0x40 MSTORE CALLVALUE DUP1 ISZERO PUSH2 0x10 JUMPI PUSH1 0x0 DUP1 REVERT JUMPDEST POP PUSH1 0x4 CALLDATASIZE LT PUSH2 0x320 JUMPI PUSH1 0x0 CALLDATALOAD PUSH1 0xE0 SHR DUP1 PUSH4 0x7CB583BD GT PUSH2 0x1A7 JUMPI DUP1 PUSH4 0xC5F956AF GT PUSH2 0xEE JUMPI DUP1 PUSH4 0xDB19DA0D GT PUSH2 0x97 JUMPI DUP1 PUSH4 0xF2FDE38B GT PUSH2 0x71 JUMPI DUP1 PUSH4 0xF2FDE38B EQ PUSH2 0x6E8 JUMPI DUP1 PUSH4 0xF6783518 EQ PUSH2 0x6FB JUMPI DUP1 PUSH4 0xFE014066 EQ PUSH2 0x71B JUMPI PUSH1 0x0 DUP1 REVERT JUMPDEST DUP1 PUSH4 0xDB19DA0D EQ PUSH2 0x6CD JUMPI DUP1 PUSH4 0xDBDEC7EC EQ PUSH2 0x6D7 JUMPI DUP1 PUSH4 0xF2B3C809 EQ PUSH2 0x6DF JUMPI PUSH1 0x0 DUP1 REVERT JUMPDEST DUP1 PUSH4 0xD86B2982 GT PUSH2 0xC8 JUMPI DUP1 PUSH4 0xD86B2982 EQ PUSH2 0x682 JUMPI DUP1 PUSH4 0xDA4CA039 EQ PUSH2 0x6A7 JUMPI DUP1 PUSH4 0xDA7429F8 EQ PUSH2 0x6BA JUMPI PUSH1 0x0 DUP1 REVERT JUMPDEST DUP1 PUSH4 0xC5F956AF EQ PUSH2 0x62A JUMPI DUP1 PUSH4 0xC914914F EQ PUSH2 0x64A JUMPI DUP1 PUSH4 0xCEC33199 EQ PUSH2 0x65D JUMPI PUSH1 0x0 DUP1 REVERT JUMPDEST DUP1 PUSH4 0x9C384653 GT PUSH2 0x150 JUMPI DUP1 PUSH4 0xB1829B82 GT PUSH2 0x12A JUMPI DUP1 PUSH4 0xB1829B82 EQ PUSH2 0x5F1 JUMPI DUP1 PUSH4 0xBE2FF4A9 EQ PUSH2 0x604 JUMPI DUP1 PUSH4 0xC4937AB9 EQ PUSH2 0x617 JUMPI PUSH1 0x0 DUP1 REVERT JUMPDEST DUP1 PUSH4 0x9C384653 EQ PUSH2 0x5AB JUMPI DUP1 PUSH4 0x9D8CA531 EQ PUSH2 0x5CB JUMPI DUP1 PUSH4 0xA3C1C4A9 EQ PUSH2 0x5DE JUMPI PUSH1 0x0 DUP1 REVERT JUMPDEST DUP1 PUSH4 0x8904BF2F GT PUSH2 0x181 JUMPI DUP1 PUSH4 0x8904BF2F EQ PUSH2 0x544 JUMPI DUP1 PUSH4 0x8DA5CB5B EQ PUSH2 0x56C JUMPI DUP1 PUSH4 0x8FC3539A EQ PUSH2 0x58A JUMPI PUSH1 0x0 DUP1 REVERT JUMPDEST DUP1 PUSH4 0x7CB583BD EQ PUSH2 0x351 JUMPI DUP1 PUSH4 0x80A06160 EQ PUSH2 0x529 JUMPI DUP1 PUSH4 0x88303DBD EQ PUSH2 0x531 JUMPI PUSH1 0x0 DUP1 REVERT JUMPDEST DUP1 PUSH4 0x2CFAF797 GT PUSH2 0x26B JUMPI DUP1 PUSH4 0x48C2C21F GT PUSH2 0x214 JUMPI DUP1 PUSH4 0x6B873788 GT PUSH2 0x1EE JUMPI DUP1 PUSH4 0x6B873788 EQ PUSH2 0x505 JUMPI DUP1 PUSH4 0x6BE4097C EQ PUSH2 0x518 JUMPI DUP1 PUSH4 0x715018A6 EQ PUSH2 0x521 JUMPI PUSH1 0x0 DUP1 REVERT JUMPDEST DUP1 PUSH4 0x48C2C21F EQ PUSH2 0x4B7 JUMPI DUP1 PUSH4 0x628A167C EQ PUSH2 0x4D7 JUMPI DUP1 PUSH4 0x686465B8 EQ PUSH2 0x4FC JUMPI PUSH1 0x0 DUP1 REVERT JUMPDEST DUP1 PUSH4 0x3CBFE3A1 GT PUSH2 0x245 JUMPI DUP1 PUSH4 0x3CBFE3A1 EQ PUSH2 0x488 JUMPI DUP1 PUSH4 0x3F138D4B EQ PUSH2 0x491 JUMPI DUP1 PUSH4 0x471AEAB4 EQ PUSH2 0x4A4 JUMPI PUSH1 0x0 DUP1 REVERT JUMPDEST DUP1 PUSH4 0x2CFAF797 EQ PUSH2 0x449 JUMPI DUP1 PUSH4 0x2E530CAE EQ PUSH2 0x46C JUMPI DUP1 PUSH4 0x31FEB565 EQ PUSH2 0x47F JUMPI PUSH1 0x0 DUP1 REVERT JUMPDEST DUP1 PUSH4 0x1F73664B GT PUSH2 0x2CD JUMPI DUP1 PUSH4 0x2385860B GT PUSH2 0x2A7 JUMPI DUP1 PUSH4 0x2385860B EQ PUSH2 0x403 JUMPI DUP1 PUSH4 0x2423807A EQ PUSH2 0x416 JUMPI DUP1 PUSH4 0x2C4E93B0 EQ PUSH2 0x436 JUMPI PUSH1 0x0 DUP1 REVERT JUMPDEST DUP1 PUSH4 0x1F73664B EQ PUSH2 0x3DE JUMPI DUP1 PUSH4 0x1FE86C6B EQ PUSH2 0x3E7 JUMPI DUP1 PUSH4 0x20211A30 EQ PUSH2 0x3F0 JUMPI PUSH1 0x0 DUP1 REVERT JUMPDEST DUP1 PUSH4 0x127EFFB2 GT PUSH2 0x2FE JUMPI DUP1 PUSH4 0x127EFFB2 EQ PUSH2 0x37D JUMPI DUP1 PUSH4 0x12A9769D EQ PUSH2 0x3C2 JUMPI DUP1 PUSH4 0x1F710996 EQ PUSH2 0x3CB JUMPI PUSH1 0x0 DUP1 REVERT JUMPDEST DUP1 PUSH4 0x5531EEB EQ PUSH2 0x325 JUMPI DUP1 PUSH4 0x7FB5A9C EQ PUSH2 0x351 JUMPI DUP1 PUSH4 0x9B86C9D EQ PUSH2 0x368 JUMPI JUMPDEST PUSH1 0x0 DUP1 REVERT JUMPDEST PUSH2 0x338 PUSH2 0x333 CALLDATASIZE PUSH1 0x4 PUSH2 0x4973 JUMP JUMPDEST PUSH2 0x72E JUMP JUMPDEST PUSH1 0x40 MLOAD PUSH2 0x348 SWAP5 SWAP4 SWAP3 SWAP2 SWAP1 PUSH2 0x4A1F JUMP JUMPDEST PUSH1 0x40 MLOAD DUP1 SWAP2 SUB SWAP1 RETURN JUMPDEST PUSH2 0x35A PUSH2 0x12C DUP2 JUMP JUMPDEST PUSH1 0x40 MLOAD SWAP1 DUP2 MSTORE PUSH1 0x20 ADD PUSH2 0x348 JUMP JUMPDEST PUSH2 0x37B PUSH2 0x376 CALLDATASIZE PUSH1 0x4 PUSH2 0x4A93 JUMP JUMPDEST PUSH2 0xA5A JUMP JUMPDEST STOP JUMPDEST PUSH1 0x3 SLOAD PUSH2 0x39D SWAP1 PUSH20 0xFFFFFFFFFFFFFFFFFFFFFFFFFFFFFFFFFFFFFFFF AND DUP2 JUMP JUMPDEST PUSH1 0x40 MLOAD PUSH20 0xFFFFFFFFFFFFFFFFFFFFFFFFFFFFFFFFFFFFFFFF SWAP1 SWAP2 AND DUP2 MSTORE PUSH1 0x20 ADD PUSH2 0x348 JUMP JUMPDEST PUSH2 0x35A PUSH1 0xA SLOAD DUP2 JUMP JUMPDEST PUSH2 0x37B PUSH2 0x3D9 CALLDATASIZE PUSH1 0x4 PUSH2 0x4ABC JUMP JUMPDEST PUSH2 0xB4D JUMP JUMPDEST PUSH2 0x35A PUSH1 0x8 SLOAD DUP2 JUMP JUMPDEST PUSH2 0x35A PUSH1 0x7 SLOAD DUP2 JUMP JUMPDEST PUSH2 0x37B PUSH2 0x3FE CALLDATASIZE PUSH1 0x4 PUSH2 0x4AED JUMP JUMPDEST PUSH2 0xC3E JUMP JUMPDEST PUSH2 0x37B PUSH2 0x411 CALLDATASIZE PUSH1 0x4 PUSH2 0x4B08 JUMP JUMPDEST PUSH2 0xE72 JUMP JUMPDEST PUSH2 0x429 PUSH2 0x424 CALLDATASIZE PUSH1 0x4 PUSH2 0x4B41 JUMP JUMPDEST PUSH2 0x1567 JUMP JUMPDEST PUSH1 0x40 MLOAD PUSH2 0x348 SWAP2 SWAP1 PUSH2 0x4BE7 JUMP JUMPDEST PUSH2 0x37B PUSH2 0x444 CALLDATASIZE PUSH1 0x4 PUSH2 0x4ABC JUMP JUMPDEST PUSH2 0x16C8 JUMP JUMPDEST PUSH2 0x45C PUSH2 0x457 CALLDATASIZE PUSH1 0x4 PUSH2 0x4A93 JUMP JUMPDEST PUSH2 0x1793 JUMP JUMPDEST PUSH1 0x40 MLOAD SWAP1 ISZERO ISZERO DUP2 MSTORE PUSH1 0x20 ADD PUSH2 0x348 JUMP JUMPDEST PUSH2 0x35A PUSH2 0x47A CALLDATASIZE PUSH1 0x4 PUSH2 0x4CAB JUMP JUMPDEST PUSH2 0x1870 JUMP JUMPDEST PUSH2 0x35A PUSH1 0x9 SLOAD DUP2 JUMP JUMPDEST PUSH2 0x35A PUSH1 0xD SLOAD DUP2 JUMP JUMPDEST PUSH2 0x37B PUSH2 0x49F CALLDATASIZE PUSH1 0x4 PUSH2 0x4CE0 JUMP JUMPDEST PUSH2 0x18F5 JUMP JUMPDEST PUSH2 0x37B PUSH2 0x4B2 CALLDATASIZE PUSH1 0x4 PUSH2 0x4D0A JUMP JUMPDEST PUSH2 0x1A9C JUMP JUMPDEST PUSH1 0xB SLOAD PUSH2 0x39D SWAP1 PUSH20 0xFFFFFFFFFFFFFFFFFFFFFFFFFFFFFFFFFFFFFFFF AND DUP2 JUMP JUMPDEST PUSH1 0xB SLOAD PUSH2 0x45C SWAP1 PUSH21 0x10000000000000000000000000000000000000000 SWAP1 DIV PUSH1 0xFF AND DUP2 JUMP JUMPDEST PUSH2 0x35A PUSH1 0x6 SLOAD DUP2 JUMP JUMPDEST PUSH2 0x37B PUSH2 0x513 CALLDATASIZE PUSH1 0x4 PUSH2 0x4B41 JUMP JUMPDEST PUSH2 0x1C57 JUMP JUMPDEST PUSH2 0x35A PUSH1 0x5 SLOAD DUP2 JUMP JUMPDEST PUSH2 0x37B PUSH2 0x1D47 JUMP JUMPDEST PUSH1 0x5 SLOAD PUSH2 0x35A JUMP JUMPDEST PUSH2 0x37B PUSH2 0x53F CALLDATASIZE PUSH1 0x4 PUSH2 0x4D71 JUMP JUMPDEST PUSH2 0x1E37 JUMP JUMPDEST PUSH1 0xE SLOAD PUSH2 0x39D SWAP1 PUSH5 0x100000000 SWAP1 DIV PUSH20 0xFFFFFFFFFFFFFFFFFFFFFFFFFFFFFFFFFFFFFFFF AND DUP2 JUMP JUMPDEST PUSH1 0x1 SLOAD PUSH20 0xFFFFFFFFFFFFFFFFFFFFFFFFFFFFFFFFFFFFFFFF AND PUSH2 0x39D JUMP JUMPDEST PUSH2 0x59D PUSH2 0x598 CALLDATASIZE PUSH1 0x4 PUSH2 0x4DBD JUMP JUMPDEST PUSH2 0x25AE JUMP JUMPDEST PUSH1 0x40 MLOAD PUSH2 0x348 SWAP3 SWAP2 SWAP1 PUSH2 0x4DFF JUMP JUMPDEST PUSH1 0x2 SLOAD PUSH2 0x39D SWAP1 PUSH20 0xFFFFFFFFFFFFFFFFFFFFFFFFFFFFFFFFFFFFFFFF AND DUP2 JUMP JUMPDEST PUSH2 0x37B PUSH2 0x5D9 CALLDATASIZE PUSH1 0x4 PUSH2 0x4B41 JUMP JUMPDEST PUSH2 0x2774 JUMP JUMPDEST PUSH2 0x37B PUSH2 0x5EC CALLDATASIZE PUSH1 0x4 PUSH2 0x4A93 JUMP JUMPDEST PUSH2 0x2A1B JUMP JUMPDEST PUSH2 0x37B PUSH2 0x5FF CALLDATASIZE PUSH1 0x4 PUSH2 0x4E2D JUMP JUMPDEST PUSH2 0x2AE3 JUMP JUMPDEST PUSH2 0x37B PUSH2 0x612 CALLDATASIZE PUSH1 0x4 PUSH2 0x4B41 JUMP JUMPDEST PUSH2 0x30B5 JUMP JUMPDEST PUSH2 0x35A PUSH2 0x625 CALLDATASIZE PUSH1 0x4 PUSH2 0x4E7C JUMP JUMPDEST PUSH2 0x3330 JUMP JUMPDEST PUSH1 0x4 SLOAD PUSH2 0x39D SWAP1 PUSH20 0xFFFFFFFFFFFFFFFFFFFFFFFFFFFFFFFFFFFFFFFF AND DUP2 JUMP JUMPDEST PUSH2 0x37B PUSH2 0x658 CALLDATASIZE PUSH1 0x4 PUSH2 0x4EA8 JUMP JUMPDEST PUSH2 0x3413 JUMP JUMPDEST PUSH1 0x14 SLOAD PUSH2 0x45C SWAP1 PUSH21 0x10000000000000000000000000000000000000000 SWAP1 DIV PUSH1 0xFF AND DUP2 JUMP JUMPDEST PUSH1 0xE SLOAD PUSH2 0x692 SWAP1 PUSH4 0xFFFFFFFF AND DUP2 JUMP JUMPDEST PUSH1 0x40 MLOAD PUSH4 0xFFFFFFFF SWAP1 SWAP2 AND DUP2 MSTORE PUSH1 0x20 ADD PUSH2 0x348 JUMP JUMPDEST PUSH2 0x37B PUSH2 0x6B5 CALLDATASIZE PUSH1 0x4 PUSH2 0x4F22 JUMP JUMPDEST PUSH2 0x3BAB JUMP JUMPDEST PUSH2 0x37B PUSH2 0x6C8 CALLDATASIZE PUSH1 0x4 PUSH2 0x4D0A JUMP JUMPDEST PUSH2 0x3E4C JUMP JUMPDEST PUSH2 0x35A PUSH3 0x28DFAC DUP2 JUMP JUMPDEST PUSH2 0x45C PUSH1 0x1 DUP2 JUMP JUMPDEST PUSH2 0x35A PUSH2 0xBB8 DUP2 JUMP JUMPDEST PUSH2 0x37B PUSH2 0x6F6 CALLDATASIZE PUSH1 0x4 PUSH2 0x4A93 JUMP JUMPDEST PUSH2 0x3F42 JUMP JUMPDEST PUSH1 0x14 SLOAD PUSH2 0x39D SWAP1 PUSH20 0xFFFFFFFFFFFFFFFFFFFFFFFFFFFFFFFFFFFFFFFF AND DUP2 JUMP JUMPDEST PUSH2 0x37B PUSH2 0x729 CALLDATASIZE PUSH1 0x4 PUSH2 0x4A93 JUMP JUMPDEST PUSH2 0x40F4 JUMP JUMPDEST PUSH20 0xFFFFFFFFFFFFFFFFFFFFFFFFFFFFFFFFFFFFFFFF DUP5 AND PUSH1 0x0 SWAP1 DUP2 MSTORE PUSH1 0x13 PUSH1 0x20 SWAP1 DUP2 MSTORE PUSH1 0x40 DUP1 DUP4 KECCAK256 DUP7 DUP5 MSTORE SWAP1 SWAP2 MSTORE DUP2 KECCAK256 SLOAD PUSH1 0x60 SWAP2 DUP3 SWAP2 DUP3 SWAP2 SWAP1 DUP6 SWAP1 PUSH2 0x773 DUP9 DUP3 PUSH2 0x4F8B JUMP JUMPDEST DUP3 GT ISZERO PUSH2 0x787 JUMPI PUSH2 0x784 DUP9 DUP3 PUSH2 0x4F8B JUMP JUMPDEST SWAP2 POP JUMPDEST PUSH1 0x0 DUP3 PUSH8 0xFFFFFFFFFFFFFFFF DUP2 GT ISZERO PUSH2 0x7A2 JUMPI PUSH2 0x7A2 PUSH2 0x4FA4 JUMP JUMPDEST PUSH1 0x40 MLOAD SWAP1 DUP1 DUP3 MSTORE DUP1 PUSH1 0x20 MUL PUSH1 0x20 ADD DUP3 ADD PUSH1 0x40 MSTORE DUP1 ISZERO PUSH2 0x7CB JUMPI DUP2 PUSH1 0x20 ADD PUSH1 0x20 DUP3 MUL DUP1 CALLDATASIZE DUP4 CALLDATACOPY ADD SWAP1 POP JUMPDEST POP SWAP1 POP PUSH1 0x0 DUP4 PUSH8 0xFFFFFFFFFFFFFFFF DUP2 GT ISZERO PUSH2 0x7E9 JUMPI PUSH2 0x7E9 PUSH2 0x4FA4 JUMP JUMPDEST PUSH1 0x40 MLOAD SWAP1 DUP1 DUP3 MSTORE DUP1 PUSH1 0x20 MUL PUSH1 0x20 ADD DUP3 ADD PUSH1 0x40 MSTORE DUP1 ISZERO PUSH2 0x812 JUMPI DUP2 PUSH1 0x20 ADD PUSH1 0x20 DUP3 MUL DUP1 CALLDATASIZE DUP4 CALLDATACOPY ADD SWAP1 POP JUMPDEST POP SWAP1 POP PUSH1 0x0 DUP5 PUSH8 0xFFFFFFFFFFFFFFFF DUP2 GT ISZERO PUSH2 0x830 JUMPI PUSH2 0x830 PUSH2 0x4FA4 JUMP JUMPDEST PUSH1 0x40 MLOAD SWAP1 DUP1 DUP3 MSTORE DUP1 PUSH1 0x20 MUL PUSH1 0x20 ADD DUP3 ADD PUSH1 0x40 MSTORE DUP1 ISZERO PUSH2 0x859 JUMPI DUP2 PUSH1 0x20 ADD PUSH1 0x20 DUP3 MUL DUP1 CALLDATASIZE DUP4 CALLDATACOPY ADD SWAP1 POP JUMPDEST POP SWAP1 POP PUSH1 0x0 JUMPDEST DUP6 DUP2 LT ISZERO PUSH2 0xA34 JUMPI PUSH1 0x13 PUSH1 0x0 DUP16 PUSH20 0xFFFFFFFFFFFFFFFFFFFFFFFFFFFFFFFFFFFFFFFF AND PUSH20 0xFFFFFFFFFFFFFFFFFFFFFFFFFFFFFFFFFFFFFFFF AND DUP2 MSTORE PUSH1 0x20 ADD SWAP1 DUP2 MSTORE PUSH1 0x20 ADD PUSH1 0x0 KECCAK256 PUSH1 0x0 DUP15 DUP2 MSTORE PUSH1 0x20 ADD SWAP1 DUP2 MSTORE PUSH1 0x20 ADD PUSH1 0x0 KECCAK256 DUP13 DUP3 PUSH2 0x8C3 SWAP2 SWAP1 PUSH2 0x4FD3 JUMP JUMPDEST DUP2 SLOAD DUP2 LT PUSH2 0x8D3 JUMPI PUSH2 0x8D3 PUSH2 0x4FE6 JUMP JUMPDEST SWAP1 PUSH1 0x0 MSTORE PUSH1 0x20 PUSH1 0x0 KECCAK256 ADD SLOAD DUP5 DUP3 DUP2 MLOAD DUP2 LT PUSH2 0x8F0 JUMPI PUSH2 0x8F0 PUSH2 0x4FE6 JUMP JUMPDEST PUSH1 0x20 MUL PUSH1 0x20 ADD ADD DUP2 DUP2 MSTORE POP POP PUSH1 0x10 PUSH1 0x0 DUP6 DUP4 DUP2 MLOAD DUP2 LT PUSH2 0x912 JUMPI PUSH2 0x912 PUSH2 0x4FE6 JUMP JUMPDEST PUSH1 0x20 MUL PUSH1 0x20 ADD ADD MLOAD DUP2 MSTORE PUSH1 0x20 ADD SWAP1 DUP2 MSTORE PUSH1 0x20 ADD PUSH1 0x0 KECCAK256 PUSH1 0x0 ADD PUSH1 0x0 SWAP1 SLOAD SWAP1 PUSH2 0x100 EXP SWAP1 DIV PUSH4 0xFFFFFFFF AND DUP4 DUP3 DUP2 MLOAD DUP2 LT PUSH2 0x94E JUMPI PUSH2 0x94E PUSH2 0x4FE6 JUMP JUMPDEST PUSH1 0x20 MUL PUSH1 0x20 ADD ADD SWAP1 PUSH4 0xFFFFFFFF AND SWAP1 DUP2 PUSH4 0xFFFFFFFF AND DUP2 MSTORE POP POP PUSH1 0x0 PUSH20 0xFFFFFFFFFFFFFFFFFFFFFFFFFFFFFFFFFFFFFFFF AND PUSH1 0x10 PUSH1 0x0 DUP7 DUP5 DUP2 MLOAD DUP2 LT PUSH2 0x996 JUMPI PUSH2 0x996 PUSH2 0x4FE6 JUMP JUMPDEST PUSH1 0x20 SWAP1 DUP2 MUL SWAP2 SWAP1 SWAP2 ADD DUP2 ADD MLOAD DUP3 MSTORE DUP2 ADD SWAP2 SWAP1 SWAP2 MSTORE PUSH1 0x40 ADD PUSH1 0x0 KECCAK256 SLOAD PUSH5 0x100000000 SWAP1 DIV PUSH20 0xFFFFFFFFFFFFFFFFFFFFFFFFFFFFFFFFFFFFFFFF AND SUB PUSH2 0x9FD JUMPI PUSH1 0x1 DUP3 DUP3 DUP2 MLOAD DUP2 LT PUSH2 0x9E8 JUMPI PUSH2 0x9E8 PUSH2 0x4FE6 JUMP JUMPDEST SWAP2 ISZERO ISZERO PUSH1 0x20 SWAP3 DUP4 MUL SWAP2 SWAP1 SWAP2 ADD SWAP1 SWAP2 ADD MSTORE PUSH2 0xA22 JUMP JUMPDEST PUSH1 0x0 DUP3 DUP3 DUP2 MLOAD DUP2 LT PUSH2 0xA11 JUMPI PUSH2 0xA11 PUSH2 0x4FE6 JUMP JUMPDEST SWAP2 ISZERO ISZERO PUSH1 0x20 SWAP3 DUP4 MUL SWAP2 SWAP1 SWAP2 ADD SWAP1 SWAP2 ADD MSTORE JUMPDEST DUP1 PUSH2 0xA2C DUP2 PUSH2 0x5015 JUMP JUMPDEST SWAP2 POP POP PUSH2 0x85F JUMP JUMPDEST POP DUP3 DUP3 DUP3 PUSH2 0xA42 DUP9 DUP16 PUSH2 0x4FD3 JUMP JUMPDEST SWAP9 POP SWAP9 POP SWAP9 POP SWAP9 POP POP POP POP POP POP SWAP5 POP SWAP5 POP SWAP5 POP SWAP5 SWAP1 POP JUMP JUMPDEST PUSH1 0xB SLOAD PUSH20 0xFFFFFFFFFFFFFFFFFFFFFFFFFFFFFFFFFFFFFFFF AND CALLER EQ PUSH2 0xB06 JUMPI PUSH1 0x40 MLOAD PUSH32 0x8C379A000000000000000000000000000000000000000000000000000000000 DUP2 MSTORE PUSH1 0x20 PUSH1 0x4 DUP3 ADD MSTORE PUSH1 0x21 PUSH1 0x24 DUP3 ADD MSTORE PUSH32 0x4F6E6C79204F6E6F75742063616E206368616E67652066656520616464726573 PUSH1 0x44 DUP3 ADD MSTORE PUSH32 0x7300000000000000000000000000000000000000000000000000000000000000 PUSH1 0x64 DUP3 ADD MSTORE PUSH1 0x84 ADD JUMPDEST PUSH1 0x40 MLOAD DUP1 SWAP2 SUB SWAP1 REVERT JUMPDEST PUSH1 0xB DUP1 SLOAD PUSH32 0xFFFFFFFFFFFFFFFFFFFFFFFF0000000000000000000000000000000000000000 AND PUSH20 0xFFFFFFFFFFFFFFFFFFFFFFFFFFFFFFFFFFFFFFFF SWAP3 SWAP1 SWAP3 AND SWAP2 SWAP1 SWAP2 OR SWAP1 SSTORE JUMP JUMPDEST PUSH1 0xB SLOAD PUSH20 0xFFFFFFFFFFFFFFFFFFFFFFFFFFFFFFFFFFFFFFFF AND CALLER EQ PUSH2 0xBF4 JUMPI PUSH1 0x40 MLOAD PUSH32 0x8C379A000000000000000000000000000000000000000000000000000000000 DUP2 MSTORE PUSH1 0x20 PUSH1 0x4 DUP3 ADD MSTORE PUSH1 0x29 PUSH1 0x24 DUP3 ADD MSTORE PUSH32 0x4F6E6C79204F6E6F75742063616E20656E61626C652F64697361626C65207365 PUSH1 0x44 DUP3 ADD MSTORE PUSH32 0x7276696365206665650000000000000000000000000000000000000000000000 PUSH1 0x64 DUP3 ADD MSTORE PUSH1 0x84 ADD PUSH2 0xAFD JUMP JUMPDEST PUSH1 0xB DUP1 SLOAD SWAP2 ISZERO ISZERO PUSH21 0x10000000000000000000000000000000000000000 MUL PUSH32 0xFFFFFFFFFFFFFFFFFFFFFF00FFFFFFFFFFFFFFFFFFFFFFFFFFFFFFFFFFFFFFFF SWAP1 SWAP3 AND SWAP2 SWAP1 SWAP2 OR SWAP1 SSTORE JUMP JUMPDEST PUSH1 0x1 SLOAD PUSH20 0xFFFFFFFFFFFFFFFFFFFFFFFFFFFFFFFFFFFFFFFF AND CALLER EQ PUSH2 0xCBF JUMPI PUSH1 0x40 MLOAD PUSH32 0x8C379A000000000000000000000000000000000000000000000000000000000 DUP2 MSTORE PUSH1 0x20 PUSH1 0x4 DUP3 ADD DUP2 SWAP1 MSTORE PUSH1 0x24 DUP3 ADD MSTORE PUSH32 0x4F776E61626C653A2063616C6C6572206973206E6F7420746865206F776E6572 PUSH1 0x44 DUP3 ADD MSTORE PUSH1 0x64 ADD PUSH2 0xAFD JUMP JUMPDEST PUSH1 0x6 DUP2 PUSH4 0xFFFFFFFF AND GT ISZERO PUSH2 0xD30 JUMPI PUSH1 0x40 MLOAD PUSH32 0x8C379A000000000000000000000000000000000000000000000000000000000 DUP2 MSTORE PUSH1 0x20 PUSH1 0x4 DUP3 ADD MSTORE PUSH1 0x19 PUSH1 0x24 DUP3 ADD MSTORE PUSH32 0x6E756D62657273436F756E74206D757374206265203C3D203600000000000000 PUSH1 0x44 DUP3 ADD MSTORE PUSH1 0x64 ADD PUSH2 0xAFD JUMP JUMPDEST PUSH1 0x2 DUP2 PUSH4 0xFFFFFFFF AND LT ISZERO PUSH2 0xDA1 JUMPI PUSH1 0x40 MLOAD PUSH32 0x8C379A000000000000000000000000000000000000000000000000000000000 DUP2 MSTORE PUSH1 0x20 PUSH1 0x4 DUP3 ADD MSTORE PUSH1 0x19 PUSH1 0x24 DUP3 ADD MSTORE PUSH32 0x6E756D62657273436F756E74206D757374206265203E3D203200000000000000 PUSH1 0x44 DUP3 ADD MSTORE PUSH1 0x64 ADD PUSH2 0xAFD JUMP JUMPDEST PUSH1 0x5 SLOAD ISZERO DUP1 PUSH2 0xDD5 JUMPI POP PUSH1 0x3 PUSH1 0x5 SLOAD PUSH1 0x0 SWAP1 DUP2 MSTORE PUSH1 0xF PUSH1 0x20 MSTORE PUSH1 0x40 SWAP1 KECCAK256 SLOAD PUSH1 0xFF AND PUSH1 0x3 DUP2 GT ISZERO PUSH2 0xDD3 JUMPI PUSH2 0xDD3 PUSH2 0x4B5A JUMP JUMPDEST EQ JUMPDEST PUSH2 0xE3B JUMPI PUSH1 0x40 MLOAD PUSH32 0x8C379A000000000000000000000000000000000000000000000000000000000 DUP2 MSTORE PUSH1 0x20 PUSH1 0x4 DUP3 ADD MSTORE PUSH1 0x18 PUSH1 0x24 DUP3 ADD MSTORE PUSH32 0x486173206E6F742066696E6973686564206C6F74746572790000000000000000 PUSH1 0x44 DUP3 ADD MSTORE PUSH1 0x64 ADD PUSH2 0xAFD JUMP JUMPDEST PUSH1 0xE DUP1 SLOAD PUSH32 0xFFFFFFFFFFFFFFFFFFFFFFFFFFFFFFFFFFFFFFFFFFFFFFFFFFFFFFFF00000000 AND PUSH4 0xFFFFFFFF SWAP3 SWAP1 SWAP3 AND SWAP2 SWAP1 SWAP2 OR SWAP1 SSTORE JUMP JUMPDEST PUSH1 0x1 SLOAD PUSH20 0xFFFFFFFFFFFFFFFFFFFFFFFFFFFFFFFFFFFFFFFF AND CALLER EQ DUP1 PUSH2 0xEAF JUMPI POP PUSH1 0x3 SLOAD PUSH20 0xFFFFFFFFFFFFFFFFFFFFFFFFFFFFFFFFFFFFFFFF AND CALLER EQ JUMPDEST PUSH2 0xF15 JUMPI PUSH1 0x40 MLOAD PUSH32 0x8C379A000000000000000000000000000000000000000000000000000000000 DUP2 MSTORE PUSH1 0x20 PUSH1 0x4 DUP3 ADD MSTORE PUSH1 0x15 PUSH1 0x24 DUP3 ADD MSTORE PUSH32 0x4E6F74206F776E6572206F72206F70657261746F720000000000000000000000 PUSH1 0x44 DUP3 ADD MSTORE PUSH1 0x64 ADD PUSH2 0xAFD JUMP JUMPDEST PUSH1 0x2 PUSH1 0x0 SLOAD SUB PUSH2 0xF81 JUMPI PUSH1 0x40 MLOAD PUSH32 0x8C379A000000000000000000000000000000000000000000000000000000000 DUP2 MSTORE PUSH1 0x20 PUSH1 0x4 DUP3 ADD MSTORE PUSH1 0x1F PUSH1 0x24 DUP3 ADD MSTORE PUSH32 0x5265656E7472616E637947756172643A207265656E7472616E742063616C6C00 PUSH1 0x44 DUP3 ADD MSTORE PUSH1 0x64 ADD PUSH2 0xAFD JUMP JUMPDEST PUSH1 0x2 PUSH1 0x0 DUP2 DUP2 SSTORE DUP5 DUP2 MSTORE PUSH1 0xF PUSH1 0x20 MSTORE PUSH1 0x40 SWAP1 KECCAK256 SLOAD PUSH1 0xFF AND PUSH1 0x3 DUP2 GT ISZERO PUSH2 0xFA9 JUMPI PUSH2 0xFA9 PUSH2 0x4B5A JUMP JUMPDEST EQ PUSH2 0x1010 JUMPI PUSH1 0x40 MLOAD PUSH32 0x8C379A000000000000000000000000000000000000000000000000000000000 DUP2 MSTORE PUSH1 0x20 PUSH1 0x4 DUP3 ADD MSTORE PUSH1 0x11 PUSH1 0x24 DUP3 ADD MSTORE PUSH32 0x4C6F7474657279206E6F7420636C6F7365000000000000000000000000000000 PUSH1 0x44 DUP3 ADD MSTORE PUSH1 0x64 ADD PUSH2 0xAFD JUMP JUMPDEST PUSH1 0x0 DUP4 DUP2 MSTORE PUSH1 0xF PUSH1 0x20 MSTORE PUSH1 0x40 DUP2 KECCAK256 PUSH1 0xB ADD SLOAD DUP2 SWAP1 PUSH2 0x2710 SWAP1 PUSH2 0x1032 SWAP1 DUP3 PUSH2 0x4F8B JUMP JUMPDEST PUSH1 0x0 DUP8 DUP2 MSTORE PUSH1 0xF PUSH1 0x20 MSTORE PUSH1 0x40 SWAP1 KECCAK256 PUSH1 0x1A ADD SLOAD PUSH2 0x104E SWAP2 SWAP1 PUSH2 0x504D JUMP JUMPDEST PUSH2 0x1058 SWAP2 SWAP1 PUSH2 0x5093 JUMP JUMPDEST PUSH1 0x0 DUP7 DUP2 MSTORE PUSH1 0xF PUSH1 0x20 SWAP1 DUP2 MSTORE PUSH1 0x40 DUP1 DUP4 KECCAK256 PUSH1 0x18 DUP2 ADD SLOAD PUSH1 0x19 DUP3 ADD SLOAD PUSH1 0x1A SWAP1 SWAP3 ADD SLOAD DUP4 MLOAD TIMESTAMP DUP2 DUP8 ADD MSTORE DUP1 DUP6 ADD DUP13 SWAP1 MSTORE PUSH1 0x60 DUP1 DUP3 ADD DUP15 SWAP1 MSTORE PUSH1 0x80 DUP3 ADD SWAP4 SWAP1 SWAP4 MSTORE PUSH1 0xA0 DUP2 ADD SWAP4 SWAP1 SWAP4 MSTORE PUSH1 0xC0 DUP4 ADD MSTORE PUSH1 0xE0 DUP3 ADD DUP7 SWAP1 MSTORE NUMBER BLOCKHASH PUSH2 0x100 DUP4 ADD MSTORE COINBASE SWAP1 SHL PUSH32 0xFFFFFFFFFFFFFFFFFFFFFFFFFFFFFFFFFFFFFFFF000000000000000000000000 AND PUSH2 0x120 DUP3 ADD MSTORE DIFFICULTY PUSH2 0x134 DUP3 ADD MSTORE GASLIMIT PUSH2 0x154 DUP3 ADD MSTORE GASPRICE PUSH2 0x174 DUP1 DUP4 ADD SWAP2 SWAP1 SWAP2 MSTORE DUP3 MLOAD DUP1 DUP4 SUB SWAP1 SWAP2 ADD DUP2 MSTORE PUSH2 0x194 SWAP1 SWAP2 ADD SWAP1 SWAP2 MSTORE DUP1 MLOAD SWAP2 ADD KECCAK256 SWAP2 SWAP3 POP PUSH2 0x111E PUSH3 0xF4240 DUP4 PUSH2 0x50A7 JUMP JUMPDEST PUSH2 0x112B SWAP1 PUSH3 0xF4240 PUSH2 0x4FD3 JUMP JUMPDEST SWAP1 POP PUSH1 0x0 DUP1 JUMPDEST PUSH1 0xE SLOAD PUSH4 0xFFFFFFFF SWAP1 DUP2 AND SWAP1 DUP3 AND LT ISZERO PUSH2 0x13C1 JUMPI PUSH1 0xE SLOAD PUSH1 0x0 SWAP1 DUP3 SWAP1 PUSH2 0x115F SWAP1 PUSH1 0x1 SWAP1 PUSH4 0xFFFFFFFF AND PUSH2 0x50BB JUMP JUMPDEST PUSH2 0x1169 SWAP2 SWAP1 PUSH2 0x50BB JUMP JUMPDEST SWAP1 POP PUSH1 0x0 PUSH2 0x1178 DUP3 PUSH1 0x1 PUSH2 0x50D8 JUMP JUMPDEST PUSH2 0x1183 SWAP1 PUSH1 0xA PUSH2 0x5206 JUMP JUMPDEST PUSH2 0x118D SWAP1 DUP7 PUSH2 0x521B JUMP JUMPDEST PUSH4 0xFFFFFFFF DUP1 DUP5 AND PUSH1 0x0 SWAP1 DUP2 MSTORE PUSH1 0x11 PUSH1 0x20 MSTORE PUSH1 0x40 SWAP1 KECCAK256 SLOAD PUSH2 0x11AF SWAP3 SWAP2 AND PUSH2 0x50D8 JUMP JUMPDEST PUSH1 0x0 DUP13 DUP2 MSTORE PUSH1 0x12 PUSH1 0x20 SWAP1 DUP2 MSTORE PUSH1 0x40 DUP1 DUP4 KECCAK256 PUSH4 0xFFFFFFFF DUP6 AND DUP5 MSTORE SWAP1 SWAP2 MSTORE SWAP1 KECCAK256 SLOAD SWAP1 SWAP2 POP PUSH2 0x11DD SWAP1 DUP10 SWAP1 PUSH2 0x4F8B JUMP JUMPDEST PUSH1 0x0 DUP13 DUP2 MSTORE PUSH1 0xF PUSH1 0x20 MSTORE PUSH1 0x40 SWAP1 KECCAK256 PUSH1 0x12 ADD PUSH4 0xFFFFFFFF DUP5 AND PUSH1 0x6 DUP2 LT PUSH2 0x1205 JUMPI PUSH2 0x1205 PUSH2 0x4FE6 JUMP JUMPDEST ADD SSTORE PUSH1 0x0 DUP12 DUP2 MSTORE PUSH1 0x12 PUSH1 0x20 SWAP1 DUP2 MSTORE PUSH1 0x40 DUP1 DUP4 KECCAK256 PUSH4 0xFFFFFFFF DUP6 AND DUP5 MSTORE SWAP1 SWAP2 MSTORE SWAP1 KECCAK256 SLOAD PUSH2 0x1232 SWAP1 DUP10 SWAP1 PUSH2 0x4F8B JUMP JUMPDEST ISZERO PUSH2 0x1331 JUMPI PUSH1 0x0 DUP12 DUP2 MSTORE PUSH1 0xF PUSH1 0x20 MSTORE PUSH1 0x40 SWAP1 KECCAK256 PUSH1 0x5 ADD PUSH4 0xFFFFFFFF DUP4 AND PUSH1 0x6 DUP2 LT PUSH2 0x125F JUMPI PUSH2 0x125F PUSH2 0x4FE6 JUMP JUMPDEST ADD SLOAD ISZERO PUSH2 0x132C JUMPI PUSH1 0x0 DUP12 DUP2 MSTORE PUSH1 0x12 PUSH1 0x20 SWAP1 DUP2 MSTORE PUSH1 0x40 DUP1 DUP4 KECCAK256 PUSH4 0xFFFFFFFF DUP6 AND DUP5 MSTORE SWAP1 SWAP2 MSTORE SWAP1 KECCAK256 SLOAD PUSH2 0x2710 SWAP1 PUSH2 0x1295 SWAP1 DUP11 SWAP1 PUSH2 0x4F8B JUMP JUMPDEST PUSH1 0x0 DUP14 DUP2 MSTORE PUSH1 0xF PUSH1 0x20 MSTORE PUSH1 0x40 SWAP1 KECCAK256 DUP10 SWAP1 PUSH1 0x5 ADD PUSH4 0xFFFFFFFF DUP7 AND PUSH1 0x6 DUP2 LT PUSH2 0x12BF JUMPI PUSH2 0x12BF PUSH2 0x4FE6 JUMP JUMPDEST ADD SLOAD PUSH2 0x12CB SWAP2 SWAP1 PUSH2 0x504D JUMP JUMPDEST PUSH2 0x12D5 SWAP2 SWAP1 PUSH2 0x5093 JUMP JUMPDEST PUSH2 0x12DF SWAP2 SWAP1 PUSH2 0x5093 JUMP JUMPDEST PUSH1 0x0 DUP13 DUP2 MSTORE PUSH1 0xF PUSH1 0x20 MSTORE PUSH1 0x40 SWAP1 KECCAK256 PUSH1 0xC ADD PUSH4 0xFFFFFFFF DUP5 AND PUSH1 0x6 DUP2 LT PUSH2 0x1307 JUMPI PUSH2 0x1307 PUSH2 0x4FE6 JUMP JUMPDEST ADD SSTORE PUSH1 0x0 DUP12 DUP2 MSTORE PUSH1 0x12 PUSH1 0x20 SWAP1 DUP2 MSTORE PUSH1 0x40 DUP1 DUP4 KECCAK256 PUSH4 0xFFFFFFFF DUP6 AND DUP5 MSTORE SWAP1 SWAP2 MSTORE SWAP1 KECCAK256 SLOAD SWAP8 POP JUMPDEST PUSH2 0x13AC JUMP JUMPDEST PUSH1 0x0 DUP12 DUP2 MSTORE PUSH1 0xF PUSH1 0x20 MSTORE PUSH1 0x40 DUP2 KECCAK256 PUSH1 0xC ADD PUSH4 0xFFFFFFFF DUP5 AND PUSH1 0x6 DUP2 LT PUSH2 0x1359 JUMPI PUSH2 0x1359 PUSH2 0x4FE6 JUMP JUMPDEST ADD SSTORE PUSH1 0x0 DUP12 DUP2 MSTORE PUSH1 0xF PUSH1 0x20 MSTORE PUSH1 0x40 SWAP1 KECCAK256 PUSH2 0x2710 SWAP1 DUP9 SWAP1 PUSH1 0x5 ADD PUSH4 0xFFFFFFFF DUP6 AND PUSH1 0x6 DUP2 LT PUSH2 0x1389 JUMPI PUSH2 0x1389 PUSH2 0x4FE6 JUMP JUMPDEST ADD SLOAD PUSH2 0x1395 SWAP2 SWAP1 PUSH2 0x504D JUMP JUMPDEST PUSH2 0x139F SWAP2 SWAP1 PUSH2 0x5093 JUMP JUMPDEST PUSH2 0x13A9 SWAP1 DUP6 PUSH2 0x4FD3 JUMP JUMPDEST SWAP4 POP JUMPDEST POP POP DUP1 DUP1 PUSH2 0x13B9 SWAP1 PUSH2 0x523E JUMP JUMPDEST SWAP2 POP POP PUSH2 0x1131 JUMP JUMPDEST POP PUSH1 0x0 DUP9 DUP2 MSTORE PUSH1 0xF PUSH1 0x20 MSTORE PUSH1 0x40 SWAP1 KECCAK256 PUSH1 0x1B DUP2 ADD DUP1 SLOAD PUSH4 0xFFFFFFFF DUP6 AND PUSH32 0xFFFFFFFFFFFFFFFFFFFFFFFFFFFFFFFFFFFFFFFFFFFFFFFFFFFFFFFF00000000 SWAP1 SWAP2 AND OR SWAP1 SSTORE DUP1 SLOAD PUSH32 0xFFFFFFFFFFFFFFFFFFFFFFFFFFFFFFFFFFFFFFFFFFFFFFFFFFFFFFFFFFFFFF00 AND PUSH1 0x3 OR SWAP1 SSTORE DUP6 ISZERO PUSH2 0x1439 JUMPI PUSH1 0xA SSTORE PUSH1 0x0 JUMPDEST PUSH1 0x0 DUP9 DUP2 MSTORE PUSH1 0xF PUSH1 0x20 MSTORE PUSH1 0x40 SWAP1 KECCAK256 PUSH1 0x1A ADD SLOAD PUSH2 0x1456 SWAP1 DUP6 SWAP1 PUSH2 0x4F8B JUMP JUMPDEST PUSH2 0x1460 SWAP1 DUP3 PUSH2 0x4FD3 JUMP JUMPDEST PUSH1 0xB SLOAD SWAP1 SWAP2 POP PUSH21 0x10000000000000000000000000000000000000000 SWAP1 DIV PUSH1 0xFF AND ISZERO PUSH2 0x14E4 JUMPI PUSH1 0xC SLOAD PUSH1 0x0 SWAP1 PUSH2 0x1497 PUSH1 0x64 DUP5 PUSH2 0x5093 JUMP JUMPDEST PUSH2 0x14A1 SWAP2 SWAP1 PUSH2 0x504D JUMP JUMPDEST SWAP1 POP PUSH2 0x14AD DUP2 DUP4 PUSH2 0x4F8B JUMP JUMPDEST PUSH1 0xB SLOAD PUSH1 0xE SLOAD SWAP2 SWAP4 POP PUSH2 0x14E2 SWAP2 PUSH5 0x100000000 SWAP1 DIV PUSH20 0xFFFFFFFFFFFFFFFFFFFFFFFFFFFFFFFFFFFFFFFF SWAP1 DUP2 AND SWAP2 AND DUP4 PUSH2 0x4239 JUMP JUMPDEST POP JUMPDEST PUSH1 0x4 SLOAD PUSH1 0xE SLOAD PUSH2 0x1516 SWAP2 PUSH20 0xFFFFFFFFFFFFFFFFFFFFFFFFFFFFFFFFFFFFFFFF PUSH5 0x100000000 SWAP1 SWAP3 DIV DUP3 AND SWAP2 AND DUP4 PUSH2 0x4239 JUMP JUMPDEST PUSH1 0x5 SLOAD PUSH1 0x40 DUP1 MLOAD PUSH4 0xFFFFFFFF DUP6 AND DUP2 MSTORE PUSH1 0x20 DUP2 ADD DUP9 SWAP1 MSTORE PUSH32 0x98E31A6607B8B15B4D5B91DE54F4C09FFE4C4CF162AA532C70B5213754E2E703 SWAP2 ADD PUSH1 0x40 MLOAD DUP1 SWAP2 SUB SWAP1 LOG2 POP POP PUSH1 0x1 PUSH1 0x0 SSTORE POP POP POP POP POP POP JUMP JUMPDEST PUSH2 0x156F PUSH2 0x4858 JUMP JUMPDEST PUSH1 0x0 DUP3 DUP2 MSTORE PUSH1 0xF PUSH1 0x20 MSTORE PUSH1 0x40 SWAP1 DUP2 SWAP1 KECCAK256 DUP2 MLOAD PUSH2 0x1A0 DUP2 ADD SWAP1 SWAP3 MSTORE DUP1 SLOAD DUP3 SWAP1 PUSH1 0xFF AND PUSH1 0x3 DUP2 GT ISZERO PUSH2 0x15A1 JUMPI PUSH2 0x15A1 PUSH2 0x4B5A JUMP JUMPDEST PUSH1 0x3 DUP2 GT ISZERO PUSH2 0x15B2 JUMPI PUSH2 0x15B2 PUSH2 0x4B5A JUMP JUMPDEST DUP2 MSTORE PUSH1 0x1 DUP3 ADD SLOAD PUSH1 0x20 DUP3 ADD MSTORE PUSH1 0x2 DUP3 ADD SLOAD PUSH1 0x40 DUP1 DUP4 ADD SWAP2 SWAP1 SWAP2 MSTORE PUSH1 0x3 DUP4 ADD SLOAD PUSH1 0x60 DUP4 ADD MSTORE PUSH1 0x4 DUP4 ADD SLOAD PUSH1 0x80 DUP4 ADD MSTORE DUP1 MLOAD PUSH1 0xC0 DUP2 ADD SWAP2 DUP3 SWAP1 MSTORE PUSH1 0xA0 SWAP1 SWAP3 ADD SWAP2 SWAP1 PUSH1 0x5 DUP5 ADD SWAP1 PUSH1 0x6 SWAP1 DUP3 DUP5 JUMPDEST DUP2 SLOAD DUP2 MSTORE PUSH1 0x20 ADD SWAP1 PUSH1 0x1 ADD SWAP1 DUP1 DUP4 GT PUSH2 0x15FC JUMPI POP POP POP SWAP2 DUP4 MSTORE POP POP PUSH1 0xB DUP3 ADD SLOAD PUSH1 0x20 DUP3 ADD MSTORE PUSH1 0x40 DUP1 MLOAD PUSH1 0xC0 DUP2 ADD DUP3 MSTORE SWAP2 ADD SWAP1 PUSH1 0xC DUP4 ADD PUSH1 0x6 DUP3 DUP3 DUP3 PUSH1 0x20 MUL DUP3 ADD SWAP2 JUMPDEST DUP2 SLOAD DUP2 MSTORE PUSH1 0x20 ADD SWAP1 PUSH1 0x1 ADD SWAP1 DUP1 DUP4 GT PUSH2 0x163E JUMPI POP POP POP SWAP2 DUP4 MSTORE POP POP PUSH1 0x40 DUP1 MLOAD PUSH1 0xC0 DUP2 ADD SWAP2 DUP3 SWAP1 MSTORE PUSH1 0x20 SWAP1 SWAP3 ADD SWAP2 SWAP1 PUSH1 0x12 DUP5 ADD SWAP1 PUSH1 0x6 SWAP1 DUP3 DUP5 JUMPDEST DUP2 SLOAD DUP2 MSTORE PUSH1 0x20 ADD SWAP1 PUSH1 0x1 ADD SWAP1 DUP1 DUP4 GT PUSH2 0x1677 JUMPI POP POP POP SWAP2 DUP4 MSTORE POP POP PUSH1 0x18 DUP3 ADD SLOAD PUSH1 0x20 DUP3 ADD MSTORE PUSH1 0x19 DUP3 ADD SLOAD PUSH1 0x40 DUP3 ADD MSTORE PUSH1 0x1A DUP3 ADD SLOAD PUSH1 0x60 DUP3 ADD MSTORE PUSH1 0x1B SWAP1 SWAP2 ADD SLOAD PUSH4 0xFFFFFFFF AND PUSH1 0x80 SWAP1 SWAP2 ADD MSTORE SWAP3 SWAP2 POP POP JUMP JUMPDEST PUSH1 0x1 SLOAD PUSH20 0xFFFFFFFFFFFFFFFFFFFFFFFFFFFFFFFFFFFFFFFF AND CALLER EQ PUSH2 0x1749 JUMPI PUSH1 0x40 MLOAD PUSH32 0x8C379A000000000000000000000000000000000000000000000000000000000 DUP2 MSTORE PUSH1 0x20 PUSH1 0x4 DUP3 ADD DUP2 SWAP1 MSTORE PUSH1 0x24 DUP3 ADD MSTORE PUSH32 0x4F776E61626C653A2063616C6C6572206973206E6F7420746865206F776E6572 PUSH1 0x44 DUP3 ADD MSTORE PUSH1 0x64 ADD PUSH2 0xAFD JUMP JUMPDEST PUSH1 0x14 DUP1 SLOAD SWAP2 ISZERO ISZERO PUSH21 0x10000000000000000000000000000000000000000 MUL PUSH32 0xFFFFFFFFFFFFFFFFFFFFFF00FFFFFFFFFFFFFFFFFFFFFFFFFFFFFFFFFFFFFFFF SWAP1 SWAP3 AND SWAP2 SWAP1 SWAP2 OR SWAP1 SSTORE JUMP JUMPDEST PUSH1 0x14 SLOAD PUSH1 0x0 SWAP1 PUSH21 0x10000000000000000000000000000000000000000 SWAP1 DIV PUSH1 0xFF AND PUSH2 0x17C0 JUMPI POP PUSH1 0x1 SWAP2 SWAP1 POP JUMP JUMPDEST PUSH1 0x14 SLOAD PUSH1 0x40 MLOAD PUSH32 0x70A0823100000000000000000000000000000000000000000000000000000000 DUP2 MSTORE PUSH20 0xFFFFFFFFFFFFFFFFFFFFFFFFFFFFFFFFFFFFFFFF DUP5 DUP2 AND PUSH1 0x4 DUP4 ADD MSTORE PUSH1 0x0 SWAP3 AND SWAP1 PUSH4 0x70A08231 SWAP1 PUSH1 0x24 ADD PUSH1 0x20 PUSH1 0x40 MLOAD DUP1 DUP4 SUB DUP2 DUP7 GAS STATICCALL ISZERO DUP1 ISZERO PUSH2 0x1831 JUMPI RETURNDATASIZE PUSH1 0x0 DUP1 RETURNDATACOPY RETURNDATASIZE PUSH1 0x0 REVERT JUMPDEST POP POP POP POP PUSH1 0x40 MLOAD RETURNDATASIZE PUSH1 0x1F NOT PUSH1 0x1F DUP3 ADD AND DUP3 ADD DUP1 PUSH1 0x40 MSTORE POP DUP2 ADD SWAP1 PUSH2 0x1855 SWAP2 SWAP1 PUSH2 0x5261 JUMP JUMPDEST SWAP1 POP PUSH1 0x0 DUP2 GT PUSH2 0x1866 JUMPI PUSH1 0x0 PUSH2 0x1869 JUMP JUMPDEST PUSH1 0x1 JUMPDEST SWAP4 SWAP3 POP POP POP JUMP JUMPDEST PUSH1 0x0 PUSH1 0x3 PUSH1 0x0 DUP6 DUP2 MSTORE PUSH1 0xF PUSH1 0x20 MSTORE PUSH1 0x40 SWAP1 KECCAK256 SLOAD PUSH1 0xFF AND PUSH1 0x3 DUP2 GT ISZERO PUSH2 0x1897 JUMPI PUSH2 0x1897 PUSH2 0x4B5A JUMP JUMPDEST EQ PUSH2 0x18A4 JUMPI POP PUSH1 0x0 PUSH2 0x1869 JUMP JUMPDEST PUSH1 0x0 DUP5 DUP2 MSTORE PUSH1 0xF PUSH1 0x20 MSTORE PUSH1 0x40 SWAP1 KECCAK256 PUSH1 0x19 ADD SLOAD DUP4 GT DUP1 ISZERO PUSH2 0x18D5 JUMPI POP PUSH1 0x0 DUP5 DUP2 MSTORE PUSH1 0xF PUSH1 0x20 MSTORE PUSH1 0x40 SWAP1 KECCAK256 PUSH1 0x18 ADD SLOAD DUP4 GT ISZERO JUMPDEST ISZERO PUSH2 0x18E2 JUMPI POP PUSH1 0x0 PUSH2 0x1869 JUMP JUMPDEST PUSH2 0x18ED DUP5 DUP5 DUP5 PUSH2 0x4312 JUMP JUMPDEST SWAP5 SWAP4 POP POP POP POP JUMP JUMPDEST PUSH1 0x1 SLOAD PUSH20 0xFFFFFFFFFFFFFFFFFFFFFFFFFFFFFFFFFFFFFFFF AND CALLER EQ PUSH2 0x1976 JUMPI PUSH1 0x40 MLOAD PUSH32 0x8C379A000000000000000000000000000000000000000000000000000000000 DUP2 MSTORE PUSH1 0x20 PUSH1 0x4 DUP3 ADD DUP2 SWAP1 MSTORE PUSH1 0x24 DUP3 ADD MSTORE PUSH32 0x4F776E61626C653A2063616C6C6572206973206E6F7420746865206F776E6572 PUSH1 0x44 DUP3 ADD MSTORE PUSH1 0x64 ADD PUSH2 0xAFD JUMP JUMPDEST PUSH1 0xE SLOAD PUSH20 0xFFFFFFFFFFFFFFFFFFFFFFFFFFFFFFFFFFFFFFFF DUP4 DUP2 AND PUSH5 0x100000000 SWAP1 SWAP3 DIV AND EQ PUSH2 0x1A28 JUMPI PUSH1 0x40 MLOAD PUSH32 0x8C379A000000000000000000000000000000000000000000000000000000000 DUP2 MSTORE PUSH1 0x20 PUSH1 0x4 DUP3 ADD MSTORE PUSH1 0x22 PUSH1 0x24 DUP3 ADD MSTORE PUSH32 0x596F7520646F6E742063616E207265636F766572206C6F747465727920746F6B PUSH1 0x44 DUP3 ADD MSTORE PUSH32 0x656E000000000000000000000000000000000000000000000000000000000000 PUSH1 0x64 DUP3 ADD MSTORE PUSH1 0x84 ADD PUSH2 0xAFD JUMP JUMPDEST PUSH2 0x1A49 PUSH20 0xFFFFFFFFFFFFFFFFFFFFFFFFFFFFFFFFFFFFFFFF DUP4 AND CALLER DUP4 PUSH2 0x4239 JUMP JUMPDEST PUSH1 0x40 DUP1 MLOAD PUSH20 0xFFFFFFFFFFFFFFFFFFFFFFFFFFFFFFFFFFFFFFFF DUP5 AND DUP2 MSTORE PUSH1 0x20 DUP2 ADD DUP4 SWAP1 MSTORE PUSH32 0x74545154AAC348A3EAC92596BD1971957CA94795F4E954EC5F613B55FAB78129 SWAP2 ADD PUSH1 0x40 MLOAD DUP1 SWAP2 SUB SWAP1 LOG1 POP POP JUMP JUMPDEST PUSH1 0x1 SLOAD PUSH20 0xFFFFFFFFFFFFFFFFFFFFFFFFFFFFFFFFFFFFFFFF AND CALLER EQ DUP1 PUSH2 0x1AD9 JUMPI POP PUSH1 0x2 SLOAD PUSH20 0xFFFFFFFFFFFFFFFFFFFFFFFFFFFFFFFFFFFFFFFF AND CALLER EQ JUMPDEST PUSH2 0x1B3F JUMPI PUSH1 0x40 MLOAD PUSH32 0x8C379A000000000000000000000000000000000000000000000000000000000 DUP2 MSTORE PUSH1 0x20 PUSH1 0x4 DUP3 ADD MSTORE PUSH1 0x15 PUSH1 0x24 DUP3 ADD MSTORE PUSH32 0x4E6F74206F776E6572206F7220696E6A6563746F720000000000000000000000 PUSH1 0x44 DUP3 ADD MSTORE PUSH1 0x64 ADD PUSH2 0xAFD JUMP JUMPDEST PUSH1 0x1 PUSH1 0x0 DUP4 DUP2 MSTORE PUSH1 0xF PUSH1 0x20 MSTORE PUSH1 0x40 SWAP1 KECCAK256 SLOAD PUSH1 0xFF AND PUSH1 0x3 DUP2 GT ISZERO PUSH2 0x1B64 JUMPI PUSH2 0x1B64 PUSH2 0x4B5A JUMP JUMPDEST EQ PUSH2 0x1BCB JUMPI PUSH1 0x40 MLOAD PUSH32 0x8C379A000000000000000000000000000000000000000000000000000000000 DUP2 MSTORE PUSH1 0x20 PUSH1 0x4 DUP3 ADD MSTORE PUSH1 0x10 PUSH1 0x24 DUP3 ADD MSTORE PUSH32 0x4C6F7474657279206E6F74206F70656E00000000000000000000000000000000 PUSH1 0x44 DUP3 ADD MSTORE PUSH1 0x64 ADD PUSH2 0xAFD JUMP JUMPDEST PUSH1 0xE SLOAD PUSH2 0x1BF8 SWAP1 PUSH5 0x100000000 SWAP1 DIV PUSH20 0xFFFFFFFFFFFFFFFFFFFFFFFFFFFFFFFFFFFFFFFF AND CALLER ADDRESS DUP5 PUSH2 0x441C JUMP JUMPDEST PUSH1 0x0 DUP3 DUP2 MSTORE PUSH1 0xF PUSH1 0x20 MSTORE PUSH1 0x40 DUP2 KECCAK256 PUSH1 0x1A ADD DUP1 SLOAD DUP4 SWAP3 SWAP1 PUSH2 0x1C19 SWAP1 DUP5 SWAP1 PUSH2 0x4FD3 JUMP JUMPDEST SWAP1 SWAP2 SSTORE POP POP PUSH1 0x40 MLOAD DUP2 DUP2 MSTORE DUP3 SWAP1 PUSH32 0x1BBD659DD628A25F7FF2EABB69C74A56939C539728282275C1C9C1A2D3E34049 SWAP1 PUSH1 0x20 ADD PUSH1 0x40 MLOAD DUP1 SWAP2 SUB SWAP1 LOG2 POP POP JUMP JUMPDEST PUSH1 0x1 SLOAD PUSH20 0xFFFFFFFFFFFFFFFFFFFFFFFFFFFFFFFFFFFFFFFF AND CALLER EQ PUSH2 0x1CD8 JUMPI PUSH1 0x40 MLOAD PUSH32 0x8C379A000000000000000000000000000000000000000000000000000000000 DUP2 MSTORE PUSH1 0x20 PUSH1 0x4 DUP3 ADD DUP2 SWAP1 MSTORE PUSH1 0x24 DUP3 ADD MSTORE PUSH32 0x4F776E61626C653A2063616C6C6572206973206E6F7420746865206F776E6572 PUSH1 0x44 DUP3 ADD MSTORE PUSH1 0x64 ADD PUSH2 0xAFD JUMP JUMPDEST DUP1 PUSH1 0x0 SUB PUSH2 0x1D42 JUMPI PUSH1 0x40 MLOAD PUSH32 0x8C379A000000000000000000000000000000000000000000000000000000000 DUP2 MSTORE PUSH1 0x20 PUSH1 0x4 DUP3 ADD MSTORE PUSH1 0xB PUSH1 0x24 DUP3 ADD MSTORE PUSH32 0x4D757374206265203E2030000000000000000000000000000000000000000000 PUSH1 0x44 DUP3 ADD MSTORE PUSH1 0x64 ADD PUSH2 0xAFD JUMP JUMPDEST PUSH1 0x7 SSTORE JUMP JUMPDEST PUSH1 0x1 SLOAD PUSH20 0xFFFFFFFFFFFFFFFFFFFFFFFFFFFFFFFFFFFFFFFF AND CALLER EQ PUSH2 0x1DC8 JUMPI PUSH1 0x40 MLOAD PUSH32 0x8C379A000000000000000000000000000000000000000000000000000000000 DUP2 MSTORE PUSH1 0x20 PUSH1 0x4 DUP3 ADD DUP2 SWAP1 MSTORE PUSH1 0x24 DUP3 ADD MSTORE PUSH32 0x4F776E61626C653A2063616C6C6572206973206E6F7420746865206F776E6572 PUSH1 0x44 DUP3 ADD MSTORE PUSH1 0x64 ADD PUSH2 0xAFD JUMP JUMPDEST PUSH1 0x1 SLOAD PUSH1 0x40 MLOAD PUSH1 0x0 SWAP2 PUSH20 0xFFFFFFFFFFFFFFFFFFFFFFFFFFFFFFFFFFFFFFFF AND SWAP1 PUSH32 0x8BE0079C531659141344CD1FD0A4F28419497F9722A3DAAFE3B4186F6B6457E0 SWAP1 DUP4 SWAP1 LOG3 PUSH1 0x1 DUP1 SLOAD PUSH32 0xFFFFFFFFFFFFFFFFFFFFFFFF0000000000000000000000000000000000000000 AND SWAP1 SSTORE JUMP JUMPDEST CALLER EXTCODESIZE ISZERO PUSH2 0x1EA0 JUMPI PUSH1 0x40 MLOAD PUSH32 0x8C379A000000000000000000000000000000000000000000000000000000000 DUP2 MSTORE PUSH1 0x20 PUSH1 0x4 DUP3 ADD MSTORE PUSH1 0x14 PUSH1 0x24 DUP3 ADD MSTORE PUSH32 0x436F6E7472616374206E6F7420616C6C6F776564000000000000000000000000 PUSH1 0x44 DUP3 ADD MSTORE PUSH1 0x64 ADD PUSH2 0xAFD JUMP JUMPDEST CALLER ORIGIN EQ PUSH2 0x1F09 JUMPI PUSH1 0x40 MLOAD PUSH32 0x8C379A000000000000000000000000000000000000000000000000000000000 DUP2 MSTORE PUSH1 0x20 PUSH1 0x4 DUP3 ADD MSTORE PUSH1 0x1A PUSH1 0x24 DUP3 ADD MSTORE PUSH32 0x50726F787920636F6E7472616374206E6F7420616C6C6F776564000000000000 PUSH1 0x44 DUP3 ADD MSTORE PUSH1 0x64 ADD PUSH2 0xAFD JUMP JUMPDEST PUSH1 0x2 PUSH1 0x0 SLOAD SUB PUSH2 0x1F75 JUMPI PUSH1 0x40 MLOAD PUSH32 0x8C379A000000000000000000000000000000000000000000000000000000000 DUP2 MSTORE PUSH1 0x20 PUSH1 0x4 DUP3 ADD MSTORE PUSH1 0x1F PUSH1 0x24 DUP3 ADD MSTORE PUSH32 0x5265656E7472616E637947756172643A207265656E7472616E742063616C6C00 PUSH1 0x44 DUP3 ADD MSTORE PUSH1 0x64 ADD PUSH2 0xAFD JUMP JUMPDEST PUSH1 0x2 PUSH1 0x0 SSTORE PUSH2 0x1F82 PUSH2 0x4480 JUMP JUMPDEST PUSH1 0x0 DUP2 SWAP1 SUB PUSH2 0x1FED JUMPI PUSH1 0x40 MLOAD PUSH32 0x8C379A000000000000000000000000000000000000000000000000000000000 DUP2 MSTORE PUSH1 0x20 PUSH1 0x4 DUP3 ADD MSTORE PUSH1 0x13 PUSH1 0x24 DUP3 ADD MSTORE PUSH32 0x4E6F207469636B65742073706563696669656400000000000000000000000000 PUSH1 0x44 DUP3 ADD MSTORE PUSH1 0x64 ADD PUSH2 0xAFD JUMP JUMPDEST PUSH1 0x7 SLOAD DUP2 GT ISZERO PUSH2 0x2059 JUMPI PUSH1 0x40 MLOAD PUSH32 0x8C379A000000000000000000000000000000000000000000000000000000000 DUP2 MSTORE PUSH1 0x20 PUSH1 0x4 DUP3 ADD MSTORE PUSH1 0x10 PUSH1 0x24 DUP3 ADD MSTORE PUSH32 0x546F6F206D616E79207469636B65747300000000000000000000000000000000 PUSH1 0x44 DUP3 ADD MSTORE PUSH1 0x64 ADD PUSH2 0xAFD JUMP JUMPDEST PUSH1 0x1 PUSH1 0x0 DUP5 DUP2 MSTORE PUSH1 0xF PUSH1 0x20 MSTORE PUSH1 0x40 SWAP1 KECCAK256 SLOAD PUSH1 0xFF AND PUSH1 0x3 DUP2 GT ISZERO PUSH2 0x207E JUMPI PUSH2 0x207E PUSH2 0x4B5A JUMP JUMPDEST EQ PUSH2 0x20E5 JUMPI PUSH1 0x40 MLOAD PUSH32 0x8C379A000000000000000000000000000000000000000000000000000000000 DUP2 MSTORE PUSH1 0x20 PUSH1 0x4 DUP3 ADD MSTORE PUSH1 0x13 PUSH1 0x24 DUP3 ADD MSTORE PUSH32 0x4C6F7474657279206973206E6F74206F70656E00000000000000000000000000 PUSH1 0x44 DUP3 ADD MSTORE PUSH1 0x64 ADD PUSH2 0xAFD JUMP JUMPDEST PUSH1 0x0 DUP4 DUP2 MSTORE PUSH1 0xF PUSH1 0x20 MSTORE PUSH1 0x40 SWAP1 KECCAK256 PUSH1 0x2 ADD SLOAD TIMESTAMP LT PUSH2 0x215F JUMPI PUSH1 0x40 MLOAD PUSH32 0x8C379A000000000000000000000000000000000000000000000000000000000 DUP2 MSTORE PUSH1 0x20 PUSH1 0x4 DUP3 ADD MSTORE PUSH1 0xF PUSH1 0x24 DUP3 ADD MSTORE PUSH32 0x4C6F7474657279206973206F7665720000000000000000000000000000000000 PUSH1 0x44 DUP3 ADD MSTORE PUSH1 0x64 ADD PUSH2 0xAFD JUMP JUMPDEST PUSH1 0x0 DUP4 DUP2 MSTORE PUSH1 0xF PUSH1 0x20 MSTORE PUSH1 0x40 DUP2 KECCAK256 PUSH1 0x4 DUP2 ADD SLOAD PUSH1 0x3 SWAP1 SWAP2 ADD SLOAD PUSH2 0x2183 SWAP2 SWAP1 DUP5 PUSH2 0x45C9 JUMP JUMPDEST PUSH1 0xE SLOAD SWAP1 SWAP2 POP PUSH2 0x21B3 SWAP1 PUSH5 0x100000000 SWAP1 DIV PUSH20 0xFFFFFFFFFFFFFFFFFFFFFFFFFFFFFFFFFFFFFFFF AND CALLER ADDRESS DUP5 PUSH2 0x441C JUMP JUMPDEST PUSH1 0x0 DUP5 DUP2 MSTORE PUSH1 0xF PUSH1 0x20 MSTORE PUSH1 0x40 DUP2 KECCAK256 PUSH1 0x1A ADD DUP1 SLOAD DUP4 SWAP3 SWAP1 PUSH2 0x21D4 SWAP1 DUP5 SWAP1 PUSH2 0x4FD3 JUMP JUMPDEST SWAP1 SWAP2 SSTORE POP PUSH1 0x0 SWAP1 POP JUMPDEST DUP3 DUP2 LT ISZERO PUSH2 0x256B JUMPI PUSH1 0x0 DUP5 DUP5 DUP4 DUP2 DUP2 LT PUSH2 0x21F9 JUMPI PUSH2 0x21F9 PUSH2 0x4FE6 JUMP JUMPDEST SWAP1 POP PUSH1 0x20 MUL ADD PUSH1 0x20 DUP2 ADD SWAP1 PUSH2 0x220E SWAP2 SWAP1 PUSH2 0x4AED JUMP JUMPDEST SWAP1 POP PUSH2 0x221C PUSH1 0x6 PUSH1 0xA PUSH2 0x527A JUMP JUMPDEST PUSH2 0x2226 SWAP1 DUP3 PUSH2 0x50BB JUMP JUMPDEST PUSH2 0x2233 SWAP1 PUSH3 0xF4240 PUSH2 0x50D8 JUMP JUMPDEST SWAP1 POP PUSH3 0xF4240 DUP2 PUSH4 0xFFFFFFFF AND LT ISZERO DUP1 ISZERO PUSH2 0x2257 JUMPI POP PUSH3 0x1E847F DUP2 PUSH4 0xFFFFFFFF AND GT ISZERO JUMPDEST PUSH2 0x22BD JUMPI PUSH1 0x40 MLOAD PUSH32 0x8C379A000000000000000000000000000000000000000000000000000000000 DUP2 MSTORE PUSH1 0x20 PUSH1 0x4 DUP3 ADD MSTORE PUSH1 0xD PUSH1 0x24 DUP3 ADD MSTORE PUSH32 0x4F7574736964652072616E676500000000000000000000000000000000000000 PUSH1 0x44 DUP3 ADD MSTORE PUSH1 0x64 ADD PUSH2 0xAFD JUMP JUMPDEST PUSH1 0x0 DUP7 DUP2 MSTORE PUSH1 0x12 PUSH1 0x20 MSTORE PUSH1 0x40 DUP2 KECCAK256 SWAP1 PUSH2 0x22D7 PUSH1 0xA DUP5 PUSH2 0x521B JUMP JUMPDEST PUSH2 0x22E2 SWAP1 PUSH1 0x1 PUSH2 0x50D8 JUMP JUMPDEST PUSH4 0xFFFFFFFF AND DUP2 MSTORE PUSH1 0x20 DUP2 ADD SWAP2 SWAP1 SWAP2 MSTORE PUSH1 0x40 ADD PUSH1 0x0 SWAP1 DUP2 KECCAK256 DUP1 SLOAD SWAP2 PUSH2 0x2306 DUP4 PUSH2 0x5015 JUMP JUMPDEST SWAP1 SWAP2 SSTORE POP POP PUSH1 0x0 DUP7 DUP2 MSTORE PUSH1 0x12 PUSH1 0x20 MSTORE PUSH1 0x40 DUP2 KECCAK256 SWAP1 PUSH2 0x2325 PUSH1 0x64 DUP5 PUSH2 0x521B JUMP JUMPDEST PUSH2 0x2330 SWAP1 PUSH1 0xB PUSH2 0x50D8 JUMP JUMPDEST PUSH4 0xFFFFFFFF AND DUP2 MSTORE PUSH1 0x20 DUP2 ADD SWAP2 SWAP1 SWAP2 MSTORE PUSH1 0x40 ADD PUSH1 0x0 SWAP1 DUP2 KECCAK256 DUP1 SLOAD SWAP2 PUSH2 0x2354 DUP4 PUSH2 0x5015 JUMP JUMPDEST SWAP1 SWAP2 SSTORE POP POP PUSH1 0x0 DUP7 DUP2 MSTORE PUSH1 0x12 PUSH1 0x20 MSTORE PUSH1 0x40 DUP2 KECCAK256 SWAP1 PUSH2 0x2374 PUSH2 0x3E8 DUP5 PUSH2 0x521B JUMP JUMPDEST PUSH2 0x237F SWAP1 PUSH1 0x6F PUSH2 0x50D8 JUMP JUMPDEST PUSH4 0xFFFFFFFF AND DUP2 MSTORE PUSH1 0x20 DUP2 ADD SWAP2 SWAP1 SWAP2 MSTORE PUSH1 0x40 ADD PUSH1 0x0 SWAP1 DUP2 KECCAK256 DUP1 SLOAD SWAP2 PUSH2 0x23A3 DUP4 PUSH2 0x5015 JUMP JUMPDEST SWAP1 SWAP2 SSTORE POP POP PUSH1 0x0 DUP7 DUP2 MSTORE PUSH1 0x12 PUSH1 0x20 MSTORE PUSH1 0x40 DUP2 KECCAK256 SWAP1 PUSH2 0x23C3 PUSH2 0x2710 DUP5 PUSH2 0x521B JUMP JUMPDEST PUSH2 0x23CF SWAP1 PUSH2 0x457 PUSH2 0x50D8 JUMP JUMPDEST PUSH4 0xFFFFFFFF AND DUP2 MSTORE PUSH1 0x20 DUP2 ADD SWAP2 SWAP1 SWAP2 MSTORE PUSH1 0x40 ADD PUSH1 0x0 SWAP1 DUP2 KECCAK256 DUP1 SLOAD SWAP2 PUSH2 0x23F3 DUP4 PUSH2 0x5015 JUMP JUMPDEST SWAP1 SWAP2 SSTORE POP POP PUSH1 0x0 DUP7 DUP2 MSTORE PUSH1 0x12 PUSH1 0x20 MSTORE PUSH1 0x40 DUP2 KECCAK256 SWAP1 PUSH2 0x2414 PUSH3 0x186A0 DUP5 PUSH2 0x521B JUMP JUMPDEST PUSH2 0x2420 SWAP1 PUSH2 0x2B67 PUSH2 0x50D8 JUMP JUMPDEST PUSH4 0xFFFFFFFF AND DUP2 MSTORE PUSH1 0x20 DUP2 ADD SWAP2 SWAP1 SWAP2 MSTORE PUSH1 0x40 ADD PUSH1 0x0 SWAP1 DUP2 KECCAK256 DUP1 SLOAD SWAP2 PUSH2 0x2444 DUP4 PUSH2 0x5015 JUMP JUMPDEST SWAP1 SWAP2 SSTORE POP POP PUSH1 0x0 DUP7 DUP2 MSTORE PUSH1 0x12 PUSH1 0x20 MSTORE PUSH1 0x40 DUP2 KECCAK256 SWAP1 PUSH2 0x2465 PUSH3 0xF4240 DUP5 PUSH2 0x521B JUMP JUMPDEST PUSH2 0x2472 SWAP1 PUSH3 0x1B207 PUSH2 0x50D8 JUMP JUMPDEST PUSH4 0xFFFFFFFF AND DUP2 MSTORE PUSH1 0x20 DUP2 ADD SWAP2 SWAP1 SWAP2 MSTORE PUSH1 0x40 ADD PUSH1 0x0 SWAP1 DUP2 KECCAK256 DUP1 SLOAD SWAP2 PUSH2 0x2496 DUP4 PUSH2 0x5015 JUMP JUMPDEST SWAP1 SWAP2 SSTORE POP POP CALLER PUSH1 0x0 DUP2 DUP2 MSTORE PUSH1 0x13 PUSH1 0x20 SWAP1 DUP2 MSTORE PUSH1 0x40 DUP1 DUP4 KECCAK256 DUP11 DUP5 MSTORE DUP3 MSTORE DUP1 DUP4 KECCAK256 PUSH1 0x6 DUP1 SLOAD DUP3 SLOAD PUSH1 0x1 DUP2 ADD DUP5 SSTORE SWAP3 DUP7 MSTORE DUP5 DUP7 KECCAK256 SWAP1 SWAP3 ADD SWAP2 SWAP1 SWAP2 SSTORE DUP2 MLOAD DUP1 DUP4 ADD DUP4 MSTORE PUSH4 0xFFFFFFFF DUP1 DUP9 AND DUP3 MSTORE DUP2 DUP6 ADD SWAP7 DUP8 MSTORE DUP3 SLOAD DUP7 MSTORE PUSH1 0x10 SWAP1 SWAP5 MSTORE SWAP2 DUP5 KECCAK256 SWAP2 MLOAD DUP3 SLOAD SWAP6 MLOAD PUSH20 0xFFFFFFFFFFFFFFFFFFFFFFFFFFFFFFFFFFFFFFFF AND PUSH5 0x100000000 MUL PUSH32 0xFFFFFFFFFFFFFFFF000000000000000000000000000000000000000000000000 SWAP1 SWAP7 AND SWAP4 AND SWAP3 SWAP1 SWAP3 OR SWAP4 SWAP1 SWAP4 OR SWAP1 SWAP3 SSTORE DUP2 SLOAD SWAP2 SWAP1 PUSH2 0x2552 DUP4 PUSH2 0x5015 JUMP JUMPDEST SWAP2 SWAP1 POP SSTORE POP POP DUP1 DUP1 PUSH2 0x2563 SWAP1 PUSH2 0x5015 JUMP JUMPDEST SWAP2 POP POP PUSH2 0x21DD JUMP JUMPDEST POP PUSH1 0x40 MLOAD DUP3 DUP2 MSTORE DUP5 SWAP1 CALLER SWAP1 PUSH32 0xD7D247B583DE1023852EEF87B48F54354DBEC771D01BC2CC49E96094EFC322B9 SWAP1 PUSH1 0x20 ADD PUSH1 0x40 MLOAD DUP1 SWAP2 SUB SWAP1 LOG3 POP POP PUSH1 0x1 PUSH1 0x0 SSTORE POP POP JUMP JUMPDEST PUSH1 0x60 DUP1 DUP3 PUSH1 0x0 DUP2 PUSH8 0xFFFFFFFFFFFFFFFF DUP2 GT ISZERO PUSH2 0x25CD JUMPI PUSH2 0x25CD PUSH2 0x4FA4 JUMP JUMPDEST PUSH1 0x40 MLOAD SWAP1 DUP1 DUP3 MSTORE DUP1 PUSH1 0x20 MUL PUSH1 0x20 ADD DUP3 ADD PUSH1 0x40 MSTORE DUP1 ISZERO PUSH2 0x25F6 JUMPI DUP2 PUSH1 0x20 ADD PUSH1 0x20 DUP3 MUL DUP1 CALLDATASIZE DUP4 CALLDATACOPY ADD SWAP1 POP JUMPDEST POP SWAP1 POP PUSH1 0x0 DUP3 PUSH8 0xFFFFFFFFFFFFFFFF DUP2 GT ISZERO PUSH2 0x2614 JUMPI PUSH2 0x2614 PUSH2 0x4FA4 JUMP JUMPDEST PUSH1 0x40 MLOAD SWAP1 DUP1 DUP3 MSTORE DUP1 PUSH1 0x20 MUL PUSH1 0x20 ADD DUP3 ADD PUSH1 0x40 MSTORE DUP1 ISZERO PUSH2 0x263D JUMPI DUP2 PUSH1 0x20 ADD PUSH1 0x20 DUP3 MUL DUP1 CALLDATASIZE DUP4 CALLDATACOPY ADD SWAP1 POP JUMPDEST POP SWAP1 POP PUSH1 0x0 JUMPDEST DUP4 DUP2 LT ISZERO PUSH2 0x2765 JUMPI PUSH1 0x10 PUSH1 0x0 DUP10 DUP10 DUP5 DUP2 DUP2 LT PUSH2 0x2661 JUMPI PUSH2 0x2661 PUSH2 0x4FE6 JUMP JUMPDEST SWAP1 POP PUSH1 0x20 MUL ADD CALLDATALOAD DUP2 MSTORE PUSH1 0x20 ADD SWAP1 DUP2 MSTORE PUSH1 0x20 ADD PUSH1 0x0 KECCAK256 PUSH1 0x0 ADD PUSH1 0x0 SWAP1 SLOAD SWAP1 PUSH2 0x100 EXP SWAP1 DIV PUSH4 0xFFFFFFFF AND DUP4 DUP3 DUP2 MLOAD DUP2 LT PUSH2 0x269C JUMPI PUSH2 0x269C PUSH2 0x4FE6 JUMP JUMPDEST PUSH4 0xFFFFFFFF SWAP1 SWAP3 AND PUSH1 0x20 SWAP3 DUP4 MUL SWAP2 SWAP1 SWAP2 ADD SWAP1 SWAP2 ADD MSTORE PUSH1 0x0 PUSH1 0x10 DUP2 DUP11 DUP11 DUP6 DUP2 DUP2 LT PUSH2 0x26C8 JUMPI PUSH2 0x26C8 PUSH2 0x4FE6 JUMP JUMPDEST PUSH1 0x20 SWAP1 DUP2 MUL SWAP3 SWAP1 SWAP3 ADD CALLDATALOAD DUP4 MSTORE POP DUP2 ADD SWAP2 SWAP1 SWAP2 MSTORE PUSH1 0x40 ADD PUSH1 0x0 KECCAK256 SLOAD PUSH5 0x100000000 SWAP1 DIV PUSH20 0xFFFFFFFFFFFFFFFFFFFFFFFFFFFFFFFFFFFFFFFF AND SUB PUSH2 0x272E JUMPI PUSH1 0x1 DUP3 DUP3 DUP2 MLOAD DUP2 LT PUSH2 0x2719 JUMPI PUSH2 0x2719 PUSH2 0x4FE6 JUMP JUMPDEST SWAP2 ISZERO ISZERO PUSH1 0x20 SWAP3 DUP4 MUL SWAP2 SWAP1 SWAP2 ADD SWAP1 SWAP2 ADD MSTORE PUSH2 0x2753 JUMP JUMPDEST PUSH1 0x0 DUP3 DUP3 DUP2 MLOAD DUP2 LT PUSH2 0x2742 JUMPI PUSH2 0x2742 PUSH2 0x4FE6 JUMP JUMPDEST SWAP2 ISZERO ISZERO PUSH1 0x20 SWAP3 DUP4 MUL SWAP2 SWAP1 SWAP2 ADD SWAP1 SWAP2 ADD MSTORE JUMPDEST DUP1 PUSH2 0x275D DUP2 PUSH2 0x5015 JUMP JUMPDEST SWAP2 POP POP PUSH2 0x2643 JUMP JUMPDEST POP SWAP1 SWAP4 POP SWAP2 POP POP JUMPDEST SWAP3 POP SWAP3 SWAP1 POP JUMP JUMPDEST PUSH1 0x1 SLOAD PUSH20 0xFFFFFFFFFFFFFFFFFFFFFFFFFFFFFFFFFFFFFFFF AND CALLER EQ DUP1 PUSH2 0x27B1 JUMPI POP PUSH1 0x3 SLOAD PUSH20 0xFFFFFFFFFFFFFFFFFFFFFFFFFFFFFFFFFFFFFFFF AND CALLER EQ JUMPDEST PUSH2 0x2817 JUMPI PUSH1 0x40 MLOAD PUSH32 0x8C379A000000000000000000000000000000000000000000000000000000000 DUP2 MSTORE PUSH1 0x20 PUSH1 0x4 DUP3 ADD MSTORE PUSH1 0x15 PUSH1 0x24 DUP3 ADD MSTORE PUSH32 0x4E6F74206F776E6572206F72206F70657261746F720000000000000000000000 PUSH1 0x44 DUP3 ADD MSTORE PUSH1 0x64 ADD PUSH2 0xAFD JUMP JUMPDEST PUSH1 0x2 PUSH1 0x0 SLOAD SUB PUSH2 0x2883 JUMPI PUSH1 0x40 MLOAD PUSH32 0x8C379A000000000000000000000000000000000000000000000000000000000 DUP2 MSTORE PUSH1 0x20 PUSH1 0x4 DUP3 ADD MSTORE PUSH1 0x1F PUSH1 0x24 DUP3 ADD MSTORE PUSH32 0x5265656E7472616E637947756172643A207265656E7472616E742063616C6C00 PUSH1 0x44 DUP3 ADD MSTORE PUSH1 0x64 ADD PUSH2 0xAFD JUMP JUMPDEST PUSH1 0x2 PUSH1 0x0 SSTORE PUSH1 0x1 PUSH1 0x0 DUP3 DUP2 MSTORE PUSH1 0xF PUSH1 0x20 MSTORE PUSH1 0x40 SWAP1 KECCAK256 SLOAD PUSH1 0xFF AND PUSH1 0x3 DUP2 GT ISZERO PUSH2 0x28AD JUMPI PUSH2 0x28AD PUSH2 0x4B5A JUMP JUMPDEST EQ PUSH2 0x2914 JUMPI PUSH1 0x40 MLOAD PUSH32 0x8C379A000000000000000000000000000000000000000000000000000000000 DUP2 MSTORE PUSH1 0x20 PUSH1 0x4 DUP3 ADD MSTORE PUSH1 0x10 PUSH1 0x24 DUP3 ADD MSTORE PUSH32 0x4C6F7474657279206E6F74206F70656E00000000000000000000000000000000 PUSH1 0x44 DUP3 ADD MSTORE PUSH1 0x64 ADD PUSH2 0xAFD JUMP JUMPDEST PUSH1 0x0 DUP2 DUP2 MSTORE PUSH1 0xF PUSH1 0x20 MSTORE PUSH1 0x40 SWAP1 KECCAK256 PUSH1 0x2 ADD SLOAD TIMESTAMP GT PUSH2 0x298E JUMPI PUSH1 0x40 MLOAD PUSH32 0x8C379A000000000000000000000000000000000000000000000000000000000 DUP2 MSTORE PUSH1 0x20 PUSH1 0x4 DUP3 ADD MSTORE PUSH1 0x10 PUSH1 0x24 DUP3 ADD MSTORE PUSH32 0x4C6F7474657279206E6F74206F76657200000000000000000000000000000000 PUSH1 0x44 DUP3 ADD MSTORE PUSH1 0x64 ADD PUSH2 0xAFD JUMP JUMPDEST PUSH1 0x6 SLOAD PUSH1 0x0 DUP3 DUP2 MSTORE PUSH1 0xF PUSH1 0x20 MSTORE PUSH1 0x40 SWAP1 KECCAK256 PUSH1 0x19 DUP2 ADD SWAP2 SWAP1 SWAP2 SSTORE DUP1 SLOAD PUSH1 0x2 SWAP2 SWAP1 PUSH32 0xFFFFFFFFFFFFFFFFFFFFFFFFFFFFFFFFFFFFFFFFFFFFFFFFFFFFFFFFFFFFFF00 AND PUSH1 0x1 DUP4 MUL OR SWAP1 SSTORE POP DUP1 PUSH32 0x3728E75294796694D59D2FFCED9C394279BAF7B9EBD2702DB43F5F04BAC67929 PUSH1 0x6 SLOAD PUSH1 0x40 MLOAD PUSH2 0x2A0B SWAP2 DUP2 MSTORE PUSH1 0x20 ADD SWAP1 JUMP JUMPDEST PUSH1 0x40 MLOAD DUP1 SWAP2 SUB SWAP1 LOG2 POP PUSH1 0x1 PUSH1 0x0 SSTORE JUMP JUMPDEST PUSH1 0x1 SLOAD PUSH20 0xFFFFFFFFFFFFFFFFFFFFFFFFFFFFFFFFFFFFFFFF AND CALLER EQ PUSH2 0x2A9C JUMPI PUSH1 0x40 MLOAD PUSH32 0x8C379A000000000000000000000000000000000000000000000000000000000 DUP2 MSTORE PUSH1 0x20 PUSH1 0x4 DUP3 ADD DUP2 SWAP1 MSTORE PUSH1 0x24 DUP3 ADD MSTORE PUSH32 0x4F776E61626C653A2063616C6C6572206973206E6F7420746865206F776E6572 PUSH1 0x44 DUP3 ADD MSTORE PUSH1 0x64 ADD PUSH2 0xAFD JUMP JUMPDEST PUSH1 0x14 DUP1 SLOAD PUSH32 0xFFFFFFFFFFFFFFFFFFFFFFFF0000000000000000000000000000000000000000 AND PUSH20 0xFFFFFFFFFFFFFFFFFFFFFFFFFFFFFFFFFFFFFFFF SWAP3 SWAP1 SWAP3 AND SWAP2 SWAP1 SWAP2 OR SWAP1 SSTORE JUMP JUMPDEST PUSH1 0x1 SLOAD PUSH20 0xFFFFFFFFFFFFFFFFFFFFFFFFFFFFFFFFFFFFFFFF AND CALLER EQ DUP1 PUSH2 0x2B20 JUMPI POP PUSH1 0x3 SLOAD PUSH20 0xFFFFFFFFFFFFFFFFFFFFFFFFFFFFFFFFFFFFFFFF AND CALLER EQ JUMPDEST PUSH2 0x2B86 JUMPI PUSH1 0x40 MLOAD PUSH32 0x8C379A000000000000000000000000000000000000000000000000000000000 DUP2 MSTORE PUSH1 0x20 PUSH1 0x4 DUP3 ADD MSTORE PUSH1 0x15 PUSH1 0x24 DUP3 ADD MSTORE PUSH32 0x4E6F74206F776E6572206F72206F70657261746F720000000000000000000000 PUSH1 0x44 DUP3 ADD MSTORE PUSH1 0x64 ADD PUSH2 0xAFD JUMP JUMPDEST PUSH1 0x5 SLOAD ISZERO DUP1 PUSH2 0x2BBA JUMPI POP PUSH1 0x3 PUSH1 0x5 SLOAD PUSH1 0x0 SWAP1 DUP2 MSTORE PUSH1 0xF PUSH1 0x20 MSTORE PUSH1 0x40 SWAP1 KECCAK256 SLOAD PUSH1 0xFF AND PUSH1 0x3 DUP2 GT ISZERO PUSH2 0x2BB8 JUMPI PUSH2 0x2BB8 PUSH2 0x4B5A JUMP JUMPDEST EQ JUMPDEST PUSH2 0x2C20 JUMPI PUSH1 0x40 MLOAD PUSH32 0x8C379A000000000000000000000000000000000000000000000000000000000 DUP2 MSTORE PUSH1 0x20 PUSH1 0x4 DUP3 ADD MSTORE PUSH1 0x19 PUSH1 0x24 DUP3 ADD MSTORE PUSH32 0x4E6F742074696D6520746F207374617274206C6F747465727900000000000000 PUSH1 0x44 DUP3 ADD MSTORE PUSH1 0x64 ADD PUSH2 0xAFD JUMP JUMPDEST PUSH2 0x12C PUSH2 0x2C2D TIMESTAMP DUP8 PUSH2 0x4F8B JUMP JUMPDEST GT DUP1 ISZERO PUSH2 0x2C45 JUMPI POP PUSH3 0x28DFAC PUSH2 0x2C43 TIMESTAMP DUP8 PUSH2 0x4F8B JUMP JUMPDEST LT JUMPDEST PUSH2 0x2CAB JUMPI PUSH1 0x40 MLOAD PUSH32 0x8C379A000000000000000000000000000000000000000000000000000000000 DUP2 MSTORE PUSH1 0x20 PUSH1 0x4 DUP3 ADD MSTORE PUSH1 0x1F PUSH1 0x24 DUP3 ADD MSTORE PUSH32 0x4C6F7474657279206C656E677468206F757473696465206F662072616E676500 PUSH1 0x44 DUP3 ADD MSTORE PUSH1 0x64 ADD PUSH2 0xAFD JUMP JUMPDEST PUSH2 0x12C DUP4 LT ISZERO PUSH2 0x2D17 JUMPI PUSH1 0x40 MLOAD PUSH32 0x8C379A000000000000000000000000000000000000000000000000000000000 DUP2 MSTORE PUSH1 0x20 PUSH1 0x4 DUP3 ADD MSTORE PUSH1 0x18 PUSH1 0x24 DUP3 ADD MSTORE PUSH32 0x446973636F756E742064697669736F7220746F6F206C6F770000000000000000 PUSH1 0x44 DUP3 ADD MSTORE PUSH1 0x64 ADD PUSH2 0xAFD JUMP JUMPDEST PUSH2 0xBB8 DUP2 GT ISZERO PUSH2 0x2D83 JUMPI PUSH1 0x40 MLOAD PUSH32 0x8C379A000000000000000000000000000000000000000000000000000000000 DUP2 MSTORE PUSH1 0x20 PUSH1 0x4 DUP3 ADD MSTORE PUSH1 0x15 PUSH1 0x24 DUP3 ADD MSTORE PUSH32 0x54726561737572792066656520746F6F20686967680000000000000000000000 PUSH1 0x44 DUP3 ADD MSTORE PUSH1 0x64 ADD PUSH2 0xAFD JUMP JUMPDEST PUSH1 0xA0 DUP3 ADD CALLDATALOAD PUSH1 0x80 DUP4 ADD CALLDATALOAD PUSH1 0x60 DUP5 ADD CALLDATALOAD PUSH1 0x40 DUP6 ADD CALLDATALOAD PUSH2 0x2DA6 PUSH1 0x20 DUP8 ADD CALLDATALOAD DUP8 CALLDATALOAD PUSH2 0x4FD3 JUMP JUMPDEST PUSH2 0x2DB0 SWAP2 SWAP1 PUSH2 0x4FD3 JUMP JUMPDEST PUSH2 0x2DBA SWAP2 SWAP1 PUSH2 0x4FD3 JUMP JUMPDEST PUSH2 0x2DC4 SWAP2 SWAP1 PUSH2 0x4FD3 JUMP JUMPDEST PUSH2 0x2DCE SWAP2 SWAP1 PUSH2 0x4FD3 JUMP JUMPDEST PUSH2 0x2710 EQ PUSH2 0x2E38 JUMPI PUSH1 0x40 MLOAD PUSH32 0x8C379A000000000000000000000000000000000000000000000000000000000 DUP2 MSTORE PUSH1 0x20 PUSH1 0x4 DUP3 ADD MSTORE PUSH1 0x18 PUSH1 0x24 DUP3 ADD MSTORE PUSH32 0x52657761726473206D75737420657175616C2031303030300000000000000000 PUSH1 0x44 DUP3 ADD MSTORE PUSH1 0x64 ADD PUSH2 0xAFD JUMP JUMPDEST PUSH1 0x5 DUP1 SLOAD SWAP1 PUSH1 0x0 PUSH2 0x2E48 DUP4 PUSH2 0x5015 JUMP JUMPDEST SWAP1 SWAP2 SSTORE POP POP PUSH1 0x40 DUP1 MLOAD PUSH2 0x1A0 DUP2 ADD SWAP1 SWAP2 MSTORE DUP1 PUSH1 0x1 DUP2 MSTORE PUSH1 0x20 ADD TIMESTAMP DUP2 MSTORE PUSH1 0x20 ADD DUP7 DUP2 MSTORE PUSH1 0x20 ADD DUP6 DUP2 MSTORE PUSH1 0x20 ADD DUP5 DUP2 MSTORE PUSH1 0x20 ADD DUP4 PUSH1 0x6 DUP1 PUSH1 0x20 MUL PUSH1 0x40 MLOAD SWAP1 DUP2 ADD PUSH1 0x40 MSTORE DUP1 SWAP3 SWAP2 SWAP1 DUP3 PUSH1 0x6 PUSH1 0x20 MUL DUP1 DUP3 DUP5 CALLDATACOPY PUSH1 0x0 SWAP3 ADD DUP3 SWAP1 MSTORE POP SWAP3 DUP5 MSTORE POP POP PUSH1 0x20 DUP1 DUP4 ADD DUP6 SWAP1 MSTORE PUSH1 0x40 DUP1 MLOAD PUSH1 0xC0 DUP1 DUP3 ADD DUP4 MSTORE DUP5 DUP3 MSTORE DUP2 DUP5 ADD DUP6 SWAP1 MSTORE DUP2 DUP4 ADD DUP6 SWAP1 MSTORE PUSH1 0x60 DUP1 DUP4 ADD DUP7 SWAP1 MSTORE PUSH1 0x80 DUP1 DUP5 ADD DUP8 SWAP1 MSTORE PUSH1 0xA0 DUP1 DUP6 ADD DUP9 SWAP1 MSTORE DUP6 DUP10 ADD SWAP5 SWAP1 SWAP5 MSTORE DUP5 MLOAD DUP1 DUP5 ADD DUP7 MSTORE DUP8 DUP2 MSTORE DUP1 DUP8 ADD DUP9 SWAP1 MSTORE DUP1 DUP7 ADD DUP9 SWAP1 MSTORE DUP1 DUP4 ADD DUP9 SWAP1 MSTORE DUP1 DUP3 ADD DUP9 SWAP1 MSTORE DUP1 DUP6 ADD DUP9 SWAP1 MSTORE SWAP2 DUP9 ADD SWAP2 SWAP1 SWAP2 MSTORE PUSH1 0x6 SLOAD SWAP1 DUP8 ADD DUP2 SWAP1 MSTORE SWAP2 DUP7 ADD SWAP2 SWAP1 SWAP2 MSTORE PUSH1 0xA SLOAD SWAP1 DUP6 ADD MSTORE PUSH1 0xE0 SWAP1 SWAP4 ADD DUP3 SWAP1 MSTORE PUSH1 0x5 SLOAD DUP3 MSTORE PUSH1 0xF SWAP1 MSTORE KECCAK256 DUP2 MLOAD DUP2 SLOAD DUP3 SWAP1 PUSH32 0xFFFFFFFFFFFFFFFFFFFFFFFFFFFFFFFFFFFFFFFFFFFFFFFFFFFFFFFFFFFFFF00 AND PUSH1 0x1 DUP4 PUSH1 0x3 DUP2 GT ISZERO PUSH2 0x2F79 JUMPI PUSH2 0x2F79 PUSH2 0x4B5A JUMP JUMPDEST MUL OR SWAP1 SSTORE POP PUSH1 0x20 DUP3 ADD MLOAD PUSH1 0x1 DUP3 ADD SSTORE PUSH1 0x40 DUP3 ADD MLOAD PUSH1 0x2 DUP3 ADD SSTORE PUSH1 0x60 DUP3 ADD MLOAD PUSH1 0x3 DUP3 ADD SSTORE PUSH1 0x80 DUP3 ADD MLOAD PUSH1 0x4 DUP3 ADD SSTORE PUSH1 0xA0 DUP3 ADD MLOAD PUSH2 0x2FBB SWAP1 PUSH1 0x5 DUP4 ADD SWAP1 PUSH1 0x6 PUSH2 0x48D9 JUMP JUMPDEST POP PUSH1 0xC0 DUP3 ADD MLOAD PUSH1 0xB DUP3 ADD SSTORE PUSH1 0xE0 DUP3 ADD MLOAD PUSH2 0x2FDB SWAP1 PUSH1 0xC DUP4 ADD SWAP1 PUSH1 0x6 PUSH2 0x48D9 JUMP JUMPDEST POP PUSH2 0x100 DUP3 ADD MLOAD PUSH2 0x2FF2 SWAP1 PUSH1 0x12 DUP4 ADD SWAP1 PUSH1 0x6 PUSH2 0x48D9 JUMP JUMPDEST POP PUSH2 0x120 DUP3 ADD MLOAD PUSH1 0x18 DUP3 ADD SSTORE PUSH2 0x140 DUP3 ADD MLOAD PUSH1 0x19 DUP3 ADD SSTORE PUSH2 0x160 DUP3 ADD MLOAD PUSH1 0x1A DUP3 ADD SSTORE PUSH2 0x180 SWAP1 SWAP2 ADD MLOAD PUSH1 0x1B SWAP1 SWAP2 ADD DUP1 SLOAD PUSH32 0xFFFFFFFFFFFFFFFFFFFFFFFFFFFFFFFFFFFFFFFFFFFFFFFFFFFFFFFF00000000 AND PUSH4 0xFFFFFFFF SWAP1 SWAP3 AND SWAP2 SWAP1 SWAP2 OR SWAP1 SSTORE PUSH1 0x5 SLOAD PUSH1 0x6 SLOAD PUSH1 0xA SLOAD PUSH1 0x40 DUP1 MLOAD TIMESTAMP DUP2 MSTORE PUSH1 0x20 DUP2 ADD DUP11 SWAP1 MSTORE SWAP1 DUP2 ADD DUP9 SWAP1 MSTORE PUSH1 0x60 DUP2 ADD SWAP3 SWAP1 SWAP3 MSTORE PUSH1 0x80 DUP3 ADD MSTORE PUSH32 0x367E70F8C0E0C0A6504D92172BDA155C02022D532FC85B5D66A9C49E31C8BC77 SWAP1 PUSH1 0xA0 ADD PUSH1 0x40 MLOAD DUP1 SWAP2 SUB SWAP1 LOG2 POP POP PUSH1 0x0 PUSH1 0xA SSTORE POP POP POP JUMP JUMPDEST PUSH1 0x1 SLOAD PUSH20 0xFFFFFFFFFFFFFFFFFFFFFFFFFFFFFFFFFFFFFFFF AND CALLER EQ PUSH2 0x3136 JUMPI PUSH1 0x40 MLOAD PUSH32 0x8C379A000000000000000000000000000000000000000000000000000000000 DUP2 MSTORE PUSH1 0x20 PUSH1 0x4 DUP3 ADD DUP2 SWAP1 MSTORE PUSH1 0x24 DUP3 ADD MSTORE PUSH32 0x4F776E61626C653A2063616C6C6572206973206E6F7420746865206F776E6572 PUSH1 0x44 DUP3 ADD MSTORE PUSH1 0x64 ADD PUSH2 0xAFD JUMP JUMPDEST PUSH1 0x5 SLOAD ISZERO DUP1 PUSH2 0x316A JUMPI POP PUSH1 0x3 PUSH1 0x5 SLOAD PUSH1 0x0 SWAP1 DUP2 MSTORE PUSH1 0xF PUSH1 0x20 MSTORE PUSH1 0x40 SWAP1 KECCAK256 SLOAD PUSH1 0xFF AND PUSH1 0x3 DUP2 GT ISZERO PUSH2 0x3168 JUMPI PUSH2 0x3168 PUSH2 0x4B5A JUMP JUMPDEST EQ JUMPDEST PUSH2 0x31F6 JUMPI PUSH1 0x40 MLOAD PUSH32 0x8C379A000000000000000000000000000000000000000000000000000000000 DUP2 MSTORE PUSH1 0x20 PUSH1 0x4 DUP3 ADD MSTORE PUSH1 0x34 PUSH1 0x24 DUP3 ADD MSTORE PUSH32 0x596F752063616E742077697468647261772062616E6B207768696C65206C6F74 PUSH1 0x44 DUP3 ADD MSTORE PUSH32 0x74657279206973206E6F742066696E6973686564000000000000000000000000 PUSH1 0x64 DUP3 ADD MSTORE PUSH1 0x84 ADD PUSH2 0xAFD JUMP JUMPDEST PUSH1 0xD SLOAD PUSH1 0x5 SLOAD PUSH1 0x0 SWAP1 DUP2 MSTORE PUSH1 0xF PUSH1 0x20 MSTORE PUSH1 0x40 SWAP1 KECCAK256 PUSH1 0x2 ADD SLOAD PUSH2 0x3218 SWAP2 SWAP1 PUSH2 0x4FD3 JUMP JUMPDEST TIMESTAMP GT PUSH2 0x3280 JUMPI PUSH1 0x40 MLOAD PUSH32 0x8C379A000000000000000000000000000000000000000000000000000000000 DUP2 MSTORE PUSH1 0x20 PUSH1 0x4 DUP3 ADD MSTORE PUSH1 0x12 PUSH1 0x24 DUP3 ADD MSTORE PUSH32 0x576974686472617720636F6F6C646F776E210000000000000000000000000000 PUSH1 0x44 DUP3 ADD MSTORE PUSH1 0x64 ADD PUSH2 0xAFD JUMP JUMPDEST PUSH1 0xB SLOAD PUSH21 0x10000000000000000000000000000000000000000 SWAP1 DIV PUSH1 0xFF AND ISZERO PUSH2 0x3301 JUMPI PUSH1 0xC SLOAD PUSH1 0x0 SWAP1 PUSH2 0x32B4 PUSH1 0x64 DUP5 PUSH2 0x5093 JUMP JUMPDEST PUSH2 0x32BE SWAP2 SWAP1 PUSH2 0x504D JUMP JUMPDEST SWAP1 POP PUSH2 0x32CA DUP2 DUP4 PUSH2 0x4F8B JUMP JUMPDEST PUSH1 0xB SLOAD PUSH1 0xE SLOAD SWAP2 SWAP4 POP PUSH2 0x32FF SWAP2 PUSH5 0x100000000 SWAP1 DIV PUSH20 0xFFFFFFFFFFFFFFFFFFFFFFFFFFFFFFFFFFFFFFFF SWAP1 DUP2 AND SWAP2 AND DUP4 PUSH2 0x4239 JUMP JUMPDEST POP JUMPDEST PUSH1 0xE SLOAD PUSH2 0x332D SWAP1 PUSH5 0x100000000 SWAP1 DIV PUSH20 0xFFFFFFFFFFFFFFFFFFFFFFFFFFFFFFFFFFFFFFFF AND CALLER DUP4 PUSH2 0x4239 JUMP JUMPDEST POP JUMP JUMPDEST PUSH1 0x0 PUSH2 0x12C DUP5 LT ISZERO PUSH2 0x339E JUMPI PUSH1 0x40 MLOAD PUSH32 0x8C379A000000000000000000000000000000000000000000000000000000000 DUP2 MSTORE PUSH1 0x20 PUSH1 0x4 DUP3 ADD MSTORE PUSH1 0x1F PUSH1 0x24 DUP3 ADD MSTORE PUSH32 0x4D757374206265203E3D204D494E5F444953434F554E545F44495649534F5200 PUSH1 0x44 DUP3 ADD MSTORE PUSH1 0x64 ADD PUSH2 0xAFD JUMP JUMPDEST DUP2 PUSH1 0x0 SUB PUSH2 0x3408 JUMPI PUSH1 0x40 MLOAD PUSH32 0x8C379A000000000000000000000000000000000000000000000000000000000 DUP2 MSTORE PUSH1 0x20 PUSH1 0x4 DUP3 ADD MSTORE PUSH1 0x1D PUSH1 0x24 DUP3 ADD MSTORE PUSH32 0x4E756D626572206F66207469636B657473206D757374206265203E2030000000 PUSH1 0x44 DUP3 ADD MSTORE PUSH1 0x64 ADD PUSH2 0xAFD JUMP JUMPDEST PUSH2 0x18ED DUP5 DUP5 DUP5 PUSH2 0x45C9 JUMP JUMPDEST CALLER EXTCODESIZE ISZERO PUSH2 0x347C JUMPI PUSH1 0x40 MLOAD PUSH32 0x8C379A000000000000000000000000000000000000000000000000000000000 DUP2 MSTORE PUSH1 0x20 PUSH1 0x4 DUP3 ADD MSTORE PUSH1 0x14 PUSH1 0x24 DUP3 ADD MSTORE PUSH32 0x436F6E7472616374206E6F7420616C6C6F776564000000000000000000000000 PUSH1 0x44 DUP3 ADD MSTORE PUSH1 0x64 ADD PUSH2 0xAFD JUMP JUMPDEST CALLER ORIGIN EQ PUSH2 0x34E5 JUMPI PUSH1 0x40 MLOAD PUSH32 0x8C379A000000000000000000000000000000000000000000000000000000000 DUP2 MSTORE PUSH1 0x20 PUSH1 0x4 DUP3 ADD MSTORE PUSH1 0x1A PUSH1 0x24 DUP3 ADD MSTORE PUSH32 0x50726F787920636F6E7472616374206E6F7420616C6C6F776564000000000000 PUSH1 0x44 DUP3 ADD MSTORE PUSH1 0x64 ADD PUSH2 0xAFD JUMP JUMPDEST PUSH1 0x2 PUSH1 0x0 SLOAD SUB PUSH2 0x3551 JUMPI PUSH1 0x40 MLOAD PUSH32 0x8C379A000000000000000000000000000000000000000000000000000000000 DUP2 MSTORE PUSH1 0x20 PUSH1 0x4 DUP3 ADD MSTORE PUSH1 0x1F PUSH1 0x24 DUP3 ADD MSTORE PUSH32 0x5265656E7472616E637947756172643A207265656E7472616E742063616C6C00 PUSH1 0x44 DUP3 ADD MSTORE PUSH1 0x64 ADD PUSH2 0xAFD JUMP JUMPDEST PUSH1 0x2 PUSH1 0x0 SSTORE DUP3 DUP2 EQ PUSH2 0x35BF JUMPI PUSH1 0x40 MLOAD PUSH32 0x8C379A000000000000000000000000000000000000000000000000000000000 DUP2 MSTORE PUSH1 0x20 PUSH1 0x4 DUP3 ADD MSTORE PUSH1 0xF PUSH1 0x24 DUP3 ADD MSTORE PUSH32 0x4E6F742073616D65206C656E6774680000000000000000000000000000000000 PUSH1 0x44 DUP3 ADD MSTORE PUSH1 0x64 ADD PUSH2 0xAFD JUMP JUMPDEST PUSH1 0x0 DUP4 SWAP1 SUB PUSH2 0x362A JUMPI PUSH1 0x40 MLOAD PUSH32 0x8C379A000000000000000000000000000000000000000000000000000000000 DUP2 MSTORE PUSH1 0x20 PUSH1 0x4 DUP3 ADD MSTORE PUSH1 0x11 PUSH1 0x24 DUP3 ADD MSTORE PUSH32 0x4C656E677468206D757374206265203E30000000000000000000000000000000 PUSH1 0x44 DUP3 ADD MSTORE PUSH1 0x64 ADD PUSH2 0xAFD JUMP JUMPDEST PUSH1 0x7 SLOAD DUP4 GT ISZERO PUSH2 0x3696 JUMPI PUSH1 0x40 MLOAD PUSH32 0x8C379A000000000000000000000000000000000000000000000000000000000 DUP2 MSTORE PUSH1 0x20 PUSH1 0x4 DUP3 ADD MSTORE PUSH1 0x10 PUSH1 0x24 DUP3 ADD MSTORE PUSH32 0x546F6F206D616E79207469636B65747300000000000000000000000000000000 PUSH1 0x44 DUP3 ADD MSTORE PUSH1 0x64 ADD PUSH2 0xAFD JUMP JUMPDEST PUSH1 0x3 PUSH1 0x0 DUP7 DUP2 MSTORE PUSH1 0xF PUSH1 0x20 MSTORE PUSH1 0x40 SWAP1 KECCAK256 SLOAD PUSH1 0xFF AND PUSH1 0x3 DUP2 GT ISZERO PUSH2 0x36BB JUMPI PUSH2 0x36BB PUSH2 0x4B5A JUMP JUMPDEST EQ PUSH2 0x3722 JUMPI PUSH1 0x40 MLOAD PUSH32 0x8C379A000000000000000000000000000000000000000000000000000000000 DUP2 MSTORE PUSH1 0x20 PUSH1 0x4 DUP3 ADD MSTORE PUSH1 0x15 PUSH1 0x24 DUP3 ADD MSTORE PUSH32 0x4C6F7474657279206E6F7420636C61696D61626C650000000000000000000000 PUSH1 0x44 DUP3 ADD MSTORE PUSH1 0x64 ADD PUSH2 0xAFD JUMP JUMPDEST PUSH1 0x0 DUP1 JUMPDEST DUP5 DUP2 LT ISZERO PUSH2 0x3B34 JUMPI PUSH1 0x6 DUP5 DUP5 DUP4 DUP2 DUP2 LT PUSH2 0x3742 JUMPI PUSH2 0x3742 PUSH2 0x4FE6 JUMP JUMPDEST SWAP1 POP PUSH1 0x20 MUL ADD PUSH1 0x20 DUP2 ADD SWAP1 PUSH2 0x3757 SWAP2 SWAP1 PUSH2 0x4AED JUMP JUMPDEST PUSH4 0xFFFFFFFF AND LT PUSH2 0x37C4 JUMPI PUSH1 0x40 MLOAD PUSH32 0x8C379A000000000000000000000000000000000000000000000000000000000 DUP2 MSTORE PUSH1 0x20 PUSH1 0x4 DUP3 ADD MSTORE PUSH1 0x14 PUSH1 0x24 DUP3 ADD MSTORE PUSH32 0x427261636B6574206F7574206F662072616E6765000000000000000000000000 PUSH1 0x44 DUP3 ADD MSTORE PUSH1 0x64 ADD PUSH2 0xAFD JUMP JUMPDEST PUSH1 0x0 DUP7 DUP7 DUP4 DUP2 DUP2 LT PUSH2 0x37D8 JUMPI PUSH2 0x37D8 PUSH2 0x4FE6 JUMP JUMPDEST SWAP1 POP PUSH1 0x20 MUL ADD CALLDATALOAD SWAP1 POP DUP1 PUSH1 0xF PUSH1 0x0 DUP11 DUP2 MSTORE PUSH1 0x20 ADD SWAP1 DUP2 MSTORE PUSH1 0x20 ADD PUSH1 0x0 KECCAK256 PUSH1 0x19 ADD SLOAD GT PUSH2 0x3860 JUMPI PUSH1 0x40 MLOAD PUSH32 0x8C379A000000000000000000000000000000000000000000000000000000000 DUP2 MSTORE PUSH1 0x20 PUSH1 0x4 DUP3 ADD MSTORE PUSH1 0x11 PUSH1 0x24 DUP3 ADD MSTORE PUSH32 0x5469636B6574496420746F6F2068696768000000000000000000000000000000 PUSH1 0x44 DUP3 ADD MSTORE PUSH1 0x64 ADD PUSH2 0xAFD JUMP JUMPDEST PUSH1 0x0 DUP9 DUP2 MSTORE PUSH1 0xF PUSH1 0x20 MSTORE PUSH1 0x40 SWAP1 KECCAK256 PUSH1 0x18 ADD SLOAD DUP2 LT ISZERO PUSH2 0x38DB JUMPI PUSH1 0x40 MLOAD PUSH32 0x8C379A000000000000000000000000000000000000000000000000000000000 DUP2 MSTORE PUSH1 0x20 PUSH1 0x4 DUP3 ADD MSTORE PUSH1 0x10 PUSH1 0x24 DUP3 ADD MSTORE PUSH32 0x5469636B6574496420746F6F206C6F7700000000000000000000000000000000 PUSH1 0x44 DUP3 ADD MSTORE PUSH1 0x64 ADD PUSH2 0xAFD JUMP JUMPDEST PUSH1 0x0 DUP2 DUP2 MSTORE PUSH1 0x10 PUSH1 0x20 MSTORE PUSH1 0x40 SWAP1 KECCAK256 SLOAD PUSH5 0x100000000 SWAP1 DIV PUSH20 0xFFFFFFFFFFFFFFFFFFFFFFFFFFFFFFFFFFFFFFFF AND CALLER EQ PUSH2 0x3970 JUMPI PUSH1 0x40 MLOAD PUSH32 0x8C379A000000000000000000000000000000000000000000000000000000000 DUP2 MSTORE PUSH1 0x20 PUSH1 0x4 DUP3 ADD MSTORE PUSH1 0xD PUSH1 0x24 DUP3 ADD MSTORE PUSH32 0x4E6F7420746865206F776E657200000000000000000000000000000000000000 PUSH1 0x44 DUP3 ADD MSTORE PUSH1 0x64 ADD PUSH2 0xAFD JUMP JUMPDEST PUSH1 0x0 DUP2 DUP2 MSTORE PUSH1 0x10 PUSH1 0x20 MSTORE PUSH1 0x40 DUP2 KECCAK256 DUP1 SLOAD PUSH32 0xFFFFFFFFFFFFFFFF0000000000000000000000000000000000000000FFFFFFFF AND SWAP1 SSTORE PUSH2 0x39D5 DUP10 DUP4 DUP9 DUP9 DUP8 DUP2 DUP2 LT PUSH2 0x39BB JUMPI PUSH2 0x39BB PUSH2 0x4FE6 JUMP JUMPDEST SWAP1 POP PUSH1 0x20 MUL ADD PUSH1 0x20 DUP2 ADD SWAP1 PUSH2 0x39D0 SWAP2 SWAP1 PUSH2 0x4AED JUMP JUMPDEST PUSH2 0x4312 JUMP JUMPDEST SWAP1 POP DUP1 PUSH1 0x0 SUB PUSH2 0x3A41 JUMPI PUSH1 0x40 MLOAD PUSH32 0x8C379A000000000000000000000000000000000000000000000000000000000 DUP2 MSTORE PUSH1 0x20 PUSH1 0x4 DUP3 ADD MSTORE PUSH1 0x19 PUSH1 0x24 DUP3 ADD MSTORE PUSH32 0x4E6F207072697A6520666F72207468697320627261636B657400000000000000 PUSH1 0x44 DUP3 ADD MSTORE PUSH1 0x64 ADD PUSH2 0xAFD JUMP JUMPDEST DUP6 DUP6 DUP5 DUP2 DUP2 LT PUSH2 0x3A53 JUMPI PUSH2 0x3A53 PUSH2 0x4FE6 JUMP JUMPDEST SWAP1 POP PUSH1 0x20 MUL ADD PUSH1 0x20 DUP2 ADD SWAP1 PUSH2 0x3A68 SWAP2 SWAP1 PUSH2 0x4AED JUMP JUMPDEST PUSH4 0xFFFFFFFF AND PUSH1 0x5 EQ PUSH2 0x3B13 JUMPI PUSH2 0x3AAC DUP10 DUP4 DUP9 DUP9 DUP8 DUP2 DUP2 LT PUSH2 0x3A8C JUMPI PUSH2 0x3A8C PUSH2 0x4FE6 JUMP JUMPDEST SWAP1 POP PUSH1 0x20 MUL ADD PUSH1 0x20 DUP2 ADD SWAP1 PUSH2 0x3AA1 SWAP2 SWAP1 PUSH2 0x4AED JUMP JUMPDEST PUSH2 0x39D0 SWAP1 PUSH1 0x1 PUSH2 0x50D8 JUMP JUMPDEST ISZERO PUSH2 0x3B13 JUMPI PUSH1 0x40 MLOAD PUSH32 0x8C379A000000000000000000000000000000000000000000000000000000000 DUP2 MSTORE PUSH1 0x20 PUSH1 0x4 DUP3 ADD MSTORE PUSH1 0x16 PUSH1 0x24 DUP3 ADD MSTORE PUSH32 0x427261636B6574206D7573742062652068696768657200000000000000000000 PUSH1 0x44 DUP3 ADD MSTORE PUSH1 0x64 ADD PUSH2 0xAFD JUMP JUMPDEST PUSH2 0x3B1D DUP2 DUP6 PUSH2 0x4FD3 JUMP JUMPDEST SWAP4 POP POP POP DUP1 DUP1 PUSH2 0x3B2C SWAP1 PUSH2 0x5015 JUMP JUMPDEST SWAP2 POP POP PUSH2 0x3726 JUMP JUMPDEST POP PUSH1 0xE SLOAD PUSH2 0x3B61 SWAP1 PUSH5 0x100000000 SWAP1 DIV PUSH20 0xFFFFFFFFFFFFFFFFFFFFFFFFFFFFFFFFFFFFFFFF AND CALLER DUP4 PUSH2 0x4239 JUMP JUMPDEST PUSH1 0x40 DUP1 MLOAD DUP3 DUP2 MSTORE PUSH1 0x20 DUP2 ADD DUP7 SWAP1 MSTORE DUP8 SWAP2 CALLER SWAP2 PUSH32 0xF5FCA62DA8FB5D95525B49E5EAA7B20BC6BD9E2F6B64B493442D1C0BD6EF486 SWAP2 ADD PUSH1 0x40 MLOAD DUP1 SWAP2 SUB SWAP1 LOG3 POP POP PUSH1 0x1 PUSH1 0x0 SSTORE POP POP POP POP JUMP JUMPDEST PUSH1 0x1 SLOAD PUSH20 0xFFFFFFFFFFFFFFFFFFFFFFFFFFFFFFFFFFFFFFFF AND CALLER EQ PUSH2 0x3C2C JUMPI PUSH1 0x40 MLOAD PUSH32 0x8C379A000000000000000000000000000000000000000000000000000000000 DUP2 MSTORE PUSH1 0x20 PUSH1 0x4 DUP3 ADD DUP2 SWAP1 MSTORE PUSH1 0x24 DUP3 ADD MSTORE PUSH32 0x4F776E61626C653A2063616C6C6572206973206E6F7420746865206F776E6572 PUSH1 0x44 DUP3 ADD MSTORE PUSH1 0x64 ADD PUSH2 0xAFD JUMP JUMPDEST PUSH20 0xFFFFFFFFFFFFFFFFFFFFFFFFFFFFFFFFFFFFFFFF DUP4 AND PUSH2 0x3CA9 JUMPI PUSH1 0x40 MLOAD PUSH32 0x8C379A000000000000000000000000000000000000000000000000000000000 DUP2 MSTORE PUSH1 0x20 PUSH1 0x4 DUP3 ADD MSTORE PUSH1 0x16 PUSH1 0x24 DUP3 ADD MSTORE PUSH32 0x43616E6E6F74206265207A65726F206164647265737300000000000000000000 PUSH1 0x44 DUP3 ADD MSTORE PUSH1 0x64 ADD PUSH2 0xAFD JUMP JUMPDEST PUSH20 0xFFFFFFFFFFFFFFFFFFFFFFFFFFFFFFFFFFFFFFFF DUP3 AND PUSH2 0x3D26 JUMPI PUSH1 0x40 MLOAD PUSH32 0x8C379A000000000000000000000000000000000000000000000000000000000 DUP2 MSTORE PUSH1 0x20 PUSH1 0x4 DUP3 ADD MSTORE PUSH1 0x16 PUSH1 0x24 DUP3 ADD MSTORE PUSH32 0x43616E6E6F74206265207A65726F206164647265737300000000000000000000 PUSH1 0x44 DUP3 ADD MSTORE PUSH1 0x64 ADD PUSH2 0xAFD JUMP JUMPDEST PUSH20 0xFFFFFFFFFFFFFFFFFFFFFFFFFFFFFFFFFFFFFFFF DUP2 AND PUSH2 0x3DA3 JUMPI PUSH1 0x40 MLOAD PUSH32 0x8C379A000000000000000000000000000000000000000000000000000000000 DUP2 MSTORE PUSH1 0x20 PUSH1 0x4 DUP3 ADD MSTORE PUSH1 0x16 PUSH1 0x24 DUP3 ADD MSTORE PUSH32 0x43616E6E6F74206265207A65726F206164647265737300000000000000000000 PUSH1 0x44 DUP3 ADD MSTORE PUSH1 0x64 ADD PUSH2 0xAFD JUMP JUMPDEST PUSH1 0x3 DUP1 SLOAD PUSH20 0xFFFFFFFFFFFFFFFFFFFFFFFFFFFFFFFFFFFFFFFF DUP6 DUP2 AND PUSH32 0xFFFFFFFFFFFFFFFFFFFFFFFF0000000000000000000000000000000000000000 SWAP3 DUP4 AND DUP2 OR SWAP1 SWAP4 SSTORE PUSH1 0x4 DUP1 SLOAD DUP7 DUP4 AND SWAP1 DUP5 AND DUP2 OR SWAP1 SWAP2 SSTORE PUSH1 0x2 DUP1 SLOAD SWAP3 DUP7 AND SWAP3 SWAP1 SWAP4 AND DUP3 OR SWAP1 SWAP3 SSTORE PUSH1 0x40 DUP1 MLOAD SWAP4 DUP5 MSTORE PUSH1 0x20 DUP5 ADD SWAP3 SWAP1 SWAP3 MSTORE SWAP1 DUP3 ADD MSTORE PUSH32 0x3E945B7660001D46CFD5E729545F7F0B6C65BDEE54066A91C7ACAD703F1B731E SWAP1 PUSH1 0x60 ADD PUSH1 0x40 MLOAD DUP1 SWAP2 SUB SWAP1 LOG1 POP POP POP JUMP JUMPDEST PUSH1 0x1 SLOAD PUSH20 0xFFFFFFFFFFFFFFFFFFFFFFFFFFFFFFFFFFFFFFFF AND CALLER EQ PUSH2 0x3ECD JUMPI PUSH1 0x40 MLOAD PUSH32 0x8C379A000000000000000000000000000000000000000000000000000000000 DUP2 MSTORE PUSH1 0x20 PUSH1 0x4 DUP3 ADD DUP2 SWAP1 MSTORE PUSH1 0x24 DUP3 ADD MSTORE PUSH32 0x4F776E61626C653A2063616C6C6572206973206E6F7420746865206F776E6572 PUSH1 0x44 DUP3 ADD MSTORE PUSH1 0x64 ADD PUSH2 0xAFD JUMP JUMPDEST DUP1 DUP3 GT ISZERO PUSH2 0x3F37 JUMPI PUSH1 0x40 MLOAD PUSH32 0x8C379A000000000000000000000000000000000000000000000000000000000 DUP2 MSTORE PUSH1 0x20 PUSH1 0x4 DUP3 ADD MSTORE PUSH1 0x1B PUSH1 0x24 DUP3 ADD MSTORE PUSH32 0x6D696E5072696365206D757374206265203C206D617850726963650000000000 PUSH1 0x44 DUP3 ADD MSTORE PUSH1 0x64 ADD PUSH2 0xAFD JUMP JUMPDEST PUSH1 0x9 SWAP2 SWAP1 SWAP2 SSTORE PUSH1 0x8 SSTORE JUMP JUMPDEST PUSH1 0x1 SLOAD PUSH20 0xFFFFFFFFFFFFFFFFFFFFFFFFFFFFFFFFFFFFFFFF AND CALLER EQ PUSH2 0x3FC3 JUMPI PUSH1 0x40 MLOAD PUSH32 0x8C379A000000000000000000000000000000000000000000000000000000000 DUP2 MSTORE PUSH1 0x20 PUSH1 0x4 DUP3 ADD DUP2 SWAP1 MSTORE PUSH1 0x24 DUP3 ADD MSTORE PUSH32 0x4F776E61626C653A2063616C6C6572206973206E6F7420746865206F776E6572 PUSH1 0x44 DUP3 ADD MSTORE PUSH1 0x64 ADD PUSH2 0xAFD JUMP JUMPDEST PUSH20 0xFFFFFFFFFFFFFFFFFFFFFFFFFFFFFFFFFFFFFFFF DUP2 AND PUSH2 0x4066 JUMPI PUSH1 0x40 MLOAD PUSH32 0x8C379A000000000000000000000000000000000000000000000000000000000 DUP2 MSTORE PUSH1 0x20 PUSH1 0x4 DUP3 ADD MSTORE PUSH1 0x26 PUSH1 0x24 DUP3 ADD MSTORE PUSH32 0x4F776E61626C653A206E6577206F776E657220697320746865207A65726F2061 PUSH1 0x44 DUP3 ADD MSTORE PUSH32 0x6464726573730000000000000000000000000000000000000000000000000000 PUSH1 0x64 DUP3 ADD MSTORE PUSH1 0x84 ADD PUSH2 0xAFD JUMP JUMPDEST PUSH1 0x1 SLOAD PUSH1 0x40 MLOAD PUSH20 0xFFFFFFFFFFFFFFFFFFFFFFFFFFFFFFFFFFFFFFFF DUP1 DUP5 AND SWAP3 AND SWAP1 PUSH32 0x8BE0079C531659141344CD1FD0A4F28419497F9722A3DAAFE3B4186F6B6457E0 SWAP1 PUSH1 0x0 SWAP1 LOG3 PUSH1 0x1 DUP1 SLOAD PUSH32 0xFFFFFFFFFFFFFFFFFFFFFFFF0000000000000000000000000000000000000000 AND PUSH20 0xFFFFFFFFFFFFFFFFFFFFFFFFFFFFFFFFFFFFFFFF SWAP3 SWAP1 SWAP3 AND SWAP2 SWAP1 SWAP2 OR SWAP1 SSTORE JUMP JUMPDEST PUSH1 0x1 SLOAD PUSH20 0xFFFFFFFFFFFFFFFFFFFFFFFFFFFFFFFFFFFFFFFF AND CALLER EQ PUSH2 0x4175 JUMPI PUSH1 0x40 MLOAD PUSH32 0x8C379A000000000000000000000000000000000000000000000000000000000 DUP2 MSTORE PUSH1 0x20 PUSH1 0x4 DUP3 ADD DUP2 SWAP1 MSTORE PUSH1 0x24 DUP3 ADD MSTORE PUSH32 0x4F776E61626C653A2063616C6C6572206973206E6F7420746865206F776E6572 PUSH1 0x44 DUP3 ADD MSTORE PUSH1 0x64 ADD PUSH2 0xAFD JUMP JUMPDEST PUSH20 0xFFFFFFFFFFFFFFFFFFFFFFFFFFFFFFFFFFFFFFFF DUP2 AND PUSH2 0x41F2 JUMPI PUSH1 0x40 MLOAD PUSH32 0x8C379A000000000000000000000000000000000000000000000000000000000 DUP2 MSTORE PUSH1 0x20 PUSH1 0x4 DUP3 ADD MSTORE PUSH1 0x16 PUSH1 0x24 DUP3 ADD MSTORE PUSH32 0x43616E6E6F74206265207A65726F206164647265737300000000000000000000 PUSH1 0x44 DUP3 ADD MSTORE PUSH1 0x64 ADD PUSH2 0xAFD JUMP JUMPDEST PUSH1 0x3 DUP1 SLOAD PUSH32 0xFFFFFFFFFFFFFFFFFFFFFFFF0000000000000000000000000000000000000000 AND PUSH20 0xFFFFFFFFFFFFFFFFFFFFFFFFFFFFFFFFFFFFFFFF SWAP3 SWAP1 SWAP3 AND SWAP2 SWAP1 SWAP2 OR SWAP1 SSTORE JUMP JUMPDEST PUSH1 0x40 MLOAD PUSH20 0xFFFFFFFFFFFFFFFFFFFFFFFFFFFFFFFFFFFFFFFF DUP4 AND PUSH1 0x24 DUP3 ADD MSTORE PUSH1 0x44 DUP2 ADD DUP3 SWAP1 MSTORE PUSH2 0x430D SWAP1 DUP5 SWAP1 PUSH32 0xA9059CBB00000000000000000000000000000000000000000000000000000000 SWAP1 PUSH1 0x64 ADD JUMPDEST PUSH1 0x40 DUP1 MLOAD PUSH32 0xFFFFFFFFFFFFFFFFFFFFFFFFFFFFFFFFFFFFFFFFFFFFFFFFFFFFFFFFFFFFFFE0 DUP2 DUP5 SUB ADD DUP2 MSTORE SWAP2 SWAP1 MSTORE PUSH1 0x20 DUP2 ADD DUP1 MLOAD PUSH28 0xFFFFFFFFFFFFFFFFFFFFFFFFFFFFFFFFFFFFFFFFFFFFFFFFFFFFFFFF AND PUSH32 0xFFFFFFFF00000000000000000000000000000000000000000000000000000000 SWAP1 SWAP4 AND SWAP3 SWAP1 SWAP3 OR SWAP1 SWAP2 MSTORE PUSH2 0x4600 JUMP JUMPDEST POP POP POP JUMP JUMPDEST PUSH1 0x0 DUP4 DUP2 MSTORE PUSH1 0xF PUSH1 0x20 SWAP1 DUP2 MSTORE PUSH1 0x40 DUP1 DUP4 KECCAK256 PUSH1 0x1B ADD SLOAD DUP6 DUP5 MSTORE PUSH1 0x10 SWAP1 SWAP3 MSTORE DUP3 KECCAK256 SLOAD PUSH4 0xFFFFFFFF SWAP2 DUP3 AND SWAP2 AND DUP3 PUSH2 0x4348 DUP6 PUSH1 0x1 PUSH2 0x50D8 JUMP JUMPDEST PUSH2 0x4353 SWAP1 PUSH1 0xA PUSH2 0x5206 JUMP JUMPDEST PUSH2 0x435D SWAP1 DUP4 PUSH2 0x521B JUMP JUMPDEST PUSH4 0xFFFFFFFF DUP1 DUP8 AND PUSH1 0x0 SWAP1 DUP2 MSTORE PUSH1 0x11 PUSH1 0x20 MSTORE PUSH1 0x40 SWAP1 KECCAK256 SLOAD PUSH2 0x437F SWAP3 SWAP2 AND PUSH2 0x50D8 JUMP JUMPDEST SWAP1 POP PUSH1 0x0 PUSH2 0x438E DUP7 PUSH1 0x1 PUSH2 0x50D8 JUMP JUMPDEST PUSH2 0x4399 SWAP1 PUSH1 0xA PUSH2 0x5206 JUMP JUMPDEST PUSH2 0x43A3 SWAP1 DUP6 PUSH2 0x521B JUMP JUMPDEST PUSH4 0xFFFFFFFF DUP1 DUP9 AND PUSH1 0x0 SWAP1 DUP2 MSTORE PUSH1 0x11 PUSH1 0x20 MSTORE PUSH1 0x40 SWAP1 KECCAK256 SLOAD PUSH2 0x43C5 SWAP3 SWAP2 AND PUSH2 0x50D8 JUMP JUMPDEST SWAP1 POP DUP1 PUSH4 0xFFFFFFFF AND DUP3 PUSH4 0xFFFFFFFF AND SUB PUSH2 0x440F JUMPI PUSH1 0x0 DUP9 DUP2 MSTORE PUSH1 0xF PUSH1 0x20 MSTORE PUSH1 0x40 SWAP1 KECCAK256 PUSH1 0xC ADD PUSH4 0xFFFFFFFF DUP8 AND PUSH1 0x6 DUP2 LT PUSH2 0x4402 JUMPI PUSH2 0x4402 PUSH2 0x4FE6 JUMP JUMPDEST ADD SLOAD SWAP5 POP POP POP POP POP PUSH2 0x1869 JUMP JUMPDEST PUSH1 0x0 SWAP5 POP POP POP POP POP PUSH2 0x1869 JUMP JUMPDEST PUSH1 0x40 MLOAD PUSH20 0xFFFFFFFFFFFFFFFFFFFFFFFFFFFFFFFFFFFFFFFF DUP1 DUP6 AND PUSH1 0x24 DUP4 ADD MSTORE DUP4 AND PUSH1 0x44 DUP3 ADD MSTORE PUSH1 0x64 DUP2 ADD DUP3 SWAP1 MSTORE PUSH2 0x447A SWAP1 DUP6 SWAP1 PUSH32 0x23B872DD00000000000000000000000000000000000000000000000000000000 SWAP1 PUSH1 0x84 ADD PUSH2 0x428B JUMP JUMPDEST POP POP POP POP JUMP JUMPDEST PUSH1 0x14 SLOAD PUSH21 0x10000000000000000000000000000000000000000 SWAP1 DIV PUSH1 0xFF AND PUSH2 0x44A4 JUMPI JUMP JUMPDEST PUSH1 0x14 SLOAD PUSH1 0x40 MLOAD PUSH32 0x70A0823100000000000000000000000000000000000000000000000000000000 DUP2 MSTORE CALLER PUSH1 0x4 DUP3 ADD MSTORE PUSH1 0x0 SWAP2 PUSH20 0xFFFFFFFFFFFFFFFFFFFFFFFFFFFFFFFFFFFFFFFF AND SWAP1 PUSH4 0x70A08231 SWAP1 PUSH1 0x24 ADD PUSH1 0x20 PUSH1 0x40 MLOAD DUP1 DUP4 SUB DUP2 DUP7 GAS STATICCALL ISZERO DUP1 ISZERO PUSH2 0x4513 JUMPI RETURNDATASIZE PUSH1 0x0 DUP1 RETURNDATACOPY RETURNDATASIZE PUSH1 0x0 REVERT JUMPDEST POP POP POP POP PUSH1 0x40 MLOAD RETURNDATASIZE PUSH1 0x1F NOT PUSH1 0x1F DUP3 ADD AND DUP3 ADD DUP1 PUSH1 0x40 MSTORE POP DUP2 ADD SWAP1 PUSH2 0x4537 SWAP2 SWAP1 PUSH2 0x5261 JUMP JUMPDEST SWAP1 POP PUSH1 0x0 DUP2 GT PUSH2 0x332D JUMPI PUSH1 0x40 MLOAD PUSH32 0x8C379A000000000000000000000000000000000000000000000000000000000 DUP2 MSTORE PUSH1 0x20 PUSH1 0x4 DUP3 ADD MSTORE PUSH1 0x22 PUSH1 0x24 DUP3 ADD MSTORE PUSH32 0x596F752077616C6C6574206D757374206265207665726966696564206279204B PUSH1 0x44 DUP3 ADD MSTORE PUSH32 0x5943000000000000000000000000000000000000000000000000000000000000 PUSH1 0x64 DUP3 ADD MSTORE PUSH1 0x84 ADD PUSH2 0xAFD JUMP JUMPDEST PUSH1 0x0 DUP4 DUP3 PUSH2 0x45D8 DUP3 PUSH1 0x1 PUSH2 0x4FD3 JUMP JUMPDEST PUSH2 0x45E2 SWAP2 SWAP1 PUSH2 0x4F8B JUMP JUMPDEST PUSH2 0x45EC DUP5 DUP7 PUSH2 0x504D JUMP JUMPDEST PUSH2 0x45F6 SWAP2 SWAP1 PUSH2 0x504D JUMP JUMPDEST PUSH2 0x18ED SWAP2 SWAP1 PUSH2 0x5093 JUMP JUMPDEST PUSH1 0x0 PUSH2 0x4662 DUP3 PUSH1 0x40 MLOAD DUP1 PUSH1 0x40 ADD PUSH1 0x40 MSTORE DUP1 PUSH1 0x20 DUP2 MSTORE PUSH1 0x20 ADD PUSH32 0x5361666545524332303A206C6F772D6C6576656C2063616C6C206661696C6564 DUP2 MSTORE POP DUP6 PUSH20 0xFFFFFFFFFFFFFFFFFFFFFFFFFFFFFFFFFFFFFFFF AND PUSH2 0x470C SWAP1 SWAP3 SWAP2 SWAP1 PUSH4 0xFFFFFFFF AND JUMP JUMPDEST DUP1 MLOAD SWAP1 SWAP2 POP ISZERO PUSH2 0x430D JUMPI DUP1 DUP1 PUSH1 0x20 ADD SWAP1 MLOAD DUP2 ADD SWAP1 PUSH2 0x4680 SWAP2 SWAP1 PUSH2 0x528F JUMP JUMPDEST PUSH2 0x430D JUMPI PUSH1 0x40 MLOAD PUSH32 0x8C379A000000000000000000000000000000000000000000000000000000000 DUP2 MSTORE PUSH1 0x20 PUSH1 0x4 DUP3 ADD MSTORE PUSH1 0x2A PUSH1 0x24 DUP3 ADD MSTORE PUSH32 0x5361666545524332303A204552433230206F7065726174696F6E20646964206E PUSH1 0x44 DUP3 ADD MSTORE PUSH32 0x6F74207375636365656400000000000000000000000000000000000000000000 PUSH1 0x64 DUP3 ADD MSTORE PUSH1 0x84 ADD PUSH2 0xAFD JUMP JUMPDEST PUSH1 0x60 PUSH2 0x18ED DUP5 DUP5 PUSH1 0x0 DUP6 DUP6 DUP5 EXTCODESIZE PUSH2 0x477F JUMPI PUSH1 0x40 MLOAD PUSH32 0x8C379A000000000000000000000000000000000000000000000000000000000 DUP2 MSTORE PUSH1 0x20 PUSH1 0x4 DUP3 ADD MSTORE PUSH1 0x1D PUSH1 0x24 DUP3 ADD MSTORE PUSH32 0x416464726573733A2063616C6C20746F206E6F6E2D636F6E7472616374000000 PUSH1 0x44 DUP3 ADD MSTORE PUSH1 0x64 ADD PUSH2 0xAFD JUMP JUMPDEST PUSH1 0x0 DUP1 DUP7 PUSH20 0xFFFFFFFFFFFFFFFFFFFFFFFFFFFFFFFFFFFFFFFF AND DUP6 DUP8 PUSH1 0x40 MLOAD PUSH2 0x47A8 SWAP2 SWAP1 PUSH2 0x52D0 JUMP JUMPDEST PUSH1 0x0 PUSH1 0x40 MLOAD DUP1 DUP4 SUB DUP2 DUP6 DUP8 GAS CALL SWAP3 POP POP POP RETURNDATASIZE DUP1 PUSH1 0x0 DUP2 EQ PUSH2 0x47E5 JUMPI PUSH1 0x40 MLOAD SWAP2 POP PUSH1 0x1F NOT PUSH1 0x3F RETURNDATASIZE ADD AND DUP3 ADD PUSH1 0x40 MSTORE RETURNDATASIZE DUP3 MSTORE RETURNDATASIZE PUSH1 0x0 PUSH1 0x20 DUP5 ADD RETURNDATACOPY PUSH2 0x47EA JUMP JUMPDEST PUSH1 0x60 SWAP2 POP JUMPDEST POP SWAP2 POP SWAP2 POP PUSH2 0x47FA DUP3 DUP3 DUP7 PUSH2 0x4805 JUMP JUMPDEST SWAP8 SWAP7 POP POP POP POP POP POP POP JUMP JUMPDEST PUSH1 0x60 DUP4 ISZERO PUSH2 0x4814 JUMPI POP DUP2 PUSH2 0x1869 JUMP JUMPDEST DUP3 MLOAD ISZERO PUSH2 0x4824 JUMPI DUP3 MLOAD DUP1 DUP5 PUSH1 0x20 ADD REVERT JUMPDEST DUP2 PUSH1 0x40 MLOAD PUSH32 0x8C379A000000000000000000000000000000000000000000000000000000000 DUP2 MSTORE PUSH1 0x4 ADD PUSH2 0xAFD SWAP2 SWAP1 PUSH2 0x52EC JUMP JUMPDEST PUSH1 0x40 DUP1 MLOAD PUSH2 0x1A0 DUP2 ADD SWAP1 SWAP2 MSTORE DUP1 PUSH1 0x0 DUP2 MSTORE PUSH1 0x20 ADD PUSH1 0x0 DUP2 MSTORE PUSH1 0x20 ADD PUSH1 0x0 DUP2 MSTORE PUSH1 0x20 ADD PUSH1 0x0 DUP2 MSTORE PUSH1 0x20 ADD PUSH1 0x0 DUP2 MSTORE PUSH1 0x20 ADD PUSH2 0x4890 PUSH2 0x4917 JUMP JUMPDEST DUP2 MSTORE PUSH1 0x20 ADD PUSH1 0x0 DUP2 MSTORE PUSH1 0x20 ADD PUSH2 0x48A4 PUSH2 0x4917 JUMP JUMPDEST DUP2 MSTORE PUSH1 0x20 ADD PUSH2 0x48B1 PUSH2 0x4917 JUMP JUMPDEST DUP2 MSTORE PUSH1 0x20 ADD PUSH1 0x0 DUP2 MSTORE PUSH1 0x20 ADD PUSH1 0x0 DUP2 MSTORE PUSH1 0x20 ADD PUSH1 0x0 DUP2 MSTORE PUSH1 0x20 ADD PUSH1 0x0 PUSH4 0xFFFFFFFF AND DUP2 MSTORE POP SWAP1 JUMP JUMPDEST DUP3 PUSH1 0x6 DUP2 ADD SWAP3 DUP3 ISZERO PUSH2 0x4907 JUMPI SWAP2 PUSH1 0x20 MUL DUP3 ADD JUMPDEST DUP3 DUP2 GT ISZERO PUSH2 0x4907 JUMPI DUP3 MLOAD DUP3 SSTORE SWAP2 PUSH1 0x20 ADD SWAP2 SWAP1 PUSH1 0x1 ADD SWAP1 PUSH2 0x48EC JUMP JUMPDEST POP PUSH2 0x4913 SWAP3 SWAP2 POP PUSH2 0x4935 JUMP JUMPDEST POP SWAP1 JUMP JUMPDEST PUSH1 0x40 MLOAD DUP1 PUSH1 0xC0 ADD PUSH1 0x40 MSTORE DUP1 PUSH1 0x6 SWAP1 PUSH1 0x20 DUP3 MUL DUP1 CALLDATASIZE DUP4 CALLDATACOPY POP SWAP2 SWAP3 SWAP2 POP POP JUMP JUMPDEST JUMPDEST DUP1 DUP3 GT ISZERO PUSH2 0x4913 JUMPI PUSH1 0x0 DUP2 SSTORE PUSH1 0x1 ADD PUSH2 0x4936 JUMP JUMPDEST DUP1 CALLDATALOAD PUSH20 0xFFFFFFFFFFFFFFFFFFFFFFFFFFFFFFFFFFFFFFFF DUP2 AND DUP2 EQ PUSH2 0x496E JUMPI PUSH1 0x0 DUP1 REVERT JUMPDEST SWAP2 SWAP1 POP JUMP JUMPDEST PUSH1 0x0 DUP1 PUSH1 0x0 DUP1 PUSH1 0x80 DUP6 DUP8 SUB SLT ISZERO PUSH2 0x4989 JUMPI PUSH1 0x0 DUP1 REVERT JUMPDEST PUSH2 0x4992 DUP6 PUSH2 0x494A JUMP JUMPDEST SWAP7 PUSH1 0x20 DUP7 ADD CALLDATALOAD SWAP7 POP PUSH1 0x40 DUP7 ADD CALLDATALOAD SWAP6 PUSH1 0x60 ADD CALLDATALOAD SWAP5 POP SWAP3 POP POP POP JUMP JUMPDEST PUSH1 0x0 DUP2 MLOAD DUP1 DUP5 MSTORE PUSH1 0x20 DUP1 DUP6 ADD SWAP5 POP DUP1 DUP5 ADD PUSH1 0x0 JUMPDEST DUP4 DUP2 LT ISZERO PUSH2 0x49E2 JUMPI DUP2 MLOAD PUSH4 0xFFFFFFFF AND DUP8 MSTORE SWAP6 DUP3 ADD SWAP6 SWAP1 DUP3 ADD SWAP1 PUSH1 0x1 ADD PUSH2 0x49C0 JUMP JUMPDEST POP SWAP5 SWAP6 SWAP5 POP POP POP POP POP JUMP JUMPDEST PUSH1 0x0 DUP2 MLOAD DUP1 DUP5 MSTORE PUSH1 0x20 DUP1 DUP6 ADD SWAP5 POP DUP1 DUP5 ADD PUSH1 0x0 JUMPDEST DUP4 DUP2 LT ISZERO PUSH2 0x49E2 JUMPI DUP2 MLOAD ISZERO ISZERO DUP8 MSTORE SWAP6 DUP3 ADD SWAP6 SWAP1 DUP3 ADD SWAP1 PUSH1 0x1 ADD PUSH2 0x4A01 JUMP JUMPDEST PUSH1 0x80 DUP1 DUP3 MSTORE DUP6 MLOAD SWAP1 DUP3 ADD DUP2 SWAP1 MSTORE PUSH1 0x0 SWAP1 PUSH1 0x20 SWAP1 PUSH1 0xA0 DUP5 ADD SWAP1 DUP3 DUP10 ADD DUP5 JUMPDEST DUP3 DUP2 LT ISZERO PUSH2 0x4A58 JUMPI DUP2 MLOAD DUP5 MSTORE SWAP3 DUP5 ADD SWAP3 SWAP1 DUP5 ADD SWAP1 PUSH1 0x1 ADD PUSH2 0x4A3C JUMP JUMPDEST POP POP POP DUP4 DUP2 SUB DUP3 DUP6 ADD MSTORE PUSH2 0x4A6C DUP2 DUP9 PUSH2 0x49AC JUMP JUMPDEST SWAP2 POP POP DUP3 DUP2 SUB PUSH1 0x40 DUP5 ADD MSTORE PUSH2 0x4A81 DUP2 DUP7 PUSH2 0x49ED JUMP JUMPDEST SWAP2 POP POP DUP3 PUSH1 0x60 DUP4 ADD MSTORE SWAP6 SWAP5 POP POP POP POP POP JUMP JUMPDEST PUSH1 0x0 PUSH1 0x20 DUP3 DUP5 SUB SLT ISZERO PUSH2 0x4AA5 JUMPI PUSH1 0x0 DUP1 REVERT JUMPDEST PUSH2 0x1869 DUP3 PUSH2 0x494A JUMP JUMPDEST DUP1 ISZERO ISZERO DUP2 EQ PUSH2 0x332D JUMPI PUSH1 0x0 DUP1 REVERT JUMPDEST PUSH1 0x0 PUSH1 0x20 DUP3 DUP5 SUB SLT ISZERO PUSH2 0x4ACE JUMPI PUSH1 0x0 DUP1 REVERT JUMPDEST DUP2 CALLDATALOAD PUSH2 0x1869 DUP2 PUSH2 0x4AAE JUMP JUMPDEST DUP1 CALLDATALOAD PUSH4 0xFFFFFFFF DUP2 AND DUP2 EQ PUSH2 0x496E JUMPI PUSH1 0x0 DUP1 REVERT JUMPDEST PUSH1 0x0 PUSH1 0x20 DUP3 DUP5 SUB SLT ISZERO PUSH2 0x4AFF JUMPI PUSH1 0x0 DUP1 REVERT JUMPDEST PUSH2 0x1869 DUP3 PUSH2 0x4AD9 JUMP JUMPDEST PUSH1 0x0 DUP1 PUSH1 0x0 PUSH1 0x60 DUP5 DUP7 SUB SLT ISZERO PUSH2 0x4B1D JUMPI PUSH1 0x0 DUP1 REVERT JUMPDEST DUP4 CALLDATALOAD SWAP3 POP PUSH1 0x20 DUP5 ADD CALLDATALOAD SWAP2 POP PUSH1 0x40 DUP5 ADD CALLDATALOAD PUSH2 0x4B36 DUP2 PUSH2 0x4AAE JUMP JUMPDEST DUP1 SWAP2 POP POP SWAP3 POP SWAP3 POP SWAP3 JUMP JUMPDEST PUSH1 0x0 PUSH1 0x20 DUP3 DUP5 SUB SLT ISZERO PUSH2 0x4B53 JUMPI PUSH1 0x0 DUP1 REVERT JUMPDEST POP CALLDATALOAD SWAP2 SWAP1 POP JUMP JUMPDEST PUSH32 0x4E487B7100000000000000000000000000000000000000000000000000000000 PUSH1 0x0 MSTORE PUSH1 0x21 PUSH1 0x4 MSTORE PUSH1 0x24 PUSH1 0x0 REVERT JUMPDEST PUSH1 0x4 DUP2 LT PUSH2 0x4BC0 JUMPI PUSH32 0x4E487B7100000000000000000000000000000000000000000000000000000000 PUSH1 0x0 MSTORE PUSH1 0x21 PUSH1 0x4 MSTORE PUSH1 0x24 PUSH1 0x0 REVERT JUMPDEST SWAP1 MSTORE JUMP JUMPDEST DUP1 PUSH1 0x0 JUMPDEST PUSH1 0x6 DUP2 LT ISZERO PUSH2 0x447A JUMPI DUP2 MLOAD DUP5 MSTORE PUSH1 0x20 SWAP4 DUP5 ADD SWAP4 SWAP1 SWAP2 ADD SWAP1 PUSH1 0x1 ADD PUSH2 0x4BC8 JUMP JUMPDEST PUSH1 0x0 PUSH2 0x380 DUP3 ADD SWAP1 POP PUSH2 0x4BFB DUP3 DUP5 MLOAD PUSH2 0x4B89 JUMP JUMPDEST PUSH1 0x20 DUP4 ADD MLOAD PUSH1 0x20 DUP4 ADD MSTORE PUSH1 0x40 DUP4 ADD MLOAD PUSH1 0x40 DUP4 ADD MSTORE PUSH1 0x60 DUP4 ADD MLOAD PUSH1 0x60 DUP4 ADD MSTORE PUSH1 0x80 DUP4 ADD MLOAD PUSH1 0x80 DUP4 ADD MSTORE PUSH1 0xA0 DUP4 ADD MLOAD PUSH2 0x4C35 PUSH1 0xA0 DUP5 ADD DUP3 PUSH2 0x4BC4 JUMP JUMPDEST POP PUSH1 0xC0 DUP4 ADD MLOAD PUSH2 0x160 DUP2 DUP2 DUP6 ADD MSTORE PUSH1 0xE0 DUP6 ADD MLOAD SWAP2 POP PUSH2 0x180 PUSH2 0x4C59 DUP2 DUP7 ADD DUP5 PUSH2 0x4BC4 JUMP JUMPDEST PUSH2 0x100 DUP7 ADD MLOAD SWAP3 POP PUSH2 0x4C6F PUSH2 0x240 DUP7 ADD DUP5 PUSH2 0x4BC4 JUMP JUMPDEST PUSH2 0x120 DUP7 ADD MLOAD PUSH2 0x300 DUP7 ADD MSTORE PUSH2 0x140 DUP7 ADD MLOAD PUSH2 0x320 DUP7 ADD MSTORE SWAP1 DUP6 ADD MLOAD PUSH2 0x340 DUP6 ADD MSTORE DUP5 ADD MLOAD PUSH4 0xFFFFFFFF DUP2 AND PUSH2 0x360 DUP6 ADD MSTORE SWAP1 POP JUMPDEST POP SWAP3 SWAP2 POP POP JUMP JUMPDEST PUSH1 0x0 DUP1 PUSH1 0x0 PUSH1 0x60 DUP5 DUP7 SUB SLT ISZERO PUSH2 0x4CC0 JUMPI PUSH1 0x0 DUP1 REVERT JUMPDEST DUP4 CALLDATALOAD SWAP3 POP PUSH1 0x20 DUP5 ADD CALLDATALOAD SWAP2 POP PUSH2 0x4CD7 PUSH1 0x40 DUP6 ADD PUSH2 0x4AD9 JUMP JUMPDEST SWAP1 POP SWAP3 POP SWAP3 POP SWAP3 JUMP JUMPDEST PUSH1 0x0 DUP1 PUSH1 0x40 DUP4 DUP6 SUB SLT ISZERO PUSH2 0x4CF3 JUMPI PUSH1 0x0 DUP1 REVERT JUMPDEST PUSH2 0x4CFC DUP4 PUSH2 0x494A JUMP JUMPDEST SWAP5 PUSH1 0x20 SWAP4 SWAP1 SWAP4 ADD CALLDATALOAD SWAP4 POP POP POP JUMP JUMPDEST PUSH1 0x0 DUP1 PUSH1 0x40 DUP4 DUP6 SUB SLT ISZERO PUSH2 0x4D1D JUMPI PUSH1 0x0 DUP1 REVERT JUMPDEST POP POP DUP1 CALLDATALOAD SWAP3 PUSH1 0x20 SWAP1 SWAP2 ADD CALLDATALOAD SWAP2 POP JUMP JUMPDEST PUSH1 0x0 DUP1 DUP4 PUSH1 0x1F DUP5 ADD SLT PUSH2 0x4D3E JUMPI PUSH1 0x0 DUP1 REVERT JUMPDEST POP DUP2 CALLDATALOAD PUSH8 0xFFFFFFFFFFFFFFFF DUP2 GT ISZERO PUSH2 0x4D56 JUMPI PUSH1 0x0 DUP1 REVERT JUMPDEST PUSH1 0x20 DUP4 ADD SWAP2 POP DUP4 PUSH1 0x20 DUP3 PUSH1 0x5 SHL DUP6 ADD ADD GT ISZERO PUSH2 0x276D JUMPI PUSH1 0x0 DUP1 REVERT JUMPDEST PUSH1 0x0 DUP1 PUSH1 0x0 PUSH1 0x40 DUP5 DUP7 SUB SLT ISZERO PUSH2 0x4D86 JUMPI PUSH1 0x0 DUP1 REVERT JUMPDEST DUP4 CALLDATALOAD SWAP3 POP PUSH1 0x20 DUP5 ADD CALLDATALOAD PUSH8 0xFFFFFFFFFFFFFFFF DUP2 GT ISZERO PUSH2 0x4DA4 JUMPI PUSH1 0x0 DUP1 REVERT JUMPDEST PUSH2 0x4DB0 DUP7 DUP3 DUP8 ADD PUSH2 0x4D2C JUMP JUMPDEST SWAP5 SWAP8 SWAP1 SWAP7 POP SWAP4 SWAP5 POP POP POP POP JUMP JUMPDEST PUSH1 0x0 DUP1 PUSH1 0x20 DUP4 DUP6 SUB SLT ISZERO PUSH2 0x4DD0 JUMPI PUSH1 0x0 DUP1 REVERT JUMPDEST DUP3 CALLDATALOAD PUSH8 0xFFFFFFFFFFFFFFFF DUP2 GT ISZERO PUSH2 0x4DE7 JUMPI PUSH1 0x0 DUP1 REVERT JUMPDEST PUSH2 0x4DF3 DUP6 DUP3 DUP7 ADD PUSH2 0x4D2C JUMP JUMPDEST SWAP1 SWAP7 SWAP1 SWAP6 POP SWAP4 POP POP POP POP JUMP JUMPDEST PUSH1 0x40 DUP2 MSTORE PUSH1 0x0 PUSH2 0x4E12 PUSH1 0x40 DUP4 ADD DUP6 PUSH2 0x49AC JUMP JUMPDEST DUP3 DUP2 SUB PUSH1 0x20 DUP5 ADD MSTORE PUSH2 0x4E24 DUP2 DUP6 PUSH2 0x49ED JUMP JUMPDEST SWAP6 SWAP5 POP POP POP POP POP JUMP JUMPDEST PUSH1 0x0 DUP1 PUSH1 0x0 DUP1 PUSH1 0x0 PUSH2 0x140 DUP7 DUP9 SUB SLT ISZERO PUSH2 0x4E46 JUMPI PUSH1 0x0 DUP1 REVERT JUMPDEST DUP6 CALLDATALOAD SWAP5 POP PUSH1 0x20 DUP7 ADD CALLDATALOAD SWAP4 POP PUSH1 0x40 DUP7 ADD CALLDATALOAD SWAP3 POP PUSH2 0x120 DUP7 ADD DUP8 DUP2 GT ISZERO PUSH2 0x4E6A JUMPI PUSH1 0x0 DUP1 REVERT JUMPDEST SWAP5 SWAP8 SWAP4 SWAP7 POP SWAP2 SWAP5 PUSH1 0x60 ADD SWAP4 CALLDATALOAD SWAP3 SWAP2 POP POP JUMP JUMPDEST PUSH1 0x0 DUP1 PUSH1 0x0 PUSH1 0x60 DUP5 DUP7 SUB SLT ISZERO PUSH2 0x4E91 JUMPI PUSH1 0x0 DUP1 REVERT JUMPDEST POP POP DUP2 CALLDATALOAD SWAP4 PUSH1 0x20 DUP4 ADD CALLDATALOAD SWAP4 POP PUSH1 0x40 SWAP1 SWAP3 ADD CALLDATALOAD SWAP2 SWAP1 POP JUMP JUMPDEST PUSH1 0x0 DUP1 PUSH1 0x0 DUP1 PUSH1 0x0 PUSH1 0x60 DUP7 DUP9 SUB SLT ISZERO PUSH2 0x4EC0 JUMPI PUSH1 0x0 DUP1 REVERT JUMPDEST DUP6 CALLDATALOAD SWAP5 POP PUSH1 0x20 DUP7 ADD CALLDATALOAD PUSH8 0xFFFFFFFFFFFFFFFF DUP1 DUP3 GT ISZERO PUSH2 0x4EDF JUMPI PUSH1 0x0 DUP1 REVERT JUMPDEST PUSH2 0x4EEB DUP10 DUP4 DUP11 ADD PUSH2 0x4D2C JUMP JUMPDEST SWAP1 SWAP7 POP SWAP5 POP PUSH1 0x40 DUP9 ADD CALLDATALOAD SWAP2 POP DUP1 DUP3 GT ISZERO PUSH2 0x4F04 JUMPI PUSH1 0x0 DUP1 REVERT JUMPDEST POP PUSH2 0x4F11 DUP9 DUP3 DUP10 ADD PUSH2 0x4D2C JUMP JUMPDEST SWAP7 SWAP10 SWAP6 SWAP9 POP SWAP4 SWAP7 POP SWAP3 SWAP5 SWAP4 SWAP3 POP POP POP JUMP JUMPDEST PUSH1 0x0 DUP1 PUSH1 0x0 PUSH1 0x60 DUP5 DUP7 SUB SLT ISZERO PUSH2 0x4F37 JUMPI PUSH1 0x0 DUP1 REVERT JUMPDEST PUSH2 0x4F40 DUP5 PUSH2 0x494A JUMP JUMPDEST SWAP3 POP PUSH2 0x4F4E PUSH1 0x20 DUP6 ADD PUSH2 0x494A JUMP JUMPDEST SWAP2 POP PUSH2 0x4CD7 PUSH1 0x40 DUP6 ADD PUSH2 0x494A JUMP JUMPDEST PUSH32 0x4E487B7100000000000000000000000000000000000000000000000000000000 PUSH1 0x0 MSTORE PUSH1 0x11 PUSH1 0x4 MSTORE PUSH1 0x24 PUSH1 0x0 REVERT JUMPDEST DUP2 DUP2 SUB DUP2 DUP2 GT ISZERO PUSH2 0x4F9E JUMPI PUSH2 0x4F9E PUSH2 0x4F5C JUMP JUMPDEST SWAP3 SWAP2 POP POP JUMP JUMPDEST PUSH32 0x4E487B7100000000000000000000000000000000000000000000000000000000 PUSH1 0x0 MSTORE PUSH1 0x41 PUSH1 0x4 MSTORE PUSH1 0x24 PUSH1 0x0 REVERT JUMPDEST DUP1 DUP3 ADD DUP1 DUP3 GT ISZERO PUSH2 0x4F9E JUMPI PUSH2 0x4F9E PUSH2 0x4F5C JUMP JUMPDEST PUSH32 0x4E487B7100000000000000000000000000000000000000000000000000000000 PUSH1 0x0 MSTORE PUSH1 0x32 PUSH1 0x4 MSTORE PUSH1 0x24 PUSH1 0x0 REVERT JUMPDEST PUSH1 0x0 PUSH32 0xFFFFFFFFFFFFFFFFFFFFFFFFFFFFFFFFFFFFFFFFFFFFFFFFFFFFFFFFFFFFFFFF DUP3 SUB PUSH2 0x5046 JUMPI PUSH2 0x5046 PUSH2 0x4F5C JUMP JUMPDEST POP PUSH1 0x1 ADD SWAP1 JUMP JUMPDEST DUP1 DUP3 MUL DUP2 ISZERO DUP3 DUP3 DIV DUP5 EQ OR PUSH2 0x4F9E JUMPI PUSH2 0x4F9E PUSH2 0x4F5C JUMP JUMPDEST PUSH32 0x4E487B7100000000000000000000000000000000000000000000000000000000 PUSH1 0x0 MSTORE PUSH1 0x12 PUSH1 0x4 MSTORE PUSH1 0x24 PUSH1 0x0 REVERT JUMPDEST PUSH1 0x0 DUP3 PUSH2 0x50A2 JUMPI PUSH2 0x50A2 PUSH2 0x5064 JUMP JUMPDEST POP DIV SWAP1 JUMP JUMPDEST PUSH1 0x0 DUP3 PUSH2 0x50B6 JUMPI PUSH2 0x50B6 PUSH2 0x5064 JUMP JUMPDEST POP MOD SWAP1 JUMP JUMPDEST PUSH4 0xFFFFFFFF DUP3 DUP2 AND DUP3 DUP3 AND SUB SWAP1 DUP1 DUP3 GT ISZERO PUSH2 0x4CA4 JUMPI PUSH2 0x4CA4 PUSH2 0x4F5C JUMP JUMPDEST PUSH4 0xFFFFFFFF DUP2 DUP2 AND DUP4 DUP3 AND ADD SWAP1 DUP1 DUP3 GT ISZERO PUSH2 0x4CA4 JUMPI PUSH2 0x4CA4 PUSH2 0x4F5C JUMP JUMPDEST PUSH1 0x1 DUP2 DUP2 JUMPDEST DUP1 DUP6 GT ISZERO PUSH2 0x5132 JUMPI DUP2 PUSH4 0xFFFFFFFF DIV DUP3 GT ISZERO PUSH2 0x5118 JUMPI PUSH2 0x5118 PUSH2 0x4F5C JUMP JUMPDEST DUP1 DUP6 AND ISZERO PUSH2 0x5125 JUMPI SWAP2 DUP2 MUL SWAP2 JUMPDEST SWAP4 DUP5 SHR SWAP4 SWAP1 DUP1 MUL SWAP1 PUSH2 0x50FA JUMP JUMPDEST POP SWAP3 POP SWAP3 SWAP1 POP JUMP JUMPDEST PUSH1 0x0 DUP3 PUSH2 0x5149 JUMPI POP PUSH1 0x1 PUSH2 0x4F9E JUMP JUMPDEST DUP2 PUSH2 0x5156 JUMPI POP PUSH1 0x0 PUSH2 0x4F9E JUMP JUMPDEST DUP2 PUSH1 0x1 DUP2 EQ PUSH2 0x516C JUMPI PUSH1 0x2 DUP2 EQ PUSH2 0x5176 JUMPI PUSH2 0x51A7 JUMP JUMPDEST PUSH1 0x1 SWAP2 POP POP PUSH2 0x4F9E JUMP JUMPDEST PUSH1 0xFF DUP5 GT ISZERO PUSH2 0x5187 JUMPI PUSH2 0x5187 PUSH2 0x4F5C JUMP JUMPDEST PUSH1 0x1 DUP5 SHL SWAP2 POP PUSH4 0xFFFFFFFF DUP3 GT ISZERO PUSH2 0x51A1 JUMPI PUSH2 0x51A1 PUSH2 0x4F5C JUMP JUMPDEST POP PUSH2 0x4F9E JUMP JUMPDEST POP PUSH1 0x20 DUP4 LT PUSH2 0x133 DUP4 LT AND PUSH1 0x4E DUP5 LT PUSH1 0xB DUP5 LT AND OR ISZERO PUSH2 0x51DE JUMPI POP DUP2 DUP2 EXP PUSH4 0xFFFFFFFF DUP2 GT ISZERO PUSH2 0x51D9 JUMPI PUSH2 0x51D9 PUSH2 0x4F5C JUMP JUMPDEST PUSH2 0x4F9E JUMP JUMPDEST PUSH2 0x51E8 DUP4 DUP4 PUSH2 0x50F5 JUMP JUMPDEST DUP1 PUSH4 0xFFFFFFFF DIV DUP3 GT ISZERO PUSH2 0x51FE JUMPI PUSH2 0x51FE PUSH2 0x4F5C JUMP JUMPDEST MUL SWAP4 SWAP3 POP POP POP JUMP JUMPDEST PUSH1 0x0 PUSH4 0xFFFFFFFF PUSH2 0x18ED DUP2 DUP6 AND DUP3 DUP6 AND PUSH2 0x513A JUMP JUMPDEST PUSH1 0x0 PUSH4 0xFFFFFFFF DUP1 DUP5 AND DUP1 PUSH2 0x5232 JUMPI PUSH2 0x5232 PUSH2 0x5064 JUMP JUMPDEST SWAP3 AND SWAP2 SWAP1 SWAP2 MOD SWAP3 SWAP2 POP POP JUMP JUMPDEST PUSH1 0x0 PUSH4 0xFFFFFFFF DUP1 DUP4 AND DUP2 DUP2 SUB PUSH2 0x5257 JUMPI PUSH2 0x5257 PUSH2 0x4F5C JUMP JUMPDEST PUSH1 0x1 ADD SWAP4 SWAP3 POP POP POP JUMP JUMPDEST PUSH1 0x0 PUSH1 0x20 DUP3 DUP5 SUB SLT ISZERO PUSH2 0x5273 JUMPI PUSH1 0x0 DUP1 REVERT JUMPDEST POP MLOAD SWAP2 SWAP1 POP JUMP JUMPDEST PUSH1 0x0 PUSH2 0x1869 PUSH1 0xFF DUP5 AND PUSH4 0xFFFFFFFF DUP5 AND PUSH2 0x513A JUMP JUMPDEST PUSH1 0x0 PUSH1 0x20 DUP3 DUP5 SUB SLT ISZERO PUSH2 0x52A1 JUMPI PUSH1 0x0 DUP1 REVERT JUMPDEST DUP2 MLOAD PUSH2 0x1869 DUP2 PUSH2 0x4AAE JUMP JUMPDEST PUSH1 0x0 JUMPDEST DUP4 DUP2 LT ISZERO PUSH2 0x52C7 JUMPI DUP2 DUP2 ADD MLOAD DUP4 DUP3 ADD MSTORE PUSH1 0x20 ADD PUSH2 0x52AF JUMP JUMPDEST POP POP PUSH1 0x0 SWAP2 ADD MSTORE JUMP JUMPDEST PUSH1 0x0 DUP3 MLOAD PUSH2 0x52E2 DUP2 DUP5 PUSH1 0x20 DUP8 ADD PUSH2 0x52AC JUMP JUMPDEST SWAP2 SWAP1 SWAP2 ADD SWAP3 SWAP2 POP POP JUMP JUMPDEST PUSH1 0x20 DUP2 MSTORE PUSH1 0x0 DUP3 MLOAD DUP1 PUSH1 0x20 DUP5 ADD MSTORE PUSH2 0x530B DUP2 PUSH1 0x40 DUP6 ADD PUSH1 0x20 DUP8 ADD PUSH2 0x52AC JUMP JUMPDEST PUSH1 0x1F ADD PUSH32 0xFFFFFFFFFFFFFFFFFFFFFFFFFFFFFFFFFFFFFFFFFFFFFFFFFFFFFFFFFFFFFFE0 AND SWAP2 SWAP1 SWAP2 ADD PUSH1 0x40 ADD SWAP3 SWAP2 POP POP JUMP INVALID LOG2 PUSH5 0x6970667358 0x22 SLT KECCAK256 JUMPI PUSH22 0x52DD48B12EAB521783B5CD86666FA7BE11B851DC7F10 MULMOD DUP2 ADDMOD SWAP9 PUSH27 0xAA25A764736F6C6343000811003300000000000000000000000000 "
		},
		"gasEstimates": {
			"creation": {
				"codeDepositCost": "4272600",
				"executionCost": "infinite",
				"totalCost": "infinite"
			},
			"external": {
				"KYCEnabled()": "2433",
				"KYCToken()": "2401",
				"MAX_LENGTH_LOTTERY()": "262",
				"MAX_TREASURY_FEE()": "306",
				"MIN_DISCOUNT_DIVISOR()": "264",
				"MIN_LENGTH_LOTTERY()": "287",
				"OnoutAddress()": "2381",
				"OnoutFeeEnabled()": "2411",
				"buyTickets(uint256,uint32[])": "infinite",
				"cakeToken()": "2392",
				"calculateTotalPriceForBulkTickets(uint256,uint256,uint256)": "infinite",
				"checkWalletKYC(address)": "infinite",
				"claimTickets(uint256,uint256[],uint32[])": "infinite",
				"closeLottery(uint256)": "107401",
				"currentLotteryId()": "2384",
				"currentTicketId()": "2407",
				"drawFinalNumberAndMakeLotteryClaimable(uint256,bytes32,bool)": "infinite",
				"existKyc()": "290",
				"injectFunds(uint256,uint256)": "infinite",
				"injectorAddress()": "2381",
				"maxNumberTicketsPerBuyOrClaim()": "2386",
				"maxPriceTicketInCake()": "2364",
				"minPriceTicketInCake()": "2408",
				"numbersCount()": "2380",
				"operatorAddress()": "2382",
				"owner()": "2397",
				"pendingInjectionNextLottery()": "2386",
				"recoverWrongTokens(address,uint256)": "infinite",
				"renounceOwnership()": "30234",
				"setKYCEnabled(bool)": "26774",
				"setKYCToken(address)": "26772",
				"setMaxNumberTicketsPerBuy(uint256)": "24542",
				"setMinAndMaxTicketPriceInCake(uint256,uint256)": "46724",
				"setNumbersCount(uint32)": "33286",
				"setOnoutAddress(address)": "26774",
				"setOnoutFeeEnabled(bool)": "26775",
				"setOperatorAddresses(address)": "26793",
				"setOperatorAndTreasuryAndInjectorAddresses(address,address,address)": "infinite",
				"startLottery(uint256,uint256,uint256,uint256[6],uint256)": "infinite",
				"transferOwnership(address)": "30391",
				"treasuryAddress()": "2381",
				"viewCurrentLotteryId()": "2383",
				"viewLottery(uint256)": "infinite",
				"viewNumbersAndStatusesForTicketIds(uint256[])": "infinite",
				"viewRewardsForTicketId(uint256,uint256,uint32)": "infinite",
				"viewUserInfoForLotteryId(address,uint256,uint256,uint256)": "infinite",
				"withdrawBank(uint256)": "infinite",
				"withdrawCooldown()": "2363"
			},
			"internal": {
				"_calculateRewardsForTicketId(uint256,uint256,uint32)": "infinite",
				"_calculateTotalPriceForBulkTickets(uint256,uint256,uint256)": "infinite",
				"_isContract(address)": "infinite",
				"checkKYC()": "infinite"
			}
		},
		"methodIdentifiers": {
			"KYCEnabled()": "cec33199",
			"KYCToken()": "f6783518",
			"MAX_LENGTH_LOTTERY()": "db19da0d",
			"MAX_TREASURY_FEE()": "f2b3c809",
			"MIN_DISCOUNT_DIVISOR()": "7cb583bd",
			"MIN_LENGTH_LOTTERY()": "07fb5a9c",
			"OnoutAddress()": "48c2c21f",
			"OnoutFeeEnabled()": "628a167c",
			"buyTickets(uint256,uint32[])": "88303dbd",
			"cakeToken()": "8904bf2f",
			"calculateTotalPriceForBulkTickets(uint256,uint256,uint256)": "c4937ab9",
			"checkWalletKYC(address)": "2cfaf797",
			"claimTickets(uint256,uint256[],uint32[])": "c914914f",
			"closeLottery(uint256)": "9d8ca531",
			"currentLotteryId()": "6be4097c",
			"currentTicketId()": "686465b8",
			"drawFinalNumberAndMakeLotteryClaimable(uint256,bytes32,bool)": "2385860b",
			"existKyc()": "dbdec7ec",
			"injectFunds(uint256,uint256)": "471aeab4",
			"injectorAddress()": "9c384653",
			"maxNumberTicketsPerBuyOrClaim()": "1fe86c6b",
			"maxPriceTicketInCake()": "1f73664b",
			"minPriceTicketInCake()": "31feb565",
			"numbersCount()": "d86b2982",
			"operatorAddress()": "127effb2",
			"owner()": "8da5cb5b",
			"pendingInjectionNextLottery()": "12a9769d",
			"recoverWrongTokens(address,uint256)": "3f138d4b",
			"renounceOwnership()": "715018a6",
			"setKYCEnabled(bool)": "2c4e93b0",
			"setKYCToken(address)": "a3c1c4a9",
			"setMaxNumberTicketsPerBuy(uint256)": "6b873788",
			"setMinAndMaxTicketPriceInCake(uint256,uint256)": "da7429f8",
			"setNumbersCount(uint32)": "20211a30",
			"setOnoutAddress(address)": "09b86c9d",
			"setOnoutFeeEnabled(bool)": "1f710996",
			"setOperatorAddresses(address)": "fe014066",
			"setOperatorAndTreasuryAndInjectorAddresses(address,address,address)": "da4ca039",
			"startLottery(uint256,uint256,uint256,uint256[6],uint256)": "b1829b82",
			"transferOwnership(address)": "f2fde38b",
			"treasuryAddress()": "c5f956af",
			"viewCurrentLotteryId()": "80a06160",
			"viewLottery(uint256)": "2423807a",
			"viewNumbersAndStatusesForTicketIds(uint256[])": "8fc3539a",
			"viewRewardsForTicketId(uint256,uint256,uint32)": "2e530cae",
			"viewUserInfoForLotteryId(address,uint256,uint256,uint256)": "05531eeb",
			"withdrawBank(uint256)": "be2ff4a9",
			"withdrawCooldown()": "3cbfe3a1"
		}
	},
	"abi": [
		{
			"inputs": [
				{
					"internalType": "address",
					"name": "_cakeTokenAddress",
					"type": "address"
				},
				{
					"internalType": "bool",
					"name": "_OnoutFeeEnabled",
					"type": "bool"
				},
				{
					"internalType": "address",
					"name": "_KycToken",
					"type": "address"
				},
				{
					"internalType": "bool",
					"name": "_KycEnabled",
					"type": "bool"
				}
			],
			"stateMutability": "nonpayable",
			"type": "constructor"
		},
		{
			"anonymous": false,
			"inputs": [
				{
					"indexed": false,
					"internalType": "address",
					"name": "token",
					"type": "address"
				},
				{
					"indexed": false,
					"internalType": "uint256",
					"name": "amount",
					"type": "uint256"
				}
			],
			"name": "AdminTokenRecovery",
			"type": "event"
		},
		{
			"anonymous": false,
			"inputs": [
				{
					"indexed": true,
					"internalType": "uint256",
					"name": "lotteryId",
					"type": "uint256"
				},
				{
					"indexed": false,
					"internalType": "uint256",
					"name": "firstTicketIdNextLottery",
					"type": "uint256"
				}
			],
			"name": "LotteryClose",
			"type": "event"
		},
		{
			"anonymous": false,
			"inputs": [
				{
					"indexed": true,
					"internalType": "uint256",
					"name": "lotteryId",
					"type": "uint256"
				},
				{
					"indexed": false,
					"internalType": "uint256",
					"name": "injectedAmount",
					"type": "uint256"
				}
			],
			"name": "LotteryInjection",
			"type": "event"
		},
		{
			"anonymous": false,
			"inputs": [
				{
					"indexed": true,
					"internalType": "uint256",
					"name": "lotteryId",
					"type": "uint256"
				},
				{
					"indexed": false,
					"internalType": "uint256",
					"name": "finalNumber",
					"type": "uint256"
				},
				{
					"indexed": false,
					"internalType": "uint256",
					"name": "countWinningTickets",
					"type": "uint256"
				}
			],
			"name": "LotteryNumberDrawn",
			"type": "event"
		},
		{
			"anonymous": false,
			"inputs": [
				{
					"indexed": true,
					"internalType": "uint256",
					"name": "lotteryId",
					"type": "uint256"
				},
				{
					"indexed": false,
					"internalType": "uint256",
					"name": "startTime",
					"type": "uint256"
				},
				{
					"indexed": false,
					"internalType": "uint256",
					"name": "endTime",
					"type": "uint256"
				},
				{
					"indexed": false,
					"internalType": "uint256",
					"name": "priceTicketInCake",
					"type": "uint256"
				},
				{
					"indexed": false,
					"internalType": "uint256",
					"name": "firstTicketId",
					"type": "uint256"
				},
				{
					"indexed": false,
					"internalType": "uint256",
					"name": "injectedAmount",
					"type": "uint256"
				}
			],
			"name": "LotteryOpen",
			"type": "event"
		},
		{
			"anonymous": false,
			"inputs": [
				{
					"indexed": false,
					"internalType": "address",
					"name": "operator",
					"type": "address"
				},
				{
					"indexed": false,
					"internalType": "address",
					"name": "treasury",
					"type": "address"
				},
				{
					"indexed": false,
					"internalType": "address",
					"name": "injector",
					"type": "address"
				}
			],
			"name": "NewOperatorAndTreasuryAndInjectorAddresses",
			"type": "event"
		},
		{
			"anonymous": false,
			"inputs": [
				{
					"indexed": true,
					"internalType": "address",
					"name": "previousOwner",
					"type": "address"
				},
				{
					"indexed": true,
					"internalType": "address",
					"name": "newOwner",
					"type": "address"
				}
			],
			"name": "OwnershipTransferred",
			"type": "event"
		},
		{
			"anonymous": false,
			"inputs": [
				{
					"indexed": true,
					"internalType": "address",
					"name": "claimer",
					"type": "address"
				},
				{
					"indexed": false,
					"internalType": "uint256",
					"name": "amount",
					"type": "uint256"
				},
				{
					"indexed": true,
					"internalType": "uint256",
					"name": "lotteryId",
					"type": "uint256"
				},
				{
					"indexed": false,
					"internalType": "uint256",
					"name": "numberTickets",
					"type": "uint256"
				}
			],
			"name": "TicketsClaim",
			"type": "event"
		},
		{
			"anonymous": false,
			"inputs": [
				{
					"indexed": true,
					"internalType": "address",
					"name": "buyer",
					"type": "address"
				},
				{
					"indexed": true,
					"internalType": "uint256",
					"name": "lotteryId",
					"type": "uint256"
				},
				{
					"indexed": false,
					"internalType": "uint256",
					"name": "numberTickets",
					"type": "uint256"
				}
			],
			"name": "TicketsPurchase",
			"type": "event"
		},
		{
			"inputs": [],
			"name": "KYCEnabled",
			"outputs": [
				{
					"internalType": "bool",
					"name": "",
					"type": "bool"
				}
			],
			"stateMutability": "view",
			"type": "function"
		},
		{
			"inputs": [],
			"name": "KYCToken",
			"outputs": [
				{
					"internalType": "contract IKYCToken",
					"name": "",
					"type": "address"
				}
			],
			"stateMutability": "view",
			"type": "function"
		},
		{
			"inputs": [],
			"name": "MAX_LENGTH_LOTTERY",
			"outputs": [
				{
					"internalType": "uint256",
					"name": "",
					"type": "uint256"
				}
			],
			"stateMutability": "view",
			"type": "function"
		},
		{
			"inputs": [],
			"name": "MAX_TREASURY_FEE",
			"outputs": [
				{
					"internalType": "uint256",
					"name": "",
					"type": "uint256"
				}
			],
			"stateMutability": "view",
			"type": "function"
		},
		{
			"inputs": [],
			"name": "MIN_DISCOUNT_DIVISOR",
			"outputs": [
				{
					"internalType": "uint256",
					"name": "",
					"type": "uint256"
				}
			],
			"stateMutability": "view",
			"type": "function"
		},
		{
			"inputs": [],
			"name": "MIN_LENGTH_LOTTERY",
			"outputs": [
				{
					"internalType": "uint256",
					"name": "",
					"type": "uint256"
				}
			],
			"stateMutability": "view",
			"type": "function"
		},
		{
			"inputs": [],
			"name": "OnoutAddress",
			"outputs": [
				{
					"internalType": "address",
					"name": "",
					"type": "address"
				}
			],
			"stateMutability": "view",
			"type": "function"
		},
		{
			"inputs": [],
			"name": "OnoutFeeEnabled",
			"outputs": [
				{
					"internalType": "bool",
					"name": "",
					"type": "bool"
				}
			],
			"stateMutability": "view",
			"type": "function"
		},
		{
			"inputs": [
				{
					"internalType": "uint256",
					"name": "_lotteryId",
					"type": "uint256"
				},
				{
					"internalType": "uint32[]",
					"name": "_ticketNumbers",
					"type": "uint32[]"
				}
			],
			"name": "buyTickets",
			"outputs": [],
			"stateMutability": "nonpayable",
			"type": "function"
		},
		{
			"inputs": [],
			"name": "cakeToken",
			"outputs": [
				{
					"internalType": "contract IERC20",
					"name": "",
					"type": "address"
				}
			],
			"stateMutability": "view",
			"type": "function"
		},
		{
			"inputs": [
				{
					"internalType": "uint256",
					"name": "_discountDivisor",
					"type": "uint256"
				},
				{
					"internalType": "uint256",
					"name": "_priceTicket",
					"type": "uint256"
				},
				{
					"internalType": "uint256",
					"name": "_numberTickets",
					"type": "uint256"
				}
			],
			"name": "calculateTotalPriceForBulkTickets",
			"outputs": [
				{
					"internalType": "uint256",
					"name": "",
					"type": "uint256"
				}
			],
			"stateMutability": "pure",
			"type": "function"
		},
		{
			"inputs": [
				{
					"internalType": "address",
					"name": "_wallet",
					"type": "address"
				}
			],
			"name": "checkWalletKYC",
			"outputs": [
				{
					"internalType": "bool",
					"name": "",
					"type": "bool"
				}
			],
			"stateMutability": "view",
			"type": "function"
		},
		{
			"inputs": [
				{
					"internalType": "uint256",
					"name": "_lotteryId",
					"type": "uint256"
				},
				{
					"internalType": "uint256[]",
					"name": "_ticketIds",
					"type": "uint256[]"
				},
				{
					"internalType": "uint32[]",
					"name": "_brackets",
					"type": "uint32[]"
				}
			],
			"name": "claimTickets",
			"outputs": [],
			"stateMutability": "nonpayable",
			"type": "function"
		},
		{
			"inputs": [
				{
					"internalType": "uint256",
					"name": "_lotteryId",
					"type": "uint256"
				}
			],
			"name": "closeLottery",
			"outputs": [],
			"stateMutability": "nonpayable",
			"type": "function"
		},
		{
			"inputs": [],
			"name": "currentLotteryId",
			"outputs": [
				{
					"internalType": "uint256",
					"name": "",
					"type": "uint256"
				}
			],
			"stateMutability": "view",
			"type": "function"
		},
		{
			"inputs": [],
			"name": "currentTicketId",
			"outputs": [
				{
					"internalType": "uint256",
					"name": "",
					"type": "uint256"
				}
			],
			"stateMutability": "view",
			"type": "function"
		},
		{
			"inputs": [
				{
					"internalType": "uint256",
					"name": "_lotteryId",
					"type": "uint256"
				},
				{
					"internalType": "bytes32",
					"name": "_seed",
					"type": "bytes32"
				},
				{
					"internalType": "bool",
					"name": "_autoInjection",
					"type": "bool"
				}
			],
			"name": "drawFinalNumberAndMakeLotteryClaimable",
			"outputs": [],
			"stateMutability": "nonpayable",
			"type": "function"
		},
		{
			"inputs": [],
			"name": "existKyc",
			"outputs": [
				{
					"internalType": "bool",
					"name": "",
					"type": "bool"
				}
			],
			"stateMutability": "view",
			"type": "function"
		},
		{
			"inputs": [
				{
					"internalType": "uint256",
					"name": "_lotteryId",
					"type": "uint256"
				},
				{
					"internalType": "uint256",
					"name": "_amount",
					"type": "uint256"
				}
			],
			"name": "injectFunds",
			"outputs": [],
			"stateMutability": "nonpayable",
			"type": "function"
		},
		{
			"inputs": [],
			"name": "injectorAddress",
			"outputs": [
				{
					"internalType": "address",
					"name": "",
					"type": "address"
				}
			],
			"stateMutability": "view",
			"type": "function"
		},
		{
			"inputs": [],
			"name": "maxNumberTicketsPerBuyOrClaim",
			"outputs": [
				{
					"internalType": "uint256",
					"name": "",
					"type": "uint256"
				}
			],
			"stateMutability": "view",
			"type": "function"
		},
		{
			"inputs": [],
			"name": "maxPriceTicketInCake",
			"outputs": [
				{
					"internalType": "uint256",
					"name": "",
					"type": "uint256"
				}
			],
			"stateMutability": "view",
			"type": "function"
		},
		{
			"inputs": [],
			"name": "minPriceTicketInCake",
			"outputs": [
				{
					"internalType": "uint256",
					"name": "",
					"type": "uint256"
				}
			],
			"stateMutability": "view",
			"type": "function"
		},
		{
			"inputs": [],
			"name": "numbersCount",
			"outputs": [
				{
					"internalType": "uint32",
					"name": "",
					"type": "uint32"
				}
			],
			"stateMutability": "view",
			"type": "function"
		},
		{
			"inputs": [],
			"name": "operatorAddress",
			"outputs": [
				{
					"internalType": "address",
					"name": "",
					"type": "address"
				}
			],
			"stateMutability": "view",
			"type": "function"
		},
		{
			"inputs": [],
			"name": "owner",
			"outputs": [
				{
					"internalType": "address",
					"name": "",
					"type": "address"
				}
			],
			"stateMutability": "view",
			"type": "function"
		},
		{
			"inputs": [],
			"name": "pendingInjectionNextLottery",
			"outputs": [
				{
					"internalType": "uint256",
					"name": "",
					"type": "uint256"
				}
			],
			"stateMutability": "view",
			"type": "function"
		},
		{
			"inputs": [
				{
					"internalType": "address",
					"name": "_tokenAddress",
					"type": "address"
				},
				{
					"internalType": "uint256",
					"name": "_tokenAmount",
					"type": "uint256"
				}
			],
			"name": "recoverWrongTokens",
			"outputs": [],
			"stateMutability": "nonpayable",
			"type": "function"
		},
		{
			"inputs": [],
			"name": "renounceOwnership",
			"outputs": [],
			"stateMutability": "nonpayable",
			"type": "function"
		},
		{
			"inputs": [
				{
					"internalType": "bool",
					"name": "_KYCEnabled",
					"type": "bool"
				}
			],
			"name": "setKYCEnabled",
			"outputs": [],
			"stateMutability": "nonpayable",
			"type": "function"
		},
		{
			"inputs": [
				{
					"internalType": "address",
					"name": "_KYCTokenAddress",
					"type": "address"
				}
			],
			"name": "setKYCToken",
			"outputs": [],
			"stateMutability": "nonpayable",
			"type": "function"
		},
		{
			"inputs": [
				{
					"internalType": "uint256",
					"name": "_maxNumberTicketsPerBuy",
					"type": "uint256"
				}
			],
			"name": "setMaxNumberTicketsPerBuy",
			"outputs": [],
			"stateMutability": "nonpayable",
			"type": "function"
		},
		{
			"inputs": [
				{
					"internalType": "uint256",
					"name": "_minPriceTicketInCake",
					"type": "uint256"
				},
				{
					"internalType": "uint256",
					"name": "_maxPriceTicketInCake",
					"type": "uint256"
				}
			],
			"name": "setMinAndMaxTicketPriceInCake",
			"outputs": [],
			"stateMutability": "nonpayable",
			"type": "function"
		},
		{
			"inputs": [
				{
					"internalType": "uint32",
					"name": "_numbersCount",
					"type": "uint32"
				}
			],
			"name": "setNumbersCount",
			"outputs": [],
			"stateMutability": "nonpayable",
			"type": "function"
		},
		{
			"inputs": [
				{
					"internalType": "address",
					"name": "_newFeeAddress",
					"type": "address"
				}
			],
			"name": "setOnoutAddress",
			"outputs": [],
			"stateMutability": "nonpayable",
			"type": "function"
		},
		{
			"inputs": [
				{
					"internalType": "bool",
					"name": "_value",
					"type": "bool"
				}
			],
			"name": "setOnoutFeeEnabled",
			"outputs": [],
			"stateMutability": "nonpayable",
			"type": "function"
		},
		{
			"inputs": [
				{
					"internalType": "address",
					"name": "_operatorAddress",
					"type": "address"
				}
			],
			"name": "setOperatorAddresses",
			"outputs": [],
			"stateMutability": "nonpayable",
			"type": "function"
		},
		{
			"inputs": [
				{
					"internalType": "address",
					"name": "_operatorAddress",
					"type": "address"
				},
				{
					"internalType": "address",
					"name": "_treasuryAddress",
					"type": "address"
				},
				{
					"internalType": "address",
					"name": "_injectorAddress",
					"type": "address"
				}
			],
			"name": "setOperatorAndTreasuryAndInjectorAddresses",
			"outputs": [],
			"stateMutability": "nonpayable",
			"type": "function"
		},
		{
			"inputs": [
				{
					"internalType": "uint256",
					"name": "_endTime",
					"type": "uint256"
				},
				{
					"internalType": "uint256",
					"name": "_priceTicketInCake",
					"type": "uint256"
				},
				{
					"internalType": "uint256",
					"name": "_discountDivisor",
					"type": "uint256"
				},
				{
					"internalType": "uint256[6]",
					"name": "_rewardsBreakdown",
					"type": "uint256[6]"
				},
				{
					"internalType": "uint256",
					"name": "_treasuryFee",
					"type": "uint256"
				}
			],
			"name": "startLottery",
			"outputs": [],
			"stateMutability": "nonpayable",
			"type": "function"
		},
		{
			"inputs": [
				{
					"internalType": "address",
					"name": "newOwner",
					"type": "address"
				}
			],
			"name": "transferOwnership",
			"outputs": [],
			"stateMutability": "nonpayable",
			"type": "function"
		},
		{
			"inputs": [],
			"name": "treasuryAddress",
			"outputs": [
				{
					"internalType": "address",
					"name": "",
					"type": "address"
				}
			],
			"stateMutability": "view",
			"type": "function"
		},
		{
			"inputs": [],
			"name": "viewCurrentLotteryId",
			"outputs": [
				{
					"internalType": "uint256",
					"name": "",
					"type": "uint256"
				}
			],
			"stateMutability": "view",
			"type": "function"
		},
		{
			"inputs": [
				{
					"internalType": "uint256",
					"name": "_lotteryId",
					"type": "uint256"
				}
			],
			"name": "viewLottery",
			"outputs": [
				{
					"components": [
						{
							"internalType": "enum PancakeSwapLotteryKYC.Status",
							"name": "status",
							"type": "uint8"
						},
						{
							"internalType": "uint256",
							"name": "startTime",
							"type": "uint256"
						},
						{
							"internalType": "uint256",
							"name": "endTime",
							"type": "uint256"
						},
						{
							"internalType": "uint256",
							"name": "priceTicketInCake",
							"type": "uint256"
						},
						{
							"internalType": "uint256",
							"name": "discountDivisor",
							"type": "uint256"
						},
						{
							"internalType": "uint256[6]",
							"name": "rewardsBreakdown",
							"type": "uint256[6]"
						},
						{
							"internalType": "uint256",
							"name": "treasuryFee",
							"type": "uint256"
						},
						{
							"internalType": "uint256[6]",
							"name": "cakePerBracket",
							"type": "uint256[6]"
						},
						{
							"internalType": "uint256[6]",
							"name": "countWinnersPerBracket",
							"type": "uint256[6]"
						},
						{
							"internalType": "uint256",
							"name": "firstTicketId",
							"type": "uint256"
						},
						{
							"internalType": "uint256",
							"name": "firstTicketIdNextLottery",
							"type": "uint256"
						},
						{
							"internalType": "uint256",
							"name": "amountCollectedInCake",
							"type": "uint256"
						},
						{
							"internalType": "uint32",
							"name": "finalNumber",
							"type": "uint32"
						}
					],
					"internalType": "struct PancakeSwapLotteryKYC.Lottery",
					"name": "",
					"type": "tuple"
				}
			],
			"stateMutability": "view",
			"type": "function"
		},
		{
			"inputs": [
				{
					"internalType": "uint256[]",
					"name": "_ticketIds",
					"type": "uint256[]"
				}
			],
			"name": "viewNumbersAndStatusesForTicketIds",
			"outputs": [
				{
					"internalType": "uint32[]",
					"name": "",
					"type": "uint32[]"
				},
				{
					"internalType": "bool[]",
					"name": "",
					"type": "bool[]"
				}
			],
			"stateMutability": "view",
			"type": "function"
		},
		{
			"inputs": [
				{
					"internalType": "uint256",
					"name": "_lotteryId",
					"type": "uint256"
				},
				{
					"internalType": "uint256",
					"name": "_ticketId",
					"type": "uint256"
				},
				{
					"internalType": "uint32",
					"name": "_bracket",
					"type": "uint32"
				}
			],
			"name": "viewRewardsForTicketId",
			"outputs": [
				{
					"internalType": "uint256",
					"name": "",
					"type": "uint256"
				}
			],
			"stateMutability": "view",
			"type": "function"
		},
		{
			"inputs": [
				{
					"internalType": "address",
					"name": "_user",
					"type": "address"
				},
				{
					"internalType": "uint256",
					"name": "_lotteryId",
					"type": "uint256"
				},
				{
					"internalType": "uint256",
					"name": "_cursor",
					"type": "uint256"
				},
				{
					"internalType": "uint256",
					"name": "_size",
					"type": "uint256"
				}
			],
			"name": "viewUserInfoForLotteryId",
			"outputs": [
				{
					"internalType": "uint256[]",
					"name": "",
					"type": "uint256[]"
				},
				{
					"internalType": "uint32[]",
					"name": "",
					"type": "uint32[]"
				},
				{
					"internalType": "bool[]",
					"name": "",
					"type": "bool[]"
				},
				{
					"internalType": "uint256",
					"name": "",
					"type": "uint256"
				}
			],
			"stateMutability": "view",
			"type": "function"
		},
		{
			"inputs": [
				{
					"internalType": "uint256",
					"name": "_tokenAmount",
					"type": "uint256"
				}
			],
			"name": "withdrawBank",
			"outputs": [],
			"stateMutability": "nonpayable",
			"type": "function"
		},
		{
			"inputs": [],
			"name": "withdrawCooldown",
			"outputs": [
				{
					"internalType": "uint256",
					"name": "",
					"type": "uint256"
				}
			],
			"stateMutability": "view",
			"type": "function"
		}
	]
}