{
	"data": {
		"bytecode": {
			"linkReferences": {},
			"object": "608060405260646007556802b5e3af16b18800006008556611c37937e080006009553480156200002e57600080fd5b506040516200517438038062005174833981016040819052620000519162000226565b6001600081815581546001600160a01b031916339081179092556040518291907f8be0079c531659141344cd1fd0a4f28419497f9722a3daafe3b4186f6b6457e0908290a350600b80546001600160a01b039384166001600160a01b0319918216178255600c80549385169382169390931790925560018054600380549190951690841681179094556004805484168517905560028054909316909317909155600f6020527ff4803e074bd026baaf6ed2e288c9515f68c72fb7216eebdd7cae1718a53ec375805463ffffffff1990811690931790557f169f97de0d9a84d840042b17d3c6b9638b3d6fd9024c9eb0c7a306a17b49f88f8054831690911790557fa74ba3945261e09fde15ba3db55005b205e61eeb4ad811ac0faa2b315bffeead80548216606f1790557f45f76dafbbad695564362934e24d72eedc57f9fc1a65f39bca62176cc8296828805482166104571790557f367ccd2d0ac16bf7110a5dffe0801fdc9452a95a1adb7e1a12fe97dd3e9a4edd80548216612b6717905560056000527f6bda57492eba051cb4a12a1e19df47c9755d78165341d4009b1d09b3f361620480549091166201b2071790556200025d565b80516001600160a01b03811681146200022157600080fd5b919050565b6000806040838503121562000239578182fd5b620002448362000209565b9150620002546020840162000209565b90509250929050565b614f07806200026d6000396000f3fe608060405234801561001057600080fd5b50600436106102415760003560e01c806388303dbd11610145578063c4937ab9116100bd578063da7429f81161008c578063dcbad90d11610071578063dcbad90d146104d6578063f2b3c809146104f6578063f2fde38b146104ff57600080fd5b8063da7429f8146104b9578063db19da0d146104cc57600080fd5b8063c4937ab914610460578063c5f956af14610473578063c914914f14610493578063da4ca039146104a657600080fd5b806398359fa1116101145780639d8ca531116100f95780639d8ca53114610427578063b1829b821461043a578063c38de5391461044d57600080fd5b806398359fa1146103f45780639c3846531461040757600080fd5b806388303dbd146103825780638904bf2f146103955780638da5cb5b146103b55780638fc3539a146103d357600080fd5b806331feb565116101d85780636b873788116101a7578063715018a61161018c578063715018a6146103725780637cb583bd1461027257806380a061601461037a57600080fd5b80636b873788146103565780636be4097c1461036957600080fd5b806331feb5651461031c5780633f138d4b14610325578063471aeab41461033a578063686465b81461034d57600080fd5b80631f73664b116102145780631f73664b146102d75780631fe86c6b146102e05780632423807a146102e95780632e530cae1461030957600080fd5b806305531eeb1461024657806307fb5a9c14610272578063127effb21461028957806312a9769d146102ce575b600080fd5b610259610254366004614647565b610512565b60405161026994939291906149ef565b60405180910390f35b61027b61012c81565b604051908152602001610269565b6003546102a99073ffffffffffffffffffffffffffffffffffffffff1681565b60405173ffffffffffffffffffffffffffffffffffffffff9091168152602001610269565b61027b600a5481565b61027b60085481565b61027b60075481565b6102fc6102f73660046146db565b6109c5565b6040516102699190614ae2565b61027b610317366004614894565b610b74565b61027b60095481565b61033861033336600461461e565b610c22565b005b6103386103483660046147fb565b610da1565b61027b60065481565b6103386103643660046146db565b610f7b565b61027b60055481565b610338611068565b60055461027b565b610338610390366004614782565b611158565b600b546102a99073ffffffffffffffffffffffffffffffffffffffff1681565b60015473ffffffffffffffffffffffffffffffffffffffff166102a9565b6103e66103e136600461467f565b6118e5565b604051610269929190614a63565b6103386104023660046145c2565b611bbd565b6002546102a99073ffffffffffffffffffffffffffffffffffffffff1681565b6103386104353660046146db565b611eb8565b610338610448366004614847565b612237565b61033861045b3660046147cc565b6128af565b61027b61046e36600461481c565b6130c9565b6004546102a99073ffffffffffffffffffffffffffffffffffffffff1681565b6103386104a136600461470b565b6131a9565b6103386104b43660046145dc565b613a1d565b6103386104c73660046147fb565b613cbe565b61027b6205472c81565b600c546102a99073ffffffffffffffffffffffffffffffffffffffff1681565b61027b610bb881565b61033861050d3660046145c2565b613db4565b73ffffffffffffffffffffffffffffffffffffffff84166000908152601160209081526040808320868452909152812054606091829182919085906105578882614d68565b82111561056b576105688882614d68565b91505b60008267ffffffffffffffff8111156105ad577f4e487b7100000000000000000000000000000000000000000000000000000000600052604160045260246000fd5b6040519080825280602002602001820160405280156105d6578160200160208202803683370190505b50905060008367ffffffffffffffff81111561061b577f4e487b7100000000000000000000000000000000000000000000000000000000600052604160045260246000fd5b604051908082528060200260200182016040528015610644578160200160208202803683370190505b50905060008467ffffffffffffffff811115610689577f4e487b7100000000000000000000000000000000000000000000000000000000600052604160045260246000fd5b6040519080825280602002602001820160405280156106b2578160200160208202803683370190505b50905060005b8581101561099f57601160008f73ffffffffffffffffffffffffffffffffffffffff1673ffffffffffffffffffffffffffffffffffffffff16815260200190815260200160002060008e81526020019081526020016000208c8261071c9190614ba5565b81548110610753577f4e487b7100000000000000000000000000000000000000000000000000000000600052603260045260246000fd5b9060005260206000200154848281518110610797577f4e487b7100000000000000000000000000000000000000000000000000000000600052603260045260246000fd5b602002602001018181525050600e60008583815181106107e0577f4e487b7100000000000000000000000000000000000000000000000000000000600052603260045260246000fd5b6020026020010151815260200190815260200160002060000160009054906101000a900463ffffffff16838281518110610843577f4e487b7100000000000000000000000000000000000000000000000000000000600052603260045260246000fd5b602002602001019063ffffffff16908163ffffffff1681525050600073ffffffffffffffffffffffffffffffffffffffff16600e60008684815181106108b2577f4e487b7100000000000000000000000000000000000000000000000000000000600052603260045260246000fd5b602090810291909101810151825281019190915260400160002054640100000000900473ffffffffffffffffffffffffffffffffffffffff16141561094157600182828151811061092c577f4e487b7100000000000000000000000000000000000000000000000000000000600052603260045260246000fd5b9115156020928302919091019091015261098d565b600082828151811061097c577f4e487b7100000000000000000000000000000000000000000000000000000000600052603260045260246000fd5b911515602092830291909101909101525b8061099781614dd0565b9150506106b8565b508282826109ad888f614ba5565b98509850985098505050505050945094509450949050565b6109cd614464565b6000828152600d60205260409081902081516101a081019092528054829060ff166003811115610a26577f4e487b7100000000000000000000000000000000000000000000000000000000600052602160045260246000fd5b6003811115610a5e577f4e487b7100000000000000000000000000000000000000000000000000000000600052602160045260246000fd5b81526001820154602082015260028201546040808301919091526003830154606083015260048301546080830152805160c081019182905260a09092019190600584019060069082845b815481526020019060010190808311610aa8575050509183525050600b82015460208201526040805160c081018252910190600c830160068282826020028201915b815481526020019060010190808311610aea5750505091835250506040805160c081019182905260209092019190601284019060069082845b815481526020019060010190808311610b235750505091835250506018820154602082015260198201546040820152601a8201546060820152601b9091015463ffffffff1660809091015292915050565b600060036000858152600d602052604090205460ff166003811115610bc2577f4e487b7100000000000000000000000000000000000000000000000000000000600052602160045260246000fd5b14610bcf57506000610c1b565b6000848152600d602052604090206019015483118015610c0057506000848152600d60205260409020601801548311155b15610c0d57506000610c1b565b610c18848484613f66565b90505b9392505050565b60015473ffffffffffffffffffffffffffffffffffffffff163314610ca8576040517f08c379a000000000000000000000000000000000000000000000000000000000815260206004820181905260248201527f4f776e61626c653a2063616c6c6572206973206e6f7420746865206f776e657260448201526064015b60405180910390fd5b600b5473ffffffffffffffffffffffffffffffffffffffff83811691161415610d2d576040517f08c379a000000000000000000000000000000000000000000000000000000000815260206004820152601460248201527f43616e6e6f742062652043414b4520746f6b656e0000000000000000000000006044820152606401610c9f565b610d4e73ffffffffffffffffffffffffffffffffffffffff83163383614098565b6040805173ffffffffffffffffffffffffffffffffffffffff84168152602081018390527f74545154aac348a3eac92596bd1971957ca94795f4e954ec5f613b55fab78129910160405180910390a15050565b60015473ffffffffffffffffffffffffffffffffffffffff16331480610dde575060025473ffffffffffffffffffffffffffffffffffffffff1633145b610e44576040517f08c379a000000000000000000000000000000000000000000000000000000000815260206004820152601560248201527f4e6f74206f776e6572206f7220696e6a6563746f7200000000000000000000006044820152606401610c9f565b60016000838152600d602052604090205460ff166003811115610e90577f4e487b7100000000000000000000000000000000000000000000000000000000600052602160045260246000fd5b14610ef7576040517f08c379a000000000000000000000000000000000000000000000000000000000815260206004820152601060248201527f4c6f7474657279206e6f74206f70656e000000000000000000000000000000006044820152606401610c9f565b600b54610f1c9073ffffffffffffffffffffffffffffffffffffffff16333084614171565b6000828152600d60205260408120601a018054839290610f3d908490614ba5565b909155505060405181815282907f1bbd659dd628a25f7ff2eabb69c74a56939c539728282275c1c9c1a2d3e340499060200160405180910390a25050565b60015473ffffffffffffffffffffffffffffffffffffffff163314610ffc576040517f08c379a000000000000000000000000000000000000000000000000000000000815260206004820181905260248201527f4f776e61626c653a2063616c6c6572206973206e6f7420746865206f776e65726044820152606401610c9f565b80611063576040517f08c379a000000000000000000000000000000000000000000000000000000000815260206004820152600b60248201527f4d757374206265203e20300000000000000000000000000000000000000000006044820152606401610c9f565b600755565b60015473ffffffffffffffffffffffffffffffffffffffff1633146110e9576040517f08c379a000000000000000000000000000000000000000000000000000000000815260206004820181905260248201527f4f776e61626c653a2063616c6c6572206973206e6f7420746865206f776e65726044820152606401610c9f565b60015460405160009173ffffffffffffffffffffffffffffffffffffffff16907f8be0079c531659141344cd1fd0a4f28419497f9722a3daafe3b4186f6b6457e0908390a3600180547fffffffffffffffffffffffff0000000000000000000000000000000000000000169055565b333b156111c1576040517f08c379a000000000000000000000000000000000000000000000000000000000815260206004820152601460248201527f436f6e7472616374206e6f7420616c6c6f7765640000000000000000000000006044820152606401610c9f565b33321461122a576040517f08c379a000000000000000000000000000000000000000000000000000000000815260206004820152601a60248201527f50726f787920636f6e7472616374206e6f7420616c6c6f7765640000000000006044820152606401610c9f565b60026000541415611297576040517f08c379a000000000000000000000000000000000000000000000000000000000815260206004820152601f60248201527f5265656e7472616e637947756172643a207265656e7472616e742063616c6c006044820152606401610c9f565b600260005580611303576040517f08c379a000000000000000000000000000000000000000000000000000000000815260206004820152601360248201527f4e6f207469636b657420737065636966696564000000000000000000000000006044820152606401610c9f565b60075481111561136f576040517f08c379a000000000000000000000000000000000000000000000000000000000815260206004820152601060248201527f546f6f206d616e79207469636b657473000000000000000000000000000000006044820152606401610c9f565b60016000848152600d602052604090205460ff1660038111156113bb577f4e487b7100000000000000000000000000000000000000000000000000000000600052602160045260246000fd5b14611422576040517f08c379a000000000000000000000000000000000000000000000000000000000815260206004820152601360248201527f4c6f7474657279206973206e6f74206f70656e000000000000000000000000006044820152606401610c9f565b6000838152600d6020526040902060020154421061149c576040517f08c379a000000000000000000000000000000000000000000000000000000000815260206004820152600f60248201527f4c6f7474657279206973206f76657200000000000000000000000000000000006044820152606401610c9f565b6000838152600d6020526040812060048101546003909101546114c09190846141d5565b600b549091506114e89073ffffffffffffffffffffffffffffffffffffffff16333084614171565b6000848152600d60205260408120601a018054839290611509908490614ba5565b90915550600090505b828110156118a2576000848483818110611555577f4e487b7100000000000000000000000000000000000000000000000000000000600052603260045260246000fd5b905060200201602081019061156a91906148cc565b9050620f42408163ffffffff161015801561158e5750621e847f8163ffffffff1611155b6115f4576040517f08c379a000000000000000000000000000000000000000000000000000000000815260206004820152600d60248201527f4f7574736964652072616e6765000000000000000000000000000000000000006044820152606401610c9f565b60008681526010602052604081209061160e600a84614e2d565b611619906001614bbd565b63ffffffff1681526020810191909152604001600090812080549161163d83614dd0565b909155505060008681526010602052604081209061165c606484614e2d565b61166790600b614bbd565b63ffffffff1681526020810191909152604001600090812080549161168b83614dd0565b90915550506000868152601060205260408120906116ab6103e884614e2d565b6116b690606f614bbd565b63ffffffff168152602081019190915260400160009081208054916116da83614dd0565b90915550506000868152601060205260408120906116fa61271084614e2d565b61170690610457614bbd565b63ffffffff1681526020810191909152604001600090812080549161172a83614dd0565b909155505060008681526010602052604081209061174b620186a084614e2d565b61175790612b67614bbd565b63ffffffff1681526020810191909152604001600090812080549161177b83614dd0565b909155505060008681526010602052604081209061179c620f424084614e2d565b6117a9906201b207614bbd565b63ffffffff168152602081019190915260400160009081208054916117cd83614dd0565b90915550503360008181526011602090815260408083208a84528252808320600680548254600181018455928652848620909201919091558151808301835263ffffffff808816825281850196875282548652600e90945291842091518254955173ffffffffffffffffffffffffffffffffffffffff16640100000000027fffffffffffffffff000000000000000000000000000000000000000000000000909616931692909217939093179092558154919061188983614dd0565b919050555050808061189a90614dd0565b915050611512565b50604051828152849033907fd7d247b583de1023852eef87b48f54354dbec771d01bc2cc49e96094efc322b99060200160405180910390a3505060016000555050565b6060808260008167ffffffffffffffff81111561192b577f4e487b7100000000000000000000000000000000000000000000000000000000600052604160045260246000fd5b604051908082528060200260200182016040528015611954578160200160208202803683370190505b50905060008267ffffffffffffffff811115611999577f4e487b7100000000000000000000000000000000000000000000000000000000600052604160045260246000fd5b6040519080825280602002602001820160405280156119c2578160200160208202803683370190505b50905060005b83811015611bae57600e6000898984818110611a0d577f4e487b7100000000000000000000000000000000000000000000000000000000600052603260045260246000fd5b90506020020135815260200190815260200160002060000160009054906101000a900463ffffffff16838281518110611a6f577f4e487b7100000000000000000000000000000000000000000000000000000000600052603260045260246000fd5b63ffffffff909216602092830291909101909101526000600e818a8a85818110611ac2577f4e487b7100000000000000000000000000000000000000000000000000000000600052603260045260246000fd5b6020908102929092013583525081019190915260400160002054640100000000900473ffffffffffffffffffffffffffffffffffffffff161415611b50576001828281518110611b3b577f4e487b7100000000000000000000000000000000000000000000000000000000600052603260045260246000fd5b91151560209283029190910190910152611b9c565b6000828281518110611b8b577f4e487b7100000000000000000000000000000000000000000000000000000000600052603260045260246000fd5b911515602092830291909101909101525b80611ba681614dd0565b9150506119c8565b509093509150505b9250929050565b60015473ffffffffffffffffffffffffffffffffffffffff163314611c3e576040517f08c379a000000000000000000000000000000000000000000000000000000000815260206004820181905260248201527f4f776e61626c653a2063616c6c6572206973206e6f7420746865206f776e65726044820152606401610c9f565b60036005546000908152600d602052604090205460ff166003811115611c8d577f4e487b7100000000000000000000000000000000000000000000000000000000600052602160045260246000fd5b14611cf4576040517f08c379a000000000000000000000000000000000000000000000000000000000815260206004820152601860248201527f4c6f7474657279206e6f7420696e20636c61696d61626c6500000000000000006044820152606401610c9f565b8073ffffffffffffffffffffffffffffffffffffffff1663b37217a4600554600654604051602001611d30929190918252602082015260400190565b604080518083037fffffffffffffffffffffffffffffffffffffffffffffffffffffffffffffffe001815290829052805160209091012060e083901b7fffffffff000000000000000000000000000000000000000000000000000000001682526004820152602401600060405180830381600087803b158015611db257600080fd5b505af1158015611dc6573d6000803e3d6000fd5b505050508073ffffffffffffffffffffffffffffffffffffffff1663a1c4f55a6040518163ffffffff1660e01b815260040160206040518083038186803b158015611e1057600080fd5b505afa158015611e24573d6000803e3d6000fd5b505050506040513d601f19601f82011682018060405250810190611e4891906148e8565b50600c80547fffffffffffffffffffffffff00000000000000000000000000000000000000001673ffffffffffffffffffffffffffffffffffffffff83169081179091556040517f383f8cb39dfa7c3fb901a460dd449ea924868f0a92ff03da64740fffa5f1de6290600090a250565b60035473ffffffffffffffffffffffffffffffffffffffff163314611f39576040517f08c379a000000000000000000000000000000000000000000000000000000000815260206004820152600c60248201527f4e6f74206f70657261746f7200000000000000000000000000000000000000006044820152606401610c9f565b60026000541415611fa6576040517f08c379a000000000000000000000000000000000000000000000000000000000815260206004820152601f60248201527f5265656e7472616e637947756172643a207265656e7472616e742063616c6c006044820152606401610c9f565b600260005560016000828152600d602052604090205460ff166003811115611ff7577f4e487b7100000000000000000000000000000000000000000000000000000000600052602160045260246000fd5b1461205e576040517f08c379a000000000000000000000000000000000000000000000000000000000815260206004820152601060248201527f4c6f7474657279206e6f74206f70656e000000000000000000000000000000006044820152606401610c9f565b6000818152600d602052604090206002015442116120d8576040517f08c379a000000000000000000000000000000000000000000000000000000000815260206004820152601060248201527f4c6f7474657279206e6f74206f766572000000000000000000000000000000006044820152606401610c9f565b6006546000828152600d6020908152604091829020601901839055600c5482519182018590529181019290925273ffffffffffffffffffffffffffffffffffffffff169063b37217a490606001604080518083037fffffffffffffffffffffffffffffffffffffffffffffffffffffffffffffffe001815290829052805160209091012060e083901b7fffffffff000000000000000000000000000000000000000000000000000000001682526004820152602401600060405180830381600087803b1580156121a757600080fd5b505af11580156121bb573d6000803e3d6000fd5b5050506000828152600d602090815260409182902080547fffffffffffffffffffffffffffffffffffffffffffffffffffffffffffffff0016600217905560065491519182528392507f3728e75294796694d59d2ffced9c394279baf7b9ebd2702db43f5f04bac67929910160405180910390a2506001600055565b60035473ffffffffffffffffffffffffffffffffffffffff1633146122b8576040517f08c379a000000000000000000000000000000000000000000000000000000000815260206004820152600c60248201527f4e6f74206f70657261746f7200000000000000000000000000000000000000006044820152606401610c9f565b6005541580612313575060036005546000908152600d602052604090205460ff166003811115612311577f4e487b7100000000000000000000000000000000000000000000000000000000600052602160045260246000fd5b145b612379576040517f08c379a000000000000000000000000000000000000000000000000000000000815260206004820152601960248201527f4e6f742074696d6520746f207374617274206c6f7474657279000000000000006044820152606401610c9f565b61012c6123864287614d68565b11801561239e57506205472c61239c4287614d68565b105b612404576040517f08c379a000000000000000000000000000000000000000000000000000000000815260206004820152601f60248201527f4c6f7474657279206c656e677468206f757473696465206f662072616e6765006044820152606401610c9f565b600954841015801561241857506008548411155b61247e576040517f08c379a000000000000000000000000000000000000000000000000000000000815260206004820152601160248201527f4f757473696465206f66206c696d6974730000000000000000000000000000006044820152606401610c9f565b61012c8310156124ea576040517f08c379a000000000000000000000000000000000000000000000000000000000815260206004820152601860248201527f446973636f756e742064697669736f7220746f6f206c6f7700000000000000006044820152606401610c9f565b610bb8811115612556576040517f08c379a000000000000000000000000000000000000000000000000000000000815260206004820152601560248201527f54726561737572792066656520746f6f206869676800000000000000000000006044820152606401610c9f565b60a082013560808301356060840135604085013561257960208701358735614ba5565b6125839190614ba5565b61258d9190614ba5565b6125979190614ba5565b6125a19190614ba5565b6127101461260b576040517f08c379a000000000000000000000000000000000000000000000000000000000815260206004820152601860248201527f52657761726473206d75737420657175616c20313030303000000000000000006044820152606401610c9f565b6005805490600061261b83614dd0565b9091555050604080516101a0810190915280600181526020014281526020018681526020018581526020018481526020018360068060200260405190810160405280929190826006602002808284376000920182905250928452505060208083018590526040805160c080820183528482528184018590528183018590526060808301869052608080840187905260a080850188905285890194909452845180840186528781528087018890528086018890528083018890528082018890528085018890529188019190915260065490870181905291860191909152600a549085015260e09093018290526005548252600d9052208151815482907fffffffffffffffffffffffffffffffffffffffffffffffffffffffffffffff00166001836003811115612773577f4e487b7100000000000000000000000000000000000000000000000000000000600052602160045260246000fd5b02179055506020820151600182015560408201516002820155606082015160038201556080820151600482015560a08201516127b590600583019060066144e5565b5060c0820151600b82015560e08201516127d590600c83019060066144e5565b506101008201516127ec90601283019060066144e5565b5061012082015160188201556101408201516019820155610160820151601a82015561018090910151601b90910180547fffffffffffffffffffffffffffffffffffffffffffffffffffffffff000000001663ffffffff909216919091179055600554600654600a5460408051428152602081018a9052908101889052606081019290925260808201527f367e70f8c0e0c0a6504d92172bda155c02022d532fc85b5d66a9c49e31c8bc779060a00160405180910390a250506000600a55505050565b60035473ffffffffffffffffffffffffffffffffffffffff163314612930576040517f08c379a000000000000000000000000000000000000000000000000000000000815260206004820152600c60248201527f4e6f74206f70657261746f7200000000000000000000000000000000000000006044820152606401610c9f565b6002600054141561299d576040517f08c379a000000000000000000000000000000000000000000000000000000000815260206004820152601f60248201527f5265656e7472616e637947756172643a207265656e7472616e742063616c6c006044820152606401610c9f565b60026000818155838152600d602052604090205460ff1660038111156129ec577f4e487b7100000000000000000000000000000000000000000000000000000000600052602160045260246000fd5b14612a53576040517f08c379a000000000000000000000000000000000000000000000000000000000815260206004820152601160248201527f4c6f7474657279206e6f7420636c6f73650000000000000000000000000000006044820152606401610c9f565b600c60009054906101000a900473ffffffffffffffffffffffffffffffffffffffff1673ffffffffffffffffffffffffffffffffffffffff1663fbe5d9176040518163ffffffff1660e01b815260040160206040518083038186803b158015612abb57600080fd5b505afa158015612acf573d6000803e3d6000fd5b505050506040513d601f19601f82011682018060405250810190612af391906146f3565b8214612b5b576040517f08c379a000000000000000000000000000000000000000000000000000000000815260206004820152601160248201527f4e756d62657273206e6f7420647261776e0000000000000000000000000000006044820152606401610c9f565b600c54604080517fa1c4f55a000000000000000000000000000000000000000000000000000000008152905160009273ffffffffffffffffffffffffffffffffffffffff169163a1c4f55a916004808301926020929190829003018186803b158015612bc657600080fd5b505afa158015612bda573d6000803e3d6000fd5b505050506040513d601f19601f82011682018060405250810190612bfe91906148e8565b6000848152600d60205260408120600b015491925090819061271090612c249082614d68565b6000878152600d60205260409020601a0154612c409190614d2b565b612c4a9190614be5565b90506000805b60068163ffffffff161015612fae576000612c6c826005614d7f565b90506000612c7b826001614bbd565b612c8690600a614c40565b612c909088614e2d565b63ffffffff8084166000908152600f6020526040902054612cb2929116614bbd565b60008a815260106020908152604080832063ffffffff85168452909152902054909150612ce0908790614d68565b60008a8152600d6020526040902060120163ffffffff841660068110612d2f577f4e487b7100000000000000000000000000000000000000000000000000000000600052603260045260246000fd5b0155600089815260106020908152604080832063ffffffff85168452909152902054612d5c908790614d68565b15612ed0576000898152600d6020526040902060050163ffffffff831660068110612db0577f4e487b7100000000000000000000000000000000000000000000000000000000600052603260045260246000fd5b015415612ecb57600089815260106020908152604080832063ffffffff8516845290915290205461271090612de6908890614d68565b60008b8152600d60205260409020879060050163ffffffff861660068110612e37577f4e487b7100000000000000000000000000000000000000000000000000000000600052603260045260246000fd5b0154612e439190614d2b565b612e4d9190614be5565b612e579190614be5565b60008a8152600d60205260409020600c0163ffffffff841660068110612ea6577f4e487b7100000000000000000000000000000000000000000000000000000000600052603260045260246000fd5b0155600089815260106020908152604080832063ffffffff8516845290915290205495505b612f99565b6000898152600d60205260408120600c0163ffffffff841660068110612f1f577f4e487b7100000000000000000000000000000000000000000000000000000000600052603260045260246000fd5b01556000898152600d6020526040902061271090869060050163ffffffff851660068110612f76577f4e487b7100000000000000000000000000000000000000000000000000000000600052603260045260246000fd5b0154612f829190614d2b565b612f8c9190614be5565b612f969085614ba5565b93505b50508080612fa690614e09565b915050612c50565b506000868152600d60205260409020601b8101805463ffffffff87167fffffffffffffffffffffffffffffffffffffffffffffffffffffffff0000000090911617905580547fffffffffffffffffffffffffffffffffffffffffffffffffffffffffffffff00166003179055841561302657600a5560005b6000868152600d60205260409020601a0154613043908390614d68565b61304d9082614ba5565b600454600b5491925061307a9173ffffffffffffffffffffffffffffffffffffffff908116911683614098565b6005546040805163ffffffff87168152602081018690527f98e31a6607b8b15b4d5b91de54f4c09ffe4c4cf162aa532c70b5213754e2e703910160405180910390a25050600160005550505050565b600061012c841015613137576040517f08c379a000000000000000000000000000000000000000000000000000000000815260206004820152601f60248201527f4d757374206265203e3d204d494e5f444953434f554e545f44495649534f52006044820152606401610c9f565b8161319e576040517f08c379a000000000000000000000000000000000000000000000000000000000815260206004820152601d60248201527f4e756d626572206f66207469636b657473206d757374206265203e20300000006044820152606401610c9f565b610c188484846141d5565b333b15613212576040517f08c379a000000000000000000000000000000000000000000000000000000000815260206004820152601460248201527f436f6e7472616374206e6f7420616c6c6f7765640000000000000000000000006044820152606401610c9f565b33321461327b576040517f08c379a000000000000000000000000000000000000000000000000000000000815260206004820152601a60248201527f50726f787920636f6e7472616374206e6f7420616c6c6f7765640000000000006044820152606401610c9f565b600260005414156132e8576040517f08c379a000000000000000000000000000000000000000000000000000000000815260206004820152601f60248201527f5265656e7472616e637947756172643a207265656e7472616e742063616c6c006044820152606401610c9f565b6002600055828114613356576040517f08c379a000000000000000000000000000000000000000000000000000000000815260206004820152600f60248201527f4e6f742073616d65206c656e67746800000000000000000000000000000000006044820152606401610c9f565b826133bd576040517f08c379a000000000000000000000000000000000000000000000000000000000815260206004820152601160248201527f4c656e677468206d757374206265203e300000000000000000000000000000006044820152606401610c9f565b600754831115613429576040517f08c379a000000000000000000000000000000000000000000000000000000000815260206004820152601060248201527f546f6f206d616e79207469636b657473000000000000000000000000000000006044820152606401610c9f565b60036000868152600d602052604090205460ff166003811115613475577f4e487b7100000000000000000000000000000000000000000000000000000000600052602160045260246000fd5b146134dc576040517f08c379a000000000000000000000000000000000000000000000000000000000815260206004820152601560248201527f4c6f7474657279206e6f7420636c61696d61626c6500000000000000000000006044820152606401610c9f565b6000805b848110156139ae576006848483818110613523577f4e487b7100000000000000000000000000000000000000000000000000000000600052603260045260246000fd5b905060200201602081019061353891906148cc565b63ffffffff16106135a5576040517f08c379a000000000000000000000000000000000000000000000000000000000815260206004820152601460248201527f427261636b6574206f7574206f662072616e67650000000000000000000000006044820152606401610c9f565b60008686838181106135e0577f4e487b7100000000000000000000000000000000000000000000000000000000600052603260045260246000fd5b90506020020135905080600d60008a81526020019081526020016000206019015411613668576040517f08c379a000000000000000000000000000000000000000000000000000000000815260206004820152601160248201527f5469636b6574496420746f6f20686967680000000000000000000000000000006044820152606401610c9f565b6000888152600d60205260409020601801548110156136e3576040517f08c379a000000000000000000000000000000000000000000000000000000000815260206004820152601060248201527f5469636b6574496420746f6f206c6f77000000000000000000000000000000006044820152606401610c9f565b6000818152600e6020526040902054640100000000900473ffffffffffffffffffffffffffffffffffffffff163314613778576040517f08c379a000000000000000000000000000000000000000000000000000000000815260206004820152600d60248201527f4e6f7420746865206f776e6572000000000000000000000000000000000000006044820152606401610c9f565b6000818152600e6020526040812080547fffffffffffffffff0000000000000000000000000000000000000000ffffffff16905561380489838888878181106137ea577f4e487b7100000000000000000000000000000000000000000000000000000000600052603260045260246000fd5b90506020020160208101906137ff91906148cc565b613f66565b90508061386d576040517f08c379a000000000000000000000000000000000000000000000000000000000815260206004820152601960248201527f4e6f207072697a6520666f72207468697320627261636b6574000000000000006044820152606401610c9f565b8585848181106138a6577f4e487b7100000000000000000000000000000000000000000000000000000000600052603260045260246000fd5b90506020020160208101906138bb91906148cc565b63ffffffff1660051461398d576139268983888887818110613906577f4e487b7100000000000000000000000000000000000000000000000000000000600052603260045260246000fd5b905060200201602081019061391b91906148cc565b6137ff906001614bbd565b1561398d576040517f08c379a000000000000000000000000000000000000000000000000000000000815260206004820152601660248201527f427261636b6574206d75737420626520686967686572000000000000000000006044820152606401610c9f565b6139978185614ba5565b9350505080806139a690614dd0565b9150506134e0565b50600b546139d39073ffffffffffffffffffffffffffffffffffffffff163383614098565b6040805182815260208101869052879133917f0f5fca62da8fb5d95525b49e5eaa7b20bc6bd9e2f6b64b493442d1c0bd6ef486910160405180910390a35050600160005550505050565b60015473ffffffffffffffffffffffffffffffffffffffff163314613a9e576040517f08c379a000000000000000000000000000000000000000000000000000000000815260206004820181905260248201527f4f776e61626c653a2063616c6c6572206973206e6f7420746865206f776e65726044820152606401610c9f565b73ffffffffffffffffffffffffffffffffffffffff8316613b1b576040517f08c379a000000000000000000000000000000000000000000000000000000000815260206004820152601660248201527f43616e6e6f74206265207a65726f2061646472657373000000000000000000006044820152606401610c9f565b73ffffffffffffffffffffffffffffffffffffffff8216613b98576040517f08c379a000000000000000000000000000000000000000000000000000000000815260206004820152601660248201527f43616e6e6f74206265207a65726f2061646472657373000000000000000000006044820152606401610c9f565b73ffffffffffffffffffffffffffffffffffffffff8116613c15576040517f08c379a000000000000000000000000000000000000000000000000000000000815260206004820152601660248201527f43616e6e6f74206265207a65726f2061646472657373000000000000000000006044820152606401610c9f565b6003805473ffffffffffffffffffffffffffffffffffffffff8581167fffffffffffffffffffffffff0000000000000000000000000000000000000000928316811790935560048054868316908416811790915560028054928616929093168217909255604080519384526020840192909252908201527f3e945b7660001d46cfd5e729545f7f0b6c65bdee54066a91c7acad703f1b731e9060600160405180910390a1505050565b60015473ffffffffffffffffffffffffffffffffffffffff163314613d3f576040517f08c379a000000000000000000000000000000000000000000000000000000000815260206004820181905260248201527f4f776e61626c653a2063616c6c6572206973206e6f7420746865206f776e65726044820152606401610c9f565b80821115613da9576040517f08c379a000000000000000000000000000000000000000000000000000000000815260206004820152601b60248201527f6d696e5072696365206d757374206265203c206d6178507269636500000000006044820152606401610c9f565b600991909155600855565b60015473ffffffffffffffffffffffffffffffffffffffff163314613e35576040517f08c379a000000000000000000000000000000000000000000000000000000000815260206004820181905260248201527f4f776e61626c653a2063616c6c6572206973206e6f7420746865206f776e65726044820152606401610c9f565b73ffffffffffffffffffffffffffffffffffffffff8116613ed8576040517f08c379a000000000000000000000000000000000000000000000000000000000815260206004820152602660248201527f4f776e61626c653a206e6577206f776e657220697320746865207a65726f206160448201527f64647265737300000000000000000000000000000000000000000000000000006064820152608401610c9f565b60015460405173ffffffffffffffffffffffffffffffffffffffff8084169216907f8be0079c531659141344cd1fd0a4f28419497f9722a3daafe3b4186f6b6457e090600090a3600180547fffffffffffffffffffffffff00000000000000000000000000000000000000001673ffffffffffffffffffffffffffffffffffffffff92909216919091179055565b6000838152600d60209081526040808320601b0154858452600e90925282205463ffffffff918216911682613f9c856001614bbd565b613fa790600a614c40565b613fb19083614e2d565b63ffffffff8087166000908152600f6020526040902054613fd3929116614bbd565b90506000613fe2866001614bbd565b613fed90600a614c40565b613ff79085614e2d565b63ffffffff8088166000908152600f6020526040902054614019929116614bbd565b90508063ffffffff168263ffffffff16141561408b576000888152600d60205260409020600c0163ffffffff87166006811061407e577f4e487b7100000000000000000000000000000000000000000000000000000000600052603260045260246000fd5b0154945050505050610c1b565b6000945050505050610c1b565b60405173ffffffffffffffffffffffffffffffffffffffff831660248201526044810182905261416c9084907fa9059cbb00000000000000000000000000000000000000000000000000000000906064015b604080517fffffffffffffffffffffffffffffffffffffffffffffffffffffffffffffffe08184030181529190526020810180517bffffffffffffffffffffffffffffffffffffffffffffffffffffffff167fffffffff000000000000000000000000000000000000000000000000000000009093169290921790915261420c565b505050565b60405173ffffffffffffffffffffffffffffffffffffffff808516602483015283166044820152606481018290526141cf9085907f23b872dd00000000000000000000000000000000000000000000000000000000906084016140ea565b50505050565b600083826141e4826001614ba5565b6141ee9190614d68565b6141f88486614d2b565b6142029190614d2b565b610c189190614be5565b600061426e826040518060400160405280602081526020017f5361666545524332303a206c6f772d6c6576656c2063616c6c206661696c65648152508573ffffffffffffffffffffffffffffffffffffffff166143189092919063ffffffff16565b80519091501561416c578080602001905181019061428c91906146bf565b61416c576040517f08c379a000000000000000000000000000000000000000000000000000000000815260206004820152602a60248201527f5361666545524332303a204552433230206f7065726174696f6e20646964206e60448201527f6f742073756363656564000000000000000000000000000000000000000000006064820152608401610c9f565b6060610c18848460008585843b61438b576040517f08c379a000000000000000000000000000000000000000000000000000000000815260206004820152601d60248201527f416464726573733a2063616c6c20746f206e6f6e2d636f6e74726163740000006044820152606401610c9f565b6000808673ffffffffffffffffffffffffffffffffffffffff1685876040516143b491906149d3565b60006040518083038185875af1925050503d80600081146143f1576040519150601f19603f3d011682016040523d82523d6000602084013e6143f6565b606091505b5091509150614406828286614411565b979650505050505050565b60608315614420575081610c1b565b8251156144305782518084602001fd5b816040517f08c379a0000000000000000000000000000000000000000000000000000000008152600401610c9f9190614a91565b604080516101a0810190915280600081526020016000815260200160008152602001600081526020016000815260200161449c614523565b8152602001600081526020016144b0614523565b81526020016144bd614523565b8152602001600081526020016000815260200160008152602001600063ffffffff1681525090565b8260068101928215614513579160200282015b828111156145135782518255916020019190600101906144f8565b5061451f929150614541565b5090565b6040518060c001604052806006906020820280368337509192915050565b5b8082111561451f5760008155600101614542565b803573ffffffffffffffffffffffffffffffffffffffff8116811461457a57600080fd5b919050565b60008083601f840112614590578182fd5b50813567ffffffffffffffff8111156145a7578182fd5b6020830191508360208260051b8501011115611bb657600080fd5b6000602082840312156145d3578081fd5b610c1b82614556565b6000806000606084860312156145f0578182fd5b6145f984614556565b925061460760208501614556565b915061461560408501614556565b90509250925092565b60008060408385031215614630578182fd5b61463983614556565b946020939093013593505050565b6000806000806080858703121561465c578081fd5b61466585614556565b966020860135965060408601359560600135945092505050565b60008060208385031215614691578182fd5b823567ffffffffffffffff8111156146a7578283fd5b6146b38582860161457f565b90969095509350505050565b6000602082840312156146d0578081fd5b8151610c1b81614eae565b6000602082840312156146ec578081fd5b5035919050565b600060208284031215614704578081fd5b5051919050565b600080600080600060608688031215614722578081fd5b85359450602086013567ffffffffffffffff80821115614740578283fd5b61474c89838a0161457f565b90965094506040880135915080821115614764578283fd5b506147718882890161457f565b969995985093965092949392505050565b600080600060408486031215614796578283fd5b83359250602084013567ffffffffffffffff8111156147b3578283fd5b6147bf8682870161457f565b9497909650939450505050565b600080604083850312156147de578182fd5b8235915060208301356147f081614eae565b809150509250929050565b6000806040838503121561480d578182fd5b50508035926020909101359150565b600080600060608486031215614830578283fd5b505081359360208301359350604090920135919050565b6000806000806000610140868803121561485f578283fd5b853594506020860135935060408601359250610120860187811115614882578182fd5b94979396509194606001933592915050565b6000806000606084860312156148a8578081fd5b833592506020840135915060408401356148c181614ebf565b809150509250925092565b6000602082840312156148dd578081fd5b8135610c1b81614ebf565b6000602082840312156148f9578081fd5b8151610c1b81614ebf565b6000815180845260208085019450808401835b83811015614935578151151587529582019590820190600101614917565b509495945050505050565b8060005b60068110156141cf578151845260209384019390910190600101614944565b6000815180845260208085019450808401835b8381101561493557815163ffffffff1687529582019590820190600101614976565b600481106149cf577f4e487b7100000000000000000000000000000000000000000000000000000000600052602160045260246000fd5b9052565b600082516149e5818460208701614da4565b9190910192915050565b6080808252855190820181905260009060209060a0840190828901845b82811015614a2857815184529284019290840190600101614a0c565b50505083810382850152614a3c8188614963565b9150508281036040840152614a518186614904565b91505082606083015295945050505050565b604081526000614a766040830185614963565b8281036020840152614a888185614904565b95945050505050565b6020815260008251806020840152614ab0816040850160208701614da4565b601f017fffffffffffffffffffffffffffffffffffffffffffffffffffffffffffffffe0169190910160400192915050565b600061038082019050614af6828451614998565b6020830151602083015260408301516040830152606083015160608301526080830151608083015260a0830151614b3060a0840182614940565b5060c0830151610160818185015260e08501519150610180614b5481860184614940565b6101008601519250614b6a610240860184614940565b6101208601516103008601526101408601516103208601529085015161034085015284015163ffffffff811661036085015290505092915050565b60008219821115614bb857614bb8614e50565b500190565b600063ffffffff808316818516808303821115614bdc57614bdc614e50565b01949350505050565b600082614bf457614bf4614e7f565b500490565b60018163ffffffff825b80861115614c3757828204831115614c1d57614c1d614e50565b80861615614c2a57928202925b94851c9491800291614c03565b50509250929050565b600063ffffffff614c55818516828516614c5d565b949350505050565b600082614c6c57506001614d25565b81614c7957506000614d25565b8160018114614c8f5760028114614c9957614cca565b6001915050614d25565b60ff841115614caa57614caa614e50565b6001841b915063ffffffff821115614cc457614cc4614e50565b50614d25565b5060208310610133831016604e8410600b8410161715614d01575081810a63ffffffff811115614cfc57614cfc614e50565b614d25565b614d0b8383614bf9565b8063ffffffff04821115614d2157614d21614e50565b0290505b92915050565b6000817fffffffffffffffffffffffffffffffffffffffffffffffffffffffffffffffff0483118215151615614d6357614d63614e50565b500290565b600082821015614d7a57614d7a614e50565b500390565b600063ffffffff83811690831681811015614d9c57614d9c614e50565b039392505050565b60005b83811015614dbf578181015183820152602001614da7565b838111156141cf5750506000910152565b60007fffffffffffffffffffffffffffffffffffffffffffffffffffffffffffffffff821415614e0257614e02614e50565b5060010190565b600063ffffffff80831681811415614e2357614e23614e50565b6001019392505050565b600063ffffffff80841680614e4457614e44614e7f565b92169190910692915050565b7f4e487b7100000000000000000000000000000000000000000000000000000000600052601160045260246000fd5b7f4e487b7100000000000000000000000000000000000000000000000000000000600052601260045260246000fd5b8015158114614ebc57600080fd5b50565b63ffffffff81168114614ebc57600080fdfea2646970667358221220f636d283302dc54ea9bbbb0eca4af9c08eb015b4af96aecbdd2e0a8f78c7e9f364736f6c63430008040033",
			"opcodes": "PUSH1 0x80 PUSH1 0x40 MSTORE PUSH1 0x64 PUSH1 0x7 SSTORE PUSH9 0x2B5E3AF16B1880000 PUSH1 0x8 SSTORE PUSH7 0x11C37937E08000 PUSH1 0x9 SSTORE CALLVALUE DUP1 ISZERO PUSH3 0x2E JUMPI PUSH1 0x0 DUP1 REVERT JUMPDEST POP PUSH1 0x40 MLOAD PUSH3 0x5174 CODESIZE SUB DUP1 PUSH3 0x5174 DUP4 CODECOPY DUP2 ADD PUSH1 0x40 DUP2 SWAP1 MSTORE PUSH3 0x51 SWAP2 PUSH3 0x226 JUMP JUMPDEST PUSH1 0x1 PUSH1 0x0 DUP2 DUP2 SSTORE DUP2 SLOAD PUSH1 0x1 PUSH1 0x1 PUSH1 0xA0 SHL SUB NOT AND CALLER SWAP1 DUP2 OR SWAP1 SWAP3 SSTORE PUSH1 0x40 MLOAD DUP3 SWAP2 SWAP1 PUSH32 0x8BE0079C531659141344CD1FD0A4F28419497F9722A3DAAFE3B4186F6B6457E0 SWAP1 DUP3 SWAP1 LOG3 POP PUSH1 0xB DUP1 SLOAD PUSH1 0x1 PUSH1 0x1 PUSH1 0xA0 SHL SUB SWAP4 DUP5 AND PUSH1 0x1 PUSH1 0x1 PUSH1 0xA0 SHL SUB NOT SWAP2 DUP3 AND OR DUP3 SSTORE PUSH1 0xC DUP1 SLOAD SWAP4 DUP6 AND SWAP4 DUP3 AND SWAP4 SWAP1 SWAP4 OR SWAP1 SWAP3 SSTORE PUSH1 0x1 DUP1 SLOAD PUSH1 0x3 DUP1 SLOAD SWAP2 SWAP1 SWAP6 AND SWAP1 DUP5 AND DUP2 OR SWAP1 SWAP5 SSTORE PUSH1 0x4 DUP1 SLOAD DUP5 AND DUP6 OR SWAP1 SSTORE PUSH1 0x2 DUP1 SLOAD SWAP1 SWAP4 AND SWAP1 SWAP4 OR SWAP1 SWAP2 SSTORE PUSH1 0xF PUSH1 0x20 MSTORE PUSH32 0xF4803E074BD026BAAF6ED2E288C9515F68C72FB7216EEBDD7CAE1718A53EC375 DUP1 SLOAD PUSH4 0xFFFFFFFF NOT SWAP1 DUP2 AND SWAP1 SWAP4 OR SWAP1 SSTORE PUSH32 0x169F97DE0D9A84D840042B17D3C6B9638B3D6FD9024C9EB0C7A306A17B49F88F DUP1 SLOAD DUP4 AND SWAP1 SWAP2 OR SWAP1 SSTORE PUSH32 0xA74BA3945261E09FDE15BA3DB55005B205E61EEB4AD811AC0FAA2B315BFFEEAD DUP1 SLOAD DUP3 AND PUSH1 0x6F OR SWAP1 SSTORE PUSH32 0x45F76DAFBBAD695564362934E24D72EEDC57F9FC1A65F39BCA62176CC8296828 DUP1 SLOAD DUP3 AND PUSH2 0x457 OR SWAP1 SSTORE PUSH32 0x367CCD2D0AC16BF7110A5DFFE0801FDC9452A95A1ADB7E1A12FE97DD3E9A4EDD DUP1 SLOAD DUP3 AND PUSH2 0x2B67 OR SWAP1 SSTORE PUSH1 0x5 PUSH1 0x0 MSTORE PUSH32 0x6BDA57492EBA051CB4A12A1E19DF47C9755D78165341D4009B1D09B3F3616204 DUP1 SLOAD SWAP1 SWAP2 AND PUSH3 0x1B207 OR SWAP1 SSTORE PUSH3 0x25D JUMP JUMPDEST DUP1 MLOAD PUSH1 0x1 PUSH1 0x1 PUSH1 0xA0 SHL SUB DUP2 AND DUP2 EQ PUSH3 0x221 JUMPI PUSH1 0x0 DUP1 REVERT JUMPDEST SWAP2 SWAP1 POP JUMP JUMPDEST PUSH1 0x0 DUP1 PUSH1 0x40 DUP4 DUP6 SUB SLT ISZERO PUSH3 0x239 JUMPI DUP2 DUP3 REVERT JUMPDEST PUSH3 0x244 DUP4 PUSH3 0x209 JUMP JUMPDEST SWAP2 POP PUSH3 0x254 PUSH1 0x20 DUP5 ADD PUSH3 0x209 JUMP JUMPDEST SWAP1 POP SWAP3 POP SWAP3 SWAP1 POP JUMP JUMPDEST PUSH2 0x4F07 DUP1 PUSH3 0x26D PUSH1 0x0 CODECOPY PUSH1 0x0 RETURN INVALID PUSH1 0x80 PUSH1 0x40 MSTORE CALLVALUE DUP1 ISZERO PUSH2 0x10 JUMPI PUSH1 0x0 DUP1 REVERT JUMPDEST POP PUSH1 0x4 CALLDATASIZE LT PUSH2 0x241 JUMPI PUSH1 0x0 CALLDATALOAD PUSH1 0xE0 SHR DUP1 PUSH4 0x88303DBD GT PUSH2 0x145 JUMPI DUP1 PUSH4 0xC4937AB9 GT PUSH2 0xBD JUMPI DUP1 PUSH4 0xDA7429F8 GT PUSH2 0x8C JUMPI DUP1 PUSH4 0xDCBAD90D GT PUSH2 0x71 JUMPI DUP1 PUSH4 0xDCBAD90D EQ PUSH2 0x4D6 JUMPI DUP1 PUSH4 0xF2B3C809 EQ PUSH2 0x4F6 JUMPI DUP1 PUSH4 0xF2FDE38B EQ PUSH2 0x4FF JUMPI PUSH1 0x0 DUP1 REVERT JUMPDEST DUP1 PUSH4 0xDA7429F8 EQ PUSH2 0x4B9 JUMPI DUP1 PUSH4 0xDB19DA0D EQ PUSH2 0x4CC JUMPI PUSH1 0x0 DUP1 REVERT JUMPDEST DUP1 PUSH4 0xC4937AB9 EQ PUSH2 0x460 JUMPI DUP1 PUSH4 0xC5F956AF EQ PUSH2 0x473 JUMPI DUP1 PUSH4 0xC914914F EQ PUSH2 0x493 JUMPI DUP1 PUSH4 0xDA4CA039 EQ PUSH2 0x4A6 JUMPI PUSH1 0x0 DUP1 REVERT JUMPDEST DUP1 PUSH4 0x98359FA1 GT PUSH2 0x114 JUMPI DUP1 PUSH4 0x9D8CA531 GT PUSH2 0xF9 JUMPI DUP1 PUSH4 0x9D8CA531 EQ PUSH2 0x427 JUMPI DUP1 PUSH4 0xB1829B82 EQ PUSH2 0x43A JUMPI DUP1 PUSH4 0xC38DE539 EQ PUSH2 0x44D JUMPI PUSH1 0x0 DUP1 REVERT JUMPDEST DUP1 PUSH4 0x98359FA1 EQ PUSH2 0x3F4 JUMPI DUP1 PUSH4 0x9C384653 EQ PUSH2 0x407 JUMPI PUSH1 0x0 DUP1 REVERT JUMPDEST DUP1 PUSH4 0x88303DBD EQ PUSH2 0x382 JUMPI DUP1 PUSH4 0x8904BF2F EQ PUSH2 0x395 JUMPI DUP1 PUSH4 0x8DA5CB5B EQ PUSH2 0x3B5 JUMPI DUP1 PUSH4 0x8FC3539A EQ PUSH2 0x3D3 JUMPI PUSH1 0x0 DUP1 REVERT JUMPDEST DUP1 PUSH4 0x31FEB565 GT PUSH2 0x1D8 JUMPI DUP1 PUSH4 0x6B873788 GT PUSH2 0x1A7 JUMPI DUP1 PUSH4 0x715018A6 GT PUSH2 0x18C JUMPI DUP1 PUSH4 0x715018A6 EQ PUSH2 0x372 JUMPI DUP1 PUSH4 0x7CB583BD EQ PUSH2 0x272 JUMPI DUP1 PUSH4 0x80A06160 EQ PUSH2 0x37A JUMPI PUSH1 0x0 DUP1 REVERT JUMPDEST DUP1 PUSH4 0x6B873788 EQ PUSH2 0x356 JUMPI DUP1 PUSH4 0x6BE4097C EQ PUSH2 0x369 JUMPI PUSH1 0x0 DUP1 REVERT JUMPDEST DUP1 PUSH4 0x31FEB565 EQ PUSH2 0x31C JUMPI DUP1 PUSH4 0x3F138D4B EQ PUSH2 0x325 JUMPI DUP1 PUSH4 0x471AEAB4 EQ PUSH2 0x33A JUMPI DUP1 PUSH4 0x686465B8 EQ PUSH2 0x34D JUMPI PUSH1 0x0 DUP1 REVERT JUMPDEST DUP1 PUSH4 0x1F73664B GT PUSH2 0x214 JUMPI DUP1 PUSH4 0x1F73664B EQ PUSH2 0x2D7 JUMPI DUP1 PUSH4 0x1FE86C6B EQ PUSH2 0x2E0 JUMPI DUP1 PUSH4 0x2423807A EQ PUSH2 0x2E9 JUMPI DUP1 PUSH4 0x2E530CAE EQ PUSH2 0x309 JUMPI PUSH1 0x0 DUP1 REVERT JUMPDEST DUP1 PUSH4 0x5531EEB EQ PUSH2 0x246 JUMPI DUP1 PUSH4 0x7FB5A9C EQ PUSH2 0x272 JUMPI DUP1 PUSH4 0x127EFFB2 EQ PUSH2 0x289 JUMPI DUP1 PUSH4 0x12A9769D EQ PUSH2 0x2CE JUMPI JUMPDEST PUSH1 0x0 DUP1 REVERT JUMPDEST PUSH2 0x259 PUSH2 0x254 CALLDATASIZE PUSH1 0x4 PUSH2 0x4647 JUMP JUMPDEST PUSH2 0x512 JUMP JUMPDEST PUSH1 0x40 MLOAD PUSH2 0x269 SWAP5 SWAP4 SWAP3 SWAP2 SWAP1 PUSH2 0x49EF JUMP JUMPDEST PUSH1 0x40 MLOAD DUP1 SWAP2 SUB SWAP1 RETURN JUMPDEST PUSH2 0x27B PUSH2 0x12C DUP2 JUMP JUMPDEST PUSH1 0x40 MLOAD SWAP1 DUP2 MSTORE PUSH1 0x20 ADD PUSH2 0x269 JUMP JUMPDEST PUSH1 0x3 SLOAD PUSH2 0x2A9 SWAP1 PUSH20 0xFFFFFFFFFFFFFFFFFFFFFFFFFFFFFFFFFFFFFFFF AND DUP2 JUMP JUMPDEST PUSH1 0x40 MLOAD PUSH20 0xFFFFFFFFFFFFFFFFFFFFFFFFFFFFFFFFFFFFFFFF SWAP1 SWAP2 AND DUP2 MSTORE PUSH1 0x20 ADD PUSH2 0x269 JUMP JUMPDEST PUSH2 0x27B PUSH1 0xA SLOAD DUP2 JUMP JUMPDEST PUSH2 0x27B PUSH1 0x8 SLOAD DUP2 JUMP JUMPDEST PUSH2 0x27B PUSH1 0x7 SLOAD DUP2 JUMP JUMPDEST PUSH2 0x2FC PUSH2 0x2F7 CALLDATASIZE PUSH1 0x4 PUSH2 0x46DB JUMP JUMPDEST PUSH2 0x9C5 JUMP JUMPDEST PUSH1 0x40 MLOAD PUSH2 0x269 SWAP2 SWAP1 PUSH2 0x4AE2 JUMP JUMPDEST PUSH2 0x27B PUSH2 0x317 CALLDATASIZE PUSH1 0x4 PUSH2 0x4894 JUMP JUMPDEST PUSH2 0xB74 JUMP JUMPDEST PUSH2 0x27B PUSH1 0x9 SLOAD DUP2 JUMP JUMPDEST PUSH2 0x338 PUSH2 0x333 CALLDATASIZE PUSH1 0x4 PUSH2 0x461E JUMP JUMPDEST PUSH2 0xC22 JUMP JUMPDEST STOP JUMPDEST PUSH2 0x338 PUSH2 0x348 CALLDATASIZE PUSH1 0x4 PUSH2 0x47FB JUMP JUMPDEST PUSH2 0xDA1 JUMP JUMPDEST PUSH2 0x27B PUSH1 0x6 SLOAD DUP2 JUMP JUMPDEST PUSH2 0x338 PUSH2 0x364 CALLDATASIZE PUSH1 0x4 PUSH2 0x46DB JUMP JUMPDEST PUSH2 0xF7B JUMP JUMPDEST PUSH2 0x27B PUSH1 0x5 SLOAD DUP2 JUMP JUMPDEST PUSH2 0x338 PUSH2 0x1068 JUMP JUMPDEST PUSH1 0x5 SLOAD PUSH2 0x27B JUMP JUMPDEST PUSH2 0x338 PUSH2 0x390 CALLDATASIZE PUSH1 0x4 PUSH2 0x4782 JUMP JUMPDEST PUSH2 0x1158 JUMP JUMPDEST PUSH1 0xB SLOAD PUSH2 0x2A9 SWAP1 PUSH20 0xFFFFFFFFFFFFFFFFFFFFFFFFFFFFFFFFFFFFFFFF AND DUP2 JUMP JUMPDEST PUSH1 0x1 SLOAD PUSH20 0xFFFFFFFFFFFFFFFFFFFFFFFFFFFFFFFFFFFFFFFF AND PUSH2 0x2A9 JUMP JUMPDEST PUSH2 0x3E6 PUSH2 0x3E1 CALLDATASIZE PUSH1 0x4 PUSH2 0x467F JUMP JUMPDEST PUSH2 0x18E5 JUMP JUMPDEST PUSH1 0x40 MLOAD PUSH2 0x269 SWAP3 SWAP2 SWAP1 PUSH2 0x4A63 JUMP JUMPDEST PUSH2 0x338 PUSH2 0x402 CALLDATASIZE PUSH1 0x4 PUSH2 0x45C2 JUMP JUMPDEST PUSH2 0x1BBD JUMP JUMPDEST PUSH1 0x2 SLOAD PUSH2 0x2A9 SWAP1 PUSH20 0xFFFFFFFFFFFFFFFFFFFFFFFFFFFFFFFFFFFFFFFF AND DUP2 JUMP JUMPDEST PUSH2 0x338 PUSH2 0x435 CALLDATASIZE PUSH1 0x4 PUSH2 0x46DB JUMP JUMPDEST PUSH2 0x1EB8 JUMP JUMPDEST PUSH2 0x338 PUSH2 0x448 CALLDATASIZE PUSH1 0x4 PUSH2 0x4847 JUMP JUMPDEST PUSH2 0x2237 JUMP JUMPDEST PUSH2 0x338 PUSH2 0x45B CALLDATASIZE PUSH1 0x4 PUSH2 0x47CC JUMP JUMPDEST PUSH2 0x28AF JUMP JUMPDEST PUSH2 0x27B PUSH2 0x46E CALLDATASIZE PUSH1 0x4 PUSH2 0x481C JUMP JUMPDEST PUSH2 0x30C9 JUMP JUMPDEST PUSH1 0x4 SLOAD PUSH2 0x2A9 SWAP1 PUSH20 0xFFFFFFFFFFFFFFFFFFFFFFFFFFFFFFFFFFFFFFFF AND DUP2 JUMP JUMPDEST PUSH2 0x338 PUSH2 0x4A1 CALLDATASIZE PUSH1 0x4 PUSH2 0x470B JUMP JUMPDEST PUSH2 0x31A9 JUMP JUMPDEST PUSH2 0x338 PUSH2 0x4B4 CALLDATASIZE PUSH1 0x4 PUSH2 0x45DC JUMP JUMPDEST PUSH2 0x3A1D JUMP JUMPDEST PUSH2 0x338 PUSH2 0x4C7 CALLDATASIZE PUSH1 0x4 PUSH2 0x47FB JUMP JUMPDEST PUSH2 0x3CBE JUMP JUMPDEST PUSH2 0x27B PUSH3 0x5472C DUP2 JUMP JUMPDEST PUSH1 0xC SLOAD PUSH2 0x2A9 SWAP1 PUSH20 0xFFFFFFFFFFFFFFFFFFFFFFFFFFFFFFFFFFFFFFFF AND DUP2 JUMP JUMPDEST PUSH2 0x27B PUSH2 0xBB8 DUP2 JUMP JUMPDEST PUSH2 0x338 PUSH2 0x50D CALLDATASIZE PUSH1 0x4 PUSH2 0x45C2 JUMP JUMPDEST PUSH2 0x3DB4 JUMP JUMPDEST PUSH20 0xFFFFFFFFFFFFFFFFFFFFFFFFFFFFFFFFFFFFFFFF DUP5 AND PUSH1 0x0 SWAP1 DUP2 MSTORE PUSH1 0x11 PUSH1 0x20 SWAP1 DUP2 MSTORE PUSH1 0x40 DUP1 DUP4 KECCAK256 DUP7 DUP5 MSTORE SWAP1 SWAP2 MSTORE DUP2 KECCAK256 SLOAD PUSH1 0x60 SWAP2 DUP3 SWAP2 DUP3 SWAP2 SWAP1 DUP6 SWAP1 PUSH2 0x557 DUP9 DUP3 PUSH2 0x4D68 JUMP JUMPDEST DUP3 GT ISZERO PUSH2 0x56B JUMPI PUSH2 0x568 DUP9 DUP3 PUSH2 0x4D68 JUMP JUMPDEST SWAP2 POP JUMPDEST PUSH1 0x0 DUP3 PUSH8 0xFFFFFFFFFFFFFFFF DUP2 GT ISZERO PUSH2 0x5AD JUMPI PUSH32 0x4E487B7100000000000000000000000000000000000000000000000000000000 PUSH1 0x0 MSTORE PUSH1 0x41 PUSH1 0x4 MSTORE PUSH1 0x24 PUSH1 0x0 REVERT JUMPDEST PUSH1 0x40 MLOAD SWAP1 DUP1 DUP3 MSTORE DUP1 PUSH1 0x20 MUL PUSH1 0x20 ADD DUP3 ADD PUSH1 0x40 MSTORE DUP1 ISZERO PUSH2 0x5D6 JUMPI DUP2 PUSH1 0x20 ADD PUSH1 0x20 DUP3 MUL DUP1 CALLDATASIZE DUP4 CALLDATACOPY ADD SWAP1 POP JUMPDEST POP SWAP1 POP PUSH1 0x0 DUP4 PUSH8 0xFFFFFFFFFFFFFFFF DUP2 GT ISZERO PUSH2 0x61B JUMPI PUSH32 0x4E487B7100000000000000000000000000000000000000000000000000000000 PUSH1 0x0 MSTORE PUSH1 0x41 PUSH1 0x4 MSTORE PUSH1 0x24 PUSH1 0x0 REVERT JUMPDEST PUSH1 0x40 MLOAD SWAP1 DUP1 DUP3 MSTORE DUP1 PUSH1 0x20 MUL PUSH1 0x20 ADD DUP3 ADD PUSH1 0x40 MSTORE DUP1 ISZERO PUSH2 0x644 JUMPI DUP2 PUSH1 0x20 ADD PUSH1 0x20 DUP3 MUL DUP1 CALLDATASIZE DUP4 CALLDATACOPY ADD SWAP1 POP JUMPDEST POP SWAP1 POP PUSH1 0x0 DUP5 PUSH8 0xFFFFFFFFFFFFFFFF DUP2 GT ISZERO PUSH2 0x689 JUMPI PUSH32 0x4E487B7100000000000000000000000000000000000000000000000000000000 PUSH1 0x0 MSTORE PUSH1 0x41 PUSH1 0x4 MSTORE PUSH1 0x24 PUSH1 0x0 REVERT JUMPDEST PUSH1 0x40 MLOAD SWAP1 DUP1 DUP3 MSTORE DUP1 PUSH1 0x20 MUL PUSH1 0x20 ADD DUP3 ADD PUSH1 0x40 MSTORE DUP1 ISZERO PUSH2 0x6B2 JUMPI DUP2 PUSH1 0x20 ADD PUSH1 0x20 DUP3 MUL DUP1 CALLDATASIZE DUP4 CALLDATACOPY ADD SWAP1 POP JUMPDEST POP SWAP1 POP PUSH1 0x0 JUMPDEST DUP6 DUP2 LT ISZERO PUSH2 0x99F JUMPI PUSH1 0x11 PUSH1 0x0 DUP16 PUSH20 0xFFFFFFFFFFFFFFFFFFFFFFFFFFFFFFFFFFFFFFFF AND PUSH20 0xFFFFFFFFFFFFFFFFFFFFFFFFFFFFFFFFFFFFFFFF AND DUP2 MSTORE PUSH1 0x20 ADD SWAP1 DUP2 MSTORE PUSH1 0x20 ADD PUSH1 0x0 KECCAK256 PUSH1 0x0 DUP15 DUP2 MSTORE PUSH1 0x20 ADD SWAP1 DUP2 MSTORE PUSH1 0x20 ADD PUSH1 0x0 KECCAK256 DUP13 DUP3 PUSH2 0x71C SWAP2 SWAP1 PUSH2 0x4BA5 JUMP JUMPDEST DUP2 SLOAD DUP2 LT PUSH2 0x753 JUMPI PUSH32 0x4E487B7100000000000000000000000000000000000000000000000000000000 PUSH1 0x0 MSTORE PUSH1 0x32 PUSH1 0x4 MSTORE PUSH1 0x24 PUSH1 0x0 REVERT JUMPDEST SWAP1 PUSH1 0x0 MSTORE PUSH1 0x20 PUSH1 0x0 KECCAK256 ADD SLOAD DUP5 DUP3 DUP2 MLOAD DUP2 LT PUSH2 0x797 JUMPI PUSH32 0x4E487B7100000000000000000000000000000000000000000000000000000000 PUSH1 0x0 MSTORE PUSH1 0x32 PUSH1 0x4 MSTORE PUSH1 0x24 PUSH1 0x0 REVERT JUMPDEST PUSH1 0x20 MUL PUSH1 0x20 ADD ADD DUP2 DUP2 MSTORE POP POP PUSH1 0xE PUSH1 0x0 DUP6 DUP4 DUP2 MLOAD DUP2 LT PUSH2 0x7E0 JUMPI PUSH32 0x4E487B7100000000000000000000000000000000000000000000000000000000 PUSH1 0x0 MSTORE PUSH1 0x32 PUSH1 0x4 MSTORE PUSH1 0x24 PUSH1 0x0 REVERT JUMPDEST PUSH1 0x20 MUL PUSH1 0x20 ADD ADD MLOAD DUP2 MSTORE PUSH1 0x20 ADD SWAP1 DUP2 MSTORE PUSH1 0x20 ADD PUSH1 0x0 KECCAK256 PUSH1 0x0 ADD PUSH1 0x0 SWAP1 SLOAD SWAP1 PUSH2 0x100 EXP SWAP1 DIV PUSH4 0xFFFFFFFF AND DUP4 DUP3 DUP2 MLOAD DUP2 LT PUSH2 0x843 JUMPI PUSH32 0x4E487B7100000000000000000000000000000000000000000000000000000000 PUSH1 0x0 MSTORE PUSH1 0x32 PUSH1 0x4 MSTORE PUSH1 0x24 PUSH1 0x0 REVERT JUMPDEST PUSH1 0x20 MUL PUSH1 0x20 ADD ADD SWAP1 PUSH4 0xFFFFFFFF AND SWAP1 DUP2 PUSH4 0xFFFFFFFF AND DUP2 MSTORE POP POP PUSH1 0x0 PUSH20 0xFFFFFFFFFFFFFFFFFFFFFFFFFFFFFFFFFFFFFFFF AND PUSH1 0xE PUSH1 0x0 DUP7 DUP5 DUP2 MLOAD DUP2 LT PUSH2 0x8B2 JUMPI PUSH32 0x4E487B7100000000000000000000000000000000000000000000000000000000 PUSH1 0x0 MSTORE PUSH1 0x32 PUSH1 0x4 MSTORE PUSH1 0x24 PUSH1 0x0 REVERT JUMPDEST PUSH1 0x20 SWAP1 DUP2 MUL SWAP2 SWAP1 SWAP2 ADD DUP2 ADD MLOAD DUP3 MSTORE DUP2 ADD SWAP2 SWAP1 SWAP2 MSTORE PUSH1 0x40 ADD PUSH1 0x0 KECCAK256 SLOAD PUSH5 0x100000000 SWAP1 DIV PUSH20 0xFFFFFFFFFFFFFFFFFFFFFFFFFFFFFFFFFFFFFFFF AND EQ ISZERO PUSH2 0x941 JUMPI PUSH1 0x1 DUP3 DUP3 DUP2 MLOAD DUP2 LT PUSH2 0x92C JUMPI PUSH32 0x4E487B7100000000000000000000000000000000000000000000000000000000 PUSH1 0x0 MSTORE PUSH1 0x32 PUSH1 0x4 MSTORE PUSH1 0x24 PUSH1 0x0 REVERT JUMPDEST SWAP2 ISZERO ISZERO PUSH1 0x20 SWAP3 DUP4 MUL SWAP2 SWAP1 SWAP2 ADD SWAP1 SWAP2 ADD MSTORE PUSH2 0x98D JUMP JUMPDEST PUSH1 0x0 DUP3 DUP3 DUP2 MLOAD DUP2 LT PUSH2 0x97C JUMPI PUSH32 0x4E487B7100000000000000000000000000000000000000000000000000000000 PUSH1 0x0 MSTORE PUSH1 0x32 PUSH1 0x4 MSTORE PUSH1 0x24 PUSH1 0x0 REVERT JUMPDEST SWAP2 ISZERO ISZERO PUSH1 0x20 SWAP3 DUP4 MUL SWAP2 SWAP1 SWAP2 ADD SWAP1 SWAP2 ADD MSTORE JUMPDEST DUP1 PUSH2 0x997 DUP2 PUSH2 0x4DD0 JUMP JUMPDEST SWAP2 POP POP PUSH2 0x6B8 JUMP JUMPDEST POP DUP3 DUP3 DUP3 PUSH2 0x9AD DUP9 DUP16 PUSH2 0x4BA5 JUMP JUMPDEST SWAP9 POP SWAP9 POP SWAP9 POP SWAP9 POP POP POP POP POP POP SWAP5 POP SWAP5 POP SWAP5 POP SWAP5 SWAP1 POP JUMP JUMPDEST PUSH2 0x9CD PUSH2 0x4464 JUMP JUMPDEST PUSH1 0x0 DUP3 DUP2 MSTORE PUSH1 0xD PUSH1 0x20 MSTORE PUSH1 0x40 SWAP1 DUP2 SWAP1 KECCAK256 DUP2 MLOAD PUSH2 0x1A0 DUP2 ADD SWAP1 SWAP3 MSTORE DUP1 SLOAD DUP3 SWAP1 PUSH1 0xFF AND PUSH1 0x3 DUP2 GT ISZERO PUSH2 0xA26 JUMPI PUSH32 0x4E487B7100000000000000000000000000000000000000000000000000000000 PUSH1 0x0 MSTORE PUSH1 0x21 PUSH1 0x4 MSTORE PUSH1 0x24 PUSH1 0x0 REVERT JUMPDEST PUSH1 0x3 DUP2 GT ISZERO PUSH2 0xA5E JUMPI PUSH32 0x4E487B7100000000000000000000000000000000000000000000000000000000 PUSH1 0x0 MSTORE PUSH1 0x21 PUSH1 0x4 MSTORE PUSH1 0x24 PUSH1 0x0 REVERT JUMPDEST DUP2 MSTORE PUSH1 0x1 DUP3 ADD SLOAD PUSH1 0x20 DUP3 ADD MSTORE PUSH1 0x2 DUP3 ADD SLOAD PUSH1 0x40 DUP1 DUP4 ADD SWAP2 SWAP1 SWAP2 MSTORE PUSH1 0x3 DUP4 ADD SLOAD PUSH1 0x60 DUP4 ADD MSTORE PUSH1 0x4 DUP4 ADD SLOAD PUSH1 0x80 DUP4 ADD MSTORE DUP1 MLOAD PUSH1 0xC0 DUP2 ADD SWAP2 DUP3 SWAP1 MSTORE PUSH1 0xA0 SWAP1 SWAP3 ADD SWAP2 SWAP1 PUSH1 0x5 DUP5 ADD SWAP1 PUSH1 0x6 SWAP1 DUP3 DUP5 JUMPDEST DUP2 SLOAD DUP2 MSTORE PUSH1 0x20 ADD SWAP1 PUSH1 0x1 ADD SWAP1 DUP1 DUP4 GT PUSH2 0xAA8 JUMPI POP POP POP SWAP2 DUP4 MSTORE POP POP PUSH1 0xB DUP3 ADD SLOAD PUSH1 0x20 DUP3 ADD MSTORE PUSH1 0x40 DUP1 MLOAD PUSH1 0xC0 DUP2 ADD DUP3 MSTORE SWAP2 ADD SWAP1 PUSH1 0xC DUP4 ADD PUSH1 0x6 DUP3 DUP3 DUP3 PUSH1 0x20 MUL DUP3 ADD SWAP2 JUMPDEST DUP2 SLOAD DUP2 MSTORE PUSH1 0x20 ADD SWAP1 PUSH1 0x1 ADD SWAP1 DUP1 DUP4 GT PUSH2 0xAEA JUMPI POP POP POP SWAP2 DUP4 MSTORE POP POP PUSH1 0x40 DUP1 MLOAD PUSH1 0xC0 DUP2 ADD SWAP2 DUP3 SWAP1 MSTORE PUSH1 0x20 SWAP1 SWAP3 ADD SWAP2 SWAP1 PUSH1 0x12 DUP5 ADD SWAP1 PUSH1 0x6 SWAP1 DUP3 DUP5 JUMPDEST DUP2 SLOAD DUP2 MSTORE PUSH1 0x20 ADD SWAP1 PUSH1 0x1 ADD SWAP1 DUP1 DUP4 GT PUSH2 0xB23 JUMPI POP POP POP SWAP2 DUP4 MSTORE POP POP PUSH1 0x18 DUP3 ADD SLOAD PUSH1 0x20 DUP3 ADD MSTORE PUSH1 0x19 DUP3 ADD SLOAD PUSH1 0x40 DUP3 ADD MSTORE PUSH1 0x1A DUP3 ADD SLOAD PUSH1 0x60 DUP3 ADD MSTORE PUSH1 0x1B SWAP1 SWAP2 ADD SLOAD PUSH4 0xFFFFFFFF AND PUSH1 0x80 SWAP1 SWAP2 ADD MSTORE SWAP3 SWAP2 POP POP JUMP JUMPDEST PUSH1 0x0 PUSH1 0x3 PUSH1 0x0 DUP6 DUP2 MSTORE PUSH1 0xD PUSH1 0x20 MSTORE PUSH1 0x40 SWAP1 KECCAK256 SLOAD PUSH1 0xFF AND PUSH1 0x3 DUP2 GT ISZERO PUSH2 0xBC2 JUMPI PUSH32 0x4E487B7100000000000000000000000000000000000000000000000000000000 PUSH1 0x0 MSTORE PUSH1 0x21 PUSH1 0x4 MSTORE PUSH1 0x24 PUSH1 0x0 REVERT JUMPDEST EQ PUSH2 0xBCF JUMPI POP PUSH1 0x0 PUSH2 0xC1B JUMP JUMPDEST PUSH1 0x0 DUP5 DUP2 MSTORE PUSH1 0xD PUSH1 0x20 MSTORE PUSH1 0x40 SWAP1 KECCAK256 PUSH1 0x19 ADD SLOAD DUP4 GT DUP1 ISZERO PUSH2 0xC00 JUMPI POP PUSH1 0x0 DUP5 DUP2 MSTORE PUSH1 0xD PUSH1 0x20 MSTORE PUSH1 0x40 SWAP1 KECCAK256 PUSH1 0x18 ADD SLOAD DUP4 GT ISZERO JUMPDEST ISZERO PUSH2 0xC0D JUMPI POP PUSH1 0x0 PUSH2 0xC1B JUMP JUMPDEST PUSH2 0xC18 DUP5 DUP5 DUP5 PUSH2 0x3F66 JUMP JUMPDEST SWAP1 POP JUMPDEST SWAP4 SWAP3 POP POP POP JUMP JUMPDEST PUSH1 0x1 SLOAD PUSH20 0xFFFFFFFFFFFFFFFFFFFFFFFFFFFFFFFFFFFFFFFF AND CALLER EQ PUSH2 0xCA8 JUMPI PUSH1 0x40 MLOAD PUSH32 0x8C379A000000000000000000000000000000000000000000000000000000000 DUP2 MSTORE PUSH1 0x20 PUSH1 0x4 DUP3 ADD DUP2 SWAP1 MSTORE PUSH1 0x24 DUP3 ADD MSTORE PUSH32 0x4F776E61626C653A2063616C6C6572206973206E6F7420746865206F776E6572 PUSH1 0x44 DUP3 ADD MSTORE PUSH1 0x64 ADD JUMPDEST PUSH1 0x40 MLOAD DUP1 SWAP2 SUB SWAP1 REVERT JUMPDEST PUSH1 0xB SLOAD PUSH20 0xFFFFFFFFFFFFFFFFFFFFFFFFFFFFFFFFFFFFFFFF DUP4 DUP2 AND SWAP2 AND EQ ISZERO PUSH2 0xD2D JUMPI PUSH1 0x40 MLOAD PUSH32 0x8C379A000000000000000000000000000000000000000000000000000000000 DUP2 MSTORE PUSH1 0x20 PUSH1 0x4 DUP3 ADD MSTORE PUSH1 0x14 PUSH1 0x24 DUP3 ADD MSTORE PUSH32 0x43616E6E6F742062652043414B4520746F6B656E000000000000000000000000 PUSH1 0x44 DUP3 ADD MSTORE PUSH1 0x64 ADD PUSH2 0xC9F JUMP JUMPDEST PUSH2 0xD4E PUSH20 0xFFFFFFFFFFFFFFFFFFFFFFFFFFFFFFFFFFFFFFFF DUP4 AND CALLER DUP4 PUSH2 0x4098 JUMP JUMPDEST PUSH1 0x40 DUP1 MLOAD PUSH20 0xFFFFFFFFFFFFFFFFFFFFFFFFFFFFFFFFFFFFFFFF DUP5 AND DUP2 MSTORE PUSH1 0x20 DUP2 ADD DUP4 SWAP1 MSTORE PUSH32 0x74545154AAC348A3EAC92596BD1971957CA94795F4E954EC5F613B55FAB78129 SWAP2 ADD PUSH1 0x40 MLOAD DUP1 SWAP2 SUB SWAP1 LOG1 POP POP JUMP JUMPDEST PUSH1 0x1 SLOAD PUSH20 0xFFFFFFFFFFFFFFFFFFFFFFFFFFFFFFFFFFFFFFFF AND CALLER EQ DUP1 PUSH2 0xDDE JUMPI POP PUSH1 0x2 SLOAD PUSH20 0xFFFFFFFFFFFFFFFFFFFFFFFFFFFFFFFFFFFFFFFF AND CALLER EQ JUMPDEST PUSH2 0xE44 JUMPI PUSH1 0x40 MLOAD PUSH32 0x8C379A000000000000000000000000000000000000000000000000000000000 DUP2 MSTORE PUSH1 0x20 PUSH1 0x4 DUP3 ADD MSTORE PUSH1 0x15 PUSH1 0x24 DUP3 ADD MSTORE PUSH32 0x4E6F74206F776E6572206F7220696E6A6563746F720000000000000000000000 PUSH1 0x44 DUP3 ADD MSTORE PUSH1 0x64 ADD PUSH2 0xC9F JUMP JUMPDEST PUSH1 0x1 PUSH1 0x0 DUP4 DUP2 MSTORE PUSH1 0xD PUSH1 0x20 MSTORE PUSH1 0x40 SWAP1 KECCAK256 SLOAD PUSH1 0xFF AND PUSH1 0x3 DUP2 GT ISZERO PUSH2 0xE90 JUMPI PUSH32 0x4E487B7100000000000000000000000000000000000000000000000000000000 PUSH1 0x0 MSTORE PUSH1 0x21 PUSH1 0x4 MSTORE PUSH1 0x24 PUSH1 0x0 REVERT JUMPDEST EQ PUSH2 0xEF7 JUMPI PUSH1 0x40 MLOAD PUSH32 0x8C379A000000000000000000000000000000000000000000000000000000000 DUP2 MSTORE PUSH1 0x20 PUSH1 0x4 DUP3 ADD MSTORE PUSH1 0x10 PUSH1 0x24 DUP3 ADD MSTORE PUSH32 0x4C6F7474657279206E6F74206F70656E00000000000000000000000000000000 PUSH1 0x44 DUP3 ADD MSTORE PUSH1 0x64 ADD PUSH2 0xC9F JUMP JUMPDEST PUSH1 0xB SLOAD PUSH2 0xF1C SWAP1 PUSH20 0xFFFFFFFFFFFFFFFFFFFFFFFFFFFFFFFFFFFFFFFF AND CALLER ADDRESS DUP5 PUSH2 0x4171 JUMP JUMPDEST PUSH1 0x0 DUP3 DUP2 MSTORE PUSH1 0xD PUSH1 0x20 MSTORE PUSH1 0x40 DUP2 KECCAK256 PUSH1 0x1A ADD DUP1 SLOAD DUP4 SWAP3 SWAP1 PUSH2 0xF3D SWAP1 DUP5 SWAP1 PUSH2 0x4BA5 JUMP JUMPDEST SWAP1 SWAP2 SSTORE POP POP PUSH1 0x40 MLOAD DUP2 DUP2 MSTORE DUP3 SWAP1 PUSH32 0x1BBD659DD628A25F7FF2EABB69C74A56939C539728282275C1C9C1A2D3E34049 SWAP1 PUSH1 0x20 ADD PUSH1 0x40 MLOAD DUP1 SWAP2 SUB SWAP1 LOG2 POP POP JUMP JUMPDEST PUSH1 0x1 SLOAD PUSH20 0xFFFFFFFFFFFFFFFFFFFFFFFFFFFFFFFFFFFFFFFF AND CALLER EQ PUSH2 0xFFC JUMPI PUSH1 0x40 MLOAD PUSH32 0x8C379A000000000000000000000000000000000000000000000000000000000 DUP2 MSTORE PUSH1 0x20 PUSH1 0x4 DUP3 ADD DUP2 SWAP1 MSTORE PUSH1 0x24 DUP3 ADD MSTORE PUSH32 0x4F776E61626C653A2063616C6C6572206973206E6F7420746865206F776E6572 PUSH1 0x44 DUP3 ADD MSTORE PUSH1 0x64 ADD PUSH2 0xC9F JUMP JUMPDEST DUP1 PUSH2 0x1063 JUMPI PUSH1 0x40 MLOAD PUSH32 0x8C379A000000000000000000000000000000000000000000000000000000000 DUP2 MSTORE PUSH1 0x20 PUSH1 0x4 DUP3 ADD MSTORE PUSH1 0xB PUSH1 0x24 DUP3 ADD MSTORE PUSH32 0x4D757374206265203E2030000000000000000000000000000000000000000000 PUSH1 0x44 DUP3 ADD MSTORE PUSH1 0x64 ADD PUSH2 0xC9F JUMP JUMPDEST PUSH1 0x7 SSTORE JUMP JUMPDEST PUSH1 0x1 SLOAD PUSH20 0xFFFFFFFFFFFFFFFFFFFFFFFFFFFFFFFFFFFFFFFF AND CALLER EQ PUSH2 0x10E9 JUMPI PUSH1 0x40 MLOAD PUSH32 0x8C379A000000000000000000000000000000000000000000000000000000000 DUP2 MSTORE PUSH1 0x20 PUSH1 0x4 DUP3 ADD DUP2 SWAP1 MSTORE PUSH1 0x24 DUP3 ADD MSTORE PUSH32 0x4F776E61626C653A2063616C6C6572206973206E6F7420746865206F776E6572 PUSH1 0x44 DUP3 ADD MSTORE PUSH1 0x64 ADD PUSH2 0xC9F JUMP JUMPDEST PUSH1 0x1 SLOAD PUSH1 0x40 MLOAD PUSH1 0x0 SWAP2 PUSH20 0xFFFFFFFFFFFFFFFFFFFFFFFFFFFFFFFFFFFFFFFF AND SWAP1 PUSH32 0x8BE0079C531659141344CD1FD0A4F28419497F9722A3DAAFE3B4186F6B6457E0 SWAP1 DUP4 SWAP1 LOG3 PUSH1 0x1 DUP1 SLOAD PUSH32 0xFFFFFFFFFFFFFFFFFFFFFFFF0000000000000000000000000000000000000000 AND SWAP1 SSTORE JUMP JUMPDEST CALLER EXTCODESIZE ISZERO PUSH2 0x11C1 JUMPI PUSH1 0x40 MLOAD PUSH32 0x8C379A000000000000000000000000000000000000000000000000000000000 DUP2 MSTORE PUSH1 0x20 PUSH1 0x4 DUP3 ADD MSTORE PUSH1 0x14 PUSH1 0x24 DUP3 ADD MSTORE PUSH32 0x436F6E7472616374206E6F7420616C6C6F776564000000000000000000000000 PUSH1 0x44 DUP3 ADD MSTORE PUSH1 0x64 ADD PUSH2 0xC9F JUMP JUMPDEST CALLER ORIGIN EQ PUSH2 0x122A JUMPI PUSH1 0x40 MLOAD PUSH32 0x8C379A000000000000000000000000000000000000000000000000000000000 DUP2 MSTORE PUSH1 0x20 PUSH1 0x4 DUP3 ADD MSTORE PUSH1 0x1A PUSH1 0x24 DUP3 ADD MSTORE PUSH32 0x50726F787920636F6E7472616374206E6F7420616C6C6F776564000000000000 PUSH1 0x44 DUP3 ADD MSTORE PUSH1 0x64 ADD PUSH2 0xC9F JUMP JUMPDEST PUSH1 0x2 PUSH1 0x0 SLOAD EQ ISZERO PUSH2 0x1297 JUMPI PUSH1 0x40 MLOAD PUSH32 0x8C379A000000000000000000000000000000000000000000000000000000000 DUP2 MSTORE PUSH1 0x20 PUSH1 0x4 DUP3 ADD MSTORE PUSH1 0x1F PUSH1 0x24 DUP3 ADD MSTORE PUSH32 0x5265656E7472616E637947756172643A207265656E7472616E742063616C6C00 PUSH1 0x44 DUP3 ADD MSTORE PUSH1 0x64 ADD PUSH2 0xC9F JUMP JUMPDEST PUSH1 0x2 PUSH1 0x0 SSTORE DUP1 PUSH2 0x1303 JUMPI PUSH1 0x40 MLOAD PUSH32 0x8C379A000000000000000000000000000000000000000000000000000000000 DUP2 MSTORE PUSH1 0x20 PUSH1 0x4 DUP3 ADD MSTORE PUSH1 0x13 PUSH1 0x24 DUP3 ADD MSTORE PUSH32 0x4E6F207469636B65742073706563696669656400000000000000000000000000 PUSH1 0x44 DUP3 ADD MSTORE PUSH1 0x64 ADD PUSH2 0xC9F JUMP JUMPDEST PUSH1 0x7 SLOAD DUP2 GT ISZERO PUSH2 0x136F JUMPI PUSH1 0x40 MLOAD PUSH32 0x8C379A000000000000000000000000000000000000000000000000000000000 DUP2 MSTORE PUSH1 0x20 PUSH1 0x4 DUP3 ADD MSTORE PUSH1 0x10 PUSH1 0x24 DUP3 ADD MSTORE PUSH32 0x546F6F206D616E79207469636B65747300000000000000000000000000000000 PUSH1 0x44 DUP3 ADD MSTORE PUSH1 0x64 ADD PUSH2 0xC9F JUMP JUMPDEST PUSH1 0x1 PUSH1 0x0 DUP5 DUP2 MSTORE PUSH1 0xD PUSH1 0x20 MSTORE PUSH1 0x40 SWAP1 KECCAK256 SLOAD PUSH1 0xFF AND PUSH1 0x3 DUP2 GT ISZERO PUSH2 0x13BB JUMPI PUSH32 0x4E487B7100000000000000000000000000000000000000000000000000000000 PUSH1 0x0 MSTORE PUSH1 0x21 PUSH1 0x4 MSTORE PUSH1 0x24 PUSH1 0x0 REVERT JUMPDEST EQ PUSH2 0x1422 JUMPI PUSH1 0x40 MLOAD PUSH32 0x8C379A000000000000000000000000000000000000000000000000000000000 DUP2 MSTORE PUSH1 0x20 PUSH1 0x4 DUP3 ADD MSTORE PUSH1 0x13 PUSH1 0x24 DUP3 ADD MSTORE PUSH32 0x4C6F7474657279206973206E6F74206F70656E00000000000000000000000000 PUSH1 0x44 DUP3 ADD MSTORE PUSH1 0x64 ADD PUSH2 0xC9F JUMP JUMPDEST PUSH1 0x0 DUP4 DUP2 MSTORE PUSH1 0xD PUSH1 0x20 MSTORE PUSH1 0x40 SWAP1 KECCAK256 PUSH1 0x2 ADD SLOAD TIMESTAMP LT PUSH2 0x149C JUMPI PUSH1 0x40 MLOAD PUSH32 0x8C379A000000000000000000000000000000000000000000000000000000000 DUP2 MSTORE PUSH1 0x20 PUSH1 0x4 DUP3 ADD MSTORE PUSH1 0xF PUSH1 0x24 DUP3 ADD MSTORE PUSH32 0x4C6F7474657279206973206F7665720000000000000000000000000000000000 PUSH1 0x44 DUP3 ADD MSTORE PUSH1 0x64 ADD PUSH2 0xC9F JUMP JUMPDEST PUSH1 0x0 DUP4 DUP2 MSTORE PUSH1 0xD PUSH1 0x20 MSTORE PUSH1 0x40 DUP2 KECCAK256 PUSH1 0x4 DUP2 ADD SLOAD PUSH1 0x3 SWAP1 SWAP2 ADD SLOAD PUSH2 0x14C0 SWAP2 SWAP1 DUP5 PUSH2 0x41D5 JUMP JUMPDEST PUSH1 0xB SLOAD SWAP1 SWAP2 POP PUSH2 0x14E8 SWAP1 PUSH20 0xFFFFFFFFFFFFFFFFFFFFFFFFFFFFFFFFFFFFFFFF AND CALLER ADDRESS DUP5 PUSH2 0x4171 JUMP JUMPDEST PUSH1 0x0 DUP5 DUP2 MSTORE PUSH1 0xD PUSH1 0x20 MSTORE PUSH1 0x40 DUP2 KECCAK256 PUSH1 0x1A ADD DUP1 SLOAD DUP4 SWAP3 SWAP1 PUSH2 0x1509 SWAP1 DUP5 SWAP1 PUSH2 0x4BA5 JUMP JUMPDEST SWAP1 SWAP2 SSTORE POP PUSH1 0x0 SWAP1 POP JUMPDEST DUP3 DUP2 LT ISZERO PUSH2 0x18A2 JUMPI PUSH1 0x0 DUP5 DUP5 DUP4 DUP2 DUP2 LT PUSH2 0x1555 JUMPI PUSH32 0x4E487B7100000000000000000000000000000000000000000000000000000000 PUSH1 0x0 MSTORE PUSH1 0x32 PUSH1 0x4 MSTORE PUSH1 0x24 PUSH1 0x0 REVERT JUMPDEST SWAP1 POP PUSH1 0x20 MUL ADD PUSH1 0x20 DUP2 ADD SWAP1 PUSH2 0x156A SWAP2 SWAP1 PUSH2 0x48CC JUMP JUMPDEST SWAP1 POP PUSH3 0xF4240 DUP2 PUSH4 0xFFFFFFFF AND LT ISZERO DUP1 ISZERO PUSH2 0x158E JUMPI POP PUSH3 0x1E847F DUP2 PUSH4 0xFFFFFFFF AND GT ISZERO JUMPDEST PUSH2 0x15F4 JUMPI PUSH1 0x40 MLOAD PUSH32 0x8C379A000000000000000000000000000000000000000000000000000000000 DUP2 MSTORE PUSH1 0x20 PUSH1 0x4 DUP3 ADD MSTORE PUSH1 0xD PUSH1 0x24 DUP3 ADD MSTORE PUSH32 0x4F7574736964652072616E676500000000000000000000000000000000000000 PUSH1 0x44 DUP3 ADD MSTORE PUSH1 0x64 ADD PUSH2 0xC9F JUMP JUMPDEST PUSH1 0x0 DUP7 DUP2 MSTORE PUSH1 0x10 PUSH1 0x20 MSTORE PUSH1 0x40 DUP2 KECCAK256 SWAP1 PUSH2 0x160E PUSH1 0xA DUP5 PUSH2 0x4E2D JUMP JUMPDEST PUSH2 0x1619 SWAP1 PUSH1 0x1 PUSH2 0x4BBD JUMP JUMPDEST PUSH4 0xFFFFFFFF AND DUP2 MSTORE PUSH1 0x20 DUP2 ADD SWAP2 SWAP1 SWAP2 MSTORE PUSH1 0x40 ADD PUSH1 0x0 SWAP1 DUP2 KECCAK256 DUP1 SLOAD SWAP2 PUSH2 0x163D DUP4 PUSH2 0x4DD0 JUMP JUMPDEST SWAP1 SWAP2 SSTORE POP POP PUSH1 0x0 DUP7 DUP2 MSTORE PUSH1 0x10 PUSH1 0x20 MSTORE PUSH1 0x40 DUP2 KECCAK256 SWAP1 PUSH2 0x165C PUSH1 0x64 DUP5 PUSH2 0x4E2D JUMP JUMPDEST PUSH2 0x1667 SWAP1 PUSH1 0xB PUSH2 0x4BBD JUMP JUMPDEST PUSH4 0xFFFFFFFF AND DUP2 MSTORE PUSH1 0x20 DUP2 ADD SWAP2 SWAP1 SWAP2 MSTORE PUSH1 0x40 ADD PUSH1 0x0 SWAP1 DUP2 KECCAK256 DUP1 SLOAD SWAP2 PUSH2 0x168B DUP4 PUSH2 0x4DD0 JUMP JUMPDEST SWAP1 SWAP2 SSTORE POP POP PUSH1 0x0 DUP7 DUP2 MSTORE PUSH1 0x10 PUSH1 0x20 MSTORE PUSH1 0x40 DUP2 KECCAK256 SWAP1 PUSH2 0x16AB PUSH2 0x3E8 DUP5 PUSH2 0x4E2D JUMP JUMPDEST PUSH2 0x16B6 SWAP1 PUSH1 0x6F PUSH2 0x4BBD JUMP JUMPDEST PUSH4 0xFFFFFFFF AND DUP2 MSTORE PUSH1 0x20 DUP2 ADD SWAP2 SWAP1 SWAP2 MSTORE PUSH1 0x40 ADD PUSH1 0x0 SWAP1 DUP2 KECCAK256 DUP1 SLOAD SWAP2 PUSH2 0x16DA DUP4 PUSH2 0x4DD0 JUMP JUMPDEST SWAP1 SWAP2 SSTORE POP POP PUSH1 0x0 DUP7 DUP2 MSTORE PUSH1 0x10 PUSH1 0x20 MSTORE PUSH1 0x40 DUP2 KECCAK256 SWAP1 PUSH2 0x16FA PUSH2 0x2710 DUP5 PUSH2 0x4E2D JUMP JUMPDEST PUSH2 0x1706 SWAP1 PUSH2 0x457 PUSH2 0x4BBD JUMP JUMPDEST PUSH4 0xFFFFFFFF AND DUP2 MSTORE PUSH1 0x20 DUP2 ADD SWAP2 SWAP1 SWAP2 MSTORE PUSH1 0x40 ADD PUSH1 0x0 SWAP1 DUP2 KECCAK256 DUP1 SLOAD SWAP2 PUSH2 0x172A DUP4 PUSH2 0x4DD0 JUMP JUMPDEST SWAP1 SWAP2 SSTORE POP POP PUSH1 0x0 DUP7 DUP2 MSTORE PUSH1 0x10 PUSH1 0x20 MSTORE PUSH1 0x40 DUP2 KECCAK256 SWAP1 PUSH2 0x174B PUSH3 0x186A0 DUP5 PUSH2 0x4E2D JUMP JUMPDEST PUSH2 0x1757 SWAP1 PUSH2 0x2B67 PUSH2 0x4BBD JUMP JUMPDEST PUSH4 0xFFFFFFFF AND DUP2 MSTORE PUSH1 0x20 DUP2 ADD SWAP2 SWAP1 SWAP2 MSTORE PUSH1 0x40 ADD PUSH1 0x0 SWAP1 DUP2 KECCAK256 DUP1 SLOAD SWAP2 PUSH2 0x177B DUP4 PUSH2 0x4DD0 JUMP JUMPDEST SWAP1 SWAP2 SSTORE POP POP PUSH1 0x0 DUP7 DUP2 MSTORE PUSH1 0x10 PUSH1 0x20 MSTORE PUSH1 0x40 DUP2 KECCAK256 SWAP1 PUSH2 0x179C PUSH3 0xF4240 DUP5 PUSH2 0x4E2D JUMP JUMPDEST PUSH2 0x17A9 SWAP1 PUSH3 0x1B207 PUSH2 0x4BBD JUMP JUMPDEST PUSH4 0xFFFFFFFF AND DUP2 MSTORE PUSH1 0x20 DUP2 ADD SWAP2 SWAP1 SWAP2 MSTORE PUSH1 0x40 ADD PUSH1 0x0 SWAP1 DUP2 KECCAK256 DUP1 SLOAD SWAP2 PUSH2 0x17CD DUP4 PUSH2 0x4DD0 JUMP JUMPDEST SWAP1 SWAP2 SSTORE POP POP CALLER PUSH1 0x0 DUP2 DUP2 MSTORE PUSH1 0x11 PUSH1 0x20 SWAP1 DUP2 MSTORE PUSH1 0x40 DUP1 DUP4 KECCAK256 DUP11 DUP5 MSTORE DUP3 MSTORE DUP1 DUP4 KECCAK256 PUSH1 0x6 DUP1 SLOAD DUP3 SLOAD PUSH1 0x1 DUP2 ADD DUP5 SSTORE SWAP3 DUP7 MSTORE DUP5 DUP7 KECCAK256 SWAP1 SWAP3 ADD SWAP2 SWAP1 SWAP2 SSTORE DUP2 MLOAD DUP1 DUP4 ADD DUP4 MSTORE PUSH4 0xFFFFFFFF DUP1 DUP9 AND DUP3 MSTORE DUP2 DUP6 ADD SWAP7 DUP8 MSTORE DUP3 SLOAD DUP7 MSTORE PUSH1 0xE SWAP1 SWAP5 MSTORE SWAP2 DUP5 KECCAK256 SWAP2 MLOAD DUP3 SLOAD SWAP6 MLOAD PUSH20 0xFFFFFFFFFFFFFFFFFFFFFFFFFFFFFFFFFFFFFFFF AND PUSH5 0x100000000 MUL PUSH32 0xFFFFFFFFFFFFFFFF000000000000000000000000000000000000000000000000 SWAP1 SWAP7 AND SWAP4 AND SWAP3 SWAP1 SWAP3 OR SWAP4 SWAP1 SWAP4 OR SWAP1 SWAP3 SSTORE DUP2 SLOAD SWAP2 SWAP1 PUSH2 0x1889 DUP4 PUSH2 0x4DD0 JUMP JUMPDEST SWAP2 SWAP1 POP SSTORE POP POP DUP1 DUP1 PUSH2 0x189A SWAP1 PUSH2 0x4DD0 JUMP JUMPDEST SWAP2 POP POP PUSH2 0x1512 JUMP JUMPDEST POP PUSH1 0x40 MLOAD DUP3 DUP2 MSTORE DUP5 SWAP1 CALLER SWAP1 PUSH32 0xD7D247B583DE1023852EEF87B48F54354DBEC771D01BC2CC49E96094EFC322B9 SWAP1 PUSH1 0x20 ADD PUSH1 0x40 MLOAD DUP1 SWAP2 SUB SWAP1 LOG3 POP POP PUSH1 0x1 PUSH1 0x0 SSTORE POP POP JUMP JUMPDEST PUSH1 0x60 DUP1 DUP3 PUSH1 0x0 DUP2 PUSH8 0xFFFFFFFFFFFFFFFF DUP2 GT ISZERO PUSH2 0x192B JUMPI PUSH32 0x4E487B7100000000000000000000000000000000000000000000000000000000 PUSH1 0x0 MSTORE PUSH1 0x41 PUSH1 0x4 MSTORE PUSH1 0x24 PUSH1 0x0 REVERT JUMPDEST PUSH1 0x40 MLOAD SWAP1 DUP1 DUP3 MSTORE DUP1 PUSH1 0x20 MUL PUSH1 0x20 ADD DUP3 ADD PUSH1 0x40 MSTORE DUP1 ISZERO PUSH2 0x1954 JUMPI DUP2 PUSH1 0x20 ADD PUSH1 0x20 DUP3 MUL DUP1 CALLDATASIZE DUP4 CALLDATACOPY ADD SWAP1 POP JUMPDEST POP SWAP1 POP PUSH1 0x0 DUP3 PUSH8 0xFFFFFFFFFFFFFFFF DUP2 GT ISZERO PUSH2 0x1999 JUMPI PUSH32 0x4E487B7100000000000000000000000000000000000000000000000000000000 PUSH1 0x0 MSTORE PUSH1 0x41 PUSH1 0x4 MSTORE PUSH1 0x24 PUSH1 0x0 REVERT JUMPDEST PUSH1 0x40 MLOAD SWAP1 DUP1 DUP3 MSTORE DUP1 PUSH1 0x20 MUL PUSH1 0x20 ADD DUP3 ADD PUSH1 0x40 MSTORE DUP1 ISZERO PUSH2 0x19C2 JUMPI DUP2 PUSH1 0x20 ADD PUSH1 0x20 DUP3 MUL DUP1 CALLDATASIZE DUP4 CALLDATACOPY ADD SWAP1 POP JUMPDEST POP SWAP1 POP PUSH1 0x0 JUMPDEST DUP4 DUP2 LT ISZERO PUSH2 0x1BAE JUMPI PUSH1 0xE PUSH1 0x0 DUP10 DUP10 DUP5 DUP2 DUP2 LT PUSH2 0x1A0D JUMPI PUSH32 0x4E487B7100000000000000000000000000000000000000000000000000000000 PUSH1 0x0 MSTORE PUSH1 0x32 PUSH1 0x4 MSTORE PUSH1 0x24 PUSH1 0x0 REVERT JUMPDEST SWAP1 POP PUSH1 0x20 MUL ADD CALLDATALOAD DUP2 MSTORE PUSH1 0x20 ADD SWAP1 DUP2 MSTORE PUSH1 0x20 ADD PUSH1 0x0 KECCAK256 PUSH1 0x0 ADD PUSH1 0x0 SWAP1 SLOAD SWAP1 PUSH2 0x100 EXP SWAP1 DIV PUSH4 0xFFFFFFFF AND DUP4 DUP3 DUP2 MLOAD DUP2 LT PUSH2 0x1A6F JUMPI PUSH32 0x4E487B7100000000000000000000000000000000000000000000000000000000 PUSH1 0x0 MSTORE PUSH1 0x32 PUSH1 0x4 MSTORE PUSH1 0x24 PUSH1 0x0 REVERT JUMPDEST PUSH4 0xFFFFFFFF SWAP1 SWAP3 AND PUSH1 0x20 SWAP3 DUP4 MUL SWAP2 SWAP1 SWAP2 ADD SWAP1 SWAP2 ADD MSTORE PUSH1 0x0 PUSH1 0xE DUP2 DUP11 DUP11 DUP6 DUP2 DUP2 LT PUSH2 0x1AC2 JUMPI PUSH32 0x4E487B7100000000000000000000000000000000000000000000000000000000 PUSH1 0x0 MSTORE PUSH1 0x32 PUSH1 0x4 MSTORE PUSH1 0x24 PUSH1 0x0 REVERT JUMPDEST PUSH1 0x20 SWAP1 DUP2 MUL SWAP3 SWAP1 SWAP3 ADD CALLDATALOAD DUP4 MSTORE POP DUP2 ADD SWAP2 SWAP1 SWAP2 MSTORE PUSH1 0x40 ADD PUSH1 0x0 KECCAK256 SLOAD PUSH5 0x100000000 SWAP1 DIV PUSH20 0xFFFFFFFFFFFFFFFFFFFFFFFFFFFFFFFFFFFFFFFF AND EQ ISZERO PUSH2 0x1B50 JUMPI PUSH1 0x1 DUP3 DUP3 DUP2 MLOAD DUP2 LT PUSH2 0x1B3B JUMPI PUSH32 0x4E487B7100000000000000000000000000000000000000000000000000000000 PUSH1 0x0 MSTORE PUSH1 0x32 PUSH1 0x4 MSTORE PUSH1 0x24 PUSH1 0x0 REVERT JUMPDEST SWAP2 ISZERO ISZERO PUSH1 0x20 SWAP3 DUP4 MUL SWAP2 SWAP1 SWAP2 ADD SWAP1 SWAP2 ADD MSTORE PUSH2 0x1B9C JUMP JUMPDEST PUSH1 0x0 DUP3 DUP3 DUP2 MLOAD DUP2 LT PUSH2 0x1B8B JUMPI PUSH32 0x4E487B7100000000000000000000000000000000000000000000000000000000 PUSH1 0x0 MSTORE PUSH1 0x32 PUSH1 0x4 MSTORE PUSH1 0x24 PUSH1 0x0 REVERT JUMPDEST SWAP2 ISZERO ISZERO PUSH1 0x20 SWAP3 DUP4 MUL SWAP2 SWAP1 SWAP2 ADD SWAP1 SWAP2 ADD MSTORE JUMPDEST DUP1 PUSH2 0x1BA6 DUP2 PUSH2 0x4DD0 JUMP JUMPDEST SWAP2 POP POP PUSH2 0x19C8 JUMP JUMPDEST POP SWAP1 SWAP4 POP SWAP2 POP POP JUMPDEST SWAP3 POP SWAP3 SWAP1 POP JUMP JUMPDEST PUSH1 0x1 SLOAD PUSH20 0xFFFFFFFFFFFFFFFFFFFFFFFFFFFFFFFFFFFFFFFF AND CALLER EQ PUSH2 0x1C3E JUMPI PUSH1 0x40 MLOAD PUSH32 0x8C379A000000000000000000000000000000000000000000000000000000000 DUP2 MSTORE PUSH1 0x20 PUSH1 0x4 DUP3 ADD DUP2 SWAP1 MSTORE PUSH1 0x24 DUP3 ADD MSTORE PUSH32 0x4F776E61626C653A2063616C6C6572206973206E6F7420746865206F776E6572 PUSH1 0x44 DUP3 ADD MSTORE PUSH1 0x64 ADD PUSH2 0xC9F JUMP JUMPDEST PUSH1 0x3 PUSH1 0x5 SLOAD PUSH1 0x0 SWAP1 DUP2 MSTORE PUSH1 0xD PUSH1 0x20 MSTORE PUSH1 0x40 SWAP1 KECCAK256 SLOAD PUSH1 0xFF AND PUSH1 0x3 DUP2 GT ISZERO PUSH2 0x1C8D JUMPI PUSH32 0x4E487B7100000000000000000000000000000000000000000000000000000000 PUSH1 0x0 MSTORE PUSH1 0x21 PUSH1 0x4 MSTORE PUSH1 0x24 PUSH1 0x0 REVERT JUMPDEST EQ PUSH2 0x1CF4 JUMPI PUSH1 0x40 MLOAD PUSH32 0x8C379A000000000000000000000000000000000000000000000000000000000 DUP2 MSTORE PUSH1 0x20 PUSH1 0x4 DUP3 ADD MSTORE PUSH1 0x18 PUSH1 0x24 DUP3 ADD MSTORE PUSH32 0x4C6F7474657279206E6F7420696E20636C61696D61626C650000000000000000 PUSH1 0x44 DUP3 ADD MSTORE PUSH1 0x64 ADD PUSH2 0xC9F JUMP JUMPDEST DUP1 PUSH20 0xFFFFFFFFFFFFFFFFFFFFFFFFFFFFFFFFFFFFFFFF AND PUSH4 0xB37217A4 PUSH1 0x5 SLOAD PUSH1 0x6 SLOAD PUSH1 0x40 MLOAD PUSH1 0x20 ADD PUSH2 0x1D30 SWAP3 SWAP2 SWAP1 SWAP2 DUP3 MSTORE PUSH1 0x20 DUP3 ADD MSTORE PUSH1 0x40 ADD SWAP1 JUMP JUMPDEST PUSH1 0x40 DUP1 MLOAD DUP1 DUP4 SUB PUSH32 0xFFFFFFFFFFFFFFFFFFFFFFFFFFFFFFFFFFFFFFFFFFFFFFFFFFFFFFFFFFFFFFE0 ADD DUP2 MSTORE SWAP1 DUP3 SWAP1 MSTORE DUP1 MLOAD PUSH1 0x20 SWAP1 SWAP2 ADD KECCAK256 PUSH1 0xE0 DUP4 SWAP1 SHL PUSH32 0xFFFFFFFF00000000000000000000000000000000000000000000000000000000 AND DUP3 MSTORE PUSH1 0x4 DUP3 ADD MSTORE PUSH1 0x24 ADD PUSH1 0x0 PUSH1 0x40 MLOAD DUP1 DUP4 SUB DUP2 PUSH1 0x0 DUP8 DUP1 EXTCODESIZE ISZERO DUP1 ISZERO PUSH2 0x1DB2 JUMPI PUSH1 0x0 DUP1 REVERT JUMPDEST POP GAS CALL ISZERO DUP1 ISZERO PUSH2 0x1DC6 JUMPI RETURNDATASIZE PUSH1 0x0 DUP1 RETURNDATACOPY RETURNDATASIZE PUSH1 0x0 REVERT JUMPDEST POP POP POP POP DUP1 PUSH20 0xFFFFFFFFFFFFFFFFFFFFFFFFFFFFFFFFFFFFFFFF AND PUSH4 0xA1C4F55A PUSH1 0x40 MLOAD DUP2 PUSH4 0xFFFFFFFF AND PUSH1 0xE0 SHL DUP2 MSTORE PUSH1 0x4 ADD PUSH1 0x20 PUSH1 0x40 MLOAD DUP1 DUP4 SUB DUP2 DUP7 DUP1 EXTCODESIZE ISZERO DUP1 ISZERO PUSH2 0x1E10 JUMPI PUSH1 0x0 DUP1 REVERT JUMPDEST POP GAS STATICCALL ISZERO DUP1 ISZERO PUSH2 0x1E24 JUMPI RETURNDATASIZE PUSH1 0x0 DUP1 RETURNDATACOPY RETURNDATASIZE PUSH1 0x0 REVERT JUMPDEST POP POP POP POP PUSH1 0x40 MLOAD RETURNDATASIZE PUSH1 0x1F NOT PUSH1 0x1F DUP3 ADD AND DUP3 ADD DUP1 PUSH1 0x40 MSTORE POP DUP2 ADD SWAP1 PUSH2 0x1E48 SWAP2 SWAP1 PUSH2 0x48E8 JUMP JUMPDEST POP PUSH1 0xC DUP1 SLOAD PUSH32 0xFFFFFFFFFFFFFFFFFFFFFFFF0000000000000000000000000000000000000000 AND PUSH20 0xFFFFFFFFFFFFFFFFFFFFFFFFFFFFFFFFFFFFFFFF DUP4 AND SWAP1 DUP2 OR SWAP1 SWAP2 SSTORE PUSH1 0x40 MLOAD PUSH32 0x383F8CB39DFA7C3FB901A460DD449EA924868F0A92FF03DA64740FFFA5F1DE62 SWAP1 PUSH1 0x0 SWAP1 LOG2 POP JUMP JUMPDEST PUSH1 0x3 SLOAD PUSH20 0xFFFFFFFFFFFFFFFFFFFFFFFFFFFFFFFFFFFFFFFF AND CALLER EQ PUSH2 0x1F39 JUMPI PUSH1 0x40 MLOAD PUSH32 0x8C379A000000000000000000000000000000000000000000000000000000000 DUP2 MSTORE PUSH1 0x20 PUSH1 0x4 DUP3 ADD MSTORE PUSH1 0xC PUSH1 0x24 DUP3 ADD MSTORE PUSH32 0x4E6F74206F70657261746F720000000000000000000000000000000000000000 PUSH1 0x44 DUP3 ADD MSTORE PUSH1 0x64 ADD PUSH2 0xC9F JUMP JUMPDEST PUSH1 0x2 PUSH1 0x0 SLOAD EQ ISZERO PUSH2 0x1FA6 JUMPI PUSH1 0x40 MLOAD PUSH32 0x8C379A000000000000000000000000000000000000000000000000000000000 DUP2 MSTORE PUSH1 0x20 PUSH1 0x4 DUP3 ADD MSTORE PUSH1 0x1F PUSH1 0x24 DUP3 ADD MSTORE PUSH32 0x5265656E7472616E637947756172643A207265656E7472616E742063616C6C00 PUSH1 0x44 DUP3 ADD MSTORE PUSH1 0x64 ADD PUSH2 0xC9F JUMP JUMPDEST PUSH1 0x2 PUSH1 0x0 SSTORE PUSH1 0x1 PUSH1 0x0 DUP3 DUP2 MSTORE PUSH1 0xD PUSH1 0x20 MSTORE PUSH1 0x40 SWAP1 KECCAK256 SLOAD PUSH1 0xFF AND PUSH1 0x3 DUP2 GT ISZERO PUSH2 0x1FF7 JUMPI PUSH32 0x4E487B7100000000000000000000000000000000000000000000000000000000 PUSH1 0x0 MSTORE PUSH1 0x21 PUSH1 0x4 MSTORE PUSH1 0x24 PUSH1 0x0 REVERT JUMPDEST EQ PUSH2 0x205E JUMPI PUSH1 0x40 MLOAD PUSH32 0x8C379A000000000000000000000000000000000000000000000000000000000 DUP2 MSTORE PUSH1 0x20 PUSH1 0x4 DUP3 ADD MSTORE PUSH1 0x10 PUSH1 0x24 DUP3 ADD MSTORE PUSH32 0x4C6F7474657279206E6F74206F70656E00000000000000000000000000000000 PUSH1 0x44 DUP3 ADD MSTORE PUSH1 0x64 ADD PUSH2 0xC9F JUMP JUMPDEST PUSH1 0x0 DUP2 DUP2 MSTORE PUSH1 0xD PUSH1 0x20 MSTORE PUSH1 0x40 SWAP1 KECCAK256 PUSH1 0x2 ADD SLOAD TIMESTAMP GT PUSH2 0x20D8 JUMPI PUSH1 0x40 MLOAD PUSH32 0x8C379A000000000000000000000000000000000000000000000000000000000 DUP2 MSTORE PUSH1 0x20 PUSH1 0x4 DUP3 ADD MSTORE PUSH1 0x10 PUSH1 0x24 DUP3 ADD MSTORE PUSH32 0x4C6F7474657279206E6F74206F76657200000000000000000000000000000000 PUSH1 0x44 DUP3 ADD MSTORE PUSH1 0x64 ADD PUSH2 0xC9F JUMP JUMPDEST PUSH1 0x6 SLOAD PUSH1 0x0 DUP3 DUP2 MSTORE PUSH1 0xD PUSH1 0x20 SWAP1 DUP2 MSTORE PUSH1 0x40 SWAP2 DUP3 SWAP1 KECCAK256 PUSH1 0x19 ADD DUP4 SWAP1 SSTORE PUSH1 0xC SLOAD DUP3 MLOAD SWAP2 DUP3 ADD DUP6 SWAP1 MSTORE SWAP2 DUP2 ADD SWAP3 SWAP1 SWAP3 MSTORE PUSH20 0xFFFFFFFFFFFFFFFFFFFFFFFFFFFFFFFFFFFFFFFF AND SWAP1 PUSH4 0xB37217A4 SWAP1 PUSH1 0x60 ADD PUSH1 0x40 DUP1 MLOAD DUP1 DUP4 SUB PUSH32 0xFFFFFFFFFFFFFFFFFFFFFFFFFFFFFFFFFFFFFFFFFFFFFFFFFFFFFFFFFFFFFFE0 ADD DUP2 MSTORE SWAP1 DUP3 SWAP1 MSTORE DUP1 MLOAD PUSH1 0x20 SWAP1 SWAP2 ADD KECCAK256 PUSH1 0xE0 DUP4 SWAP1 SHL PUSH32 0xFFFFFFFF00000000000000000000000000000000000000000000000000000000 AND DUP3 MSTORE PUSH1 0x4 DUP3 ADD MSTORE PUSH1 0x24 ADD PUSH1 0x0 PUSH1 0x40 MLOAD DUP1 DUP4 SUB DUP2 PUSH1 0x0 DUP8 DUP1 EXTCODESIZE ISZERO DUP1 ISZERO PUSH2 0x21A7 JUMPI PUSH1 0x0 DUP1 REVERT JUMPDEST POP GAS CALL ISZERO DUP1 ISZERO PUSH2 0x21BB JUMPI RETURNDATASIZE PUSH1 0x0 DUP1 RETURNDATACOPY RETURNDATASIZE PUSH1 0x0 REVERT JUMPDEST POP POP POP PUSH1 0x0 DUP3 DUP2 MSTORE PUSH1 0xD PUSH1 0x20 SWAP1 DUP2 MSTORE PUSH1 0x40 SWAP2 DUP3 SWAP1 KECCAK256 DUP1 SLOAD PUSH32 0xFFFFFFFFFFFFFFFFFFFFFFFFFFFFFFFFFFFFFFFFFFFFFFFFFFFFFFFFFFFFFF00 AND PUSH1 0x2 OR SWAP1 SSTORE PUSH1 0x6 SLOAD SWAP2 MLOAD SWAP2 DUP3 MSTORE DUP4 SWAP3 POP PUSH32 0x3728E75294796694D59D2FFCED9C394279BAF7B9EBD2702DB43F5F04BAC67929 SWAP2 ADD PUSH1 0x40 MLOAD DUP1 SWAP2 SUB SWAP1 LOG2 POP PUSH1 0x1 PUSH1 0x0 SSTORE JUMP JUMPDEST PUSH1 0x3 SLOAD PUSH20 0xFFFFFFFFFFFFFFFFFFFFFFFFFFFFFFFFFFFFFFFF AND CALLER EQ PUSH2 0x22B8 JUMPI PUSH1 0x40 MLOAD PUSH32 0x8C379A000000000000000000000000000000000000000000000000000000000 DUP2 MSTORE PUSH1 0x20 PUSH1 0x4 DUP3 ADD MSTORE PUSH1 0xC PUSH1 0x24 DUP3 ADD MSTORE PUSH32 0x4E6F74206F70657261746F720000000000000000000000000000000000000000 PUSH1 0x44 DUP3 ADD MSTORE PUSH1 0x64 ADD PUSH2 0xC9F JUMP JUMPDEST PUSH1 0x5 SLOAD ISZERO DUP1 PUSH2 0x2313 JUMPI POP PUSH1 0x3 PUSH1 0x5 SLOAD PUSH1 0x0 SWAP1 DUP2 MSTORE PUSH1 0xD PUSH1 0x20 MSTORE PUSH1 0x40 SWAP1 KECCAK256 SLOAD PUSH1 0xFF AND PUSH1 0x3 DUP2 GT ISZERO PUSH2 0x2311 JUMPI PUSH32 0x4E487B7100000000000000000000000000000000000000000000000000000000 PUSH1 0x0 MSTORE PUSH1 0x21 PUSH1 0x4 MSTORE PUSH1 0x24 PUSH1 0x0 REVERT JUMPDEST EQ JUMPDEST PUSH2 0x2379 JUMPI PUSH1 0x40 MLOAD PUSH32 0x8C379A000000000000000000000000000000000000000000000000000000000 DUP2 MSTORE PUSH1 0x20 PUSH1 0x4 DUP3 ADD MSTORE PUSH1 0x19 PUSH1 0x24 DUP3 ADD MSTORE PUSH32 0x4E6F742074696D6520746F207374617274206C6F747465727900000000000000 PUSH1 0x44 DUP3 ADD MSTORE PUSH1 0x64 ADD PUSH2 0xC9F JUMP JUMPDEST PUSH2 0x12C PUSH2 0x2386 TIMESTAMP DUP8 PUSH2 0x4D68 JUMP JUMPDEST GT DUP1 ISZERO PUSH2 0x239E JUMPI POP PUSH3 0x5472C PUSH2 0x239C TIMESTAMP DUP8 PUSH2 0x4D68 JUMP JUMPDEST LT JUMPDEST PUSH2 0x2404 JUMPI PUSH1 0x40 MLOAD PUSH32 0x8C379A000000000000000000000000000000000000000000000000000000000 DUP2 MSTORE PUSH1 0x20 PUSH1 0x4 DUP3 ADD MSTORE PUSH1 0x1F PUSH1 0x24 DUP3 ADD MSTORE PUSH32 0x4C6F7474657279206C656E677468206F757473696465206F662072616E676500 PUSH1 0x44 DUP3 ADD MSTORE PUSH1 0x64 ADD PUSH2 0xC9F JUMP JUMPDEST PUSH1 0x9 SLOAD DUP5 LT ISZERO DUP1 ISZERO PUSH2 0x2418 JUMPI POP PUSH1 0x8 SLOAD DUP5 GT ISZERO JUMPDEST PUSH2 0x247E JUMPI PUSH1 0x40 MLOAD PUSH32 0x8C379A000000000000000000000000000000000000000000000000000000000 DUP2 MSTORE PUSH1 0x20 PUSH1 0x4 DUP3 ADD MSTORE PUSH1 0x11 PUSH1 0x24 DUP3 ADD MSTORE PUSH32 0x4F757473696465206F66206C696D697473000000000000000000000000000000 PUSH1 0x44 DUP3 ADD MSTORE PUSH1 0x64 ADD PUSH2 0xC9F JUMP JUMPDEST PUSH2 0x12C DUP4 LT ISZERO PUSH2 0x24EA JUMPI PUSH1 0x40 MLOAD PUSH32 0x8C379A000000000000000000000000000000000000000000000000000000000 DUP2 MSTORE PUSH1 0x20 PUSH1 0x4 DUP3 ADD MSTORE PUSH1 0x18 PUSH1 0x24 DUP3 ADD MSTORE PUSH32 0x446973636F756E742064697669736F7220746F6F206C6F770000000000000000 PUSH1 0x44 DUP3 ADD MSTORE PUSH1 0x64 ADD PUSH2 0xC9F JUMP JUMPDEST PUSH2 0xBB8 DUP2 GT ISZERO PUSH2 0x2556 JUMPI PUSH1 0x40 MLOAD PUSH32 0x8C379A000000000000000000000000000000000000000000000000000000000 DUP2 MSTORE PUSH1 0x20 PUSH1 0x4 DUP3 ADD MSTORE PUSH1 0x15 PUSH1 0x24 DUP3 ADD MSTORE PUSH32 0x54726561737572792066656520746F6F20686967680000000000000000000000 PUSH1 0x44 DUP3 ADD MSTORE PUSH1 0x64 ADD PUSH2 0xC9F JUMP JUMPDEST PUSH1 0xA0 DUP3 ADD CALLDATALOAD PUSH1 0x80 DUP4 ADD CALLDATALOAD PUSH1 0x60 DUP5 ADD CALLDATALOAD PUSH1 0x40 DUP6 ADD CALLDATALOAD PUSH2 0x2579 PUSH1 0x20 DUP8 ADD CALLDATALOAD DUP8 CALLDATALOAD PUSH2 0x4BA5 JUMP JUMPDEST PUSH2 0x2583 SWAP2 SWAP1 PUSH2 0x4BA5 JUMP JUMPDEST PUSH2 0x258D SWAP2 SWAP1 PUSH2 0x4BA5 JUMP JUMPDEST PUSH2 0x2597 SWAP2 SWAP1 PUSH2 0x4BA5 JUMP JUMPDEST PUSH2 0x25A1 SWAP2 SWAP1 PUSH2 0x4BA5 JUMP JUMPDEST PUSH2 0x2710 EQ PUSH2 0x260B JUMPI PUSH1 0x40 MLOAD PUSH32 0x8C379A000000000000000000000000000000000000000000000000000000000 DUP2 MSTORE PUSH1 0x20 PUSH1 0x4 DUP3 ADD MSTORE PUSH1 0x18 PUSH1 0x24 DUP3 ADD MSTORE PUSH32 0x52657761726473206D75737420657175616C2031303030300000000000000000 PUSH1 0x44 DUP3 ADD MSTORE PUSH1 0x64 ADD PUSH2 0xC9F JUMP JUMPDEST PUSH1 0x5 DUP1 SLOAD SWAP1 PUSH1 0x0 PUSH2 0x261B DUP4 PUSH2 0x4DD0 JUMP JUMPDEST SWAP1 SWAP2 SSTORE POP POP PUSH1 0x40 DUP1 MLOAD PUSH2 0x1A0 DUP2 ADD SWAP1 SWAP2 MSTORE DUP1 PUSH1 0x1 DUP2 MSTORE PUSH1 0x20 ADD TIMESTAMP DUP2 MSTORE PUSH1 0x20 ADD DUP7 DUP2 MSTORE PUSH1 0x20 ADD DUP6 DUP2 MSTORE PUSH1 0x20 ADD DUP5 DUP2 MSTORE PUSH1 0x20 ADD DUP4 PUSH1 0x6 DUP1 PUSH1 0x20 MUL PUSH1 0x40 MLOAD SWAP1 DUP2 ADD PUSH1 0x40 MSTORE DUP1 SWAP3 SWAP2 SWAP1 DUP3 PUSH1 0x6 PUSH1 0x20 MUL DUP1 DUP3 DUP5 CALLDATACOPY PUSH1 0x0 SWAP3 ADD DUP3 SWAP1 MSTORE POP SWAP3 DUP5 MSTORE POP POP PUSH1 0x20 DUP1 DUP4 ADD DUP6 SWAP1 MSTORE PUSH1 0x40 DUP1 MLOAD PUSH1 0xC0 DUP1 DUP3 ADD DUP4 MSTORE DUP5 DUP3 MSTORE DUP2 DUP5 ADD DUP6 SWAP1 MSTORE DUP2 DUP4 ADD DUP6 SWAP1 MSTORE PUSH1 0x60 DUP1 DUP4 ADD DUP7 SWAP1 MSTORE PUSH1 0x80 DUP1 DUP5 ADD DUP8 SWAP1 MSTORE PUSH1 0xA0 DUP1 DUP6 ADD DUP9 SWAP1 MSTORE DUP6 DUP10 ADD SWAP5 SWAP1 SWAP5 MSTORE DUP5 MLOAD DUP1 DUP5 ADD DUP7 MSTORE DUP8 DUP2 MSTORE DUP1 DUP8 ADD DUP9 SWAP1 MSTORE DUP1 DUP7 ADD DUP9 SWAP1 MSTORE DUP1 DUP4 ADD DUP9 SWAP1 MSTORE DUP1 DUP3 ADD DUP9 SWAP1 MSTORE DUP1 DUP6 ADD DUP9 SWAP1 MSTORE SWAP2 DUP9 ADD SWAP2 SWAP1 SWAP2 MSTORE PUSH1 0x6 SLOAD SWAP1 DUP8 ADD DUP2 SWAP1 MSTORE SWAP2 DUP7 ADD SWAP2 SWAP1 SWAP2 MSTORE PUSH1 0xA SLOAD SWAP1 DUP6 ADD MSTORE PUSH1 0xE0 SWAP1 SWAP4 ADD DUP3 SWAP1 MSTORE PUSH1 0x5 SLOAD DUP3 MSTORE PUSH1 0xD SWAP1 MSTORE KECCAK256 DUP2 MLOAD DUP2 SLOAD DUP3 SWAP1 PUSH32 0xFFFFFFFFFFFFFFFFFFFFFFFFFFFFFFFFFFFFFFFFFFFFFFFFFFFFFFFFFFFFFF00 AND PUSH1 0x1 DUP4 PUSH1 0x3 DUP2 GT ISZERO PUSH2 0x2773 JUMPI PUSH32 0x4E487B7100000000000000000000000000000000000000000000000000000000 PUSH1 0x0 MSTORE PUSH1 0x21 PUSH1 0x4 MSTORE PUSH1 0x24 PUSH1 0x0 REVERT JUMPDEST MUL OR SWAP1 SSTORE POP PUSH1 0x20 DUP3 ADD MLOAD PUSH1 0x1 DUP3 ADD SSTORE PUSH1 0x40 DUP3 ADD MLOAD PUSH1 0x2 DUP3 ADD SSTORE PUSH1 0x60 DUP3 ADD MLOAD PUSH1 0x3 DUP3 ADD SSTORE PUSH1 0x80 DUP3 ADD MLOAD PUSH1 0x4 DUP3 ADD SSTORE PUSH1 0xA0 DUP3 ADD MLOAD PUSH2 0x27B5 SWAP1 PUSH1 0x5 DUP4 ADD SWAP1 PUSH1 0x6 PUSH2 0x44E5 JUMP JUMPDEST POP PUSH1 0xC0 DUP3 ADD MLOAD PUSH1 0xB DUP3 ADD SSTORE PUSH1 0xE0 DUP3 ADD MLOAD PUSH2 0x27D5 SWAP1 PUSH1 0xC DUP4 ADD SWAP1 PUSH1 0x6 PUSH2 0x44E5 JUMP JUMPDEST POP PUSH2 0x100 DUP3 ADD MLOAD PUSH2 0x27EC SWAP1 PUSH1 0x12 DUP4 ADD SWAP1 PUSH1 0x6 PUSH2 0x44E5 JUMP JUMPDEST POP PUSH2 0x120 DUP3 ADD MLOAD PUSH1 0x18 DUP3 ADD SSTORE PUSH2 0x140 DUP3 ADD MLOAD PUSH1 0x19 DUP3 ADD SSTORE PUSH2 0x160 DUP3 ADD MLOAD PUSH1 0x1A DUP3 ADD SSTORE PUSH2 0x180 SWAP1 SWAP2 ADD MLOAD PUSH1 0x1B SWAP1 SWAP2 ADD DUP1 SLOAD PUSH32 0xFFFFFFFFFFFFFFFFFFFFFFFFFFFFFFFFFFFFFFFFFFFFFFFFFFFFFFFF00000000 AND PUSH4 0xFFFFFFFF SWAP1 SWAP3 AND SWAP2 SWAP1 SWAP2 OR SWAP1 SSTORE PUSH1 0x5 SLOAD PUSH1 0x6 SLOAD PUSH1 0xA SLOAD PUSH1 0x40 DUP1 MLOAD TIMESTAMP DUP2 MSTORE PUSH1 0x20 DUP2 ADD DUP11 SWAP1 MSTORE SWAP1 DUP2 ADD DUP9 SWAP1 MSTORE PUSH1 0x60 DUP2 ADD SWAP3 SWAP1 SWAP3 MSTORE PUSH1 0x80 DUP3 ADD MSTORE PUSH32 0x367E70F8C0E0C0A6504D92172BDA155C02022D532FC85B5D66A9C49E31C8BC77 SWAP1 PUSH1 0xA0 ADD PUSH1 0x40 MLOAD DUP1 SWAP2 SUB SWAP1 LOG2 POP POP PUSH1 0x0 PUSH1 0xA SSTORE POP POP POP JUMP JUMPDEST PUSH1 0x3 SLOAD PUSH20 0xFFFFFFFFFFFFFFFFFFFFFFFFFFFFFFFFFFFFFFFF AND CALLER EQ PUSH2 0x2930 JUMPI PUSH1 0x40 MLOAD PUSH32 0x8C379A000000000000000000000000000000000000000000000000000000000 DUP2 MSTORE PUSH1 0x20 PUSH1 0x4 DUP3 ADD MSTORE PUSH1 0xC PUSH1 0x24 DUP3 ADD MSTORE PUSH32 0x4E6F74206F70657261746F720000000000000000000000000000000000000000 PUSH1 0x44 DUP3 ADD MSTORE PUSH1 0x64 ADD PUSH2 0xC9F JUMP JUMPDEST PUSH1 0x2 PUSH1 0x0 SLOAD EQ ISZERO PUSH2 0x299D JUMPI PUSH1 0x40 MLOAD PUSH32 0x8C379A000000000000000000000000000000000000000000000000000000000 DUP2 MSTORE PUSH1 0x20 PUSH1 0x4 DUP3 ADD MSTORE PUSH1 0x1F PUSH1 0x24 DUP3 ADD MSTORE PUSH32 0x5265656E7472616E637947756172643A207265656E7472616E742063616C6C00 PUSH1 0x44 DUP3 ADD MSTORE PUSH1 0x64 ADD PUSH2 0xC9F JUMP JUMPDEST PUSH1 0x2 PUSH1 0x0 DUP2 DUP2 SSTORE DUP4 DUP2 MSTORE PUSH1 0xD PUSH1 0x20 MSTORE PUSH1 0x40 SWAP1 KECCAK256 SLOAD PUSH1 0xFF AND PUSH1 0x3 DUP2 GT ISZERO PUSH2 0x29EC JUMPI PUSH32 0x4E487B7100000000000000000000000000000000000000000000000000000000 PUSH1 0x0 MSTORE PUSH1 0x21 PUSH1 0x4 MSTORE PUSH1 0x24 PUSH1 0x0 REVERT JUMPDEST EQ PUSH2 0x2A53 JUMPI PUSH1 0x40 MLOAD PUSH32 0x8C379A000000000000000000000000000000000000000000000000000000000 DUP2 MSTORE PUSH1 0x20 PUSH1 0x4 DUP3 ADD MSTORE PUSH1 0x11 PUSH1 0x24 DUP3 ADD MSTORE PUSH32 0x4C6F7474657279206E6F7420636C6F7365000000000000000000000000000000 PUSH1 0x44 DUP3 ADD MSTORE PUSH1 0x64 ADD PUSH2 0xC9F JUMP JUMPDEST PUSH1 0xC PUSH1 0x0 SWAP1 SLOAD SWAP1 PUSH2 0x100 EXP SWAP1 DIV PUSH20 0xFFFFFFFFFFFFFFFFFFFFFFFFFFFFFFFFFFFFFFFF AND PUSH20 0xFFFFFFFFFFFFFFFFFFFFFFFFFFFFFFFFFFFFFFFF AND PUSH4 0xFBE5D917 PUSH1 0x40 MLOAD DUP2 PUSH4 0xFFFFFFFF AND PUSH1 0xE0 SHL DUP2 MSTORE PUSH1 0x4 ADD PUSH1 0x20 PUSH1 0x40 MLOAD DUP1 DUP4 SUB DUP2 DUP7 DUP1 EXTCODESIZE ISZERO DUP1 ISZERO PUSH2 0x2ABB JUMPI PUSH1 0x0 DUP1 REVERT JUMPDEST POP GAS STATICCALL ISZERO DUP1 ISZERO PUSH2 0x2ACF JUMPI RETURNDATASIZE PUSH1 0x0 DUP1 RETURNDATACOPY RETURNDATASIZE PUSH1 0x0 REVERT JUMPDEST POP POP POP POP PUSH1 0x40 MLOAD RETURNDATASIZE PUSH1 0x1F NOT PUSH1 0x1F DUP3 ADD AND DUP3 ADD DUP1 PUSH1 0x40 MSTORE POP DUP2 ADD SWAP1 PUSH2 0x2AF3 SWAP2 SWAP1 PUSH2 0x46F3 JUMP JUMPDEST DUP3 EQ PUSH2 0x2B5B JUMPI PUSH1 0x40 MLOAD PUSH32 0x8C379A000000000000000000000000000000000000000000000000000000000 DUP2 MSTORE PUSH1 0x20 PUSH1 0x4 DUP3 ADD MSTORE PUSH1 0x11 PUSH1 0x24 DUP3 ADD MSTORE PUSH32 0x4E756D62657273206E6F7420647261776E000000000000000000000000000000 PUSH1 0x44 DUP3 ADD MSTORE PUSH1 0x64 ADD PUSH2 0xC9F JUMP JUMPDEST PUSH1 0xC SLOAD PUSH1 0x40 DUP1 MLOAD PUSH32 0xA1C4F55A00000000000000000000000000000000000000000000000000000000 DUP2 MSTORE SWAP1 MLOAD PUSH1 0x0 SWAP3 PUSH20 0xFFFFFFFFFFFFFFFFFFFFFFFFFFFFFFFFFFFFFFFF AND SWAP2 PUSH4 0xA1C4F55A SWAP2 PUSH1 0x4 DUP1 DUP4 ADD SWAP3 PUSH1 0x20 SWAP3 SWAP2 SWAP1 DUP3 SWAP1 SUB ADD DUP2 DUP7 DUP1 EXTCODESIZE ISZERO DUP1 ISZERO PUSH2 0x2BC6 JUMPI PUSH1 0x0 DUP1 REVERT JUMPDEST POP GAS STATICCALL ISZERO DUP1 ISZERO PUSH2 0x2BDA JUMPI RETURNDATASIZE PUSH1 0x0 DUP1 RETURNDATACOPY RETURNDATASIZE PUSH1 0x0 REVERT JUMPDEST POP POP POP POP PUSH1 0x40 MLOAD RETURNDATASIZE PUSH1 0x1F NOT PUSH1 0x1F DUP3 ADD AND DUP3 ADD DUP1 PUSH1 0x40 MSTORE POP DUP2 ADD SWAP1 PUSH2 0x2BFE SWAP2 SWAP1 PUSH2 0x48E8 JUMP JUMPDEST PUSH1 0x0 DUP5 DUP2 MSTORE PUSH1 0xD PUSH1 0x20 MSTORE PUSH1 0x40 DUP2 KECCAK256 PUSH1 0xB ADD SLOAD SWAP2 SWAP3 POP SWAP1 DUP2 SWAP1 PUSH2 0x2710 SWAP1 PUSH2 0x2C24 SWAP1 DUP3 PUSH2 0x4D68 JUMP JUMPDEST PUSH1 0x0 DUP8 DUP2 MSTORE PUSH1 0xD PUSH1 0x20 MSTORE PUSH1 0x40 SWAP1 KECCAK256 PUSH1 0x1A ADD SLOAD PUSH2 0x2C40 SWAP2 SWAP1 PUSH2 0x4D2B JUMP JUMPDEST PUSH2 0x2C4A SWAP2 SWAP1 PUSH2 0x4BE5 JUMP JUMPDEST SWAP1 POP PUSH1 0x0 DUP1 JUMPDEST PUSH1 0x6 DUP2 PUSH4 0xFFFFFFFF AND LT ISZERO PUSH2 0x2FAE JUMPI PUSH1 0x0 PUSH2 0x2C6C DUP3 PUSH1 0x5 PUSH2 0x4D7F JUMP JUMPDEST SWAP1 POP PUSH1 0x0 PUSH2 0x2C7B DUP3 PUSH1 0x1 PUSH2 0x4BBD JUMP JUMPDEST PUSH2 0x2C86 SWAP1 PUSH1 0xA PUSH2 0x4C40 JUMP JUMPDEST PUSH2 0x2C90 SWAP1 DUP9 PUSH2 0x4E2D JUMP JUMPDEST PUSH4 0xFFFFFFFF DUP1 DUP5 AND PUSH1 0x0 SWAP1 DUP2 MSTORE PUSH1 0xF PUSH1 0x20 MSTORE PUSH1 0x40 SWAP1 KECCAK256 SLOAD PUSH2 0x2CB2 SWAP3 SWAP2 AND PUSH2 0x4BBD JUMP JUMPDEST PUSH1 0x0 DUP11 DUP2 MSTORE PUSH1 0x10 PUSH1 0x20 SWAP1 DUP2 MSTORE PUSH1 0x40 DUP1 DUP4 KECCAK256 PUSH4 0xFFFFFFFF DUP6 AND DUP5 MSTORE SWAP1 SWAP2 MSTORE SWAP1 KECCAK256 SLOAD SWAP1 SWAP2 POP PUSH2 0x2CE0 SWAP1 DUP8 SWAP1 PUSH2 0x4D68 JUMP JUMPDEST PUSH1 0x0 DUP11 DUP2 MSTORE PUSH1 0xD PUSH1 0x20 MSTORE PUSH1 0x40 SWAP1 KECCAK256 PUSH1 0x12 ADD PUSH4 0xFFFFFFFF DUP5 AND PUSH1 0x6 DUP2 LT PUSH2 0x2D2F JUMPI PUSH32 0x4E487B7100000000000000000000000000000000000000000000000000000000 PUSH1 0x0 MSTORE PUSH1 0x32 PUSH1 0x4 MSTORE PUSH1 0x24 PUSH1 0x0 REVERT JUMPDEST ADD SSTORE PUSH1 0x0 DUP10 DUP2 MSTORE PUSH1 0x10 PUSH1 0x20 SWAP1 DUP2 MSTORE PUSH1 0x40 DUP1 DUP4 KECCAK256 PUSH4 0xFFFFFFFF DUP6 AND DUP5 MSTORE SWAP1 SWAP2 MSTORE SWAP1 KECCAK256 SLOAD PUSH2 0x2D5C SWAP1 DUP8 SWAP1 PUSH2 0x4D68 JUMP JUMPDEST ISZERO PUSH2 0x2ED0 JUMPI PUSH1 0x0 DUP10 DUP2 MSTORE PUSH1 0xD PUSH1 0x20 MSTORE PUSH1 0x40 SWAP1 KECCAK256 PUSH1 0x5 ADD PUSH4 0xFFFFFFFF DUP4 AND PUSH1 0x6 DUP2 LT PUSH2 0x2DB0 JUMPI PUSH32 0x4E487B7100000000000000000000000000000000000000000000000000000000 PUSH1 0x0 MSTORE PUSH1 0x32 PUSH1 0x4 MSTORE PUSH1 0x24 PUSH1 0x0 REVERT JUMPDEST ADD SLOAD ISZERO PUSH2 0x2ECB JUMPI PUSH1 0x0 DUP10 DUP2 MSTORE PUSH1 0x10 PUSH1 0x20 SWAP1 DUP2 MSTORE PUSH1 0x40 DUP1 DUP4 KECCAK256 PUSH4 0xFFFFFFFF DUP6 AND DUP5 MSTORE SWAP1 SWAP2 MSTORE SWAP1 KECCAK256 SLOAD PUSH2 0x2710 SWAP1 PUSH2 0x2DE6 SWAP1 DUP9 SWAP1 PUSH2 0x4D68 JUMP JUMPDEST PUSH1 0x0 DUP12 DUP2 MSTORE PUSH1 0xD PUSH1 0x20 MSTORE PUSH1 0x40 SWAP1 KECCAK256 DUP8 SWAP1 PUSH1 0x5 ADD PUSH4 0xFFFFFFFF DUP7 AND PUSH1 0x6 DUP2 LT PUSH2 0x2E37 JUMPI PUSH32 0x4E487B7100000000000000000000000000000000000000000000000000000000 PUSH1 0x0 MSTORE PUSH1 0x32 PUSH1 0x4 MSTORE PUSH1 0x24 PUSH1 0x0 REVERT JUMPDEST ADD SLOAD PUSH2 0x2E43 SWAP2 SWAP1 PUSH2 0x4D2B JUMP JUMPDEST PUSH2 0x2E4D SWAP2 SWAP1 PUSH2 0x4BE5 JUMP JUMPDEST PUSH2 0x2E57 SWAP2 SWAP1 PUSH2 0x4BE5 JUMP JUMPDEST PUSH1 0x0 DUP11 DUP2 MSTORE PUSH1 0xD PUSH1 0x20 MSTORE PUSH1 0x40 SWAP1 KECCAK256 PUSH1 0xC ADD PUSH4 0xFFFFFFFF DUP5 AND PUSH1 0x6 DUP2 LT PUSH2 0x2EA6 JUMPI PUSH32 0x4E487B7100000000000000000000000000000000000000000000000000000000 PUSH1 0x0 MSTORE PUSH1 0x32 PUSH1 0x4 MSTORE PUSH1 0x24 PUSH1 0x0 REVERT JUMPDEST ADD SSTORE PUSH1 0x0 DUP10 DUP2 MSTORE PUSH1 0x10 PUSH1 0x20 SWAP1 DUP2 MSTORE PUSH1 0x40 DUP1 DUP4 KECCAK256 PUSH4 0xFFFFFFFF DUP6 AND DUP5 MSTORE SWAP1 SWAP2 MSTORE SWAP1 KECCAK256 SLOAD SWAP6 POP JUMPDEST PUSH2 0x2F99 JUMP JUMPDEST PUSH1 0x0 DUP10 DUP2 MSTORE PUSH1 0xD PUSH1 0x20 MSTORE PUSH1 0x40 DUP2 KECCAK256 PUSH1 0xC ADD PUSH4 0xFFFFFFFF DUP5 AND PUSH1 0x6 DUP2 LT PUSH2 0x2F1F JUMPI PUSH32 0x4E487B7100000000000000000000000000000000000000000000000000000000 PUSH1 0x0 MSTORE PUSH1 0x32 PUSH1 0x4 MSTORE PUSH1 0x24 PUSH1 0x0 REVERT JUMPDEST ADD SSTORE PUSH1 0x0 DUP10 DUP2 MSTORE PUSH1 0xD PUSH1 0x20 MSTORE PUSH1 0x40 SWAP1 KECCAK256 PUSH2 0x2710 SWAP1 DUP7 SWAP1 PUSH1 0x5 ADD PUSH4 0xFFFFFFFF DUP6 AND PUSH1 0x6 DUP2 LT PUSH2 0x2F76 JUMPI PUSH32 0x4E487B7100000000000000000000000000000000000000000000000000000000 PUSH1 0x0 MSTORE PUSH1 0x32 PUSH1 0x4 MSTORE PUSH1 0x24 PUSH1 0x0 REVERT JUMPDEST ADD SLOAD PUSH2 0x2F82 SWAP2 SWAP1 PUSH2 0x4D2B JUMP JUMPDEST PUSH2 0x2F8C SWAP2 SWAP1 PUSH2 0x4BE5 JUMP JUMPDEST PUSH2 0x2F96 SWAP1 DUP6 PUSH2 0x4BA5 JUMP JUMPDEST SWAP4 POP JUMPDEST POP POP DUP1 DUP1 PUSH2 0x2FA6 SWAP1 PUSH2 0x4E09 JUMP JUMPDEST SWAP2 POP POP PUSH2 0x2C50 JUMP JUMPDEST POP PUSH1 0x0 DUP7 DUP2 MSTORE PUSH1 0xD PUSH1 0x20 MSTORE PUSH1 0x40 SWAP1 KECCAK256 PUSH1 0x1B DUP2 ADD DUP1 SLOAD PUSH4 0xFFFFFFFF DUP8 AND PUSH32 0xFFFFFFFFFFFFFFFFFFFFFFFFFFFFFFFFFFFFFFFFFFFFFFFFFFFFFFFF00000000 SWAP1 SWAP2 AND OR SWAP1 SSTORE DUP1 SLOAD PUSH32 0xFFFFFFFFFFFFFFFFFFFFFFFFFFFFFFFFFFFFFFFFFFFFFFFFFFFFFFFFFFFFFF00 AND PUSH1 0x3 OR SWAP1 SSTORE DUP5 ISZERO PUSH2 0x3026 JUMPI PUSH1 0xA SSTORE PUSH1 0x0 JUMPDEST PUSH1 0x0 DUP7 DUP2 MSTORE PUSH1 0xD PUSH1 0x20 MSTORE PUSH1 0x40 SWAP1 KECCAK256 PUSH1 0x1A ADD SLOAD PUSH2 0x3043 SWAP1 DUP4 SWAP1 PUSH2 0x4D68 JUMP JUMPDEST PUSH2 0x304D SWAP1 DUP3 PUSH2 0x4BA5 JUMP JUMPDEST PUSH1 0x4 SLOAD PUSH1 0xB SLOAD SWAP2 SWAP3 POP PUSH2 0x307A SWAP2 PUSH20 0xFFFFFFFFFFFFFFFFFFFFFFFFFFFFFFFFFFFFFFFF SWAP1 DUP2 AND SWAP2 AND DUP4 PUSH2 0x4098 JUMP JUMPDEST PUSH1 0x5 SLOAD PUSH1 0x40 DUP1 MLOAD PUSH4 0xFFFFFFFF DUP8 AND DUP2 MSTORE PUSH1 0x20 DUP2 ADD DUP7 SWAP1 MSTORE PUSH32 0x98E31A6607B8B15B4D5B91DE54F4C09FFE4C4CF162AA532C70B5213754E2E703 SWAP2 ADD PUSH1 0x40 MLOAD DUP1 SWAP2 SUB SWAP1 LOG2 POP POP PUSH1 0x1 PUSH1 0x0 SSTORE POP POP POP POP JUMP JUMPDEST PUSH1 0x0 PUSH2 0x12C DUP5 LT ISZERO PUSH2 0x3137 JUMPI PUSH1 0x40 MLOAD PUSH32 0x8C379A000000000000000000000000000000000000000000000000000000000 DUP2 MSTORE PUSH1 0x20 PUSH1 0x4 DUP3 ADD MSTORE PUSH1 0x1F PUSH1 0x24 DUP3 ADD MSTORE PUSH32 0x4D757374206265203E3D204D494E5F444953434F554E545F44495649534F5200 PUSH1 0x44 DUP3 ADD MSTORE PUSH1 0x64 ADD PUSH2 0xC9F JUMP JUMPDEST DUP2 PUSH2 0x319E JUMPI PUSH1 0x40 MLOAD PUSH32 0x8C379A000000000000000000000000000000000000000000000000000000000 DUP2 MSTORE PUSH1 0x20 PUSH1 0x4 DUP3 ADD MSTORE PUSH1 0x1D PUSH1 0x24 DUP3 ADD MSTORE PUSH32 0x4E756D626572206F66207469636B657473206D757374206265203E2030000000 PUSH1 0x44 DUP3 ADD MSTORE PUSH1 0x64 ADD PUSH2 0xC9F JUMP JUMPDEST PUSH2 0xC18 DUP5 DUP5 DUP5 PUSH2 0x41D5 JUMP JUMPDEST CALLER EXTCODESIZE ISZERO PUSH2 0x3212 JUMPI PUSH1 0x40 MLOAD PUSH32 0x8C379A000000000000000000000000000000000000000000000000000000000 DUP2 MSTORE PUSH1 0x20 PUSH1 0x4 DUP3 ADD MSTORE PUSH1 0x14 PUSH1 0x24 DUP3 ADD MSTORE PUSH32 0x436F6E7472616374206E6F7420616C6C6F776564000000000000000000000000 PUSH1 0x44 DUP3 ADD MSTORE PUSH1 0x64 ADD PUSH2 0xC9F JUMP JUMPDEST CALLER ORIGIN EQ PUSH2 0x327B JUMPI PUSH1 0x40 MLOAD PUSH32 0x8C379A000000000000000000000000000000000000000000000000000000000 DUP2 MSTORE PUSH1 0x20 PUSH1 0x4 DUP3 ADD MSTORE PUSH1 0x1A PUSH1 0x24 DUP3 ADD MSTORE PUSH32 0x50726F787920636F6E7472616374206E6F7420616C6C6F776564000000000000 PUSH1 0x44 DUP3 ADD MSTORE PUSH1 0x64 ADD PUSH2 0xC9F JUMP JUMPDEST PUSH1 0x2 PUSH1 0x0 SLOAD EQ ISZERO PUSH2 0x32E8 JUMPI PUSH1 0x40 MLOAD PUSH32 0x8C379A000000000000000000000000000000000000000000000000000000000 DUP2 MSTORE PUSH1 0x20 PUSH1 0x4 DUP3 ADD MSTORE PUSH1 0x1F PUSH1 0x24 DUP3 ADD MSTORE PUSH32 0x5265656E7472616E637947756172643A207265656E7472616E742063616C6C00 PUSH1 0x44 DUP3 ADD MSTORE PUSH1 0x64 ADD PUSH2 0xC9F JUMP JUMPDEST PUSH1 0x2 PUSH1 0x0 SSTORE DUP3 DUP2 EQ PUSH2 0x3356 JUMPI PUSH1 0x40 MLOAD PUSH32 0x8C379A000000000000000000000000000000000000000000000000000000000 DUP2 MSTORE PUSH1 0x20 PUSH1 0x4 DUP3 ADD MSTORE PUSH1 0xF PUSH1 0x24 DUP3 ADD MSTORE PUSH32 0x4E6F742073616D65206C656E6774680000000000000000000000000000000000 PUSH1 0x44 DUP3 ADD MSTORE PUSH1 0x64 ADD PUSH2 0xC9F JUMP JUMPDEST DUP3 PUSH2 0x33BD JUMPI PUSH1 0x40 MLOAD PUSH32 0x8C379A000000000000000000000000000000000000000000000000000000000 DUP2 MSTORE PUSH1 0x20 PUSH1 0x4 DUP3 ADD MSTORE PUSH1 0x11 PUSH1 0x24 DUP3 ADD MSTORE PUSH32 0x4C656E677468206D757374206265203E30000000000000000000000000000000 PUSH1 0x44 DUP3 ADD MSTORE PUSH1 0x64 ADD PUSH2 0xC9F JUMP JUMPDEST PUSH1 0x7 SLOAD DUP4 GT ISZERO PUSH2 0x3429 JUMPI PUSH1 0x40 MLOAD PUSH32 0x8C379A000000000000000000000000000000000000000000000000000000000 DUP2 MSTORE PUSH1 0x20 PUSH1 0x4 DUP3 ADD MSTORE PUSH1 0x10 PUSH1 0x24 DUP3 ADD MSTORE PUSH32 0x546F6F206D616E79207469636B65747300000000000000000000000000000000 PUSH1 0x44 DUP3 ADD MSTORE PUSH1 0x64 ADD PUSH2 0xC9F JUMP JUMPDEST PUSH1 0x3 PUSH1 0x0 DUP7 DUP2 MSTORE PUSH1 0xD PUSH1 0x20 MSTORE PUSH1 0x40 SWAP1 KECCAK256 SLOAD PUSH1 0xFF AND PUSH1 0x3 DUP2 GT ISZERO PUSH2 0x3475 JUMPI PUSH32 0x4E487B7100000000000000000000000000000000000000000000000000000000 PUSH1 0x0 MSTORE PUSH1 0x21 PUSH1 0x4 MSTORE PUSH1 0x24 PUSH1 0x0 REVERT JUMPDEST EQ PUSH2 0x34DC JUMPI PUSH1 0x40 MLOAD PUSH32 0x8C379A000000000000000000000000000000000000000000000000000000000 DUP2 MSTORE PUSH1 0x20 PUSH1 0x4 DUP3 ADD MSTORE PUSH1 0x15 PUSH1 0x24 DUP3 ADD MSTORE PUSH32 0x4C6F7474657279206E6F7420636C61696D61626C650000000000000000000000 PUSH1 0x44 DUP3 ADD MSTORE PUSH1 0x64 ADD PUSH2 0xC9F JUMP JUMPDEST PUSH1 0x0 DUP1 JUMPDEST DUP5 DUP2 LT ISZERO PUSH2 0x39AE JUMPI PUSH1 0x6 DUP5 DUP5 DUP4 DUP2 DUP2 LT PUSH2 0x3523 JUMPI PUSH32 0x4E487B7100000000000000000000000000000000000000000000000000000000 PUSH1 0x0 MSTORE PUSH1 0x32 PUSH1 0x4 MSTORE PUSH1 0x24 PUSH1 0x0 REVERT JUMPDEST SWAP1 POP PUSH1 0x20 MUL ADD PUSH1 0x20 DUP2 ADD SWAP1 PUSH2 0x3538 SWAP2 SWAP1 PUSH2 0x48CC JUMP JUMPDEST PUSH4 0xFFFFFFFF AND LT PUSH2 0x35A5 JUMPI PUSH1 0x40 MLOAD PUSH32 0x8C379A000000000000000000000000000000000000000000000000000000000 DUP2 MSTORE PUSH1 0x20 PUSH1 0x4 DUP3 ADD MSTORE PUSH1 0x14 PUSH1 0x24 DUP3 ADD MSTORE PUSH32 0x427261636B6574206F7574206F662072616E6765000000000000000000000000 PUSH1 0x44 DUP3 ADD MSTORE PUSH1 0x64 ADD PUSH2 0xC9F JUMP JUMPDEST PUSH1 0x0 DUP7 DUP7 DUP4 DUP2 DUP2 LT PUSH2 0x35E0 JUMPI PUSH32 0x4E487B7100000000000000000000000000000000000000000000000000000000 PUSH1 0x0 MSTORE PUSH1 0x32 PUSH1 0x4 MSTORE PUSH1 0x24 PUSH1 0x0 REVERT JUMPDEST SWAP1 POP PUSH1 0x20 MUL ADD CALLDATALOAD SWAP1 POP DUP1 PUSH1 0xD PUSH1 0x0 DUP11 DUP2 MSTORE PUSH1 0x20 ADD SWAP1 DUP2 MSTORE PUSH1 0x20 ADD PUSH1 0x0 KECCAK256 PUSH1 0x19 ADD SLOAD GT PUSH2 0x3668 JUMPI PUSH1 0x40 MLOAD PUSH32 0x8C379A000000000000000000000000000000000000000000000000000000000 DUP2 MSTORE PUSH1 0x20 PUSH1 0x4 DUP3 ADD MSTORE PUSH1 0x11 PUSH1 0x24 DUP3 ADD MSTORE PUSH32 0x5469636B6574496420746F6F2068696768000000000000000000000000000000 PUSH1 0x44 DUP3 ADD MSTORE PUSH1 0x64 ADD PUSH2 0xC9F JUMP JUMPDEST PUSH1 0x0 DUP9 DUP2 MSTORE PUSH1 0xD PUSH1 0x20 MSTORE PUSH1 0x40 SWAP1 KECCAK256 PUSH1 0x18 ADD SLOAD DUP2 LT ISZERO PUSH2 0x36E3 JUMPI PUSH1 0x40 MLOAD PUSH32 0x8C379A000000000000000000000000000000000000000000000000000000000 DUP2 MSTORE PUSH1 0x20 PUSH1 0x4 DUP3 ADD MSTORE PUSH1 0x10 PUSH1 0x24 DUP3 ADD MSTORE PUSH32 0x5469636B6574496420746F6F206C6F7700000000000000000000000000000000 PUSH1 0x44 DUP3 ADD MSTORE PUSH1 0x64 ADD PUSH2 0xC9F JUMP JUMPDEST PUSH1 0x0 DUP2 DUP2 MSTORE PUSH1 0xE PUSH1 0x20 MSTORE PUSH1 0x40 SWAP1 KECCAK256 SLOAD PUSH5 0x100000000 SWAP1 DIV PUSH20 0xFFFFFFFFFFFFFFFFFFFFFFFFFFFFFFFFFFFFFFFF AND CALLER EQ PUSH2 0x3778 JUMPI PUSH1 0x40 MLOAD PUSH32 0x8C379A000000000000000000000000000000000000000000000000000000000 DUP2 MSTORE PUSH1 0x20 PUSH1 0x4 DUP3 ADD MSTORE PUSH1 0xD PUSH1 0x24 DUP3 ADD MSTORE PUSH32 0x4E6F7420746865206F776E657200000000000000000000000000000000000000 PUSH1 0x44 DUP3 ADD MSTORE PUSH1 0x64 ADD PUSH2 0xC9F JUMP JUMPDEST PUSH1 0x0 DUP2 DUP2 MSTORE PUSH1 0xE PUSH1 0x20 MSTORE PUSH1 0x40 DUP2 KECCAK256 DUP1 SLOAD PUSH32 0xFFFFFFFFFFFFFFFF0000000000000000000000000000000000000000FFFFFFFF AND SWAP1 SSTORE PUSH2 0x3804 DUP10 DUP4 DUP9 DUP9 DUP8 DUP2 DUP2 LT PUSH2 0x37EA JUMPI PUSH32 0x4E487B7100000000000000000000000000000000000000000000000000000000 PUSH1 0x0 MSTORE PUSH1 0x32 PUSH1 0x4 MSTORE PUSH1 0x24 PUSH1 0x0 REVERT JUMPDEST SWAP1 POP PUSH1 0x20 MUL ADD PUSH1 0x20 DUP2 ADD SWAP1 PUSH2 0x37FF SWAP2 SWAP1 PUSH2 0x48CC JUMP JUMPDEST PUSH2 0x3F66 JUMP JUMPDEST SWAP1 POP DUP1 PUSH2 0x386D JUMPI PUSH1 0x40 MLOAD PUSH32 0x8C379A000000000000000000000000000000000000000000000000000000000 DUP2 MSTORE PUSH1 0x20 PUSH1 0x4 DUP3 ADD MSTORE PUSH1 0x19 PUSH1 0x24 DUP3 ADD MSTORE PUSH32 0x4E6F207072697A6520666F72207468697320627261636B657400000000000000 PUSH1 0x44 DUP3 ADD MSTORE PUSH1 0x64 ADD PUSH2 0xC9F JUMP JUMPDEST DUP6 DUP6 DUP5 DUP2 DUP2 LT PUSH2 0x38A6 JUMPI PUSH32 0x4E487B7100000000000000000000000000000000000000000000000000000000 PUSH1 0x0 MSTORE PUSH1 0x32 PUSH1 0x4 MSTORE PUSH1 0x24 PUSH1 0x0 REVERT JUMPDEST SWAP1 POP PUSH1 0x20 MUL ADD PUSH1 0x20 DUP2 ADD SWAP1 PUSH2 0x38BB SWAP2 SWAP1 PUSH2 0x48CC JUMP JUMPDEST PUSH4 0xFFFFFFFF AND PUSH1 0x5 EQ PUSH2 0x398D JUMPI PUSH2 0x3926 DUP10 DUP4 DUP9 DUP9 DUP8 DUP2 DUP2 LT PUSH2 0x3906 JUMPI PUSH32 0x4E487B7100000000000000000000000000000000000000000000000000000000 PUSH1 0x0 MSTORE PUSH1 0x32 PUSH1 0x4 MSTORE PUSH1 0x24 PUSH1 0x0 REVERT JUMPDEST SWAP1 POP PUSH1 0x20 MUL ADD PUSH1 0x20 DUP2 ADD SWAP1 PUSH2 0x391B SWAP2 SWAP1 PUSH2 0x48CC JUMP JUMPDEST PUSH2 0x37FF SWAP1 PUSH1 0x1 PUSH2 0x4BBD JUMP JUMPDEST ISZERO PUSH2 0x398D JUMPI PUSH1 0x40 MLOAD PUSH32 0x8C379A000000000000000000000000000000000000000000000000000000000 DUP2 MSTORE PUSH1 0x20 PUSH1 0x4 DUP3 ADD MSTORE PUSH1 0x16 PUSH1 0x24 DUP3 ADD MSTORE PUSH32 0x427261636B6574206D7573742062652068696768657200000000000000000000 PUSH1 0x44 DUP3 ADD MSTORE PUSH1 0x64 ADD PUSH2 0xC9F JUMP JUMPDEST PUSH2 0x3997 DUP2 DUP6 PUSH2 0x4BA5 JUMP JUMPDEST SWAP4 POP POP POP DUP1 DUP1 PUSH2 0x39A6 SWAP1 PUSH2 0x4DD0 JUMP JUMPDEST SWAP2 POP POP PUSH2 0x34E0 JUMP JUMPDEST POP PUSH1 0xB SLOAD PUSH2 0x39D3 SWAP1 PUSH20 0xFFFFFFFFFFFFFFFFFFFFFFFFFFFFFFFFFFFFFFFF AND CALLER DUP4 PUSH2 0x4098 JUMP JUMPDEST PUSH1 0x40 DUP1 MLOAD DUP3 DUP2 MSTORE PUSH1 0x20 DUP2 ADD DUP7 SWAP1 MSTORE DUP8 SWAP2 CALLER SWAP2 PUSH32 0xF5FCA62DA8FB5D95525B49E5EAA7B20BC6BD9E2F6B64B493442D1C0BD6EF486 SWAP2 ADD PUSH1 0x40 MLOAD DUP1 SWAP2 SUB SWAP1 LOG3 POP POP PUSH1 0x1 PUSH1 0x0 SSTORE POP POP POP POP JUMP JUMPDEST PUSH1 0x1 SLOAD PUSH20 0xFFFFFFFFFFFFFFFFFFFFFFFFFFFFFFFFFFFFFFFF AND CALLER EQ PUSH2 0x3A9E JUMPI PUSH1 0x40 MLOAD PUSH32 0x8C379A000000000000000000000000000000000000000000000000000000000 DUP2 MSTORE PUSH1 0x20 PUSH1 0x4 DUP3 ADD DUP2 SWAP1 MSTORE PUSH1 0x24 DUP3 ADD MSTORE PUSH32 0x4F776E61626C653A2063616C6C6572206973206E6F7420746865206F776E6572 PUSH1 0x44 DUP3 ADD MSTORE PUSH1 0x64 ADD PUSH2 0xC9F JUMP JUMPDEST PUSH20 0xFFFFFFFFFFFFFFFFFFFFFFFFFFFFFFFFFFFFFFFF DUP4 AND PUSH2 0x3B1B JUMPI PUSH1 0x40 MLOAD PUSH32 0x8C379A000000000000000000000000000000000000000000000000000000000 DUP2 MSTORE PUSH1 0x20 PUSH1 0x4 DUP3 ADD MSTORE PUSH1 0x16 PUSH1 0x24 DUP3 ADD MSTORE PUSH32 0x43616E6E6F74206265207A65726F206164647265737300000000000000000000 PUSH1 0x44 DUP3 ADD MSTORE PUSH1 0x64 ADD PUSH2 0xC9F JUMP JUMPDEST PUSH20 0xFFFFFFFFFFFFFFFFFFFFFFFFFFFFFFFFFFFFFFFF DUP3 AND PUSH2 0x3B98 JUMPI PUSH1 0x40 MLOAD PUSH32 0x8C379A000000000000000000000000000000000000000000000000000000000 DUP2 MSTORE PUSH1 0x20 PUSH1 0x4 DUP3 ADD MSTORE PUSH1 0x16 PUSH1 0x24 DUP3 ADD MSTORE PUSH32 0x43616E6E6F74206265207A65726F206164647265737300000000000000000000 PUSH1 0x44 DUP3 ADD MSTORE PUSH1 0x64 ADD PUSH2 0xC9F JUMP JUMPDEST PUSH20 0xFFFFFFFFFFFFFFFFFFFFFFFFFFFFFFFFFFFFFFFF DUP2 AND PUSH2 0x3C15 JUMPI PUSH1 0x40 MLOAD PUSH32 0x8C379A000000000000000000000000000000000000000000000000000000000 DUP2 MSTORE PUSH1 0x20 PUSH1 0x4 DUP3 ADD MSTORE PUSH1 0x16 PUSH1 0x24 DUP3 ADD MSTORE PUSH32 0x43616E6E6F74206265207A65726F206164647265737300000000000000000000 PUSH1 0x44 DUP3 ADD MSTORE PUSH1 0x64 ADD PUSH2 0xC9F JUMP JUMPDEST PUSH1 0x3 DUP1 SLOAD PUSH20 0xFFFFFFFFFFFFFFFFFFFFFFFFFFFFFFFFFFFFFFFF DUP6 DUP2 AND PUSH32 0xFFFFFFFFFFFFFFFFFFFFFFFF0000000000000000000000000000000000000000 SWAP3 DUP4 AND DUP2 OR SWAP1 SWAP4 SSTORE PUSH1 0x4 DUP1 SLOAD DUP7 DUP4 AND SWAP1 DUP5 AND DUP2 OR SWAP1 SWAP2 SSTORE PUSH1 0x2 DUP1 SLOAD SWAP3 DUP7 AND SWAP3 SWAP1 SWAP4 AND DUP3 OR SWAP1 SWAP3 SSTORE PUSH1 0x40 DUP1 MLOAD SWAP4 DUP5 MSTORE PUSH1 0x20 DUP5 ADD SWAP3 SWAP1 SWAP3 MSTORE SWAP1 DUP3 ADD MSTORE PUSH32 0x3E945B7660001D46CFD5E729545F7F0B6C65BDEE54066A91C7ACAD703F1B731E SWAP1 PUSH1 0x60 ADD PUSH1 0x40 MLOAD DUP1 SWAP2 SUB SWAP1 LOG1 POP POP POP JUMP JUMPDEST PUSH1 0x1 SLOAD PUSH20 0xFFFFFFFFFFFFFFFFFFFFFFFFFFFFFFFFFFFFFFFF AND CALLER EQ PUSH2 0x3D3F JUMPI PUSH1 0x40 MLOAD PUSH32 0x8C379A000000000000000000000000000000000000000000000000000000000 DUP2 MSTORE PUSH1 0x20 PUSH1 0x4 DUP3 ADD DUP2 SWAP1 MSTORE PUSH1 0x24 DUP3 ADD MSTORE PUSH32 0x4F776E61626C653A2063616C6C6572206973206E6F7420746865206F776E6572 PUSH1 0x44 DUP3 ADD MSTORE PUSH1 0x64 ADD PUSH2 0xC9F JUMP JUMPDEST DUP1 DUP3 GT ISZERO PUSH2 0x3DA9 JUMPI PUSH1 0x40 MLOAD PUSH32 0x8C379A000000000000000000000000000000000000000000000000000000000 DUP2 MSTORE PUSH1 0x20 PUSH1 0x4 DUP3 ADD MSTORE PUSH1 0x1B PUSH1 0x24 DUP3 ADD MSTORE PUSH32 0x6D696E5072696365206D757374206265203C206D617850726963650000000000 PUSH1 0x44 DUP3 ADD MSTORE PUSH1 0x64 ADD PUSH2 0xC9F JUMP JUMPDEST PUSH1 0x9 SWAP2 SWAP1 SWAP2 SSTORE PUSH1 0x8 SSTORE JUMP JUMPDEST PUSH1 0x1 SLOAD PUSH20 0xFFFFFFFFFFFFFFFFFFFFFFFFFFFFFFFFFFFFFFFF AND CALLER EQ PUSH2 0x3E35 JUMPI PUSH1 0x40 MLOAD PUSH32 0x8C379A000000000000000000000000000000000000000000000000000000000 DUP2 MSTORE PUSH1 0x20 PUSH1 0x4 DUP3 ADD DUP2 SWAP1 MSTORE PUSH1 0x24 DUP3 ADD MSTORE PUSH32 0x4F776E61626C653A2063616C6C6572206973206E6F7420746865206F776E6572 PUSH1 0x44 DUP3 ADD MSTORE PUSH1 0x64 ADD PUSH2 0xC9F JUMP JUMPDEST PUSH20 0xFFFFFFFFFFFFFFFFFFFFFFFFFFFFFFFFFFFFFFFF DUP2 AND PUSH2 0x3ED8 JUMPI PUSH1 0x40 MLOAD PUSH32 0x8C379A000000000000000000000000000000000000000000000000000000000 DUP2 MSTORE PUSH1 0x20 PUSH1 0x4 DUP3 ADD MSTORE PUSH1 0x26 PUSH1 0x24 DUP3 ADD MSTORE PUSH32 0x4F776E61626C653A206E6577206F776E657220697320746865207A65726F2061 PUSH1 0x44 DUP3 ADD MSTORE PUSH32 0x6464726573730000000000000000000000000000000000000000000000000000 PUSH1 0x64 DUP3 ADD MSTORE PUSH1 0x84 ADD PUSH2 0xC9F JUMP JUMPDEST PUSH1 0x1 SLOAD PUSH1 0x40 MLOAD PUSH20 0xFFFFFFFFFFFFFFFFFFFFFFFFFFFFFFFFFFFFFFFF DUP1 DUP5 AND SWAP3 AND SWAP1 PUSH32 0x8BE0079C531659141344CD1FD0A4F28419497F9722A3DAAFE3B4186F6B6457E0 SWAP1 PUSH1 0x0 SWAP1 LOG3 PUSH1 0x1 DUP1 SLOAD PUSH32 0xFFFFFFFFFFFFFFFFFFFFFFFF0000000000000000000000000000000000000000 AND PUSH20 0xFFFFFFFFFFFFFFFFFFFFFFFFFFFFFFFFFFFFFFFF SWAP3 SWAP1 SWAP3 AND SWAP2 SWAP1 SWAP2 OR SWAP1 SSTORE JUMP JUMPDEST PUSH1 0x0 DUP4 DUP2 MSTORE PUSH1 0xD PUSH1 0x20 SWAP1 DUP2 MSTORE PUSH1 0x40 DUP1 DUP4 KECCAK256 PUSH1 0x1B ADD SLOAD DUP6 DUP5 MSTORE PUSH1 0xE SWAP1 SWAP3 MSTORE DUP3 KECCAK256 SLOAD PUSH4 0xFFFFFFFF SWAP2 DUP3 AND SWAP2 AND DUP3 PUSH2 0x3F9C DUP6 PUSH1 0x1 PUSH2 0x4BBD JUMP JUMPDEST PUSH2 0x3FA7 SWAP1 PUSH1 0xA PUSH2 0x4C40 JUMP JUMPDEST PUSH2 0x3FB1 SWAP1 DUP4 PUSH2 0x4E2D JUMP JUMPDEST PUSH4 0xFFFFFFFF DUP1 DUP8 AND PUSH1 0x0 SWAP1 DUP2 MSTORE PUSH1 0xF PUSH1 0x20 MSTORE PUSH1 0x40 SWAP1 KECCAK256 SLOAD PUSH2 0x3FD3 SWAP3 SWAP2 AND PUSH2 0x4BBD JUMP JUMPDEST SWAP1 POP PUSH1 0x0 PUSH2 0x3FE2 DUP7 PUSH1 0x1 PUSH2 0x4BBD JUMP JUMPDEST PUSH2 0x3FED SWAP1 PUSH1 0xA PUSH2 0x4C40 JUMP JUMPDEST PUSH2 0x3FF7 SWAP1 DUP6 PUSH2 0x4E2D JUMP JUMPDEST PUSH4 0xFFFFFFFF DUP1 DUP9 AND PUSH1 0x0 SWAP1 DUP2 MSTORE PUSH1 0xF PUSH1 0x20 MSTORE PUSH1 0x40 SWAP1 KECCAK256 SLOAD PUSH2 0x4019 SWAP3 SWAP2 AND PUSH2 0x4BBD JUMP JUMPDEST SWAP1 POP DUP1 PUSH4 0xFFFFFFFF AND DUP3 PUSH4 0xFFFFFFFF AND EQ ISZERO PUSH2 0x408B JUMPI PUSH1 0x0 DUP9 DUP2 MSTORE PUSH1 0xD PUSH1 0x20 MSTORE PUSH1 0x40 SWAP1 KECCAK256 PUSH1 0xC ADD PUSH4 0xFFFFFFFF DUP8 AND PUSH1 0x6 DUP2 LT PUSH2 0x407E JUMPI PUSH32 0x4E487B7100000000000000000000000000000000000000000000000000000000 PUSH1 0x0 MSTORE PUSH1 0x32 PUSH1 0x4 MSTORE PUSH1 0x24 PUSH1 0x0 REVERT JUMPDEST ADD SLOAD SWAP5 POP POP POP POP POP PUSH2 0xC1B JUMP JUMPDEST PUSH1 0x0 SWAP5 POP POP POP POP POP PUSH2 0xC1B JUMP JUMPDEST PUSH1 0x40 MLOAD PUSH20 0xFFFFFFFFFFFFFFFFFFFFFFFFFFFFFFFFFFFFFFFF DUP4 AND PUSH1 0x24 DUP3 ADD MSTORE PUSH1 0x44 DUP2 ADD DUP3 SWAP1 MSTORE PUSH2 0x416C SWAP1 DUP5 SWAP1 PUSH32 0xA9059CBB00000000000000000000000000000000000000000000000000000000 SWAP1 PUSH1 0x64 ADD JUMPDEST PUSH1 0x40 DUP1 MLOAD PUSH32 0xFFFFFFFFFFFFFFFFFFFFFFFFFFFFFFFFFFFFFFFFFFFFFFFFFFFFFFFFFFFFFFE0 DUP2 DUP5 SUB ADD DUP2 MSTORE SWAP2 SWAP1 MSTORE PUSH1 0x20 DUP2 ADD DUP1 MLOAD PUSH28 0xFFFFFFFFFFFFFFFFFFFFFFFFFFFFFFFFFFFFFFFFFFFFFFFFFFFFFFFF AND PUSH32 0xFFFFFFFF00000000000000000000000000000000000000000000000000000000 SWAP1 SWAP4 AND SWAP3 SWAP1 SWAP3 OR SWAP1 SWAP2 MSTORE PUSH2 0x420C JUMP JUMPDEST POP POP POP JUMP JUMPDEST PUSH1 0x40 MLOAD PUSH20 0xFFFFFFFFFFFFFFFFFFFFFFFFFFFFFFFFFFFFFFFF DUP1 DUP6 AND PUSH1 0x24 DUP4 ADD MSTORE DUP4 AND PUSH1 0x44 DUP3 ADD MSTORE PUSH1 0x64 DUP2 ADD DUP3 SWAP1 MSTORE PUSH2 0x41CF SWAP1 DUP6 SWAP1 PUSH32 0x23B872DD00000000000000000000000000000000000000000000000000000000 SWAP1 PUSH1 0x84 ADD PUSH2 0x40EA JUMP JUMPDEST POP POP POP POP JUMP JUMPDEST PUSH1 0x0 DUP4 DUP3 PUSH2 0x41E4 DUP3 PUSH1 0x1 PUSH2 0x4BA5 JUMP JUMPDEST PUSH2 0x41EE SWAP2 SWAP1 PUSH2 0x4D68 JUMP JUMPDEST PUSH2 0x41F8 DUP5 DUP7 PUSH2 0x4D2B JUMP JUMPDEST PUSH2 0x4202 SWAP2 SWAP1 PUSH2 0x4D2B JUMP JUMPDEST PUSH2 0xC18 SWAP2 SWAP1 PUSH2 0x4BE5 JUMP JUMPDEST PUSH1 0x0 PUSH2 0x426E DUP3 PUSH1 0x40 MLOAD DUP1 PUSH1 0x40 ADD PUSH1 0x40 MSTORE DUP1 PUSH1 0x20 DUP2 MSTORE PUSH1 0x20 ADD PUSH32 0x5361666545524332303A206C6F772D6C6576656C2063616C6C206661696C6564 DUP2 MSTORE POP DUP6 PUSH20 0xFFFFFFFFFFFFFFFFFFFFFFFFFFFFFFFFFFFFFFFF AND PUSH2 0x4318 SWAP1 SWAP3 SWAP2 SWAP1 PUSH4 0xFFFFFFFF AND JUMP JUMPDEST DUP1 MLOAD SWAP1 SWAP2 POP ISZERO PUSH2 0x416C JUMPI DUP1 DUP1 PUSH1 0x20 ADD SWAP1 MLOAD DUP2 ADD SWAP1 PUSH2 0x428C SWAP2 SWAP1 PUSH2 0x46BF JUMP JUMPDEST PUSH2 0x416C JUMPI PUSH1 0x40 MLOAD PUSH32 0x8C379A000000000000000000000000000000000000000000000000000000000 DUP2 MSTORE PUSH1 0x20 PUSH1 0x4 DUP3 ADD MSTORE PUSH1 0x2A PUSH1 0x24 DUP3 ADD MSTORE PUSH32 0x5361666545524332303A204552433230206F7065726174696F6E20646964206E PUSH1 0x44 DUP3 ADD MSTORE PUSH32 0x6F74207375636365656400000000000000000000000000000000000000000000 PUSH1 0x64 DUP3 ADD MSTORE PUSH1 0x84 ADD PUSH2 0xC9F JUMP JUMPDEST PUSH1 0x60 PUSH2 0xC18 DUP5 DUP5 PUSH1 0x0 DUP6 DUP6 DUP5 EXTCODESIZE PUSH2 0x438B JUMPI PUSH1 0x40 MLOAD PUSH32 0x8C379A000000000000000000000000000000000000000000000000000000000 DUP2 MSTORE PUSH1 0x20 PUSH1 0x4 DUP3 ADD MSTORE PUSH1 0x1D PUSH1 0x24 DUP3 ADD MSTORE PUSH32 0x416464726573733A2063616C6C20746F206E6F6E2D636F6E7472616374000000 PUSH1 0x44 DUP3 ADD MSTORE PUSH1 0x64 ADD PUSH2 0xC9F JUMP JUMPDEST PUSH1 0x0 DUP1 DUP7 PUSH20 0xFFFFFFFFFFFFFFFFFFFFFFFFFFFFFFFFFFFFFFFF AND DUP6 DUP8 PUSH1 0x40 MLOAD PUSH2 0x43B4 SWAP2 SWAP1 PUSH2 0x49D3 JUMP JUMPDEST PUSH1 0x0 PUSH1 0x40 MLOAD DUP1 DUP4 SUB DUP2 DUP6 DUP8 GAS CALL SWAP3 POP POP POP RETURNDATASIZE DUP1 PUSH1 0x0 DUP2 EQ PUSH2 0x43F1 JUMPI PUSH1 0x40 MLOAD SWAP2 POP PUSH1 0x1F NOT PUSH1 0x3F RETURNDATASIZE ADD AND DUP3 ADD PUSH1 0x40 MSTORE RETURNDATASIZE DUP3 MSTORE RETURNDATASIZE PUSH1 0x0 PUSH1 0x20 DUP5 ADD RETURNDATACOPY PUSH2 0x43F6 JUMP JUMPDEST PUSH1 0x60 SWAP2 POP JUMPDEST POP SWAP2 POP SWAP2 POP PUSH2 0x4406 DUP3 DUP3 DUP7 PUSH2 0x4411 JUMP JUMPDEST SWAP8 SWAP7 POP POP POP POP POP POP POP JUMP JUMPDEST PUSH1 0x60 DUP4 ISZERO PUSH2 0x4420 JUMPI POP DUP2 PUSH2 0xC1B JUMP JUMPDEST DUP3 MLOAD ISZERO PUSH2 0x4430 JUMPI DUP3 MLOAD DUP1 DUP5 PUSH1 0x20 ADD REVERT JUMPDEST DUP2 PUSH1 0x40 MLOAD PUSH32 0x8C379A000000000000000000000000000000000000000000000000000000000 DUP2 MSTORE PUSH1 0x4 ADD PUSH2 0xC9F SWAP2 SWAP1 PUSH2 0x4A91 JUMP JUMPDEST PUSH1 0x40 DUP1 MLOAD PUSH2 0x1A0 DUP2 ADD SWAP1 SWAP2 MSTORE DUP1 PUSH1 0x0 DUP2 MSTORE PUSH1 0x20 ADD PUSH1 0x0 DUP2 MSTORE PUSH1 0x20 ADD PUSH1 0x0 DUP2 MSTORE PUSH1 0x20 ADD PUSH1 0x0 DUP2 MSTORE PUSH1 0x20 ADD PUSH1 0x0 DUP2 MSTORE PUSH1 0x20 ADD PUSH2 0x449C PUSH2 0x4523 JUMP JUMPDEST DUP2 MSTORE PUSH1 0x20 ADD PUSH1 0x0 DUP2 MSTORE PUSH1 0x20 ADD PUSH2 0x44B0 PUSH2 0x4523 JUMP JUMPDEST DUP2 MSTORE PUSH1 0x20 ADD PUSH2 0x44BD PUSH2 0x4523 JUMP JUMPDEST DUP2 MSTORE PUSH1 0x20 ADD PUSH1 0x0 DUP2 MSTORE PUSH1 0x20 ADD PUSH1 0x0 DUP2 MSTORE PUSH1 0x20 ADD PUSH1 0x0 DUP2 MSTORE PUSH1 0x20 ADD PUSH1 0x0 PUSH4 0xFFFFFFFF AND DUP2 MSTORE POP SWAP1 JUMP JUMPDEST DUP3 PUSH1 0x6 DUP2 ADD SWAP3 DUP3 ISZERO PUSH2 0x4513 JUMPI SWAP2 PUSH1 0x20 MUL DUP3 ADD JUMPDEST DUP3 DUP2 GT ISZERO PUSH2 0x4513 JUMPI DUP3 MLOAD DUP3 SSTORE SWAP2 PUSH1 0x20 ADD SWAP2 SWAP1 PUSH1 0x1 ADD SWAP1 PUSH2 0x44F8 JUMP JUMPDEST POP PUSH2 0x451F SWAP3 SWAP2 POP PUSH2 0x4541 JUMP JUMPDEST POP SWAP1 JUMP JUMPDEST PUSH1 0x40 MLOAD DUP1 PUSH1 0xC0 ADD PUSH1 0x40 MSTORE DUP1 PUSH1 0x6 SWAP1 PUSH1 0x20 DUP3 MUL DUP1 CALLDATASIZE DUP4 CALLDATACOPY POP SWAP2 SWAP3 SWAP2 POP POP JUMP JUMPDEST JUMPDEST DUP1 DUP3 GT ISZERO PUSH2 0x451F JUMPI PUSH1 0x0 DUP2 SSTORE PUSH1 0x1 ADD PUSH2 0x4542 JUMP JUMPDEST DUP1 CALLDATALOAD PUSH20 0xFFFFFFFFFFFFFFFFFFFFFFFFFFFFFFFFFFFFFFFF DUP2 AND DUP2 EQ PUSH2 0x457A JUMPI PUSH1 0x0 DUP1 REVERT JUMPDEST SWAP2 SWAP1 POP JUMP JUMPDEST PUSH1 0x0 DUP1 DUP4 PUSH1 0x1F DUP5 ADD SLT PUSH2 0x4590 JUMPI DUP2 DUP3 REVERT JUMPDEST POP DUP2 CALLDATALOAD PUSH8 0xFFFFFFFFFFFFFFFF DUP2 GT ISZERO PUSH2 0x45A7 JUMPI DUP2 DUP3 REVERT JUMPDEST PUSH1 0x20 DUP4 ADD SWAP2 POP DUP4 PUSH1 0x20 DUP3 PUSH1 0x5 SHL DUP6 ADD ADD GT ISZERO PUSH2 0x1BB6 JUMPI PUSH1 0x0 DUP1 REVERT JUMPDEST PUSH1 0x0 PUSH1 0x20 DUP3 DUP5 SUB SLT ISZERO PUSH2 0x45D3 JUMPI DUP1 DUP2 REVERT JUMPDEST PUSH2 0xC1B DUP3 PUSH2 0x4556 JUMP JUMPDEST PUSH1 0x0 DUP1 PUSH1 0x0 PUSH1 0x60 DUP5 DUP7 SUB SLT ISZERO PUSH2 0x45F0 JUMPI DUP2 DUP3 REVERT JUMPDEST PUSH2 0x45F9 DUP5 PUSH2 0x4556 JUMP JUMPDEST SWAP3 POP PUSH2 0x4607 PUSH1 0x20 DUP6 ADD PUSH2 0x4556 JUMP JUMPDEST SWAP2 POP PUSH2 0x4615 PUSH1 0x40 DUP6 ADD PUSH2 0x4556 JUMP JUMPDEST SWAP1 POP SWAP3 POP SWAP3 POP SWAP3 JUMP JUMPDEST PUSH1 0x0 DUP1 PUSH1 0x40 DUP4 DUP6 SUB SLT ISZERO PUSH2 0x4630 JUMPI DUP2 DUP3 REVERT JUMPDEST PUSH2 0x4639 DUP4 PUSH2 0x4556 JUMP JUMPDEST SWAP5 PUSH1 0x20 SWAP4 SWAP1 SWAP4 ADD CALLDATALOAD SWAP4 POP POP POP JUMP JUMPDEST PUSH1 0x0 DUP1 PUSH1 0x0 DUP1 PUSH1 0x80 DUP6 DUP8 SUB SLT ISZERO PUSH2 0x465C JUMPI DUP1 DUP2 REVERT JUMPDEST PUSH2 0x4665 DUP6 PUSH2 0x4556 JUMP JUMPDEST SWAP7 PUSH1 0x20 DUP7 ADD CALLDATALOAD SWAP7 POP PUSH1 0x40 DUP7 ADD CALLDATALOAD SWAP6 PUSH1 0x60 ADD CALLDATALOAD SWAP5 POP SWAP3 POP POP POP JUMP JUMPDEST PUSH1 0x0 DUP1 PUSH1 0x20 DUP4 DUP6 SUB SLT ISZERO PUSH2 0x4691 JUMPI DUP2 DUP3 REVERT JUMPDEST DUP3 CALLDATALOAD PUSH8 0xFFFFFFFFFFFFFFFF DUP2 GT ISZERO PUSH2 0x46A7 JUMPI DUP3 DUP4 REVERT JUMPDEST PUSH2 0x46B3 DUP6 DUP3 DUP7 ADD PUSH2 0x457F JUMP JUMPDEST SWAP1 SWAP7 SWAP1 SWAP6 POP SWAP4 POP POP POP POP JUMP JUMPDEST PUSH1 0x0 PUSH1 0x20 DUP3 DUP5 SUB SLT ISZERO PUSH2 0x46D0 JUMPI DUP1 DUP2 REVERT JUMPDEST DUP2 MLOAD PUSH2 0xC1B DUP2 PUSH2 0x4EAE JUMP JUMPDEST PUSH1 0x0 PUSH1 0x20 DUP3 DUP5 SUB SLT ISZERO PUSH2 0x46EC JUMPI DUP1 DUP2 REVERT JUMPDEST POP CALLDATALOAD SWAP2 SWAP1 POP JUMP JUMPDEST PUSH1 0x0 PUSH1 0x20 DUP3 DUP5 SUB SLT ISZERO PUSH2 0x4704 JUMPI DUP1 DUP2 REVERT JUMPDEST POP MLOAD SWAP2 SWAP1 POP JUMP JUMPDEST PUSH1 0x0 DUP1 PUSH1 0x0 DUP1 PUSH1 0x0 PUSH1 0x60 DUP7 DUP9 SUB SLT ISZERO PUSH2 0x4722 JUMPI DUP1 DUP2 REVERT JUMPDEST DUP6 CALLDATALOAD SWAP5 POP PUSH1 0x20 DUP7 ADD CALLDATALOAD PUSH8 0xFFFFFFFFFFFFFFFF DUP1 DUP3 GT ISZERO PUSH2 0x4740 JUMPI DUP3 DUP4 REVERT JUMPDEST PUSH2 0x474C DUP10 DUP4 DUP11 ADD PUSH2 0x457F JUMP JUMPDEST SWAP1 SWAP7 POP SWAP5 POP PUSH1 0x40 DUP9 ADD CALLDATALOAD SWAP2 POP DUP1 DUP3 GT ISZERO PUSH2 0x4764 JUMPI DUP3 DUP4 REVERT JUMPDEST POP PUSH2 0x4771 DUP9 DUP3 DUP10 ADD PUSH2 0x457F JUMP JUMPDEST SWAP7 SWAP10 SWAP6 SWAP9 POP SWAP4 SWAP7 POP SWAP3 SWAP5 SWAP4 SWAP3 POP POP POP JUMP JUMPDEST PUSH1 0x0 DUP1 PUSH1 0x0 PUSH1 0x40 DUP5 DUP7 SUB SLT ISZERO PUSH2 0x4796 JUMPI DUP3 DUP4 REVERT JUMPDEST DUP4 CALLDATALOAD SWAP3 POP PUSH1 0x20 DUP5 ADD CALLDATALOAD PUSH8 0xFFFFFFFFFFFFFFFF DUP2 GT ISZERO PUSH2 0x47B3 JUMPI DUP3 DUP4 REVERT JUMPDEST PUSH2 0x47BF DUP7 DUP3 DUP8 ADD PUSH2 0x457F JUMP JUMPDEST SWAP5 SWAP8 SWAP1 SWAP7 POP SWAP4 SWAP5 POP POP POP POP JUMP JUMPDEST PUSH1 0x0 DUP1 PUSH1 0x40 DUP4 DUP6 SUB SLT ISZERO PUSH2 0x47DE JUMPI DUP2 DUP3 REVERT JUMPDEST DUP3 CALLDATALOAD SWAP2 POP PUSH1 0x20 DUP4 ADD CALLDATALOAD PUSH2 0x47F0 DUP2 PUSH2 0x4EAE JUMP JUMPDEST DUP1 SWAP2 POP POP SWAP3 POP SWAP3 SWAP1 POP JUMP JUMPDEST PUSH1 0x0 DUP1 PUSH1 0x40 DUP4 DUP6 SUB SLT ISZERO PUSH2 0x480D JUMPI DUP2 DUP3 REVERT JUMPDEST POP POP DUP1 CALLDATALOAD SWAP3 PUSH1 0x20 SWAP1 SWAP2 ADD CALLDATALOAD SWAP2 POP JUMP JUMPDEST PUSH1 0x0 DUP1 PUSH1 0x0 PUSH1 0x60 DUP5 DUP7 SUB SLT ISZERO PUSH2 0x4830 JUMPI DUP3 DUP4 REVERT JUMPDEST POP POP DUP2 CALLDATALOAD SWAP4 PUSH1 0x20 DUP4 ADD CALLDATALOAD SWAP4 POP PUSH1 0x40 SWAP1 SWAP3 ADD CALLDATALOAD SWAP2 SWAP1 POP JUMP JUMPDEST PUSH1 0x0 DUP1 PUSH1 0x0 DUP1 PUSH1 0x0 PUSH2 0x140 DUP7 DUP9 SUB SLT ISZERO PUSH2 0x485F JUMPI DUP3 DUP4 REVERT JUMPDEST DUP6 CALLDATALOAD SWAP5 POP PUSH1 0x20 DUP7 ADD CALLDATALOAD SWAP4 POP PUSH1 0x40 DUP7 ADD CALLDATALOAD SWAP3 POP PUSH2 0x120 DUP7 ADD DUP8 DUP2 GT ISZERO PUSH2 0x4882 JUMPI DUP2 DUP3 REVERT JUMPDEST SWAP5 SWAP8 SWAP4 SWAP7 POP SWAP2 SWAP5 PUSH1 0x60 ADD SWAP4 CALLDATALOAD SWAP3 SWAP2 POP POP JUMP JUMPDEST PUSH1 0x0 DUP1 PUSH1 0x0 PUSH1 0x60 DUP5 DUP7 SUB SLT ISZERO PUSH2 0x48A8 JUMPI DUP1 DUP2 REVERT JUMPDEST DUP4 CALLDATALOAD SWAP3 POP PUSH1 0x20 DUP5 ADD CALLDATALOAD SWAP2 POP PUSH1 0x40 DUP5 ADD CALLDATALOAD PUSH2 0x48C1 DUP2 PUSH2 0x4EBF JUMP JUMPDEST DUP1 SWAP2 POP POP SWAP3 POP SWAP3 POP SWAP3 JUMP JUMPDEST PUSH1 0x0 PUSH1 0x20 DUP3 DUP5 SUB SLT ISZERO PUSH2 0x48DD JUMPI DUP1 DUP2 REVERT JUMPDEST DUP2 CALLDATALOAD PUSH2 0xC1B DUP2 PUSH2 0x4EBF JUMP JUMPDEST PUSH1 0x0 PUSH1 0x20 DUP3 DUP5 SUB SLT ISZERO PUSH2 0x48F9 JUMPI DUP1 DUP2 REVERT JUMPDEST DUP2 MLOAD PUSH2 0xC1B DUP2 PUSH2 0x4EBF JUMP JUMPDEST PUSH1 0x0 DUP2 MLOAD DUP1 DUP5 MSTORE PUSH1 0x20 DUP1 DUP6 ADD SWAP5 POP DUP1 DUP5 ADD DUP4 JUMPDEST DUP4 DUP2 LT ISZERO PUSH2 0x4935 JUMPI DUP2 MLOAD ISZERO ISZERO DUP8 MSTORE SWAP6 DUP3 ADD SWAP6 SWAP1 DUP3 ADD SWAP1 PUSH1 0x1 ADD PUSH2 0x4917 JUMP JUMPDEST POP SWAP5 SWAP6 SWAP5 POP POP POP POP POP JUMP JUMPDEST DUP1 PUSH1 0x0 JUMPDEST PUSH1 0x6 DUP2 LT ISZERO PUSH2 0x41CF JUMPI DUP2 MLOAD DUP5 MSTORE PUSH1 0x20 SWAP4 DUP5 ADD SWAP4 SWAP1 SWAP2 ADD SWAP1 PUSH1 0x1 ADD PUSH2 0x4944 JUMP JUMPDEST PUSH1 0x0 DUP2 MLOAD DUP1 DUP5 MSTORE PUSH1 0x20 DUP1 DUP6 ADD SWAP5 POP DUP1 DUP5 ADD DUP4 JUMPDEST DUP4 DUP2 LT ISZERO PUSH2 0x4935 JUMPI DUP2 MLOAD PUSH4 0xFFFFFFFF AND DUP8 MSTORE SWAP6 DUP3 ADD SWAP6 SWAP1 DUP3 ADD SWAP1 PUSH1 0x1 ADD PUSH2 0x4976 JUMP JUMPDEST PUSH1 0x4 DUP2 LT PUSH2 0x49CF JUMPI PUSH32 0x4E487B7100000000000000000000000000000000000000000000000000000000 PUSH1 0x0 MSTORE PUSH1 0x21 PUSH1 0x4 MSTORE PUSH1 0x24 PUSH1 0x0 REVERT JUMPDEST SWAP1 MSTORE JUMP JUMPDEST PUSH1 0x0 DUP3 MLOAD PUSH2 0x49E5 DUP2 DUP5 PUSH1 0x20 DUP8 ADD PUSH2 0x4DA4 JUMP JUMPDEST SWAP2 SWAP1 SWAP2 ADD SWAP3 SWAP2 POP POP JUMP JUMPDEST PUSH1 0x80 DUP1 DUP3 MSTORE DUP6 MLOAD SWAP1 DUP3 ADD DUP2 SWAP1 MSTORE PUSH1 0x0 SWAP1 PUSH1 0x20 SWAP1 PUSH1 0xA0 DUP5 ADD SWAP1 DUP3 DUP10 ADD DUP5 JUMPDEST DUP3 DUP2 LT ISZERO PUSH2 0x4A28 JUMPI DUP2 MLOAD DUP5 MSTORE SWAP3 DUP5 ADD SWAP3 SWAP1 DUP5 ADD SWAP1 PUSH1 0x1 ADD PUSH2 0x4A0C JUMP JUMPDEST POP POP POP DUP4 DUP2 SUB DUP3 DUP6 ADD MSTORE PUSH2 0x4A3C DUP2 DUP9 PUSH2 0x4963 JUMP JUMPDEST SWAP2 POP POP DUP3 DUP2 SUB PUSH1 0x40 DUP5 ADD MSTORE PUSH2 0x4A51 DUP2 DUP7 PUSH2 0x4904 JUMP JUMPDEST SWAP2 POP POP DUP3 PUSH1 0x60 DUP4 ADD MSTORE SWAP6 SWAP5 POP POP POP POP POP JUMP JUMPDEST PUSH1 0x40 DUP2 MSTORE PUSH1 0x0 PUSH2 0x4A76 PUSH1 0x40 DUP4 ADD DUP6 PUSH2 0x4963 JUMP JUMPDEST DUP3 DUP2 SUB PUSH1 0x20 DUP5 ADD MSTORE PUSH2 0x4A88 DUP2 DUP6 PUSH2 0x4904 JUMP JUMPDEST SWAP6 SWAP5 POP POP POP POP POP JUMP JUMPDEST PUSH1 0x20 DUP2 MSTORE PUSH1 0x0 DUP3 MLOAD DUP1 PUSH1 0x20 DUP5 ADD MSTORE PUSH2 0x4AB0 DUP2 PUSH1 0x40 DUP6 ADD PUSH1 0x20 DUP8 ADD PUSH2 0x4DA4 JUMP JUMPDEST PUSH1 0x1F ADD PUSH32 0xFFFFFFFFFFFFFFFFFFFFFFFFFFFFFFFFFFFFFFFFFFFFFFFFFFFFFFFFFFFFFFE0 AND SWAP2 SWAP1 SWAP2 ADD PUSH1 0x40 ADD SWAP3 SWAP2 POP POP JUMP JUMPDEST PUSH1 0x0 PUSH2 0x380 DUP3 ADD SWAP1 POP PUSH2 0x4AF6 DUP3 DUP5 MLOAD PUSH2 0x4998 JUMP JUMPDEST PUSH1 0x20 DUP4 ADD MLOAD PUSH1 0x20 DUP4 ADD MSTORE PUSH1 0x40 DUP4 ADD MLOAD PUSH1 0x40 DUP4 ADD MSTORE PUSH1 0x60 DUP4 ADD MLOAD PUSH1 0x60 DUP4 ADD MSTORE PUSH1 0x80 DUP4 ADD MLOAD PUSH1 0x80 DUP4 ADD MSTORE PUSH1 0xA0 DUP4 ADD MLOAD PUSH2 0x4B30 PUSH1 0xA0 DUP5 ADD DUP3 PUSH2 0x4940 JUMP JUMPDEST POP PUSH1 0xC0 DUP4 ADD MLOAD PUSH2 0x160 DUP2 DUP2 DUP6 ADD MSTORE PUSH1 0xE0 DUP6 ADD MLOAD SWAP2 POP PUSH2 0x180 PUSH2 0x4B54 DUP2 DUP7 ADD DUP5 PUSH2 0x4940 JUMP JUMPDEST PUSH2 0x100 DUP7 ADD MLOAD SWAP3 POP PUSH2 0x4B6A PUSH2 0x240 DUP7 ADD DUP5 PUSH2 0x4940 JUMP JUMPDEST PUSH2 0x120 DUP7 ADD MLOAD PUSH2 0x300 DUP7 ADD MSTORE PUSH2 0x140 DUP7 ADD MLOAD PUSH2 0x320 DUP7 ADD MSTORE SWAP1 DUP6 ADD MLOAD PUSH2 0x340 DUP6 ADD MSTORE DUP5 ADD MLOAD PUSH4 0xFFFFFFFF DUP2 AND PUSH2 0x360 DUP6 ADD MSTORE SWAP1 POP POP SWAP3 SWAP2 POP POP JUMP JUMPDEST PUSH1 0x0 DUP3 NOT DUP3 GT ISZERO PUSH2 0x4BB8 JUMPI PUSH2 0x4BB8 PUSH2 0x4E50 JUMP JUMPDEST POP ADD SWAP1 JUMP JUMPDEST PUSH1 0x0 PUSH4 0xFFFFFFFF DUP1 DUP4 AND DUP2 DUP6 AND DUP1 DUP4 SUB DUP3 GT ISZERO PUSH2 0x4BDC JUMPI PUSH2 0x4BDC PUSH2 0x4E50 JUMP JUMPDEST ADD SWAP5 SWAP4 POP POP POP POP JUMP JUMPDEST PUSH1 0x0 DUP3 PUSH2 0x4BF4 JUMPI PUSH2 0x4BF4 PUSH2 0x4E7F JUMP JUMPDEST POP DIV SWAP1 JUMP JUMPDEST PUSH1 0x1 DUP2 PUSH4 0xFFFFFFFF DUP3 JUMPDEST DUP1 DUP7 GT ISZERO PUSH2 0x4C37 JUMPI DUP3 DUP3 DIV DUP4 GT ISZERO PUSH2 0x4C1D JUMPI PUSH2 0x4C1D PUSH2 0x4E50 JUMP JUMPDEST DUP1 DUP7 AND ISZERO PUSH2 0x4C2A JUMPI SWAP3 DUP3 MUL SWAP3 JUMPDEST SWAP5 DUP6 SHR SWAP5 SWAP2 DUP1 MUL SWAP2 PUSH2 0x4C03 JUMP JUMPDEST POP POP SWAP3 POP SWAP3 SWAP1 POP JUMP JUMPDEST PUSH1 0x0 PUSH4 0xFFFFFFFF PUSH2 0x4C55 DUP2 DUP6 AND DUP3 DUP6 AND PUSH2 0x4C5D JUMP JUMPDEST SWAP5 SWAP4 POP POP POP POP JUMP JUMPDEST PUSH1 0x0 DUP3 PUSH2 0x4C6C JUMPI POP PUSH1 0x1 PUSH2 0x4D25 JUMP JUMPDEST DUP2 PUSH2 0x4C79 JUMPI POP PUSH1 0x0 PUSH2 0x4D25 JUMP JUMPDEST DUP2 PUSH1 0x1 DUP2 EQ PUSH2 0x4C8F JUMPI PUSH1 0x2 DUP2 EQ PUSH2 0x4C99 JUMPI PUSH2 0x4CCA JUMP JUMPDEST PUSH1 0x1 SWAP2 POP POP PUSH2 0x4D25 JUMP JUMPDEST PUSH1 0xFF DUP5 GT ISZERO PUSH2 0x4CAA JUMPI PUSH2 0x4CAA PUSH2 0x4E50 JUMP JUMPDEST PUSH1 0x1 DUP5 SHL SWAP2 POP PUSH4 0xFFFFFFFF DUP3 GT ISZERO PUSH2 0x4CC4 JUMPI PUSH2 0x4CC4 PUSH2 0x4E50 JUMP JUMPDEST POP PUSH2 0x4D25 JUMP JUMPDEST POP PUSH1 0x20 DUP4 LT PUSH2 0x133 DUP4 LT AND PUSH1 0x4E DUP5 LT PUSH1 0xB DUP5 LT AND OR ISZERO PUSH2 0x4D01 JUMPI POP DUP2 DUP2 EXP PUSH4 0xFFFFFFFF DUP2 GT ISZERO PUSH2 0x4CFC JUMPI PUSH2 0x4CFC PUSH2 0x4E50 JUMP JUMPDEST PUSH2 0x4D25 JUMP JUMPDEST PUSH2 0x4D0B DUP4 DUP4 PUSH2 0x4BF9 JUMP JUMPDEST DUP1 PUSH4 0xFFFFFFFF DIV DUP3 GT ISZERO PUSH2 0x4D21 JUMPI PUSH2 0x4D21 PUSH2 0x4E50 JUMP JUMPDEST MUL SWAP1 POP JUMPDEST SWAP3 SWAP2 POP POP JUMP JUMPDEST PUSH1 0x0 DUP2 PUSH32 0xFFFFFFFFFFFFFFFFFFFFFFFFFFFFFFFFFFFFFFFFFFFFFFFFFFFFFFFFFFFFFFFF DIV DUP4 GT DUP3 ISZERO ISZERO AND ISZERO PUSH2 0x4D63 JUMPI PUSH2 0x4D63 PUSH2 0x4E50 JUMP JUMPDEST POP MUL SWAP1 JUMP JUMPDEST PUSH1 0x0 DUP3 DUP3 LT ISZERO PUSH2 0x4D7A JUMPI PUSH2 0x4D7A PUSH2 0x4E50 JUMP JUMPDEST POP SUB SWAP1 JUMP JUMPDEST PUSH1 0x0 PUSH4 0xFFFFFFFF DUP4 DUP2 AND SWAP1 DUP4 AND DUP2 DUP2 LT ISZERO PUSH2 0x4D9C JUMPI PUSH2 0x4D9C PUSH2 0x4E50 JUMP JUMPDEST SUB SWAP4 SWAP3 POP POP POP JUMP JUMPDEST PUSH1 0x0 JUMPDEST DUP4 DUP2 LT ISZERO PUSH2 0x4DBF JUMPI DUP2 DUP2 ADD MLOAD DUP4 DUP3 ADD MSTORE PUSH1 0x20 ADD PUSH2 0x4DA7 JUMP JUMPDEST DUP4 DUP2 GT ISZERO PUSH2 0x41CF JUMPI POP POP PUSH1 0x0 SWAP2 ADD MSTORE JUMP JUMPDEST PUSH1 0x0 PUSH32 0xFFFFFFFFFFFFFFFFFFFFFFFFFFFFFFFFFFFFFFFFFFFFFFFFFFFFFFFFFFFFFFFF DUP3 EQ ISZERO PUSH2 0x4E02 JUMPI PUSH2 0x4E02 PUSH2 0x4E50 JUMP JUMPDEST POP PUSH1 0x1 ADD SWAP1 JUMP JUMPDEST PUSH1 0x0 PUSH4 0xFFFFFFFF DUP1 DUP4 AND DUP2 DUP2 EQ ISZERO PUSH2 0x4E23 JUMPI PUSH2 0x4E23 PUSH2 0x4E50 JUMP JUMPDEST PUSH1 0x1 ADD SWAP4 SWAP3 POP POP POP JUMP JUMPDEST PUSH1 0x0 PUSH4 0xFFFFFFFF DUP1 DUP5 AND DUP1 PUSH2 0x4E44 JUMPI PUSH2 0x4E44 PUSH2 0x4E7F JUMP JUMPDEST SWAP3 AND SWAP2 SWAP1 SWAP2 MOD SWAP3 SWAP2 POP POP JUMP JUMPDEST PUSH32 0x4E487B7100000000000000000000000000000000000000000000000000000000 PUSH1 0x0 MSTORE PUSH1 0x11 PUSH1 0x4 MSTORE PUSH1 0x24 PUSH1 0x0 REVERT JUMPDEST PUSH32 0x4E487B7100000000000000000000000000000000000000000000000000000000 PUSH1 0x0 MSTORE PUSH1 0x12 PUSH1 0x4 MSTORE PUSH1 0x24 PUSH1 0x0 REVERT JUMPDEST DUP1 ISZERO ISZERO DUP2 EQ PUSH2 0x4EBC JUMPI PUSH1 0x0 DUP1 REVERT JUMPDEST POP JUMP JUMPDEST PUSH4 0xFFFFFFFF DUP2 AND DUP2 EQ PUSH2 0x4EBC JUMPI PUSH1 0x0 DUP1 REVERT INVALID LOG2 PUSH5 0x6970667358 0x22 SLT KECCAK256 0xF6 CALLDATASIZE 0xD2 DUP4 ADDRESS 0x2D 0xC5 0x4E 0xA9 0xBB 0xBB 0xE 0xCA 0x4A 0xF9 0xC0 DUP15 0xB0 ISZERO 0xB4 0xAF SWAP7 0xAE 0xCB 0xDD 0x2E EXP DUP16 PUSH25 0xC7E9F364736F6C634300080400330000000000000000000000 "
		},
		"gasEstimates": {
			"creation": {
				"codeDepositCost": "4046200",
				"executionCost": "infinite",
				"totalCost": "infinite"
			},
			"external": {
				"MAX_LENGTH_LOTTERY()": "284",
				"MAX_TREASURY_FEE()": "283",
				"MIN_DISCOUNT_DIVISOR()": "284",
				"MIN_LENGTH_LOTTERY()": "264",
				"buyTickets(uint256,uint32[])": "infinite",
				"cakeToken()": "1081",
				"calculateTotalPriceForBulkTickets(uint256,uint256,uint256)": "infinite",
				"changeRandomGenerator(address)": "infinite",
				"claimTickets(uint256,uint256[],uint32[])": "infinite",
				"closeLottery(uint256)": "infinite",
				"currentLotteryId()": "1085",
				"currentTicketId()": "1107",
				"drawFinalNumberAndMakeLotteryClaimable(uint256,bool)": "infinite",
				"injectFunds(uint256,uint256)": "infinite",
				"injectorAddress()": "1103",
				"maxNumberTicketsPerBuyOrClaim()": "1063",
				"maxPriceTicketInCake()": "1041",
				"minPriceTicketInCake()": "1041",
				"operatorAddress()": "1104",
				"owner()": "1097",
				"pendingInjectionNextLottery()": "1108",
				"randomGenerator()": "1079",
				"recoverWrongTokens(address,uint256)": "infinite",
				"renounceOwnership()": "24190",
				"setMaxNumberTicketsPerBuy(uint256)": "21137",
				"setMinAndMaxTicketPriceInCake(uint256,uint256)": "41180",
				"setOperatorAndTreasuryAndInjectorAddresses(address,address,address)": "infinite",
				"startLottery(uint256,uint256,uint256,uint256[6],uint256)": "infinite",
				"transferOwnership(address)": "24435",
				"treasuryAddress()": "1080",
				"viewCurrentLotteryId()": "1103",
				"viewLottery(uint256)": "infinite",
				"viewNumbersAndStatusesForTicketIds(uint256[])": "infinite",
				"viewRewardsForTicketId(uint256,uint256,uint32)": "infinite",
				"viewUserInfoForLotteryId(address,uint256,uint256,uint256)": "infinite"
			},
			"internal": {
				"_calculateRewardsForTicketId(uint256,uint256,uint32)": "infinite",
				"_calculateTotalPriceForBulkTickets(uint256,uint256,uint256)": "infinite",
				"_isContract(address)": "infinite"
			}
		},
		"methodIdentifiers": {
			"MAX_LENGTH_LOTTERY()": "db19da0d",
			"MAX_TREASURY_FEE()": "f2b3c809",
			"MIN_DISCOUNT_DIVISOR()": "7cb583bd",
			"MIN_LENGTH_LOTTERY()": "07fb5a9c",
			"buyTickets(uint256,uint32[])": "88303dbd",
			"cakeToken()": "8904bf2f",
			"calculateTotalPriceForBulkTickets(uint256,uint256,uint256)": "c4937ab9",
			"changeRandomGenerator(address)": "98359fa1",
			"claimTickets(uint256,uint256[],uint32[])": "c914914f",
			"closeLottery(uint256)": "9d8ca531",
			"currentLotteryId()": "6be4097c",
			"currentTicketId()": "686465b8",
			"drawFinalNumberAndMakeLotteryClaimable(uint256,bool)": "c38de539",
			"injectFunds(uint256,uint256)": "471aeab4",
			"injectorAddress()": "9c384653",
			"maxNumberTicketsPerBuyOrClaim()": "1fe86c6b",
			"maxPriceTicketInCake()": "1f73664b",
			"minPriceTicketInCake()": "31feb565",
			"operatorAddress()": "127effb2",
			"owner()": "8da5cb5b",
			"pendingInjectionNextLottery()": "12a9769d",
			"randomGenerator()": "dcbad90d",
			"recoverWrongTokens(address,uint256)": "3f138d4b",
			"renounceOwnership()": "715018a6",
			"setMaxNumberTicketsPerBuy(uint256)": "6b873788",
			"setMinAndMaxTicketPriceInCake(uint256,uint256)": "da7429f8",
			"setOperatorAndTreasuryAndInjectorAddresses(address,address,address)": "da4ca039",
			"startLottery(uint256,uint256,uint256,uint256[6],uint256)": "b1829b82",
			"transferOwnership(address)": "f2fde38b",
			"treasuryAddress()": "c5f956af",
			"viewCurrentLotteryId()": "80a06160",
			"viewLottery(uint256)": "2423807a",
			"viewNumbersAndStatusesForTicketIds(uint256[])": "8fc3539a",
			"viewRewardsForTicketId(uint256,uint256,uint32)": "2e530cae",
			"viewUserInfoForLotteryId(address,uint256,uint256,uint256)": "05531eeb"
		}
	},
	"abi": [
		{
			"inputs": [
				{
					"internalType": "address",
					"name": "_cakeTokenAddress",
					"type": "address"
				},
				{
					"internalType": "address",
					"name": "_randomGeneratorAddress",
					"type": "address"
				}
			],
			"stateMutability": "nonpayable",
			"type": "constructor"
		},
		{
			"anonymous": false,
			"inputs": [
				{
					"indexed": false,
					"internalType": "address",
					"name": "token",
					"type": "address"
				},
				{
					"indexed": false,
					"internalType": "uint256",
					"name": "amount",
					"type": "uint256"
				}
			],
			"name": "AdminTokenRecovery",
			"type": "event"
		},
		{
			"anonymous": false,
			"inputs": [
				{
					"indexed": true,
					"internalType": "uint256",
					"name": "lotteryId",
					"type": "uint256"
				},
				{
					"indexed": false,
					"internalType": "uint256",
					"name": "firstTicketIdNextLottery",
					"type": "uint256"
				}
			],
			"name": "LotteryClose",
			"type": "event"
		},
		{
			"anonymous": false,
			"inputs": [
				{
					"indexed": true,
					"internalType": "uint256",
					"name": "lotteryId",
					"type": "uint256"
				},
				{
					"indexed": false,
					"internalType": "uint256",
					"name": "injectedAmount",
					"type": "uint256"
				}
			],
			"name": "LotteryInjection",
			"type": "event"
		},
		{
			"anonymous": false,
			"inputs": [
				{
					"indexed": true,
					"internalType": "uint256",
					"name": "lotteryId",
					"type": "uint256"
				},
				{
					"indexed": false,
					"internalType": "uint256",
					"name": "finalNumber",
					"type": "uint256"
				},
				{
					"indexed": false,
					"internalType": "uint256",
					"name": "countWinningTickets",
					"type": "uint256"
				}
			],
			"name": "LotteryNumberDrawn",
			"type": "event"
		},
		{
			"anonymous": false,
			"inputs": [
				{
					"indexed": true,
					"internalType": "uint256",
					"name": "lotteryId",
					"type": "uint256"
				},
				{
					"indexed": false,
					"internalType": "uint256",
					"name": "startTime",
					"type": "uint256"
				},
				{
					"indexed": false,
					"internalType": "uint256",
					"name": "endTime",
					"type": "uint256"
				},
				{
					"indexed": false,
					"internalType": "uint256",
					"name": "priceTicketInCake",
					"type": "uint256"
				},
				{
					"indexed": false,
					"internalType": "uint256",
					"name": "firstTicketId",
					"type": "uint256"
				},
				{
					"indexed": false,
					"internalType": "uint256",
					"name": "injectedAmount",
					"type": "uint256"
				}
			],
			"name": "LotteryOpen",
			"type": "event"
		},
		{
			"anonymous": false,
			"inputs": [
				{
					"indexed": false,
					"internalType": "address",
					"name": "operator",
					"type": "address"
				},
				{
					"indexed": false,
					"internalType": "address",
					"name": "treasury",
					"type": "address"
				},
				{
					"indexed": false,
					"internalType": "address",
					"name": "injector",
					"type": "address"
				}
			],
			"name": "NewOperatorAndTreasuryAndInjectorAddresses",
			"type": "event"
		},
		{
			"anonymous": false,
			"inputs": [
				{
					"indexed": true,
					"internalType": "address",
					"name": "randomGenerator",
					"type": "address"
				}
			],
			"name": "NewRandomGenerator",
			"type": "event"
		},
		{
			"anonymous": false,
			"inputs": [
				{
					"indexed": true,
					"internalType": "address",
					"name": "previousOwner",
					"type": "address"
				},
				{
					"indexed": true,
					"internalType": "address",
					"name": "newOwner",
					"type": "address"
				}
			],
			"name": "OwnershipTransferred",
			"type": "event"
		},
		{
			"anonymous": false,
			"inputs": [
				{
					"indexed": true,
					"internalType": "address",
					"name": "claimer",
					"type": "address"
				},
				{
					"indexed": false,
					"internalType": "uint256",
					"name": "amount",
					"type": "uint256"
				},
				{
					"indexed": true,
					"internalType": "uint256",
					"name": "lotteryId",
					"type": "uint256"
				},
				{
					"indexed": false,
					"internalType": "uint256",
					"name": "numberTickets",
					"type": "uint256"
				}
			],
			"name": "TicketsClaim",
			"type": "event"
		},
		{
			"anonymous": false,
			"inputs": [
				{
					"indexed": true,
					"internalType": "address",
					"name": "buyer",
					"type": "address"
				},
				{
					"indexed": true,
					"internalType": "uint256",
					"name": "lotteryId",
					"type": "uint256"
				},
				{
					"indexed": false,
					"internalType": "uint256",
					"name": "numberTickets",
					"type": "uint256"
				}
			],
			"name": "TicketsPurchase",
			"type": "event"
		},
		{
			"inputs": [],
			"name": "MAX_LENGTH_LOTTERY",
			"outputs": [
				{
					"internalType": "uint256",
					"name": "",
					"type": "uint256"
				}
			],
			"stateMutability": "view",
			"type": "function"
		},
		{
			"inputs": [],
			"name": "MAX_TREASURY_FEE",
			"outputs": [
				{
					"internalType": "uint256",
					"name": "",
					"type": "uint256"
				}
			],
			"stateMutability": "view",
			"type": "function"
		},
		{
			"inputs": [],
			"name": "MIN_DISCOUNT_DIVISOR",
			"outputs": [
				{
					"internalType": "uint256",
					"name": "",
					"type": "uint256"
				}
			],
			"stateMutability": "view",
			"type": "function"
		},
		{
			"inputs": [],
			"name": "MIN_LENGTH_LOTTERY",
			"outputs": [
				{
					"internalType": "uint256",
					"name": "",
					"type": "uint256"
				}
			],
			"stateMutability": "view",
			"type": "function"
		},
		{
			"inputs": [
				{
					"internalType": "uint256",
					"name": "_lotteryId",
					"type": "uint256"
				},
				{
					"internalType": "uint32[]",
					"name": "_ticketNumbers",
					"type": "uint32[]"
				}
			],
			"name": "buyTickets",
			"outputs": [],
			"stateMutability": "nonpayable",
			"type": "function"
		},
		{
			"inputs": [],
			"name": "cakeToken",
			"outputs": [
				{
					"internalType": "contract IERC20",
					"name": "",
					"type": "address"
				}
			],
			"stateMutability": "view",
			"type": "function"
		},
		{
			"inputs": [
				{
					"internalType": "uint256",
					"name": "_discountDivisor",
					"type": "uint256"
				},
				{
					"internalType": "uint256",
					"name": "_priceTicket",
					"type": "uint256"
				},
				{
					"internalType": "uint256",
					"name": "_numberTickets",
					"type": "uint256"
				}
			],
			"name": "calculateTotalPriceForBulkTickets",
			"outputs": [
				{
					"internalType": "uint256",
					"name": "",
					"type": "uint256"
				}
			],
			"stateMutability": "pure",
			"type": "function"
		},
		{
			"inputs": [
				{
					"internalType": "address",
					"name": "_randomGeneratorAddress",
					"type": "address"
				}
			],
			"name": "changeRandomGenerator",
			"outputs": [],
			"stateMutability": "nonpayable",
			"type": "function"
		},
		{
			"inputs": [
				{
					"internalType": "uint256",
					"name": "_lotteryId",
					"type": "uint256"
				},
				{
					"internalType": "uint256[]",
					"name": "_ticketIds",
					"type": "uint256[]"
				},
				{
					"internalType": "uint32[]",
					"name": "_brackets",
					"type": "uint32[]"
				}
			],
			"name": "claimTickets",
			"outputs": [],
			"stateMutability": "nonpayable",
			"type": "function"
		},
		{
			"inputs": [
				{
					"internalType": "uint256",
					"name": "_lotteryId",
					"type": "uint256"
				}
			],
			"name": "closeLottery",
			"outputs": [],
			"stateMutability": "nonpayable",
			"type": "function"
		},
		{
			"inputs": [],
			"name": "currentLotteryId",
			"outputs": [
				{
					"internalType": "uint256",
					"name": "",
					"type": "uint256"
				}
			],
			"stateMutability": "view",
			"type": "function"
		},
		{
			"inputs": [],
			"name": "currentTicketId",
			"outputs": [
				{
					"internalType": "uint256",
					"name": "",
					"type": "uint256"
				}
			],
			"stateMutability": "view",
			"type": "function"
		},
		{
			"inputs": [
				{
					"internalType": "uint256",
					"name": "_lotteryId",
					"type": "uint256"
				},
				{
					"internalType": "bool",
					"name": "_autoInjection",
					"type": "bool"
				}
			],
			"name": "drawFinalNumberAndMakeLotteryClaimable",
			"outputs": [],
			"stateMutability": "nonpayable",
			"type": "function"
		},
		{
			"inputs": [
				{
					"internalType": "uint256",
					"name": "_lotteryId",
					"type": "uint256"
				},
				{
					"internalType": "uint256",
					"name": "_amount",
					"type": "uint256"
				}
			],
			"name": "injectFunds",
			"outputs": [],
			"stateMutability": "nonpayable",
			"type": "function"
		},
		{
			"inputs": [],
			"name": "injectorAddress",
			"outputs": [
				{
					"internalType": "address",
					"name": "",
					"type": "address"
				}
			],
			"stateMutability": "view",
			"type": "function"
		},
		{
			"inputs": [],
			"name": "maxNumberTicketsPerBuyOrClaim",
			"outputs": [
				{
					"internalType": "uint256",
					"name": "",
					"type": "uint256"
				}
			],
			"stateMutability": "view",
			"type": "function"
		},
		{
			"inputs": [],
			"name": "maxPriceTicketInCake",
			"outputs": [
				{
					"internalType": "uint256",
					"name": "",
					"type": "uint256"
				}
			],
			"stateMutability": "view",
			"type": "function"
		},
		{
			"inputs": [],
			"name": "minPriceTicketInCake",
			"outputs": [
				{
					"internalType": "uint256",
					"name": "",
					"type": "uint256"
				}
			],
			"stateMutability": "view",
			"type": "function"
		},
		{
			"inputs": [],
			"name": "operatorAddress",
			"outputs": [
				{
					"internalType": "address",
					"name": "",
					"type": "address"
				}
			],
			"stateMutability": "view",
			"type": "function"
		},
		{
			"inputs": [],
			"name": "owner",
			"outputs": [
				{
					"internalType": "address",
					"name": "",
					"type": "address"
				}
			],
			"stateMutability": "view",
			"type": "function"
		},
		{
			"inputs": [],
			"name": "pendingInjectionNextLottery",
			"outputs": [
				{
					"internalType": "uint256",
					"name": "",
					"type": "uint256"
				}
			],
			"stateMutability": "view",
			"type": "function"
		},
		{
			"inputs": [],
			"name": "randomGenerator",
			"outputs": [
				{
					"internalType": "contract IRandomNumberGenerator",
					"name": "",
					"type": "address"
				}
			],
			"stateMutability": "view",
			"type": "function"
		},
		{
			"inputs": [
				{
					"internalType": "address",
					"name": "_tokenAddress",
					"type": "address"
				},
				{
					"internalType": "uint256",
					"name": "_tokenAmount",
					"type": "uint256"
				}
			],
			"name": "recoverWrongTokens",
			"outputs": [],
			"stateMutability": "nonpayable",
			"type": "function"
		},
		{
			"inputs": [],
			"name": "renounceOwnership",
			"outputs": [],
			"stateMutability": "nonpayable",
			"type": "function"
		},
		{
			"inputs": [
				{
					"internalType": "uint256",
					"name": "_maxNumberTicketsPerBuy",
					"type": "uint256"
				}
			],
			"name": "setMaxNumberTicketsPerBuy",
			"outputs": [],
			"stateMutability": "nonpayable",
			"type": "function"
		},
		{
			"inputs": [
				{
					"internalType": "uint256",
					"name": "_minPriceTicketInCake",
					"type": "uint256"
				},
				{
					"internalType": "uint256",
					"name": "_maxPriceTicketInCake",
					"type": "uint256"
				}
			],
			"name": "setMinAndMaxTicketPriceInCake",
			"outputs": [],
			"stateMutability": "nonpayable",
			"type": "function"
		},
		{
			"inputs": [
				{
					"internalType": "address",
					"name": "_operatorAddress",
					"type": "address"
				},
				{
					"internalType": "address",
					"name": "_treasuryAddress",
					"type": "address"
				},
				{
					"internalType": "address",
					"name": "_injectorAddress",
					"type": "address"
				}
			],
			"name": "setOperatorAndTreasuryAndInjectorAddresses",
			"outputs": [],
			"stateMutability": "nonpayable",
			"type": "function"
		},
		{
			"inputs": [
				{
					"internalType": "uint256",
					"name": "_endTime",
					"type": "uint256"
				},
				{
					"internalType": "uint256",
					"name": "_priceTicketInCake",
					"type": "uint256"
				},
				{
					"internalType": "uint256",
					"name": "_discountDivisor",
					"type": "uint256"
				},
				{
					"internalType": "uint256[6]",
					"name": "_rewardsBreakdown",
					"type": "uint256[6]"
				},
				{
					"internalType": "uint256",
					"name": "_treasuryFee",
					"type": "uint256"
				}
			],
			"name": "startLottery",
			"outputs": [],
			"stateMutability": "nonpayable",
			"type": "function"
		},
		{
			"inputs": [
				{
					"internalType": "address",
					"name": "newOwner",
					"type": "address"
				}
			],
			"name": "transferOwnership",
			"outputs": [],
			"stateMutability": "nonpayable",
			"type": "function"
		},
		{
			"inputs": [],
			"name": "treasuryAddress",
			"outputs": [
				{
					"internalType": "address",
					"name": "",
					"type": "address"
				}
			],
			"stateMutability": "view",
			"type": "function"
		},
		{
			"inputs": [],
			"name": "viewCurrentLotteryId",
			"outputs": [
				{
					"internalType": "uint256",
					"name": "",
					"type": "uint256"
				}
			],
			"stateMutability": "view",
			"type": "function"
		},
		{
			"inputs": [
				{
					"internalType": "uint256",
					"name": "_lotteryId",
					"type": "uint256"
				}
			],
			"name": "viewLottery",
			"outputs": [
				{
					"components": [
						{
							"internalType": "enum PancakeSwapLottery.Status",
							"name": "status",
							"type": "uint8"
						},
						{
							"internalType": "uint256",
							"name": "startTime",
							"type": "uint256"
						},
						{
							"internalType": "uint256",
							"name": "endTime",
							"type": "uint256"
						},
						{
							"internalType": "uint256",
							"name": "priceTicketInCake",
							"type": "uint256"
						},
						{
							"internalType": "uint256",
							"name": "discountDivisor",
							"type": "uint256"
						},
						{
							"internalType": "uint256[6]",
							"name": "rewardsBreakdown",
							"type": "uint256[6]"
						},
						{
							"internalType": "uint256",
							"name": "treasuryFee",
							"type": "uint256"
						},
						{
							"internalType": "uint256[6]",
							"name": "cakePerBracket",
							"type": "uint256[6]"
						},
						{
							"internalType": "uint256[6]",
							"name": "countWinnersPerBracket",
							"type": "uint256[6]"
						},
						{
							"internalType": "uint256",
							"name": "firstTicketId",
							"type": "uint256"
						},
						{
							"internalType": "uint256",
							"name": "firstTicketIdNextLottery",
							"type": "uint256"
						},
						{
							"internalType": "uint256",
							"name": "amountCollectedInCake",
							"type": "uint256"
						},
						{
							"internalType": "uint32",
							"name": "finalNumber",
							"type": "uint32"
						}
					],
					"internalType": "struct PancakeSwapLottery.Lottery",
					"name": "",
					"type": "tuple"
				}
			],
			"stateMutability": "view",
			"type": "function"
		},
		{
			"inputs": [
				{
					"internalType": "uint256[]",
					"name": "_ticketIds",
					"type": "uint256[]"
				}
			],
			"name": "viewNumbersAndStatusesForTicketIds",
			"outputs": [
				{
					"internalType": "uint32[]",
					"name": "",
					"type": "uint32[]"
				},
				{
					"internalType": "bool[]",
					"name": "",
					"type": "bool[]"
				}
			],
			"stateMutability": "view",
			"type": "function"
		},
		{
			"inputs": [
				{
					"internalType": "uint256",
					"name": "_lotteryId",
					"type": "uint256"
				},
				{
					"internalType": "uint256",
					"name": "_ticketId",
					"type": "uint256"
				},
				{
					"internalType": "uint32",
					"name": "_bracket",
					"type": "uint32"
				}
			],
			"name": "viewRewardsForTicketId",
			"outputs": [
				{
					"internalType": "uint256",
					"name": "",
					"type": "uint256"
				}
			],
			"stateMutability": "view",
			"type": "function"
		},
		{
			"inputs": [
				{
					"internalType": "address",
					"name": "_user",
					"type": "address"
				},
				{
					"internalType": "uint256",
					"name": "_lotteryId",
					"type": "uint256"
				},
				{
					"internalType": "uint256",
					"name": "_cursor",
					"type": "uint256"
				},
				{
					"internalType": "uint256",
					"name": "_size",
					"type": "uint256"
				}
			],
			"name": "viewUserInfoForLotteryId",
			"outputs": [
				{
					"internalType": "uint256[]",
					"name": "",
					"type": "uint256[]"
				},
				{
					"internalType": "uint32[]",
					"name": "",
					"type": "uint32[]"
				},
				{
					"internalType": "bool[]",
					"name": "",
					"type": "bool[]"
				},
				{
					"internalType": "uint256",
					"name": "",
					"type": "uint256"
				}
			],
			"stateMutability": "view",
			"type": "function"
		}
	]
}