{
	"data": {
		"bytecode": {
			"linkReferences": {},
			"object": "6080604052348015600f57600080fd5b5060818061001e6000396000f3fe6080604052348015600f57600080fd5b506004361060285760003560e01c8063e911439c14602d575b600080fd5b60336045565b60408051918252519081900360200190f35b6101a08156fea2646970667358221220df2b6b7a9d1854cc160e229fd609b91652a42d414d3f5364c85d4e6d5111560664736f6c63430006060033",
			"opcodes": "PUSH1 0x80 PUSH1 0x40 MSTORE CALLVALUE DUP1 ISZERO PUSH1 0xF JUMPI PUSH1 0x0 DUP1 REVERT JUMPDEST POP PUSH1 0x81 DUP1 PUSH2 0x1E PUSH1 0x0 CODECOPY PUSH1 0x0 RETURN INVALID PUSH1 0x80 PUSH1 0x40 MSTORE CALLVALUE DUP1 ISZERO PUSH1 0xF JUMPI PUSH1 0x0 DUP1 REVERT JUMPDEST POP PUSH1 0x4 CALLDATASIZE LT PUSH1 0x28 JUMPI PUSH1 0x0 CALLDATALOAD PUSH1 0xE0 SHR DUP1 PUSH4 0xE911439C EQ PUSH1 0x2D JUMPI JUMPDEST PUSH1 0x0 DUP1 REVERT JUMPDEST PUSH1 0x33 PUSH1 0x45 JUMP JUMPDEST PUSH1 0x40 DUP1 MLOAD SWAP2 DUP3 MSTORE MLOAD SWAP1 DUP2 SWAP1 SUB PUSH1 0x20 ADD SWAP1 RETURN JUMPDEST PUSH2 0x1A0 DUP2 JUMP INVALID LOG2 PUSH5 0x6970667358 0x22 SLT KECCAK256 0xDF 0x2B PUSH12 0x7A9D1854CC160E229FD609B9 AND MSTORE LOG4 0x2D COINBASE 0x4D EXTCODEHASH MSTORE8 PUSH5 0xC85D4E6D51 GT JUMP MOD PUSH5 0x736F6C6343 STOP MOD MOD STOP CALLER "
		},
		"gasEstimates": {
			"creation": {
				"codeDepositCost": "25800",
				"executionCost": "81",
				"totalCost": "25881"
			},
			"external": {
				"PROOF_LENGTH()": "176"
			},
			"internal": {
				"affineECAdd(uint256[2] memory,uint256[2] memory,uint256)": "infinite",
				"bigModExp(uint256,uint256)": "infinite",
				"ecmulVerify(uint256[2] memory,uint256,uint256[2] memory)": "infinite",
				"fieldHash(bytes memory)": "infinite",
				"hashToCurve(uint256[2] memory,uint256)": "infinite",
				"isOnCurve(uint256[2] memory)": "infinite",
				"linearCombination(uint256,uint256[2] memory,uint256[2] memory,uint256,uint256[2] memory,uint256[2] memory,uint256)": "infinite",
				"newCandidateSecp256k1Point(bytes memory)": "infinite",
				"projectiveECAdd(uint256,uint256,uint256,uint256)": "infinite",
				"projectiveMul(uint256,uint256,uint256,uint256)": "infinite",
				"projectiveSub(uint256,uint256,uint256,uint256)": "infinite",
				"randomValueFromVRFProof(bytes memory)": "infinite",
				"scalarFromCurvePoints(uint256[2] memory,uint256[2] memory,uint256[2] memory,address,uint256[2] memory)": "infinite",
				"squareRoot(uint256)": "infinite",
				"verifyLinearCombinationWithGenerator(uint256,uint256[2] memory,uint256,address)": "infinite",
				"verifyVRFProof(uint256[2] memory,uint256[2] memory,uint256,uint256,uint256,address,uint256[2] memory,uint256[2] memory,uint256)": "infinite",
				"ySquared(uint256)": "infinite"
			}
		},
		"methodIdentifiers": {
			"PROOF_LENGTH()": "e911439c"
		}
	},
	"abi": [
		{
			"inputs": [],
			"name": "PROOF_LENGTH",
			"outputs": [
				{
					"internalType": "uint256",
					"name": "",
					"type": "uint256"
				}
			],
			"stateMutability": "view",
			"type": "function"
		}
	]
}