{
	"data": {
		"bytecode": {
			"linkReferences": {},
			"object": "608060405234801561001057600080fd5b50604051611e3e380380611e3e8339818101604052604081101561003357600080fd5b508051602090910151600080546001600160a01b039384166001600160a01b03199182161790915560018054939092169216919091179055611dc48061007a6000396000f3fe608060405234801561001057600080fd5b50600436106100a85760003560e01c8063a4c0ed3611610071578063a4c0ed36146101ff578063b415f4f5146102ba578063caf70c4a146102c2578063d83402091461030d578063e911439c14610344578063f3fef3a31461034c576100a8565b80626f6ad0146100ad57806321f36509146100e55780635e1c10591461013257806375d35070146101da5780638aa7927b146101f7575b600080fd5b6100d3600480360360208110156100c357600080fd5b50356001600160a01b0316610378565b60408051918252519081900360200190f35b610102600480360360208110156100fb57600080fd5b503561038a565b604080516001600160a01b0390941684526001600160601b03909216602084015282820152519081900360600190f35b6101d86004803603602081101561014857600080fd5b81019060208101813564010000000081111561016357600080fd5b82018360208201111561017557600080fd5b8035906020019184600183028401116401000000008311171561019757600080fd5b91908080601f0160208091040260200160405190810160405280939291908181526020018383808284376000920191909152509295506103bf945050505050565b005b610102600480360360208110156101f057600080fd5b50356104a8565b6100d36104dd565b6101d86004803603606081101561021557600080fd5b6001600160a01b038235169160208101359181019060608101604082013564010000000081111561024557600080fd5b82018360208201111561025757600080fd5b8035906020019184600183028401116401000000008311171561027957600080fd5b91908080601f0160208091040260200160405190810160405280939291908181526020018383808284376000920191909152509295506104e2945050505050565b6100d3610570565b6100d3600480360360408110156102d857600080fd5b604080518082018252918301929181830191839060029083908390808284376000920191909152509194506105759350505050565b6101d8600480360360a081101561032357600080fd5b508035906001600160a01b03602082013516906040810190608001356105cb565b6100d36107ab565b6101d86004803603604081101561036257600080fd5b506001600160a01b0381351690602001356107b1565b60046020526000908152604090205481565b600260205260009081526040902080546001909101546001600160a01b03821691600160a01b90046001600160601b03169083565b60006103c9611c77565b6000806103d5856108d3565b600084815260036020908152604080832054828701516001600160a01b03909116808552600490935292205495995093975091955093509091610426916001600160601b031663ffffffff610b9716565b6001600160a01b038216600090815260046020908152604080832093909355858252600290529081208181556001015583516104659084908490610bfa565b604080518481526020810184905281517fa2e7a402243ebda4a69ceeb3dfb682943b7a9b3ac66d6eefa8db65894009611c929181900390910190a1505050505050565b600360205260009081526040902080546001909101546001600160a01b03821691600160a01b90046001600160601b03169083565b602081565b6000546001600160a01b03163314610537576040805162461bcd60e51b815260206004820152601360248201527226bab9ba103ab9b2902624a725903a37b5b2b760691b604482015290519081900360640190fd5b60008082806020019051604081101561054f57600080fd5b508051602090910151909250905061056982828688610d44565b5050505050565b60e081565b6000816040516020018082600260200280838360005b838110156105a357818101518382015260200161058b565b505050509050019150506040516020818303038152906040528051906020012090505b919050565b6040805180820182526000916105fa919085906002908390839080828437600092019190915250610575915050565b6000818152600360205260409020549091506001600160a01b03168015610668576040805162461bcd60e51b815260206004820152601960248201527f706c656173652072656769737465722061206e6577206b657900000000000000604482015290519081900360640190fd5b6001600160a01b0385166106c3576040805162461bcd60e51b815260206004820152601760248201527f5f6f7261636c65206d757374206e6f7420626520307830000000000000000000604482015290519081900360640190fd5b600082815260036020526040902080546001600160a01b0319166001600160a01b0387161781556001018390556b033b2e3c9fd0803ce800000086111561073b5760405162461bcd60e51b815260040180806020018281038252603c815260200180611d10603c913960400191505060405180910390fd5b60008281526003602090815260409182902080546001600160a01b0316600160a01b6001600160601b038b1602179055815184815290810188905281517fae189157e0628c1e62315e9179156e1ea10e90e9c15060002f7021e907dc2cfe929181900390910190a1505050505050565b6101a081565b336000908152600460205260409020548190811115610817576040805162461bcd60e51b815260206004820181905260248201527f63616e2774207769746864726177206d6f7265207468616e2062616c616e6365604482015290519081900360640190fd5b33600090815260046020526040902054610837908363ffffffff610f7016565b336000908152600460208181526040808420949094558254845163a9059cbb60e01b81526001600160a01b038981169482019490945260248101889052945192169363a9059cbb93604480830194928390030190829087803b15801561089c57600080fd5b505af11580156108b0573d6000803e3d6000fd5b505050506040513d60208110156108c657600080fd5b50516108ce57fe5b505050565b60006108dd611c77565b825160009081906101c0908114610930576040805162461bcd60e51b81526020600482015260126024820152710eee4dedcce40e0e4dedecc40d8cadccee8d60731b604482015290519081900360640190fd5b610938611c97565b5060e08601518187015160208801919061095183610575565b975061095d8883610fcd565b600081815260026020908152604091829020825160608101845281546001600160a01b038116808352600160a01b9091046001600160601b03169382019390935260019091015492810192909252909850909650610a02576040805162461bcd60e51b815260206004820152601860248201527f6e6f20636f72726573706f6e64696e6720726571756573740000000000000000604482015290519081900360640190fd5b6040805160208082018590528183018490528251808303840181526060909201835281519101209088015114610a7f576040805162461bcd60e51b815260206004820152601a60248201527f77726f6e672070726553656564206f7220626c6f636b206e756d000000000000604482015290519081900360640190fd5b804080610b4b5760015460408051631d2827a760e31b81526004810185905290516001600160a01b039092169163e9413d3891602480820192602092909190829003018186803b158015610ad257600080fd5b505afa158015610ae6573d6000803e3d6000fd5b505050506040513d6020811015610afc57600080fd5b5051905080610b4b576040805162461bcd60e51b81526020600482015260166024820152750e0d8cac2e6ca40e0e4deecca40c4d8dec6d6d0c2e6d60531b604482015290519081900360640190fd5b6040805160208082018690528183018490528251808303840181526060909201909252805191012060e08b018190526101a08b52610b888b610ff9565b96505050505050509193509193565b600082820183811015610bf1576040805162461bcd60e51b815260206004820152601b60248201527f536166654d6174683a206164646974696f6e206f766572666c6f770000000000604482015290519081900360640190fd5b90505b92915050565b604080516024810185905260448082018590528251808303909101815260649091019091526020810180516001600160e01b03166394985ddd60e01b179052600090620324b0805a1015610c95576040805162461bcd60e51b815260206004820152601b60248201527f6e6f7420656e6f7567682067617320666f7220636f6e73756d65720000000000604482015290519081900360640190fd5b6000846001600160a01b0316836040518082805190602001908083835b60208310610cd15780518252601f199092019160209182019101610cb2565b6001836020036101000a0380198251168184511680821785525050505050509050019150506000604051808303816000865af19150503d8060008114610d33576040519150601f19603f3d011682016040523d82523d6000602084013e610d38565b606091505b50505050505050505050565b60008481526003602052604090205482908590600160a01b90046001600160601b0316821015610db2576040805162461bcd60e51b815260206004820152601460248201527310995b1bddc81859dc995959081c185e5b595b9d60621b604482015290519081900360640190fd5b60008681526005602090815260408083206001600160a01b038716845290915281205490610de288888785611142565b90506000610df08983610fcd565b6000818152600260205260409020549091506001600160a01b031615610e1257fe5b600081815260026020526040902080546001600160a01b0319166001600160a01b0388161790556b033b2e3c9fd0803ce80000008710610e4e57fe5b600081815260026020908152604080832080546001600160601b038c16600160a01b026001600160a01b0391821617825582518085018890524381850152835180820385018152606082018086528151918701919091206001948501558f875260039095529483902090910154928d905260808401869052891660a084015260c083018a905260e083018490525190917f56bd374744a66d531874338def36c906e3a6cf31176eb1e9afd9f1de69725d5191908190036101000190a260008981526005602090815260408083206001600160a01b038a168452909152902054610f3e90600163ffffffff610b9716565b6000998a52600560209081526040808c206001600160a01b039099168c52979052959098209490945550505050505050565b600082821115610fc7576040805162461bcd60e51b815260206004820152601e60248201527f536166654d6174683a207375627472616374696f6e206f766572666c6f770000604482015290519081900360640190fd5b50900390565b604080516020808201949094528082019290925280518083038201815260609092019052805191012090565b60006101a0825114611047576040805162461bcd60e51b81526020600482015260126024820152710eee4dedcce40e0e4dedecc40d8cadccee8d60731b604482015290519081900360640190fd5b61104f611c97565b611057611c97565b61105f611cb5565b6000611069611c97565b611071611c97565b6000888060200190516101a081101561108957600080fd5b5060e08101516101808201519198506040890197506080890196509450610100880193506101408801925090506110dc878787600060200201518860016020020151896002602002015189898989611189565b6003866040516020018083815260200182600260200280838360005b838110156111105781810151838201526020016110f8565b50505050905001925050506040516020818303038152906040528051906020012060001c975050505050505050919050565b60408051602080820196909652808201949094526001600160a01b039290921660608401526080808401919091528151808403909101815260a09092019052805191012090565b611192896113d6565b6111e3576040805162461bcd60e51b815260206004820152601a60248201527f7075626c6963206b6579206973206e6f74206f6e206375727665000000000000604482015290519081900360640190fd5b6111ec886113d6565b611235576040805162461bcd60e51b815260206004820152601560248201527467616d6d61206973206e6f74206f6e20637572766560581b604482015290519081900360640190fd5b61123e836113d6565b61128f576040805162461bcd60e51b815260206004820152601d60248201527f6347616d6d615769746e657373206973206e6f74206f6e206375727665000000604482015290519081900360640190fd5b611298826113d6565b6112e9576040805162461bcd60e51b815260206004820152601c60248201527f73486173685769746e657373206973206e6f74206f6e20637572766500000000604482015290519081900360640190fd5b6112f5878a8887611400565b611346576040805162461bcd60e51b815260206004820152601a60248201527f6164647228632a706b2b732a6729e289a05f755769746e657373000000000000604482015290519081900360640190fd5b61134e611c97565b6113588a8761152e565b9050611362611c97565b611371898b878b8689896115d1565b90506000611382838d8d8a866116dc565b9050808a146113c8576040805162461bcd60e51b815260206004820152600d60248201526c34b73b30b634b210383937b7b360991b604482015290519081900360640190fd5b505050505050505050505050565b60208101516000906401000003d0199080096113f98360005b60200201516117e5565b1492915050565b60006001600160a01b03821661144b576040805162461bcd60e51b815260206004820152600b60248201526a626164207769746e65737360a81b604482015290519081900360640190fd5b60208401516000906001161561146257601c611465565b601b5b9050600070014551231950b75fc4402da1732fc9bebe1985876000602002015109865170014551231950b75fc4402da1732fc9bebe1991820392506000919089098751604080516000808252602082810180855288905260ff8916838501526060830194909452608082018590529151939450909260019260a0808401939192601f1981019281900390910190855afa158015611506573d6000803e3d6000fd5b5050604051601f1901516001600160a01b039081169088161495505050505050949350505050565b611536611c97565b611594600184846040516020018084815260200183600260200280838360005b8381101561156e578181015183820152602001611556565b505050509050018281526020019350505050604051602081830303815290604052611809565b90505b6115a0816113d6565b610bf45780516040805160208181019390935281518082039093018352810190526115ca90611809565b9050611597565b6115d9611c97565b825186516401000003d01991900306611639576040805162461bcd60e51b815260206004820152601e60248201527f706f696e747320696e2073756d206d7573742062652064697374696e63740000604482015290519081900360640190fd5b611644878988611857565b61167f5760405162461bcd60e51b8152600401808060200182810382526021815260200180611d4c6021913960400191505060405180910390fd5b61168a848685611857565b6116c55760405162461bcd60e51b8152600401808060200182810382526022815260200180611d6d6022913960400191505060405180910390fd5b6116d0868484611977565b98975050505050505050565b6000600286868685876040516020018087815260200186600260200280838360005b838110156117165781810151838201526020016116fe565b5050505090500185600260200280838360005b83811015611741578181015183820152602001611729565b5050505090500184600260200280838360005b8381101561176c578181015183820152602001611754565b5050505090500183600260200280838360005b8381101561179757818101518382015260200161177f565b50505050905001826001600160a01b03166001600160a01b031660601b815260140196505050505050506040516020818303038152906040528051906020012060001c905095945050505050565b6000806401000003d01980848509840990506401000003d019600782089392505050565b611811611c97565b61181a82611a3d565b815261182f61182a8260006113ef565b611a78565b6020820181905260029006600114156105c6576020810180516401000003d019039052919050565b60008261186357600080fd5b835160208501516000906001161561187c57601c61187f565b601b5b9050600070014551231950b75fc4402da1732fc9bebe19838709604080516000808252602080830180855282905260ff871683850152606083018890526080830185905292519394509260019260a0808401939192601f1981019281900390910190855afa1580156118f5573d6000803e3d6000fd5b5050506020604051035190506000866040516020018082600260200280838360005b8381101561192f578181015183820152602001611917565b505050509050019150506040516020818303038152906040528051906020012060001c9050806001600160a01b0316826001600160a01b031614955050505050509392505050565b61197f611c97565b8351602080860151855191860151600093849384936119a093909190611a8e565b919450925090506401000003d019858209600114611a05576040805162461bcd60e51b815260206004820152601960248201527f696e765a206d75737420626520696e7665727365206f66207a00000000000000604482015290519081900360640190fd5b60405180604001604052806401000003d01980611a1e57fe5b87860981526020016401000003d0198785099052979650505050505050565b805160208201205b6401000003d01981106105c657604080516020808201939093528151808203840181529082019091528051910120611a45565b6000610bf48263400000f4600160fe1b03611b6e565b60008080600180826401000003d019896401000003d019038808905060006401000003d0198b6401000003d019038a0890506000611ace83838585611c0a565b9098509050611adf88828e88611c2e565b9098509050611af088828c87611c2e565b90985090506000611b038d878b85611c2e565b9098509050611b1488828686611c0a565b9098509050611b2588828e89611c2e565b9098509050818114611b5a576401000003d019818a0998506401000003d01982890997506401000003d0198183099650611b5e565b8196505b5050505050509450945094915050565b600080611b79611cd3565b6020808252818101819052604082015260608101859052608081018490526401000003d01960a0820152611bab611cf1565b60208160c0846005600019fa925082611c00576040805162461bcd60e51b81526020600482015260126024820152716269674d6f64457870206661696c7572652160701b604482015290519081900360640190fd5b5195945050505050565b6000806401000003d0198487096401000003d0198487099097909650945050505050565b600080806401000003d019878509905060006401000003d01987876401000003d019030990506401000003d0198183086401000003d01986890990999098509650505050505050565b604080516060810182526000808252602082018190529181019190915290565b60405180604001604052806002906020820280368337509192915050565b60405180606001604052806003906020820280368337509192915050565b6040518060c001604052806006906020820280368337509192915050565b6040518060200160405280600190602082028036833750919291505056fe796f752063616e277420636861726765206d6f7265207468616e20616c6c20746865204c494e4b20696e2074686520776f726c642c206772656564794669727374206d756c7469706c69636174696f6e20636865636b206661696c65645365636f6e64206d756c7469706c69636174696f6e20636865636b206661696c6564a2646970667358221220059d4d981b39dae1f37bd47f54c9a06d5c8df4b8ccce8705fb9ea19164655e1064736f6c63430006060033",
			"opcodes": "PUSH1 0x80 PUSH1 0x40 MSTORE CALLVALUE DUP1 ISZERO PUSH2 0x10 JUMPI PUSH1 0x0 DUP1 REVERT JUMPDEST POP PUSH1 0x40 MLOAD PUSH2 0x1E3E CODESIZE SUB DUP1 PUSH2 0x1E3E DUP4 CODECOPY DUP2 DUP2 ADD PUSH1 0x40 MSTORE PUSH1 0x40 DUP2 LT ISZERO PUSH2 0x33 JUMPI PUSH1 0x0 DUP1 REVERT JUMPDEST POP DUP1 MLOAD PUSH1 0x20 SWAP1 SWAP2 ADD MLOAD PUSH1 0x0 DUP1 SLOAD PUSH1 0x1 PUSH1 0x1 PUSH1 0xA0 SHL SUB SWAP4 DUP5 AND PUSH1 0x1 PUSH1 0x1 PUSH1 0xA0 SHL SUB NOT SWAP2 DUP3 AND OR SWAP1 SWAP2 SSTORE PUSH1 0x1 DUP1 SLOAD SWAP4 SWAP1 SWAP3 AND SWAP3 AND SWAP2 SWAP1 SWAP2 OR SWAP1 SSTORE PUSH2 0x1DC4 DUP1 PUSH2 0x7A PUSH1 0x0 CODECOPY PUSH1 0x0 RETURN INVALID PUSH1 0x80 PUSH1 0x40 MSTORE CALLVALUE DUP1 ISZERO PUSH2 0x10 JUMPI PUSH1 0x0 DUP1 REVERT JUMPDEST POP PUSH1 0x4 CALLDATASIZE LT PUSH2 0xA8 JUMPI PUSH1 0x0 CALLDATALOAD PUSH1 0xE0 SHR DUP1 PUSH4 0xA4C0ED36 GT PUSH2 0x71 JUMPI DUP1 PUSH4 0xA4C0ED36 EQ PUSH2 0x1FF JUMPI DUP1 PUSH4 0xB415F4F5 EQ PUSH2 0x2BA JUMPI DUP1 PUSH4 0xCAF70C4A EQ PUSH2 0x2C2 JUMPI DUP1 PUSH4 0xD8340209 EQ PUSH2 0x30D JUMPI DUP1 PUSH4 0xE911439C EQ PUSH2 0x344 JUMPI DUP1 PUSH4 0xF3FEF3A3 EQ PUSH2 0x34C JUMPI PUSH2 0xA8 JUMP JUMPDEST DUP1 PUSH3 0x6F6AD0 EQ PUSH2 0xAD JUMPI DUP1 PUSH4 0x21F36509 EQ PUSH2 0xE5 JUMPI DUP1 PUSH4 0x5E1C1059 EQ PUSH2 0x132 JUMPI DUP1 PUSH4 0x75D35070 EQ PUSH2 0x1DA JUMPI DUP1 PUSH4 0x8AA7927B EQ PUSH2 0x1F7 JUMPI JUMPDEST PUSH1 0x0 DUP1 REVERT JUMPDEST PUSH2 0xD3 PUSH1 0x4 DUP1 CALLDATASIZE SUB PUSH1 0x20 DUP2 LT ISZERO PUSH2 0xC3 JUMPI PUSH1 0x0 DUP1 REVERT JUMPDEST POP CALLDATALOAD PUSH1 0x1 PUSH1 0x1 PUSH1 0xA0 SHL SUB AND PUSH2 0x378 JUMP JUMPDEST PUSH1 0x40 DUP1 MLOAD SWAP2 DUP3 MSTORE MLOAD SWAP1 DUP2 SWAP1 SUB PUSH1 0x20 ADD SWAP1 RETURN JUMPDEST PUSH2 0x102 PUSH1 0x4 DUP1 CALLDATASIZE SUB PUSH1 0x20 DUP2 LT ISZERO PUSH2 0xFB JUMPI PUSH1 0x0 DUP1 REVERT JUMPDEST POP CALLDATALOAD PUSH2 0x38A JUMP JUMPDEST PUSH1 0x40 DUP1 MLOAD PUSH1 0x1 PUSH1 0x1 PUSH1 0xA0 SHL SUB SWAP1 SWAP5 AND DUP5 MSTORE PUSH1 0x1 PUSH1 0x1 PUSH1 0x60 SHL SUB SWAP1 SWAP3 AND PUSH1 0x20 DUP5 ADD MSTORE DUP3 DUP3 ADD MSTORE MLOAD SWAP1 DUP2 SWAP1 SUB PUSH1 0x60 ADD SWAP1 RETURN JUMPDEST PUSH2 0x1D8 PUSH1 0x4 DUP1 CALLDATASIZE SUB PUSH1 0x20 DUP2 LT ISZERO PUSH2 0x148 JUMPI PUSH1 0x0 DUP1 REVERT JUMPDEST DUP2 ADD SWAP1 PUSH1 0x20 DUP2 ADD DUP2 CALLDATALOAD PUSH5 0x100000000 DUP2 GT ISZERO PUSH2 0x163 JUMPI PUSH1 0x0 DUP1 REVERT JUMPDEST DUP3 ADD DUP4 PUSH1 0x20 DUP3 ADD GT ISZERO PUSH2 0x175 JUMPI PUSH1 0x0 DUP1 REVERT JUMPDEST DUP1 CALLDATALOAD SWAP1 PUSH1 0x20 ADD SWAP2 DUP5 PUSH1 0x1 DUP4 MUL DUP5 ADD GT PUSH5 0x100000000 DUP4 GT OR ISZERO PUSH2 0x197 JUMPI PUSH1 0x0 DUP1 REVERT JUMPDEST SWAP2 SWAP1 DUP1 DUP1 PUSH1 0x1F ADD PUSH1 0x20 DUP1 SWAP2 DIV MUL PUSH1 0x20 ADD PUSH1 0x40 MLOAD SWAP1 DUP2 ADD PUSH1 0x40 MSTORE DUP1 SWAP4 SWAP3 SWAP2 SWAP1 DUP2 DUP2 MSTORE PUSH1 0x20 ADD DUP4 DUP4 DUP1 DUP3 DUP5 CALLDATACOPY PUSH1 0x0 SWAP3 ADD SWAP2 SWAP1 SWAP2 MSTORE POP SWAP3 SWAP6 POP PUSH2 0x3BF SWAP5 POP POP POP POP POP JUMP JUMPDEST STOP JUMPDEST PUSH2 0x102 PUSH1 0x4 DUP1 CALLDATASIZE SUB PUSH1 0x20 DUP2 LT ISZERO PUSH2 0x1F0 JUMPI PUSH1 0x0 DUP1 REVERT JUMPDEST POP CALLDATALOAD PUSH2 0x4A8 JUMP JUMPDEST PUSH2 0xD3 PUSH2 0x4DD JUMP JUMPDEST PUSH2 0x1D8 PUSH1 0x4 DUP1 CALLDATASIZE SUB PUSH1 0x60 DUP2 LT ISZERO PUSH2 0x215 JUMPI PUSH1 0x0 DUP1 REVERT JUMPDEST PUSH1 0x1 PUSH1 0x1 PUSH1 0xA0 SHL SUB DUP3 CALLDATALOAD AND SWAP2 PUSH1 0x20 DUP2 ADD CALLDATALOAD SWAP2 DUP2 ADD SWAP1 PUSH1 0x60 DUP2 ADD PUSH1 0x40 DUP3 ADD CALLDATALOAD PUSH5 0x100000000 DUP2 GT ISZERO PUSH2 0x245 JUMPI PUSH1 0x0 DUP1 REVERT JUMPDEST DUP3 ADD DUP4 PUSH1 0x20 DUP3 ADD GT ISZERO PUSH2 0x257 JUMPI PUSH1 0x0 DUP1 REVERT JUMPDEST DUP1 CALLDATALOAD SWAP1 PUSH1 0x20 ADD SWAP2 DUP5 PUSH1 0x1 DUP4 MUL DUP5 ADD GT PUSH5 0x100000000 DUP4 GT OR ISZERO PUSH2 0x279 JUMPI PUSH1 0x0 DUP1 REVERT JUMPDEST SWAP2 SWAP1 DUP1 DUP1 PUSH1 0x1F ADD PUSH1 0x20 DUP1 SWAP2 DIV MUL PUSH1 0x20 ADD PUSH1 0x40 MLOAD SWAP1 DUP2 ADD PUSH1 0x40 MSTORE DUP1 SWAP4 SWAP3 SWAP2 SWAP1 DUP2 DUP2 MSTORE PUSH1 0x20 ADD DUP4 DUP4 DUP1 DUP3 DUP5 CALLDATACOPY PUSH1 0x0 SWAP3 ADD SWAP2 SWAP1 SWAP2 MSTORE POP SWAP3 SWAP6 POP PUSH2 0x4E2 SWAP5 POP POP POP POP POP JUMP JUMPDEST PUSH2 0xD3 PUSH2 0x570 JUMP JUMPDEST PUSH2 0xD3 PUSH1 0x4 DUP1 CALLDATASIZE SUB PUSH1 0x40 DUP2 LT ISZERO PUSH2 0x2D8 JUMPI PUSH1 0x0 DUP1 REVERT JUMPDEST PUSH1 0x40 DUP1 MLOAD DUP1 DUP3 ADD DUP3 MSTORE SWAP2 DUP4 ADD SWAP3 SWAP2 DUP2 DUP4 ADD SWAP2 DUP4 SWAP1 PUSH1 0x2 SWAP1 DUP4 SWAP1 DUP4 SWAP1 DUP1 DUP3 DUP5 CALLDATACOPY PUSH1 0x0 SWAP3 ADD SWAP2 SWAP1 SWAP2 MSTORE POP SWAP2 SWAP5 POP PUSH2 0x575 SWAP4 POP POP POP POP JUMP JUMPDEST PUSH2 0x1D8 PUSH1 0x4 DUP1 CALLDATASIZE SUB PUSH1 0xA0 DUP2 LT ISZERO PUSH2 0x323 JUMPI PUSH1 0x0 DUP1 REVERT JUMPDEST POP DUP1 CALLDATALOAD SWAP1 PUSH1 0x1 PUSH1 0x1 PUSH1 0xA0 SHL SUB PUSH1 0x20 DUP3 ADD CALLDATALOAD AND SWAP1 PUSH1 0x40 DUP2 ADD SWAP1 PUSH1 0x80 ADD CALLDATALOAD PUSH2 0x5CB JUMP JUMPDEST PUSH2 0xD3 PUSH2 0x7AB JUMP JUMPDEST PUSH2 0x1D8 PUSH1 0x4 DUP1 CALLDATASIZE SUB PUSH1 0x40 DUP2 LT ISZERO PUSH2 0x362 JUMPI PUSH1 0x0 DUP1 REVERT JUMPDEST POP PUSH1 0x1 PUSH1 0x1 PUSH1 0xA0 SHL SUB DUP2 CALLDATALOAD AND SWAP1 PUSH1 0x20 ADD CALLDATALOAD PUSH2 0x7B1 JUMP JUMPDEST PUSH1 0x4 PUSH1 0x20 MSTORE PUSH1 0x0 SWAP1 DUP2 MSTORE PUSH1 0x40 SWAP1 KECCAK256 SLOAD DUP2 JUMP JUMPDEST PUSH1 0x2 PUSH1 0x20 MSTORE PUSH1 0x0 SWAP1 DUP2 MSTORE PUSH1 0x40 SWAP1 KECCAK256 DUP1 SLOAD PUSH1 0x1 SWAP1 SWAP2 ADD SLOAD PUSH1 0x1 PUSH1 0x1 PUSH1 0xA0 SHL SUB DUP3 AND SWAP2 PUSH1 0x1 PUSH1 0xA0 SHL SWAP1 DIV PUSH1 0x1 PUSH1 0x1 PUSH1 0x60 SHL SUB AND SWAP1 DUP4 JUMP JUMPDEST PUSH1 0x0 PUSH2 0x3C9 PUSH2 0x1C77 JUMP JUMPDEST PUSH1 0x0 DUP1 PUSH2 0x3D5 DUP6 PUSH2 0x8D3 JUMP JUMPDEST PUSH1 0x0 DUP5 DUP2 MSTORE PUSH1 0x3 PUSH1 0x20 SWAP1 DUP2 MSTORE PUSH1 0x40 DUP1 DUP4 KECCAK256 SLOAD DUP3 DUP8 ADD MLOAD PUSH1 0x1 PUSH1 0x1 PUSH1 0xA0 SHL SUB SWAP1 SWAP2 AND DUP1 DUP6 MSTORE PUSH1 0x4 SWAP1 SWAP4 MSTORE SWAP3 KECCAK256 SLOAD SWAP6 SWAP10 POP SWAP4 SWAP8 POP SWAP2 SWAP6 POP SWAP4 POP SWAP1 SWAP2 PUSH2 0x426 SWAP2 PUSH1 0x1 PUSH1 0x1 PUSH1 0x60 SHL SUB AND PUSH4 0xFFFFFFFF PUSH2 0xB97 AND JUMP JUMPDEST PUSH1 0x1 PUSH1 0x1 PUSH1 0xA0 SHL SUB DUP3 AND PUSH1 0x0 SWAP1 DUP2 MSTORE PUSH1 0x4 PUSH1 0x20 SWAP1 DUP2 MSTORE PUSH1 0x40 DUP1 DUP4 KECCAK256 SWAP4 SWAP1 SWAP4 SSTORE DUP6 DUP3 MSTORE PUSH1 0x2 SWAP1 MSTORE SWAP1 DUP2 KECCAK256 DUP2 DUP2 SSTORE PUSH1 0x1 ADD SSTORE DUP4 MLOAD PUSH2 0x465 SWAP1 DUP5 SWAP1 DUP5 SWAP1 PUSH2 0xBFA JUMP JUMPDEST PUSH1 0x40 DUP1 MLOAD DUP5 DUP2 MSTORE PUSH1 0x20 DUP2 ADD DUP5 SWAP1 MSTORE DUP2 MLOAD PUSH32 0xA2E7A402243EBDA4A69CEEB3DFB682943B7A9B3AC66D6EEFA8DB65894009611C SWAP3 SWAP2 DUP2 SWAP1 SUB SWAP1 SWAP2 ADD SWAP1 LOG1 POP POP POP POP POP POP JUMP JUMPDEST PUSH1 0x3 PUSH1 0x20 MSTORE PUSH1 0x0 SWAP1 DUP2 MSTORE PUSH1 0x40 SWAP1 KECCAK256 DUP1 SLOAD PUSH1 0x1 SWAP1 SWAP2 ADD SLOAD PUSH1 0x1 PUSH1 0x1 PUSH1 0xA0 SHL SUB DUP3 AND SWAP2 PUSH1 0x1 PUSH1 0xA0 SHL SWAP1 DIV PUSH1 0x1 PUSH1 0x1 PUSH1 0x60 SHL SUB AND SWAP1 DUP4 JUMP JUMPDEST PUSH1 0x20 DUP2 JUMP JUMPDEST PUSH1 0x0 SLOAD PUSH1 0x1 PUSH1 0x1 PUSH1 0xA0 SHL SUB AND CALLER EQ PUSH2 0x537 JUMPI PUSH1 0x40 DUP1 MLOAD PUSH3 0x461BCD PUSH1 0xE5 SHL DUP2 MSTORE PUSH1 0x20 PUSH1 0x4 DUP3 ADD MSTORE PUSH1 0x13 PUSH1 0x24 DUP3 ADD MSTORE PUSH19 0x26BAB9BA103AB9B2902624A725903A37B5B2B7 PUSH1 0x69 SHL PUSH1 0x44 DUP3 ADD MSTORE SWAP1 MLOAD SWAP1 DUP2 SWAP1 SUB PUSH1 0x64 ADD SWAP1 REVERT JUMPDEST PUSH1 0x0 DUP1 DUP3 DUP1 PUSH1 0x20 ADD SWAP1 MLOAD PUSH1 0x40 DUP2 LT ISZERO PUSH2 0x54F JUMPI PUSH1 0x0 DUP1 REVERT JUMPDEST POP DUP1 MLOAD PUSH1 0x20 SWAP1 SWAP2 ADD MLOAD SWAP1 SWAP3 POP SWAP1 POP PUSH2 0x569 DUP3 DUP3 DUP7 DUP9 PUSH2 0xD44 JUMP JUMPDEST POP POP POP POP POP JUMP JUMPDEST PUSH1 0xE0 DUP2 JUMP JUMPDEST PUSH1 0x0 DUP2 PUSH1 0x40 MLOAD PUSH1 0x20 ADD DUP1 DUP3 PUSH1 0x2 PUSH1 0x20 MUL DUP1 DUP4 DUP4 PUSH1 0x0 JUMPDEST DUP4 DUP2 LT ISZERO PUSH2 0x5A3 JUMPI DUP2 DUP2 ADD MLOAD DUP4 DUP3 ADD MSTORE PUSH1 0x20 ADD PUSH2 0x58B JUMP JUMPDEST POP POP POP POP SWAP1 POP ADD SWAP2 POP POP PUSH1 0x40 MLOAD PUSH1 0x20 DUP2 DUP4 SUB SUB DUP2 MSTORE SWAP1 PUSH1 0x40 MSTORE DUP1 MLOAD SWAP1 PUSH1 0x20 ADD KECCAK256 SWAP1 POP JUMPDEST SWAP2 SWAP1 POP JUMP JUMPDEST PUSH1 0x40 DUP1 MLOAD DUP1 DUP3 ADD DUP3 MSTORE PUSH1 0x0 SWAP2 PUSH2 0x5FA SWAP2 SWAP1 DUP6 SWAP1 PUSH1 0x2 SWAP1 DUP4 SWAP1 DUP4 SWAP1 DUP1 DUP3 DUP5 CALLDATACOPY PUSH1 0x0 SWAP3 ADD SWAP2 SWAP1 SWAP2 MSTORE POP PUSH2 0x575 SWAP2 POP POP JUMP JUMPDEST PUSH1 0x0 DUP2 DUP2 MSTORE PUSH1 0x3 PUSH1 0x20 MSTORE PUSH1 0x40 SWAP1 KECCAK256 SLOAD SWAP1 SWAP2 POP PUSH1 0x1 PUSH1 0x1 PUSH1 0xA0 SHL SUB AND DUP1 ISZERO PUSH2 0x668 JUMPI PUSH1 0x40 DUP1 MLOAD PUSH3 0x461BCD PUSH1 0xE5 SHL DUP2 MSTORE PUSH1 0x20 PUSH1 0x4 DUP3 ADD MSTORE PUSH1 0x19 PUSH1 0x24 DUP3 ADD MSTORE PUSH32 0x706C656173652072656769737465722061206E6577206B657900000000000000 PUSH1 0x44 DUP3 ADD MSTORE SWAP1 MLOAD SWAP1 DUP2 SWAP1 SUB PUSH1 0x64 ADD SWAP1 REVERT JUMPDEST PUSH1 0x1 PUSH1 0x1 PUSH1 0xA0 SHL SUB DUP6 AND PUSH2 0x6C3 JUMPI PUSH1 0x40 DUP1 MLOAD PUSH3 0x461BCD PUSH1 0xE5 SHL DUP2 MSTORE PUSH1 0x20 PUSH1 0x4 DUP3 ADD MSTORE PUSH1 0x17 PUSH1 0x24 DUP3 ADD MSTORE PUSH32 0x5F6F7261636C65206D757374206E6F7420626520307830000000000000000000 PUSH1 0x44 DUP3 ADD MSTORE SWAP1 MLOAD SWAP1 DUP2 SWAP1 SUB PUSH1 0x64 ADD SWAP1 REVERT JUMPDEST PUSH1 0x0 DUP3 DUP2 MSTORE PUSH1 0x3 PUSH1 0x20 MSTORE PUSH1 0x40 SWAP1 KECCAK256 DUP1 SLOAD PUSH1 0x1 PUSH1 0x1 PUSH1 0xA0 SHL SUB NOT AND PUSH1 0x1 PUSH1 0x1 PUSH1 0xA0 SHL SUB DUP8 AND OR DUP2 SSTORE PUSH1 0x1 ADD DUP4 SWAP1 SSTORE PUSH12 0x33B2E3C9FD0803CE8000000 DUP7 GT ISZERO PUSH2 0x73B JUMPI PUSH1 0x40 MLOAD PUSH3 0x461BCD PUSH1 0xE5 SHL DUP2 MSTORE PUSH1 0x4 ADD DUP1 DUP1 PUSH1 0x20 ADD DUP3 DUP2 SUB DUP3 MSTORE PUSH1 0x3C DUP2 MSTORE PUSH1 0x20 ADD DUP1 PUSH2 0x1D10 PUSH1 0x3C SWAP2 CODECOPY PUSH1 0x40 ADD SWAP2 POP POP PUSH1 0x40 MLOAD DUP1 SWAP2 SUB SWAP1 REVERT JUMPDEST PUSH1 0x0 DUP3 DUP2 MSTORE PUSH1 0x3 PUSH1 0x20 SWAP1 DUP2 MSTORE PUSH1 0x40 SWAP2 DUP3 SWAP1 KECCAK256 DUP1 SLOAD PUSH1 0x1 PUSH1 0x1 PUSH1 0xA0 SHL SUB AND PUSH1 0x1 PUSH1 0xA0 SHL PUSH1 0x1 PUSH1 0x1 PUSH1 0x60 SHL SUB DUP12 AND MUL OR SWAP1 SSTORE DUP2 MLOAD DUP5 DUP2 MSTORE SWAP1 DUP2 ADD DUP9 SWAP1 MSTORE DUP2 MLOAD PUSH32 0xAE189157E0628C1E62315E9179156E1EA10E90E9C15060002F7021E907DC2CFE SWAP3 SWAP2 DUP2 SWAP1 SUB SWAP1 SWAP2 ADD SWAP1 LOG1 POP POP POP POP POP POP JUMP JUMPDEST PUSH2 0x1A0 DUP2 JUMP JUMPDEST CALLER PUSH1 0x0 SWAP1 DUP2 MSTORE PUSH1 0x4 PUSH1 0x20 MSTORE PUSH1 0x40 SWAP1 KECCAK256 SLOAD DUP2 SWAP1 DUP2 GT ISZERO PUSH2 0x817 JUMPI PUSH1 0x40 DUP1 MLOAD PUSH3 0x461BCD PUSH1 0xE5 SHL DUP2 MSTORE PUSH1 0x20 PUSH1 0x4 DUP3 ADD DUP2 SWAP1 MSTORE PUSH1 0x24 DUP3 ADD MSTORE PUSH32 0x63616E2774207769746864726177206D6F7265207468616E2062616C616E6365 PUSH1 0x44 DUP3 ADD MSTORE SWAP1 MLOAD SWAP1 DUP2 SWAP1 SUB PUSH1 0x64 ADD SWAP1 REVERT JUMPDEST CALLER PUSH1 0x0 SWAP1 DUP2 MSTORE PUSH1 0x4 PUSH1 0x20 MSTORE PUSH1 0x40 SWAP1 KECCAK256 SLOAD PUSH2 0x837 SWAP1 DUP4 PUSH4 0xFFFFFFFF PUSH2 0xF70 AND JUMP JUMPDEST CALLER PUSH1 0x0 SWAP1 DUP2 MSTORE PUSH1 0x4 PUSH1 0x20 DUP2 DUP2 MSTORE PUSH1 0x40 DUP1 DUP5 KECCAK256 SWAP5 SWAP1 SWAP5 SSTORE DUP3 SLOAD DUP5 MLOAD PUSH4 0xA9059CBB PUSH1 0xE0 SHL DUP2 MSTORE PUSH1 0x1 PUSH1 0x1 PUSH1 0xA0 SHL SUB DUP10 DUP2 AND SWAP5 DUP3 ADD SWAP5 SWAP1 SWAP5 MSTORE PUSH1 0x24 DUP2 ADD DUP9 SWAP1 MSTORE SWAP5 MLOAD SWAP3 AND SWAP4 PUSH4 0xA9059CBB SWAP4 PUSH1 0x44 DUP1 DUP4 ADD SWAP5 SWAP3 DUP4 SWAP1 SUB ADD SWAP1 DUP3 SWAP1 DUP8 DUP1 EXTCODESIZE ISZERO DUP1 ISZERO PUSH2 0x89C JUMPI PUSH1 0x0 DUP1 REVERT JUMPDEST POP GAS CALL ISZERO DUP1 ISZERO PUSH2 0x8B0 JUMPI RETURNDATASIZE PUSH1 0x0 DUP1 RETURNDATACOPY RETURNDATASIZE PUSH1 0x0 REVERT JUMPDEST POP POP POP POP PUSH1 0x40 MLOAD RETURNDATASIZE PUSH1 0x20 DUP2 LT ISZERO PUSH2 0x8C6 JUMPI PUSH1 0x0 DUP1 REVERT JUMPDEST POP MLOAD PUSH2 0x8CE JUMPI INVALID JUMPDEST POP POP POP JUMP JUMPDEST PUSH1 0x0 PUSH2 0x8DD PUSH2 0x1C77 JUMP JUMPDEST DUP3 MLOAD PUSH1 0x0 SWAP1 DUP2 SWAP1 PUSH2 0x1C0 SWAP1 DUP2 EQ PUSH2 0x930 JUMPI PUSH1 0x40 DUP1 MLOAD PUSH3 0x461BCD PUSH1 0xE5 SHL DUP2 MSTORE PUSH1 0x20 PUSH1 0x4 DUP3 ADD MSTORE PUSH1 0x12 PUSH1 0x24 DUP3 ADD MSTORE PUSH18 0xEEE4DEDCCE40E0E4DEDECC40D8CADCCEE8D PUSH1 0x73 SHL PUSH1 0x44 DUP3 ADD MSTORE SWAP1 MLOAD SWAP1 DUP2 SWAP1 SUB PUSH1 0x64 ADD SWAP1 REVERT JUMPDEST PUSH2 0x938 PUSH2 0x1C97 JUMP JUMPDEST POP PUSH1 0xE0 DUP7 ADD MLOAD DUP2 DUP8 ADD MLOAD PUSH1 0x20 DUP9 ADD SWAP2 SWAP1 PUSH2 0x951 DUP4 PUSH2 0x575 JUMP JUMPDEST SWAP8 POP PUSH2 0x95D DUP9 DUP4 PUSH2 0xFCD JUMP JUMPDEST PUSH1 0x0 DUP2 DUP2 MSTORE PUSH1 0x2 PUSH1 0x20 SWAP1 DUP2 MSTORE PUSH1 0x40 SWAP2 DUP3 SWAP1 KECCAK256 DUP3 MLOAD PUSH1 0x60 DUP2 ADD DUP5 MSTORE DUP2 SLOAD PUSH1 0x1 PUSH1 0x1 PUSH1 0xA0 SHL SUB DUP2 AND DUP1 DUP4 MSTORE PUSH1 0x1 PUSH1 0xA0 SHL SWAP1 SWAP2 DIV PUSH1 0x1 PUSH1 0x1 PUSH1 0x60 SHL SUB AND SWAP4 DUP3 ADD SWAP4 SWAP1 SWAP4 MSTORE PUSH1 0x1 SWAP1 SWAP2 ADD SLOAD SWAP3 DUP2 ADD SWAP3 SWAP1 SWAP3 MSTORE SWAP1 SWAP9 POP SWAP1 SWAP7 POP PUSH2 0xA02 JUMPI PUSH1 0x40 DUP1 MLOAD PUSH3 0x461BCD PUSH1 0xE5 SHL DUP2 MSTORE PUSH1 0x20 PUSH1 0x4 DUP3 ADD MSTORE PUSH1 0x18 PUSH1 0x24 DUP3 ADD MSTORE PUSH32 0x6E6F20636F72726573706F6E64696E6720726571756573740000000000000000 PUSH1 0x44 DUP3 ADD MSTORE SWAP1 MLOAD SWAP1 DUP2 SWAP1 SUB PUSH1 0x64 ADD SWAP1 REVERT JUMPDEST PUSH1 0x40 DUP1 MLOAD PUSH1 0x20 DUP1 DUP3 ADD DUP6 SWAP1 MSTORE DUP2 DUP4 ADD DUP5 SWAP1 MSTORE DUP3 MLOAD DUP1 DUP4 SUB DUP5 ADD DUP2 MSTORE PUSH1 0x60 SWAP1 SWAP3 ADD DUP4 MSTORE DUP2 MLOAD SWAP2 ADD KECCAK256 SWAP1 DUP9 ADD MLOAD EQ PUSH2 0xA7F JUMPI PUSH1 0x40 DUP1 MLOAD PUSH3 0x461BCD PUSH1 0xE5 SHL DUP2 MSTORE PUSH1 0x20 PUSH1 0x4 DUP3 ADD MSTORE PUSH1 0x1A PUSH1 0x24 DUP3 ADD MSTORE PUSH32 0x77726F6E672070726553656564206F7220626C6F636B206E756D000000000000 PUSH1 0x44 DUP3 ADD MSTORE SWAP1 MLOAD SWAP1 DUP2 SWAP1 SUB PUSH1 0x64 ADD SWAP1 REVERT JUMPDEST DUP1 BLOCKHASH DUP1 PUSH2 0xB4B JUMPI PUSH1 0x1 SLOAD PUSH1 0x40 DUP1 MLOAD PUSH4 0x1D2827A7 PUSH1 0xE3 SHL DUP2 MSTORE PUSH1 0x4 DUP2 ADD DUP6 SWAP1 MSTORE SWAP1 MLOAD PUSH1 0x1 PUSH1 0x1 PUSH1 0xA0 SHL SUB SWAP1 SWAP3 AND SWAP2 PUSH4 0xE9413D38 SWAP2 PUSH1 0x24 DUP1 DUP3 ADD SWAP3 PUSH1 0x20 SWAP3 SWAP1 SWAP2 SWAP1 DUP3 SWAP1 SUB ADD DUP2 DUP7 DUP1 EXTCODESIZE ISZERO DUP1 ISZERO PUSH2 0xAD2 JUMPI PUSH1 0x0 DUP1 REVERT JUMPDEST POP GAS STATICCALL ISZERO DUP1 ISZERO PUSH2 0xAE6 JUMPI RETURNDATASIZE PUSH1 0x0 DUP1 RETURNDATACOPY RETURNDATASIZE PUSH1 0x0 REVERT JUMPDEST POP POP POP POP PUSH1 0x40 MLOAD RETURNDATASIZE PUSH1 0x20 DUP2 LT ISZERO PUSH2 0xAFC JUMPI PUSH1 0x0 DUP1 REVERT JUMPDEST POP MLOAD SWAP1 POP DUP1 PUSH2 0xB4B JUMPI PUSH1 0x40 DUP1 MLOAD PUSH3 0x461BCD PUSH1 0xE5 SHL DUP2 MSTORE PUSH1 0x20 PUSH1 0x4 DUP3 ADD MSTORE PUSH1 0x16 PUSH1 0x24 DUP3 ADD MSTORE PUSH22 0xE0D8CAC2E6CA40E0E4DEECCA40C4D8DEC6D6D0C2E6D PUSH1 0x53 SHL PUSH1 0x44 DUP3 ADD MSTORE SWAP1 MLOAD SWAP1 DUP2 SWAP1 SUB PUSH1 0x64 ADD SWAP1 REVERT JUMPDEST PUSH1 0x40 DUP1 MLOAD PUSH1 0x20 DUP1 DUP3 ADD DUP7 SWAP1 MSTORE DUP2 DUP4 ADD DUP5 SWAP1 MSTORE DUP3 MLOAD DUP1 DUP4 SUB DUP5 ADD DUP2 MSTORE PUSH1 0x60 SWAP1 SWAP3 ADD SWAP1 SWAP3 MSTORE DUP1 MLOAD SWAP2 ADD KECCAK256 PUSH1 0xE0 DUP12 ADD DUP2 SWAP1 MSTORE PUSH2 0x1A0 DUP12 MSTORE PUSH2 0xB88 DUP12 PUSH2 0xFF9 JUMP JUMPDEST SWAP7 POP POP POP POP POP POP POP SWAP2 SWAP4 POP SWAP2 SWAP4 JUMP JUMPDEST PUSH1 0x0 DUP3 DUP3 ADD DUP4 DUP2 LT ISZERO PUSH2 0xBF1 JUMPI PUSH1 0x40 DUP1 MLOAD PUSH3 0x461BCD PUSH1 0xE5 SHL DUP2 MSTORE PUSH1 0x20 PUSH1 0x4 DUP3 ADD MSTORE PUSH1 0x1B PUSH1 0x24 DUP3 ADD MSTORE PUSH32 0x536166654D6174683A206164646974696F6E206F766572666C6F770000000000 PUSH1 0x44 DUP3 ADD MSTORE SWAP1 MLOAD SWAP1 DUP2 SWAP1 SUB PUSH1 0x64 ADD SWAP1 REVERT JUMPDEST SWAP1 POP JUMPDEST SWAP3 SWAP2 POP POP JUMP JUMPDEST PUSH1 0x40 DUP1 MLOAD PUSH1 0x24 DUP2 ADD DUP6 SWAP1 MSTORE PUSH1 0x44 DUP1 DUP3 ADD DUP6 SWAP1 MSTORE DUP3 MLOAD DUP1 DUP4 SUB SWAP1 SWAP2 ADD DUP2 MSTORE PUSH1 0x64 SWAP1 SWAP2 ADD SWAP1 SWAP2 MSTORE PUSH1 0x20 DUP2 ADD DUP1 MLOAD PUSH1 0x1 PUSH1 0x1 PUSH1 0xE0 SHL SUB AND PUSH4 0x94985DDD PUSH1 0xE0 SHL OR SWAP1 MSTORE PUSH1 0x0 SWAP1 PUSH3 0x324B0 DUP1 GAS LT ISZERO PUSH2 0xC95 JUMPI PUSH1 0x40 DUP1 MLOAD PUSH3 0x461BCD PUSH1 0xE5 SHL DUP2 MSTORE PUSH1 0x20 PUSH1 0x4 DUP3 ADD MSTORE PUSH1 0x1B PUSH1 0x24 DUP3 ADD MSTORE PUSH32 0x6E6F7420656E6F7567682067617320666F7220636F6E73756D65720000000000 PUSH1 0x44 DUP3 ADD MSTORE SWAP1 MLOAD SWAP1 DUP2 SWAP1 SUB PUSH1 0x64 ADD SWAP1 REVERT JUMPDEST PUSH1 0x0 DUP5 PUSH1 0x1 PUSH1 0x1 PUSH1 0xA0 SHL SUB AND DUP4 PUSH1 0x40 MLOAD DUP1 DUP3 DUP1 MLOAD SWAP1 PUSH1 0x20 ADD SWAP1 DUP1 DUP4 DUP4 JUMPDEST PUSH1 0x20 DUP4 LT PUSH2 0xCD1 JUMPI DUP1 MLOAD DUP3 MSTORE PUSH1 0x1F NOT SWAP1 SWAP3 ADD SWAP2 PUSH1 0x20 SWAP2 DUP3 ADD SWAP2 ADD PUSH2 0xCB2 JUMP JUMPDEST PUSH1 0x1 DUP4 PUSH1 0x20 SUB PUSH2 0x100 EXP SUB DUP1 NOT DUP3 MLOAD AND DUP2 DUP5 MLOAD AND DUP1 DUP3 OR DUP6 MSTORE POP POP POP POP POP POP SWAP1 POP ADD SWAP2 POP POP PUSH1 0x0 PUSH1 0x40 MLOAD DUP1 DUP4 SUB DUP2 PUSH1 0x0 DUP7 GAS CALL SWAP2 POP POP RETURNDATASIZE DUP1 PUSH1 0x0 DUP2 EQ PUSH2 0xD33 JUMPI PUSH1 0x40 MLOAD SWAP2 POP PUSH1 0x1F NOT PUSH1 0x3F RETURNDATASIZE ADD AND DUP3 ADD PUSH1 0x40 MSTORE RETURNDATASIZE DUP3 MSTORE RETURNDATASIZE PUSH1 0x0 PUSH1 0x20 DUP5 ADD RETURNDATACOPY PUSH2 0xD38 JUMP JUMPDEST PUSH1 0x60 SWAP2 POP JUMPDEST POP POP POP POP POP POP POP POP POP POP JUMP JUMPDEST PUSH1 0x0 DUP5 DUP2 MSTORE PUSH1 0x3 PUSH1 0x20 MSTORE PUSH1 0x40 SWAP1 KECCAK256 SLOAD DUP3 SWAP1 DUP6 SWAP1 PUSH1 0x1 PUSH1 0xA0 SHL SWAP1 DIV PUSH1 0x1 PUSH1 0x1 PUSH1 0x60 SHL SUB AND DUP3 LT ISZERO PUSH2 0xDB2 JUMPI PUSH1 0x40 DUP1 MLOAD PUSH3 0x461BCD PUSH1 0xE5 SHL DUP2 MSTORE PUSH1 0x20 PUSH1 0x4 DUP3 ADD MSTORE PUSH1 0x14 PUSH1 0x24 DUP3 ADD MSTORE PUSH20 0x10995B1BDDC81859DC995959081C185E5B595B9D PUSH1 0x62 SHL PUSH1 0x44 DUP3 ADD MSTORE SWAP1 MLOAD SWAP1 DUP2 SWAP1 SUB PUSH1 0x64 ADD SWAP1 REVERT JUMPDEST PUSH1 0x0 DUP7 DUP2 MSTORE PUSH1 0x5 PUSH1 0x20 SWAP1 DUP2 MSTORE PUSH1 0x40 DUP1 DUP4 KECCAK256 PUSH1 0x1 PUSH1 0x1 PUSH1 0xA0 SHL SUB DUP8 AND DUP5 MSTORE SWAP1 SWAP2 MSTORE DUP2 KECCAK256 SLOAD SWAP1 PUSH2 0xDE2 DUP9 DUP9 DUP8 DUP6 PUSH2 0x1142 JUMP JUMPDEST SWAP1 POP PUSH1 0x0 PUSH2 0xDF0 DUP10 DUP4 PUSH2 0xFCD JUMP JUMPDEST PUSH1 0x0 DUP2 DUP2 MSTORE PUSH1 0x2 PUSH1 0x20 MSTORE PUSH1 0x40 SWAP1 KECCAK256 SLOAD SWAP1 SWAP2 POP PUSH1 0x1 PUSH1 0x1 PUSH1 0xA0 SHL SUB AND ISZERO PUSH2 0xE12 JUMPI INVALID JUMPDEST PUSH1 0x0 DUP2 DUP2 MSTORE PUSH1 0x2 PUSH1 0x20 MSTORE PUSH1 0x40 SWAP1 KECCAK256 DUP1 SLOAD PUSH1 0x1 PUSH1 0x1 PUSH1 0xA0 SHL SUB NOT AND PUSH1 0x1 PUSH1 0x1 PUSH1 0xA0 SHL SUB DUP9 AND OR SWAP1 SSTORE PUSH12 0x33B2E3C9FD0803CE8000000 DUP8 LT PUSH2 0xE4E JUMPI INVALID JUMPDEST PUSH1 0x0 DUP2 DUP2 MSTORE PUSH1 0x2 PUSH1 0x20 SWAP1 DUP2 MSTORE PUSH1 0x40 DUP1 DUP4 KECCAK256 DUP1 SLOAD PUSH1 0x1 PUSH1 0x1 PUSH1 0x60 SHL SUB DUP13 AND PUSH1 0x1 PUSH1 0xA0 SHL MUL PUSH1 0x1 PUSH1 0x1 PUSH1 0xA0 SHL SUB SWAP2 DUP3 AND OR DUP3 SSTORE DUP3 MLOAD DUP1 DUP6 ADD DUP9 SWAP1 MSTORE NUMBER DUP2 DUP6 ADD MSTORE DUP4 MLOAD DUP1 DUP3 SUB DUP6 ADD DUP2 MSTORE PUSH1 0x60 DUP3 ADD DUP1 DUP7 MSTORE DUP2 MLOAD SWAP2 DUP8 ADD SWAP2 SWAP1 SWAP2 KECCAK256 PUSH1 0x1 SWAP5 DUP6 ADD SSTORE DUP16 DUP8 MSTORE PUSH1 0x3 SWAP1 SWAP6 MSTORE SWAP5 DUP4 SWAP1 KECCAK256 SWAP1 SWAP2 ADD SLOAD SWAP3 DUP14 SWAP1 MSTORE PUSH1 0x80 DUP5 ADD DUP7 SWAP1 MSTORE DUP10 AND PUSH1 0xA0 DUP5 ADD MSTORE PUSH1 0xC0 DUP4 ADD DUP11 SWAP1 MSTORE PUSH1 0xE0 DUP4 ADD DUP5 SWAP1 MSTORE MLOAD SWAP1 SWAP2 PUSH32 0x56BD374744A66D531874338DEF36C906E3A6CF31176EB1E9AFD9F1DE69725D51 SWAP2 SWAP1 DUP2 SWAP1 SUB PUSH2 0x100 ADD SWAP1 LOG2 PUSH1 0x0 DUP10 DUP2 MSTORE PUSH1 0x5 PUSH1 0x20 SWAP1 DUP2 MSTORE PUSH1 0x40 DUP1 DUP4 KECCAK256 PUSH1 0x1 PUSH1 0x1 PUSH1 0xA0 SHL SUB DUP11 AND DUP5 MSTORE SWAP1 SWAP2 MSTORE SWAP1 KECCAK256 SLOAD PUSH2 0xF3E SWAP1 PUSH1 0x1 PUSH4 0xFFFFFFFF PUSH2 0xB97 AND JUMP JUMPDEST PUSH1 0x0 SWAP10 DUP11 MSTORE PUSH1 0x5 PUSH1 0x20 SWAP1 DUP2 MSTORE PUSH1 0x40 DUP1 DUP13 KECCAK256 PUSH1 0x1 PUSH1 0x1 PUSH1 0xA0 SHL SUB SWAP1 SWAP10 AND DUP13 MSTORE SWAP8 SWAP1 MSTORE SWAP6 SWAP1 SWAP9 KECCAK256 SWAP5 SWAP1 SWAP5 SSTORE POP POP POP POP POP POP POP JUMP JUMPDEST PUSH1 0x0 DUP3 DUP3 GT ISZERO PUSH2 0xFC7 JUMPI PUSH1 0x40 DUP1 MLOAD PUSH3 0x461BCD PUSH1 0xE5 SHL DUP2 MSTORE PUSH1 0x20 PUSH1 0x4 DUP3 ADD MSTORE PUSH1 0x1E PUSH1 0x24 DUP3 ADD MSTORE PUSH32 0x536166654D6174683A207375627472616374696F6E206F766572666C6F770000 PUSH1 0x44 DUP3 ADD MSTORE SWAP1 MLOAD SWAP1 DUP2 SWAP1 SUB PUSH1 0x64 ADD SWAP1 REVERT JUMPDEST POP SWAP1 SUB SWAP1 JUMP JUMPDEST PUSH1 0x40 DUP1 MLOAD PUSH1 0x20 DUP1 DUP3 ADD SWAP5 SWAP1 SWAP5 MSTORE DUP1 DUP3 ADD SWAP3 SWAP1 SWAP3 MSTORE DUP1 MLOAD DUP1 DUP4 SUB DUP3 ADD DUP2 MSTORE PUSH1 0x60 SWAP1 SWAP3 ADD SWAP1 MSTORE DUP1 MLOAD SWAP2 ADD KECCAK256 SWAP1 JUMP JUMPDEST PUSH1 0x0 PUSH2 0x1A0 DUP3 MLOAD EQ PUSH2 0x1047 JUMPI PUSH1 0x40 DUP1 MLOAD PUSH3 0x461BCD PUSH1 0xE5 SHL DUP2 MSTORE PUSH1 0x20 PUSH1 0x4 DUP3 ADD MSTORE PUSH1 0x12 PUSH1 0x24 DUP3 ADD MSTORE PUSH18 0xEEE4DEDCCE40E0E4DEDECC40D8CADCCEE8D PUSH1 0x73 SHL PUSH1 0x44 DUP3 ADD MSTORE SWAP1 MLOAD SWAP1 DUP2 SWAP1 SUB PUSH1 0x64 ADD SWAP1 REVERT JUMPDEST PUSH2 0x104F PUSH2 0x1C97 JUMP JUMPDEST PUSH2 0x1057 PUSH2 0x1C97 JUMP JUMPDEST PUSH2 0x105F PUSH2 0x1CB5 JUMP JUMPDEST PUSH1 0x0 PUSH2 0x1069 PUSH2 0x1C97 JUMP JUMPDEST PUSH2 0x1071 PUSH2 0x1C97 JUMP JUMPDEST PUSH1 0x0 DUP9 DUP1 PUSH1 0x20 ADD SWAP1 MLOAD PUSH2 0x1A0 DUP2 LT ISZERO PUSH2 0x1089 JUMPI PUSH1 0x0 DUP1 REVERT JUMPDEST POP PUSH1 0xE0 DUP2 ADD MLOAD PUSH2 0x180 DUP3 ADD MLOAD SWAP2 SWAP9 POP PUSH1 0x40 DUP10 ADD SWAP8 POP PUSH1 0x80 DUP10 ADD SWAP7 POP SWAP5 POP PUSH2 0x100 DUP9 ADD SWAP4 POP PUSH2 0x140 DUP9 ADD SWAP3 POP SWAP1 POP PUSH2 0x10DC DUP8 DUP8 DUP8 PUSH1 0x0 PUSH1 0x20 MUL ADD MLOAD DUP9 PUSH1 0x1 PUSH1 0x20 MUL ADD MLOAD DUP10 PUSH1 0x2 PUSH1 0x20 MUL ADD MLOAD DUP10 DUP10 DUP10 DUP10 PUSH2 0x1189 JUMP JUMPDEST PUSH1 0x3 DUP7 PUSH1 0x40 MLOAD PUSH1 0x20 ADD DUP1 DUP4 DUP2 MSTORE PUSH1 0x20 ADD DUP3 PUSH1 0x2 PUSH1 0x20 MUL DUP1 DUP4 DUP4 PUSH1 0x0 JUMPDEST DUP4 DUP2 LT ISZERO PUSH2 0x1110 JUMPI DUP2 DUP2 ADD MLOAD DUP4 DUP3 ADD MSTORE PUSH1 0x20 ADD PUSH2 0x10F8 JUMP JUMPDEST POP POP POP POP SWAP1 POP ADD SWAP3 POP POP POP PUSH1 0x40 MLOAD PUSH1 0x20 DUP2 DUP4 SUB SUB DUP2 MSTORE SWAP1 PUSH1 0x40 MSTORE DUP1 MLOAD SWAP1 PUSH1 0x20 ADD KECCAK256 PUSH1 0x0 SHR SWAP8 POP POP POP POP POP POP POP POP SWAP2 SWAP1 POP JUMP JUMPDEST PUSH1 0x40 DUP1 MLOAD PUSH1 0x20 DUP1 DUP3 ADD SWAP7 SWAP1 SWAP7 MSTORE DUP1 DUP3 ADD SWAP5 SWAP1 SWAP5 MSTORE PUSH1 0x1 PUSH1 0x1 PUSH1 0xA0 SHL SUB SWAP3 SWAP1 SWAP3 AND PUSH1 0x60 DUP5 ADD MSTORE PUSH1 0x80 DUP1 DUP5 ADD SWAP2 SWAP1 SWAP2 MSTORE DUP2 MLOAD DUP1 DUP5 SUB SWAP1 SWAP2 ADD DUP2 MSTORE PUSH1 0xA0 SWAP1 SWAP3 ADD SWAP1 MSTORE DUP1 MLOAD SWAP2 ADD KECCAK256 SWAP1 JUMP JUMPDEST PUSH2 0x1192 DUP10 PUSH2 0x13D6 JUMP JUMPDEST PUSH2 0x11E3 JUMPI PUSH1 0x40 DUP1 MLOAD PUSH3 0x461BCD PUSH1 0xE5 SHL DUP2 MSTORE PUSH1 0x20 PUSH1 0x4 DUP3 ADD MSTORE PUSH1 0x1A PUSH1 0x24 DUP3 ADD MSTORE PUSH32 0x7075626C6963206B6579206973206E6F74206F6E206375727665000000000000 PUSH1 0x44 DUP3 ADD MSTORE SWAP1 MLOAD SWAP1 DUP2 SWAP1 SUB PUSH1 0x64 ADD SWAP1 REVERT JUMPDEST PUSH2 0x11EC DUP9 PUSH2 0x13D6 JUMP JUMPDEST PUSH2 0x1235 JUMPI PUSH1 0x40 DUP1 MLOAD PUSH3 0x461BCD PUSH1 0xE5 SHL DUP2 MSTORE PUSH1 0x20 PUSH1 0x4 DUP3 ADD MSTORE PUSH1 0x15 PUSH1 0x24 DUP3 ADD MSTORE PUSH21 0x67616D6D61206973206E6F74206F6E206375727665 PUSH1 0x58 SHL PUSH1 0x44 DUP3 ADD MSTORE SWAP1 MLOAD SWAP1 DUP2 SWAP1 SUB PUSH1 0x64 ADD SWAP1 REVERT JUMPDEST PUSH2 0x123E DUP4 PUSH2 0x13D6 JUMP JUMPDEST PUSH2 0x128F JUMPI PUSH1 0x40 DUP1 MLOAD PUSH3 0x461BCD PUSH1 0xE5 SHL DUP2 MSTORE PUSH1 0x20 PUSH1 0x4 DUP3 ADD MSTORE PUSH1 0x1D PUSH1 0x24 DUP3 ADD MSTORE PUSH32 0x6347616D6D615769746E657373206973206E6F74206F6E206375727665000000 PUSH1 0x44 DUP3 ADD MSTORE SWAP1 MLOAD SWAP1 DUP2 SWAP1 SUB PUSH1 0x64 ADD SWAP1 REVERT JUMPDEST PUSH2 0x1298 DUP3 PUSH2 0x13D6 JUMP JUMPDEST PUSH2 0x12E9 JUMPI PUSH1 0x40 DUP1 MLOAD PUSH3 0x461BCD PUSH1 0xE5 SHL DUP2 MSTORE PUSH1 0x20 PUSH1 0x4 DUP3 ADD MSTORE PUSH1 0x1C PUSH1 0x24 DUP3 ADD MSTORE PUSH32 0x73486173685769746E657373206973206E6F74206F6E20637572766500000000 PUSH1 0x44 DUP3 ADD MSTORE SWAP1 MLOAD SWAP1 DUP2 SWAP1 SUB PUSH1 0x64 ADD SWAP1 REVERT JUMPDEST PUSH2 0x12F5 DUP8 DUP11 DUP9 DUP8 PUSH2 0x1400 JUMP JUMPDEST PUSH2 0x1346 JUMPI PUSH1 0x40 DUP1 MLOAD PUSH3 0x461BCD PUSH1 0xE5 SHL DUP2 MSTORE PUSH1 0x20 PUSH1 0x4 DUP3 ADD MSTORE PUSH1 0x1A PUSH1 0x24 DUP3 ADD MSTORE PUSH32 0x6164647228632A706B2B732A6729E289A05F755769746E657373000000000000 PUSH1 0x44 DUP3 ADD MSTORE SWAP1 MLOAD SWAP1 DUP2 SWAP1 SUB PUSH1 0x64 ADD SWAP1 REVERT JUMPDEST PUSH2 0x134E PUSH2 0x1C97 JUMP JUMPDEST PUSH2 0x1358 DUP11 DUP8 PUSH2 0x152E JUMP JUMPDEST SWAP1 POP PUSH2 0x1362 PUSH2 0x1C97 JUMP JUMPDEST PUSH2 0x1371 DUP10 DUP12 DUP8 DUP12 DUP7 DUP10 DUP10 PUSH2 0x15D1 JUMP JUMPDEST SWAP1 POP PUSH1 0x0 PUSH2 0x1382 DUP4 DUP14 DUP14 DUP11 DUP7 PUSH2 0x16DC JUMP JUMPDEST SWAP1 POP DUP1 DUP11 EQ PUSH2 0x13C8 JUMPI PUSH1 0x40 DUP1 MLOAD PUSH3 0x461BCD PUSH1 0xE5 SHL DUP2 MSTORE PUSH1 0x20 PUSH1 0x4 DUP3 ADD MSTORE PUSH1 0xD PUSH1 0x24 DUP3 ADD MSTORE PUSH13 0x34B73B30B634B210383937B7B3 PUSH1 0x99 SHL PUSH1 0x44 DUP3 ADD MSTORE SWAP1 MLOAD SWAP1 DUP2 SWAP1 SUB PUSH1 0x64 ADD SWAP1 REVERT JUMPDEST POP POP POP POP POP POP POP POP POP POP POP POP JUMP JUMPDEST PUSH1 0x20 DUP2 ADD MLOAD PUSH1 0x0 SWAP1 PUSH5 0x1000003D0 NOT SWAP1 DUP1 MULMOD PUSH2 0x13F9 DUP4 PUSH1 0x0 JUMPDEST PUSH1 0x20 MUL ADD MLOAD PUSH2 0x17E5 JUMP JUMPDEST EQ SWAP3 SWAP2 POP POP JUMP JUMPDEST PUSH1 0x0 PUSH1 0x1 PUSH1 0x1 PUSH1 0xA0 SHL SUB DUP3 AND PUSH2 0x144B JUMPI PUSH1 0x40 DUP1 MLOAD PUSH3 0x461BCD PUSH1 0xE5 SHL DUP2 MSTORE PUSH1 0x20 PUSH1 0x4 DUP3 ADD MSTORE PUSH1 0xB PUSH1 0x24 DUP3 ADD MSTORE PUSH11 0x626164207769746E657373 PUSH1 0xA8 SHL PUSH1 0x44 DUP3 ADD MSTORE SWAP1 MLOAD SWAP1 DUP2 SWAP1 SUB PUSH1 0x64 ADD SWAP1 REVERT JUMPDEST PUSH1 0x20 DUP5 ADD MLOAD PUSH1 0x0 SWAP1 PUSH1 0x1 AND ISZERO PUSH2 0x1462 JUMPI PUSH1 0x1C PUSH2 0x1465 JUMP JUMPDEST PUSH1 0x1B JUMPDEST SWAP1 POP PUSH1 0x0 PUSH17 0x14551231950B75FC4402DA1732FC9BEBE NOT DUP6 DUP8 PUSH1 0x0 PUSH1 0x20 MUL ADD MLOAD MULMOD DUP7 MLOAD PUSH17 0x14551231950B75FC4402DA1732FC9BEBE NOT SWAP2 DUP3 SUB SWAP3 POP PUSH1 0x0 SWAP2 SWAP1 DUP10 MULMOD DUP8 MLOAD PUSH1 0x40 DUP1 MLOAD PUSH1 0x0 DUP1 DUP3 MSTORE PUSH1 0x20 DUP3 DUP2 ADD DUP1 DUP6 MSTORE DUP9 SWAP1 MSTORE PUSH1 0xFF DUP10 AND DUP4 DUP6 ADD MSTORE PUSH1 0x60 DUP4 ADD SWAP5 SWAP1 SWAP5 MSTORE PUSH1 0x80 DUP3 ADD DUP6 SWAP1 MSTORE SWAP2 MLOAD SWAP4 SWAP5 POP SWAP1 SWAP3 PUSH1 0x1 SWAP3 PUSH1 0xA0 DUP1 DUP5 ADD SWAP4 SWAP2 SWAP3 PUSH1 0x1F NOT DUP2 ADD SWAP3 DUP2 SWAP1 SUB SWAP1 SWAP2 ADD SWAP1 DUP6 GAS STATICCALL ISZERO DUP1 ISZERO PUSH2 0x1506 JUMPI RETURNDATASIZE PUSH1 0x0 DUP1 RETURNDATACOPY RETURNDATASIZE PUSH1 0x0 REVERT JUMPDEST POP POP PUSH1 0x40 MLOAD PUSH1 0x1F NOT ADD MLOAD PUSH1 0x1 PUSH1 0x1 PUSH1 0xA0 SHL SUB SWAP1 DUP2 AND SWAP1 DUP9 AND EQ SWAP6 POP POP POP POP POP POP SWAP5 SWAP4 POP POP POP POP JUMP JUMPDEST PUSH2 0x1536 PUSH2 0x1C97 JUMP JUMPDEST PUSH2 0x1594 PUSH1 0x1 DUP5 DUP5 PUSH1 0x40 MLOAD PUSH1 0x20 ADD DUP1 DUP5 DUP2 MSTORE PUSH1 0x20 ADD DUP4 PUSH1 0x2 PUSH1 0x20 MUL DUP1 DUP4 DUP4 PUSH1 0x0 JUMPDEST DUP4 DUP2 LT ISZERO PUSH2 0x156E JUMPI DUP2 DUP2 ADD MLOAD DUP4 DUP3 ADD MSTORE PUSH1 0x20 ADD PUSH2 0x1556 JUMP JUMPDEST POP POP POP POP SWAP1 POP ADD DUP3 DUP2 MSTORE PUSH1 0x20 ADD SWAP4 POP POP POP POP PUSH1 0x40 MLOAD PUSH1 0x20 DUP2 DUP4 SUB SUB DUP2 MSTORE SWAP1 PUSH1 0x40 MSTORE PUSH2 0x1809 JUMP JUMPDEST SWAP1 POP JUMPDEST PUSH2 0x15A0 DUP2 PUSH2 0x13D6 JUMP JUMPDEST PUSH2 0xBF4 JUMPI DUP1 MLOAD PUSH1 0x40 DUP1 MLOAD PUSH1 0x20 DUP2 DUP2 ADD SWAP4 SWAP1 SWAP4 MSTORE DUP2 MLOAD DUP1 DUP3 SUB SWAP1 SWAP4 ADD DUP4 MSTORE DUP2 ADD SWAP1 MSTORE PUSH2 0x15CA SWAP1 PUSH2 0x1809 JUMP JUMPDEST SWAP1 POP PUSH2 0x1597 JUMP JUMPDEST PUSH2 0x15D9 PUSH2 0x1C97 JUMP JUMPDEST DUP3 MLOAD DUP7 MLOAD PUSH5 0x1000003D0 NOT SWAP2 SWAP1 SUB MOD PUSH2 0x1639 JUMPI PUSH1 0x40 DUP1 MLOAD PUSH3 0x461BCD PUSH1 0xE5 SHL DUP2 MSTORE PUSH1 0x20 PUSH1 0x4 DUP3 ADD MSTORE PUSH1 0x1E PUSH1 0x24 DUP3 ADD MSTORE PUSH32 0x706F696E747320696E2073756D206D7573742062652064697374696E63740000 PUSH1 0x44 DUP3 ADD MSTORE SWAP1 MLOAD SWAP1 DUP2 SWAP1 SUB PUSH1 0x64 ADD SWAP1 REVERT JUMPDEST PUSH2 0x1644 DUP8 DUP10 DUP9 PUSH2 0x1857 JUMP JUMPDEST PUSH2 0x167F JUMPI PUSH1 0x40 MLOAD PUSH3 0x461BCD PUSH1 0xE5 SHL DUP2 MSTORE PUSH1 0x4 ADD DUP1 DUP1 PUSH1 0x20 ADD DUP3 DUP2 SUB DUP3 MSTORE PUSH1 0x21 DUP2 MSTORE PUSH1 0x20 ADD DUP1 PUSH2 0x1D4C PUSH1 0x21 SWAP2 CODECOPY PUSH1 0x40 ADD SWAP2 POP POP PUSH1 0x40 MLOAD DUP1 SWAP2 SUB SWAP1 REVERT JUMPDEST PUSH2 0x168A DUP5 DUP7 DUP6 PUSH2 0x1857 JUMP JUMPDEST PUSH2 0x16C5 JUMPI PUSH1 0x40 MLOAD PUSH3 0x461BCD PUSH1 0xE5 SHL DUP2 MSTORE PUSH1 0x4 ADD DUP1 DUP1 PUSH1 0x20 ADD DUP3 DUP2 SUB DUP3 MSTORE PUSH1 0x22 DUP2 MSTORE PUSH1 0x20 ADD DUP1 PUSH2 0x1D6D PUSH1 0x22 SWAP2 CODECOPY PUSH1 0x40 ADD SWAP2 POP POP PUSH1 0x40 MLOAD DUP1 SWAP2 SUB SWAP1 REVERT JUMPDEST PUSH2 0x16D0 DUP7 DUP5 DUP5 PUSH2 0x1977 JUMP JUMPDEST SWAP9 SWAP8 POP POP POP POP POP POP POP POP JUMP JUMPDEST PUSH1 0x0 PUSH1 0x2 DUP7 DUP7 DUP7 DUP6 DUP8 PUSH1 0x40 MLOAD PUSH1 0x20 ADD DUP1 DUP8 DUP2 MSTORE PUSH1 0x20 ADD DUP7 PUSH1 0x2 PUSH1 0x20 MUL DUP1 DUP4 DUP4 PUSH1 0x0 JUMPDEST DUP4 DUP2 LT ISZERO PUSH2 0x1716 JUMPI DUP2 DUP2 ADD MLOAD DUP4 DUP3 ADD MSTORE PUSH1 0x20 ADD PUSH2 0x16FE JUMP JUMPDEST POP POP POP POP SWAP1 POP ADD DUP6 PUSH1 0x2 PUSH1 0x20 MUL DUP1 DUP4 DUP4 PUSH1 0x0 JUMPDEST DUP4 DUP2 LT ISZERO PUSH2 0x1741 JUMPI DUP2 DUP2 ADD MLOAD DUP4 DUP3 ADD MSTORE PUSH1 0x20 ADD PUSH2 0x1729 JUMP JUMPDEST POP POP POP POP SWAP1 POP ADD DUP5 PUSH1 0x2 PUSH1 0x20 MUL DUP1 DUP4 DUP4 PUSH1 0x0 JUMPDEST DUP4 DUP2 LT ISZERO PUSH2 0x176C JUMPI DUP2 DUP2 ADD MLOAD DUP4 DUP3 ADD MSTORE PUSH1 0x20 ADD PUSH2 0x1754 JUMP JUMPDEST POP POP POP POP SWAP1 POP ADD DUP4 PUSH1 0x2 PUSH1 0x20 MUL DUP1 DUP4 DUP4 PUSH1 0x0 JUMPDEST DUP4 DUP2 LT ISZERO PUSH2 0x1797 JUMPI DUP2 DUP2 ADD MLOAD DUP4 DUP3 ADD MSTORE PUSH1 0x20 ADD PUSH2 0x177F JUMP JUMPDEST POP POP POP POP SWAP1 POP ADD DUP3 PUSH1 0x1 PUSH1 0x1 PUSH1 0xA0 SHL SUB AND PUSH1 0x1 PUSH1 0x1 PUSH1 0xA0 SHL SUB AND PUSH1 0x60 SHL DUP2 MSTORE PUSH1 0x14 ADD SWAP7 POP POP POP POP POP POP POP PUSH1 0x40 MLOAD PUSH1 0x20 DUP2 DUP4 SUB SUB DUP2 MSTORE SWAP1 PUSH1 0x40 MSTORE DUP1 MLOAD SWAP1 PUSH1 0x20 ADD KECCAK256 PUSH1 0x0 SHR SWAP1 POP SWAP6 SWAP5 POP POP POP POP POP JUMP JUMPDEST PUSH1 0x0 DUP1 PUSH5 0x1000003D0 NOT DUP1 DUP5 DUP6 MULMOD DUP5 MULMOD SWAP1 POP PUSH5 0x1000003D0 NOT PUSH1 0x7 DUP3 ADDMOD SWAP4 SWAP3 POP POP POP JUMP JUMPDEST PUSH2 0x1811 PUSH2 0x1C97 JUMP JUMPDEST PUSH2 0x181A DUP3 PUSH2 0x1A3D JUMP JUMPDEST DUP2 MSTORE PUSH2 0x182F PUSH2 0x182A DUP3 PUSH1 0x0 PUSH2 0x13EF JUMP JUMPDEST PUSH2 0x1A78 JUMP JUMPDEST PUSH1 0x20 DUP3 ADD DUP2 SWAP1 MSTORE PUSH1 0x2 SWAP1 MOD PUSH1 0x1 EQ ISZERO PUSH2 0x5C6 JUMPI PUSH1 0x20 DUP2 ADD DUP1 MLOAD PUSH5 0x1000003D0 NOT SUB SWAP1 MSTORE SWAP2 SWAP1 POP JUMP JUMPDEST PUSH1 0x0 DUP3 PUSH2 0x1863 JUMPI PUSH1 0x0 DUP1 REVERT JUMPDEST DUP4 MLOAD PUSH1 0x20 DUP6 ADD MLOAD PUSH1 0x0 SWAP1 PUSH1 0x1 AND ISZERO PUSH2 0x187C JUMPI PUSH1 0x1C PUSH2 0x187F JUMP JUMPDEST PUSH1 0x1B JUMPDEST SWAP1 POP PUSH1 0x0 PUSH17 0x14551231950B75FC4402DA1732FC9BEBE NOT DUP4 DUP8 MULMOD PUSH1 0x40 DUP1 MLOAD PUSH1 0x0 DUP1 DUP3 MSTORE PUSH1 0x20 DUP1 DUP4 ADD DUP1 DUP6 MSTORE DUP3 SWAP1 MSTORE PUSH1 0xFF DUP8 AND DUP4 DUP6 ADD MSTORE PUSH1 0x60 DUP4 ADD DUP9 SWAP1 MSTORE PUSH1 0x80 DUP4 ADD DUP6 SWAP1 MSTORE SWAP3 MLOAD SWAP4 SWAP5 POP SWAP3 PUSH1 0x1 SWAP3 PUSH1 0xA0 DUP1 DUP5 ADD SWAP4 SWAP2 SWAP3 PUSH1 0x1F NOT DUP2 ADD SWAP3 DUP2 SWAP1 SUB SWAP1 SWAP2 ADD SWAP1 DUP6 GAS STATICCALL ISZERO DUP1 ISZERO PUSH2 0x18F5 JUMPI RETURNDATASIZE PUSH1 0x0 DUP1 RETURNDATACOPY RETURNDATASIZE PUSH1 0x0 REVERT JUMPDEST POP POP POP PUSH1 0x20 PUSH1 0x40 MLOAD SUB MLOAD SWAP1 POP PUSH1 0x0 DUP7 PUSH1 0x40 MLOAD PUSH1 0x20 ADD DUP1 DUP3 PUSH1 0x2 PUSH1 0x20 MUL DUP1 DUP4 DUP4 PUSH1 0x0 JUMPDEST DUP4 DUP2 LT ISZERO PUSH2 0x192F JUMPI DUP2 DUP2 ADD MLOAD DUP4 DUP3 ADD MSTORE PUSH1 0x20 ADD PUSH2 0x1917 JUMP JUMPDEST POP POP POP POP SWAP1 POP ADD SWAP2 POP POP PUSH1 0x40 MLOAD PUSH1 0x20 DUP2 DUP4 SUB SUB DUP2 MSTORE SWAP1 PUSH1 0x40 MSTORE DUP1 MLOAD SWAP1 PUSH1 0x20 ADD KECCAK256 PUSH1 0x0 SHR SWAP1 POP DUP1 PUSH1 0x1 PUSH1 0x1 PUSH1 0xA0 SHL SUB AND DUP3 PUSH1 0x1 PUSH1 0x1 PUSH1 0xA0 SHL SUB AND EQ SWAP6 POP POP POP POP POP POP SWAP4 SWAP3 POP POP POP JUMP JUMPDEST PUSH2 0x197F PUSH2 0x1C97 JUMP JUMPDEST DUP4 MLOAD PUSH1 0x20 DUP1 DUP7 ADD MLOAD DUP6 MLOAD SWAP2 DUP7 ADD MLOAD PUSH1 0x0 SWAP4 DUP5 SWAP4 DUP5 SWAP4 PUSH2 0x19A0 SWAP4 SWAP1 SWAP2 SWAP1 PUSH2 0x1A8E JUMP JUMPDEST SWAP2 SWAP5 POP SWAP3 POP SWAP1 POP PUSH5 0x1000003D0 NOT DUP6 DUP3 MULMOD PUSH1 0x1 EQ PUSH2 0x1A05 JUMPI PUSH1 0x40 DUP1 MLOAD PUSH3 0x461BCD PUSH1 0xE5 SHL DUP2 MSTORE PUSH1 0x20 PUSH1 0x4 DUP3 ADD MSTORE PUSH1 0x19 PUSH1 0x24 DUP3 ADD MSTORE PUSH32 0x696E765A206D75737420626520696E7665727365206F66207A00000000000000 PUSH1 0x44 DUP3 ADD MSTORE SWAP1 MLOAD SWAP1 DUP2 SWAP1 SUB PUSH1 0x64 ADD SWAP1 REVERT JUMPDEST PUSH1 0x40 MLOAD DUP1 PUSH1 0x40 ADD PUSH1 0x40 MSTORE DUP1 PUSH5 0x1000003D0 NOT DUP1 PUSH2 0x1A1E JUMPI INVALID JUMPDEST DUP8 DUP7 MULMOD DUP2 MSTORE PUSH1 0x20 ADD PUSH5 0x1000003D0 NOT DUP8 DUP6 MULMOD SWAP1 MSTORE SWAP8 SWAP7 POP POP POP POP POP POP POP JUMP JUMPDEST DUP1 MLOAD PUSH1 0x20 DUP3 ADD KECCAK256 JUMPDEST PUSH5 0x1000003D0 NOT DUP2 LT PUSH2 0x5C6 JUMPI PUSH1 0x40 DUP1 MLOAD PUSH1 0x20 DUP1 DUP3 ADD SWAP4 SWAP1 SWAP4 MSTORE DUP2 MLOAD DUP1 DUP3 SUB DUP5 ADD DUP2 MSTORE SWAP1 DUP3 ADD SWAP1 SWAP2 MSTORE DUP1 MLOAD SWAP2 ADD KECCAK256 PUSH2 0x1A45 JUMP JUMPDEST PUSH1 0x0 PUSH2 0xBF4 DUP3 PUSH4 0x400000F4 PUSH1 0x1 PUSH1 0xFE SHL SUB PUSH2 0x1B6E JUMP JUMPDEST PUSH1 0x0 DUP1 DUP1 PUSH1 0x1 DUP1 DUP3 PUSH5 0x1000003D0 NOT DUP10 PUSH5 0x1000003D0 NOT SUB DUP9 ADDMOD SWAP1 POP PUSH1 0x0 PUSH5 0x1000003D0 NOT DUP12 PUSH5 0x1000003D0 NOT SUB DUP11 ADDMOD SWAP1 POP PUSH1 0x0 PUSH2 0x1ACE DUP4 DUP4 DUP6 DUP6 PUSH2 0x1C0A JUMP JUMPDEST SWAP1 SWAP9 POP SWAP1 POP PUSH2 0x1ADF DUP9 DUP3 DUP15 DUP9 PUSH2 0x1C2E JUMP JUMPDEST SWAP1 SWAP9 POP SWAP1 POP PUSH2 0x1AF0 DUP9 DUP3 DUP13 DUP8 PUSH2 0x1C2E JUMP JUMPDEST SWAP1 SWAP9 POP SWAP1 POP PUSH1 0x0 PUSH2 0x1B03 DUP14 DUP8 DUP12 DUP6 PUSH2 0x1C2E JUMP JUMPDEST SWAP1 SWAP9 POP SWAP1 POP PUSH2 0x1B14 DUP9 DUP3 DUP7 DUP7 PUSH2 0x1C0A JUMP JUMPDEST SWAP1 SWAP9 POP SWAP1 POP PUSH2 0x1B25 DUP9 DUP3 DUP15 DUP10 PUSH2 0x1C2E JUMP JUMPDEST SWAP1 SWAP9 POP SWAP1 POP DUP2 DUP2 EQ PUSH2 0x1B5A JUMPI PUSH5 0x1000003D0 NOT DUP2 DUP11 MULMOD SWAP9 POP PUSH5 0x1000003D0 NOT DUP3 DUP10 MULMOD SWAP8 POP PUSH5 0x1000003D0 NOT DUP2 DUP4 MULMOD SWAP7 POP PUSH2 0x1B5E JUMP JUMPDEST DUP2 SWAP7 POP JUMPDEST POP POP POP POP POP POP SWAP5 POP SWAP5 POP SWAP5 SWAP2 POP POP JUMP JUMPDEST PUSH1 0x0 DUP1 PUSH2 0x1B79 PUSH2 0x1CD3 JUMP JUMPDEST PUSH1 0x20 DUP1 DUP3 MSTORE DUP2 DUP2 ADD DUP2 SWAP1 MSTORE PUSH1 0x40 DUP3 ADD MSTORE PUSH1 0x60 DUP2 ADD DUP6 SWAP1 MSTORE PUSH1 0x80 DUP2 ADD DUP5 SWAP1 MSTORE PUSH5 0x1000003D0 NOT PUSH1 0xA0 DUP3 ADD MSTORE PUSH2 0x1BAB PUSH2 0x1CF1 JUMP JUMPDEST PUSH1 0x20 DUP2 PUSH1 0xC0 DUP5 PUSH1 0x5 PUSH1 0x0 NOT STATICCALL SWAP3 POP DUP3 PUSH2 0x1C00 JUMPI PUSH1 0x40 DUP1 MLOAD PUSH3 0x461BCD PUSH1 0xE5 SHL DUP2 MSTORE PUSH1 0x20 PUSH1 0x4 DUP3 ADD MSTORE PUSH1 0x12 PUSH1 0x24 DUP3 ADD MSTORE PUSH18 0x6269674D6F64457870206661696C75726521 PUSH1 0x70 SHL PUSH1 0x44 DUP3 ADD MSTORE SWAP1 MLOAD SWAP1 DUP2 SWAP1 SUB PUSH1 0x64 ADD SWAP1 REVERT JUMPDEST MLOAD SWAP6 SWAP5 POP POP POP POP POP JUMP JUMPDEST PUSH1 0x0 DUP1 PUSH5 0x1000003D0 NOT DUP5 DUP8 MULMOD PUSH5 0x1000003D0 NOT DUP5 DUP8 MULMOD SWAP1 SWAP8 SWAP1 SWAP7 POP SWAP5 POP POP POP POP POP JUMP JUMPDEST PUSH1 0x0 DUP1 DUP1 PUSH5 0x1000003D0 NOT DUP8 DUP6 MULMOD SWAP1 POP PUSH1 0x0 PUSH5 0x1000003D0 NOT DUP8 DUP8 PUSH5 0x1000003D0 NOT SUB MULMOD SWAP1 POP PUSH5 0x1000003D0 NOT DUP2 DUP4 ADDMOD PUSH5 0x1000003D0 NOT DUP7 DUP10 MULMOD SWAP1 SWAP10 SWAP1 SWAP9 POP SWAP7 POP POP POP POP POP POP POP JUMP JUMPDEST PUSH1 0x40 DUP1 MLOAD PUSH1 0x60 DUP2 ADD DUP3 MSTORE PUSH1 0x0 DUP1 DUP3 MSTORE PUSH1 0x20 DUP3 ADD DUP2 SWAP1 MSTORE SWAP2 DUP2 ADD SWAP2 SWAP1 SWAP2 MSTORE SWAP1 JUMP JUMPDEST PUSH1 0x40 MLOAD DUP1 PUSH1 0x40 ADD PUSH1 0x40 MSTORE DUP1 PUSH1 0x2 SWAP1 PUSH1 0x20 DUP3 MUL DUP1 CALLDATASIZE DUP4 CALLDATACOPY POP SWAP2 SWAP3 SWAP2 POP POP JUMP JUMPDEST PUSH1 0x40 MLOAD DUP1 PUSH1 0x60 ADD PUSH1 0x40 MSTORE DUP1 PUSH1 0x3 SWAP1 PUSH1 0x20 DUP3 MUL DUP1 CALLDATASIZE DUP4 CALLDATACOPY POP SWAP2 SWAP3 SWAP2 POP POP JUMP JUMPDEST PUSH1 0x40 MLOAD DUP1 PUSH1 0xC0 ADD PUSH1 0x40 MSTORE DUP1 PUSH1 0x6 SWAP1 PUSH1 0x20 DUP3 MUL DUP1 CALLDATASIZE DUP4 CALLDATACOPY POP SWAP2 SWAP3 SWAP2 POP POP JUMP JUMPDEST PUSH1 0x40 MLOAD DUP1 PUSH1 0x20 ADD PUSH1 0x40 MSTORE DUP1 PUSH1 0x1 SWAP1 PUSH1 0x20 DUP3 MUL DUP1 CALLDATASIZE DUP4 CALLDATACOPY POP SWAP2 SWAP3 SWAP2 POP POP JUMP INVALID PUSH26 0x6F752063616E277420636861726765206D6F7265207468616E20 PUSH2 0x6C6C KECCAK256 PUSH21 0x6865204C494E4B20696E2074686520776F726C642C KECCAK256 PUSH8 0x7265656479466972 PUSH20 0x74206D756C7469706C69636174696F6E20636865 PUSH4 0x6B206661 PUSH10 0x6C65645365636F6E6420 PUSH14 0x756C7469706C69636174696F6E20 PUSH4 0x6865636B KECCAK256 PUSH7 0x61696C6564A264 PUSH10 0x70667358221220059D4D SWAP9 SHL CODECOPY 0xDA 0xE1 RETURN PUSH28 0xD47F54C9A06D5C8DF4B8CCCE8705FB9EA19164655E1064736F6C6343 STOP MOD MOD STOP CALLER "
		},
		"gasEstimates": {
			"creation": {
				"codeDepositCost": "1524000",
				"executionCost": "infinite",
				"totalCost": "infinite"
			},
			"external": {
				"PRESEED_OFFSET()": "220",
				"PROOF_LENGTH()": "286",
				"PUBLIC_KEY_OFFSET()": "287",
				"callbacks(bytes32)": "2081",
				"fulfillRandomnessRequest(bytes)": "infinite",
				"hashOfKey(uint256[2])": "infinite",
				"onTokenTransfer(address,uint256,bytes)": "infinite",
				"registerProvingKey(uint256,address,uint256[2],bytes32)": "infinite",
				"serviceAgreements(bytes32)": "2125",
				"withdraw(address,uint256)": "infinite",
				"withdrawableTokens(address)": "1125"
			},
			"internal": {
				"callBackWithRandomness(bytes32,uint256,address)": "infinite",
				"getRandomnessFromProof(bytes memory)": "infinite",
				"randomnessRequest(bytes32,uint256,uint256,address)": "infinite"
			}
		},
		"methodIdentifiers": {
			"PRESEED_OFFSET()": "b415f4f5",
			"PROOF_LENGTH()": "e911439c",
			"PUBLIC_KEY_OFFSET()": "8aa7927b",
			"callbacks(bytes32)": "21f36509",
			"fulfillRandomnessRequest(bytes)": "5e1c1059",
			"hashOfKey(uint256[2])": "caf70c4a",
			"onTokenTransfer(address,uint256,bytes)": "a4c0ed36",
			"registerProvingKey(uint256,address,uint256[2],bytes32)": "d8340209",
			"serviceAgreements(bytes32)": "75d35070",
			"withdraw(address,uint256)": "f3fef3a3",
			"withdrawableTokens(address)": "006f6ad0"
		}
	},
	"abi": [
		{
			"inputs": [
				{
					"internalType": "address",
					"name": "_link",
					"type": "address"
				},
				{
					"internalType": "address",
					"name": "_blockHashStore",
					"type": "address"
				}
			],
			"stateMutability": "nonpayable",
			"type": "constructor"
		},
		{
			"anonymous": false,
			"inputs": [
				{
					"indexed": false,
					"internalType": "bytes32",
					"name": "keyHash",
					"type": "bytes32"
				},
				{
					"indexed": false,
					"internalType": "uint256",
					"name": "fee",
					"type": "uint256"
				}
			],
			"name": "NewServiceAgreement",
			"type": "event"
		},
		{
			"anonymous": false,
			"inputs": [
				{
					"indexed": false,
					"internalType": "bytes32",
					"name": "keyHash",
					"type": "bytes32"
				},
				{
					"indexed": false,
					"internalType": "uint256",
					"name": "seed",
					"type": "uint256"
				},
				{
					"indexed": true,
					"internalType": "bytes32",
					"name": "jobID",
					"type": "bytes32"
				},
				{
					"indexed": false,
					"internalType": "address",
					"name": "sender",
					"type": "address"
				},
				{
					"indexed": false,
					"internalType": "uint256",
					"name": "fee",
					"type": "uint256"
				},
				{
					"indexed": false,
					"internalType": "bytes32",
					"name": "requestID",
					"type": "bytes32"
				}
			],
			"name": "RandomnessRequest",
			"type": "event"
		},
		{
			"anonymous": false,
			"inputs": [
				{
					"indexed": false,
					"internalType": "bytes32",
					"name": "requestId",
					"type": "bytes32"
				},
				{
					"indexed": false,
					"internalType": "uint256",
					"name": "output",
					"type": "uint256"
				}
			],
			"name": "RandomnessRequestFulfilled",
			"type": "event"
		},
		{
			"inputs": [],
			"name": "PRESEED_OFFSET",
			"outputs": [
				{
					"internalType": "uint256",
					"name": "",
					"type": "uint256"
				}
			],
			"stateMutability": "view",
			"type": "function"
		},
		{
			"inputs": [],
			"name": "PROOF_LENGTH",
			"outputs": [
				{
					"internalType": "uint256",
					"name": "",
					"type": "uint256"
				}
			],
			"stateMutability": "view",
			"type": "function"
		},
		{
			"inputs": [],
			"name": "PUBLIC_KEY_OFFSET",
			"outputs": [
				{
					"internalType": "uint256",
					"name": "",
					"type": "uint256"
				}
			],
			"stateMutability": "view",
			"type": "function"
		},
		{
			"inputs": [
				{
					"internalType": "bytes32",
					"name": "",
					"type": "bytes32"
				}
			],
			"name": "callbacks",
			"outputs": [
				{
					"internalType": "address",
					"name": "callbackContract",
					"type": "address"
				},
				{
					"internalType": "uint96",
					"name": "randomnessFee",
					"type": "uint96"
				},
				{
					"internalType": "bytes32",
					"name": "seedAndBlockNum",
					"type": "bytes32"
				}
			],
			"stateMutability": "view",
			"type": "function"
		},
		{
			"inputs": [
				{
					"internalType": "bytes",
					"name": "_proof",
					"type": "bytes"
				}
			],
			"name": "fulfillRandomnessRequest",
			"outputs": [],
			"stateMutability": "nonpayable",
			"type": "function"
		},
		{
			"inputs": [
				{
					"internalType": "uint256[2]",
					"name": "_publicKey",
					"type": "uint256[2]"
				}
			],
			"name": "hashOfKey",
			"outputs": [
				{
					"internalType": "bytes32",
					"name": "",
					"type": "bytes32"
				}
			],
			"stateMutability": "pure",
			"type": "function"
		},
		{
			"inputs": [
				{
					"internalType": "address",
					"name": "_sender",
					"type": "address"
				},
				{
					"internalType": "uint256",
					"name": "_fee",
					"type": "uint256"
				},
				{
					"internalType": "bytes",
					"name": "_data",
					"type": "bytes"
				}
			],
			"name": "onTokenTransfer",
			"outputs": [],
			"stateMutability": "nonpayable",
			"type": "function"
		},
		{
			"inputs": [
				{
					"internalType": "uint256",
					"name": "_fee",
					"type": "uint256"
				},
				{
					"internalType": "address",
					"name": "_oracle",
					"type": "address"
				},
				{
					"internalType": "uint256[2]",
					"name": "_publicProvingKey",
					"type": "uint256[2]"
				},
				{
					"internalType": "bytes32",
					"name": "_jobID",
					"type": "bytes32"
				}
			],
			"name": "registerProvingKey",
			"outputs": [],
			"stateMutability": "nonpayable",
			"type": "function"
		},
		{
			"inputs": [
				{
					"internalType": "bytes32",
					"name": "",
					"type": "bytes32"
				}
			],
			"name": "serviceAgreements",
			"outputs": [
				{
					"internalType": "address",
					"name": "vRFOracle",
					"type": "address"
				},
				{
					"internalType": "uint96",
					"name": "fee",
					"type": "uint96"
				},
				{
					"internalType": "bytes32",
					"name": "jobID",
					"type": "bytes32"
				}
			],
			"stateMutability": "view",
			"type": "function"
		},
		{
			"inputs": [
				{
					"internalType": "address",
					"name": "_recipient",
					"type": "address"
				},
				{
					"internalType": "uint256",
					"name": "_amount",
					"type": "uint256"
				}
			],
			"name": "withdraw",
			"outputs": [],
			"stateMutability": "nonpayable",
			"type": "function"
		},
		{
			"inputs": [
				{
					"internalType": "address",
					"name": "",
					"type": "address"
				}
			],
			"name": "withdrawableTokens",
			"outputs": [
				{
					"internalType": "uint256",
					"name": "",
					"type": "uint256"
				}
			],
			"stateMutability": "view",
			"type": "function"
		}
	]
}