{
	"source/BinanceBABT/contracts/SBT.sol": {
		"SBT": {
			"abi": [
				{
					"anonymous": false,
					"inputs": [
						{
							"indexed": true,
							"internalType": "address",
							"name": "to",
							"type": "address"
						},
						{
							"indexed": true,
							"internalType": "uint256",
							"name": "tokenId",
							"type": "uint256"
						}
					],
					"name": "Attest",
					"type": "event"
				},
				{
					"anonymous": false,
					"inputs": [
						{
							"indexed": true,
							"internalType": "address",
							"name": "from",
							"type": "address"
						},
						{
							"indexed": true,
							"internalType": "uint256",
							"name": "tokenId",
							"type": "uint256"
						}
					],
					"name": "Burn",
					"type": "event"
				},
				{
					"anonymous": false,
					"inputs": [
						{
							"indexed": false,
							"internalType": "uint8",
							"name": "version",
							"type": "uint8"
						}
					],
					"name": "Initialized",
					"type": "event"
				},
				{
					"anonymous": false,
					"inputs": [
						{
							"indexed": true,
							"internalType": "address",
							"name": "from",
							"type": "address"
						},
						{
							"indexed": true,
							"internalType": "uint256",
							"name": "tokenId",
							"type": "uint256"
						}
					],
					"name": "Revoke",
					"type": "event"
				},
				{
					"anonymous": false,
					"inputs": [
						{
							"indexed": true,
							"internalType": "bytes32",
							"name": "role",
							"type": "bytes32"
						},
						{
							"indexed": true,
							"internalType": "bytes32",
							"name": "previousAdminRole",
							"type": "bytes32"
						},
						{
							"indexed": true,
							"internalType": "bytes32",
							"name": "newAdminRole",
							"type": "bytes32"
						}
					],
					"name": "RoleAdminChanged",
					"type": "event"
				},
				{
					"anonymous": false,
					"inputs": [
						{
							"indexed": true,
							"internalType": "bytes32",
							"name": "role",
							"type": "bytes32"
						},
						{
							"indexed": true,
							"internalType": "address",
							"name": "account",
							"type": "address"
						},
						{
							"indexed": true,
							"internalType": "address",
							"name": "sender",
							"type": "address"
						}
					],
					"name": "RoleGranted",
					"type": "event"
				},
				{
					"anonymous": false,
					"inputs": [
						{
							"indexed": true,
							"internalType": "bytes32",
							"name": "role",
							"type": "bytes32"
						},
						{
							"indexed": true,
							"internalType": "address",
							"name": "account",
							"type": "address"
						},
						{
							"indexed": true,
							"internalType": "address",
							"name": "sender",
							"type": "address"
						}
					],
					"name": "RoleRevoked",
					"type": "event"
				},
				{
					"anonymous": false,
					"inputs": [
						{
							"indexed": true,
							"internalType": "address",
							"name": "from",
							"type": "address"
						},
						{
							"indexed": true,
							"internalType": "address",
							"name": "to",
							"type": "address"
						},
						{
							"indexed": true,
							"internalType": "uint256",
							"name": "tokenId",
							"type": "uint256"
						}
					],
					"name": "Transfer",
					"type": "event"
				},
				{
					"inputs": [],
					"name": "DEFAULT_ADMIN_ROLE",
					"outputs": [
						{
							"internalType": "bytes32",
							"name": "",
							"type": "bytes32"
						}
					],
					"stateMutability": "view",
					"type": "function"
				},
				{
					"inputs": [],
					"name": "OPERATOR_ROLE",
					"outputs": [
						{
							"internalType": "bytes32",
							"name": "",
							"type": "bytes32"
						}
					],
					"stateMutability": "view",
					"type": "function"
				},
				{
					"inputs": [
						{
							"internalType": "address",
							"name": "to",
							"type": "address"
						}
					],
					"name": "attest",
					"outputs": [
						{
							"internalType": "uint256",
							"name": "",
							"type": "uint256"
						}
					],
					"stateMutability": "nonpayable",
					"type": "function"
				},
				{
					"inputs": [
						{
							"internalType": "address",
							"name": "owner",
							"type": "address"
						}
					],
					"name": "balanceOf",
					"outputs": [
						{
							"internalType": "uint256",
							"name": "",
							"type": "uint256"
						}
					],
					"stateMutability": "view",
					"type": "function"
				},
				{
					"inputs": [
						{
							"internalType": "address[]",
							"name": "addrs",
							"type": "address[]"
						}
					],
					"name": "batchAttest",
					"outputs": [],
					"stateMutability": "nonpayable",
					"type": "function"
				},
				{
					"inputs": [
						{
							"internalType": "address[]",
							"name": "addrs",
							"type": "address[]"
						}
					],
					"name": "batchRevoke",
					"outputs": [],
					"stateMutability": "nonpayable",
					"type": "function"
				},
				{
					"inputs": [],
					"name": "burn",
					"outputs": [],
					"stateMutability": "nonpayable",
					"type": "function"
				},
				{
					"inputs": [
						{
							"internalType": "bytes32",
							"name": "role",
							"type": "bytes32"
						}
					],
					"name": "getRoleAdmin",
					"outputs": [
						{
							"internalType": "bytes32",
							"name": "",
							"type": "bytes32"
						}
					],
					"stateMutability": "view",
					"type": "function"
				},
				{
					"inputs": [
						{
							"internalType": "bytes32",
							"name": "role",
							"type": "bytes32"
						},
						{
							"internalType": "address",
							"name": "account",
							"type": "address"
						}
					],
					"name": "grantRole",
					"outputs": [],
					"stateMutability": "nonpayable",
					"type": "function"
				},
				{
					"inputs": [
						{
							"internalType": "bytes32",
							"name": "role",
							"type": "bytes32"
						},
						{
							"internalType": "address",
							"name": "account",
							"type": "address"
						}
					],
					"name": "hasRole",
					"outputs": [
						{
							"internalType": "bool",
							"name": "",
							"type": "bool"
						}
					],
					"stateMutability": "view",
					"type": "function"
				},
				{
					"inputs": [
						{
							"internalType": "string",
							"name": "name_",
							"type": "string"
						},
						{
							"internalType": "string",
							"name": "symbol_",
							"type": "string"
						},
						{
							"internalType": "address",
							"name": "admin_",
							"type": "address"
						}
					],
					"name": "initialize",
					"outputs": [],
					"stateMutability": "nonpayable",
					"type": "function"
				},
				{
					"inputs": [
						{
							"internalType": "address",
							"name": "account",
							"type": "address"
						}
					],
					"name": "isAdmin",
					"outputs": [
						{
							"internalType": "bool",
							"name": "",
							"type": "bool"
						}
					],
					"stateMutability": "view",
					"type": "function"
				},
				{
					"inputs": [
						{
							"internalType": "address",
							"name": "account",
							"type": "address"
						}
					],
					"name": "isOperator",
					"outputs": [
						{
							"internalType": "bool",
							"name": "",
							"type": "bool"
						}
					],
					"stateMutability": "view",
					"type": "function"
				},
				{
					"inputs": [],
					"name": "name",
					"outputs": [
						{
							"internalType": "string",
							"name": "",
							"type": "string"
						}
					],
					"stateMutability": "view",
					"type": "function"
				},
				{
					"inputs": [
						{
							"internalType": "uint256",
							"name": "tokenId",
							"type": "uint256"
						}
					],
					"name": "ownerOf",
					"outputs": [
						{
							"internalType": "address",
							"name": "",
							"type": "address"
						}
					],
					"stateMutability": "view",
					"type": "function"
				},
				{
					"inputs": [
						{
							"internalType": "bytes32",
							"name": "role",
							"type": "bytes32"
						},
						{
							"internalType": "address",
							"name": "account",
							"type": "address"
						}
					],
					"name": "renounceRole",
					"outputs": [],
					"stateMutability": "nonpayable",
					"type": "function"
				},
				{
					"inputs": [
						{
							"internalType": "address",
							"name": "from",
							"type": "address"
						}
					],
					"name": "revoke",
					"outputs": [],
					"stateMutability": "nonpayable",
					"type": "function"
				},
				{
					"inputs": [
						{
							"internalType": "bytes32",
							"name": "role",
							"type": "bytes32"
						},
						{
							"internalType": "address",
							"name": "account",
							"type": "address"
						}
					],
					"name": "revokeRole",
					"outputs": [],
					"stateMutability": "nonpayable",
					"type": "function"
				},
				{
					"inputs": [
						{
							"internalType": "string",
							"name": "uri",
							"type": "string"
						}
					],
					"name": "setBaseTokenURI",
					"outputs": [],
					"stateMutability": "nonpayable",
					"type": "function"
				},
				{
					"inputs": [
						{
							"internalType": "bytes4",
							"name": "interfaceId",
							"type": "bytes4"
						}
					],
					"name": "supportsInterface",
					"outputs": [
						{
							"internalType": "bool",
							"name": "",
							"type": "bool"
						}
					],
					"stateMutability": "view",
					"type": "function"
				},
				{
					"inputs": [],
					"name": "symbol",
					"outputs": [
						{
							"internalType": "string",
							"name": "",
							"type": "string"
						}
					],
					"stateMutability": "view",
					"type": "function"
				},
				{
					"inputs": [
						{
							"internalType": "address",
							"name": "from",
							"type": "address"
						}
					],
					"name": "tokenIdOf",
					"outputs": [
						{
							"internalType": "uint256",
							"name": "",
							"type": "uint256"
						}
					],
					"stateMutability": "view",
					"type": "function"
				},
				{
					"inputs": [
						{
							"internalType": "uint256",
							"name": "tokenId",
							"type": "uint256"
						}
					],
					"name": "tokenURI",
					"outputs": [
						{
							"internalType": "string",
							"name": "",
							"type": "string"
						}
					],
					"stateMutability": "view",
					"type": "function"
				},
				{
					"inputs": [],
					"name": "totalSupply",
					"outputs": [
						{
							"internalType": "uint256",
							"name": "",
							"type": "uint256"
						}
					],
					"stateMutability": "view",
					"type": "function"
				}
			],
			"devdoc": {
				"kind": "dev",
				"methods": {
					"attest(address)": {
						"details": "Mints SBT Requirements: - `to` must be valid. - `to` must not exist. Emits a {Attest} event. Emits a {Transfer} event.",
						"returns": {
							"_0": "The tokenId of the minted SBT"
						}
					},
					"balanceOf(address)": {
						"details": "SBTs assigned to the zero address is considered invalid, and this function throws for queries about the zero address.",
						"params": {
							"owner": "An address for whom to query the balance"
						},
						"returns": {
							"_0": "The number of SBTs owned by `owner`, possibly zero"
						}
					},
					"getRoleAdmin(bytes32)": {
						"details": "Returns the admin role that controls `role`. See {grantRole} and {revokeRole}. To change a role's admin, use {_setRoleAdmin}."
					},
					"grantRole(bytes32,address)": {
						"details": "Grants `role` to `account`. If `account` had not been already granted `role`, emits a {RoleGranted} event. Requirements: - the caller must have ``role``'s admin role. May emit a {RoleGranted} event."
					},
					"hasRole(bytes32,address)": {
						"details": "Returns `true` if `account` has been granted `role`."
					},
					"initialize(string,string,address)": {
						"details": "Initializes the contract by setting a `name` and a `symbol` to the token collection."
					},
					"ownerOf(uint256)": {
						"details": "SBTs assigned to zero address are considered invalid, and queries  about them do throw.",
						"params": {
							"tokenId": "The identifier for an SBT"
						},
						"returns": {
							"_0": "The address of the owner bound to the SBT"
						}
					},
					"renounceRole(bytes32,address)": {
						"details": "Revokes `role` from the calling account. Roles are often managed via {grantRole} and {revokeRole}: this function's purpose is to provide a mechanism for accounts to lose their privileges if they are compromised (such as when a trusted device is misplaced). If the calling account had been revoked `role`, emits a {RoleRevoked} event. Requirements: - the caller must be `account`. May emit a {RoleRevoked} event."
					},
					"revoke(address)": {
						"details": "Revokes SBT Requirements: - `from` must exist. Emits a {Revoke} event. Emits a {Transfer} event."
					},
					"revokeRole(bytes32,address)": {
						"details": "Revokes `role` from `account`. If `account` had been granted `role`, emits a {RoleRevoked} event. Requirements: - the caller must have ``role``'s admin role. May emit a {RoleRevoked} event."
					},
					"setBaseTokenURI(string)": {
						"details": "Update _baseTokenURI"
					},
					"supportsInterface(bytes4)": {
						"details": "See {IERC165-supportsInterface}."
					},
					"tokenIdOf(address)": {
						"params": {
							"from": "The address of the SBT owner"
						},
						"returns": {
							"_0": "The tokenId of the owner's SBT, and throw an error if there is no SBT belongs to the given address"
						}
					},
					"tokenURI(uint256)": {
						"details": "See {IERC721Metadata-tokenURI}."
					},
					"totalSupply()": {
						"details": "Returns the amount of tokens in existence."
					}
				},
				"stateVariables": {
					"name": {
						"details": "Returns the token collection name."
					},
					"symbol": {
						"details": "Returns the token collection symbol."
					}
				},
				"version": 1
			},
			"evm": {
				"assembly": "    /* \"source/BinanceBABT/contracts/SBT.sol\":628:6698  contract SBT is Initializable, AccessControl, ISBT721, IERC721Metadata {... */\n  mstore(0x40, 0x80)\n  callvalue\n  dup1\n  iszero\n  tag_1\n  jumpi\n  0x00\n  dup1\n  revert\ntag_1:\n  pop\n  dataSize(sub_0)\n  dup1\n  dataOffset(sub_0)\n  0x00\n  codecopy\n  0x00\n  return\nstop\n\nsub_0: assembly {\n        /* \"source/BinanceBABT/contracts/SBT.sol\":628:6698  contract SBT is Initializable, AccessControl, ISBT721, IERC721Metadata {... */\n      mstore(0x40, 0x80)\n      callvalue\n      dup1\n      iszero\n      tag_1\n      jumpi\n      0x00\n      dup1\n      revert\n    tag_1:\n      pop\n      jumpi(tag_2, lt(calldatasize, 0x04))\n      shr(0xe0, calldataload(0x00))\n      dup1\n      0x6c60144a\n      gt\n      tag_27\n      jumpi\n      dup1\n      0x95d89b41\n      gt\n      tag_28\n      jumpi\n      dup1\n      0xd547741f\n      gt\n      tag_29\n      jumpi\n      dup1\n      0xd547741f\n      eq\n      tag_24\n      jumpi\n      dup1\n      0xeb31403f\n      eq\n      tag_25\n      jumpi\n      dup1\n      0xf5b541a6\n      eq\n      tag_26\n      jumpi\n      0x00\n      dup1\n      revert\n    tag_29:\n      dup1\n      0x95d89b41\n      eq\n      tag_21\n      jumpi\n      dup1\n      0xa217fddf\n      eq\n      tag_22\n      jumpi\n      dup1\n      0xc87b56dd\n      eq\n      tag_23\n      jumpi\n      0x00\n      dup1\n      revert\n    tag_28:\n      dup1\n      0x74a8f103\n      gt\n      tag_30\n      jumpi\n      dup1\n      0x74a8f103\n      eq\n      tag_18\n      jumpi\n      dup1\n      0x773c02d4\n      eq\n      tag_19\n      jumpi\n      dup1\n      0x91d14854\n      eq\n      tag_20\n      jumpi\n      0x00\n      dup1\n      revert\n    tag_30:\n      dup1\n      0x6c60144a\n      eq\n      tag_15\n      jumpi\n      dup1\n      0x6d70f7ae\n      eq\n      tag_16\n      jumpi\n      dup1\n      0x70a08231\n      eq\n      tag_17\n      jumpi\n      0x00\n      dup1\n      revert\n    tag_27:\n      dup1\n      0x24d7806c\n      gt\n      tag_31\n      jumpi\n      dup1\n      0x36568abe\n      gt\n      tag_32\n      jumpi\n      dup1\n      0x36568abe\n      eq\n      tag_12\n      jumpi\n      dup1\n      0x44df8e70\n      eq\n      tag_13\n      jumpi\n      dup1\n      0x6352211e\n      eq\n      tag_14\n      jumpi\n      0x00\n      dup1\n      revert\n    tag_32:\n      dup1\n      0x24d7806c\n      eq\n      tag_9\n      jumpi\n      dup1\n      0x2f2ff15d\n      eq\n      tag_10\n      jumpi\n      dup1\n      0x30176e13\n      eq\n      tag_11\n      jumpi\n      0x00\n      dup1\n      revert\n    tag_31:\n      dup1\n      0x077f224a\n      gt\n      tag_33\n      jumpi\n      dup1\n      0x077f224a\n      eq\n      tag_6\n      jumpi\n      dup1\n      0x18160ddd\n      eq\n      tag_7\n      jumpi\n      dup1\n      0x248a9ca3\n      eq\n      tag_8\n      jumpi\n      0x00\n      dup1\n      revert\n    tag_33:\n      dup1\n      0x011002df\n      eq\n      tag_3\n      jumpi\n      dup1\n      0x01ffc9a7\n      eq\n      tag_4\n      jumpi\n      dup1\n      0x06fdde03\n      eq\n      tag_5\n      jumpi\n    tag_2:\n      0x00\n      dup1\n      revert\n        /* \"source/BinanceBABT/contracts/SBT.sol\":3716:4472  function batchRevoke(address[] calldata addrs) external {... */\n    tag_3:\n      tag_34\n      tag_35\n      calldatasize\n      0x04\n      tag_36\n      jump\t// in\n    tag_35:\n      tag_37\n      jump\t// in\n    tag_34:\n      stop\n        /* \"source/BinanceBABT/contracts/SBT.sol\":6369:6696  function supportsInterface(bytes4 interfaceId)... */\n    tag_4:\n      tag_38\n      tag_39\n      calldatasize\n      0x04\n      tag_40\n      jump\t// in\n    tag_39:\n      tag_41\n      jump\t// in\n    tag_38:\n      mload(0x40)\n        /* \"#utility.yul\":1136:1150   */\n      swap1\n      iszero\n        /* \"#utility.yul\":1129:1151   */\n      iszero\n        /* \"#utility.yul\":1111:1152   */\n      dup2\n      mstore\n        /* \"#utility.yul\":1099:1101   */\n      0x20\n        /* \"#utility.yul\":1084:1102   */\n      add\n        /* \"source/BinanceBABT/contracts/SBT.sol\":6369:6696  function supportsInterface(bytes4 interfaceId)... */\n    tag_42:\n      mload(0x40)\n      dup1\n      swap2\n      sub\n      swap1\n      return\n        /* \"source/BinanceBABT/contracts/SBT.sol\":1127:1145  string public name */\n    tag_5:\n      tag_44\n      tag_45\n      jump\t// in\n    tag_44:\n      mload(0x40)\n      tag_42\n      swap2\n      swap1\n      tag_47\n      jump\t// in\n        /* \"source/BinanceBABT/contracts/SBT.sol\":1453:1790  function initialize(... */\n    tag_6:\n      tag_34\n      tag_49\n      calldatasize\n      0x04\n      tag_50\n      jump\t// in\n    tag_49:\n      tag_51\n      jump\t// in\n        /* \"source/BinanceBABT/contracts/SBT.sol\":5644:5741  function totalSupply() external view returns (uint256) {... */\n    tag_7:\n      tag_52\n      tag_53\n      jump\t// in\n    tag_52:\n      mload(0x40)\n        /* \"#utility.yul\":3819:3844   */\n      swap1\n      dup2\n      mstore\n        /* \"#utility.yul\":3807:3809   */\n      0x20\n        /* \"#utility.yul\":3792:3810   */\n      add\n        /* \"source/BinanceBABT/contracts/SBT.sol\":5644:5741  function totalSupply() external view returns (uint256) {... */\n      tag_42\n        /* \"#utility.yul\":3673:3850   */\n      jump\n        /* \"source/BinanceBABT/contracts/access/AccessControl.sol\":4374:4503  function getRoleAdmin(bytes32 role) public view virtual override returns (bytes32) {... */\n    tag_8:\n      tag_52\n      tag_57\n      calldatasize\n      0x04\n      tag_58\n      jump\t// in\n    tag_57:\n        /* \"source/BinanceBABT/contracts/access/AccessControl.sol\":4448:4455  bytes32 */\n      0x00\n        /* \"source/BinanceBABT/contracts/access/AccessControl.sol\":4474:4486  _roles[role] */\n      swap1\n      dup2\n      mstore\n        /* \"source/BinanceBABT/contracts/access/AccessControl.sol\":4474:4480  _roles */\n      0x01\n        /* \"source/BinanceBABT/contracts/access/AccessControl.sol\":4474:4486  _roles[role] */\n      0x20\n      dup2\n      swap1\n      mstore\n      0x40\n      swap1\n      swap2\n      keccak256\n        /* \"source/BinanceBABT/contracts/access/AccessControl.sol\":4474:4496  _roles[role].adminRole */\n      add\n      sload\n      swap1\n        /* \"source/BinanceBABT/contracts/access/AccessControl.sol\":4374:4503  function getRoleAdmin(bytes32 role) public view virtual override returns (bytes32) {... */\n      jump\n        /* \"source/BinanceBABT/contracts/SBT.sol\":5874:5997  function isAdmin(address account) external view returns (bool) {... */\n    tag_9:\n      tag_38\n      tag_63\n      calldatasize\n      0x04\n      tag_64\n      jump\t// in\n    tag_63:\n      tag_65\n      jump\t// in\n        /* \"source/BinanceBABT/contracts/access/AccessControl.sol\":4799:4944  function grantRole(bytes32 role, address account) public virtual override onlyRole(getRoleAdmin(role)) {... */\n    tag_10:\n      tag_34\n      tag_68\n      calldatasize\n      0x04\n      tag_69\n      jump\t// in\n    tag_68:\n      tag_70\n      jump\t// in\n        /* \"source/BinanceBABT/contracts/SBT.sol\":4930:5185  function setBaseTokenURI(string calldata uri) public {... */\n    tag_11:\n      tag_34\n      tag_72\n      calldatasize\n      0x04\n      tag_73\n      jump\t// in\n    tag_72:\n      tag_74\n      jump\t// in\n        /* \"source/BinanceBABT/contracts/access/AccessControl.sol\":5908:6122  function renounceRole(bytes32 role, address account) public virtual override {... */\n    tag_12:\n      tag_34\n      tag_76\n      calldatasize\n      0x04\n      tag_69\n      jump\t// in\n    tag_76:\n      tag_77\n      jump\t// in\n        /* \"source/BinanceBABT/contracts/SBT.sol\":4478:4875  function burn() external {... */\n    tag_13:\n      tag_34\n      tag_79\n      jump\t// in\n        /* \"source/BinanceBABT/contracts/SBT.sol\":5507:5638  function ownerOf(uint256 tokenId) external view returns (address) {... */\n    tag_14:\n      tag_80\n      tag_81\n      calldatasize\n      0x04\n      tag_58\n      jump\t// in\n    tag_81:\n      tag_83\n      jump\t// in\n    tag_80:\n      mload(0x40)\n        /* \"#utility.yul\":5630:5672   */\n      0xffffffffffffffffffffffffffffffffffffffff\n        /* \"#utility.yul\":5618:5673   */\n      swap1\n      swap2\n      and\n        /* \"#utility.yul\":5600:5674   */\n      dup2\n      mstore\n        /* \"#utility.yul\":5588:5590   */\n      0x20\n        /* \"#utility.yul\":5573:5591   */\n      add\n        /* \"source/BinanceBABT/contracts/SBT.sol\":5507:5638  function ownerOf(uint256 tokenId) external view returns (address) {... */\n      tag_42\n        /* \"#utility.yul\":5454:5680   */\n      jump\n        /* \"source/BinanceBABT/contracts/SBT.sol\":2388:3171  function batchAttest(address[] calldata addrs) external {... */\n    tag_15:\n      tag_34\n      tag_87\n      calldatasize\n      0x04\n      tag_36\n      jump\t// in\n    tag_87:\n      tag_88\n      jump\t// in\n        /* \"source/BinanceBABT/contracts/SBT.sol\":5747:5868  function isOperator(address account) external view returns (bool) {... */\n    tag_16:\n      tag_38\n      tag_90\n      calldatasize\n      0x04\n      tag_64\n      jump\t// in\n    tag_90:\n      tag_91\n      jump\t// in\n        /* \"source/BinanceBABT/contracts/SBT.sol\":5191:5348  function balanceOf(address owner) external view returns (uint256) {... */\n    tag_17:\n      tag_52\n      tag_94\n      calldatasize\n      0x04\n      tag_64\n      jump\t// in\n    tag_94:\n      tag_95\n      jump\t// in\n        /* \"source/BinanceBABT/contracts/SBT.sol\":3177:3710  function revoke(address from) external {... */\n    tag_18:\n      tag_34\n      tag_98\n      calldatasize\n      0x04\n      tag_64\n      jump\t// in\n    tag_98:\n      tag_99\n      jump\t// in\n        /* \"source/BinanceBABT/contracts/SBT.sol\":5354:5501  function tokenIdOf(address from) external view returns (uint256) {... */\n    tag_19:\n      tag_52\n      tag_101\n      calldatasize\n      0x04\n      tag_64\n      jump\t// in\n    tag_101:\n      tag_102\n      jump\t// in\n        /* \"source/BinanceBABT/contracts/access/AccessControl.sol\":2891:3036  function hasRole(bytes32 role, address account) public view virtual override returns (bool) {... */\n    tag_20:\n      tag_38\n      tag_105\n      calldatasize\n      0x04\n      tag_69\n      jump\t// in\n    tag_105:\n        /* \"source/BinanceBABT/contracts/access/AccessControl.sol\":2977:2981  bool */\n      0x00\n        /* \"source/BinanceBABT/contracts/access/AccessControl.sol\":3000:3012  _roles[role] */\n      swap2\n      dup3\n      mstore\n        /* \"source/BinanceBABT/contracts/access/AccessControl.sol\":3000:3006  _roles */\n      0x01\n        /* \"source/BinanceBABT/contracts/access/AccessControl.sol\":3000:3012  _roles[role] */\n      0x20\n      swap1\n      dup2\n      mstore\n      0x40\n      dup1\n      dup5\n      keccak256\n        /* \"source/BinanceBABT/contracts/access/AccessControl.sol\":3000:3029  _roles[role].members[account] */\n      0xffffffffffffffffffffffffffffffffffffffff\n      swap4\n      swap1\n      swap4\n      and\n      dup5\n      mstore\n      swap2\n      swap1\n      mstore\n      swap1\n      keccak256\n      sload\n      0xff\n      and\n      swap1\n        /* \"source/BinanceBABT/contracts/access/AccessControl.sol\":2891:3036  function hasRole(bytes32 role, address account) public view virtual override returns (bool) {... */\n      jump\n        /* \"source/BinanceBABT/contracts/SBT.sol\":1172:1192  string public symbol */\n    tag_21:\n      tag_44\n      tag_109\n      jump\t// in\n        /* \"source/BinanceBABT/contracts/access/AccessControl.sol\":2023:2072  bytes32 public constant DEFAULT_ADMIN_ROLE = 0x00 */\n    tag_22:\n      tag_52\n        /* \"source/BinanceBABT/contracts/access/AccessControl.sol\":2068:2072  0x00 */\n      0x00\n        /* \"source/BinanceBABT/contracts/access/AccessControl.sol\":2023:2072  bytes32 public constant DEFAULT_ADMIN_ROLE = 0x00 */\n      dup2\n      jump\n        /* \"source/BinanceBABT/contracts/SBT.sol\":6063:6302  function tokenURI(uint256 tokenId) external view returns (string memory) {... */\n    tag_23:\n      tag_44\n      tag_115\n      calldatasize\n      0x04\n      tag_58\n      jump\t// in\n    tag_115:\n      tag_116\n      jump\t// in\n        /* \"source/BinanceBABT/contracts/access/AccessControl.sol\":5224:5371  function revokeRole(bytes32 role, address account) public virtual override onlyRole(getRoleAdmin(role)) {... */\n    tag_24:\n      tag_34\n      tag_119\n      calldatasize\n      0x04\n      tag_69\n      jump\t// in\n    tag_119:\n      tag_120\n      jump\t// in\n        /* \"source/BinanceBABT/contracts/SBT.sol\":1796:2382  function attest(address to) external returns (uint256) {... */\n    tag_25:\n      tag_52\n      tag_122\n      calldatasize\n      0x04\n      tag_64\n      jump\t// in\n    tag_122:\n      tag_123\n      jump\t// in\n        /* \"source/BinanceBABT/contracts/SBT.sol\":1267:1333  bytes32 public constant OPERATOR_ROLE = keccak256(\"OPERATOR_ROLE\") */\n    tag_26:\n      tag_52\n        /* \"source/BinanceBABT/contracts/SBT.sol\":1307:1333  keccak256(\"OPERATOR_ROLE\") */\n      0x97667070c54ef182b0f5858b034beac1b6f3089aa2d3188bb1e8929f4fa9b929\n        /* \"source/BinanceBABT/contracts/SBT.sol\":1267:1333  bytes32 public constant OPERATOR_ROLE = keccak256(\"OPERATOR_ROLE\") */\n      dup2\n      jump\n        /* \"source/BinanceBABT/contracts/SBT.sol\":3716:4472  function batchRevoke(address[] calldata addrs) external {... */\n    tag_37:\n        /* \"source/BinanceBABT/contracts/utils/Context.sol\":719:729  msg.sender */\n      caller\n        /* \"source/BinanceBABT/contracts/access/AccessControl.sol\":2977:2981  bool */\n      0x00\n        /* \"source/BinanceBABT/contracts/access/AccessControl.sol\":3000:3029  _roles[role].members[account] */\n      swap1\n      dup2\n      mstore\n        /* \"source/BinanceBABT/contracts/access/AccessControl.sol\":3000:3012  _roles[role] */\n      0x31c1e66639f421f1853aeefe8ad6b62a3b96f3287efe23106923cd924aa025c2\n      0x20\n        /* \"source/BinanceBABT/contracts/access/AccessControl.sol\":3000:3029  _roles[role].members[account] */\n      mstore\n        /* \"source/BinanceBABT/contracts/access/AccessControl.sol\":3000:3012  _roles[role] */\n      0x40\n        /* \"source/BinanceBABT/contracts/access/AccessControl.sol\":3000:3029  _roles[role].members[account] */\n      swap1\n      keccak256\n      sload\n        /* \"source/BinanceBABT/contracts/SBT.sol\":3803:3808  addrs */\n      dup2\n      swap1\n        /* \"source/BinanceBABT/contracts/access/AccessControl.sol\":3000:3029  _roles[role].members[account] */\n      0xff\n      and\n        /* \"source/BinanceBABT/contracts/SBT.sol\":3826:3963  require(... */\n      tag_132\n      jumpi\n      mload(0x40)\n      0x08c379a000000000000000000000000000000000000000000000000000000000\n      dup2\n      mstore\n        /* \"#utility.yul\":5887:5889   */\n      0x20\n        /* \"source/BinanceBABT/contracts/SBT.sol\":3826:3963  require(... */\n      0x04\n      dup3\n      add\n        /* \"#utility.yul\":5869:5890   */\n      mstore\n        /* \"#utility.yul\":5926:5928   */\n      0x36\n        /* \"#utility.yul\":5906:5924   */\n      0x24\n      dup3\n      add\n        /* \"#utility.yul\":5899:5929   */\n      mstore\n        /* \"#utility.yul\":5965:5999   */\n      0x4f6e6c7920746865206163636f756e742077697468204f50455241544f525f52\n        /* \"#utility.yul\":5945:5963   */\n      0x44\n      dup3\n      add\n        /* \"#utility.yul\":5938:6000   */\n      mstore\n        /* \"#utility.yul\":6036:6060   */\n      0x4f4c452063616e207265766f6b65207468652053425400000000000000000000\n        /* \"#utility.yul\":6016:6034   */\n      0x64\n      dup3\n      add\n        /* \"#utility.yul\":6009:6061   */\n      mstore\n        /* \"#utility.yul\":6078:6097   */\n      0x84\n      add\n        /* \"source/BinanceBABT/contracts/SBT.sol\":3826:3963  require(... */\n    tag_133:\n      mload(0x40)\n      dup1\n      swap2\n      sub\n      swap1\n      revert\n    tag_132:\n        /* \"source/BinanceBABT/contracts/SBT.sol\":3995:3998  100 */\n      0x64\n        /* \"source/BinanceBABT/contracts/SBT.sol\":3981:3991  addrLength */\n      dup2\n        /* \"source/BinanceBABT/contracts/SBT.sol\":3981:3998  addrLength <= 100 */\n      gt\n      iszero\n        /* \"source/BinanceBABT/contracts/SBT.sol\":3973:4037  require(addrLength <= 100, \"The max length of addresses is 100\") */\n      tag_135\n      jumpi\n      mload(0x40)\n      0x08c379a000000000000000000000000000000000000000000000000000000000\n      dup2\n      mstore\n        /* \"#utility.yul\":6310:6312   */\n      0x20\n        /* \"source/BinanceBABT/contracts/SBT.sol\":3973:4037  require(addrLength <= 100, \"The max length of addresses is 100\") */\n      0x04\n      dup3\n      add\n        /* \"#utility.yul\":6292:6313   */\n      mstore\n        /* \"#utility.yul\":6349:6351   */\n      0x22\n        /* \"#utility.yul\":6329:6347   */\n      0x24\n      dup3\n      add\n        /* \"#utility.yul\":6322:6352   */\n      mstore\n        /* \"#utility.yul\":6388:6422   */\n      0x546865206d6178206c656e677468206f66206164647265737365732069732031\n        /* \"#utility.yul\":6368:6386   */\n      0x44\n      dup3\n      add\n        /* \"#utility.yul\":6361:6423   */\n      mstore\n        /* \"#utility.yul\":6459:6463   */\n      0x3030000000000000000000000000000000000000000000000000000000000000\n        /* \"#utility.yul\":6439:6457   */\n      0x64\n      dup3\n      add\n        /* \"#utility.yul\":6432:6464   */\n      mstore\n        /* \"#utility.yul\":6481:6500   */\n      0x84\n      add\n        /* \"source/BinanceBABT/contracts/SBT.sol\":3973:4037  require(addrLength <= 100, \"The max length of addresses is 100\") */\n      tag_133\n        /* \"#utility.yul\":6108:6506   */\n      jump\n        /* \"source/BinanceBABT/contracts/SBT.sol\":3973:4037  require(addrLength <= 100, \"The max length of addresses is 100\") */\n    tag_135:\n        /* \"source/BinanceBABT/contracts/SBT.sol\":4053:4060  uint8 i */\n      0x00\n        /* \"source/BinanceBABT/contracts/SBT.sol\":4048:4466  for (uint8 i = 0; i < addrLength; i++) {... */\n    tag_138:\n        /* \"source/BinanceBABT/contracts/SBT.sol\":4070:4080  addrLength */\n      dup2\n        /* \"source/BinanceBABT/contracts/SBT.sol\":4066:4067  i */\n      dup2\n        /* \"source/BinanceBABT/contracts/SBT.sol\":4066:4080  i < addrLength */\n      0xff\n      and\n      lt\n        /* \"source/BinanceBABT/contracts/SBT.sol\":4048:4466  for (uint8 i = 0; i < addrLength; i++) {... */\n      iszero\n      tag_139\n      jumpi\n        /* \"source/BinanceBABT/contracts/SBT.sol\":4101:4113  address from */\n      0x00\n        /* \"source/BinanceBABT/contracts/SBT.sol\":4116:4121  addrs */\n      dup5\n      dup5\n        /* \"source/BinanceBABT/contracts/SBT.sol\":4122:4123  i */\n      dup4\n        /* \"source/BinanceBABT/contracts/SBT.sol\":4116:4124  addrs[i] */\n      0xff\n      and\n      dup2\n      dup2\n      lt\n      tag_142\n      jumpi\n      tag_142\n      tag_143\n      jump\t// in\n    tag_142:\n      swap1\n      pop\n      0x20\n      mul\n      add\n      0x20\n      dup2\n      add\n      swap1\n      tag_144\n      swap2\n      swap1\n      tag_64\n      jump\t// in\n    tag_144:\n        /* \"source/BinanceBABT/contracts/SBT.sol\":4101:4124  address from = addrs[i] */\n      swap1\n      pop\n        /* \"source/BinanceBABT/contracts/SBT.sol\":4143:4161  from == address(0) */\n      0xffffffffffffffffffffffffffffffffffffffff\n      dup2\n      and\n      iszero\n      dup1\n        /* \"source/BinanceBABT/contracts/SBT.sol\":4143:4190  from == address(0) || !_tokenMap.contains(from) */\n      tag_145\n      jumpi\n      pop\n        /* \"source/BinanceBABT/contracts/SBT.sol\":4166:4190  _tokenMap.contains(from) */\n      tag_146\n        /* \"source/BinanceBABT/contracts/SBT.sol\":4166:4175  _tokenMap */\n      0x05\n        /* \"source/BinanceBABT/contracts/SBT.sol\":4185:4189  from */\n      dup3\n        /* \"source/BinanceBABT/contracts/SBT.sol\":4166:4184  _tokenMap.contains */\n      tag_147\n        /* \"source/BinanceBABT/contracts/SBT.sol\":4166:4190  _tokenMap.contains(from) */\n      jump\t// in\n    tag_146:\n        /* \"source/BinanceBABT/contracts/SBT.sol\":4165:4190  !_tokenMap.contains(from) */\n      iszero\n        /* \"source/BinanceBABT/contracts/SBT.sol\":4143:4190  from == address(0) || !_tokenMap.contains(from) */\n    tag_145:\n        /* \"source/BinanceBABT/contracts/SBT.sol\":4139:4233  if (from == address(0) || !_tokenMap.contains(from)) {... */\n      iszero\n      tag_148\n      jumpi\n        /* \"source/BinanceBABT/contracts/SBT.sol\":4210:4218  continue */\n      pop\n      jump(tag_140)\n        /* \"source/BinanceBABT/contracts/SBT.sol\":4139:4233  if (from == address(0) || !_tokenMap.contains(from)) {... */\n    tag_148:\n        /* \"source/BinanceBABT/contracts/SBT.sol\":4247:4262  uint256 tokenId */\n      0x00\n        /* \"source/BinanceBABT/contracts/SBT.sol\":4265:4284  _tokenMap.get(from) */\n      tag_149\n        /* \"source/BinanceBABT/contracts/SBT.sol\":4265:4274  _tokenMap */\n      0x05\n        /* \"source/BinanceBABT/contracts/SBT.sol\":4279:4283  from */\n      dup4\n        /* \"source/BinanceBABT/contracts/SBT.sol\":4265:4278  _tokenMap.get */\n      tag_150\n        /* \"source/BinanceBABT/contracts/SBT.sol\":4265:4284  _tokenMap.get(from) */\n      jump\t// in\n    tag_149:\n        /* \"source/BinanceBABT/contracts/SBT.sol\":4247:4284  uint256 tokenId = _tokenMap.get(from) */\n      swap1\n      pop\n        /* \"source/BinanceBABT/contracts/SBT.sol\":4299:4321  _tokenMap.remove(from) */\n      tag_151\n        /* \"source/BinanceBABT/contracts/SBT.sol\":4299:4308  _tokenMap */\n      0x05\n        /* \"source/BinanceBABT/contracts/SBT.sol\":4316:4320  from */\n      dup4\n        /* \"source/BinanceBABT/contracts/SBT.sol\":4299:4315  _tokenMap.remove */\n      tag_152\n        /* \"source/BinanceBABT/contracts/SBT.sol\":4299:4321  _tokenMap.remove(from) */\n      jump\t// in\n    tag_151:\n      pop\n        /* \"source/BinanceBABT/contracts/SBT.sol\":4335:4360  _ownerMap.remove(tokenId) */\n      tag_153\n        /* \"source/BinanceBABT/contracts/SBT.sol\":4335:4344  _ownerMap */\n      0x02\n        /* \"source/BinanceBABT/contracts/SBT.sol\":4352:4359  tokenId */\n      dup3\n        /* \"source/BinanceBABT/contracts/SBT.sol\":4335:4351  _ownerMap.remove */\n      tag_154\n        /* \"source/BinanceBABT/contracts/SBT.sol\":4335:4360  _ownerMap.remove(tokenId) */\n      jump\t// in\n    tag_153:\n      pop\n        /* \"source/BinanceBABT/contracts/SBT.sol\":4380:4401  Revoke(from, tokenId) */\n      mload(0x40)\n        /* \"source/BinanceBABT/contracts/SBT.sol\":4393:4400  tokenId */\n      dup2\n      swap1\n        /* \"source/BinanceBABT/contracts/SBT.sol\":4380:4401  Revoke(from, tokenId) */\n      0xffffffffffffffffffffffffffffffffffffffff\n      dup5\n      and\n      swap1\n      0xec9ab91322523c899ede7830ec9bfc992b5981cdcc27b91162fb23de5791117b\n      swap1\n      0x00\n      swap1\n      log3\n        /* \"source/BinanceBABT/contracts/SBT.sol\":4420:4455  Transfer(from, address(0), tokenId) */\n      mload(0x40)\n        /* \"source/BinanceBABT/contracts/SBT.sol\":4447:4454  tokenId */\n      dup2\n      swap1\n        /* \"source/BinanceBABT/contracts/SBT.sol\":4443:4444  0 */\n      0x00\n      swap1\n        /* \"source/BinanceBABT/contracts/SBT.sol\":4420:4455  Transfer(from, address(0), tokenId) */\n      0xffffffffffffffffffffffffffffffffffffffff\n      dup6\n      and\n      swap1\n      0xddf252ad1be2c89b69c2b068fc378daa952ba7f163c4a11628f55a4df523b3ef\n      swap1\n        /* \"source/BinanceBABT/contracts/SBT.sol\":4443:4444  0 */\n      dup4\n      swap1\n        /* \"source/BinanceBABT/contracts/SBT.sol\":4420:4455  Transfer(from, address(0), tokenId) */\n      log4\n        /* \"source/BinanceBABT/contracts/SBT.sol\":4087:4466  {... */\n      pop\n      pop\n        /* \"source/BinanceBABT/contracts/SBT.sol\":4048:4466  for (uint8 i = 0; i < addrLength; i++) {... */\n    tag_140:\n        /* \"source/BinanceBABT/contracts/SBT.sol\":4082:4085  i++ */\n      dup1\n      tag_155\n      dup2\n      tag_156\n      jump\t// in\n    tag_155:\n      swap2\n      pop\n      pop\n        /* \"source/BinanceBABT/contracts/SBT.sol\":4048:4466  for (uint8 i = 0; i < addrLength; i++) {... */\n      jump(tag_138)\n    tag_139:\n      pop\n        /* \"source/BinanceBABT/contracts/SBT.sol\":3772:4472  {... */\n      pop\n        /* \"source/BinanceBABT/contracts/SBT.sol\":3716:4472  function batchRevoke(address[] calldata addrs) external {... */\n      pop\n      pop\n      jump\t// out\n        /* \"source/BinanceBABT/contracts/SBT.sol\":6369:6696  function supportsInterface(bytes4 interfaceId)... */\n    tag_41:\n        /* \"source/BinanceBABT/contracts/SBT.sol\":6494:6498  bool */\n      0x00\n        /* \"source/BinanceBABT/contracts/SBT.sol\":6533:6573  interfaceId == type(IERC721).interfaceId */\n      0xffffffff00000000000000000000000000000000000000000000000000000000\n      dup3\n      and\n        /* \"source/BinanceBABT/contracts/SBT.sol\":6548:6573  type(IERC721).interfaceId */\n      0x80ac58cd00000000000000000000000000000000000000000000000000000000\n        /* \"source/BinanceBABT/contracts/SBT.sol\":6533:6573  interfaceId == type(IERC721).interfaceId */\n      eq\n      dup1\n        /* \"source/BinanceBABT/contracts/SBT.sol\":6533:6637  interfaceId == type(IERC721).interfaceId ||... */\n      tag_158\n      jumpi\n      pop\n        /* \"source/BinanceBABT/contracts/SBT.sol\":6589:6637  interfaceId == type(IERC721Metadata).interfaceId */\n      0xffffffff00000000000000000000000000000000000000000000000000000000\n      dup3\n      and\n        /* \"source/BinanceBABT/contracts/SBT.sol\":6604:6637  type(IERC721Metadata).interfaceId */\n      0x5b5e139f00000000000000000000000000000000000000000000000000000000\n        /* \"source/BinanceBABT/contracts/SBT.sol\":6589:6637  interfaceId == type(IERC721Metadata).interfaceId */\n      eq\n        /* \"source/BinanceBABT/contracts/SBT.sol\":6533:6637  interfaceId == type(IERC721).interfaceId ||... */\n    tag_158:\n        /* \"source/BinanceBABT/contracts/SBT.sol\":6533:6689  interfaceId == type(IERC721).interfaceId ||... */\n      dup1\n      tag_160\n      jumpi\n      pop\n        /* \"source/BinanceBABT/contracts/SBT.sol\":6653:6689  super.supportsInterface(interfaceId) */\n      tag_160\n        /* \"source/BinanceBABT/contracts/SBT.sol\":6677:6688  interfaceId */\n      dup3\n        /* \"source/BinanceBABT/contracts/SBT.sol\":6653:6676  super.supportsInterface */\n      tag_161\n        /* \"source/BinanceBABT/contracts/SBT.sol\":6653:6689  super.supportsInterface(interfaceId) */\n      jump\t// in\n    tag_160:\n        /* \"source/BinanceBABT/contracts/SBT.sol\":6514:6689  return... */\n      swap3\n        /* \"source/BinanceBABT/contracts/SBT.sol\":6369:6696  function supportsInterface(bytes4 interfaceId)... */\n      swap2\n      pop\n      pop\n      jump\t// out\n        /* \"source/BinanceBABT/contracts/SBT.sol\":1127:1145  string public name */\n    tag_45:\n      0x09\n      dup1\n      sload\n      tag_162\n      swap1\n      tag_163\n      jump\t// in\n    tag_162:\n      dup1\n      0x1f\n      add\n      0x20\n      dup1\n      swap2\n      div\n      mul\n      0x20\n      add\n      mload(0x40)\n      swap1\n      dup2\n      add\n      0x40\n      mstore\n      dup1\n      swap3\n      swap2\n      swap1\n      dup2\n      dup2\n      mstore\n      0x20\n      add\n      dup3\n      dup1\n      sload\n      tag_164\n      swap1\n      tag_163\n      jump\t// in\n    tag_164:\n      dup1\n      iszero\n      tag_165\n      jumpi\n      dup1\n      0x1f\n      lt\n      tag_166\n      jumpi\n      0x0100\n      dup1\n      dup4\n      sload\n      div\n      mul\n      dup4\n      mstore\n      swap2\n      0x20\n      add\n      swap2\n      jump(tag_165)\n    tag_166:\n      dup3\n      add\n      swap2\n      swap1\n      0x00\n      mstore\n      keccak256(0x00, 0x20)\n      swap1\n    tag_167:\n      dup2\n      sload\n      dup2\n      mstore\n      swap1\n      0x01\n      add\n      swap1\n      0x20\n      add\n      dup1\n      dup4\n      gt\n      tag_167\n      jumpi\n      dup3\n      swap1\n      sub\n      0x1f\n      and\n      dup3\n      add\n      swap2\n    tag_165:\n      pop\n      pop\n      pop\n      pop\n      pop\n      dup2\n      jump\t// out\n        /* \"source/BinanceBABT/contracts/SBT.sol\":1453:1790  function initialize(... */\n    tag_51:\n        /* \"source/BinanceBABT/contracts/utils/Initializable.sol\":4386:4399  _initializing */\n      sload(0x00)\n        /* \"source/BinanceBABT/contracts/SBT.sol\":1584:1585  1 */\n      0x01\n      swap1\n        /* \"source/BinanceBABT/contracts/utils/Initializable.sol\":4386:4399  _initializing */\n      0x0100\n      swap1\n      div\n      0xff\n      and\n        /* \"source/BinanceBABT/contracts/utils/Initializable.sol\":4385:4399  !_initializing */\n      iszero\n        /* \"source/BinanceBABT/contracts/utils/Initializable.sol\":4385:4425  !_initializing && _initialized < version */\n      dup1\n      iszero\n      tag_169\n      jumpi\n      pop\n        /* \"source/BinanceBABT/contracts/utils/Initializable.sol\":4403:4415  _initialized */\n      sload(0x00)\n        /* \"source/BinanceBABT/contracts/utils/Initializable.sol\":4403:4425  _initialized < version */\n      0xff\n      dup1\n      dup4\n      and\n        /* \"source/BinanceBABT/contracts/utils/Initializable.sol\":4403:4415  _initialized */\n      swap2\n      and\n        /* \"source/BinanceBABT/contracts/utils/Initializable.sol\":4403:4425  _initialized < version */\n      lt\n        /* \"source/BinanceBABT/contracts/utils/Initializable.sol\":4385:4425  !_initializing && _initialized < version */\n    tag_169:\n        /* \"source/BinanceBABT/contracts/utils/Initializable.sol\":4377:4476  require(!_initializing && _initialized < version, \"Initializable: contract is already initialized\") */\n      tag_170\n      jumpi\n      mload(0x40)\n      0x08c379a000000000000000000000000000000000000000000000000000000000\n      dup2\n      mstore\n        /* \"#utility.yul\":7713:7715   */\n      0x20\n        /* \"source/BinanceBABT/contracts/utils/Initializable.sol\":4377:4476  require(!_initializing && _initialized < version, \"Initializable: contract is already initialized\") */\n      0x04\n      dup3\n      add\n        /* \"#utility.yul\":7695:7716   */\n      mstore\n        /* \"#utility.yul\":7752:7754   */\n      0x2e\n        /* \"#utility.yul\":7732:7750   */\n      0x24\n      dup3\n      add\n        /* \"#utility.yul\":7725:7755   */\n      mstore\n        /* \"#utility.yul\":7791:7825   */\n      0x496e697469616c697a61626c653a20636f6e747261637420697320616c726561\n        /* \"#utility.yul\":7771:7789   */\n      0x44\n      dup3\n      add\n        /* \"#utility.yul\":7764:7826   */\n      mstore\n        /* \"#utility.yul\":7862:7878   */\n      0x647920696e697469616c697a6564000000000000000000000000000000000000\n        /* \"#utility.yul\":7842:7860   */\n      0x64\n      dup3\n      add\n        /* \"#utility.yul\":7835:7879   */\n      mstore\n        /* \"#utility.yul\":7896:7915   */\n      0x84\n      add\n        /* \"source/BinanceBABT/contracts/utils/Initializable.sol\":4377:4476  require(!_initializing && _initialized < version, \"Initializable: contract is already initialized\") */\n      tag_133\n        /* \"#utility.yul\":7511:7921   */\n      jump\n        /* \"source/BinanceBABT/contracts/utils/Initializable.sol\":4377:4476  require(!_initializing && _initialized < version, \"Initializable: contract is already initialized\") */\n    tag_170:\n        /* \"source/BinanceBABT/contracts/utils/Initializable.sol\":4486:4498  _initialized */\n      0x00\n        /* \"source/BinanceBABT/contracts/utils/Initializable.sol\":4486:4508  _initialized = version */\n      dup1\n      sload\n        /* \"source/BinanceBABT/contracts/utils/Initializable.sol\":4518:4538  _initializing = true */\n      0xffffffffffffffffffffffffffffffffffffffffffffffffffffffffffff0000\n      and\n        /* \"source/BinanceBABT/contracts/utils/Initializable.sol\":4486:4508  _initialized = version */\n      0xff\n      dup4\n      and\n        /* \"source/BinanceBABT/contracts/utils/Initializable.sol\":4518:4538  _initializing = true */\n      or\n        /* \"source/BinanceBABT/contracts/utils/Initializable.sol\":4486:4508  _initialized = version */\n      0x0100\n        /* \"source/BinanceBABT/contracts/utils/Initializable.sol\":4518:4538  _initializing = true */\n      or\n      swap1\n      sstore\n        /* \"source/BinanceBABT/contracts/SBT.sol\":1597:1601  name */\n      0x09\n        /* \"source/BinanceBABT/contracts/SBT.sol\":1597:1609  name = name_ */\n      tag_174\n        /* \"source/BinanceBABT/contracts/SBT.sol\":1604:1609  name_ */\n      dup6\n        /* \"source/BinanceBABT/contracts/SBT.sol\":1597:1601  name */\n      dup3\n        /* \"source/BinanceBABT/contracts/SBT.sol\":1597:1609  name = name_ */\n      tag_175\n      jump\t// in\n    tag_174:\n      pop\n        /* \"source/BinanceBABT/contracts/SBT.sol\":1619:1625  symbol */\n      0x0a\n        /* \"source/BinanceBABT/contracts/SBT.sol\":1619:1635  symbol = symbol_ */\n      tag_176\n        /* \"source/BinanceBABT/contracts/SBT.sol\":1628:1635  symbol_ */\n      dup5\n        /* \"source/BinanceBABT/contracts/SBT.sol\":1619:1625  symbol */\n      dup3\n        /* \"source/BinanceBABT/contracts/SBT.sol\":1619:1635  symbol = symbol_ */\n      tag_175\n      jump\t// in\n    tag_176:\n      pop\n        /* \"source/BinanceBABT/contracts/SBT.sol\":1702:1740  _grantRole(DEFAULT_ADMIN_ROLE, admin_) */\n      tag_177\n        /* \"source/BinanceBABT/contracts/access/AccessControl.sol\":2068:2072  0x00 */\n      0x00\n        /* \"source/BinanceBABT/contracts/SBT.sol\":1733:1739  admin_ */\n      dup4\n        /* \"source/BinanceBABT/contracts/SBT.sol\":1702:1712  _grantRole */\n      tag_178\n        /* \"source/BinanceBABT/contracts/SBT.sol\":1702:1740  _grantRole(DEFAULT_ADMIN_ROLE, admin_) */\n      jump\t// in\n    tag_177:\n        /* \"source/BinanceBABT/contracts/SBT.sol\":1750:1783  _grantRole(OPERATOR_ROLE, admin_) */\n      tag_179\n        /* \"source/BinanceBABT/contracts/SBT.sol\":1307:1333  keccak256(\"OPERATOR_ROLE\") */\n      0x97667070c54ef182b0f5858b034beac1b6f3089aa2d3188bb1e8929f4fa9b929\n        /* \"source/BinanceBABT/contracts/SBT.sol\":1776:1782  admin_ */\n      dup4\n        /* \"source/BinanceBABT/contracts/SBT.sol\":1750:1760  _grantRole */\n      tag_178\n        /* \"source/BinanceBABT/contracts/SBT.sol\":1750:1783  _grantRole(OPERATOR_ROLE, admin_) */\n      jump\t// in\n    tag_179:\n        /* \"source/BinanceBABT/contracts/utils/Initializable.sol\":4575:4580  false */\n      0x00\n        /* \"source/BinanceBABT/contracts/utils/Initializable.sol\":4559:4580  _initializing = false */\n      dup1\n      sload\n      0xffffffffffffffffffffffffffffffffffffffffffffffffffffffffffff00ff\n      and\n      swap1\n      sstore\n        /* \"source/BinanceBABT/contracts/utils/Initializable.sol\":4595:4615  Initialized(version) */\n      mload(0x40)\n        /* \"#utility.yul\":10481:10485   */\n      0xff\n        /* \"#utility.yul\":10469:10486   */\n      dup3\n      and\n        /* \"#utility.yul\":10451:10487   */\n      dup2\n      mstore\n        /* \"source/BinanceBABT/contracts/utils/Initializable.sol\":4595:4615  Initialized(version) */\n      0x7f26b83ff96e1f2b6a682f133852f6798a09c465da95921460cefb3847402498\n      swap1\n        /* \"#utility.yul\":10439:10441   */\n      0x20\n        /* \"#utility.yul\":10424:10442   */\n      add\n        /* \"source/BinanceBABT/contracts/utils/Initializable.sol\":4595:4615  Initialized(version) */\n      mload(0x40)\n      dup1\n      swap2\n      sub\n      swap1\n      log1\n        /* \"source/BinanceBABT/contracts/SBT.sol\":1453:1790  function initialize(... */\n      pop\n      pop\n      pop\n      pop\n      jump\t// out\n        /* \"source/BinanceBABT/contracts/SBT.sol\":5644:5741  function totalSupply() external view returns (uint256) {... */\n    tag_53:\n        /* \"source/BinanceBABT/contracts/SBT.sol\":5690:5697  uint256 */\n      0x00\n        /* \"source/BinanceBABT/contracts/SBT.sol\":5716:5734  _tokenMap.length() */\n      tag_183\n        /* \"source/BinanceBABT/contracts/SBT.sol\":5716:5725  _tokenMap */\n      0x05\n        /* \"source/BinanceBABT/contracts/SBT.sol\":5716:5732  _tokenMap.length */\n      tag_184\n        /* \"source/BinanceBABT/contracts/SBT.sol\":5716:5734  _tokenMap.length() */\n      jump\t// in\n    tag_183:\n        /* \"source/BinanceBABT/contracts/SBT.sol\":5709:5734  return _tokenMap.length() */\n      swap1\n      pop\n        /* \"source/BinanceBABT/contracts/SBT.sol\":5644:5741  function totalSupply() external view returns (uint256) {... */\n      swap1\n      jump\t// out\n        /* \"source/BinanceBABT/contracts/SBT.sol\":5874:5997  function isAdmin(address account) external view returns (bool) {... */\n    tag_65:\n        /* \"source/BinanceBABT/contracts/access/AccessControl.sol\":3000:3029  _roles[role].members[account] */\n      0xffffffffffffffffffffffffffffffffffffffff\n      dup2\n      and\n        /* \"source/BinanceBABT/contracts/SBT.sol\":5931:5935  bool */\n      0x00\n        /* \"source/BinanceBABT/contracts/access/AccessControl.sol\":3000:3029  _roles[role].members[account] */\n      swap1\n      dup2\n      mstore\n        /* \"source/BinanceBABT/contracts/access/AccessControl.sol\":3000:3012  _roles[role] */\n      0xa6eef7e35abe7026729641147f7915573c7e97b47efa546f5f6e3230263bcb49\n      0x20\n        /* \"source/BinanceBABT/contracts/access/AccessControl.sol\":3000:3029  _roles[role].members[account] */\n      mstore\n        /* \"source/BinanceBABT/contracts/access/AccessControl.sol\":3000:3012  _roles[role] */\n      0x40\n        /* \"source/BinanceBABT/contracts/access/AccessControl.sol\":3000:3029  _roles[role].members[account] */\n      dup2\n      keccak256\n      sload\n      0xff\n      and\n        /* \"source/BinanceBABT/contracts/SBT.sol\":5954:5990  hasRole(DEFAULT_ADMIN_ROLE, account) */\n      tag_160\n        /* \"source/BinanceBABT/contracts/access/AccessControl.sol\":2891:3036  function hasRole(bytes32 role, address account) public view virtual override returns (bool) {... */\n      jump\n        /* \"source/BinanceBABT/contracts/access/AccessControl.sol\":4799:4944  function grantRole(bytes32 role, address account) public virtual override onlyRole(getRoleAdmin(role)) {... */\n    tag_70:\n        /* \"source/BinanceBABT/contracts/access/AccessControl.sol\":4448:4455  bytes32 */\n      0x00\n        /* \"source/BinanceBABT/contracts/access/AccessControl.sol\":4474:4486  _roles[role] */\n      dup3\n      dup2\n      mstore\n        /* \"source/BinanceBABT/contracts/access/AccessControl.sol\":4474:4480  _roles */\n      0x01\n        /* \"source/BinanceBABT/contracts/access/AccessControl.sol\":4474:4486  _roles[role] */\n      0x20\n      dup2\n      swap1\n      mstore\n      0x40\n      swap1\n      swap2\n      keccak256\n        /* \"source/BinanceBABT/contracts/access/AccessControl.sol\":4474:4496  _roles[role].adminRole */\n      add\n      sload\n        /* \"source/BinanceBABT/contracts/access/AccessControl.sol\":2501:2517  _checkRole(role) */\n      tag_190\n        /* \"source/BinanceBABT/contracts/access/AccessControl.sol\":2512:2516  role */\n      dup2\n        /* \"source/BinanceBABT/contracts/access/AccessControl.sol\":2501:2511  _checkRole */\n      tag_191\n        /* \"source/BinanceBABT/contracts/access/AccessControl.sol\":2501:2517  _checkRole(role) */\n      jump\t// in\n    tag_190:\n        /* \"source/BinanceBABT/contracts/access/AccessControl.sol\":4912:4937  _grantRole(role, account) */\n      tag_193\n        /* \"source/BinanceBABT/contracts/access/AccessControl.sol\":4923:4927  role */\n      dup4\n        /* \"source/BinanceBABT/contracts/access/AccessControl.sol\":4929:4936  account */\n      dup4\n        /* \"source/BinanceBABT/contracts/access/AccessControl.sol\":4912:4922  _grantRole */\n      tag_178\n        /* \"source/BinanceBABT/contracts/access/AccessControl.sol\":4912:4937  _grantRole(role, account) */\n      jump\t// in\n    tag_193:\n        /* \"source/BinanceBABT/contracts/access/AccessControl.sol\":4799:4944  function grantRole(bytes32 role, address account) public virtual override onlyRole(getRoleAdmin(role)) {... */\n      pop\n      pop\n      pop\n      jump\t// out\n        /* \"source/BinanceBABT/contracts/SBT.sol\":4930:5185  function setBaseTokenURI(string calldata uri) public {... */\n    tag_74:\n        /* \"source/BinanceBABT/contracts/utils/Context.sol\":719:729  msg.sender */\n      caller\n        /* \"source/BinanceBABT/contracts/access/AccessControl.sol\":2068:2072  0x00 */\n      0x00\n        /* \"source/BinanceBABT/contracts/access/AccessControl.sol\":3000:3029  _roles[role].members[account] */\n      swap1\n      dup2\n      mstore\n        /* \"source/BinanceBABT/contracts/access/AccessControl.sol\":3000:3012  _roles[role] */\n      0xa6eef7e35abe7026729641147f7915573c7e97b47efa546f5f6e3230263bcb49\n      0x20\n        /* \"source/BinanceBABT/contracts/access/AccessControl.sol\":3000:3029  _roles[role].members[account] */\n      mstore\n        /* \"source/BinanceBABT/contracts/access/AccessControl.sol\":3000:3012  _roles[role] */\n      0x40\n        /* \"source/BinanceBABT/contracts/access/AccessControl.sol\":3000:3029  _roles[role].members[account] */\n      swap1\n      keccak256\n      sload\n      0xff\n      and\n        /* \"source/BinanceBABT/contracts/SBT.sol\":4993:5148  require(... */\n      tag_197\n      jumpi\n      mload(0x40)\n      0x08c379a000000000000000000000000000000000000000000000000000000000\n      dup2\n      mstore\n        /* \"#utility.yul\":10700:10702   */\n      0x20\n        /* \"source/BinanceBABT/contracts/SBT.sol\":4993:5148  require(... */\n      0x04\n      dup3\n      add\n        /* \"#utility.yul\":10682:10703   */\n      mstore\n        /* \"#utility.yul\":10739:10741   */\n      0x43\n        /* \"#utility.yul\":10719:10737   */\n      0x24\n      dup3\n      add\n        /* \"#utility.yul\":10712:10742   */\n      mstore\n        /* \"#utility.yul\":10778:10812   */\n      0x4f6e6c7920746865206163636f756e7420776974682044454641554c545f4144\n        /* \"#utility.yul\":10758:10776   */\n      0x44\n      dup3\n      add\n        /* \"#utility.yul\":10751:10813   */\n      mstore\n        /* \"#utility.yul\":10849:10883   */\n      0x4d494e5f524f4c452063616e2073657420746865206261736520746f6b656e20\n        /* \"#utility.yul\":10829:10847   */\n      0x64\n      dup3\n      add\n        /* \"#utility.yul\":10822:10884   */\n      mstore\n        /* \"#utility.yul\":10921:10926   */\n      0x5552490000000000000000000000000000000000000000000000000000000000\n        /* \"#utility.yul\":10900:10919   */\n      0x84\n      dup3\n      add\n        /* \"#utility.yul\":10893:10927   */\n      mstore\n        /* \"#utility.yul\":10944:10963   */\n      0xa4\n      add\n        /* \"source/BinanceBABT/contracts/SBT.sol\":4993:5148  require(... */\n      tag_133\n        /* \"#utility.yul\":10498:10969   */\n      jump\n        /* \"source/BinanceBABT/contracts/SBT.sol\":4993:5148  require(... */\n    tag_197:\n        /* \"source/BinanceBABT/contracts/SBT.sol\":5159:5172  _baseTokenURI */\n      0x0b\n        /* \"source/BinanceBABT/contracts/SBT.sol\":5159:5178  _baseTokenURI = uri */\n      tag_193\n        /* \"source/BinanceBABT/contracts/SBT.sol\":5175:5178  uri */\n      dup3\n      dup5\n        /* \"source/BinanceBABT/contracts/SBT.sol\":5159:5172  _baseTokenURI */\n      dup4\n        /* \"source/BinanceBABT/contracts/SBT.sol\":5159:5178  _baseTokenURI = uri */\n      tag_201\n      jump\t// in\n        /* \"source/BinanceBABT/contracts/access/AccessControl.sol\":5908:6122  function renounceRole(bytes32 role, address account) public virtual override {... */\n    tag_77:\n        /* \"source/BinanceBABT/contracts/access/AccessControl.sol\":6003:6026  account == _msgSender() */\n      0xffffffffffffffffffffffffffffffffffffffff\n      dup2\n      and\n        /* \"source/BinanceBABT/contracts/utils/Context.sol\":719:729  msg.sender */\n      caller\n        /* \"source/BinanceBABT/contracts/access/AccessControl.sol\":6003:6026  account == _msgSender() */\n      eq\n        /* \"source/BinanceBABT/contracts/access/AccessControl.sol\":5995:6078  require(account == _msgSender(), \"AccessControl: can only renounce roles for self\") */\n      tag_204\n      jumpi\n      mload(0x40)\n      0x08c379a000000000000000000000000000000000000000000000000000000000\n      dup2\n      mstore\n        /* \"#utility.yul\":12506:12508   */\n      0x20\n        /* \"source/BinanceBABT/contracts/access/AccessControl.sol\":5995:6078  require(account == _msgSender(), \"AccessControl: can only renounce roles for self\") */\n      0x04\n      dup3\n      add\n        /* \"#utility.yul\":12488:12509   */\n      mstore\n        /* \"#utility.yul\":12545:12547   */\n      0x2f\n        /* \"#utility.yul\":12525:12543   */\n      0x24\n      dup3\n      add\n        /* \"#utility.yul\":12518:12548   */\n      mstore\n        /* \"#utility.yul\":12584:12618   */\n      0x416363657373436f6e74726f6c3a2063616e206f6e6c792072656e6f756e6365\n        /* \"#utility.yul\":12564:12582   */\n      0x44\n      dup3\n      add\n        /* \"#utility.yul\":12557:12619   */\n      mstore\n        /* \"#utility.yul\":12655:12672   */\n      0x20726f6c657320666f722073656c660000000000000000000000000000000000\n        /* \"#utility.yul\":12635:12653   */\n      0x64\n      dup3\n      add\n        /* \"#utility.yul\":12628:12673   */\n      mstore\n        /* \"#utility.yul\":12690:12709   */\n      0x84\n      add\n        /* \"source/BinanceBABT/contracts/access/AccessControl.sol\":5995:6078  require(account == _msgSender(), \"AccessControl: can only renounce roles for self\") */\n      tag_133\n        /* \"#utility.yul\":12304:12715   */\n      jump\n        /* \"source/BinanceBABT/contracts/access/AccessControl.sol\":5995:6078  require(account == _msgSender(), \"AccessControl: can only renounce roles for self\") */\n    tag_204:\n        /* \"source/BinanceBABT/contracts/access/AccessControl.sol\":6089:6115  _revokeRole(role, account) */\n      tag_207\n        /* \"source/BinanceBABT/contracts/access/AccessControl.sol\":6101:6105  role */\n      dup3\n        /* \"source/BinanceBABT/contracts/access/AccessControl.sol\":6107:6114  account */\n      dup3\n        /* \"source/BinanceBABT/contracts/access/AccessControl.sol\":6089:6100  _revokeRole */\n      tag_208\n        /* \"source/BinanceBABT/contracts/access/AccessControl.sol\":6089:6115  _revokeRole(role, account) */\n      jump\t// in\n    tag_207:\n        /* \"source/BinanceBABT/contracts/access/AccessControl.sol\":5908:6122  function renounceRole(bytes32 role, address account) public virtual override {... */\n      pop\n      pop\n      jump\t// out\n        /* \"source/BinanceBABT/contracts/SBT.sol\":4478:4875  function burn() external {... */\n    tag_79:\n        /* \"source/BinanceBABT/contracts/utils/Context.sol\":719:729  msg.sender */\n      caller\n        /* \"source/BinanceBABT/contracts/SBT.sol\":4574:4600  _tokenMap.contains(sender) */\n      tag_211\n        /* \"source/BinanceBABT/contracts/SBT.sol\":4574:4583  _tokenMap */\n      0x05\n        /* \"source/BinanceBABT/contracts/utils/Context.sol\":719:729  msg.sender */\n      dup3\n        /* \"source/BinanceBABT/contracts/SBT.sol\":4574:4592  _tokenMap.contains */\n      tag_147\n        /* \"source/BinanceBABT/contracts/SBT.sol\":4574:4600  _tokenMap.contains(sender) */\n      jump\t// in\n    tag_211:\n        /* \"source/BinanceBABT/contracts/SBT.sol\":4553:4659  require(... */\n      tag_212\n      jumpi\n      mload(0x40)\n      0x08c379a000000000000000000000000000000000000000000000000000000000\n      dup2\n      mstore\n        /* \"#utility.yul\":12922:12924   */\n      0x20\n        /* \"source/BinanceBABT/contracts/SBT.sol\":4553:4659  require(... */\n      0x04\n      dup3\n      add\n        /* \"#utility.yul\":12904:12925   */\n      mstore\n        /* \"#utility.yul\":12961:12963   */\n      0x21\n        /* \"#utility.yul\":12941:12959   */\n      0x24\n      dup3\n      add\n        /* \"#utility.yul\":12934:12964   */\n      mstore\n        /* \"#utility.yul\":13000:13034   */\n      0x546865206163636f756e7420646f6573206e6f74206861766520616e79205342\n        /* \"#utility.yul\":12980:12998   */\n      0x44\n      dup3\n      add\n        /* \"#utility.yul\":12973:13035   */\n      mstore\n        /* \"#utility.yul\":13071:13074   */\n      0x5400000000000000000000000000000000000000000000000000000000000000\n        /* \"#utility.yul\":13051:13069   */\n      0x64\n      dup3\n      add\n        /* \"#utility.yul\":13044:13075   */\n      mstore\n        /* \"#utility.yul\":13092:13111   */\n      0x84\n      add\n        /* \"source/BinanceBABT/contracts/SBT.sol\":4553:4659  require(... */\n      tag_133\n        /* \"#utility.yul\":12720:13117   */\n      jump\n        /* \"source/BinanceBABT/contracts/SBT.sol\":4553:4659  require(... */\n    tag_212:\n        /* \"source/BinanceBABT/contracts/SBT.sol\":4670:4685  uint256 tokenId */\n      0x00\n        /* \"source/BinanceBABT/contracts/SBT.sol\":4688:4709  _tokenMap.get(sender) */\n      tag_215\n        /* \"source/BinanceBABT/contracts/SBT.sol\":4688:4697  _tokenMap */\n      0x05\n        /* \"source/BinanceBABT/contracts/SBT.sol\":4702:4708  sender */\n      dup4\n        /* \"source/BinanceBABT/contracts/SBT.sol\":4688:4701  _tokenMap.get */\n      tag_150\n        /* \"source/BinanceBABT/contracts/SBT.sol\":4688:4709  _tokenMap.get(sender) */\n      jump\t// in\n    tag_215:\n        /* \"source/BinanceBABT/contracts/SBT.sol\":4670:4709  uint256 tokenId = _tokenMap.get(sender) */\n      swap1\n      pop\n        /* \"source/BinanceBABT/contracts/SBT.sol\":4720:4744  _tokenMap.remove(sender) */\n      tag_216\n        /* \"source/BinanceBABT/contracts/SBT.sol\":4720:4729  _tokenMap */\n      0x05\n        /* \"source/BinanceBABT/contracts/SBT.sol\":4737:4743  sender */\n      dup4\n        /* \"source/BinanceBABT/contracts/SBT.sol\":4720:4736  _tokenMap.remove */\n      tag_152\n        /* \"source/BinanceBABT/contracts/SBT.sol\":4720:4744  _tokenMap.remove(sender) */\n      jump\t// in\n    tag_216:\n      pop\n        /* \"source/BinanceBABT/contracts/SBT.sol\":4754:4779  _ownerMap.remove(tokenId) */\n      tag_217\n        /* \"source/BinanceBABT/contracts/SBT.sol\":4754:4763  _ownerMap */\n      0x02\n        /* \"source/BinanceBABT/contracts/SBT.sol\":4771:4778  tokenId */\n      dup3\n        /* \"source/BinanceBABT/contracts/SBT.sol\":4754:4770  _ownerMap.remove */\n      tag_154\n        /* \"source/BinanceBABT/contracts/SBT.sol\":4754:4779  _ownerMap.remove(tokenId) */\n      jump\t// in\n    tag_217:\n      pop\n        /* \"source/BinanceBABT/contracts/SBT.sol\":4795:4816  Burn(sender, tokenId) */\n      mload(0x40)\n        /* \"source/BinanceBABT/contracts/SBT.sol\":4808:4815  tokenId */\n      dup2\n      swap1\n        /* \"source/BinanceBABT/contracts/SBT.sol\":4795:4816  Burn(sender, tokenId) */\n      0xffffffffffffffffffffffffffffffffffffffff\n      dup5\n      and\n      swap1\n      0xcc16f5dbb4873280815c1ee09dbd06736cffcc184412cf7a71a0fdb75d397ca5\n      swap1\n      0x00\n      swap1\n      log3\n        /* \"source/BinanceBABT/contracts/SBT.sol\":4831:4868  Transfer(sender, address(0), tokenId) */\n      mload(0x40)\n        /* \"source/BinanceBABT/contracts/SBT.sol\":4860:4867  tokenId */\n      dup2\n      swap1\n        /* \"source/BinanceBABT/contracts/SBT.sol\":4856:4857  0 */\n      0x00\n      swap1\n        /* \"source/BinanceBABT/contracts/SBT.sol\":4831:4868  Transfer(sender, address(0), tokenId) */\n      0xffffffffffffffffffffffffffffffffffffffff\n      dup6\n      and\n      swap1\n      0xddf252ad1be2c89b69c2b068fc378daa952ba7f163c4a11628f55a4df523b3ef\n      swap1\n        /* \"source/BinanceBABT/contracts/SBT.sol\":4856:4857  0 */\n      dup4\n      swap1\n        /* \"source/BinanceBABT/contracts/SBT.sol\":4831:4868  Transfer(sender, address(0), tokenId) */\n      log4\n        /* \"source/BinanceBABT/contracts/SBT.sol\":4503:4875  {... */\n      pop\n      pop\n        /* \"source/BinanceBABT/contracts/SBT.sol\":4478:4875  function burn() external {... */\n      jump\t// out\n        /* \"source/BinanceBABT/contracts/SBT.sol\":5507:5638  function ownerOf(uint256 tokenId) external view returns (address) {... */\n    tag_83:\n        /* \"source/BinanceBABT/contracts/SBT.sol\":5564:5571  address */\n      0x00\n        /* \"source/BinanceBABT/contracts/SBT.sol\":5590:5631  _ownerMap.get(tokenId, \"Invalid tokenId\") */\n      tag_160\n        /* \"source/BinanceBABT/contracts/SBT.sol\":5604:5611  tokenId */\n      dup3\n        /* \"source/BinanceBABT/contracts/SBT.sol\":5590:5631  _ownerMap.get(tokenId, \"Invalid tokenId\") */\n      mload(0x40)\n      dup1\n      0x40\n      add\n      0x40\n      mstore\n      dup1\n      0x0f\n      dup2\n      mstore\n      0x20\n      add\n      0x496e76616c696420746f6b656e49640000000000000000000000000000000000\n      dup2\n      mstore\n      pop\n        /* \"source/BinanceBABT/contracts/SBT.sol\":5590:5599  _ownerMap */\n      0x02\n        /* \"source/BinanceBABT/contracts/SBT.sol\":5590:5603  _ownerMap.get */\n      tag_220\n      swap1\n        /* \"source/BinanceBABT/contracts/SBT.sol\":5590:5631  _ownerMap.get(tokenId, \"Invalid tokenId\") */\n      swap3\n      swap2\n      swap1\n      0xffffffff\n      and\n      jump\t// in\n        /* \"source/BinanceBABT/contracts/SBT.sol\":2388:3171  function batchAttest(address[] calldata addrs) external {... */\n    tag_88:\n        /* \"source/BinanceBABT/contracts/utils/Context.sol\":719:729  msg.sender */\n      caller\n        /* \"source/BinanceBABT/contracts/access/AccessControl.sol\":2977:2981  bool */\n      0x00\n        /* \"source/BinanceBABT/contracts/access/AccessControl.sol\":3000:3029  _roles[role].members[account] */\n      swap1\n      dup2\n      mstore\n        /* \"source/BinanceBABT/contracts/access/AccessControl.sol\":3000:3012  _roles[role] */\n      0x31c1e66639f421f1853aeefe8ad6b62a3b96f3287efe23106923cd924aa025c2\n      0x20\n        /* \"source/BinanceBABT/contracts/access/AccessControl.sol\":3000:3029  _roles[role].members[account] */\n      mstore\n        /* \"source/BinanceBABT/contracts/access/AccessControl.sol\":3000:3012  _roles[role] */\n      0x40\n        /* \"source/BinanceBABT/contracts/access/AccessControl.sol\":3000:3029  _roles[role].members[account] */\n      swap1\n      keccak256\n      sload\n        /* \"source/BinanceBABT/contracts/SBT.sol\":2475:2480  addrs */\n      dup2\n      swap1\n        /* \"source/BinanceBABT/contracts/access/AccessControl.sol\":3000:3029  _roles[role].members[account] */\n      0xff\n      and\n        /* \"source/BinanceBABT/contracts/SBT.sol\":2498:2635  require(... */\n      tag_224\n      jumpi\n      mload(0x40)\n      0x08c379a000000000000000000000000000000000000000000000000000000000\n      dup2\n      mstore\n        /* \"#utility.yul\":13324:13326   */\n      0x20\n        /* \"source/BinanceBABT/contracts/SBT.sol\":2498:2635  require(... */\n      0x04\n      dup3\n      add\n        /* \"#utility.yul\":13306:13327   */\n      mstore\n        /* \"#utility.yul\":13363:13365   */\n      0x36\n        /* \"#utility.yul\":13343:13361   */\n      0x24\n      dup3\n      add\n        /* \"#utility.yul\":13336:13366   */\n      mstore\n        /* \"#utility.yul\":13402:13436   */\n      0x4f6e6c7920746865206163636f756e742077697468204f50455241544f525f52\n        /* \"#utility.yul\":13382:13400   */\n      0x44\n      dup3\n      add\n        /* \"#utility.yul\":13375:13437   */\n      mstore\n        /* \"#utility.yul\":13473:13497   */\n      0x4f4c452063616e20617474657374207468652053425400000000000000000000\n        /* \"#utility.yul\":13453:13471   */\n      0x64\n      dup3\n      add\n        /* \"#utility.yul\":13446:13498   */\n      mstore\n        /* \"#utility.yul\":13515:13534   */\n      0x84\n      add\n        /* \"source/BinanceBABT/contracts/SBT.sol\":2498:2635  require(... */\n      tag_133\n        /* \"#utility.yul\":13122:13540   */\n      jump\n        /* \"source/BinanceBABT/contracts/SBT.sol\":2498:2635  require(... */\n    tag_224:\n        /* \"source/BinanceBABT/contracts/SBT.sol\":2667:2670  100 */\n      0x64\n        /* \"source/BinanceBABT/contracts/SBT.sol\":2653:2663  addrLength */\n      dup2\n        /* \"source/BinanceBABT/contracts/SBT.sol\":2653:2670  addrLength <= 100 */\n      gt\n      iszero\n        /* \"source/BinanceBABT/contracts/SBT.sol\":2645:2709  require(addrLength <= 100, \"The max length of addresses is 100\") */\n      tag_227\n      jumpi\n      mload(0x40)\n      0x08c379a000000000000000000000000000000000000000000000000000000000\n      dup2\n      mstore\n        /* \"#utility.yul\":6310:6312   */\n      0x20\n        /* \"source/BinanceBABT/contracts/SBT.sol\":2645:2709  require(addrLength <= 100, \"The max length of addresses is 100\") */\n      0x04\n      dup3\n      add\n        /* \"#utility.yul\":6292:6313   */\n      mstore\n        /* \"#utility.yul\":6349:6351   */\n      0x22\n        /* \"#utility.yul\":6329:6347   */\n      0x24\n      dup3\n      add\n        /* \"#utility.yul\":6322:6352   */\n      mstore\n        /* \"#utility.yul\":6388:6422   */\n      0x546865206d6178206c656e677468206f66206164647265737365732069732031\n        /* \"#utility.yul\":6368:6386   */\n      0x44\n      dup3\n      add\n        /* \"#utility.yul\":6361:6423   */\n      mstore\n        /* \"#utility.yul\":6459:6463   */\n      0x3030000000000000000000000000000000000000000000000000000000000000\n        /* \"#utility.yul\":6439:6457   */\n      0x64\n      dup3\n      add\n        /* \"#utility.yul\":6432:6464   */\n      mstore\n        /* \"#utility.yul\":6481:6500   */\n      0x84\n      add\n        /* \"source/BinanceBABT/contracts/SBT.sol\":2645:2709  require(addrLength <= 100, \"The max length of addresses is 100\") */\n      tag_133\n        /* \"#utility.yul\":6108:6506   */\n      jump\n        /* \"source/BinanceBABT/contracts/SBT.sol\":2645:2709  require(addrLength <= 100, \"The max length of addresses is 100\") */\n    tag_227:\n        /* \"source/BinanceBABT/contracts/SBT.sol\":2725:2732  uint8 i */\n      0x00\n        /* \"source/BinanceBABT/contracts/SBT.sol\":2720:3165  for (uint8 i = 0; i < addrLength; i++) {... */\n    tag_229:\n        /* \"source/BinanceBABT/contracts/SBT.sol\":2742:2752  addrLength */\n      dup2\n        /* \"source/BinanceBABT/contracts/SBT.sol\":2738:2739  i */\n      dup2\n        /* \"source/BinanceBABT/contracts/SBT.sol\":2738:2752  i < addrLength */\n      0xff\n      and\n      lt\n        /* \"source/BinanceBABT/contracts/SBT.sol\":2720:3165  for (uint8 i = 0; i < addrLength; i++) {... */\n      iszero\n      tag_139\n      jumpi\n        /* \"source/BinanceBABT/contracts/SBT.sol\":2773:2783  address to */\n      0x00\n        /* \"source/BinanceBABT/contracts/SBT.sol\":2786:2791  addrs */\n      dup5\n      dup5\n        /* \"source/BinanceBABT/contracts/SBT.sol\":2792:2793  i */\n      dup4\n        /* \"source/BinanceBABT/contracts/SBT.sol\":2786:2794  addrs[i] */\n      0xff\n      and\n      dup2\n      dup2\n      lt\n      tag_233\n      jumpi\n      tag_233\n      tag_143\n      jump\t// in\n    tag_233:\n      swap1\n      pop\n      0x20\n      mul\n      add\n      0x20\n      dup2\n      add\n      swap1\n      tag_234\n      swap2\n      swap1\n      tag_64\n      jump\t// in\n    tag_234:\n        /* \"source/BinanceBABT/contracts/SBT.sol\":2773:2794  address to = addrs[i] */\n      swap1\n      pop\n        /* \"source/BinanceBABT/contracts/SBT.sol\":2813:2829  to == address(0) */\n      0xffffffffffffffffffffffffffffffffffffffff\n      dup2\n      and\n      iszero\n      dup1\n        /* \"source/BinanceBABT/contracts/SBT.sol\":2813:2855  to == address(0) || _tokenMap.contains(to) */\n      tag_236\n      jumpi\n      pop\n        /* \"source/BinanceBABT/contracts/SBT.sol\":2833:2855  _tokenMap.contains(to) */\n      tag_236\n        /* \"source/BinanceBABT/contracts/SBT.sol\":2833:2842  _tokenMap */\n      0x05\n        /* \"source/BinanceBABT/contracts/SBT.sol\":2852:2854  to */\n      dup3\n        /* \"source/BinanceBABT/contracts/SBT.sol\":2833:2851  _tokenMap.contains */\n      tag_147\n        /* \"source/BinanceBABT/contracts/SBT.sol\":2833:2855  _tokenMap.contains(to) */\n      jump\t// in\n    tag_236:\n        /* \"source/BinanceBABT/contracts/SBT.sol\":2809:2898  if (to == address(0) || _tokenMap.contains(to)) {... */\n      iszero\n      tag_237\n      jumpi\n        /* \"source/BinanceBABT/contracts/SBT.sol\":2875:2883  continue */\n      pop\n      jump(tag_231)\n        /* \"source/BinanceBABT/contracts/SBT.sol\":2809:2898  if (to == address(0) || _tokenMap.contains(to)) {... */\n    tag_237:\n        /* \"source/BinanceBABT/contracts/SBT.sol\":2912:2932  _tokenId.increment() */\n      tag_238\n        /* \"source/BinanceBABT/contracts/SBT.sol\":2912:2920  _tokenId */\n      0x08\n        /* \"source/BinanceBABT/contracts/utils/Counters.sol\":1032:1051  counter._value += 1 */\n      dup1\n      sload\n        /* \"source/BinanceBABT/contracts/utils/Counters.sol\":1050:1051  1 */\n      0x01\n        /* \"source/BinanceBABT/contracts/utils/Counters.sol\":1032:1051  counter._value += 1 */\n      add\n      swap1\n      sstore\n        /* \"source/BinanceBABT/contracts/utils/Counters.sol\":945:1068  function increment(Counter storage counter) internal {... */\n      jump\n        /* \"source/BinanceBABT/contracts/SBT.sol\":2912:2932  _tokenId.increment() */\n    tag_238:\n        /* \"source/BinanceBABT/contracts/SBT.sol\":2946:2961  uint256 tokenId */\n      0x00\n        /* \"source/BinanceBABT/contracts/SBT.sol\":2964:2982  _tokenId.current() */\n      tag_240\n        /* \"source/BinanceBABT/contracts/SBT.sol\":2964:2972  _tokenId */\n      0x08\n        /* \"source/BinanceBABT/contracts/utils/Counters.sol\":918:932  counter._value */\n      sload\n      swap1\n        /* \"source/BinanceBABT/contracts/utils/Counters.sol\":827:939  function current(Counter storage counter) internal view returns (uint256) {... */\n      jump\n        /* \"source/BinanceBABT/contracts/SBT.sol\":2964:2982  _tokenId.current() */\n    tag_240:\n        /* \"source/BinanceBABT/contracts/SBT.sol\":2946:2982  uint256 tokenId = _tokenId.current() */\n      swap1\n      pop\n        /* \"source/BinanceBABT/contracts/SBT.sol\":2997:3023  _tokenMap.set(to, tokenId) */\n      tag_242\n        /* \"source/BinanceBABT/contracts/SBT.sol\":2997:3006  _tokenMap */\n      0x05\n        /* \"source/BinanceBABT/contracts/SBT.sol\":3011:3013  to */\n      dup4\n        /* \"source/BinanceBABT/contracts/SBT.sol\":2946:2982  uint256 tokenId = _tokenId.current() */\n      dup4\n        /* \"source/BinanceBABT/contracts/SBT.sol\":2997:3010  _tokenMap.set */\n      tag_243\n        /* \"source/BinanceBABT/contracts/SBT.sol\":2997:3023  _tokenMap.set(to, tokenId) */\n      jump\t// in\n    tag_242:\n      pop\n        /* \"source/BinanceBABT/contracts/SBT.sol\":3037:3063  _ownerMap.set(tokenId, to) */\n      tag_244\n        /* \"source/BinanceBABT/contracts/SBT.sol\":3037:3046  _ownerMap */\n      0x02\n        /* \"source/BinanceBABT/contracts/SBT.sol\":3051:3058  tokenId */\n      dup3\n        /* \"source/BinanceBABT/contracts/SBT.sol\":3060:3062  to */\n      dup5\n        /* \"source/BinanceBABT/contracts/SBT.sol\":3037:3050  _ownerMap.set */\n      tag_245\n        /* \"source/BinanceBABT/contracts/SBT.sol\":3037:3063  _ownerMap.set(tokenId, to) */\n      jump\t// in\n    tag_244:\n      pop\n        /* \"source/BinanceBABT/contracts/SBT.sol\":3083:3102  Attest(to, tokenId) */\n      mload(0x40)\n        /* \"source/BinanceBABT/contracts/SBT.sol\":3094:3101  tokenId */\n      dup2\n      swap1\n        /* \"source/BinanceBABT/contracts/SBT.sol\":3083:3102  Attest(to, tokenId) */\n      0xffffffffffffffffffffffffffffffffffffffff\n      dup5\n      and\n      swap1\n      0xe9274a84b19e9428826de6bae8c48329354f8f0e73f771b97cae2d9dccd45a27\n      swap1\n      0x00\n      swap1\n      log3\n        /* \"source/BinanceBABT/contracts/SBT.sol\":3121:3154  Transfer(address(0), to, tokenId) */\n      mload(0x40)\n        /* \"source/BinanceBABT/contracts/SBT.sol\":3146:3153  tokenId */\n      dup2\n      swap1\n        /* \"source/BinanceBABT/contracts/SBT.sol\":3121:3154  Transfer(address(0), to, tokenId) */\n      0xffffffffffffffffffffffffffffffffffffffff\n      dup5\n      and\n      swap1\n        /* \"source/BinanceBABT/contracts/SBT.sol\":3138:3139  0 */\n      0x00\n      swap1\n        /* \"source/BinanceBABT/contracts/SBT.sol\":3121:3154  Transfer(address(0), to, tokenId) */\n      0xddf252ad1be2c89b69c2b068fc378daa952ba7f163c4a11628f55a4df523b3ef\n      swap1\n        /* \"source/BinanceBABT/contracts/SBT.sol\":3138:3139  0 */\n      dup3\n      swap1\n        /* \"source/BinanceBABT/contracts/SBT.sol\":3121:3154  Transfer(address(0), to, tokenId) */\n      log4\n        /* \"source/BinanceBABT/contracts/SBT.sol\":2759:3165  {... */\n      pop\n      pop\n        /* \"source/BinanceBABT/contracts/SBT.sol\":2720:3165  for (uint8 i = 0; i < addrLength; i++) {... */\n    tag_231:\n        /* \"source/BinanceBABT/contracts/SBT.sol\":2754:2757  i++ */\n      dup1\n      tag_246\n      dup2\n      tag_156\n      jump\t// in\n    tag_246:\n      swap2\n      pop\n      pop\n        /* \"source/BinanceBABT/contracts/SBT.sol\":2720:3165  for (uint8 i = 0; i < addrLength; i++) {... */\n      jump(tag_229)\n        /* \"source/BinanceBABT/contracts/SBT.sol\":5747:5868  function isOperator(address account) external view returns (bool) {... */\n    tag_91:\n        /* \"source/BinanceBABT/contracts/access/AccessControl.sol\":3000:3029  _roles[role].members[account] */\n      0xffffffffffffffffffffffffffffffffffffffff\n      dup2\n      and\n        /* \"source/BinanceBABT/contracts/SBT.sol\":5807:5811  bool */\n      0x00\n        /* \"source/BinanceBABT/contracts/access/AccessControl.sol\":3000:3029  _roles[role].members[account] */\n      swap1\n      dup2\n      mstore\n        /* \"source/BinanceBABT/contracts/access/AccessControl.sol\":3000:3012  _roles[role] */\n      0x31c1e66639f421f1853aeefe8ad6b62a3b96f3287efe23106923cd924aa025c2\n      0x20\n        /* \"source/BinanceBABT/contracts/access/AccessControl.sol\":3000:3029  _roles[role].members[account] */\n      mstore\n        /* \"source/BinanceBABT/contracts/access/AccessControl.sol\":3000:3012  _roles[role] */\n      0x40\n        /* \"source/BinanceBABT/contracts/access/AccessControl.sol\":3000:3029  _roles[role].members[account] */\n      dup2\n      keccak256\n      sload\n      0xff\n      and\n        /* \"source/BinanceBABT/contracts/SBT.sol\":5830:5861  hasRole(OPERATOR_ROLE, account) */\n      tag_160\n        /* \"source/BinanceBABT/contracts/access/AccessControl.sol\":2891:3036  function hasRole(bytes32 role, address account) public view virtual override returns (bool) {... */\n      jump\n        /* \"source/BinanceBABT/contracts/SBT.sol\":5191:5348  function balanceOf(address owner) external view returns (uint256) {... */\n    tag_95:\n        /* \"source/BinanceBABT/contracts/SBT.sol\":5248:5255  uint256 */\n      0x00\n      dup1\n        /* \"source/BinanceBABT/contracts/SBT.sol\":5286:5309  _tokenMap.tryGet(owner) */\n      tag_250\n        /* \"source/BinanceBABT/contracts/SBT.sol\":5286:5295  _tokenMap */\n      0x05\n        /* \"source/BinanceBABT/contracts/SBT.sol\":5303:5308  owner */\n      dup5\n        /* \"source/BinanceBABT/contracts/SBT.sol\":5286:5302  _tokenMap.tryGet */\n      tag_251\n        /* \"source/BinanceBABT/contracts/SBT.sol\":5286:5309  _tokenMap.tryGet(owner) */\n      jump\t// in\n    tag_250:\n        /* \"source/BinanceBABT/contracts/SBT.sol\":5267:5309  (bool success, ) = _tokenMap.tryGet(owner) */\n      pop\n      swap1\n      pop\n        /* \"source/BinanceBABT/contracts/SBT.sol\":5326:5333  success */\n      dup1\n        /* \"source/BinanceBABT/contracts/SBT.sol\":5326:5341  success ? 1 : 0 */\n      tag_252\n      jumpi\n        /* \"source/BinanceBABT/contracts/SBT.sol\":5340:5341  0 */\n      0x00\n        /* \"source/BinanceBABT/contracts/SBT.sol\":5326:5341  success ? 1 : 0 */\n      jump(tag_253)\n    tag_252:\n        /* \"source/BinanceBABT/contracts/SBT.sol\":5336:5337  1 */\n      0x01\n        /* \"source/BinanceBABT/contracts/SBT.sol\":5326:5341  success ? 1 : 0 */\n    tag_253:\n        /* \"source/BinanceBABT/contracts/SBT.sol\":5319:5341  return success ? 1 : 0 */\n      0xff\n      and\n      swap4\n        /* \"source/BinanceBABT/contracts/SBT.sol\":5191:5348  function balanceOf(address owner) external view returns (uint256) {... */\n      swap3\n      pop\n      pop\n      pop\n      jump\t// out\n        /* \"source/BinanceBABT/contracts/SBT.sol\":3177:3710  function revoke(address from) external {... */\n    tag_99:\n        /* \"source/BinanceBABT/contracts/utils/Context.sol\":719:729  msg.sender */\n      caller\n        /* \"source/BinanceBABT/contracts/access/AccessControl.sol\":2977:2981  bool */\n      0x00\n        /* \"source/BinanceBABT/contracts/access/AccessControl.sol\":3000:3029  _roles[role].members[account] */\n      swap1\n      dup2\n      mstore\n        /* \"source/BinanceBABT/contracts/access/AccessControl.sol\":3000:3012  _roles[role] */\n      0x31c1e66639f421f1853aeefe8ad6b62a3b96f3287efe23106923cd924aa025c2\n      0x20\n        /* \"source/BinanceBABT/contracts/access/AccessControl.sol\":3000:3029  _roles[role].members[account] */\n      mstore\n        /* \"source/BinanceBABT/contracts/access/AccessControl.sol\":3000:3012  _roles[role] */\n      0x40\n        /* \"source/BinanceBABT/contracts/access/AccessControl.sol\":3000:3029  _roles[role].members[account] */\n      swap1\n      keccak256\n      sload\n      0xff\n      and\n        /* \"source/BinanceBABT/contracts/SBT.sol\":3226:3363  require(... */\n      tag_257\n      jumpi\n      mload(0x40)\n      0x08c379a000000000000000000000000000000000000000000000000000000000\n      dup2\n      mstore\n        /* \"#utility.yul\":5887:5889   */\n      0x20\n        /* \"source/BinanceBABT/contracts/SBT.sol\":3226:3363  require(... */\n      0x04\n      dup3\n      add\n        /* \"#utility.yul\":5869:5890   */\n      mstore\n        /* \"#utility.yul\":5926:5928   */\n      0x36\n        /* \"#utility.yul\":5906:5924   */\n      0x24\n      dup3\n      add\n        /* \"#utility.yul\":5899:5929   */\n      mstore\n        /* \"#utility.yul\":5965:5999   */\n      0x4f6e6c7920746865206163636f756e742077697468204f50455241544f525f52\n        /* \"#utility.yul\":5945:5963   */\n      0x44\n      dup3\n      add\n        /* \"#utility.yul\":5938:6000   */\n      mstore\n        /* \"#utility.yul\":6036:6060   */\n      0x4f4c452063616e207265766f6b65207468652053425400000000000000000000\n        /* \"#utility.yul\":6016:6034   */\n      0x64\n      dup3\n      add\n        /* \"#utility.yul\":6009:6061   */\n      mstore\n        /* \"#utility.yul\":6078:6097   */\n      0x84\n      add\n        /* \"source/BinanceBABT/contracts/SBT.sol\":3226:3363  require(... */\n      tag_133\n        /* \"#utility.yul\":5685:6103   */\n      jump\n        /* \"source/BinanceBABT/contracts/SBT.sol\":3226:3363  require(... */\n    tag_257:\n        /* \"source/BinanceBABT/contracts/SBT.sol\":3381:3399  from != address(0) */\n      0xffffffffffffffffffffffffffffffffffffffff\n      dup2\n      and\n        /* \"source/BinanceBABT/contracts/SBT.sol\":3373:3420  require(from != address(0), \"Address is empty\") */\n      tag_259\n      jumpi\n      mload(0x40)\n      0x08c379a000000000000000000000000000000000000000000000000000000000\n      dup2\n      mstore\n        /* \"#utility.yul\":13747:13749   */\n      0x20\n        /* \"source/BinanceBABT/contracts/SBT.sol\":3373:3420  require(from != address(0), \"Address is empty\") */\n      0x04\n      dup3\n      add\n        /* \"#utility.yul\":13729:13750   */\n      mstore\n        /* \"#utility.yul\":13786:13788   */\n      0x10\n        /* \"#utility.yul\":13766:13784   */\n      0x24\n      dup3\n      add\n        /* \"#utility.yul\":13759:13789   */\n      mstore\n        /* \"#utility.yul\":13825:13843   */\n      0x4164647265737320697320656d70747900000000000000000000000000000000\n        /* \"#utility.yul\":13805:13823   */\n      0x44\n      dup3\n      add\n        /* \"#utility.yul\":13798:13844   */\n      mstore\n        /* \"#utility.yul\":13861:13879   */\n      0x64\n      add\n        /* \"source/BinanceBABT/contracts/SBT.sol\":3373:3420  require(from != address(0), \"Address is empty\") */\n      tag_133\n        /* \"#utility.yul\":13545:13885   */\n      jump\n        /* \"source/BinanceBABT/contracts/SBT.sol\":3373:3420  require(from != address(0), \"Address is empty\") */\n    tag_259:\n        /* \"source/BinanceBABT/contracts/SBT.sol\":3438:3462  _tokenMap.contains(from) */\n      tag_262\n        /* \"source/BinanceBABT/contracts/SBT.sol\":3438:3447  _tokenMap */\n      0x05\n        /* \"source/BinanceBABT/contracts/SBT.sol\":3457:3461  from */\n      dup3\n        /* \"source/BinanceBABT/contracts/SBT.sol\":3438:3456  _tokenMap.contains */\n      tag_147\n        /* \"source/BinanceBABT/contracts/SBT.sol\":3438:3462  _tokenMap.contains(from) */\n      jump\t// in\n    tag_262:\n        /* \"source/BinanceBABT/contracts/SBT.sol\":3430:3500  require(_tokenMap.contains(from), \"The account does not have any SBT\") */\n      tag_263\n      jumpi\n      mload(0x40)\n      0x08c379a000000000000000000000000000000000000000000000000000000000\n      dup2\n      mstore\n        /* \"#utility.yul\":12922:12924   */\n      0x20\n        /* \"source/BinanceBABT/contracts/SBT.sol\":3430:3500  require(_tokenMap.contains(from), \"The account does not have any SBT\") */\n      0x04\n      dup3\n      add\n        /* \"#utility.yul\":12904:12925   */\n      mstore\n        /* \"#utility.yul\":12961:12963   */\n      0x21\n        /* \"#utility.yul\":12941:12959   */\n      0x24\n      dup3\n      add\n        /* \"#utility.yul\":12934:12964   */\n      mstore\n        /* \"#utility.yul\":13000:13034   */\n      0x546865206163636f756e7420646f6573206e6f74206861766520616e79205342\n        /* \"#utility.yul\":12980:12998   */\n      0x44\n      dup3\n      add\n        /* \"#utility.yul\":12973:13035   */\n      mstore\n        /* \"#utility.yul\":13071:13074   */\n      0x5400000000000000000000000000000000000000000000000000000000000000\n        /* \"#utility.yul\":13051:13069   */\n      0x64\n      dup3\n      add\n        /* \"#utility.yul\":13044:13075   */\n      mstore\n        /* \"#utility.yul\":13092:13111   */\n      0x84\n      add\n        /* \"source/BinanceBABT/contracts/SBT.sol\":3430:3500  require(_tokenMap.contains(from), \"The account does not have any SBT\") */\n      tag_133\n        /* \"#utility.yul\":12720:13117   */\n      jump\n        /* \"source/BinanceBABT/contracts/SBT.sol\":3430:3500  require(_tokenMap.contains(from), \"The account does not have any SBT\") */\n    tag_263:\n        /* \"source/BinanceBABT/contracts/SBT.sol\":3511:3526  uint256 tokenId */\n      0x00\n        /* \"source/BinanceBABT/contracts/SBT.sol\":3529:3548  _tokenMap.get(from) */\n      tag_265\n        /* \"source/BinanceBABT/contracts/SBT.sol\":3529:3538  _tokenMap */\n      0x05\n        /* \"source/BinanceBABT/contracts/SBT.sol\":3543:3547  from */\n      dup4\n        /* \"source/BinanceBABT/contracts/SBT.sol\":3529:3542  _tokenMap.get */\n      tag_150\n        /* \"source/BinanceBABT/contracts/SBT.sol\":3529:3548  _tokenMap.get(from) */\n      jump\t// in\n    tag_265:\n        /* \"source/BinanceBABT/contracts/SBT.sol\":3511:3548  uint256 tokenId = _tokenMap.get(from) */\n      swap1\n      pop\n        /* \"source/BinanceBABT/contracts/SBT.sol\":3559:3581  _tokenMap.remove(from) */\n      tag_266\n        /* \"source/BinanceBABT/contracts/SBT.sol\":3559:3568  _tokenMap */\n      0x05\n        /* \"source/BinanceBABT/contracts/SBT.sol\":3576:3580  from */\n      dup4\n        /* \"source/BinanceBABT/contracts/SBT.sol\":3559:3575  _tokenMap.remove */\n      tag_152\n        /* \"source/BinanceBABT/contracts/SBT.sol\":3559:3581  _tokenMap.remove(from) */\n      jump\t// in\n    tag_266:\n      pop\n        /* \"source/BinanceBABT/contracts/SBT.sol\":3591:3616  _ownerMap.remove(tokenId) */\n      tag_267\n        /* \"source/BinanceBABT/contracts/SBT.sol\":3591:3600  _ownerMap */\n      0x02\n        /* \"source/BinanceBABT/contracts/SBT.sol\":3608:3615  tokenId */\n      dup3\n        /* \"source/BinanceBABT/contracts/SBT.sol\":3591:3607  _ownerMap.remove */\n      tag_154\n        /* \"source/BinanceBABT/contracts/SBT.sol\":3591:3616  _ownerMap.remove(tokenId) */\n      jump\t// in\n    tag_267:\n      pop\n        /* \"source/BinanceBABT/contracts/SBT.sol\":3632:3653  Revoke(from, tokenId) */\n      mload(0x40)\n        /* \"source/BinanceBABT/contracts/SBT.sol\":3645:3652  tokenId */\n      dup2\n      swap1\n        /* \"source/BinanceBABT/contracts/SBT.sol\":3632:3653  Revoke(from, tokenId) */\n      0xffffffffffffffffffffffffffffffffffffffff\n      dup5\n      and\n      swap1\n      0xec9ab91322523c899ede7830ec9bfc992b5981cdcc27b91162fb23de5791117b\n      swap1\n      0x00\n      swap1\n      log3\n        /* \"source/BinanceBABT/contracts/SBT.sol\":3668:3703  Transfer(from, address(0), tokenId) */\n      mload(0x40)\n        /* \"source/BinanceBABT/contracts/SBT.sol\":3695:3702  tokenId */\n      dup2\n      swap1\n        /* \"source/BinanceBABT/contracts/SBT.sol\":3691:3692  0 */\n      0x00\n      swap1\n        /* \"source/BinanceBABT/contracts/SBT.sol\":3668:3703  Transfer(from, address(0), tokenId) */\n      0xffffffffffffffffffffffffffffffffffffffff\n      dup6\n      and\n      swap1\n      0xddf252ad1be2c89b69c2b068fc378daa952ba7f163c4a11628f55a4df523b3ef\n      swap1\n        /* \"source/BinanceBABT/contracts/SBT.sol\":3691:3692  0 */\n      dup4\n      swap1\n        /* \"source/BinanceBABT/contracts/SBT.sol\":3668:3703  Transfer(from, address(0), tokenId) */\n      log4\n        /* \"source/BinanceBABT/contracts/SBT.sol\":3216:3710  {... */\n      pop\n        /* \"source/BinanceBABT/contracts/SBT.sol\":3177:3710  function revoke(address from) external {... */\n      pop\n      jump\t// out\n        /* \"source/BinanceBABT/contracts/SBT.sol\":5354:5501  function tokenIdOf(address from) external view returns (uint256) {... */\n    tag_102:\n        /* \"source/BinanceBABT/contracts/SBT.sol\":5410:5417  uint256 */\n      0x00\n        /* \"source/BinanceBABT/contracts/SBT.sol\":5436:5494  _tokenMap.get(from, \"The wallet has not attested any SBT\") */\n      tag_160\n        /* \"source/BinanceBABT/contracts/SBT.sol\":5450:5454  from */\n      dup3\n        /* \"source/BinanceBABT/contracts/SBT.sol\":5436:5494  _tokenMap.get(from, \"The wallet has not attested any SBT\") */\n      mload(0x40)\n      dup1\n      0x60\n      add\n      0x40\n      mstore\n      dup1\n      0x23\n      dup2\n      mstore\n      0x20\n      add\n      data_4c0ef6bfa0a398fe3098d6b3c8bc2c4c45d120ec13b77201d29305b0abb24397\n      0x23\n      swap2\n      codecopy\n        /* \"source/BinanceBABT/contracts/SBT.sol\":5436:5445  _tokenMap */\n      0x05\n      swap2\n        /* \"source/BinanceBABT/contracts/SBT.sol\":5436:5494  _tokenMap.get(from, \"The wallet has not attested any SBT\") */\n      swap1\n        /* \"source/BinanceBABT/contracts/SBT.sol\":5436:5449  _tokenMap.get */\n      tag_270\n        /* \"source/BinanceBABT/contracts/SBT.sol\":5436:5494  _tokenMap.get(from, \"The wallet has not attested any SBT\") */\n      jump\t// in\n        /* \"source/BinanceBABT/contracts/SBT.sol\":1172:1192  string public symbol */\n    tag_109:\n      0x0a\n      dup1\n      sload\n      tag_162\n      swap1\n      tag_163\n      jump\t// in\n        /* \"source/BinanceBABT/contracts/SBT.sol\":6063:6302  function tokenURI(uint256 tokenId) external view returns (string memory) {... */\n    tag_116:\n        /* \"source/BinanceBABT/contracts/SBT.sol\":6121:6134  string memory */\n      0x60\n        /* \"source/BinanceBABT/contracts/SBT.sol\":6195:6196  0 */\n      0x00\n        /* \"source/BinanceBABT/contracts/SBT.sol\":6171:6184  _baseTokenURI */\n      0x0b\n        /* \"source/BinanceBABT/contracts/SBT.sol\":6165:6192  bytes(_baseTokenURI).length */\n      dup1\n      sload\n      tag_278\n      swap1\n      tag_163\n      jump\t// in\n    tag_278:\n      swap1\n      pop\n        /* \"source/BinanceBABT/contracts/SBT.sol\":6165:6196  bytes(_baseTokenURI).length > 0 */\n      gt\n        /* \"source/BinanceBABT/contracts/SBT.sol\":6165:6295  bytes(_baseTokenURI).length > 0... */\n      tag_279\n      jumpi\n      mload(0x40)\n      dup1\n      0x20\n      add\n      0x40\n      mstore\n      dup1\n      0x00\n      dup2\n      mstore\n      pop\n      jump(tag_160)\n    tag_279:\n        /* \"source/BinanceBABT/contracts/SBT.sol\":6239:6252  _baseTokenURI */\n      0x0b\n        /* \"source/BinanceBABT/contracts/SBT.sol\":6254:6272  tokenId.toString() */\n      tag_281\n        /* \"source/BinanceBABT/contracts/SBT.sol\":6254:6261  tokenId */\n      dup4\n        /* \"source/BinanceBABT/contracts/SBT.sol\":6254:6270  tokenId.toString */\n      tag_282\n        /* \"source/BinanceBABT/contracts/SBT.sol\":6254:6272  tokenId.toString() */\n      jump\t// in\n    tag_281:\n        /* \"source/BinanceBABT/contracts/SBT.sol\":6222:6273  abi.encodePacked(_baseTokenURI, tokenId.toString()) */\n      add(0x20, mload(0x40))\n      tag_283\n      swap3\n      swap2\n      swap1\n      tag_284\n      jump\t// in\n    tag_283:\n      mload(0x40)\n      0x20\n      dup2\n      dup4\n      sub\n      sub\n      dup2\n      mstore\n      swap1\n      0x40\n      mstore\n        /* \"source/BinanceBABT/contracts/SBT.sol\":6146:6295  return... */\n      swap3\n        /* \"source/BinanceBABT/contracts/SBT.sol\":6063:6302  function tokenURI(uint256 tokenId) external view returns (string memory) {... */\n      swap2\n      pop\n      pop\n      jump\t// out\n        /* \"source/BinanceBABT/contracts/access/AccessControl.sol\":5224:5371  function revokeRole(bytes32 role, address account) public virtual override onlyRole(getRoleAdmin(role)) {... */\n    tag_120:\n        /* \"source/BinanceBABT/contracts/access/AccessControl.sol\":4448:4455  bytes32 */\n      0x00\n        /* \"source/BinanceBABT/contracts/access/AccessControl.sol\":4474:4486  _roles[role] */\n      dup3\n      dup2\n      mstore\n        /* \"source/BinanceBABT/contracts/access/AccessControl.sol\":4474:4480  _roles */\n      0x01\n        /* \"source/BinanceBABT/contracts/access/AccessControl.sol\":4474:4486  _roles[role] */\n      0x20\n      dup2\n      swap1\n      mstore\n      0x40\n      swap1\n      swap2\n      keccak256\n        /* \"source/BinanceBABT/contracts/access/AccessControl.sol\":4474:4496  _roles[role].adminRole */\n      add\n      sload\n        /* \"source/BinanceBABT/contracts/access/AccessControl.sol\":2501:2517  _checkRole(role) */\n      tag_287\n        /* \"source/BinanceBABT/contracts/access/AccessControl.sol\":2512:2516  role */\n      dup2\n        /* \"source/BinanceBABT/contracts/access/AccessControl.sol\":2501:2511  _checkRole */\n      tag_191\n        /* \"source/BinanceBABT/contracts/access/AccessControl.sol\":2501:2517  _checkRole(role) */\n      jump\t// in\n    tag_287:\n        /* \"source/BinanceBABT/contracts/access/AccessControl.sol\":5338:5364  _revokeRole(role, account) */\n      tag_193\n        /* \"source/BinanceBABT/contracts/access/AccessControl.sol\":5350:5354  role */\n      dup4\n        /* \"source/BinanceBABT/contracts/access/AccessControl.sol\":5356:5363  account */\n      dup4\n        /* \"source/BinanceBABT/contracts/access/AccessControl.sol\":5338:5349  _revokeRole */\n      tag_208\n        /* \"source/BinanceBABT/contracts/access/AccessControl.sol\":5338:5364  _revokeRole(role, account) */\n      jump\t// in\n        /* \"source/BinanceBABT/contracts/SBT.sol\":1796:2382  function attest(address to) external returns (uint256) {... */\n    tag_123:\n        /* \"source/BinanceBABT/contracts/utils/Context.sol\":719:729  msg.sender */\n      caller\n        /* \"source/BinanceBABT/contracts/SBT.sol\":1842:1849  uint256 */\n      0x00\n        /* \"source/BinanceBABT/contracts/access/AccessControl.sol\":3000:3029  _roles[role].members[account] */\n      swap1\n      dup2\n      mstore\n        /* \"source/BinanceBABT/contracts/access/AccessControl.sol\":3000:3012  _roles[role] */\n      0x31c1e66639f421f1853aeefe8ad6b62a3b96f3287efe23106923cd924aa025c2\n      0x20\n        /* \"source/BinanceBABT/contracts/access/AccessControl.sol\":3000:3029  _roles[role].members[account] */\n      mstore\n        /* \"source/BinanceBABT/contracts/access/AccessControl.sol\":3000:3012  _roles[role] */\n      0x40\n        /* \"source/BinanceBABT/contracts/access/AccessControl.sol\":3000:3029  _roles[role].members[account] */\n      dup2\n      keccak256\n      sload\n      0xff\n      and\n        /* \"source/BinanceBABT/contracts/SBT.sol\":1861:1998  require(... */\n      tag_293\n      jumpi\n      mload(0x40)\n      0x08c379a000000000000000000000000000000000000000000000000000000000\n      dup2\n      mstore\n        /* \"#utility.yul\":13324:13326   */\n      0x20\n        /* \"source/BinanceBABT/contracts/SBT.sol\":1861:1998  require(... */\n      0x04\n      dup3\n      add\n        /* \"#utility.yul\":13306:13327   */\n      mstore\n        /* \"#utility.yul\":13363:13365   */\n      0x36\n        /* \"#utility.yul\":13343:13361   */\n      0x24\n      dup3\n      add\n        /* \"#utility.yul\":13336:13366   */\n      mstore\n        /* \"#utility.yul\":13402:13436   */\n      0x4f6e6c7920746865206163636f756e742077697468204f50455241544f525f52\n        /* \"#utility.yul\":13382:13400   */\n      0x44\n      dup3\n      add\n        /* \"#utility.yul\":13375:13437   */\n      mstore\n        /* \"#utility.yul\":13473:13497   */\n      0x4f4c452063616e20617474657374207468652053425400000000000000000000\n        /* \"#utility.yul\":13453:13471   */\n      0x64\n      dup3\n      add\n        /* \"#utility.yul\":13446:13498   */\n      mstore\n        /* \"#utility.yul\":13515:13534   */\n      0x84\n      add\n        /* \"source/BinanceBABT/contracts/SBT.sol\":1861:1998  require(... */\n      tag_133\n        /* \"#utility.yul\":13122:13540   */\n      jump\n        /* \"source/BinanceBABT/contracts/SBT.sol\":1861:1998  require(... */\n    tag_293:\n        /* \"source/BinanceBABT/contracts/SBT.sol\":2016:2032  to != address(0) */\n      0xffffffffffffffffffffffffffffffffffffffff\n      dup3\n      and\n        /* \"source/BinanceBABT/contracts/SBT.sol\":2008:2053  require(to != address(0), \"Address is empty\") */\n      tag_295\n      jumpi\n      mload(0x40)\n      0x08c379a000000000000000000000000000000000000000000000000000000000\n      dup2\n      mstore\n        /* \"#utility.yul\":13747:13749   */\n      0x20\n        /* \"source/BinanceBABT/contracts/SBT.sol\":2008:2053  require(to != address(0), \"Address is empty\") */\n      0x04\n      dup3\n      add\n        /* \"#utility.yul\":13729:13750   */\n      mstore\n        /* \"#utility.yul\":13786:13788   */\n      0x10\n        /* \"#utility.yul\":13766:13784   */\n      0x24\n      dup3\n      add\n        /* \"#utility.yul\":13759:13789   */\n      mstore\n        /* \"#utility.yul\":13825:13843   */\n      0x4164647265737320697320656d70747900000000000000000000000000000000\n        /* \"#utility.yul\":13805:13823   */\n      0x44\n      dup3\n      add\n        /* \"#utility.yul\":13798:13844   */\n      mstore\n        /* \"#utility.yul\":13861:13879   */\n      0x64\n      add\n        /* \"source/BinanceBABT/contracts/SBT.sol\":2008:2053  require(to != address(0), \"Address is empty\") */\n      tag_133\n        /* \"#utility.yul\":13545:13885   */\n      jump\n        /* \"source/BinanceBABT/contracts/SBT.sol\":2008:2053  require(to != address(0), \"Address is empty\") */\n    tag_295:\n        /* \"source/BinanceBABT/contracts/SBT.sol\":2072:2094  _tokenMap.contains(to) */\n      tag_297\n        /* \"source/BinanceBABT/contracts/SBT.sol\":2072:2081  _tokenMap */\n      0x05\n        /* \"source/BinanceBABT/contracts/SBT.sol\":2091:2093  to */\n      dup4\n        /* \"source/BinanceBABT/contracts/SBT.sol\":2072:2090  _tokenMap.contains */\n      tag_147\n        /* \"source/BinanceBABT/contracts/SBT.sol\":2072:2094  _tokenMap.contains(to) */\n      jump\t// in\n    tag_297:\n        /* \"source/BinanceBABT/contracts/SBT.sol\":2071:2094  !_tokenMap.contains(to) */\n      iszero\n        /* \"source/BinanceBABT/contracts/SBT.sol\":2063:2117  require(!_tokenMap.contains(to), \"SBT already exists\") */\n      tag_298\n      jumpi\n      mload(0x40)\n      0x08c379a000000000000000000000000000000000000000000000000000000000\n      dup2\n      mstore\n        /* \"#utility.yul\":15175:15177   */\n      0x20\n        /* \"source/BinanceBABT/contracts/SBT.sol\":2063:2117  require(!_tokenMap.contains(to), \"SBT already exists\") */\n      0x04\n      dup3\n      add\n        /* \"#utility.yul\":15157:15178   */\n      mstore\n        /* \"#utility.yul\":15214:15216   */\n      0x12\n        /* \"#utility.yul\":15194:15212   */\n      0x24\n      dup3\n      add\n        /* \"#utility.yul\":15187:15217   */\n      mstore\n        /* \"#utility.yul\":15253:15273   */\n      0x53425420616c7265616479206578697374730000000000000000000000000000\n        /* \"#utility.yul\":15233:15251   */\n      0x44\n      dup3\n      add\n        /* \"#utility.yul\":15226:15274   */\n      mstore\n        /* \"#utility.yul\":15291:15309   */\n      0x64\n      add\n        /* \"source/BinanceBABT/contracts/SBT.sol\":2063:2117  require(!_tokenMap.contains(to), \"SBT already exists\") */\n      tag_133\n        /* \"#utility.yul\":14973:15315   */\n      jump\n        /* \"source/BinanceBABT/contracts/SBT.sol\":2063:2117  require(!_tokenMap.contains(to), \"SBT already exists\") */\n    tag_298:\n        /* \"source/BinanceBABT/contracts/SBT.sol\":2128:2148  _tokenId.increment() */\n      tag_301\n        /* \"source/BinanceBABT/contracts/SBT.sol\":2128:2136  _tokenId */\n      0x08\n        /* \"source/BinanceBABT/contracts/utils/Counters.sol\":1032:1051  counter._value += 1 */\n      dup1\n      sload\n        /* \"source/BinanceBABT/contracts/utils/Counters.sol\":1050:1051  1 */\n      0x01\n        /* \"source/BinanceBABT/contracts/utils/Counters.sol\":1032:1051  counter._value += 1 */\n      add\n      swap1\n      sstore\n        /* \"source/BinanceBABT/contracts/utils/Counters.sol\":945:1068  function increment(Counter storage counter) internal {... */\n      jump\n        /* \"source/BinanceBABT/contracts/SBT.sol\":2128:2148  _tokenId.increment() */\n    tag_301:\n        /* \"source/BinanceBABT/contracts/SBT.sol\":2158:2173  uint256 tokenId */\n      0x00\n        /* \"source/BinanceBABT/contracts/SBT.sol\":2176:2194  _tokenId.current() */\n      tag_302\n        /* \"source/BinanceBABT/contracts/SBT.sol\":2176:2184  _tokenId */\n      0x08\n        /* \"source/BinanceBABT/contracts/utils/Counters.sol\":918:932  counter._value */\n      sload\n      swap1\n        /* \"source/BinanceBABT/contracts/utils/Counters.sol\":827:939  function current(Counter storage counter) internal view returns (uint256) {... */\n      jump\n        /* \"source/BinanceBABT/contracts/SBT.sol\":2176:2194  _tokenId.current() */\n    tag_302:\n        /* \"source/BinanceBABT/contracts/SBT.sol\":2158:2194  uint256 tokenId = _tokenId.current() */\n      swap1\n      pop\n        /* \"source/BinanceBABT/contracts/SBT.sol\":2205:2231  _tokenMap.set(to, tokenId) */\n      tag_303\n        /* \"source/BinanceBABT/contracts/SBT.sol\":2205:2214  _tokenMap */\n      0x05\n        /* \"source/BinanceBABT/contracts/SBT.sol\":2219:2221  to */\n      dup5\n        /* \"source/BinanceBABT/contracts/SBT.sol\":2158:2194  uint256 tokenId = _tokenId.current() */\n      dup4\n        /* \"source/BinanceBABT/contracts/SBT.sol\":2205:2218  _tokenMap.set */\n      tag_243\n        /* \"source/BinanceBABT/contracts/SBT.sol\":2205:2231  _tokenMap.set(to, tokenId) */\n      jump\t// in\n    tag_303:\n      pop\n        /* \"source/BinanceBABT/contracts/SBT.sol\":2241:2267  _ownerMap.set(tokenId, to) */\n      tag_304\n        /* \"source/BinanceBABT/contracts/SBT.sol\":2241:2250  _ownerMap */\n      0x02\n        /* \"source/BinanceBABT/contracts/SBT.sol\":2255:2262  tokenId */\n      dup3\n        /* \"source/BinanceBABT/contracts/SBT.sol\":2264:2266  to */\n      dup6\n        /* \"source/BinanceBABT/contracts/SBT.sol\":2241:2254  _ownerMap.set */\n      tag_245\n        /* \"source/BinanceBABT/contracts/SBT.sol\":2241:2267  _ownerMap.set(tokenId, to) */\n      jump\t// in\n    tag_304:\n      pop\n        /* \"source/BinanceBABT/contracts/SBT.sol\":2283:2302  Attest(to, tokenId) */\n      mload(0x40)\n        /* \"source/BinanceBABT/contracts/SBT.sol\":2294:2301  tokenId */\n      dup2\n      swap1\n        /* \"source/BinanceBABT/contracts/SBT.sol\":2283:2302  Attest(to, tokenId) */\n      0xffffffffffffffffffffffffffffffffffffffff\n      dup6\n      and\n      swap1\n      0xe9274a84b19e9428826de6bae8c48329354f8f0e73f771b97cae2d9dccd45a27\n      swap1\n      0x00\n      swap1\n      log3\n        /* \"source/BinanceBABT/contracts/SBT.sol\":2317:2350  Transfer(address(0), to, tokenId) */\n      mload(0x40)\n        /* \"source/BinanceBABT/contracts/SBT.sol\":2342:2349  tokenId */\n      dup2\n      swap1\n        /* \"source/BinanceBABT/contracts/SBT.sol\":2317:2350  Transfer(address(0), to, tokenId) */\n      0xffffffffffffffffffffffffffffffffffffffff\n      dup6\n      and\n      swap1\n        /* \"source/BinanceBABT/contracts/SBT.sol\":2334:2335  0 */\n      0x00\n      swap1\n        /* \"source/BinanceBABT/contracts/SBT.sol\":2317:2350  Transfer(address(0), to, tokenId) */\n      0xddf252ad1be2c89b69c2b068fc378daa952ba7f163c4a11628f55a4df523b3ef\n      swap1\n        /* \"source/BinanceBABT/contracts/SBT.sol\":2334:2335  0 */\n      dup3\n      swap1\n        /* \"source/BinanceBABT/contracts/SBT.sol\":2317:2350  Transfer(address(0), to, tokenId) */\n      log4\n        /* \"source/BinanceBABT/contracts/SBT.sol\":2368:2375  tokenId */\n      swap3\n        /* \"source/BinanceBABT/contracts/SBT.sol\":1796:2382  function attest(address to) external returns (uint256) {... */\n      swap2\n      pop\n      pop\n      jump\t// out\n        /* \"source/BinanceBABT/contracts/utils/EnumerableMap.sol\":12315:12481  function contains(AddressToUintMap storage map, address key) internal view returns (bool) {... */\n    tag_147:\n        /* \"source/BinanceBABT/contracts/utils/EnumerableMap.sol\":12399:12403  bool */\n      0x00\n        /* \"source/BinanceBABT/contracts/utils/EnumerableMap.sol\":12422:12474  contains(map._inner, bytes32(uint256(uint160(key)))) */\n      tag_307\n        /* \"source/BinanceBABT/contracts/utils/EnumerableMap.sol\":12431:12434  map */\n      dup4\n        /* \"source/BinanceBABT/contracts/utils/EnumerableMap.sol\":12451:12472  uint256(uint160(key)) */\n      0xffffffffffffffffffffffffffffffffffffffff\n      dup5\n      and\n        /* \"source/BinanceBABT/contracts/utils/EnumerableMap.sol\":12422:12430  contains */\n      tag_308\n        /* \"source/BinanceBABT/contracts/utils/EnumerableMap.sol\":12422:12474  contains(map._inner, bytes32(uint256(uint160(key)))) */\n      jump\t// in\n    tag_307:\n        /* \"source/BinanceBABT/contracts/utils/EnumerableMap.sol\":12415:12474  return contains(map._inner, bytes32(uint256(uint160(key)))) */\n      swap4\n        /* \"source/BinanceBABT/contracts/utils/EnumerableMap.sol\":12315:12481  function contains(AddressToUintMap storage map, address key) internal view returns (bool) {... */\n      swap3\n      pop\n      pop\n      pop\n      jump\t// out\n        /* \"source/BinanceBABT/contracts/utils/EnumerableMap.sol\":13785:13953  function get(AddressToUintMap storage map, address key) internal view returns (uint256) {... */\n    tag_150:\n        /* \"source/BinanceBABT/contracts/utils/EnumerableMap.sol\":13864:13871  uint256 */\n      0x00\n        /* \"source/BinanceBABT/contracts/utils/EnumerableMap.sol\":13898:13945  get(map._inner, bytes32(uint256(uint160(key)))) */\n      tag_307\n        /* \"source/BinanceBABT/contracts/utils/EnumerableMap.sol\":13902:13905  map */\n      dup4\n        /* \"source/BinanceBABT/contracts/utils/EnumerableMap.sol\":13922:13943  uint256(uint160(key)) */\n      0xffffffffffffffffffffffffffffffffffffffff\n      dup5\n      and\n        /* \"source/BinanceBABT/contracts/utils/EnumerableMap.sol\":13898:13901  get */\n      tag_311\n        /* \"source/BinanceBABT/contracts/utils/EnumerableMap.sol\":13898:13945  get(map._inner, bytes32(uint256(uint160(key)))) */\n      jump\t// in\n        /* \"source/BinanceBABT/contracts/utils/EnumerableMap.sol\":12079:12236  function remove(AddressToUintMap storage map, address key) internal returns (bool) {... */\n    tag_152:\n        /* \"source/BinanceBABT/contracts/utils/EnumerableMap.sol\":12156:12160  bool */\n      0x00\n        /* \"source/BinanceBABT/contracts/utils/EnumerableMap.sol\":12179:12229  remove(map._inner, bytes32(uint256(uint160(key)))) */\n      tag_307\n        /* \"source/BinanceBABT/contracts/utils/EnumerableMap.sol\":12186:12189  map */\n      dup4\n        /* \"source/BinanceBABT/contracts/utils/EnumerableMap.sol\":12206:12227  uint256(uint160(key)) */\n      0xffffffffffffffffffffffffffffffffffffffff\n      dup5\n      and\n        /* \"source/BinanceBABT/contracts/utils/EnumerableMap.sol\":12179:12185  remove */\n      tag_314\n        /* \"source/BinanceBABT/contracts/utils/EnumerableMap.sol\":12179:12229  remove(map._inner, bytes32(uint256(uint160(key)))) */\n      jump\t// in\n        /* \"source/BinanceBABT/contracts/utils/EnumerableMap.sol\":8987:9126  function remove(UintToAddressMap storage map, uint256 key) internal returns (bool) {... */\n    tag_154:\n        /* \"source/BinanceBABT/contracts/utils/EnumerableMap.sol\":9064:9068  bool */\n      0x00\n        /* \"source/BinanceBABT/contracts/utils/EnumerableMap.sol\":9087:9119  remove(map._inner, bytes32(key)) */\n      tag_307\n        /* \"source/BinanceBABT/contracts/utils/EnumerableMap.sol\":9094:9097  map */\n      dup4\n        /* \"source/BinanceBABT/contracts/utils/EnumerableMap.sol\":9114:9117  key */\n      dup4\n        /* \"source/BinanceBABT/contracts/utils/EnumerableMap.sol\":9087:9093  remove */\n      tag_314\n        /* \"source/BinanceBABT/contracts/utils/EnumerableMap.sol\":9087:9119  remove(map._inner, bytes32(key)) */\n      jump\t// in\n        /* \"source/BinanceBABT/contracts/access/AccessControl.sol\":2602:2804  function supportsInterface(bytes4 interfaceId) public view virtual override returns (bool) {... */\n    tag_161:\n        /* \"source/BinanceBABT/contracts/access/AccessControl.sol\":2687:2691  bool */\n      0x00\n        /* \"source/BinanceBABT/contracts/access/AccessControl.sol\":2710:2757  interfaceId == type(IAccessControl).interfaceId */\n      0xffffffff00000000000000000000000000000000000000000000000000000000\n      dup3\n      and\n        /* \"source/BinanceBABT/contracts/access/AccessControl.sol\":2725:2757  type(IAccessControl).interfaceId */\n      0x7965db0b00000000000000000000000000000000000000000000000000000000\n        /* \"source/BinanceBABT/contracts/access/AccessControl.sol\":2710:2757  interfaceId == type(IAccessControl).interfaceId */\n      eq\n      dup1\n        /* \"source/BinanceBABT/contracts/access/AccessControl.sol\":2710:2797  interfaceId == type(IAccessControl).interfaceId || super.supportsInterface(interfaceId) */\n      tag_160\n      jumpi\n      pop\n        /* \"source/BinanceBABT/contracts/erc/ERC165.sol\":964:989  type(IERC165).interfaceId */\n      0x01ffc9a700000000000000000000000000000000000000000000000000000000\n        /* \"source/BinanceBABT/contracts/erc/ERC165.sol\":949:989  interfaceId == type(IERC165).interfaceId */\n      0xffffffff00000000000000000000000000000000000000000000000000000000\n      dup4\n      and\n      eq\n        /* \"source/BinanceBABT/contracts/access/AccessControl.sol\":2761:2797  super.supportsInterface(interfaceId) */\n      tag_160\n        /* \"source/BinanceBABT/contracts/erc/ERC165.sol\":841:996  function supportsInterface(bytes4 interfaceId) public view virtual override returns (bool) {... */\n      jump\n        /* \"source/BinanceBABT/contracts/access/AccessControl.sol\":7457:7690  function _grantRole(bytes32 role, address account) internal virtual {... */\n    tag_178:\n        /* \"source/BinanceBABT/contracts/access/AccessControl.sol\":2977:2981  bool */\n      0x00\n        /* \"source/BinanceBABT/contracts/access/AccessControl.sol\":3000:3012  _roles[role] */\n      dup3\n      dup2\n      mstore\n        /* \"source/BinanceBABT/contracts/access/AccessControl.sol\":3000:3006  _roles */\n      0x01\n        /* \"source/BinanceBABT/contracts/access/AccessControl.sol\":3000:3012  _roles[role] */\n      0x20\n      swap1\n      dup2\n      mstore\n      0x40\n      dup1\n      dup4\n      keccak256\n        /* \"source/BinanceBABT/contracts/access/AccessControl.sol\":3000:3029  _roles[role].members[account] */\n      0xffffffffffffffffffffffffffffffffffffffff\n      dup6\n      and\n      dup5\n      mstore\n      swap1\n      swap2\n      mstore\n      swap1\n      keccak256\n      sload\n      0xff\n      and\n        /* \"source/BinanceBABT/contracts/access/AccessControl.sol\":7535:7684  if (!hasRole(role, account)) {... */\n      tag_207\n      jumpi\n        /* \"source/BinanceBABT/contracts/access/AccessControl.sol\":7578:7590  _roles[role] */\n      0x00\n      dup3\n      dup2\n      mstore\n        /* \"source/BinanceBABT/contracts/access/AccessControl.sol\":7610:7614  true */\n      0x01\n        /* \"source/BinanceBABT/contracts/access/AccessControl.sol\":7578:7590  _roles[role] */\n      0x20\n      dup2\n      dup2\n      mstore\n      0x40\n      dup1\n      dup5\n      keccak256\n        /* \"source/BinanceBABT/contracts/access/AccessControl.sol\":7578:7607  _roles[role].members[account] */\n      0xffffffffffffffffffffffffffffffffffffffff\n      dup7\n      and\n      dup1\n      dup7\n      mstore\n      swap3\n      mstore\n      dup1\n      dup5\n      keccak256\n        /* \"source/BinanceBABT/contracts/access/AccessControl.sol\":7578:7614  _roles[role].members[account] = true */\n      dup1\n      sload\n      0xffffffffffffffffffffffffffffffffffffffffffffffffffffffffffffff00\n      and\n      swap1\n      swap4\n      or\n      swap1\n      swap3\n      sstore\n        /* \"source/BinanceBABT/contracts/access/AccessControl.sol\":7633:7673  RoleGranted(role, account, _msgSender()) */\n      swap1\n      mload\n        /* \"source/BinanceBABT/contracts/utils/Context.sol\":719:729  msg.sender */\n      caller\n      swap3\n        /* \"source/BinanceBABT/contracts/access/AccessControl.sol\":7578:7590  _roles[role] */\n      dup6\n      swap2\n        /* \"source/BinanceBABT/contracts/access/AccessControl.sol\":7633:7673  RoleGranted(role, account, _msgSender()) */\n      0x2f8788117e7eff1d82e926ec794901d17c78024a50270940304540a733656f0d\n      swap2\n        /* \"source/BinanceBABT/contracts/access/AccessControl.sol\":7578:7590  _roles[role] */\n      swap1\n        /* \"source/BinanceBABT/contracts/access/AccessControl.sol\":7633:7673  RoleGranted(role, account, _msgSender()) */\n      log4\n        /* \"source/BinanceBABT/contracts/access/AccessControl.sol\":7457:7690  function _grantRole(bytes32 role, address account) internal virtual {... */\n      pop\n      pop\n      jump\t// out\n        /* \"source/BinanceBABT/contracts/utils/EnumerableMap.sol\":12564:12684  function length(AddressToUintMap storage map) internal view returns (uint256) {... */\n    tag_184:\n        /* \"source/BinanceBABT/contracts/utils/EnumerableMap.sol\":12633:12640  uint256 */\n      0x00\n        /* \"source/BinanceBABT/contracts/utils/EnumerableMap.sol\":12659:12677  length(map._inner) */\n      tag_160\n        /* \"source/BinanceBABT/contracts/utils/EnumerableMap.sol\":12666:12669  map */\n      dup3\n        /* \"source/BinanceBABT/contracts/utils/EnumerableMap.sol\":12659:12665  length */\n      tag_327\n        /* \"source/BinanceBABT/contracts/utils/EnumerableMap.sol\":12659:12677  length(map._inner) */\n      jump\t// in\n        /* \"source/BinanceBABT/contracts/access/AccessControl.sol\":3330:3433  function _checkRole(bytes32 role) internal view virtual {... */\n    tag_191:\n        /* \"source/BinanceBABT/contracts/access/AccessControl.sol\":3396:3426  _checkRole(role, _msgSender()) */\n      tag_329\n        /* \"source/BinanceBABT/contracts/access/AccessControl.sol\":3407:3411  role */\n      dup2\n        /* \"source/BinanceBABT/contracts/utils/Context.sol\":719:729  msg.sender */\n      caller\n        /* \"source/BinanceBABT/contracts/access/AccessControl.sol\":3396:3406  _checkRole */\n      tag_331\n        /* \"source/BinanceBABT/contracts/access/AccessControl.sol\":3396:3426  _checkRole(role, _msgSender()) */\n      jump\t// in\n    tag_329:\n        /* \"source/BinanceBABT/contracts/access/AccessControl.sol\":3330:3433  function _checkRole(bytes32 role) internal view virtual {... */\n      pop\n      jump\t// out\n        /* \"source/BinanceBABT/contracts/access/AccessControl.sol\":7861:8095  function _revokeRole(bytes32 role, address account) internal virtual {... */\n    tag_208:\n        /* \"source/BinanceBABT/contracts/access/AccessControl.sol\":2977:2981  bool */\n      0x00\n        /* \"source/BinanceBABT/contracts/access/AccessControl.sol\":3000:3012  _roles[role] */\n      dup3\n      dup2\n      mstore\n        /* \"source/BinanceBABT/contracts/access/AccessControl.sol\":3000:3006  _roles */\n      0x01\n        /* \"source/BinanceBABT/contracts/access/AccessControl.sol\":3000:3012  _roles[role] */\n      0x20\n      swap1\n      dup2\n      mstore\n      0x40\n      dup1\n      dup4\n      keccak256\n        /* \"source/BinanceBABT/contracts/access/AccessControl.sol\":3000:3029  _roles[role].members[account] */\n      0xffffffffffffffffffffffffffffffffffffffff\n      dup6\n      and\n      dup5\n      mstore\n      swap1\n      swap2\n      mstore\n      swap1\n      keccak256\n      sload\n      0xff\n      and\n        /* \"source/BinanceBABT/contracts/access/AccessControl.sol\":7940:8089  if (hasRole(role, account)) {... */\n      iszero\n      tag_207\n      jumpi\n        /* \"source/BinanceBABT/contracts/access/AccessControl.sol\":8014:8019  false */\n      0x00\n        /* \"source/BinanceBABT/contracts/access/AccessControl.sol\":7982:7994  _roles[role] */\n      dup3\n      dup2\n      mstore\n        /* \"source/BinanceBABT/contracts/access/AccessControl.sol\":7982:7988  _roles */\n      0x01\n        /* \"source/BinanceBABT/contracts/access/AccessControl.sol\":7982:7994  _roles[role] */\n      0x20\n      swap1\n      dup2\n      mstore\n      0x40\n      dup1\n      dup4\n      keccak256\n        /* \"source/BinanceBABT/contracts/access/AccessControl.sol\":7982:8011  _roles[role].members[account] */\n      0xffffffffffffffffffffffffffffffffffffffff\n      dup6\n      and\n      dup1\n      dup6\n      mstore\n      swap3\n      mstore\n      dup1\n      dup4\n      keccak256\n        /* \"source/BinanceBABT/contracts/access/AccessControl.sol\":7982:8019  _roles[role].members[account] = false */\n      dup1\n      sload\n      0xffffffffffffffffffffffffffffffffffffffffffffffffffffffffffffff00\n      and\n      swap1\n      sstore\n        /* \"source/BinanceBABT/contracts/access/AccessControl.sol\":8038:8078  RoleRevoked(role, account, _msgSender()) */\n      mload\n        /* \"source/BinanceBABT/contracts/utils/Context.sol\":719:729  msg.sender */\n      caller\n      swap3\n        /* \"source/BinanceBABT/contracts/access/AccessControl.sol\":7982:7994  _roles[role] */\n      dup6\n      swap2\n        /* \"source/BinanceBABT/contracts/access/AccessControl.sol\":8038:8078  RoleRevoked(role, account, _msgSender()) */\n      0xf6391f5c32d9c69d2a47ea670b442974b53935d1edc7fd64eb21e047a839171b\n      swap2\n        /* \"source/BinanceBABT/contracts/access/AccessControl.sol\":8014:8019  false */\n      swap1\n        /* \"source/BinanceBABT/contracts/access/AccessControl.sol\":8038:8078  RoleRevoked(role, account, _msgSender()) */\n      log4\n        /* \"source/BinanceBABT/contracts/access/AccessControl.sol\":7861:8095  function _revokeRole(bytes32 role, address account) internal virtual {... */\n      pop\n      pop\n      jump\t// out\n        /* \"source/BinanceBABT/contracts/utils/EnumerableMap.sol\":11143:11383  function get(... */\n    tag_220:\n        /* \"source/BinanceBABT/contracts/utils/EnumerableMap.sol\":11280:11287  address */\n      0x00\n        /* \"source/BinanceBABT/contracts/utils/EnumerableMap.sol\":11330:11373  get(map._inner, bytes32(key), errorMessage) */\n      tag_337\n        /* \"source/BinanceBABT/contracts/utils/EnumerableMap.sol\":11334:11337  map */\n      dup5\n        /* \"source/BinanceBABT/contracts/utils/EnumerableMap.sol\":11354:11357  key */\n      dup5\n        /* \"source/BinanceBABT/contracts/utils/EnumerableMap.sol\":11360:11372  errorMessage */\n      dup5\n        /* \"source/BinanceBABT/contracts/utils/EnumerableMap.sol\":11330:11333  get */\n      tag_338\n        /* \"source/BinanceBABT/contracts/utils/EnumerableMap.sol\":11330:11373  get(map._inner, bytes32(key), errorMessage) */\n      jump\t// in\n    tag_337:\n        /* \"source/BinanceBABT/contracts/utils/EnumerableMap.sol\":11322:11374  uint256(get(map._inner, bytes32(key), errorMessage)) */\n      swap5\n        /* \"source/BinanceBABT/contracts/utils/EnumerableMap.sol\":11143:11383  function get(... */\n      swap4\n      pop\n      pop\n      pop\n      pop\n      jump\t// out\n        /* \"source/BinanceBABT/contracts/utils/EnumerableMap.sol\":11708:11920  function set(... */\n    tag_243:\n        /* \"source/BinanceBABT/contracts/utils/EnumerableMap.sol\":11827:11831  bool */\n      0x00\n        /* \"source/BinanceBABT/contracts/utils/EnumerableMap.sol\":11850:11913  set(map._inner, bytes32(uint256(uint160(key))), bytes32(value)) */\n      tag_337\n        /* \"source/BinanceBABT/contracts/utils/EnumerableMap.sol\":11854:11857  map */\n      dup5\n        /* \"source/BinanceBABT/contracts/utils/EnumerableMap.sol\":11874:11895  uint256(uint160(key)) */\n      0xffffffffffffffffffffffffffffffffffffffff\n      dup6\n      and\n        /* \"source/BinanceBABT/contracts/utils/EnumerableMap.sol\":11906:11911  value */\n      dup5\n        /* \"source/BinanceBABT/contracts/utils/EnumerableMap.sol\":11850:11853  set */\n      tag_343\n        /* \"source/BinanceBABT/contracts/utils/EnumerableMap.sol\":11850:11913  set(map._inner, bytes32(uint256(uint160(key))), bytes32(value)) */\n      jump\t// in\n        /* \"source/BinanceBABT/contracts/utils/EnumerableMap.sol\":8616:8828  function set(... */\n    tag_245:\n        /* \"source/BinanceBABT/contracts/utils/EnumerableMap.sol\":8735:8739  bool */\n      0x00\n        /* \"source/BinanceBABT/contracts/utils/EnumerableMap.sol\":8758:8821  set(map._inner, bytes32(key), bytes32(uint256(uint160(value)))) */\n      tag_337\n        /* \"source/BinanceBABT/contracts/utils/EnumerableMap.sol\":8762:8765  map */\n      dup5\n        /* \"source/BinanceBABT/contracts/utils/EnumerableMap.sol\":8782:8785  key */\n      dup5\n        /* \"source/BinanceBABT/contracts/utils/EnumerableMap.sol\":8796:8819  uint256(uint160(value)) */\n      0xffffffffffffffffffffffffffffffffffffffff\n      dup6\n      and\n        /* \"source/BinanceBABT/contracts/utils/EnumerableMap.sol\":8758:8761  set */\n      tag_343\n        /* \"source/BinanceBABT/contracts/utils/EnumerableMap.sol\":8758:8821  set(map._inner, bytes32(key), bytes32(uint256(uint160(value)))) */\n      jump\t// in\n        /* \"source/BinanceBABT/contracts/utils/EnumerableMap.sol\":13395:13633  function tryGet(AddressToUintMap storage map, address key) internal view returns (bool, uint256) {... */\n    tag_251:\n        /* \"source/BinanceBABT/contracts/utils/EnumerableMap.sol\":13477:13481  bool */\n      0x00\n      dup1\n      dup1\n      dup1\n        /* \"source/BinanceBABT/contracts/utils/EnumerableMap.sol\":13534:13584  tryGet(map._inner, bytes32(uint256(uint160(key)))) */\n      tag_347\n        /* \"source/BinanceBABT/contracts/utils/EnumerableMap.sol\":13541:13544  map */\n      dup7\n        /* \"source/BinanceBABT/contracts/utils/EnumerableMap.sol\":13561:13582  uint256(uint160(key)) */\n      0xffffffffffffffffffffffffffffffffffffffff\n      dup8\n      and\n        /* \"source/BinanceBABT/contracts/utils/EnumerableMap.sol\":13534:13540  tryGet */\n      tag_348\n        /* \"source/BinanceBABT/contracts/utils/EnumerableMap.sol\":13534:13584  tryGet(map._inner, bytes32(uint256(uint160(key)))) */\n      jump\t// in\n    tag_347:\n        /* \"source/BinanceBABT/contracts/utils/EnumerableMap.sol\":13502:13584  (bool success, bytes32 value) = tryGet(map._inner, bytes32(uint256(uint160(key)))) */\n      swap1\n      swap5\n      pop\n      swap3\n      pop\n      pop\n      pop\n        /* \"source/BinanceBABT/contracts/utils/EnumerableMap.sol\":13395:13633  function tryGet(AddressToUintMap storage map, address key) internal view returns (bool, uint256) {... */\n    tag_346:\n      swap3\n      pop\n      swap3\n      swap1\n      pop\n      jump\t// out\n        /* \"source/BinanceBABT/contracts/utils/EnumerableMap.sol\":14233:14473  function get(... */\n    tag_270:\n        /* \"source/BinanceBABT/contracts/utils/EnumerableMap.sol\":14370:14377  uint256 */\n      0x00\n        /* \"source/BinanceBABT/contracts/utils/EnumerableMap.sol\":14404:14465  get(map._inner, bytes32(uint256(uint160(key))), errorMessage) */\n      tag_337\n        /* \"source/BinanceBABT/contracts/utils/EnumerableMap.sol\":14408:14411  map */\n      dup5\n        /* \"source/BinanceBABT/contracts/utils/EnumerableMap.sol\":14428:14449  uint256(uint160(key)) */\n      0xffffffffffffffffffffffffffffffffffffffff\n      dup6\n      and\n        /* \"source/BinanceBABT/contracts/utils/EnumerableMap.sol\":14452:14464  errorMessage */\n      dup5\n        /* \"source/BinanceBABT/contracts/utils/EnumerableMap.sol\":14404:14407  get */\n      tag_338\n        /* \"source/BinanceBABT/contracts/utils/EnumerableMap.sol\":14404:14465  get(map._inner, bytes32(uint256(uint160(key))), errorMessage) */\n      jump\t// in\n        /* \"source/BinanceBABT/contracts/utils/Strings.sol\":392:1095  function toString(uint256 value) internal pure returns (string memory) {... */\n    tag_282:\n        /* \"source/BinanceBABT/contracts/utils/Strings.sol\":448:461  string memory */\n      0x60\n        /* \"source/BinanceBABT/contracts/utils/Strings.sol\":665:670  value */\n      dup2\n        /* \"source/BinanceBABT/contracts/utils/Strings.sol\":674:675  0 */\n      0x00\n        /* \"source/BinanceBABT/contracts/utils/Strings.sol\":665:675  value == 0 */\n      sub\n        /* \"source/BinanceBABT/contracts/utils/Strings.sol\":661:712  if (value == 0) {... */\n      tag_352\n      jumpi\n      pop\n      pop\n        /* \"source/BinanceBABT/contracts/utils/Strings.sol\":691:701  return \"0\" */\n      0x40\n      dup1\n      mload\n      dup1\n      dup3\n      add\n      swap1\n      swap2\n      mstore\n      0x01\n      dup2\n      mstore\n      0x3000000000000000000000000000000000000000000000000000000000000000\n      0x20\n      dup3\n      add\n      mstore\n      swap1\n        /* \"source/BinanceBABT/contracts/utils/Strings.sol\":392:1095  function toString(uint256 value) internal pure returns (string memory) {... */\n      jump\t// out\n        /* \"source/BinanceBABT/contracts/utils/Strings.sol\":661:712  if (value == 0) {... */\n    tag_352:\n        /* \"source/BinanceBABT/contracts/utils/Strings.sol\":736:741  value */\n      dup2\n        /* \"source/BinanceBABT/contracts/utils/Strings.sol\":721:733  uint256 temp */\n      0x00\n        /* \"source/BinanceBABT/contracts/utils/Strings.sol\":775:850  while (temp != 0) {... */\n    tag_353:\n        /* \"source/BinanceBABT/contracts/utils/Strings.sol\":782:791  temp != 0 */\n      dup2\n      iszero\n        /* \"source/BinanceBABT/contracts/utils/Strings.sol\":775:850  while (temp != 0) {... */\n      tag_354\n      jumpi\n        /* \"source/BinanceBABT/contracts/utils/Strings.sol\":807:815  digits++ */\n      dup1\n      tag_355\n      dup2\n      tag_356\n      jump\t// in\n    tag_355:\n      swap2\n      pop\n        /* \"source/BinanceBABT/contracts/utils/Strings.sol\":829:839  temp /= 10 */\n      tag_357\n      swap1\n      pop\n        /* \"source/BinanceBABT/contracts/utils/Strings.sol\":837:839  10 */\n      0x0a\n        /* \"source/BinanceBABT/contracts/utils/Strings.sol\":829:839  temp /= 10 */\n      dup4\n      tag_358\n      jump\t// in\n    tag_357:\n      swap2\n      pop\n        /* \"source/BinanceBABT/contracts/utils/Strings.sol\":775:850  while (temp != 0) {... */\n      jump(tag_353)\n    tag_354:\n        /* \"source/BinanceBABT/contracts/utils/Strings.sol\":859:878  bytes memory buffer */\n      0x00\n        /* \"source/BinanceBABT/contracts/utils/Strings.sol\":891:897  digits */\n      dup2\n        /* \"source/BinanceBABT/contracts/utils/Strings.sol\":881:898  new bytes(digits) */\n      0xffffffffffffffff\n      dup2\n      gt\n      iszero\n      tag_360\n      jumpi\n      tag_360\n      tag_361\n      jump\t// in\n    tag_360:\n      mload(0x40)\n      swap1\n      dup1\n      dup3\n      mstore\n      dup1\n      0x1f\n      add\n      not(0x1f)\n      and\n      0x20\n      add\n      dup3\n      add\n      0x40\n      mstore\n      dup1\n      iszero\n      tag_362\n      jumpi\n      0x20\n      dup3\n      add\n      dup2\n      dup1\n      calldatasize\n      dup4\n      calldatacopy\n      add\n      swap1\n      pop\n    tag_362:\n      pop\n        /* \"source/BinanceBABT/contracts/utils/Strings.sol\":859:898  bytes memory buffer = new bytes(digits) */\n      swap1\n      pop\n        /* \"source/BinanceBABT/contracts/utils/Strings.sol\":908:1058  while (value != 0) {... */\n    tag_363:\n        /* \"source/BinanceBABT/contracts/utils/Strings.sol\":915:925  value != 0 */\n      dup5\n      iszero\n        /* \"source/BinanceBABT/contracts/utils/Strings.sol\":908:1058  while (value != 0) {... */\n      tag_337\n      jumpi\n        /* \"source/BinanceBABT/contracts/utils/Strings.sol\":941:952  digits -= 1 */\n      tag_365\n        /* \"source/BinanceBABT/contracts/utils/Strings.sol\":951:952  1 */\n      0x01\n        /* \"source/BinanceBABT/contracts/utils/Strings.sol\":941:952  digits -= 1 */\n      dup4\n      tag_366\n      jump\t// in\n    tag_365:\n      swap2\n      pop\n        /* \"source/BinanceBABT/contracts/utils/Strings.sol\":1009:1019  value % 10 */\n      tag_367\n        /* \"source/BinanceBABT/contracts/utils/Strings.sol\":1017:1019  10 */\n      0x0a\n        /* \"source/BinanceBABT/contracts/utils/Strings.sol\":1009:1014  value */\n      dup7\n        /* \"source/BinanceBABT/contracts/utils/Strings.sol\":1009:1019  value % 10 */\n      tag_368\n      jump\t// in\n    tag_367:\n        /* \"source/BinanceBABT/contracts/utils/Strings.sol\":996:1020  48 + uint256(value % 10) */\n      tag_369\n      swap1\n        /* \"source/BinanceBABT/contracts/utils/Strings.sol\":996:998  48 */\n      0x30\n        /* \"source/BinanceBABT/contracts/utils/Strings.sol\":996:1020  48 + uint256(value % 10) */\n      tag_370\n      jump\t// in\n    tag_369:\n        /* \"source/BinanceBABT/contracts/utils/Strings.sol\":983:1022  bytes1(uint8(48 + uint256(value % 10))) */\n      0xf8\n      shl\n        /* \"source/BinanceBABT/contracts/utils/Strings.sol\":966:972  buffer */\n      dup2\n        /* \"source/BinanceBABT/contracts/utils/Strings.sol\":973:979  digits */\n      dup4\n        /* \"source/BinanceBABT/contracts/utils/Strings.sol\":966:980  buffer[digits] */\n      dup2\n      mload\n      dup2\n      lt\n      tag_372\n      jumpi\n      tag_372\n      tag_143\n      jump\t// in\n    tag_372:\n      0x20\n      add\n      add\n        /* \"source/BinanceBABT/contracts/utils/Strings.sol\":966:1022  buffer[digits] = bytes1(uint8(48 + uint256(value % 10))) */\n      swap1\n      not(0xffffffffffffffffffffffffffffffffffffffffffffffffffffffffffffff)\n      and\n      swap1\n      dup2\n      0x00\n      byte\n      swap1\n      mstore8\n      pop\n        /* \"source/BinanceBABT/contracts/utils/Strings.sol\":1036:1047  value /= 10 */\n      tag_373\n        /* \"source/BinanceBABT/contracts/utils/Strings.sol\":1045:1047  10 */\n      0x0a\n        /* \"source/BinanceBABT/contracts/utils/Strings.sol\":1036:1047  value /= 10 */\n      dup7\n      tag_358\n      jump\t// in\n    tag_373:\n      swap5\n      pop\n        /* \"source/BinanceBABT/contracts/utils/Strings.sol\":908:1058  while (value != 0) {... */\n      jump(tag_363)\n        /* \"source/BinanceBABT/contracts/utils/EnumerableMap.sol\":3054:3194  function contains(Bytes32ToBytes32Map storage map, bytes32 key) internal view returns (bool) {... */\n    tag_308:\n        /* \"source/BinanceBABT/contracts/utils/EnumerableMap.sol\":3141:3145  bool */\n      0x00\n        /* \"source/BinanceBABT/contracts/utils/EnumerableMap.sol\":3164:3187  map._keys.contains(key) */\n      tag_307\n        /* \"source/BinanceBABT/contracts/utils/EnumerableMap.sol\":3164:3167  map */\n      dup4\n        /* \"source/BinanceBABT/contracts/utils/EnumerableMap.sol\":3183:3186  key */\n      dup4\n        /* \"source/BinanceBABT/contracts/utils/EnumerableMap.sol\":3164:3182  map._keys.contains */\n      tag_376\n        /* \"source/BinanceBABT/contracts/utils/EnumerableMap.sol\":3164:3187  map._keys.contains(key) */\n      jump\t// in\n        /* \"source/BinanceBABT/contracts/utils/EnumerableMap.sol\":4543:4790  function get(Bytes32ToBytes32Map storage map, bytes32 key) internal view returns (bytes32) {... */\n    tag_311:\n        /* \"source/BinanceBABT/contracts/utils/EnumerableMap.sol\":4625:4632  bytes32 */\n      0x00\n        /* \"source/BinanceBABT/contracts/utils/EnumerableMap.sol\":4660:4676  map._values[key] */\n      dup2\n      dup2\n      mstore\n        /* \"source/BinanceBABT/contracts/utils/EnumerableMap.sol\":4660:4671  map._values */\n      0x02\n      dup4\n      add\n        /* \"source/BinanceBABT/contracts/utils/EnumerableMap.sol\":4660:4676  map._values[key] */\n      0x20\n      mstore\n      0x40\n      dup2\n      keccak256\n      sload\n        /* \"source/BinanceBABT/contracts/utils/EnumerableMap.sol\":4694:4704  value != 0 */\n      dup1\n      iszero\n      iszero\n      dup1\n        /* \"source/BinanceBABT/contracts/utils/EnumerableMap.sol\":4694:4726  value != 0 || contains(map, key) */\n      tag_379\n      jumpi\n      pop\n        /* \"source/BinanceBABT/contracts/utils/EnumerableMap.sol\":4708:4726  contains(map, key) */\n      tag_379\n        /* \"source/BinanceBABT/contracts/utils/EnumerableMap.sol\":4717:4720  map */\n      dup5\n        /* \"source/BinanceBABT/contracts/utils/EnumerableMap.sol\":4722:4725  key */\n      dup5\n        /* \"source/BinanceBABT/contracts/utils/EnumerableMap.sol\":4708:4716  contains */\n      tag_308\n        /* \"source/BinanceBABT/contracts/utils/EnumerableMap.sol\":4708:4726  contains(map, key) */\n      jump\t// in\n    tag_379:\n        /* \"source/BinanceBABT/contracts/utils/EnumerableMap.sol\":4686:4761  require(value != 0 || contains(map, key), \"EnumerableMap: nonexistent key\") */\n      tag_307\n      jumpi\n      mload(0x40)\n      0x08c379a000000000000000000000000000000000000000000000000000000000\n      dup2\n      mstore\n        /* \"#utility.yul\":16416:16418   */\n      0x20\n        /* \"source/BinanceBABT/contracts/utils/EnumerableMap.sol\":4686:4761  require(value != 0 || contains(map, key), \"EnumerableMap: nonexistent key\") */\n      0x04\n      dup3\n      add\n        /* \"#utility.yul\":16398:16419   */\n      mstore\n        /* \"#utility.yul\":16455:16457   */\n      0x1e\n        /* \"#utility.yul\":16435:16453   */\n      0x24\n      dup3\n      add\n        /* \"#utility.yul\":16428:16458   */\n      mstore\n        /* \"#utility.yul\":16494:16526   */\n      0x456e756d657261626c654d61703a206e6f6e6578697374656e74206b65790000\n        /* \"#utility.yul\":16474:16492   */\n      0x44\n      dup3\n      add\n        /* \"#utility.yul\":16467:16527   */\n      mstore\n        /* \"#utility.yul\":16544:16562   */\n      0x64\n      add\n        /* \"source/BinanceBABT/contracts/utils/EnumerableMap.sol\":4686:4761  require(value != 0 || contains(map, key), \"EnumerableMap: nonexistent key\") */\n      tag_133\n        /* \"#utility.yul\":16214:16568   */\n      jump\n        /* \"source/BinanceBABT/contracts/utils/EnumerableMap.sol\":2811:2975  function remove(Bytes32ToBytes32Map storage map, bytes32 key) internal returns (bool) {... */\n    tag_314:\n        /* \"source/BinanceBABT/contracts/utils/EnumerableMap.sol\":2891:2895  bool */\n      0x00\n        /* \"source/BinanceBABT/contracts/utils/EnumerableMap.sol\":2914:2930  map._values[key] */\n      dup2\n      dup2\n      mstore\n        /* \"source/BinanceBABT/contracts/utils/EnumerableMap.sol\":2914:2925  map._values */\n      0x02\n      dup4\n      add\n        /* \"source/BinanceBABT/contracts/utils/EnumerableMap.sol\":2914:2930  map._values[key] */\n      0x20\n      mstore\n      0x40\n      dup2\n      keccak256\n        /* \"source/BinanceBABT/contracts/utils/EnumerableMap.sol\":2907:2930  delete map._values[key] */\n      dup2\n      swap1\n      sstore\n        /* \"source/BinanceBABT/contracts/utils/EnumerableMap.sol\":2947:2968  map._keys.remove(key) */\n      tag_307\n        /* \"source/BinanceBABT/contracts/utils/EnumerableMap.sol\":2914:2917  map */\n      dup4\n        /* \"source/BinanceBABT/contracts/utils/EnumerableMap.sol\":2926:2929  key */\n      dup4\n        /* \"source/BinanceBABT/contracts/utils/EnumerableMap.sol\":2947:2963  map._keys.remove */\n      tag_385\n        /* \"source/BinanceBABT/contracts/utils/EnumerableMap.sol\":2947:2968  map._keys.remove(key) */\n      jump\t// in\n        /* \"source/BinanceBABT/contracts/utils/EnumerableMap.sol\":3284:3407  function length(Bytes32ToBytes32Map storage map) internal view returns (uint256) {... */\n    tag_327:\n        /* \"source/BinanceBABT/contracts/utils/EnumerableMap.sol\":3356:3363  uint256 */\n      0x00\n        /* \"source/BinanceBABT/contracts/utils/EnumerableMap.sol\":3382:3400  map._keys.length() */\n      tag_160\n        /* \"source/BinanceBABT/contracts/utils/EnumerableMap.sol\":3382:3385  map */\n      dup3\n        /* \"source/BinanceBABT/contracts/utils/EnumerableMap.sol\":3382:3398  map._keys.length */\n      tag_389\n        /* \"source/BinanceBABT/contracts/utils/EnumerableMap.sol\":3382:3400  map._keys.length() */\n      jump\t// in\n        /* \"source/BinanceBABT/contracts/access/AccessControl.sol\":3714:4193  function _checkRole(bytes32 role, address account) internal view virtual {... */\n    tag_331:\n        /* \"source/BinanceBABT/contracts/access/AccessControl.sol\":2977:2981  bool */\n      0x00\n        /* \"source/BinanceBABT/contracts/access/AccessControl.sol\":3000:3012  _roles[role] */\n      dup3\n      dup2\n      mstore\n        /* \"source/BinanceBABT/contracts/access/AccessControl.sol\":3000:3006  _roles */\n      0x01\n        /* \"source/BinanceBABT/contracts/access/AccessControl.sol\":3000:3012  _roles[role] */\n      0x20\n      swap1\n      dup2\n      mstore\n      0x40\n      dup1\n      dup4\n      keccak256\n        /* \"source/BinanceBABT/contracts/access/AccessControl.sol\":3000:3029  _roles[role].members[account] */\n      0xffffffffffffffffffffffffffffffffffffffff\n      dup6\n      and\n      dup5\n      mstore\n      swap1\n      swap2\n      mstore\n      swap1\n      keccak256\n      sload\n      0xff\n      and\n        /* \"source/BinanceBABT/contracts/access/AccessControl.sol\":3797:4187  if (!hasRole(role, account)) {... */\n      tag_207\n      jumpi\n        /* \"source/BinanceBABT/contracts/access/AccessControl.sol\":3985:4013  Strings.toHexString(account) */\n      tag_393\n        /* \"source/BinanceBABT/contracts/access/AccessControl.sol\":4005:4012  account */\n      dup2\n        /* \"source/BinanceBABT/contracts/access/AccessControl.sol\":3985:4004  Strings.toHexString */\n      tag_394\n        /* \"source/BinanceBABT/contracts/access/AccessControl.sol\":3985:4013  Strings.toHexString(account) */\n      jump\t// in\n    tag_393:\n        /* \"source/BinanceBABT/contracts/access/AccessControl.sol\":4084:4122  Strings.toHexString(uint256(role), 32) */\n      tag_395\n        /* \"source/BinanceBABT/contracts/access/AccessControl.sol\":4112:4116  role */\n      dup4\n        /* \"source/BinanceBABT/contracts/access/AccessControl.sol\":4119:4121  32 */\n      0x20\n        /* \"source/BinanceBABT/contracts/access/AccessControl.sol\":4084:4103  Strings.toHexString */\n      tag_396\n        /* \"source/BinanceBABT/contracts/access/AccessControl.sol\":4084:4122  Strings.toHexString(uint256(role), 32) */\n      jump\t// in\n    tag_395:\n        /* \"source/BinanceBABT/contracts/access/AccessControl.sol\":3892:4144  abi.encodePacked(... */\n      add(0x20, mload(0x40))\n      tag_397\n      swap3\n      swap2\n      swap1\n      tag_398\n      jump\t// in\n    tag_397:\n      0x40\n      dup1\n      mload\n      0xffffffffffffffffffffffffffffffffffffffffffffffffffffffffffffffe0\n      dup2\n      dup5\n      sub\n      add\n      dup2\n      mstore\n      swap1\n      dup3\n      swap1\n      mstore\n        /* \"source/BinanceBABT/contracts/access/AccessControl.sol\":3840:4176  revert(... */\n      0x08c379a000000000000000000000000000000000000000000000000000000000\n      dup3\n      mstore\n      tag_133\n      swap2\n      0x04\n      add\n      tag_47\n      jump\t// in\n        /* \"source/BinanceBABT/contracts/utils/EnumerableMap.sol\":5072:5357  function get(... */\n    tag_338:\n        /* \"source/BinanceBABT/contracts/utils/EnumerableMap.sol\":5212:5219  bytes32 */\n      0x00\n        /* \"source/BinanceBABT/contracts/utils/EnumerableMap.sol\":5247:5263  map._values[key] */\n      dup3\n      dup2\n      mstore\n        /* \"source/BinanceBABT/contracts/utils/EnumerableMap.sol\":5247:5258  map._values */\n      0x02\n      dup5\n      add\n        /* \"source/BinanceBABT/contracts/utils/EnumerableMap.sol\":5247:5263  map._values[key] */\n      0x20\n      mstore\n      0x40\n      dup2\n      keccak256\n      sload\n        /* \"source/BinanceBABT/contracts/utils/EnumerableMap.sol\":5281:5291  value != 0 */\n      dup1\n      iszero\n      iszero\n      dup1\n        /* \"source/BinanceBABT/contracts/utils/EnumerableMap.sol\":5281:5313  value != 0 || contains(map, key) */\n      tag_402\n      jumpi\n      pop\n        /* \"source/BinanceBABT/contracts/utils/EnumerableMap.sol\":5295:5313  contains(map, key) */\n      tag_402\n        /* \"source/BinanceBABT/contracts/utils/EnumerableMap.sol\":5304:5307  map */\n      dup6\n        /* \"source/BinanceBABT/contracts/utils/EnumerableMap.sol\":5309:5312  key */\n      dup6\n        /* \"source/BinanceBABT/contracts/utils/EnumerableMap.sol\":5295:5303  contains */\n      tag_308\n        /* \"source/BinanceBABT/contracts/utils/EnumerableMap.sol\":5295:5313  contains(map, key) */\n      jump\t// in\n    tag_402:\n        /* \"source/BinanceBABT/contracts/utils/EnumerableMap.sol\":5315:5327  errorMessage */\n      dup4\n        /* \"source/BinanceBABT/contracts/utils/EnumerableMap.sol\":5273:5328  require(value != 0 || contains(map, key), errorMessage) */\n      swap1\n      tag_403\n      jumpi\n      mload(0x40)\n      0x08c379a000000000000000000000000000000000000000000000000000000000\n      dup2\n      mstore\n      0x04\n      add\n      tag_133\n      swap2\n      swap1\n      tag_47\n      jump\t// in\n    tag_403:\n      pop\n        /* \"source/BinanceBABT/contracts/utils/EnumerableMap.sol\":5345:5350  value */\n      swap5\n        /* \"source/BinanceBABT/contracts/utils/EnumerableMap.sol\":5072:5357  function get(... */\n      swap4\n      pop\n      pop\n      pop\n      pop\n      jump\t// out\n        /* \"source/BinanceBABT/contracts/utils/EnumerableMap.sol\":2439:2643  function set(... */\n    tag_343:\n        /* \"source/BinanceBABT/contracts/utils/EnumerableMap.sol\":2561:2565  bool */\n      0x00\n        /* \"source/BinanceBABT/contracts/utils/EnumerableMap.sol\":2577:2593  map._values[key] */\n      dup3\n      dup2\n      mstore\n        /* \"source/BinanceBABT/contracts/utils/EnumerableMap.sol\":2577:2588  map._values */\n      0x02\n      dup5\n      add\n        /* \"source/BinanceBABT/contracts/utils/EnumerableMap.sol\":2577:2593  map._values[key] */\n      0x20\n      mstore\n      0x40\n      dup2\n      keccak256\n        /* \"source/BinanceBABT/contracts/utils/EnumerableMap.sol\":2577:2601  map._values[key] = value */\n      dup3\n      swap1\n      sstore\n        /* \"source/BinanceBABT/contracts/utils/EnumerableMap.sol\":2618:2636  map._keys.add(key) */\n      tag_337\n        /* \"source/BinanceBABT/contracts/utils/EnumerableMap.sol\":2577:2580  map */\n      dup5\n        /* \"source/BinanceBABT/contracts/utils/EnumerableMap.sol\":2589:2592  key */\n      dup5\n        /* \"source/BinanceBABT/contracts/utils/EnumerableMap.sol\":2618:2631  map._keys.add */\n      tag_407\n        /* \"source/BinanceBABT/contracts/utils/EnumerableMap.sol\":2618:2636  map._keys.add(key) */\n      jump\t// in\n        /* \"source/BinanceBABT/contracts/utils/EnumerableMap.sol\":4093:4391  function tryGet(Bytes32ToBytes32Map storage map, bytes32 key) internal view returns (bool, bytes32) {... */\n    tag_348:\n        /* \"source/BinanceBABT/contracts/utils/EnumerableMap.sol\":4178:4182  bool */\n      0x00\n        /* \"source/BinanceBABT/contracts/utils/EnumerableMap.sol\":4219:4235  map._values[key] */\n      dup2\n      dup2\n      mstore\n        /* \"source/BinanceBABT/contracts/utils/EnumerableMap.sol\":4219:4230  map._values */\n      0x02\n      dup4\n      add\n        /* \"source/BinanceBABT/contracts/utils/EnumerableMap.sol\":4219:4235  map._values[key] */\n      0x20\n      mstore\n      0x40\n      dup2\n      keccak256\n      sload\n        /* \"source/BinanceBABT/contracts/utils/EnumerableMap.sol\":4178:4182  bool */\n      dup2\n      swap1\n        /* \"source/BinanceBABT/contracts/utils/EnumerableMap.sol\":4219:4235  map._values[key] */\n      dup1\n        /* \"source/BinanceBABT/contracts/utils/EnumerableMap.sol\":4245:4385  if (value == bytes32(0)) {... */\n      tag_409\n      jumpi\n        /* \"source/BinanceBABT/contracts/utils/EnumerableMap.sol\":4292:4310  contains(map, key) */\n      tag_410\n        /* \"source/BinanceBABT/contracts/utils/EnumerableMap.sol\":4301:4304  map */\n      dup6\n        /* \"source/BinanceBABT/contracts/utils/EnumerableMap.sol\":4306:4309  key */\n      dup6\n        /* \"source/BinanceBABT/contracts/utils/EnumerableMap.sol\":4292:4300  contains */\n      tag_308\n        /* \"source/BinanceBABT/contracts/utils/EnumerableMap.sol\":4292:4310  contains(map, key) */\n      jump\t// in\n    tag_410:\n        /* \"source/BinanceBABT/contracts/utils/EnumerableMap.sol\":4284:4323  return (contains(map, key), bytes32(0)) */\n      swap3\n      pop\n        /* \"source/BinanceBABT/contracts/utils/EnumerableMap.sol\":4320:4321  0 */\n      0x00\n      swap2\n      pop\n        /* \"source/BinanceBABT/contracts/utils/EnumerableMap.sol\":4284:4323  return (contains(map, key), bytes32(0)) */\n      tag_346\n      swap1\n      pop\n      jump\n        /* \"source/BinanceBABT/contracts/utils/EnumerableMap.sol\":4245:4385  if (value == bytes32(0)) {... */\n    tag_409:\n        /* \"source/BinanceBABT/contracts/utils/EnumerableMap.sol\":4362:4366  true */\n      0x01\n      swap3\n      pop\n        /* \"source/BinanceBABT/contracts/utils/EnumerableMap.sol\":4368:4373  value */\n      swap1\n      pop\n        /* \"source/BinanceBABT/contracts/utils/EnumerableMap.sol\":4354:4374  return (true, value) */\n      jump(tag_346)\n        /* \"source/BinanceBABT/contracts/utils/EnumerableSet.sol\":6319:6457  function contains(Bytes32Set storage set, bytes32 value) internal view returns (bool) {... */\n    tag_376:\n        /* \"source/BinanceBABT/contracts/utils/EnumerableSet.sol\":6399:6403  bool */\n      0x00\n        /* \"source/BinanceBABT/contracts/utils/EnumerableSet.sol\":4250:4269  set._indexes[value] */\n      dup2\n      dup2\n      mstore\n        /* \"source/BinanceBABT/contracts/utils/EnumerableSet.sol\":4250:4262  set._indexes */\n      0x01\n      dup4\n      add\n        /* \"source/BinanceBABT/contracts/utils/EnumerableSet.sol\":4250:4269  set._indexes[value] */\n      0x20\n      mstore\n      0x40\n      dup2\n      keccak256\n      sload\n        /* \"source/BinanceBABT/contracts/utils/EnumerableSet.sol\":4250:4274  set._indexes[value] != 0 */\n      iszero\n      iszero\n        /* \"source/BinanceBABT/contracts/utils/EnumerableSet.sol\":6422:6450  _contains(set._inner, value) */\n      tag_307\n        /* \"source/BinanceBABT/contracts/utils/EnumerableSet.sol\":4154:4281  function _contains(Set storage set, bytes32 value) private view returns (bool) {... */\n      jump\n        /* \"source/BinanceBABT/contracts/utils/EnumerableSet.sol\":6109:6238  function remove(Bytes32Set storage set, bytes32 value) internal returns (bool) {... */\n    tag_385:\n        /* \"source/BinanceBABT/contracts/utils/EnumerableSet.sol\":6182:6186  bool */\n      0x00\n        /* \"source/BinanceBABT/contracts/utils/EnumerableSet.sol\":6205:6231  _remove(set._inner, value) */\n      tag_307\n        /* \"source/BinanceBABT/contracts/utils/EnumerableSet.sol\":6213:6216  set */\n      dup4\n        /* \"source/BinanceBABT/contracts/utils/EnumerableSet.sol\":6225:6230  value */\n      dup4\n        /* \"source/BinanceBABT/contracts/utils/EnumerableSet.sol\":6205:6212  _remove */\n      tag_417\n        /* \"source/BinanceBABT/contracts/utils/EnumerableSet.sol\":6205:6231  _remove(set._inner, value) */\n      jump\t// in\n        /* \"source/BinanceBABT/contracts/utils/EnumerableSet.sol\":6538:6653  function length(Bytes32Set storage set) internal view returns (uint256) {... */\n    tag_389:\n        /* \"source/BinanceBABT/contracts/utils/EnumerableSet.sol\":6601:6608  uint256 */\n      0x00\n        /* \"source/BinanceBABT/contracts/utils/EnumerableSet.sol\":6627:6646  _length(set._inner) */\n      tag_160\n        /* \"source/BinanceBABT/contracts/utils/EnumerableSet.sol\":6635:6638  set */\n      dup3\n        /* \"source/BinanceBABT/contracts/utils/EnumerableSet.sol\":4444:4462  set._values.length */\n      sload\n      swap1\n        /* \"source/BinanceBABT/contracts/utils/EnumerableSet.sol\":4362:4469  function _length(Set storage set) private view returns (uint256) {... */\n      jump\n        /* \"source/BinanceBABT/contracts/utils/Strings.sol\":2245:2394  function toHexString(address addr) internal pure returns (string memory) {... */\n    tag_394:\n        /* \"source/BinanceBABT/contracts/utils/Strings.sol\":2303:2316  string memory */\n      0x60\n        /* \"source/BinanceBABT/contracts/utils/Strings.sol\":2335:2387  toHexString(uint256(uint160(addr)), _ADDRESS_LENGTH) */\n      tag_160\n        /* \"source/BinanceBABT/contracts/utils/Strings.sol\":2347:2369  uint256(uint160(addr)) */\n      0xffffffffffffffffffffffffffffffffffffffff\n      dup4\n      and\n        /* \"source/BinanceBABT/contracts/utils/Strings.sol\":288:290  20 */\n      0x14\n        /* \"source/BinanceBABT/contracts/utils/Strings.sol\":1652:2093  function toHexString(uint256 value, uint256 length) internal pure returns (string memory) {... */\n    tag_396:\n        /* \"source/BinanceBABT/contracts/utils/Strings.sol\":1727:1740  string memory */\n      0x60\n        /* \"source/BinanceBABT/contracts/utils/Strings.sol\":1752:1771  bytes memory buffer */\n      0x00\n        /* \"source/BinanceBABT/contracts/utils/Strings.sol\":1784:1794  2 * length */\n      tag_424\n        /* \"source/BinanceBABT/contracts/utils/Strings.sol\":1788:1794  length */\n      dup4\n        /* \"source/BinanceBABT/contracts/utils/Strings.sol\":1784:1785  2 */\n      0x02\n        /* \"source/BinanceBABT/contracts/utils/Strings.sol\":1784:1794  2 * length */\n      tag_425\n      jump\t// in\n    tag_424:\n        /* \"source/BinanceBABT/contracts/utils/Strings.sol\":1784:1798  2 * length + 2 */\n      tag_426\n      swap1\n        /* \"source/BinanceBABT/contracts/utils/Strings.sol\":1797:1798  2 */\n      0x02\n        /* \"source/BinanceBABT/contracts/utils/Strings.sol\":1784:1798  2 * length + 2 */\n      tag_370\n      jump\t// in\n    tag_426:\n        /* \"source/BinanceBABT/contracts/utils/Strings.sol\":1774:1799  new bytes(2 * length + 2) */\n      0xffffffffffffffff\n      dup2\n      gt\n      iszero\n      tag_428\n      jumpi\n      tag_428\n      tag_361\n      jump\t// in\n    tag_428:\n      mload(0x40)\n      swap1\n      dup1\n      dup3\n      mstore\n      dup1\n      0x1f\n      add\n      not(0x1f)\n      and\n      0x20\n      add\n      dup3\n      add\n      0x40\n      mstore\n      dup1\n      iszero\n      tag_429\n      jumpi\n      0x20\n      dup3\n      add\n      dup2\n      dup1\n      calldatasize\n      dup4\n      calldatacopy\n      add\n      swap1\n      pop\n    tag_429:\n      pop\n        /* \"source/BinanceBABT/contracts/utils/Strings.sol\":1752:1799  bytes memory buffer = new bytes(2 * length + 2) */\n      swap1\n      pop\n        /* \"source/BinanceBABT/contracts/utils/Strings.sol\":1809:1824  buffer[0] = \"0\" */\n      0x3000000000000000000000000000000000000000000000000000000000000000\n        /* \"source/BinanceBABT/contracts/utils/Strings.sol\":1809:1815  buffer */\n      dup2\n        /* \"source/BinanceBABT/contracts/utils/Strings.sol\":1816:1817  0 */\n      0x00\n        /* \"source/BinanceBABT/contracts/utils/Strings.sol\":1809:1818  buffer[0] */\n      dup2\n      mload\n      dup2\n      lt\n      tag_431\n      jumpi\n      tag_431\n      tag_143\n      jump\t// in\n    tag_431:\n      0x20\n      add\n      add\n        /* \"source/BinanceBABT/contracts/utils/Strings.sol\":1809:1824  buffer[0] = \"0\" */\n      swap1\n      not(0xffffffffffffffffffffffffffffffffffffffffffffffffffffffffffffff)\n      and\n      swap1\n      dup2\n      0x00\n      byte\n      swap1\n      mstore8\n      pop\n        /* \"source/BinanceBABT/contracts/utils/Strings.sol\":1834:1849  buffer[1] = \"x\" */\n      0x7800000000000000000000000000000000000000000000000000000000000000\n        /* \"source/BinanceBABT/contracts/utils/Strings.sol\":1834:1840  buffer */\n      dup2\n        /* \"source/BinanceBABT/contracts/utils/Strings.sol\":1841:1842  1 */\n      0x01\n        /* \"source/BinanceBABT/contracts/utils/Strings.sol\":1834:1843  buffer[1] */\n      dup2\n      mload\n      dup2\n      lt\n      tag_433\n      jumpi\n      tag_433\n      tag_143\n      jump\t// in\n    tag_433:\n      0x20\n      add\n      add\n        /* \"source/BinanceBABT/contracts/utils/Strings.sol\":1834:1849  buffer[1] = \"x\" */\n      swap1\n      not(0xffffffffffffffffffffffffffffffffffffffffffffffffffffffffffffff)\n      and\n      swap1\n      dup2\n      0x00\n      byte\n      swap1\n      mstore8\n      pop\n        /* \"source/BinanceBABT/contracts/utils/Strings.sol\":1864:1873  uint256 i */\n      0x00\n        /* \"source/BinanceBABT/contracts/utils/Strings.sol\":1876:1886  2 * length */\n      tag_437\n        /* \"source/BinanceBABT/contracts/utils/Strings.sol\":1880:1886  length */\n      dup5\n        /* \"source/BinanceBABT/contracts/utils/Strings.sol\":1876:1877  2 */\n      0x02\n        /* \"source/BinanceBABT/contracts/utils/Strings.sol\":1876:1886  2 * length */\n      tag_425\n      jump\t// in\n    tag_437:\n        /* \"source/BinanceBABT/contracts/utils/Strings.sol\":1876:1890  2 * length + 1 */\n      tag_438\n      swap1\n        /* \"source/BinanceBABT/contracts/utils/Strings.sol\":1889:1890  1 */\n      0x01\n        /* \"source/BinanceBABT/contracts/utils/Strings.sol\":1876:1890  2 * length + 1 */\n      tag_370\n      jump\t// in\n    tag_438:\n        /* \"source/BinanceBABT/contracts/utils/Strings.sol\":1864:1890  uint256 i = 2 * length + 1 */\n      swap1\n      pop\n        /* \"source/BinanceBABT/contracts/utils/Strings.sol\":1859:1991  for (uint256 i = 2 * length + 1; i > 1; --i) {... */\n    tag_434:\n        /* \"source/BinanceBABT/contracts/utils/Strings.sol\":1896:1897  1 */\n      0x01\n        /* \"source/BinanceBABT/contracts/utils/Strings.sol\":1892:1893  i */\n      dup2\n        /* \"source/BinanceBABT/contracts/utils/Strings.sol\":1892:1897  i > 1 */\n      gt\n        /* \"source/BinanceBABT/contracts/utils/Strings.sol\":1859:1991  for (uint256 i = 2 * length + 1; i > 1; --i) {... */\n      iszero\n      tag_435\n      jumpi\n        /* \"source/BinanceBABT/contracts/utils/Strings.sol\":1930:1942  _HEX_SYMBOLS */\n      0x3031323334353637383961626364656600000000000000000000000000000000\n        /* \"source/BinanceBABT/contracts/utils/Strings.sol\":1943:1948  value */\n      dup6\n        /* \"source/BinanceBABT/contracts/utils/Strings.sol\":1951:1954  0xf */\n      0x0f\n        /* \"source/BinanceBABT/contracts/utils/Strings.sol\":1943:1954  value & 0xf */\n      and\n        /* \"source/BinanceBABT/contracts/utils/Strings.sol\":1930:1955  _HEX_SYMBOLS[value & 0xf] */\n      0x10\n      dup2\n      lt\n      tag_440\n      jumpi\n      tag_440\n      tag_143\n      jump\t// in\n    tag_440:\n      byte\n      0xf8\n      shl\n        /* \"source/BinanceBABT/contracts/utils/Strings.sol\":1918:1924  buffer */\n      dup3\n        /* \"source/BinanceBABT/contracts/utils/Strings.sol\":1925:1926  i */\n      dup3\n        /* \"source/BinanceBABT/contracts/utils/Strings.sol\":1918:1927  buffer[i] */\n      dup2\n      mload\n      dup2\n      lt\n      tag_442\n      jumpi\n      tag_442\n      tag_143\n      jump\t// in\n    tag_442:\n      0x20\n      add\n      add\n        /* \"source/BinanceBABT/contracts/utils/Strings.sol\":1918:1955  buffer[i] = _HEX_SYMBOLS[value & 0xf] */\n      swap1\n      not(0xffffffffffffffffffffffffffffffffffffffffffffffffffffffffffffff)\n      and\n      swap1\n      dup2\n      0x00\n      byte\n      swap1\n      mstore8\n      pop\n        /* \"source/BinanceBABT/contracts/utils/Strings.sol\":1979:1980  4 */\n      0x04\n        /* \"source/BinanceBABT/contracts/utils/Strings.sol\":1969:1980  value >>= 4 */\n      swap5\n      swap1\n      swap5\n      shr\n      swap4\n        /* \"source/BinanceBABT/contracts/utils/Strings.sol\":1899:1902  --i */\n      tag_443\n      dup2\n      tag_444\n      jump\t// in\n    tag_443:\n      swap1\n      pop\n        /* \"source/BinanceBABT/contracts/utils/Strings.sol\":1859:1991  for (uint256 i = 2 * length + 1; i > 1; --i) {... */\n      jump(tag_434)\n    tag_435:\n      pop\n        /* \"source/BinanceBABT/contracts/utils/Strings.sol\":2008:2018  value == 0 */\n      dup4\n      iszero\n        /* \"source/BinanceBABT/contracts/utils/Strings.sol\":2000:2055  require(value == 0, \"Strings: hex length insufficient\") */\n      tag_307\n      jumpi\n      mload(0x40)\n      0x08c379a000000000000000000000000000000000000000000000000000000000\n      dup2\n      mstore\n        /* \"#utility.yul\":17966:17968   */\n      0x20\n        /* \"source/BinanceBABT/contracts/utils/Strings.sol\":2000:2055  require(value == 0, \"Strings: hex length insufficient\") */\n      0x04\n      dup3\n      add\n        /* \"#utility.yul\":17948:17969   */\n      dup2\n      swap1\n      mstore\n        /* \"#utility.yul\":17985:18003   */\n      0x24\n      dup3\n      add\n        /* \"#utility.yul\":17978:18008   */\n      mstore\n        /* \"#utility.yul\":18044:18078   */\n      0x537472696e67733a20686578206c656e67746820696e73756666696369656e74\n        /* \"#utility.yul\":18024:18042   */\n      0x44\n      dup3\n      add\n        /* \"#utility.yul\":18017:18079   */\n      mstore\n        /* \"#utility.yul\":18096:18114   */\n      0x64\n      add\n        /* \"source/BinanceBABT/contracts/utils/Strings.sol\":2000:2055  require(value == 0, \"Strings: hex length insufficient\") */\n      tag_133\n        /* \"#utility.yul\":17764:18120   */\n      jump\n        /* \"source/BinanceBABT/contracts/utils/EnumerableSet.sol\":5818:5941  function add(Bytes32Set storage set, bytes32 value) internal returns (bool) {... */\n    tag_407:\n        /* \"source/BinanceBABT/contracts/utils/EnumerableSet.sol\":5888:5892  bool */\n      0x00\n        /* \"source/BinanceBABT/contracts/utils/EnumerableSet.sol\":5911:5934  _add(set._inner, value) */\n      tag_307\n        /* \"source/BinanceBABT/contracts/utils/EnumerableSet.sol\":5916:5919  set */\n      dup4\n        /* \"source/BinanceBABT/contracts/utils/EnumerableSet.sol\":5928:5933  value */\n      dup4\n        /* \"source/BinanceBABT/contracts/utils/EnumerableSet.sol\":5911:5915  _add */\n      tag_450\n        /* \"source/BinanceBABT/contracts/utils/EnumerableSet.sol\":5911:5934  _add(set._inner, value) */\n      jump\t// in\n        /* \"source/BinanceBABT/contracts/utils/EnumerableSet.sol\":2685:4073  function _remove(Set storage set, bytes32 value) private returns (bool) {... */\n    tag_417:\n        /* \"source/BinanceBABT/contracts/utils/EnumerableSet.sol\":2751:2755  bool */\n      0x00\n        /* \"source/BinanceBABT/contracts/utils/EnumerableSet.sol\":2888:2907  set._indexes[value] */\n      dup2\n      dup2\n      mstore\n        /* \"source/BinanceBABT/contracts/utils/EnumerableSet.sol\":2888:2900  set._indexes */\n      0x01\n      dup4\n      add\n        /* \"source/BinanceBABT/contracts/utils/EnumerableSet.sol\":2888:2907  set._indexes[value] */\n      0x20\n      mstore\n      0x40\n      dup2\n      keccak256\n      sload\n        /* \"source/BinanceBABT/contracts/utils/EnumerableSet.sol\":2922:2937  valueIndex != 0 */\n      dup1\n      iszero\n        /* \"source/BinanceBABT/contracts/utils/EnumerableSet.sol\":2918:4067  if (valueIndex != 0) {... */\n      tag_453\n      jumpi\n        /* \"source/BinanceBABT/contracts/utils/EnumerableSet.sol\":3291:3312  uint256 toDeleteIndex */\n      0x00\n        /* \"source/BinanceBABT/contracts/utils/EnumerableSet.sol\":3315:3329  valueIndex - 1 */\n      tag_454\n        /* \"source/BinanceBABT/contracts/utils/EnumerableSet.sol\":3328:3329  1 */\n      0x01\n        /* \"source/BinanceBABT/contracts/utils/EnumerableSet.sol\":3315:3325  valueIndex */\n      dup4\n        /* \"source/BinanceBABT/contracts/utils/EnumerableSet.sol\":3315:3329  valueIndex - 1 */\n      tag_366\n      jump\t// in\n    tag_454:\n        /* \"source/BinanceBABT/contracts/utils/EnumerableSet.sol\":3363:3381  set._values.length */\n      dup6\n      sload\n        /* \"source/BinanceBABT/contracts/utils/EnumerableSet.sol\":3291:3329  uint256 toDeleteIndex = valueIndex - 1 */\n      swap1\n      swap2\n      pop\n        /* \"source/BinanceBABT/contracts/utils/EnumerableSet.sol\":3343:3360  uint256 lastIndex */\n      0x00\n      swap1\n        /* \"source/BinanceBABT/contracts/utils/EnumerableSet.sol\":3363:3385  set._values.length - 1 */\n      tag_455\n      swap1\n        /* \"source/BinanceBABT/contracts/utils/EnumerableSet.sol\":3384:3385  1 */\n      0x01\n      swap1\n        /* \"source/BinanceBABT/contracts/utils/EnumerableSet.sol\":3363:3385  set._values.length - 1 */\n      tag_366\n      jump\t// in\n    tag_455:\n        /* \"source/BinanceBABT/contracts/utils/EnumerableSet.sol\":3343:3385  uint256 lastIndex = set._values.length - 1 */\n      swap1\n      pop\n        /* \"source/BinanceBABT/contracts/utils/EnumerableSet.sol\":3417:3430  toDeleteIndex */\n      dup2\n        /* \"source/BinanceBABT/contracts/utils/EnumerableSet.sol\":3404:3413  lastIndex */\n      dup2\n        /* \"source/BinanceBABT/contracts/utils/EnumerableSet.sol\":3404:3430  lastIndex != toDeleteIndex */\n      eq\n        /* \"source/BinanceBABT/contracts/utils/EnumerableSet.sol\":3400:3798  if (lastIndex != toDeleteIndex) {... */\n      tag_456\n      jumpi\n        /* \"source/BinanceBABT/contracts/utils/EnumerableSet.sol\":3450:3467  bytes32 lastValue */\n      0x00\n        /* \"source/BinanceBABT/contracts/utils/EnumerableSet.sol\":3470:3473  set */\n      dup7\n        /* \"source/BinanceBABT/contracts/utils/EnumerableSet.sol\":3470:3481  set._values */\n      0x00\n      add\n        /* \"source/BinanceBABT/contracts/utils/EnumerableSet.sol\":3482:3491  lastIndex */\n      dup3\n        /* \"source/BinanceBABT/contracts/utils/EnumerableSet.sol\":3470:3492  set._values[lastIndex] */\n      dup2\n      sload\n      dup2\n      lt\n      tag_458\n      jumpi\n      tag_458\n      tag_143\n      jump\t// in\n    tag_458:\n      swap1\n      0x00\n      mstore\n      keccak256(0x00, 0x20)\n      add\n      sload\n        /* \"source/BinanceBABT/contracts/utils/EnumerableSet.sol\":3450:3492  bytes32 lastValue = set._values[lastIndex] */\n      swap1\n      pop\n        /* \"source/BinanceBABT/contracts/utils/EnumerableSet.sol\":3621:3630  lastValue */\n      dup1\n        /* \"source/BinanceBABT/contracts/utils/EnumerableSet.sol\":3592:3595  set */\n      dup8\n        /* \"source/BinanceBABT/contracts/utils/EnumerableSet.sol\":3592:3603  set._values */\n      0x00\n      add\n        /* \"source/BinanceBABT/contracts/utils/EnumerableSet.sol\":3604:3617  toDeleteIndex */\n      dup5\n        /* \"source/BinanceBABT/contracts/utils/EnumerableSet.sol\":3592:3618  set._values[toDeleteIndex] */\n      dup2\n      sload\n      dup2\n      lt\n      tag_461\n      jumpi\n      tag_461\n      tag_143\n      jump\t// in\n    tag_461:\n      0x00\n      swap2\n      dup3\n      mstore\n      0x20\n      dup1\n      dup4\n      keccak256\n      swap1\n      swap2\n      add\n        /* \"source/BinanceBABT/contracts/utils/EnumerableSet.sol\":3592:3630  set._values[toDeleteIndex] = lastValue */\n      swap3\n      swap1\n      swap3\n      sstore\n        /* \"source/BinanceBABT/contracts/utils/EnumerableSet.sol\":3704:3727  set._indexes[lastValue] */\n      swap2\n      dup3\n      mstore\n        /* \"source/BinanceBABT/contracts/utils/EnumerableSet.sol\":3704:3716  set._indexes */\n      0x01\n      dup9\n      add\n        /* \"source/BinanceBABT/contracts/utils/EnumerableSet.sol\":3704:3727  set._indexes[lastValue] */\n      swap1\n      mstore\n      0x40\n      swap1\n      keccak256\n        /* \"source/BinanceBABT/contracts/utils/EnumerableSet.sol\":3704:3740  set._indexes[lastValue] = valueIndex */\n      dup4\n      swap1\n      sstore\n        /* \"source/BinanceBABT/contracts/utils/EnumerableSet.sol\":3400:3798  if (lastIndex != toDeleteIndex) {... */\n    tag_456:\n        /* \"source/BinanceBABT/contracts/utils/EnumerableSet.sol\":3876:3893  set._values.pop() */\n      dup6\n      sload\n        /* \"source/BinanceBABT/contracts/utils/EnumerableSet.sol\":3876:3879  set */\n      dup7\n      swap1\n        /* \"source/BinanceBABT/contracts/utils/EnumerableSet.sol\":3876:3893  set._values.pop() */\n      dup1\n      tag_464\n      jumpi\n      tag_464\n      tag_465\n      jump\t// in\n    tag_464:\n      0x01\n      swap1\n      sub\n      dup2\n      dup2\n      swap1\n      0x00\n      mstore\n      keccak256(0x00, 0x20)\n      add\n      0x00\n      swap1\n      sstore\n      swap1\n      sstore\n        /* \"source/BinanceBABT/contracts/utils/EnumerableSet.sol\":3968:3971  set */\n      dup6\n        /* \"source/BinanceBABT/contracts/utils/EnumerableSet.sol\":3968:3980  set._indexes */\n      0x01\n      add\n        /* \"source/BinanceBABT/contracts/utils/EnumerableSet.sol\":3968:3987  set._indexes[value] */\n      0x00\n        /* \"source/BinanceBABT/contracts/utils/EnumerableSet.sol\":3981:3986  value */\n      dup7\n        /* \"source/BinanceBABT/contracts/utils/EnumerableSet.sol\":3968:3987  set._indexes[value] */\n      dup2\n      mstore\n      0x20\n      add\n      swap1\n      dup2\n      mstore\n      0x20\n      add\n      0x00\n      keccak256\n        /* \"source/BinanceBABT/contracts/utils/EnumerableSet.sol\":3961:3987  delete set._indexes[value] */\n      0x00\n      swap1\n      sstore\n        /* \"source/BinanceBABT/contracts/utils/EnumerableSet.sol\":4009:4013  true */\n      0x01\n        /* \"source/BinanceBABT/contracts/utils/EnumerableSet.sol\":4002:4013  return true */\n      swap4\n      pop\n      pop\n      pop\n      pop\n      jump(tag_160)\n        /* \"source/BinanceBABT/contracts/utils/EnumerableSet.sol\":2918:4067  if (valueIndex != 0) {... */\n    tag_453:\n        /* \"source/BinanceBABT/contracts/utils/EnumerableSet.sol\":4051:4056  false */\n      0x00\n        /* \"source/BinanceBABT/contracts/utils/EnumerableSet.sol\":4044:4056  return false */\n      swap2\n      pop\n      pop\n      jump(tag_160)\n        /* \"source/BinanceBABT/contracts/utils/EnumerableSet.sol\":2113:2517  function _add(Set storage set, bytes32 value) private returns (bool) {... */\n    tag_450:\n        /* \"source/BinanceBABT/contracts/utils/EnumerableSet.sol\":2176:2180  bool */\n      0x00\n        /* \"source/BinanceBABT/contracts/utils/EnumerableSet.sol\":4250:4269  set._indexes[value] */\n      dup2\n      dup2\n      mstore\n        /* \"source/BinanceBABT/contracts/utils/EnumerableSet.sol\":4250:4262  set._indexes */\n      0x01\n      dup4\n      add\n        /* \"source/BinanceBABT/contracts/utils/EnumerableSet.sol\":4250:4269  set._indexes[value] */\n      0x20\n      mstore\n      0x40\n      dup2\n      keccak256\n      sload\n        /* \"source/BinanceBABT/contracts/utils/EnumerableSet.sol\":2192:2511  if (!_contains(set, value)) {... */\n      tag_471\n      jumpi\n      pop\n        /* \"source/BinanceBABT/contracts/utils/EnumerableSet.sol\":2234:2257  set._values.push(value) */\n      dup2\n      sload\n      0x01\n      dup2\n      dup2\n      add\n      dup5\n      sstore\n        /* \"source/BinanceBABT/contracts/utils/EnumerableSet.sol\":2234:2245  set._values */\n      0x00\n        /* \"source/BinanceBABT/contracts/utils/EnumerableSet.sol\":2234:2257  set._values.push(value) */\n      dup5\n      dup2\n      mstore\n      0x20\n      dup1\n      dup3\n      keccak256\n      swap1\n      swap4\n      add\n      dup5\n      swap1\n      sstore\n        /* \"source/BinanceBABT/contracts/utils/EnumerableSet.sol\":2414:2432  set._values.length */\n      dup5\n      sload\n        /* \"source/BinanceBABT/contracts/utils/EnumerableSet.sol\":2392:2411  set._indexes[value] */\n      dup5\n      dup3\n      mstore\n        /* \"source/BinanceBABT/contracts/utils/EnumerableSet.sol\":2392:2404  set._indexes */\n      dup3\n      dup7\n      add\n        /* \"source/BinanceBABT/contracts/utils/EnumerableSet.sol\":2392:2411  set._indexes[value] */\n      swap1\n      swap4\n      mstore\n      0x40\n      swap1\n      keccak256\n        /* \"source/BinanceBABT/contracts/utils/EnumerableSet.sol\":2392:2432  set._indexes[value] = set._values.length */\n      swap2\n      swap1\n      swap2\n      sstore\n        /* \"source/BinanceBABT/contracts/utils/EnumerableSet.sol\":2446:2457  return true */\n      jump(tag_160)\n        /* \"source/BinanceBABT/contracts/utils/EnumerableSet.sol\":2192:2511  if (!_contains(set, value)) {... */\n    tag_471:\n      pop\n        /* \"source/BinanceBABT/contracts/utils/EnumerableSet.sol\":2495:2500  false */\n      0x00\n        /* \"source/BinanceBABT/contracts/utils/EnumerableSet.sol\":2488:2500  return false */\n      jump(tag_160)\n        /* \"#utility.yul\":14:629   */\n    tag_36:\n        /* \"#utility.yul\":100:106   */\n      0x00\n        /* \"#utility.yul\":108:114   */\n      dup1\n        /* \"#utility.yul\":161:163   */\n      0x20\n        /* \"#utility.yul\":149:158   */\n      dup4\n        /* \"#utility.yul\":140:147   */\n      dup6\n        /* \"#utility.yul\":136:159   */\n      sub\n        /* \"#utility.yul\":132:164   */\n      slt\n        /* \"#utility.yul\":129:181   */\n      iszero\n      tag_484\n      jumpi\n        /* \"#utility.yul\":177:178   */\n      0x00\n        /* \"#utility.yul\":174:175   */\n      dup1\n        /* \"#utility.yul\":167:179   */\n      revert\n        /* \"#utility.yul\":129:181   */\n    tag_484:\n        /* \"#utility.yul\":217:226   */\n      dup3\n        /* \"#utility.yul\":204:227   */\n      calldataload\n        /* \"#utility.yul\":246:264   */\n      0xffffffffffffffff\n        /* \"#utility.yul\":287:289   */\n      dup1\n        /* \"#utility.yul\":279:285   */\n      dup3\n        /* \"#utility.yul\":276:290   */\n      gt\n        /* \"#utility.yul\":273:307   */\n      iszero\n      tag_485\n      jumpi\n        /* \"#utility.yul\":303:304   */\n      0x00\n        /* \"#utility.yul\":300:301   */\n      dup1\n        /* \"#utility.yul\":293:305   */\n      revert\n        /* \"#utility.yul\":273:307   */\n    tag_485:\n        /* \"#utility.yul\":341:347   */\n      dup2\n        /* \"#utility.yul\":330:339   */\n      dup6\n        /* \"#utility.yul\":326:348   */\n      add\n        /* \"#utility.yul\":316:348   */\n      swap2\n      pop\n        /* \"#utility.yul\":386:393   */\n      dup6\n        /* \"#utility.yul\":379:383   */\n      0x1f\n        /* \"#utility.yul\":375:377   */\n      dup4\n        /* \"#utility.yul\":371:384   */\n      add\n        /* \"#utility.yul\":367:394   */\n      slt\n        /* \"#utility.yul\":357:412   */\n      tag_486\n      jumpi\n        /* \"#utility.yul\":408:409   */\n      0x00\n        /* \"#utility.yul\":405:406   */\n      dup1\n        /* \"#utility.yul\":398:410   */\n      revert\n        /* \"#utility.yul\":357:412   */\n    tag_486:\n        /* \"#utility.yul\":448:450   */\n      dup2\n        /* \"#utility.yul\":435:451   */\n      calldataload\n        /* \"#utility.yul\":474:476   */\n      dup2\n        /* \"#utility.yul\":466:472   */\n      dup2\n        /* \"#utility.yul\":463:477   */\n      gt\n        /* \"#utility.yul\":460:494   */\n      iszero\n      tag_487\n      jumpi\n        /* \"#utility.yul\":490:491   */\n      0x00\n        /* \"#utility.yul\":487:488   */\n      dup1\n        /* \"#utility.yul\":480:492   */\n      revert\n        /* \"#utility.yul\":460:494   */\n    tag_487:\n        /* \"#utility.yul\":543:550   */\n      dup7\n        /* \"#utility.yul\":538:540   */\n      0x20\n        /* \"#utility.yul\":528:534   */\n      dup3\n        /* \"#utility.yul\":525:526   */\n      0x05\n        /* \"#utility.yul\":521:535   */\n      shl\n        /* \"#utility.yul\":517:519   */\n      dup6\n        /* \"#utility.yul\":513:536   */\n      add\n        /* \"#utility.yul\":509:541   */\n      add\n        /* \"#utility.yul\":506:551   */\n      gt\n        /* \"#utility.yul\":503:568   */\n      iszero\n      tag_488\n      jumpi\n        /* \"#utility.yul\":564:565   */\n      0x00\n        /* \"#utility.yul\":561:562   */\n      dup1\n        /* \"#utility.yul\":554:566   */\n      revert\n        /* \"#utility.yul\":503:568   */\n    tag_488:\n        /* \"#utility.yul\":595:597   */\n      0x20\n        /* \"#utility.yul\":587:598   */\n      swap3\n      swap1\n      swap3\n      add\n      swap7\n        /* \"#utility.yul\":617:623   */\n      swap2\n      swap6\n      pop\n        /* \"#utility.yul\":14:629   */\n      swap1\n      swap4\n      pop\n      pop\n      pop\n      pop\n      jump\t// out\n        /* \"#utility.yul\":634:966   */\n    tag_40:\n        /* \"#utility.yul\":692:698   */\n      0x00\n        /* \"#utility.yul\":745:747   */\n      0x20\n        /* \"#utility.yul\":733:742   */\n      dup3\n        /* \"#utility.yul\":724:731   */\n      dup5\n        /* \"#utility.yul\":720:743   */\n      sub\n        /* \"#utility.yul\":716:748   */\n      slt\n        /* \"#utility.yul\":713:765   */\n      iszero\n      tag_490\n      jumpi\n        /* \"#utility.yul\":761:762   */\n      0x00\n        /* \"#utility.yul\":758:759   */\n      dup1\n        /* \"#utility.yul\":751:763   */\n      revert\n        /* \"#utility.yul\":713:765   */\n    tag_490:\n        /* \"#utility.yul\":800:809   */\n      dup2\n        /* \"#utility.yul\":787:810   */\n      calldataload\n        /* \"#utility.yul\":850:916   */\n      0xffffffff00000000000000000000000000000000000000000000000000000000\n        /* \"#utility.yul\":843:848   */\n      dup2\n        /* \"#utility.yul\":839:917   */\n      and\n        /* \"#utility.yul\":832:837   */\n      dup2\n        /* \"#utility.yul\":829:918   */\n      eq\n        /* \"#utility.yul\":819:936   */\n      tag_307\n      jumpi\n        /* \"#utility.yul\":932:933   */\n      0x00\n        /* \"#utility.yul\":929:930   */\n      dup1\n        /* \"#utility.yul\":922:934   */\n      revert\n        /* \"#utility.yul\":1163:1413   */\n    tag_474:\n        /* \"#utility.yul\":1248:1249   */\n      0x00\n        /* \"#utility.yul\":1258:1371   */\n    tag_494:\n        /* \"#utility.yul\":1272:1278   */\n      dup4\n        /* \"#utility.yul\":1269:1270   */\n      dup2\n        /* \"#utility.yul\":1266:1279   */\n      lt\n        /* \"#utility.yul\":1258:1371   */\n      iszero\n      tag_496\n      jumpi\n        /* \"#utility.yul\":1348:1359   */\n      dup2\n      dup2\n      add\n        /* \"#utility.yul\":1342:1360   */\n      mload\n        /* \"#utility.yul\":1329:1340   */\n      dup4\n      dup3\n      add\n        /* \"#utility.yul\":1322:1361   */\n      mstore\n        /* \"#utility.yul\":1294:1296   */\n      0x20\n        /* \"#utility.yul\":1287:1297   */\n      add\n        /* \"#utility.yul\":1258:1371   */\n      jump(tag_494)\n    tag_496:\n      pop\n      pop\n        /* \"#utility.yul\":1405:1406   */\n      0x00\n        /* \"#utility.yul\":1387:1403   */\n      swap2\n      add\n        /* \"#utility.yul\":1380:1407   */\n      mstore\n        /* \"#utility.yul\":1163:1413   */\n      jump\t// out\n        /* \"#utility.yul\":1418:1873   */\n    tag_47:\n        /* \"#utility.yul\":1567:1569   */\n      0x20\n        /* \"#utility.yul\":1556:1565   */\n      dup2\n        /* \"#utility.yul\":1549:1570   */\n      mstore\n        /* \"#utility.yul\":1530:1534   */\n      0x00\n        /* \"#utility.yul\":1599:1605   */\n      dup3\n        /* \"#utility.yul\":1593:1606   */\n      mload\n        /* \"#utility.yul\":1642:1648   */\n      dup1\n        /* \"#utility.yul\":1637:1639   */\n      0x20\n        /* \"#utility.yul\":1626:1635   */\n      dup5\n        /* \"#utility.yul\":1622:1640   */\n      add\n        /* \"#utility.yul\":1615:1649   */\n      mstore\n        /* \"#utility.yul\":1658:1737   */\n      tag_498\n        /* \"#utility.yul\":1730:1736   */\n      dup2\n        /* \"#utility.yul\":1725:1727   */\n      0x40\n        /* \"#utility.yul\":1714:1723   */\n      dup6\n        /* \"#utility.yul\":1710:1728   */\n      add\n        /* \"#utility.yul\":1705:1707   */\n      0x20\n        /* \"#utility.yul\":1697:1703   */\n      dup8\n        /* \"#utility.yul\":1693:1708   */\n      add\n        /* \"#utility.yul\":1658:1737   */\n      tag_474\n      jump\t// in\n    tag_498:\n        /* \"#utility.yul\":1789:1791   */\n      0x1f\n        /* \"#utility.yul\":1777:1792   */\n      add\n        /* \"#utility.yul\":1794:1860   */\n      0xffffffffffffffffffffffffffffffffffffffffffffffffffffffffffffffe0\n        /* \"#utility.yul\":1773:1861   */\n      and\n        /* \"#utility.yul\":1758:1862   */\n      swap2\n      swap1\n      swap2\n      add\n        /* \"#utility.yul\":1864:1866   */\n      0x40\n        /* \"#utility.yul\":1754:1867   */\n      add\n      swap3\n        /* \"#utility.yul\":1418:1873   */\n      swap2\n      pop\n      pop\n      jump\t// out\n        /* \"#utility.yul\":1878:2062   */\n    tag_361:\n        /* \"#utility.yul\":1930:2007   */\n      0x4e487b7100000000000000000000000000000000000000000000000000000000\n        /* \"#utility.yul\":1927:1928   */\n      0x00\n        /* \"#utility.yul\":1920:2008   */\n      mstore\n        /* \"#utility.yul\":2027:2031   */\n      0x41\n        /* \"#utility.yul\":2024:2025   */\n      0x04\n        /* \"#utility.yul\":2017:2032   */\n      mstore\n        /* \"#utility.yul\":2051:2055   */\n      0x24\n        /* \"#utility.yul\":2048:2049   */\n      0x00\n        /* \"#utility.yul\":2041:2056   */\n      revert\n        /* \"#utility.yul\":2067:2845   */\n    tag_475:\n        /* \"#utility.yul\":2110:2115   */\n      0x00\n        /* \"#utility.yul\":2163:2166   */\n      dup3\n        /* \"#utility.yul\":2156:2160   */\n      0x1f\n        /* \"#utility.yul\":2148:2154   */\n      dup4\n        /* \"#utility.yul\":2144:2161   */\n      add\n        /* \"#utility.yul\":2140:2167   */\n      slt\n        /* \"#utility.yul\":2130:2185   */\n      tag_501\n      jumpi\n        /* \"#utility.yul\":2181:2182   */\n      0x00\n        /* \"#utility.yul\":2178:2179   */\n      dup1\n        /* \"#utility.yul\":2171:2183   */\n      revert\n        /* \"#utility.yul\":2130:2185   */\n    tag_501:\n        /* \"#utility.yul\":2217:2223   */\n      dup2\n        /* \"#utility.yul\":2204:2224   */\n      calldataload\n        /* \"#utility.yul\":2243:2261   */\n      0xffffffffffffffff\n        /* \"#utility.yul\":2280:2282   */\n      dup1\n        /* \"#utility.yul\":2276:2278   */\n      dup3\n        /* \"#utility.yul\":2273:2283   */\n      gt\n        /* \"#utility.yul\":2270:2306   */\n      iszero\n      tag_503\n      jumpi\n        /* \"#utility.yul\":2286:2304   */\n      tag_503\n      tag_361\n      jump\t// in\n    tag_503:\n        /* \"#utility.yul\":2420:2422   */\n      0x40\n        /* \"#utility.yul\":2414:2423   */\n      mload\n        /* \"#utility.yul\":2482:2486   */\n      0x1f\n        /* \"#utility.yul\":2474:2487   */\n      dup4\n      add\n        /* \"#utility.yul\":2325:2391   */\n      0xffffffffffffffffffffffffffffffffffffffffffffffffffffffffffffffe0\n        /* \"#utility.yul\":2470:2492   */\n      swap1\n      dup2\n      and\n        /* \"#utility.yul\":2494:2496   */\n      0x3f\n        /* \"#utility.yul\":2466:2497   */\n      add\n        /* \"#utility.yul\":2462:2502   */\n      and\n        /* \"#utility.yul\":2450:2503   */\n      dup2\n      add\n      swap1\n        /* \"#utility.yul\":2518:2536   */\n      dup3\n      dup3\n      gt\n        /* \"#utility.yul\":2538:2560   */\n      dup2\n      dup4\n      lt\n        /* \"#utility.yul\":2515:2561   */\n      or\n        /* \"#utility.yul\":2512:2584   */\n      iszero\n      tag_505\n      jumpi\n        /* \"#utility.yul\":2564:2582   */\n      tag_505\n      tag_361\n      jump\t// in\n    tag_505:\n        /* \"#utility.yul\":2604:2614   */\n      dup2\n        /* \"#utility.yul\":2600:2602   */\n      0x40\n        /* \"#utility.yul\":2593:2615   */\n      mstore\n        /* \"#utility.yul\":2639:2641   */\n      dup4\n        /* \"#utility.yul\":2631:2637   */\n      dup2\n        /* \"#utility.yul\":2624:2642   */\n      mstore\n        /* \"#utility.yul\":2685:2688   */\n      dup7\n        /* \"#utility.yul\":2678:2682   */\n      0x20\n        /* \"#utility.yul\":2673:2675   */\n      dup6\n        /* \"#utility.yul\":2665:2671   */\n      dup9\n        /* \"#utility.yul\":2661:2676   */\n      add\n        /* \"#utility.yul\":2657:2683   */\n      add\n        /* \"#utility.yul\":2654:2689   */\n      gt\n        /* \"#utility.yul\":2651:2706   */\n      iszero\n      tag_506\n      jumpi\n        /* \"#utility.yul\":2702:2703   */\n      0x00\n        /* \"#utility.yul\":2699:2700   */\n      dup1\n        /* \"#utility.yul\":2692:2704   */\n      revert\n        /* \"#utility.yul\":2651:2706   */\n    tag_506:\n        /* \"#utility.yul\":2766:2768   */\n      dup4\n        /* \"#utility.yul\":2759:2763   */\n      0x20\n        /* \"#utility.yul\":2751:2757   */\n      dup8\n        /* \"#utility.yul\":2747:2764   */\n      add\n        /* \"#utility.yul\":2740:2744   */\n      0x20\n        /* \"#utility.yul\":2732:2738   */\n      dup4\n        /* \"#utility.yul\":2728:2745   */\n      add\n        /* \"#utility.yul\":2715:2769   */\n      calldatacopy\n        /* \"#utility.yul\":2813:2814   */\n      0x00\n        /* \"#utility.yul\":2806:2810   */\n      0x20\n        /* \"#utility.yul\":2801:2803   */\n      dup6\n        /* \"#utility.yul\":2793:2799   */\n      dup4\n        /* \"#utility.yul\":2789:2804   */\n      add\n        /* \"#utility.yul\":2785:2811   */\n      add\n        /* \"#utility.yul\":2778:2815   */\n      mstore\n        /* \"#utility.yul\":2833:2839   */\n      dup1\n        /* \"#utility.yul\":2824:2839   */\n      swap5\n      pop\n      pop\n      pop\n      pop\n      pop\n        /* \"#utility.yul\":2067:2845   */\n      swap3\n      swap2\n      pop\n      pop\n      jump\t// out\n        /* \"#utility.yul\":2850:3046   */\n    tag_476:\n        /* \"#utility.yul\":2918:2938   */\n      dup1\n      calldataload\n        /* \"#utility.yul\":2978:3020   */\n      0xffffffffffffffffffffffffffffffffffffffff\n        /* \"#utility.yul\":2967:3021   */\n      dup2\n      and\n        /* \"#utility.yul\":2957:3022   */\n      dup2\n      eq\n        /* \"#utility.yul\":2947:3040   */\n      tag_508\n      jumpi\n        /* \"#utility.yul\":3036:3037   */\n      0x00\n        /* \"#utility.yul\":3033:3034   */\n      dup1\n        /* \"#utility.yul\":3026:3038   */\n      revert\n        /* \"#utility.yul\":2947:3040   */\n    tag_508:\n        /* \"#utility.yul\":2850:3046   */\n      swap2\n      swap1\n      pop\n      jump\t// out\n        /* \"#utility.yul\":3051:3668   */\n    tag_50:\n        /* \"#utility.yul\":3148:3154   */\n      0x00\n        /* \"#utility.yul\":3156:3162   */\n      dup1\n        /* \"#utility.yul\":3164:3170   */\n      0x00\n        /* \"#utility.yul\":3217:3219   */\n      0x60\n        /* \"#utility.yul\":3205:3214   */\n      dup5\n        /* \"#utility.yul\":3196:3203   */\n      dup7\n        /* \"#utility.yul\":3192:3215   */\n      sub\n        /* \"#utility.yul\":3188:3220   */\n      slt\n        /* \"#utility.yul\":3185:3237   */\n      iszero\n      tag_510\n      jumpi\n        /* \"#utility.yul\":3233:3234   */\n      0x00\n        /* \"#utility.yul\":3230:3231   */\n      dup1\n        /* \"#utility.yul\":3223:3235   */\n      revert\n        /* \"#utility.yul\":3185:3237   */\n    tag_510:\n        /* \"#utility.yul\":3273:3282   */\n      dup4\n        /* \"#utility.yul\":3260:3283   */\n      calldataload\n        /* \"#utility.yul\":3302:3320   */\n      0xffffffffffffffff\n        /* \"#utility.yul\":3343:3345   */\n      dup1\n        /* \"#utility.yul\":3335:3341   */\n      dup3\n        /* \"#utility.yul\":3332:3346   */\n      gt\n        /* \"#utility.yul\":3329:3363   */\n      iszero\n      tag_511\n      jumpi\n        /* \"#utility.yul\":3359:3360   */\n      0x00\n        /* \"#utility.yul\":3356:3357   */\n      dup1\n        /* \"#utility.yul\":3349:3361   */\n      revert\n        /* \"#utility.yul\":3329:3363   */\n    tag_511:\n        /* \"#utility.yul\":3382:3432   */\n      tag_512\n        /* \"#utility.yul\":3424:3431   */\n      dup8\n        /* \"#utility.yul\":3415:3421   */\n      dup4\n        /* \"#utility.yul\":3404:3413   */\n      dup9\n        /* \"#utility.yul\":3400:3422   */\n      add\n        /* \"#utility.yul\":3382:3432   */\n      tag_475\n      jump\t// in\n    tag_512:\n        /* \"#utility.yul\":3372:3432   */\n      swap5\n      pop\n        /* \"#utility.yul\":3485:3487   */\n      0x20\n        /* \"#utility.yul\":3474:3483   */\n      dup7\n        /* \"#utility.yul\":3470:3488   */\n      add\n        /* \"#utility.yul\":3457:3489   */\n      calldataload\n        /* \"#utility.yul\":3441:3489   */\n      swap2\n      pop\n        /* \"#utility.yul\":3514:3516   */\n      dup1\n        /* \"#utility.yul\":3504:3512   */\n      dup3\n        /* \"#utility.yul\":3501:3517   */\n      gt\n        /* \"#utility.yul\":3498:3534   */\n      iszero\n      tag_513\n      jumpi\n        /* \"#utility.yul\":3530:3531   */\n      0x00\n        /* \"#utility.yul\":3527:3528   */\n      dup1\n        /* \"#utility.yul\":3520:3532   */\n      revert\n        /* \"#utility.yul\":3498:3534   */\n    tag_513:\n      pop\n        /* \"#utility.yul\":3553:3605   */\n      tag_514\n        /* \"#utility.yul\":3597:3604   */\n      dup7\n        /* \"#utility.yul\":3586:3594   */\n      dup3\n        /* \"#utility.yul\":3575:3584   */\n      dup8\n        /* \"#utility.yul\":3571:3595   */\n      add\n        /* \"#utility.yul\":3553:3605   */\n      tag_475\n      jump\t// in\n    tag_514:\n        /* \"#utility.yul\":3543:3605   */\n      swap3\n      pop\n      pop\n        /* \"#utility.yul\":3624:3662   */\n      tag_515\n        /* \"#utility.yul\":3658:3660   */\n      0x40\n        /* \"#utility.yul\":3647:3656   */\n      dup6\n        /* \"#utility.yul\":3643:3661   */\n      add\n        /* \"#utility.yul\":3624:3662   */\n      tag_476\n      jump\t// in\n    tag_515:\n        /* \"#utility.yul\":3614:3662   */\n      swap1\n      pop\n        /* \"#utility.yul\":3051:3668   */\n      swap3\n      pop\n      swap3\n      pop\n      swap3\n      jump\t// out\n        /* \"#utility.yul\":3855:4035   */\n    tag_58:\n        /* \"#utility.yul\":3914:3920   */\n      0x00\n        /* \"#utility.yul\":3967:3969   */\n      0x20\n        /* \"#utility.yul\":3955:3964   */\n      dup3\n        /* \"#utility.yul\":3946:3953   */\n      dup5\n        /* \"#utility.yul\":3942:3965   */\n      sub\n        /* \"#utility.yul\":3938:3970   */\n      slt\n        /* \"#utility.yul\":3935:3987   */\n      iszero\n      tag_518\n      jumpi\n        /* \"#utility.yul\":3983:3984   */\n      0x00\n        /* \"#utility.yul\":3980:3981   */\n      dup1\n        /* \"#utility.yul\":3973:3985   */\n      revert\n        /* \"#utility.yul\":3935:3987   */\n    tag_518:\n      pop\n        /* \"#utility.yul\":4006:4029   */\n      calldataload\n      swap2\n        /* \"#utility.yul\":3855:4035   */\n      swap1\n      pop\n      jump\t// out\n        /* \"#utility.yul\":4222:4408   */\n    tag_64:\n        /* \"#utility.yul\":4281:4287   */\n      0x00\n        /* \"#utility.yul\":4334:4336   */\n      0x20\n        /* \"#utility.yul\":4322:4331   */\n      dup3\n        /* \"#utility.yul\":4313:4320   */\n      dup5\n        /* \"#utility.yul\":4309:4332   */\n      sub\n        /* \"#utility.yul\":4305:4337   */\n      slt\n        /* \"#utility.yul\":4302:4354   */\n      iszero\n      tag_521\n      jumpi\n        /* \"#utility.yul\":4350:4351   */\n      0x00\n        /* \"#utility.yul\":4347:4348   */\n      dup1\n        /* \"#utility.yul\":4340:4352   */\n      revert\n        /* \"#utility.yul\":4302:4354   */\n    tag_521:\n        /* \"#utility.yul\":4373:4402   */\n      tag_307\n        /* \"#utility.yul\":4392:4401   */\n      dup3\n        /* \"#utility.yul\":4373:4402   */\n      tag_476\n      jump\t// in\n        /* \"#utility.yul\":4413:4667   */\n    tag_69:\n        /* \"#utility.yul\":4481:4487   */\n      0x00\n        /* \"#utility.yul\":4489:4495   */\n      dup1\n        /* \"#utility.yul\":4542:4544   */\n      0x40\n        /* \"#utility.yul\":4530:4539   */\n      dup4\n        /* \"#utility.yul\":4521:4528   */\n      dup6\n        /* \"#utility.yul\":4517:4540   */\n      sub\n        /* \"#utility.yul\":4513:4545   */\n      slt\n        /* \"#utility.yul\":4510:4562   */\n      iszero\n      tag_524\n      jumpi\n        /* \"#utility.yul\":4558:4559   */\n      0x00\n        /* \"#utility.yul\":4555:4556   */\n      dup1\n        /* \"#utility.yul\":4548:4560   */\n      revert\n        /* \"#utility.yul\":4510:4562   */\n    tag_524:\n        /* \"#utility.yul\":4594:4603   */\n      dup3\n        /* \"#utility.yul\":4581:4604   */\n      calldataload\n        /* \"#utility.yul\":4571:4604   */\n      swap2\n      pop\n        /* \"#utility.yul\":4623:4661   */\n      tag_525\n        /* \"#utility.yul\":4657:4659   */\n      0x20\n        /* \"#utility.yul\":4646:4655   */\n      dup5\n        /* \"#utility.yul\":4642:4660   */\n      add\n        /* \"#utility.yul\":4623:4661   */\n      tag_476\n      jump\t// in\n    tag_525:\n        /* \"#utility.yul\":4613:4661   */\n      swap1\n      pop\n        /* \"#utility.yul\":4413:4667   */\n      swap3\n      pop\n      swap3\n      swap1\n      pop\n      jump\t// out\n        /* \"#utility.yul\":4672:5264   */\n    tag_73:\n        /* \"#utility.yul\":4743:4749   */\n      0x00\n        /* \"#utility.yul\":4751:4757   */\n      dup1\n        /* \"#utility.yul\":4804:4806   */\n      0x20\n        /* \"#utility.yul\":4792:4801   */\n      dup4\n        /* \"#utility.yul\":4783:4790   */\n      dup6\n        /* \"#utility.yul\":4779:4802   */\n      sub\n        /* \"#utility.yul\":4775:4807   */\n      slt\n        /* \"#utility.yul\":4772:4824   */\n      iszero\n      tag_527\n      jumpi\n        /* \"#utility.yul\":4820:4821   */\n      0x00\n        /* \"#utility.yul\":4817:4818   */\n      dup1\n        /* \"#utility.yul\":4810:4822   */\n      revert\n        /* \"#utility.yul\":4772:4824   */\n    tag_527:\n        /* \"#utility.yul\":4860:4869   */\n      dup3\n        /* \"#utility.yul\":4847:4870   */\n      calldataload\n        /* \"#utility.yul\":4889:4907   */\n      0xffffffffffffffff\n        /* \"#utility.yul\":4930:4932   */\n      dup1\n        /* \"#utility.yul\":4922:4928   */\n      dup3\n        /* \"#utility.yul\":4919:4933   */\n      gt\n        /* \"#utility.yul\":4916:4950   */\n      iszero\n      tag_528\n      jumpi\n        /* \"#utility.yul\":4946:4947   */\n      0x00\n        /* \"#utility.yul\":4943:4944   */\n      dup1\n        /* \"#utility.yul\":4936:4948   */\n      revert\n        /* \"#utility.yul\":4916:4950   */\n    tag_528:\n        /* \"#utility.yul\":4984:4990   */\n      dup2\n        /* \"#utility.yul\":4973:4982   */\n      dup6\n        /* \"#utility.yul\":4969:4991   */\n      add\n        /* \"#utility.yul\":4959:4991   */\n      swap2\n      pop\n        /* \"#utility.yul\":5029:5036   */\n      dup6\n        /* \"#utility.yul\":5022:5026   */\n      0x1f\n        /* \"#utility.yul\":5018:5020   */\n      dup4\n        /* \"#utility.yul\":5014:5027   */\n      add\n        /* \"#utility.yul\":5010:5037   */\n      slt\n        /* \"#utility.yul\":5000:5055   */\n      tag_529\n      jumpi\n        /* \"#utility.yul\":5051:5052   */\n      0x00\n        /* \"#utility.yul\":5048:5049   */\n      dup1\n        /* \"#utility.yul\":5041:5053   */\n      revert\n        /* \"#utility.yul\":5000:5055   */\n    tag_529:\n        /* \"#utility.yul\":5091:5093   */\n      dup2\n        /* \"#utility.yul\":5078:5094   */\n      calldataload\n        /* \"#utility.yul\":5117:5119   */\n      dup2\n        /* \"#utility.yul\":5109:5115   */\n      dup2\n        /* \"#utility.yul\":5106:5120   */\n      gt\n        /* \"#utility.yul\":5103:5137   */\n      iszero\n      tag_530\n      jumpi\n        /* \"#utility.yul\":5133:5134   */\n      0x00\n        /* \"#utility.yul\":5130:5131   */\n      dup1\n        /* \"#utility.yul\":5123:5135   */\n      revert\n        /* \"#utility.yul\":5103:5137   */\n    tag_530:\n        /* \"#utility.yul\":5178:5185   */\n      dup7\n        /* \"#utility.yul\":5173:5175   */\n      0x20\n        /* \"#utility.yul\":5164:5170   */\n      dup3\n        /* \"#utility.yul\":5160:5162   */\n      dup6\n        /* \"#utility.yul\":5156:5171   */\n      add\n        /* \"#utility.yul\":5152:5176   */\n      add\n        /* \"#utility.yul\":5149:5186   */\n      gt\n        /* \"#utility.yul\":5146:5203   */\n      iszero\n      tag_488\n      jumpi\n        /* \"#utility.yul\":5199:5200   */\n      0x00\n        /* \"#utility.yul\":5196:5197   */\n      dup1\n        /* \"#utility.yul\":5189:5201   */\n      revert\n        /* \"#utility.yul\":6511:6695   */\n    tag_143:\n        /* \"#utility.yul\":6563:6640   */\n      0x4e487b7100000000000000000000000000000000000000000000000000000000\n        /* \"#utility.yul\":6560:6561   */\n      0x00\n        /* \"#utility.yul\":6553:6641   */\n      mstore\n        /* \"#utility.yul\":6660:6664   */\n      0x32\n        /* \"#utility.yul\":6657:6658   */\n      0x04\n        /* \"#utility.yul\":6650:6665   */\n      mstore\n        /* \"#utility.yul\":6684:6688   */\n      0x24\n        /* \"#utility.yul\":6681:6682   */\n      0x00\n        /* \"#utility.yul\":6674:6689   */\n      revert\n        /* \"#utility.yul\":6700:6884   */\n    tag_477:\n        /* \"#utility.yul\":6752:6829   */\n      0x4e487b7100000000000000000000000000000000000000000000000000000000\n        /* \"#utility.yul\":6749:6750   */\n      0x00\n        /* \"#utility.yul\":6742:6830   */\n      mstore\n        /* \"#utility.yul\":6849:6853   */\n      0x11\n        /* \"#utility.yul\":6846:6847   */\n      0x04\n        /* \"#utility.yul\":6839:6854   */\n      mstore\n        /* \"#utility.yul\":6873:6877   */\n      0x24\n        /* \"#utility.yul\":6870:6871   */\n      0x00\n        /* \"#utility.yul\":6863:6878   */\n      revert\n        /* \"#utility.yul\":6889:7064   */\n    tag_156:\n        /* \"#utility.yul\":6926:6929   */\n      0x00\n        /* \"#utility.yul\":6970:6974   */\n      0xff\n        /* \"#utility.yul\":6963:6968   */\n      dup3\n        /* \"#utility.yul\":6959:6975   */\n      and\n        /* \"#utility.yul\":6999:7003   */\n      0xff\n        /* \"#utility.yul\":6990:6997   */\n      dup2\n        /* \"#utility.yul\":6987:7004   */\n      sub\n        /* \"#utility.yul\":6984:7027   */\n      tag_541\n      jumpi\n        /* \"#utility.yul\":7007:7025   */\n      tag_541\n      tag_477\n      jump\t// in\n    tag_541:\n        /* \"#utility.yul\":7056:7057   */\n      0x01\n        /* \"#utility.yul\":7043:7058   */\n      add\n      swap3\n        /* \"#utility.yul\":6889:7064   */\n      swap2\n      pop\n      pop\n      jump\t// out\n        /* \"#utility.yul\":7069:7506   */\n    tag_163:\n        /* \"#utility.yul\":7148:7149   */\n      0x01\n        /* \"#utility.yul\":7144:7156   */\n      dup2\n      dup2\n      shr\n      swap1\n        /* \"#utility.yul\":7191:7203   */\n      dup3\n      and\n      dup1\n        /* \"#utility.yul\":7212:7273   */\n      tag_543\n      jumpi\n        /* \"#utility.yul\":7266:7270   */\n      0x7f\n        /* \"#utility.yul\":7258:7264   */\n      dup3\n        /* \"#utility.yul\":7254:7271   */\n      and\n        /* \"#utility.yul\":7244:7271   */\n      swap2\n      pop\n        /* \"#utility.yul\":7212:7273   */\n    tag_543:\n        /* \"#utility.yul\":7319:7321   */\n      0x20\n        /* \"#utility.yul\":7311:7317   */\n      dup3\n        /* \"#utility.yul\":7308:7322   */\n      lt\n        /* \"#utility.yul\":7288:7306   */\n      dup2\n        /* \"#utility.yul\":7285:7323   */\n      sub\n        /* \"#utility.yul\":7282:7500   */\n      tag_544\n      jumpi\n        /* \"#utility.yul\":7356:7433   */\n      0x4e487b7100000000000000000000000000000000000000000000000000000000\n        /* \"#utility.yul\":7353:7354   */\n      0x00\n        /* \"#utility.yul\":7346:7434   */\n      mstore\n        /* \"#utility.yul\":7457:7461   */\n      0x22\n        /* \"#utility.yul\":7454:7455   */\n      0x04\n        /* \"#utility.yul\":7447:7462   */\n      mstore\n        /* \"#utility.yul\":7485:7489   */\n      0x24\n        /* \"#utility.yul\":7482:7483   */\n      0x00\n        /* \"#utility.yul\":7475:7490   */\n      revert\n        /* \"#utility.yul\":7282:7500   */\n    tag_544:\n      pop\n        /* \"#utility.yul\":7069:7506   */\n      swap2\n      swap1\n      pop\n      jump\t// out\n        /* \"#utility.yul\":8052:8597   */\n    tag_479:\n        /* \"#utility.yul\":8154:8156   */\n      0x1f\n        /* \"#utility.yul\":8149:8152   */\n      dup3\n        /* \"#utility.yul\":8146:8157   */\n      gt\n        /* \"#utility.yul\":8143:8591   */\n      iszero\n      tag_193\n      jumpi\n        /* \"#utility.yul\":8190:8191   */\n      0x00\n        /* \"#utility.yul\":8215:8220   */\n      dup2\n        /* \"#utility.yul\":8211:8213   */\n      dup2\n        /* \"#utility.yul\":8204:8221   */\n      mstore\n        /* \"#utility.yul\":8260:8264   */\n      0x20\n        /* \"#utility.yul\":8256:8258   */\n      dup2\n        /* \"#utility.yul\":8246:8265   */\n      keccak256\n        /* \"#utility.yul\":8330:8332   */\n      0x1f\n        /* \"#utility.yul\":8318:8328   */\n      dup6\n        /* \"#utility.yul\":8314:8333   */\n      add\n        /* \"#utility.yul\":8311:8312   */\n      0x05\n        /* \"#utility.yul\":8307:8334   */\n      shr\n        /* \"#utility.yul\":8301:8305   */\n      dup2\n        /* \"#utility.yul\":8297:8335   */\n      add\n        /* \"#utility.yul\":8366:8370   */\n      0x20\n        /* \"#utility.yul\":8354:8364   */\n      dup7\n        /* \"#utility.yul\":8351:8371   */\n      lt\n        /* \"#utility.yul\":8348:8395   */\n      iszero\n      tag_549\n      jumpi\n      pop\n        /* \"#utility.yul\":8389:8393   */\n      dup1\n        /* \"#utility.yul\":8348:8395   */\n    tag_549:\n        /* \"#utility.yul\":8444:8446   */\n      0x1f\n        /* \"#utility.yul\":8439:8442   */\n      dup6\n        /* \"#utility.yul\":8435:8447   */\n      add\n        /* \"#utility.yul\":8432:8433   */\n      0x05\n        /* \"#utility.yul\":8428:8448   */\n      shr\n        /* \"#utility.yul\":8422:8426   */\n      dup3\n        /* \"#utility.yul\":8418:8449   */\n      add\n        /* \"#utility.yul\":8408:8449   */\n      swap2\n      pop\n        /* \"#utility.yul\":8499:8581   */\n    tag_550:\n        /* \"#utility.yul\":8517:8519   */\n      dup2\n        /* \"#utility.yul\":8510:8515   */\n      dup2\n        /* \"#utility.yul\":8507:8520   */\n      lt\n        /* \"#utility.yul\":8499:8581   */\n      iszero\n      tag_552\n      jumpi\n        /* \"#utility.yul\":8562:8579   */\n      dup3\n      dup2\n      sstore\n        /* \"#utility.yul\":8543:8544   */\n      0x01\n        /* \"#utility.yul\":8532:8545   */\n      add\n        /* \"#utility.yul\":8499:8581   */\n      jump(tag_550)\n    tag_552:\n        /* \"#utility.yul\":8503:8506   */\n      pop\n      pop\n      pop\n        /* \"#utility.yul\":8052:8597   */\n      pop\n      pop\n      pop\n      jump\t// out\n        /* \"#utility.yul\":8833:10304   */\n    tag_175:\n        /* \"#utility.yul\":8959:8962   */\n      dup2\n        /* \"#utility.yul\":8953:8963   */\n      mload\n        /* \"#utility.yul\":8986:9004   */\n      0xffffffffffffffff\n        /* \"#utility.yul\":8978:8984   */\n      dup2\n        /* \"#utility.yul\":8975:9005   */\n      gt\n        /* \"#utility.yul\":8972:9028   */\n      iszero\n      tag_556\n      jumpi\n        /* \"#utility.yul\":9008:9026   */\n      tag_556\n      tag_361\n      jump\t// in\n    tag_556:\n        /* \"#utility.yul\":9037:9134   */\n      tag_557\n        /* \"#utility.yul\":9127:9133   */\n      dup2\n        /* \"#utility.yul\":9087:9125   */\n      tag_558\n        /* \"#utility.yul\":9119:9123   */\n      dup5\n        /* \"#utility.yul\":9113:9124   */\n      sload\n        /* \"#utility.yul\":9087:9125   */\n      tag_163\n      jump\t// in\n    tag_558:\n        /* \"#utility.yul\":9081:9085   */\n      dup5\n        /* \"#utility.yul\":9037:9134   */\n      tag_479\n      jump\t// in\n    tag_557:\n        /* \"#utility.yul\":9189:9193   */\n      0x20\n      dup1\n        /* \"#utility.yul\":9253:9255   */\n      0x1f\n        /* \"#utility.yul\":9242:9256   */\n      dup4\n      gt\n        /* \"#utility.yul\":9270:9271   */\n      0x01\n        /* \"#utility.yul\":9265:10047   */\n      dup2\n      eq\n      tag_560\n      jumpi\n        /* \"#utility.yul\":10091:10092   */\n      0x00\n        /* \"#utility.yul\":10108:10114   */\n      dup5\n        /* \"#utility.yul\":10105:10194   */\n      iszero\n      tag_561\n      jumpi\n      pop\n        /* \"#utility.yul\":10160:10179   */\n      dup6\n      dup4\n      add\n        /* \"#utility.yul\":10154:10180   */\n      mload\n        /* \"#utility.yul\":10105:10194   */\n    tag_561:\n        /* \"#utility.yul\":8739:8805   */\n      0xffffffffffffffffffffffffffffffffffffffffffffffffffffffffffffffff\n        /* \"#utility.yul\":8730:8731   */\n      0x03\n        /* \"#utility.yul\":8726:8737   */\n      dup7\n      swap1\n      shl\n        /* \"#utility.yul\":8722:8806   */\n      shr\n        /* \"#utility.yul\":8718:8807   */\n      not\n        /* \"#utility.yul\":8708:8808   */\n      and\n        /* \"#utility.yul\":8814:8815   */\n      0x01\n        /* \"#utility.yul\":8810:8821   */\n      dup6\n      swap1\n      shl\n        /* \"#utility.yul\":8705:8822   */\n      or\n        /* \"#utility.yul\":10207:10288   */\n      dup6\n      sstore\n        /* \"#utility.yul\":9235:10298   */\n      jump(tag_552)\n        /* \"#utility.yul\":9265:10047   */\n    tag_560:\n        /* \"#utility.yul\":7999:8000   */\n      0x00\n        /* \"#utility.yul\":7992:8006   */\n      dup6\n      dup2\n      mstore\n        /* \"#utility.yul\":8036:8040   */\n      0x20\n        /* \"#utility.yul\":8023:8041   */\n      dup2\n      keccak256\n        /* \"#utility.yul\":9313:9379   */\n      0xffffffffffffffffffffffffffffffffffffffffffffffffffffffffffffffe0\n        /* \"#utility.yul\":9301:9380   */\n      dup7\n      and\n      swap2\n        /* \"#utility.yul\":9478:9714   */\n    tag_564:\n        /* \"#utility.yul\":9492:9499   */\n      dup3\n        /* \"#utility.yul\":9489:9490   */\n      dup2\n        /* \"#utility.yul\":9486:9500   */\n      lt\n        /* \"#utility.yul\":9478:9714   */\n      iszero\n      tag_566\n      jumpi\n        /* \"#utility.yul\":9581:9600   */\n      dup9\n      dup7\n      add\n        /* \"#utility.yul\":9575:9601   */\n      mload\n        /* \"#utility.yul\":9560:9602   */\n      dup3\n      sstore\n        /* \"#utility.yul\":9673:9700   */\n      swap5\n      dup5\n      add\n      swap5\n        /* \"#utility.yul\":9641:9642   */\n      0x01\n        /* \"#utility.yul\":9629:9643   */\n      swap1\n      swap2\n      add\n      swap1\n        /* \"#utility.yul\":9508:9527   */\n      dup5\n      add\n        /* \"#utility.yul\":9478:9714   */\n      jump(tag_564)\n    tag_566:\n        /* \"#utility.yul\":9482:9485   */\n      pop\n        /* \"#utility.yul\":9742:9748   */\n      dup6\n        /* \"#utility.yul\":9733:9740   */\n      dup3\n        /* \"#utility.yul\":9730:9749   */\n      lt\n        /* \"#utility.yul\":9727:9988   */\n      iszero\n      tag_567\n      jumpi\n        /* \"#utility.yul\":9803:9822   */\n      dup8\n      dup6\n      add\n        /* \"#utility.yul\":9797:9823   */\n      mload\n        /* \"#utility.yul\":9904:9970   */\n      0xffffffffffffffffffffffffffffffffffffffffffffffffffffffffffffffff\n        /* \"#utility.yul\":9886:9887   */\n      0x03\n        /* \"#utility.yul\":9882:9896   */\n      dup9\n      swap1\n      shl\n        /* \"#utility.yul\":9898:9901   */\n      0xf8\n        /* \"#utility.yul\":9878:9902   */\n      and\n        /* \"#utility.yul\":9874:9971   */\n      shr\n        /* \"#utility.yul\":9870:9972   */\n      not\n        /* \"#utility.yul\":9855:9973   */\n      and\n        /* \"#utility.yul\":9840:9974   */\n      dup2\n      sstore\n        /* \"#utility.yul\":9727:9988   */\n    tag_567:\n      pop\n      pop\n      pop\n      pop\n      pop\n        /* \"#utility.yul\":10034:10035   */\n      0x01\n        /* \"#utility.yul\":10018:10032   */\n      swap1\n      dup2\n      shl\n        /* \"#utility.yul\":10014:10036   */\n      add\n        /* \"#utility.yul\":10001:10037   */\n      swap1\n      sstore\n      pop\n        /* \"#utility.yul\":8833:10304   */\n      jump\t// out\n        /* \"#utility.yul\":10974:12299   */\n    tag_201:\n        /* \"#utility.yul\":11098:11116   */\n      0xffffffffffffffff\n        /* \"#utility.yul\":11093:11096   */\n      dup4\n        /* \"#utility.yul\":11090:11117   */\n      gt\n        /* \"#utility.yul\":11087:11140   */\n      iszero\n      tag_572\n      jumpi\n        /* \"#utility.yul\":11120:11138   */\n      tag_572\n      tag_361\n      jump\t// in\n    tag_572:\n        /* \"#utility.yul\":11149:11243   */\n      tag_573\n        /* \"#utility.yul\":11239:11242   */\n      dup4\n        /* \"#utility.yul\":11199:11237   */\n      tag_574\n        /* \"#utility.yul\":11231:11235   */\n      dup4\n        /* \"#utility.yul\":11225:11236   */\n      sload\n        /* \"#utility.yul\":11199:11237   */\n      tag_163\n      jump\t// in\n    tag_574:\n        /* \"#utility.yul\":11193:11197   */\n      dup4\n        /* \"#utility.yul\":11149:11243   */\n      tag_479\n      jump\t// in\n    tag_573:\n        /* \"#utility.yul\":11269:11270   */\n      0x00\n        /* \"#utility.yul\":11294:11296   */\n      0x1f\n        /* \"#utility.yul\":11289:11292   */\n      dup5\n        /* \"#utility.yul\":11286:11297   */\n      gt\n        /* \"#utility.yul\":11311:11312   */\n      0x01\n        /* \"#utility.yul\":11306:12041   */\n      dup2\n      eq\n      tag_576\n      jumpi\n        /* \"#utility.yul\":12085:12086   */\n      0x00\n        /* \"#utility.yul\":12102:12105   */\n      dup6\n        /* \"#utility.yul\":12099:12192   */\n      iszero\n      tag_577\n      jumpi\n      pop\n        /* \"#utility.yul\":12158:12177   */\n      dup4\n      dup3\n      add\n        /* \"#utility.yul\":12145:12178   */\n      calldataload\n        /* \"#utility.yul\":12099:12192   */\n    tag_577:\n        /* \"#utility.yul\":8739:8805   */\n      0xffffffffffffffffffffffffffffffffffffffffffffffffffffffffffffffff\n        /* \"#utility.yul\":8730:8731   */\n      0x03\n        /* \"#utility.yul\":8726:8737   */\n      dup8\n      swap1\n      shl\n        /* \"#utility.yul\":8722:8806   */\n      shr\n        /* \"#utility.yul\":8718:8807   */\n      not\n        /* \"#utility.yul\":8708:8808   */\n      and\n        /* \"#utility.yul\":8814:8815   */\n      0x01\n        /* \"#utility.yul\":8810:8821   */\n      dup7\n      swap1\n      shl\n        /* \"#utility.yul\":8705:8822   */\n      or\n        /* \"#utility.yul\":12205:12283   */\n      dup4\n      sstore\n        /* \"#utility.yul\":11279:12293   */\n      jump(tag_575)\n        /* \"#utility.yul\":11306:12041   */\n    tag_576:\n        /* \"#utility.yul\":7999:8000   */\n      0x00\n        /* \"#utility.yul\":7992:8006   */\n      dup4\n      dup2\n      mstore\n        /* \"#utility.yul\":8036:8040   */\n      0x20\n        /* \"#utility.yul\":8023:8041   */\n      swap1\n      keccak256\n        /* \"#utility.yul\":11351:11417   */\n      0xffffffffffffffffffffffffffffffffffffffffffffffffffffffffffffffe0\n        /* \"#utility.yul\":11342:11418   */\n      dup7\n      and\n      swap1\n        /* \"#utility.yul\":11502:11511   */\n      dup4\n        /* \"#utility.yul\":11524:11753   */\n    tag_580:\n        /* \"#utility.yul\":11538:11545   */\n      dup3\n        /* \"#utility.yul\":11535:11536   */\n      dup2\n        /* \"#utility.yul\":11532:11546   */\n      lt\n        /* \"#utility.yul\":11524:11753   */\n      iszero\n      tag_582\n      jumpi\n        /* \"#utility.yul\":11627:11646   */\n      dup7\n      dup6\n      add\n        /* \"#utility.yul\":11614:11647   */\n      calldataload\n        /* \"#utility.yul\":11599:11648   */\n      dup3\n      sstore\n        /* \"#utility.yul\":11734:11738   */\n      0x20\n        /* \"#utility.yul\":11719:11739   */\n      swap5\n      dup6\n      add\n      swap5\n        /* \"#utility.yul\":11687:11688   */\n      0x01\n        /* \"#utility.yul\":11675:11689   */\n      swap1\n      swap3\n      add\n      swap2\n        /* \"#utility.yul\":11554:11566   */\n      add\n        /* \"#utility.yul\":11524:11753   */\n      jump(tag_580)\n    tag_582:\n        /* \"#utility.yul\":11528:11531   */\n      pop\n        /* \"#utility.yul\":11781:11784   */\n      dup7\n        /* \"#utility.yul\":11772:11779   */\n      dup3\n        /* \"#utility.yul\":11769:11785   */\n      lt\n        /* \"#utility.yul\":11766:11985   */\n      iszero\n      tag_583\n      jumpi\n        /* \"#utility.yul\":11901:11967   */\n      0xffffffffffffffffffffffffffffffffffffffffffffffffffffffffffffffff\n        /* \"#utility.yul\":11895:11898   */\n      0xf8\n        /* \"#utility.yul\":11889:11892   */\n      dup9\n        /* \"#utility.yul\":11886:11887   */\n      0x03\n        /* \"#utility.yul\":11882:11893   */\n      shl\n        /* \"#utility.yul\":11878:11899   */\n      and\n        /* \"#utility.yul\":11874:11968   */\n      shr\n        /* \"#utility.yul\":11870:11969   */\n      not\n        /* \"#utility.yul\":11857:11866   */\n      dup5\n        /* \"#utility.yul\":11852:11855   */\n      dup8\n        /* \"#utility.yul\":11848:11867   */\n      add\n        /* \"#utility.yul\":11835:11868   */\n      calldataload\n        /* \"#utility.yul\":11831:11970   */\n      and\n        /* \"#utility.yul\":11823:11829   */\n      dup2\n        /* \"#utility.yul\":11816:11971   */\n      sstore\n        /* \"#utility.yul\":11766:11985   */\n    tag_583:\n      pop\n      pop\n        /* \"#utility.yul\":12028:12029   */\n      0x01\n        /* \"#utility.yul\":12022:12025   */\n      dup6\n        /* \"#utility.yul\":12019:12020   */\n      0x01\n        /* \"#utility.yul\":12015:12026   */\n      shl\n        /* \"#utility.yul\":12011:12030   */\n      add\n        /* \"#utility.yul\":12005:12009   */\n      dup4\n        /* \"#utility.yul\":11998:12031   */\n      sstore\n        /* \"#utility.yul\":11279:12293   */\n    tag_575:\n      pop\n      pop\n        /* \"#utility.yul\":10974:12299   */\n      pop\n      pop\n      pop\n      jump\t// out\n        /* \"#utility.yul\":13890:14968   */\n    tag_284:\n        /* \"#utility.yul\":14066:14069   */\n      0x00\n        /* \"#utility.yul\":14095:14096   */\n      dup1\n        /* \"#utility.yul\":14128:14134   */\n      dup5\n        /* \"#utility.yul\":14122:14135   */\n      sload\n        /* \"#utility.yul\":14158:14194   */\n      tag_589\n        /* \"#utility.yul\":14184:14193   */\n      dup2\n        /* \"#utility.yul\":14158:14194   */\n      tag_163\n      jump\t// in\n    tag_589:\n        /* \"#utility.yul\":14213:14214   */\n      0x01\n        /* \"#utility.yul\":14230:14248   */\n      dup3\n      dup2\n      and\n        /* \"#utility.yul\":14257:14448   */\n      dup1\n      iszero\n      tag_591\n      jumpi\n        /* \"#utility.yul\":14462:14463   */\n      0x01\n        /* \"#utility.yul\":14457:14813   */\n      dup2\n      eq\n      tag_592\n      jumpi\n        /* \"#utility.yul\":14223:14813   */\n      jump(tag_590)\n        /* \"#utility.yul\":14257:14448   */\n    tag_591:\n        /* \"#utility.yul\":14305:14371   */\n      0xffffffffffffffffffffffffffffffffffffffffffffffffffffffffffffff00\n        /* \"#utility.yul\":14294:14303   */\n      dup5\n        /* \"#utility.yul\":14290:14372   */\n      and\n        /* \"#utility.yul\":14285:14288   */\n      dup8\n        /* \"#utility.yul\":14278:14373   */\n      mstore\n        /* \"#utility.yul\":14428:14434   */\n      dup3\n        /* \"#utility.yul\":14421:14435   */\n      iszero\n        /* \"#utility.yul\":14414:14436   */\n      iszero\n        /* \"#utility.yul\":14406:14412   */\n      dup4\n        /* \"#utility.yul\":14402:14437   */\n      mul\n        /* \"#utility.yul\":14397:14400   */\n      dup8\n        /* \"#utility.yul\":14393:14438   */\n      add\n        /* \"#utility.yul\":14386:14438   */\n      swap5\n      pop\n        /* \"#utility.yul\":14257:14448   */\n      jump(tag_590)\n        /* \"#utility.yul\":14457:14813   */\n    tag_592:\n        /* \"#utility.yul\":14488:14494   */\n      dup9\n        /* \"#utility.yul\":14485:14486   */\n      0x00\n        /* \"#utility.yul\":14478:14495   */\n      mstore\n        /* \"#utility.yul\":14518:14522   */\n      0x20\n        /* \"#utility.yul\":14563:14565   */\n      dup1\n        /* \"#utility.yul\":14560:14561   */\n      0x00\n        /* \"#utility.yul\":14550:14566   */\n      keccak256\n        /* \"#utility.yul\":14588:14589   */\n      0x00\n        /* \"#utility.yul\":14602:14767   */\n    tag_593:\n        /* \"#utility.yul\":14616:14622   */\n      dup6\n        /* \"#utility.yul\":14613:14614   */\n      dup2\n        /* \"#utility.yul\":14610:14623   */\n      lt\n        /* \"#utility.yul\":14602:14767   */\n      iszero\n      tag_595\n      jumpi\n        /* \"#utility.yul\":14694:14708   */\n      dup2\n      sload\n        /* \"#utility.yul\":14681:14692   */\n      dup11\n      dup3\n      add\n        /* \"#utility.yul\":14674:14709   */\n      mstore\n        /* \"#utility.yul\":14737:14753   */\n      swap1\n      dup5\n      add\n      swap1\n        /* \"#utility.yul\":14631:14641   */\n      dup3\n      add\n        /* \"#utility.yul\":14602:14767   */\n      jump(tag_593)\n    tag_595:\n        /* \"#utility.yul\":14606:14609   */\n      pop\n      pop\n      pop\n        /* \"#utility.yul\":14796:14802   */\n      dup3\n        /* \"#utility.yul\":14791:14794   */\n      dup8\n        /* \"#utility.yul\":14787:14803   */\n      add\n        /* \"#utility.yul\":14780:14803   */\n      swap5\n      pop\n        /* \"#utility.yul\":14223:14813   */\n    tag_590:\n      pop\n      pop\n      pop\n      pop\n        /* \"#utility.yul\":14844:14850   */\n      dup4\n        /* \"#utility.yul\":14838:14851   */\n      mload\n        /* \"#utility.yul\":14860:14928   */\n      tag_596\n        /* \"#utility.yul\":14919:14927   */\n      dup2\n        /* \"#utility.yul\":14914:14917   */\n      dup4\n        /* \"#utility.yul\":14907:14911   */\n      0x20\n        /* \"#utility.yul\":14899:14905   */\n      dup9\n        /* \"#utility.yul\":14895:14912   */\n      add\n        /* \"#utility.yul\":14860:14928   */\n      tag_474\n      jump\t// in\n    tag_596:\n        /* \"#utility.yul\":14944:14962   */\n      add\n      swap5\n        /* \"#utility.yul\":13890:14968   */\n      swap4\n      pop\n      pop\n      pop\n      pop\n      jump\t// out\n        /* \"#utility.yul\":15320:15515   */\n    tag_356:\n        /* \"#utility.yul\":15359:15362   */\n      0x00\n        /* \"#utility.yul\":15390:15456   */\n      0xffffffffffffffffffffffffffffffffffffffffffffffffffffffffffffffff\n        /* \"#utility.yul\":15383:15388   */\n      dup3\n        /* \"#utility.yul\":15380:15457   */\n      sub\n        /* \"#utility.yul\":15377:15480   */\n      tag_600\n      jumpi\n        /* \"#utility.yul\":15460:15478   */\n      tag_600\n      tag_477\n      jump\t// in\n    tag_600:\n      pop\n        /* \"#utility.yul\":15507:15508   */\n      0x01\n        /* \"#utility.yul\":15496:15509   */\n      add\n      swap1\n        /* \"#utility.yul\":15320:15515   */\n      jump\t// out\n        /* \"#utility.yul\":15520:15704   */\n    tag_481:\n        /* \"#utility.yul\":15572:15649   */\n      0x4e487b7100000000000000000000000000000000000000000000000000000000\n        /* \"#utility.yul\":15569:15570   */\n      0x00\n        /* \"#utility.yul\":15562:15650   */\n      mstore\n        /* \"#utility.yul\":15669:15673   */\n      0x12\n        /* \"#utility.yul\":15666:15667   */\n      0x04\n        /* \"#utility.yul\":15659:15674   */\n      mstore\n        /* \"#utility.yul\":15693:15697   */\n      0x24\n        /* \"#utility.yul\":15690:15691   */\n      0x00\n        /* \"#utility.yul\":15683:15698   */\n      revert\n        /* \"#utility.yul\":15709:15829   */\n    tag_358:\n        /* \"#utility.yul\":15749:15750   */\n      0x00\n        /* \"#utility.yul\":15775:15776   */\n      dup3\n        /* \"#utility.yul\":15765:15800   */\n      tag_604\n      jumpi\n        /* \"#utility.yul\":15780:15798   */\n      tag_604\n      tag_481\n      jump\t// in\n    tag_604:\n      pop\n        /* \"#utility.yul\":15814:15823   */\n      div\n      swap1\n        /* \"#utility.yul\":15709:15829   */\n      jump\t// out\n        /* \"#utility.yul\":15834:15962   */\n    tag_366:\n        /* \"#utility.yul\":15901:15910   */\n      dup2\n      dup2\n      sub\n        /* \"#utility.yul\":15922:15933   */\n      dup2\n      dup2\n      gt\n        /* \"#utility.yul\":15919:15956   */\n      iszero\n      tag_160\n      jumpi\n        /* \"#utility.yul\":15936:15954   */\n      tag_160\n      tag_477\n      jump\t// in\n        /* \"#utility.yul\":15967:16079   */\n    tag_368:\n        /* \"#utility.yul\":15999:16000   */\n      0x00\n        /* \"#utility.yul\":16025:16026   */\n      dup3\n        /* \"#utility.yul\":16015:16050   */\n      tag_610\n      jumpi\n        /* \"#utility.yul\":16030:16048   */\n      tag_610\n      tag_481\n      jump\t// in\n    tag_610:\n      pop\n        /* \"#utility.yul\":16064:16073   */\n      mod\n      swap1\n        /* \"#utility.yul\":15967:16079   */\n      jump\t// out\n        /* \"#utility.yul\":16084:16209   */\n    tag_370:\n        /* \"#utility.yul\":16149:16158   */\n      dup1\n      dup3\n      add\n        /* \"#utility.yul\":16170:16180   */\n      dup1\n      dup3\n      gt\n        /* \"#utility.yul\":16167:16203   */\n      iszero\n      tag_160\n      jumpi\n        /* \"#utility.yul\":16183:16201   */\n      tag_160\n      tag_477\n      jump\t// in\n        /* \"#utility.yul\":16573:17385   */\n    tag_398:\n        /* \"#utility.yul\":16984:17009   */\n      0x416363657373436f6e74726f6c3a206163636f756e7420000000000000000000\n        /* \"#utility.yul\":16979:16982   */\n      dup2\n        /* \"#utility.yul\":16972:17010   */\n      mstore\n        /* \"#utility.yul\":16954:16957   */\n      0x00\n        /* \"#utility.yul\":17039:17045   */\n      dup4\n        /* \"#utility.yul\":17033:17046   */\n      mload\n        /* \"#utility.yul\":17055:17130   */\n      tag_616\n        /* \"#utility.yul\":17123:17129   */\n      dup2\n        /* \"#utility.yul\":17118:17120   */\n      0x17\n        /* \"#utility.yul\":17113:17116   */\n      dup6\n        /* \"#utility.yul\":17109:17121   */\n      add\n        /* \"#utility.yul\":17102:17106   */\n      0x20\n        /* \"#utility.yul\":17094:17100   */\n      dup9\n        /* \"#utility.yul\":17090:17107   */\n      add\n        /* \"#utility.yul\":17055:17130   */\n      tag_474\n      jump\t// in\n    tag_616:\n        /* \"#utility.yul\":17194:17213   */\n      0x206973206d697373696e6720726f6c6520000000000000000000000000000000\n        /* \"#utility.yul\":17189:17191   */\n      0x17\n        /* \"#utility.yul\":17149:17165   */\n      swap2\n      dup5\n      add\n        /* \"#utility.yul\":17181:17192   */\n      swap2\n      dup3\n      add\n        /* \"#utility.yul\":17174:17214   */\n      mstore\n        /* \"#utility.yul\":17239:17252   */\n      dup4\n      mload\n        /* \"#utility.yul\":17261:17337   */\n      tag_617\n        /* \"#utility.yul\":17239:17252   */\n      dup2\n        /* \"#utility.yul\":17323:17325   */\n      0x28\n        /* \"#utility.yul\":17315:17326   */\n      dup5\n      add\n        /* \"#utility.yul\":17308:17312   */\n      0x20\n        /* \"#utility.yul\":17296:17313   */\n      dup9\n      add\n        /* \"#utility.yul\":17261:17337   */\n      tag_474\n      jump\t// in\n    tag_617:\n        /* \"#utility.yul\":17357:17374   */\n      add\n        /* \"#utility.yul\":17376:17378   */\n      0x28\n        /* \"#utility.yul\":17353:17379   */\n      add\n      swap5\n        /* \"#utility.yul\":16573:17385   */\n      swap4\n      pop\n      pop\n      pop\n      pop\n      jump\t// out\n        /* \"#utility.yul\":17390:17558   */\n    tag_425:\n        /* \"#utility.yul\":17463:17472   */\n      dup1\n      dup3\n      mul\n        /* \"#utility.yul\":17494:17503   */\n      dup2\n      iszero\n        /* \"#utility.yul\":17511:17526   */\n      dup3\n      dup3\n      div\n        /* \"#utility.yul\":17505:17527   */\n      dup5\n      eq\n        /* \"#utility.yul\":17491:17528   */\n      or\n        /* \"#utility.yul\":17481:17552   */\n      tag_160\n      jumpi\n        /* \"#utility.yul\":17532:17550   */\n      tag_160\n      tag_477\n      jump\t// in\n        /* \"#utility.yul\":17563:17759   */\n    tag_444:\n        /* \"#utility.yul\":17602:17605   */\n      0x00\n        /* \"#utility.yul\":17630:17635   */\n      dup2\n        /* \"#utility.yul\":17620:17659   */\n      tag_623\n      jumpi\n        /* \"#utility.yul\":17639:17657   */\n      tag_623\n      tag_477\n      jump\t// in\n    tag_623:\n      pop\n        /* \"#utility.yul\":17686:17752   */\n      0xffffffffffffffffffffffffffffffffffffffffffffffffffffffffffffffff\n        /* \"#utility.yul\":17675:17753   */\n      add\n      swap1\n        /* \"#utility.yul\":17563:17759   */\n      jump\t// out\n        /* \"#utility.yul\":18125:18309   */\n    tag_465:\n        /* \"#utility.yul\":18177:18254   */\n      0x4e487b7100000000000000000000000000000000000000000000000000000000\n        /* \"#utility.yul\":18174:18175   */\n      0x00\n        /* \"#utility.yul\":18167:18255   */\n      mstore\n        /* \"#utility.yul\":18274:18278   */\n      0x31\n        /* \"#utility.yul\":18271:18272   */\n      0x04\n        /* \"#utility.yul\":18264:18279   */\n      mstore\n        /* \"#utility.yul\":18298:18302   */\n      0x24\n        /* \"#utility.yul\":18295:18296   */\n      0x00\n        /* \"#utility.yul\":18288:18303   */\n      revert\n    stop\n    data_4c0ef6bfa0a398fe3098d6b3c8bc2c4c45d120ec13b77201d29305b0abb24397 5468652077616c6c657420686173206e6f7420617474657374656420616e7920534254\n\n    auxdata: 0xa26469706673582212209803db7c50cf1f1bd7ac059977cdf85bb3ef3f59b35c3b4491161959f80cd43864736f6c63430008110033\n}\n",
				"bytecode": {
					"linkReferences": {},
					"object": "608060405234801561001057600080fd5b506129b5806100206000396000f3fe608060405234801561001057600080fd5b50600436106101985760003560e01c80636c60144a116100e357806395d89b411161008c578063d547741f11610066578063d547741f14610390578063eb31403f146103a3578063f5b541a6146103b657600080fd5b806395d89b411461036d578063a217fddf14610375578063c87b56dd1461037d57600080fd5b806374a8f103116100bd57806374a8f10314610301578063773c02d41461031457806391d148541461032757600080fd5b80636c60144a146102c85780636d70f7ae146102db57806370a08231146102ee57600080fd5b806324d7806c1161014557806336568abe1161011f57806336568abe1461027557806344df8e70146102885780636352211e1461029057600080fd5b806324d7806c1461023c5780632f2ff15d1461024f57806330176e131461026257600080fd5b8063077f224a11610176578063077f224a146101ef57806318160ddd14610202578063248a9ca31461021857600080fd5b8063011002df1461019d57806301ffc9a7146101b257806306fdde03146101da575b600080fd5b6101b06101ab366004612050565b6103dd565b005b6101c56101c03660046120c5565b61066f565b60405190151581526020015b60405180910390f35b6101e2610717565b6040516101d1919061212b565b6101b06101fd36600461227f565b6107a5565b61020a610937565b6040519081526020016101d1565b61020a6102263660046122f3565b6000908152600160208190526040909120015490565b6101c561024a36600461230c565b610948565b6101b061025d366004612327565b610995565b6101b0610270366004612353565b6109c0565b6101b0610283366004612327565b610ab1565b6101b0610b64565b6102a361029e3660046122f3565b610caf565b60405173ffffffffffffffffffffffffffffffffffffffff90911681526020016101d1565b6101b06102d6366004612050565b610cfc565b6101c56102e936600461230c565b610f8f565b61020a6102fc36600461230c565b610fdc565b6101b061030f36600461230c565b611006565b61020a61032236600461230c565b61128b565b6101c5610335366004612327565b600091825260016020908152604080842073ffffffffffffffffffffffffffffffffffffffff93909316845291905290205460ff1690565b6101e26112b3565b61020a600081565b6101e261038b3660046122f3565b6112c0565b6101b061039e366004612327565b61131e565b61020a6103b136600461230c565b611344565b61020a7f97667070c54ef182b0f5858b034beac1b6f3089aa2d3188bb1e8929f4fa9b92981565b3360009081527f31c1e66639f421f1853aeefe8ad6b62a3b96f3287efe23106923cd924aa025c26020526040902054819060ff166104a2576040517f08c379a000000000000000000000000000000000000000000000000000000000815260206004820152603660248201527f4f6e6c7920746865206163636f756e742077697468204f50455241544f525f5260448201527f4f4c452063616e207265766f6b6520746865205342540000000000000000000060648201526084015b60405180910390fd5b6064811115610533576040517f08c379a000000000000000000000000000000000000000000000000000000000815260206004820152602260248201527f546865206d6178206c656e677468206f6620616464726573736573206973203160448201527f30300000000000000000000000000000000000000000000000000000000000006064820152608401610499565b60005b818160ff16101561066957600084848360ff16818110610558576105586123b3565b905060200201602081019061056d919061230c565b905073ffffffffffffffffffffffffffffffffffffffff8116158061059a57506105986005826115b4565b155b156105a55750610657565b60006105b26005836115dd565b90506105bf6005836115ff565b506105cb600282611621565b50604051819073ffffffffffffffffffffffffffffffffffffffff8416907fec9ab91322523c899ede7830ec9bfc992b5981cdcc27b91162fb23de5791117b90600090a3604051819060009073ffffffffffffffffffffffffffffffffffffffff8516907fddf252ad1be2c89b69c2b068fc378daa952ba7f163c4a11628f55a4df523b3ef908390a450505b8061066181612411565b915050610536565b50505050565b60007fffffffff0000000000000000000000000000000000000000000000000000000082167f80ac58cd00000000000000000000000000000000000000000000000000000000148061070257507fffffffff0000000000000000000000000000000000000000000000000000000082167f5b5e139f00000000000000000000000000000000000000000000000000000000145b8061071157506107118261162d565b92915050565b6009805461072490612430565b80601f016020809104026020016040519081016040528092919081815260200182805461075090612430565b801561079d5780601f106107725761010080835404028352916020019161079d565b820191906000526020600020905b81548152906001019060200180831161078057829003601f168201915b505050505081565b600054600190610100900460ff161580156107c7575060005460ff8083169116105b610853576040517f08c379a000000000000000000000000000000000000000000000000000000000815260206004820152602e60248201527f496e697469616c697a61626c653a20636f6e747261637420697320616c72656160448201527f647920696e697469616c697a65640000000000000000000000000000000000006064820152608401610499565b600080547fffffffffffffffffffffffffffffffffffffffffffffffffffffffffffff00001660ff831617610100179055600961089085826124d1565b50600a61089d84826124d1565b506108a96000836116c4565b6108d37f97667070c54ef182b0f5858b034beac1b6f3089aa2d3188bb1e8929f4fa9b929836116c4565b600080547fffffffffffffffffffffffffffffffffffffffffffffffffffffffffffff00ff16905560405160ff821681527f7f26b83ff96e1f2b6a682f133852f6798a09c465da95921460cefb38474024989060200160405180910390a150505050565b60006109436005611783565b905090565b73ffffffffffffffffffffffffffffffffffffffff811660009081527fa6eef7e35abe7026729641147f7915573c7e97b47efa546f5f6e3230263bcb49602052604081205460ff16610711565b600082815260016020819052604090912001546109b18161178e565b6109bb83836116c4565b505050565b3360009081527fa6eef7e35abe7026729641147f7915573c7e97b47efa546f5f6e3230263bcb49602052604090205460ff16610aa4576040517f08c379a000000000000000000000000000000000000000000000000000000000815260206004820152604360248201527f4f6e6c7920746865206163636f756e7420776974682044454641554c545f414460448201527f4d494e5f524f4c452063616e2073657420746865206261736520746f6b656e2060648201527f5552490000000000000000000000000000000000000000000000000000000000608482015260a401610499565b600b6109bb8284836125eb565b73ffffffffffffffffffffffffffffffffffffffff81163314610b56576040517f08c379a000000000000000000000000000000000000000000000000000000000815260206004820152602f60248201527f416363657373436f6e74726f6c3a2063616e206f6e6c792072656e6f756e636560448201527f20726f6c657320666f722073656c6600000000000000000000000000000000006064820152608401610499565b610b60828261179b565b5050565b33610b706005826115b4565b610bfc576040517f08c379a000000000000000000000000000000000000000000000000000000000815260206004820152602160248201527f546865206163636f756e7420646f6573206e6f74206861766520616e7920534260448201527f54000000000000000000000000000000000000000000000000000000000000006064820152608401610499565b6000610c096005836115dd565b9050610c166005836115ff565b50610c22600282611621565b50604051819073ffffffffffffffffffffffffffffffffffffffff8416907fcc16f5dbb4873280815c1ee09dbd06736cffcc184412cf7a71a0fdb75d397ca590600090a3604051819060009073ffffffffffffffffffffffffffffffffffffffff8516907fddf252ad1be2c89b69c2b068fc378daa952ba7f163c4a11628f55a4df523b3ef908390a45050565b6000610711826040518060400160405280600f81526020017f496e76616c696420746f6b656e4964000000000000000000000000000000000081525060026118569092919063ffffffff16565b3360009081527f31c1e66639f421f1853aeefe8ad6b62a3b96f3287efe23106923cd924aa025c26020526040902054819060ff16610dbc576040517f08c379a000000000000000000000000000000000000000000000000000000000815260206004820152603660248201527f4f6e6c7920746865206163636f756e742077697468204f50455241544f525f5260448201527f4f4c452063616e206174746573742074686520534254000000000000000000006064820152608401610499565b6064811115610e4d576040517f08c379a000000000000000000000000000000000000000000000000000000000815260206004820152602260248201527f546865206d6178206c656e677468206f6620616464726573736573206973203160448201527f30300000000000000000000000000000000000000000000000000000000000006064820152608401610499565b60005b818160ff16101561066957600084848360ff16818110610e7257610e726123b3565b9050602002016020810190610e87919061230c565b905073ffffffffffffffffffffffffffffffffffffffff81161580610eb25750610eb26005826115b4565b15610ebd5750610f7d565b610ecb600880546001019055565b6000610ed660085490565b9050610ee46005838361186b565b50610ef16002828461188e565b50604051819073ffffffffffffffffffffffffffffffffffffffff8416907fe9274a84b19e9428826de6bae8c48329354f8f0e73f771b97cae2d9dccd45a2790600090a3604051819073ffffffffffffffffffffffffffffffffffffffff8416906000907fddf252ad1be2c89b69c2b068fc378daa952ba7f163c4a11628f55a4df523b3ef908290a450505b80610f8781612411565b915050610e50565b73ffffffffffffffffffffffffffffffffffffffff811660009081527f31c1e66639f421f1853aeefe8ad6b62a3b96f3287efe23106923cd924aa025c2602052604081205460ff16610711565b600080610fea6005846118b1565b50905080610ff9576000610ffc565b60015b60ff169392505050565b3360009081527f31c1e66639f421f1853aeefe8ad6b62a3b96f3287efe23106923cd924aa025c2602052604090205460ff166110c4576040517f08c379a000000000000000000000000000000000000000000000000000000000815260206004820152603660248201527f4f6e6c7920746865206163636f756e742077697468204f50455241544f525f5260448201527f4f4c452063616e207265766f6b652074686520534254000000000000000000006064820152608401610499565b73ffffffffffffffffffffffffffffffffffffffff8116611141576040517f08c379a000000000000000000000000000000000000000000000000000000000815260206004820152601060248201527f4164647265737320697320656d707479000000000000000000000000000000006044820152606401610499565b61114c6005826115b4565b6111d8576040517f08c379a000000000000000000000000000000000000000000000000000000000815260206004820152602160248201527f546865206163636f756e7420646f6573206e6f74206861766520616e7920534260448201527f54000000000000000000000000000000000000000000000000000000000000006064820152608401610499565b60006111e56005836115dd565b90506111f26005836115ff565b506111fe600282611621565b50604051819073ffffffffffffffffffffffffffffffffffffffff8416907fec9ab91322523c899ede7830ec9bfc992b5981cdcc27b91162fb23de5791117b90600090a3604051819060009073ffffffffffffffffffffffffffffffffffffffff8516907fddf252ad1be2c89b69c2b068fc378daa952ba7f163c4a11628f55a4df523b3ef908390a45050565b60006107118260405180606001604052806023815260200161295d60239139600591906118e5565b600a805461072490612430565b60606000600b80546112d190612430565b9050116112ed5760405180602001604052806000815250610711565b600b6112f883611908565b604051602001611309929190612706565b60405160208183030381529060405292915050565b6000828152600160208190526040909120015461133a8161178e565b6109bb838361179b565b3360009081527f31c1e66639f421f1853aeefe8ad6b62a3b96f3287efe23106923cd924aa025c2602052604081205460ff16611402576040517f08c379a000000000000000000000000000000000000000000000000000000000815260206004820152603660248201527f4f6e6c7920746865206163636f756e742077697468204f50455241544f525f5260448201527f4f4c452063616e206174746573742074686520534254000000000000000000006064820152608401610499565b73ffffffffffffffffffffffffffffffffffffffff821661147f576040517f08c379a000000000000000000000000000000000000000000000000000000000815260206004820152601060248201527f4164647265737320697320656d707479000000000000000000000000000000006044820152606401610499565b61148a6005836115b4565b156114f1576040517f08c379a000000000000000000000000000000000000000000000000000000000815260206004820152601260248201527f53425420616c72656164792065786973747300000000000000000000000000006044820152606401610499565b6114ff600880546001019055565b600061150a60085490565b90506115186005848361186b565b506115256002828561188e565b50604051819073ffffffffffffffffffffffffffffffffffffffff8516907fe9274a84b19e9428826de6bae8c48329354f8f0e73f771b97cae2d9dccd45a2790600090a3604051819073ffffffffffffffffffffffffffffffffffffffff8516906000907fddf252ad1be2c89b69c2b068fc378daa952ba7f163c4a11628f55a4df523b3ef908290a492915050565b60006115d68373ffffffffffffffffffffffffffffffffffffffff8416611a3d565b9392505050565b60006115d68373ffffffffffffffffffffffffffffffffffffffff8416611a49565b60006115d68373ffffffffffffffffffffffffffffffffffffffff8416611ad3565b60006115d68383611ad3565b60007fffffffff0000000000000000000000000000000000000000000000000000000082167f7965db0b00000000000000000000000000000000000000000000000000000000148061071157507f01ffc9a7000000000000000000000000000000000000000000000000000000007fffffffff00000000000000000000000000000000000000000000000000000000831614610711565b600082815260016020908152604080832073ffffffffffffffffffffffffffffffffffffffff8516845290915290205460ff16610b6057600082815260016020818152604080842073ffffffffffffffffffffffffffffffffffffffff8616808652925280842080547fffffffffffffffffffffffffffffffffffffffffffffffffffffffffffffff00169093179092559051339285917f2f8788117e7eff1d82e926ec794901d17c78024a50270940304540a733656f0d9190a45050565b600061071182611af0565b6117988133611afb565b50565b600082815260016020908152604080832073ffffffffffffffffffffffffffffffffffffffff8516845290915290205460ff1615610b6057600082815260016020908152604080832073ffffffffffffffffffffffffffffffffffffffff8516808552925280832080547fffffffffffffffffffffffffffffffffffffffffffffffffffffffffffffff0016905551339285917ff6391f5c32d9c69d2a47ea670b442974b53935d1edc7fd64eb21e047a839171b9190a45050565b6000611863848484611bb5565b949350505050565b60006118638473ffffffffffffffffffffffffffffffffffffffff851684611c1b565b6000611863848473ffffffffffffffffffffffffffffffffffffffff8516611c1b565b60008080806118d68673ffffffffffffffffffffffffffffffffffffffff8716611c38565b909450925050505b9250929050565b60006118638473ffffffffffffffffffffffffffffffffffffffff851684611bb5565b60608160000361194b57505060408051808201909152600181527f3000000000000000000000000000000000000000000000000000000000000000602082015290565b8160005b8115611975578061195f816127ab565b915061196e9050600a83612812565b915061194f565b60008167ffffffffffffffff8111156119905761199061217c565b6040519080825280601f01601f1916602001820160405280156119ba576020820181803683370190505b5090505b8415611863576119cf600183612826565b91506119dc600a86612839565b6119e790603061284d565b60f81b8183815181106119fc576119fc6123b3565b60200101907effffffffffffffffffffffffffffffffffffffffffffffffffffffffffffff1916908160001a905350611a36600a86612812565b94506119be565b60006115d68383611c72565b600081815260028301602052604081205480151580611a6d5750611a6d8484611a3d565b6115d6576040517f08c379a000000000000000000000000000000000000000000000000000000000815260206004820152601e60248201527f456e756d657261626c654d61703a206e6f6e6578697374656e74206b657900006044820152606401610499565b600081815260028301602052604081208190556115d68383611c8a565b600061071182611c96565b600082815260016020908152604080832073ffffffffffffffffffffffffffffffffffffffff8516845290915290205460ff16610b6057611b3b81611ca0565b611b46836020611cbf565b604051602001611b57929190612860565b604080517fffffffffffffffffffffffffffffffffffffffffffffffffffffffffffffffe0818403018152908290527f08c379a00000000000000000000000000000000000000000000000000000000082526104999160040161212b565b600082815260028401602052604081205480151580611bd95750611bd98585611a3d565b8390611c12576040517f08c379a0000000000000000000000000000000000000000000000000000000008152600401610499919061212b565b50949350505050565b600082815260028401602052604081208290556118638484611f02565b6000818152600283016020526040812054819080611c6757611c5a8585611a3d565b9250600091506118de9050565b6001925090506118de565b600081815260018301602052604081205415156115d6565b60006115d68383611f0e565b6000610711825490565b606061071173ffffffffffffffffffffffffffffffffffffffff831660145b60606000611cce8360026128e1565b611cd990600261284d565b67ffffffffffffffff811115611cf157611cf161217c565b6040519080825280601f01601f191660200182016040528015611d1b576020820181803683370190505b5090507f300000000000000000000000000000000000000000000000000000000000000081600081518110611d5257611d526123b3565b60200101907effffffffffffffffffffffffffffffffffffffffffffffffffffffffffffff1916908160001a9053507f780000000000000000000000000000000000000000000000000000000000000081600181518110611db557611db56123b3565b60200101907effffffffffffffffffffffffffffffffffffffffffffffffffffffffffffff1916908160001a9053506000611df18460026128e1565b611dfc90600161284d565b90505b6001811115611e99577f303132333435363738396162636465660000000000000000000000000000000085600f1660108110611e3d57611e3d6123b3565b1a60f81b828281518110611e5357611e536123b3565b60200101907effffffffffffffffffffffffffffffffffffffffffffffffffffffffffffff1916908160001a90535060049490941c93611e92816128f8565b9050611dff565b5083156115d6576040517f08c379a000000000000000000000000000000000000000000000000000000000815260206004820181905260248201527f537472696e67733a20686578206c656e67746820696e73756666696369656e746044820152606401610499565b60006115d68383612001565b60008181526001830160205260408120548015611ff7576000611f32600183612826565b8554909150600090611f4690600190612826565b9050818114611fab576000866000018281548110611f6657611f666123b3565b9060005260206000200154905080876000018481548110611f8957611f896123b3565b6000918252602080832090910192909255918252600188019052604090208390555b8554869080611fbc57611fbc61292d565b600190038181906000526020600020016000905590558560010160008681526020019081526020016000206000905560019350505050610711565b6000915050610711565b600081815260018301602052604081205461204857508154600181810184556000848152602080822090930184905584548482528286019093526040902091909155610711565b506000610711565b6000806020838503121561206357600080fd5b823567ffffffffffffffff8082111561207b57600080fd5b818501915085601f83011261208f57600080fd5b81358181111561209e57600080fd5b8660208260051b85010111156120b357600080fd5b60209290920196919550909350505050565b6000602082840312156120d757600080fd5b81357fffffffff00000000000000000000000000000000000000000000000000000000811681146115d657600080fd5b60005b8381101561212257818101518382015260200161210a565b50506000910152565b602081526000825180602084015261214a816040850160208701612107565b601f017fffffffffffffffffffffffffffffffffffffffffffffffffffffffffffffffe0169190910160400192915050565b7f4e487b7100000000000000000000000000000000000000000000000000000000600052604160045260246000fd5b600082601f8301126121bc57600080fd5b813567ffffffffffffffff808211156121d7576121d761217c565b604051601f83017fffffffffffffffffffffffffffffffffffffffffffffffffffffffffffffffe0908116603f0116810190828211818310171561221d5761221d61217c565b8160405283815286602085880101111561223657600080fd5b836020870160208301376000602085830101528094505050505092915050565b803573ffffffffffffffffffffffffffffffffffffffff8116811461227a57600080fd5b919050565b60008060006060848603121561229457600080fd5b833567ffffffffffffffff808211156122ac57600080fd5b6122b8878388016121ab565b945060208601359150808211156122ce57600080fd5b506122db868287016121ab565b9250506122ea60408501612256565b90509250925092565b60006020828403121561230557600080fd5b5035919050565b60006020828403121561231e57600080fd5b6115d682612256565b6000806040838503121561233a57600080fd5b8235915061234a60208401612256565b90509250929050565b6000806020838503121561236657600080fd5b823567ffffffffffffffff8082111561237e57600080fd5b818501915085601f83011261239257600080fd5b8135818111156123a157600080fd5b8660208285010111156120b357600080fd5b7f4e487b7100000000000000000000000000000000000000000000000000000000600052603260045260246000fd5b7f4e487b7100000000000000000000000000000000000000000000000000000000600052601160045260246000fd5b600060ff821660ff8103612427576124276123e2565b60010192915050565b600181811c9082168061244457607f821691505b60208210810361247d577f4e487b7100000000000000000000000000000000000000000000000000000000600052602260045260246000fd5b50919050565b601f8211156109bb57600081815260208120601f850160051c810160208610156124aa5750805b601f850160051c820191505b818110156124c9578281556001016124b6565b505050505050565b815167ffffffffffffffff8111156124eb576124eb61217c565b6124ff816124f98454612430565b84612483565b602080601f831160018114612552576000841561251c5750858301515b7fffffffffffffffffffffffffffffffffffffffffffffffffffffffffffffffff600386901b1c1916600185901b1785556124c9565b6000858152602081207fffffffffffffffffffffffffffffffffffffffffffffffffffffffffffffffe08616915b8281101561259f57888601518255948401946001909101908401612580565b50858210156125db57878501517fffffffffffffffffffffffffffffffffffffffffffffffffffffffffffffffff600388901b60f8161c191681555b5050505050600190811b01905550565b67ffffffffffffffff8311156126035761260361217c565b612617836126118354612430565b83612483565b6000601f84116001811461266957600085156126335750838201355b7fffffffffffffffffffffffffffffffffffffffffffffffffffffffffffffffff600387901b1c1916600186901b1783556126ff565b6000838152602090207fffffffffffffffffffffffffffffffffffffffffffffffffffffffffffffffe0861690835b828110156126b85786850135825560209485019460019092019101612698565b50868210156126f3577fffffffffffffffffffffffffffffffffffffffffffffffffffffffffffffffff60f88860031b161c19848701351681555b505060018560011b0183555b5050505050565b600080845461271481612430565b6001828116801561272c576001811461275f5761278e565b7fffffffffffffffffffffffffffffffffffffffffffffffffffffffffffffff008416875282151583028701945061278e565b8860005260208060002060005b858110156127855781548a82015290840190820161276c565b50505082870194505b5050505083516127a2818360208801612107565b01949350505050565b60007fffffffffffffffffffffffffffffffffffffffffffffffffffffffffffffffff82036127dc576127dc6123e2565b5060010190565b7f4e487b7100000000000000000000000000000000000000000000000000000000600052601260045260246000fd5b600082612821576128216127e3565b500490565b81810381811115610711576107116123e2565b600082612848576128486127e3565b500690565b80820180821115610711576107116123e2565b7f416363657373436f6e74726f6c3a206163636f756e7420000000000000000000815260008351612898816017850160208801612107565b7f206973206d697373696e6720726f6c652000000000000000000000000000000060179184019182015283516128d5816028840160208801612107565b01602801949350505050565b8082028115828204841417610711576107116123e2565b600081612907576129076123e2565b507fffffffffffffffffffffffffffffffffffffffffffffffffffffffffffffffff0190565b7f4e487b7100000000000000000000000000000000000000000000000000000000600052603160045260246000fdfe5468652077616c6c657420686173206e6f7420617474657374656420616e7920534254a26469706673582212209803db7c50cf1f1bd7ac059977cdf85bb3ef3f59b35c3b4491161959f80cd43864736f6c63430008110033",
					"opcodes": "PUSH1 0x80 PUSH1 0x40 MSTORE CALLVALUE DUP1 ISZERO PUSH2 0x10 JUMPI PUSH1 0x0 DUP1 REVERT JUMPDEST POP PUSH2 0x29B5 DUP1 PUSH2 0x20 PUSH1 0x0 CODECOPY PUSH1 0x0 RETURN INVALID PUSH1 0x80 PUSH1 0x40 MSTORE CALLVALUE DUP1 ISZERO PUSH2 0x10 JUMPI PUSH1 0x0 DUP1 REVERT JUMPDEST POP PUSH1 0x4 CALLDATASIZE LT PUSH2 0x198 JUMPI PUSH1 0x0 CALLDATALOAD PUSH1 0xE0 SHR DUP1 PUSH4 0x6C60144A GT PUSH2 0xE3 JUMPI DUP1 PUSH4 0x95D89B41 GT PUSH2 0x8C JUMPI DUP1 PUSH4 0xD547741F GT PUSH2 0x66 JUMPI DUP1 PUSH4 0xD547741F EQ PUSH2 0x390 JUMPI DUP1 PUSH4 0xEB31403F EQ PUSH2 0x3A3 JUMPI DUP1 PUSH4 0xF5B541A6 EQ PUSH2 0x3B6 JUMPI PUSH1 0x0 DUP1 REVERT JUMPDEST DUP1 PUSH4 0x95D89B41 EQ PUSH2 0x36D JUMPI DUP1 PUSH4 0xA217FDDF EQ PUSH2 0x375 JUMPI DUP1 PUSH4 0xC87B56DD EQ PUSH2 0x37D JUMPI PUSH1 0x0 DUP1 REVERT JUMPDEST DUP1 PUSH4 0x74A8F103 GT PUSH2 0xBD JUMPI DUP1 PUSH4 0x74A8F103 EQ PUSH2 0x301 JUMPI DUP1 PUSH4 0x773C02D4 EQ PUSH2 0x314 JUMPI DUP1 PUSH4 0x91D14854 EQ PUSH2 0x327 JUMPI PUSH1 0x0 DUP1 REVERT JUMPDEST DUP1 PUSH4 0x6C60144A EQ PUSH2 0x2C8 JUMPI DUP1 PUSH4 0x6D70F7AE EQ PUSH2 0x2DB JUMPI DUP1 PUSH4 0x70A08231 EQ PUSH2 0x2EE JUMPI PUSH1 0x0 DUP1 REVERT JUMPDEST DUP1 PUSH4 0x24D7806C GT PUSH2 0x145 JUMPI DUP1 PUSH4 0x36568ABE GT PUSH2 0x11F JUMPI DUP1 PUSH4 0x36568ABE EQ PUSH2 0x275 JUMPI DUP1 PUSH4 0x44DF8E70 EQ PUSH2 0x288 JUMPI DUP1 PUSH4 0x6352211E EQ PUSH2 0x290 JUMPI PUSH1 0x0 DUP1 REVERT JUMPDEST DUP1 PUSH4 0x24D7806C EQ PUSH2 0x23C JUMPI DUP1 PUSH4 0x2F2FF15D EQ PUSH2 0x24F JUMPI DUP1 PUSH4 0x30176E13 EQ PUSH2 0x262 JUMPI PUSH1 0x0 DUP1 REVERT JUMPDEST DUP1 PUSH4 0x77F224A GT PUSH2 0x176 JUMPI DUP1 PUSH4 0x77F224A EQ PUSH2 0x1EF JUMPI DUP1 PUSH4 0x18160DDD EQ PUSH2 0x202 JUMPI DUP1 PUSH4 0x248A9CA3 EQ PUSH2 0x218 JUMPI PUSH1 0x0 DUP1 REVERT JUMPDEST DUP1 PUSH4 0x11002DF EQ PUSH2 0x19D JUMPI DUP1 PUSH4 0x1FFC9A7 EQ PUSH2 0x1B2 JUMPI DUP1 PUSH4 0x6FDDE03 EQ PUSH2 0x1DA JUMPI JUMPDEST PUSH1 0x0 DUP1 REVERT JUMPDEST PUSH2 0x1B0 PUSH2 0x1AB CALLDATASIZE PUSH1 0x4 PUSH2 0x2050 JUMP JUMPDEST PUSH2 0x3DD JUMP JUMPDEST STOP JUMPDEST PUSH2 0x1C5 PUSH2 0x1C0 CALLDATASIZE PUSH1 0x4 PUSH2 0x20C5 JUMP JUMPDEST PUSH2 0x66F JUMP JUMPDEST PUSH1 0x40 MLOAD SWAP1 ISZERO ISZERO DUP2 MSTORE PUSH1 0x20 ADD JUMPDEST PUSH1 0x40 MLOAD DUP1 SWAP2 SUB SWAP1 RETURN JUMPDEST PUSH2 0x1E2 PUSH2 0x717 JUMP JUMPDEST PUSH1 0x40 MLOAD PUSH2 0x1D1 SWAP2 SWAP1 PUSH2 0x212B JUMP JUMPDEST PUSH2 0x1B0 PUSH2 0x1FD CALLDATASIZE PUSH1 0x4 PUSH2 0x227F JUMP JUMPDEST PUSH2 0x7A5 JUMP JUMPDEST PUSH2 0x20A PUSH2 0x937 JUMP JUMPDEST PUSH1 0x40 MLOAD SWAP1 DUP2 MSTORE PUSH1 0x20 ADD PUSH2 0x1D1 JUMP JUMPDEST PUSH2 0x20A PUSH2 0x226 CALLDATASIZE PUSH1 0x4 PUSH2 0x22F3 JUMP JUMPDEST PUSH1 0x0 SWAP1 DUP2 MSTORE PUSH1 0x1 PUSH1 0x20 DUP2 SWAP1 MSTORE PUSH1 0x40 SWAP1 SWAP2 KECCAK256 ADD SLOAD SWAP1 JUMP JUMPDEST PUSH2 0x1C5 PUSH2 0x24A CALLDATASIZE PUSH1 0x4 PUSH2 0x230C JUMP JUMPDEST PUSH2 0x948 JUMP JUMPDEST PUSH2 0x1B0 PUSH2 0x25D CALLDATASIZE PUSH1 0x4 PUSH2 0x2327 JUMP JUMPDEST PUSH2 0x995 JUMP JUMPDEST PUSH2 0x1B0 PUSH2 0x270 CALLDATASIZE PUSH1 0x4 PUSH2 0x2353 JUMP JUMPDEST PUSH2 0x9C0 JUMP JUMPDEST PUSH2 0x1B0 PUSH2 0x283 CALLDATASIZE PUSH1 0x4 PUSH2 0x2327 JUMP JUMPDEST PUSH2 0xAB1 JUMP JUMPDEST PUSH2 0x1B0 PUSH2 0xB64 JUMP JUMPDEST PUSH2 0x2A3 PUSH2 0x29E CALLDATASIZE PUSH1 0x4 PUSH2 0x22F3 JUMP JUMPDEST PUSH2 0xCAF JUMP JUMPDEST PUSH1 0x40 MLOAD PUSH20 0xFFFFFFFFFFFFFFFFFFFFFFFFFFFFFFFFFFFFFFFF SWAP1 SWAP2 AND DUP2 MSTORE PUSH1 0x20 ADD PUSH2 0x1D1 JUMP JUMPDEST PUSH2 0x1B0 PUSH2 0x2D6 CALLDATASIZE PUSH1 0x4 PUSH2 0x2050 JUMP JUMPDEST PUSH2 0xCFC JUMP JUMPDEST PUSH2 0x1C5 PUSH2 0x2E9 CALLDATASIZE PUSH1 0x4 PUSH2 0x230C JUMP JUMPDEST PUSH2 0xF8F JUMP JUMPDEST PUSH2 0x20A PUSH2 0x2FC CALLDATASIZE PUSH1 0x4 PUSH2 0x230C JUMP JUMPDEST PUSH2 0xFDC JUMP JUMPDEST PUSH2 0x1B0 PUSH2 0x30F CALLDATASIZE PUSH1 0x4 PUSH2 0x230C JUMP JUMPDEST PUSH2 0x1006 JUMP JUMPDEST PUSH2 0x20A PUSH2 0x322 CALLDATASIZE PUSH1 0x4 PUSH2 0x230C JUMP JUMPDEST PUSH2 0x128B JUMP JUMPDEST PUSH2 0x1C5 PUSH2 0x335 CALLDATASIZE PUSH1 0x4 PUSH2 0x2327 JUMP JUMPDEST PUSH1 0x0 SWAP2 DUP3 MSTORE PUSH1 0x1 PUSH1 0x20 SWAP1 DUP2 MSTORE PUSH1 0x40 DUP1 DUP5 KECCAK256 PUSH20 0xFFFFFFFFFFFFFFFFFFFFFFFFFFFFFFFFFFFFFFFF SWAP4 SWAP1 SWAP4 AND DUP5 MSTORE SWAP2 SWAP1 MSTORE SWAP1 KECCAK256 SLOAD PUSH1 0xFF AND SWAP1 JUMP JUMPDEST PUSH2 0x1E2 PUSH2 0x12B3 JUMP JUMPDEST PUSH2 0x20A PUSH1 0x0 DUP2 JUMP JUMPDEST PUSH2 0x1E2 PUSH2 0x38B CALLDATASIZE PUSH1 0x4 PUSH2 0x22F3 JUMP JUMPDEST PUSH2 0x12C0 JUMP JUMPDEST PUSH2 0x1B0 PUSH2 0x39E CALLDATASIZE PUSH1 0x4 PUSH2 0x2327 JUMP JUMPDEST PUSH2 0x131E JUMP JUMPDEST PUSH2 0x20A PUSH2 0x3B1 CALLDATASIZE PUSH1 0x4 PUSH2 0x230C JUMP JUMPDEST PUSH2 0x1344 JUMP JUMPDEST PUSH2 0x20A PUSH32 0x97667070C54EF182B0F5858B034BEAC1B6F3089AA2D3188BB1E8929F4FA9B929 DUP2 JUMP JUMPDEST CALLER PUSH1 0x0 SWAP1 DUP2 MSTORE PUSH32 0x31C1E66639F421F1853AEEFE8AD6B62A3B96F3287EFE23106923CD924AA025C2 PUSH1 0x20 MSTORE PUSH1 0x40 SWAP1 KECCAK256 SLOAD DUP2 SWAP1 PUSH1 0xFF AND PUSH2 0x4A2 JUMPI PUSH1 0x40 MLOAD PUSH32 0x8C379A000000000000000000000000000000000000000000000000000000000 DUP2 MSTORE PUSH1 0x20 PUSH1 0x4 DUP3 ADD MSTORE PUSH1 0x36 PUSH1 0x24 DUP3 ADD MSTORE PUSH32 0x4F6E6C7920746865206163636F756E742077697468204F50455241544F525F52 PUSH1 0x44 DUP3 ADD MSTORE PUSH32 0x4F4C452063616E207265766F6B65207468652053425400000000000000000000 PUSH1 0x64 DUP3 ADD MSTORE PUSH1 0x84 ADD JUMPDEST PUSH1 0x40 MLOAD DUP1 SWAP2 SUB SWAP1 REVERT JUMPDEST PUSH1 0x64 DUP2 GT ISZERO PUSH2 0x533 JUMPI PUSH1 0x40 MLOAD PUSH32 0x8C379A000000000000000000000000000000000000000000000000000000000 DUP2 MSTORE PUSH1 0x20 PUSH1 0x4 DUP3 ADD MSTORE PUSH1 0x22 PUSH1 0x24 DUP3 ADD MSTORE PUSH32 0x546865206D6178206C656E677468206F66206164647265737365732069732031 PUSH1 0x44 DUP3 ADD MSTORE PUSH32 0x3030000000000000000000000000000000000000000000000000000000000000 PUSH1 0x64 DUP3 ADD MSTORE PUSH1 0x84 ADD PUSH2 0x499 JUMP JUMPDEST PUSH1 0x0 JUMPDEST DUP2 DUP2 PUSH1 0xFF AND LT ISZERO PUSH2 0x669 JUMPI PUSH1 0x0 DUP5 DUP5 DUP4 PUSH1 0xFF AND DUP2 DUP2 LT PUSH2 0x558 JUMPI PUSH2 0x558 PUSH2 0x23B3 JUMP JUMPDEST SWAP1 POP PUSH1 0x20 MUL ADD PUSH1 0x20 DUP2 ADD SWAP1 PUSH2 0x56D SWAP2 SWAP1 PUSH2 0x230C JUMP JUMPDEST SWAP1 POP PUSH20 0xFFFFFFFFFFFFFFFFFFFFFFFFFFFFFFFFFFFFFFFF DUP2 AND ISZERO DUP1 PUSH2 0x59A JUMPI POP PUSH2 0x598 PUSH1 0x5 DUP3 PUSH2 0x15B4 JUMP JUMPDEST ISZERO JUMPDEST ISZERO PUSH2 0x5A5 JUMPI POP PUSH2 0x657 JUMP JUMPDEST PUSH1 0x0 PUSH2 0x5B2 PUSH1 0x5 DUP4 PUSH2 0x15DD JUMP JUMPDEST SWAP1 POP PUSH2 0x5BF PUSH1 0x5 DUP4 PUSH2 0x15FF JUMP JUMPDEST POP PUSH2 0x5CB PUSH1 0x2 DUP3 PUSH2 0x1621 JUMP JUMPDEST POP PUSH1 0x40 MLOAD DUP2 SWAP1 PUSH20 0xFFFFFFFFFFFFFFFFFFFFFFFFFFFFFFFFFFFFFFFF DUP5 AND SWAP1 PUSH32 0xEC9AB91322523C899EDE7830EC9BFC992B5981CDCC27B91162FB23DE5791117B SWAP1 PUSH1 0x0 SWAP1 LOG3 PUSH1 0x40 MLOAD DUP2 SWAP1 PUSH1 0x0 SWAP1 PUSH20 0xFFFFFFFFFFFFFFFFFFFFFFFFFFFFFFFFFFFFFFFF DUP6 AND SWAP1 PUSH32 0xDDF252AD1BE2C89B69C2B068FC378DAA952BA7F163C4A11628F55A4DF523B3EF SWAP1 DUP4 SWAP1 LOG4 POP POP JUMPDEST DUP1 PUSH2 0x661 DUP2 PUSH2 0x2411 JUMP JUMPDEST SWAP2 POP POP PUSH2 0x536 JUMP JUMPDEST POP POP POP POP JUMP JUMPDEST PUSH1 0x0 PUSH32 0xFFFFFFFF00000000000000000000000000000000000000000000000000000000 DUP3 AND PUSH32 0x80AC58CD00000000000000000000000000000000000000000000000000000000 EQ DUP1 PUSH2 0x702 JUMPI POP PUSH32 0xFFFFFFFF00000000000000000000000000000000000000000000000000000000 DUP3 AND PUSH32 0x5B5E139F00000000000000000000000000000000000000000000000000000000 EQ JUMPDEST DUP1 PUSH2 0x711 JUMPI POP PUSH2 0x711 DUP3 PUSH2 0x162D JUMP JUMPDEST SWAP3 SWAP2 POP POP JUMP JUMPDEST PUSH1 0x9 DUP1 SLOAD PUSH2 0x724 SWAP1 PUSH2 0x2430 JUMP JUMPDEST DUP1 PUSH1 0x1F ADD PUSH1 0x20 DUP1 SWAP2 DIV MUL PUSH1 0x20 ADD PUSH1 0x40 MLOAD SWAP1 DUP2 ADD PUSH1 0x40 MSTORE DUP1 SWAP3 SWAP2 SWAP1 DUP2 DUP2 MSTORE PUSH1 0x20 ADD DUP3 DUP1 SLOAD PUSH2 0x750 SWAP1 PUSH2 0x2430 JUMP JUMPDEST DUP1 ISZERO PUSH2 0x79D JUMPI DUP1 PUSH1 0x1F LT PUSH2 0x772 JUMPI PUSH2 0x100 DUP1 DUP4 SLOAD DIV MUL DUP4 MSTORE SWAP2 PUSH1 0x20 ADD SWAP2 PUSH2 0x79D JUMP JUMPDEST DUP3 ADD SWAP2 SWAP1 PUSH1 0x0 MSTORE PUSH1 0x20 PUSH1 0x0 KECCAK256 SWAP1 JUMPDEST DUP2 SLOAD DUP2 MSTORE SWAP1 PUSH1 0x1 ADD SWAP1 PUSH1 0x20 ADD DUP1 DUP4 GT PUSH2 0x780 JUMPI DUP3 SWAP1 SUB PUSH1 0x1F AND DUP3 ADD SWAP2 JUMPDEST POP POP POP POP POP DUP2 JUMP JUMPDEST PUSH1 0x0 SLOAD PUSH1 0x1 SWAP1 PUSH2 0x100 SWAP1 DIV PUSH1 0xFF AND ISZERO DUP1 ISZERO PUSH2 0x7C7 JUMPI POP PUSH1 0x0 SLOAD PUSH1 0xFF DUP1 DUP4 AND SWAP2 AND LT JUMPDEST PUSH2 0x853 JUMPI PUSH1 0x40 MLOAD PUSH32 0x8C379A000000000000000000000000000000000000000000000000000000000 DUP2 MSTORE PUSH1 0x20 PUSH1 0x4 DUP3 ADD MSTORE PUSH1 0x2E PUSH1 0x24 DUP3 ADD MSTORE PUSH32 0x496E697469616C697A61626C653A20636F6E747261637420697320616C726561 PUSH1 0x44 DUP3 ADD MSTORE PUSH32 0x647920696E697469616C697A6564000000000000000000000000000000000000 PUSH1 0x64 DUP3 ADD MSTORE PUSH1 0x84 ADD PUSH2 0x499 JUMP JUMPDEST PUSH1 0x0 DUP1 SLOAD PUSH32 0xFFFFFFFFFFFFFFFFFFFFFFFFFFFFFFFFFFFFFFFFFFFFFFFFFFFFFFFFFFFF0000 AND PUSH1 0xFF DUP4 AND OR PUSH2 0x100 OR SWAP1 SSTORE PUSH1 0x9 PUSH2 0x890 DUP6 DUP3 PUSH2 0x24D1 JUMP JUMPDEST POP PUSH1 0xA PUSH2 0x89D DUP5 DUP3 PUSH2 0x24D1 JUMP JUMPDEST POP PUSH2 0x8A9 PUSH1 0x0 DUP4 PUSH2 0x16C4 JUMP JUMPDEST PUSH2 0x8D3 PUSH32 0x97667070C54EF182B0F5858B034BEAC1B6F3089AA2D3188BB1E8929F4FA9B929 DUP4 PUSH2 0x16C4 JUMP JUMPDEST PUSH1 0x0 DUP1 SLOAD PUSH32 0xFFFFFFFFFFFFFFFFFFFFFFFFFFFFFFFFFFFFFFFFFFFFFFFFFFFFFFFFFFFF00FF AND SWAP1 SSTORE PUSH1 0x40 MLOAD PUSH1 0xFF DUP3 AND DUP2 MSTORE PUSH32 0x7F26B83FF96E1F2B6A682F133852F6798A09C465DA95921460CEFB3847402498 SWAP1 PUSH1 0x20 ADD PUSH1 0x40 MLOAD DUP1 SWAP2 SUB SWAP1 LOG1 POP POP POP POP JUMP JUMPDEST PUSH1 0x0 PUSH2 0x943 PUSH1 0x5 PUSH2 0x1783 JUMP JUMPDEST SWAP1 POP SWAP1 JUMP JUMPDEST PUSH20 0xFFFFFFFFFFFFFFFFFFFFFFFFFFFFFFFFFFFFFFFF DUP2 AND PUSH1 0x0 SWAP1 DUP2 MSTORE PUSH32 0xA6EEF7E35ABE7026729641147F7915573C7E97B47EFA546F5F6E3230263BCB49 PUSH1 0x20 MSTORE PUSH1 0x40 DUP2 KECCAK256 SLOAD PUSH1 0xFF AND PUSH2 0x711 JUMP JUMPDEST PUSH1 0x0 DUP3 DUP2 MSTORE PUSH1 0x1 PUSH1 0x20 DUP2 SWAP1 MSTORE PUSH1 0x40 SWAP1 SWAP2 KECCAK256 ADD SLOAD PUSH2 0x9B1 DUP2 PUSH2 0x178E JUMP JUMPDEST PUSH2 0x9BB DUP4 DUP4 PUSH2 0x16C4 JUMP JUMPDEST POP POP POP JUMP JUMPDEST CALLER PUSH1 0x0 SWAP1 DUP2 MSTORE PUSH32 0xA6EEF7E35ABE7026729641147F7915573C7E97B47EFA546F5F6E3230263BCB49 PUSH1 0x20 MSTORE PUSH1 0x40 SWAP1 KECCAK256 SLOAD PUSH1 0xFF AND PUSH2 0xAA4 JUMPI PUSH1 0x40 MLOAD PUSH32 0x8C379A000000000000000000000000000000000000000000000000000000000 DUP2 MSTORE PUSH1 0x20 PUSH1 0x4 DUP3 ADD MSTORE PUSH1 0x43 PUSH1 0x24 DUP3 ADD MSTORE PUSH32 0x4F6E6C7920746865206163636F756E7420776974682044454641554C545F4144 PUSH1 0x44 DUP3 ADD MSTORE PUSH32 0x4D494E5F524F4C452063616E2073657420746865206261736520746F6B656E20 PUSH1 0x64 DUP3 ADD MSTORE PUSH32 0x5552490000000000000000000000000000000000000000000000000000000000 PUSH1 0x84 DUP3 ADD MSTORE PUSH1 0xA4 ADD PUSH2 0x499 JUMP JUMPDEST PUSH1 0xB PUSH2 0x9BB DUP3 DUP5 DUP4 PUSH2 0x25EB JUMP JUMPDEST PUSH20 0xFFFFFFFFFFFFFFFFFFFFFFFFFFFFFFFFFFFFFFFF DUP2 AND CALLER EQ PUSH2 0xB56 JUMPI PUSH1 0x40 MLOAD PUSH32 0x8C379A000000000000000000000000000000000000000000000000000000000 DUP2 MSTORE PUSH1 0x20 PUSH1 0x4 DUP3 ADD MSTORE PUSH1 0x2F PUSH1 0x24 DUP3 ADD MSTORE PUSH32 0x416363657373436F6E74726F6C3A2063616E206F6E6C792072656E6F756E6365 PUSH1 0x44 DUP3 ADD MSTORE PUSH32 0x20726F6C657320666F722073656C660000000000000000000000000000000000 PUSH1 0x64 DUP3 ADD MSTORE PUSH1 0x84 ADD PUSH2 0x499 JUMP JUMPDEST PUSH2 0xB60 DUP3 DUP3 PUSH2 0x179B JUMP JUMPDEST POP POP JUMP JUMPDEST CALLER PUSH2 0xB70 PUSH1 0x5 DUP3 PUSH2 0x15B4 JUMP JUMPDEST PUSH2 0xBFC JUMPI PUSH1 0x40 MLOAD PUSH32 0x8C379A000000000000000000000000000000000000000000000000000000000 DUP2 MSTORE PUSH1 0x20 PUSH1 0x4 DUP3 ADD MSTORE PUSH1 0x21 PUSH1 0x24 DUP3 ADD MSTORE PUSH32 0x546865206163636F756E7420646F6573206E6F74206861766520616E79205342 PUSH1 0x44 DUP3 ADD MSTORE PUSH32 0x5400000000000000000000000000000000000000000000000000000000000000 PUSH1 0x64 DUP3 ADD MSTORE PUSH1 0x84 ADD PUSH2 0x499 JUMP JUMPDEST PUSH1 0x0 PUSH2 0xC09 PUSH1 0x5 DUP4 PUSH2 0x15DD JUMP JUMPDEST SWAP1 POP PUSH2 0xC16 PUSH1 0x5 DUP4 PUSH2 0x15FF JUMP JUMPDEST POP PUSH2 0xC22 PUSH1 0x2 DUP3 PUSH2 0x1621 JUMP JUMPDEST POP PUSH1 0x40 MLOAD DUP2 SWAP1 PUSH20 0xFFFFFFFFFFFFFFFFFFFFFFFFFFFFFFFFFFFFFFFF DUP5 AND SWAP1 PUSH32 0xCC16F5DBB4873280815C1EE09DBD06736CFFCC184412CF7A71A0FDB75D397CA5 SWAP1 PUSH1 0x0 SWAP1 LOG3 PUSH1 0x40 MLOAD DUP2 SWAP1 PUSH1 0x0 SWAP1 PUSH20 0xFFFFFFFFFFFFFFFFFFFFFFFFFFFFFFFFFFFFFFFF DUP6 AND SWAP1 PUSH32 0xDDF252AD1BE2C89B69C2B068FC378DAA952BA7F163C4A11628F55A4DF523B3EF SWAP1 DUP4 SWAP1 LOG4 POP POP JUMP JUMPDEST PUSH1 0x0 PUSH2 0x711 DUP3 PUSH1 0x40 MLOAD DUP1 PUSH1 0x40 ADD PUSH1 0x40 MSTORE DUP1 PUSH1 0xF DUP2 MSTORE PUSH1 0x20 ADD PUSH32 0x496E76616C696420746F6B656E49640000000000000000000000000000000000 DUP2 MSTORE POP PUSH1 0x2 PUSH2 0x1856 SWAP1 SWAP3 SWAP2 SWAP1 PUSH4 0xFFFFFFFF AND JUMP JUMPDEST CALLER PUSH1 0x0 SWAP1 DUP2 MSTORE PUSH32 0x31C1E66639F421F1853AEEFE8AD6B62A3B96F3287EFE23106923CD924AA025C2 PUSH1 0x20 MSTORE PUSH1 0x40 SWAP1 KECCAK256 SLOAD DUP2 SWAP1 PUSH1 0xFF AND PUSH2 0xDBC JUMPI PUSH1 0x40 MLOAD PUSH32 0x8C379A000000000000000000000000000000000000000000000000000000000 DUP2 MSTORE PUSH1 0x20 PUSH1 0x4 DUP3 ADD MSTORE PUSH1 0x36 PUSH1 0x24 DUP3 ADD MSTORE PUSH32 0x4F6E6C7920746865206163636F756E742077697468204F50455241544F525F52 PUSH1 0x44 DUP3 ADD MSTORE PUSH32 0x4F4C452063616E20617474657374207468652053425400000000000000000000 PUSH1 0x64 DUP3 ADD MSTORE PUSH1 0x84 ADD PUSH2 0x499 JUMP JUMPDEST PUSH1 0x64 DUP2 GT ISZERO PUSH2 0xE4D JUMPI PUSH1 0x40 MLOAD PUSH32 0x8C379A000000000000000000000000000000000000000000000000000000000 DUP2 MSTORE PUSH1 0x20 PUSH1 0x4 DUP3 ADD MSTORE PUSH1 0x22 PUSH1 0x24 DUP3 ADD MSTORE PUSH32 0x546865206D6178206C656E677468206F66206164647265737365732069732031 PUSH1 0x44 DUP3 ADD MSTORE PUSH32 0x3030000000000000000000000000000000000000000000000000000000000000 PUSH1 0x64 DUP3 ADD MSTORE PUSH1 0x84 ADD PUSH2 0x499 JUMP JUMPDEST PUSH1 0x0 JUMPDEST DUP2 DUP2 PUSH1 0xFF AND LT ISZERO PUSH2 0x669 JUMPI PUSH1 0x0 DUP5 DUP5 DUP4 PUSH1 0xFF AND DUP2 DUP2 LT PUSH2 0xE72 JUMPI PUSH2 0xE72 PUSH2 0x23B3 JUMP JUMPDEST SWAP1 POP PUSH1 0x20 MUL ADD PUSH1 0x20 DUP2 ADD SWAP1 PUSH2 0xE87 SWAP2 SWAP1 PUSH2 0x230C JUMP JUMPDEST SWAP1 POP PUSH20 0xFFFFFFFFFFFFFFFFFFFFFFFFFFFFFFFFFFFFFFFF DUP2 AND ISZERO DUP1 PUSH2 0xEB2 JUMPI POP PUSH2 0xEB2 PUSH1 0x5 DUP3 PUSH2 0x15B4 JUMP JUMPDEST ISZERO PUSH2 0xEBD JUMPI POP PUSH2 0xF7D JUMP JUMPDEST PUSH2 0xECB PUSH1 0x8 DUP1 SLOAD PUSH1 0x1 ADD SWAP1 SSTORE JUMP JUMPDEST PUSH1 0x0 PUSH2 0xED6 PUSH1 0x8 SLOAD SWAP1 JUMP JUMPDEST SWAP1 POP PUSH2 0xEE4 PUSH1 0x5 DUP4 DUP4 PUSH2 0x186B JUMP JUMPDEST POP PUSH2 0xEF1 PUSH1 0x2 DUP3 DUP5 PUSH2 0x188E JUMP JUMPDEST POP PUSH1 0x40 MLOAD DUP2 SWAP1 PUSH20 0xFFFFFFFFFFFFFFFFFFFFFFFFFFFFFFFFFFFFFFFF DUP5 AND SWAP1 PUSH32 0xE9274A84B19E9428826DE6BAE8C48329354F8F0E73F771B97CAE2D9DCCD45A27 SWAP1 PUSH1 0x0 SWAP1 LOG3 PUSH1 0x40 MLOAD DUP2 SWAP1 PUSH20 0xFFFFFFFFFFFFFFFFFFFFFFFFFFFFFFFFFFFFFFFF DUP5 AND SWAP1 PUSH1 0x0 SWAP1 PUSH32 0xDDF252AD1BE2C89B69C2B068FC378DAA952BA7F163C4A11628F55A4DF523B3EF SWAP1 DUP3 SWAP1 LOG4 POP POP JUMPDEST DUP1 PUSH2 0xF87 DUP2 PUSH2 0x2411 JUMP JUMPDEST SWAP2 POP POP PUSH2 0xE50 JUMP JUMPDEST PUSH20 0xFFFFFFFFFFFFFFFFFFFFFFFFFFFFFFFFFFFFFFFF DUP2 AND PUSH1 0x0 SWAP1 DUP2 MSTORE PUSH32 0x31C1E66639F421F1853AEEFE8AD6B62A3B96F3287EFE23106923CD924AA025C2 PUSH1 0x20 MSTORE PUSH1 0x40 DUP2 KECCAK256 SLOAD PUSH1 0xFF AND PUSH2 0x711 JUMP JUMPDEST PUSH1 0x0 DUP1 PUSH2 0xFEA PUSH1 0x5 DUP5 PUSH2 0x18B1 JUMP JUMPDEST POP SWAP1 POP DUP1 PUSH2 0xFF9 JUMPI PUSH1 0x0 PUSH2 0xFFC JUMP JUMPDEST PUSH1 0x1 JUMPDEST PUSH1 0xFF AND SWAP4 SWAP3 POP POP POP JUMP JUMPDEST CALLER PUSH1 0x0 SWAP1 DUP2 MSTORE PUSH32 0x31C1E66639F421F1853AEEFE8AD6B62A3B96F3287EFE23106923CD924AA025C2 PUSH1 0x20 MSTORE PUSH1 0x40 SWAP1 KECCAK256 SLOAD PUSH1 0xFF AND PUSH2 0x10C4 JUMPI PUSH1 0x40 MLOAD PUSH32 0x8C379A000000000000000000000000000000000000000000000000000000000 DUP2 MSTORE PUSH1 0x20 PUSH1 0x4 DUP3 ADD MSTORE PUSH1 0x36 PUSH1 0x24 DUP3 ADD MSTORE PUSH32 0x4F6E6C7920746865206163636F756E742077697468204F50455241544F525F52 PUSH1 0x44 DUP3 ADD MSTORE PUSH32 0x4F4C452063616E207265766F6B65207468652053425400000000000000000000 PUSH1 0x64 DUP3 ADD MSTORE PUSH1 0x84 ADD PUSH2 0x499 JUMP JUMPDEST PUSH20 0xFFFFFFFFFFFFFFFFFFFFFFFFFFFFFFFFFFFFFFFF DUP2 AND PUSH2 0x1141 JUMPI PUSH1 0x40 MLOAD PUSH32 0x8C379A000000000000000000000000000000000000000000000000000000000 DUP2 MSTORE PUSH1 0x20 PUSH1 0x4 DUP3 ADD MSTORE PUSH1 0x10 PUSH1 0x24 DUP3 ADD MSTORE PUSH32 0x4164647265737320697320656D70747900000000000000000000000000000000 PUSH1 0x44 DUP3 ADD MSTORE PUSH1 0x64 ADD PUSH2 0x499 JUMP JUMPDEST PUSH2 0x114C PUSH1 0x5 DUP3 PUSH2 0x15B4 JUMP JUMPDEST PUSH2 0x11D8 JUMPI PUSH1 0x40 MLOAD PUSH32 0x8C379A000000000000000000000000000000000000000000000000000000000 DUP2 MSTORE PUSH1 0x20 PUSH1 0x4 DUP3 ADD MSTORE PUSH1 0x21 PUSH1 0x24 DUP3 ADD MSTORE PUSH32 0x546865206163636F756E7420646F6573206E6F74206861766520616E79205342 PUSH1 0x44 DUP3 ADD MSTORE PUSH32 0x5400000000000000000000000000000000000000000000000000000000000000 PUSH1 0x64 DUP3 ADD MSTORE PUSH1 0x84 ADD PUSH2 0x499 JUMP JUMPDEST PUSH1 0x0 PUSH2 0x11E5 PUSH1 0x5 DUP4 PUSH2 0x15DD JUMP JUMPDEST SWAP1 POP PUSH2 0x11F2 PUSH1 0x5 DUP4 PUSH2 0x15FF JUMP JUMPDEST POP PUSH2 0x11FE PUSH1 0x2 DUP3 PUSH2 0x1621 JUMP JUMPDEST POP PUSH1 0x40 MLOAD DUP2 SWAP1 PUSH20 0xFFFFFFFFFFFFFFFFFFFFFFFFFFFFFFFFFFFFFFFF DUP5 AND SWAP1 PUSH32 0xEC9AB91322523C899EDE7830EC9BFC992B5981CDCC27B91162FB23DE5791117B SWAP1 PUSH1 0x0 SWAP1 LOG3 PUSH1 0x40 MLOAD DUP2 SWAP1 PUSH1 0x0 SWAP1 PUSH20 0xFFFFFFFFFFFFFFFFFFFFFFFFFFFFFFFFFFFFFFFF DUP6 AND SWAP1 PUSH32 0xDDF252AD1BE2C89B69C2B068FC378DAA952BA7F163C4A11628F55A4DF523B3EF SWAP1 DUP4 SWAP1 LOG4 POP POP JUMP JUMPDEST PUSH1 0x0 PUSH2 0x711 DUP3 PUSH1 0x40 MLOAD DUP1 PUSH1 0x60 ADD PUSH1 0x40 MSTORE DUP1 PUSH1 0x23 DUP2 MSTORE PUSH1 0x20 ADD PUSH2 0x295D PUSH1 0x23 SWAP2 CODECOPY PUSH1 0x5 SWAP2 SWAP1 PUSH2 0x18E5 JUMP JUMPDEST PUSH1 0xA DUP1 SLOAD PUSH2 0x724 SWAP1 PUSH2 0x2430 JUMP JUMPDEST PUSH1 0x60 PUSH1 0x0 PUSH1 0xB DUP1 SLOAD PUSH2 0x12D1 SWAP1 PUSH2 0x2430 JUMP JUMPDEST SWAP1 POP GT PUSH2 0x12ED JUMPI PUSH1 0x40 MLOAD DUP1 PUSH1 0x20 ADD PUSH1 0x40 MSTORE DUP1 PUSH1 0x0 DUP2 MSTORE POP PUSH2 0x711 JUMP JUMPDEST PUSH1 0xB PUSH2 0x12F8 DUP4 PUSH2 0x1908 JUMP JUMPDEST PUSH1 0x40 MLOAD PUSH1 0x20 ADD PUSH2 0x1309 SWAP3 SWAP2 SWAP1 PUSH2 0x2706 JUMP JUMPDEST PUSH1 0x40 MLOAD PUSH1 0x20 DUP2 DUP4 SUB SUB DUP2 MSTORE SWAP1 PUSH1 0x40 MSTORE SWAP3 SWAP2 POP POP JUMP JUMPDEST PUSH1 0x0 DUP3 DUP2 MSTORE PUSH1 0x1 PUSH1 0x20 DUP2 SWAP1 MSTORE PUSH1 0x40 SWAP1 SWAP2 KECCAK256 ADD SLOAD PUSH2 0x133A DUP2 PUSH2 0x178E JUMP JUMPDEST PUSH2 0x9BB DUP4 DUP4 PUSH2 0x179B JUMP JUMPDEST CALLER PUSH1 0x0 SWAP1 DUP2 MSTORE PUSH32 0x31C1E66639F421F1853AEEFE8AD6B62A3B96F3287EFE23106923CD924AA025C2 PUSH1 0x20 MSTORE PUSH1 0x40 DUP2 KECCAK256 SLOAD PUSH1 0xFF AND PUSH2 0x1402 JUMPI PUSH1 0x40 MLOAD PUSH32 0x8C379A000000000000000000000000000000000000000000000000000000000 DUP2 MSTORE PUSH1 0x20 PUSH1 0x4 DUP3 ADD MSTORE PUSH1 0x36 PUSH1 0x24 DUP3 ADD MSTORE PUSH32 0x4F6E6C7920746865206163636F756E742077697468204F50455241544F525F52 PUSH1 0x44 DUP3 ADD MSTORE PUSH32 0x4F4C452063616E20617474657374207468652053425400000000000000000000 PUSH1 0x64 DUP3 ADD MSTORE PUSH1 0x84 ADD PUSH2 0x499 JUMP JUMPDEST PUSH20 0xFFFFFFFFFFFFFFFFFFFFFFFFFFFFFFFFFFFFFFFF DUP3 AND PUSH2 0x147F JUMPI PUSH1 0x40 MLOAD PUSH32 0x8C379A000000000000000000000000000000000000000000000000000000000 DUP2 MSTORE PUSH1 0x20 PUSH1 0x4 DUP3 ADD MSTORE PUSH1 0x10 PUSH1 0x24 DUP3 ADD MSTORE PUSH32 0x4164647265737320697320656D70747900000000000000000000000000000000 PUSH1 0x44 DUP3 ADD MSTORE PUSH1 0x64 ADD PUSH2 0x499 JUMP JUMPDEST PUSH2 0x148A PUSH1 0x5 DUP4 PUSH2 0x15B4 JUMP JUMPDEST ISZERO PUSH2 0x14F1 JUMPI PUSH1 0x40 MLOAD PUSH32 0x8C379A000000000000000000000000000000000000000000000000000000000 DUP2 MSTORE PUSH1 0x20 PUSH1 0x4 DUP3 ADD MSTORE PUSH1 0x12 PUSH1 0x24 DUP3 ADD MSTORE PUSH32 0x53425420616C7265616479206578697374730000000000000000000000000000 PUSH1 0x44 DUP3 ADD MSTORE PUSH1 0x64 ADD PUSH2 0x499 JUMP JUMPDEST PUSH2 0x14FF PUSH1 0x8 DUP1 SLOAD PUSH1 0x1 ADD SWAP1 SSTORE JUMP JUMPDEST PUSH1 0x0 PUSH2 0x150A PUSH1 0x8 SLOAD SWAP1 JUMP JUMPDEST SWAP1 POP PUSH2 0x1518 PUSH1 0x5 DUP5 DUP4 PUSH2 0x186B JUMP JUMPDEST POP PUSH2 0x1525 PUSH1 0x2 DUP3 DUP6 PUSH2 0x188E JUMP JUMPDEST POP PUSH1 0x40 MLOAD DUP2 SWAP1 PUSH20 0xFFFFFFFFFFFFFFFFFFFFFFFFFFFFFFFFFFFFFFFF DUP6 AND SWAP1 PUSH32 0xE9274A84B19E9428826DE6BAE8C48329354F8F0E73F771B97CAE2D9DCCD45A27 SWAP1 PUSH1 0x0 SWAP1 LOG3 PUSH1 0x40 MLOAD DUP2 SWAP1 PUSH20 0xFFFFFFFFFFFFFFFFFFFFFFFFFFFFFFFFFFFFFFFF DUP6 AND SWAP1 PUSH1 0x0 SWAP1 PUSH32 0xDDF252AD1BE2C89B69C2B068FC378DAA952BA7F163C4A11628F55A4DF523B3EF SWAP1 DUP3 SWAP1 LOG4 SWAP3 SWAP2 POP POP JUMP JUMPDEST PUSH1 0x0 PUSH2 0x15D6 DUP4 PUSH20 0xFFFFFFFFFFFFFFFFFFFFFFFFFFFFFFFFFFFFFFFF DUP5 AND PUSH2 0x1A3D JUMP JUMPDEST SWAP4 SWAP3 POP POP POP JUMP JUMPDEST PUSH1 0x0 PUSH2 0x15D6 DUP4 PUSH20 0xFFFFFFFFFFFFFFFFFFFFFFFFFFFFFFFFFFFFFFFF DUP5 AND PUSH2 0x1A49 JUMP JUMPDEST PUSH1 0x0 PUSH2 0x15D6 DUP4 PUSH20 0xFFFFFFFFFFFFFFFFFFFFFFFFFFFFFFFFFFFFFFFF DUP5 AND PUSH2 0x1AD3 JUMP JUMPDEST PUSH1 0x0 PUSH2 0x15D6 DUP4 DUP4 PUSH2 0x1AD3 JUMP JUMPDEST PUSH1 0x0 PUSH32 0xFFFFFFFF00000000000000000000000000000000000000000000000000000000 DUP3 AND PUSH32 0x7965DB0B00000000000000000000000000000000000000000000000000000000 EQ DUP1 PUSH2 0x711 JUMPI POP PUSH32 0x1FFC9A700000000000000000000000000000000000000000000000000000000 PUSH32 0xFFFFFFFF00000000000000000000000000000000000000000000000000000000 DUP4 AND EQ PUSH2 0x711 JUMP JUMPDEST PUSH1 0x0 DUP3 DUP2 MSTORE PUSH1 0x1 PUSH1 0x20 SWAP1 DUP2 MSTORE PUSH1 0x40 DUP1 DUP4 KECCAK256 PUSH20 0xFFFFFFFFFFFFFFFFFFFFFFFFFFFFFFFFFFFFFFFF DUP6 AND DUP5 MSTORE SWAP1 SWAP2 MSTORE SWAP1 KECCAK256 SLOAD PUSH1 0xFF AND PUSH2 0xB60 JUMPI PUSH1 0x0 DUP3 DUP2 MSTORE PUSH1 0x1 PUSH1 0x20 DUP2 DUP2 MSTORE PUSH1 0x40 DUP1 DUP5 KECCAK256 PUSH20 0xFFFFFFFFFFFFFFFFFFFFFFFFFFFFFFFFFFFFFFFF DUP7 AND DUP1 DUP7 MSTORE SWAP3 MSTORE DUP1 DUP5 KECCAK256 DUP1 SLOAD PUSH32 0xFFFFFFFFFFFFFFFFFFFFFFFFFFFFFFFFFFFFFFFFFFFFFFFFFFFFFFFFFFFFFF00 AND SWAP1 SWAP4 OR SWAP1 SWAP3 SSTORE SWAP1 MLOAD CALLER SWAP3 DUP6 SWAP2 PUSH32 0x2F8788117E7EFF1D82E926EC794901D17C78024A50270940304540A733656F0D SWAP2 SWAP1 LOG4 POP POP JUMP JUMPDEST PUSH1 0x0 PUSH2 0x711 DUP3 PUSH2 0x1AF0 JUMP JUMPDEST PUSH2 0x1798 DUP2 CALLER PUSH2 0x1AFB JUMP JUMPDEST POP JUMP JUMPDEST PUSH1 0x0 DUP3 DUP2 MSTORE PUSH1 0x1 PUSH1 0x20 SWAP1 DUP2 MSTORE PUSH1 0x40 DUP1 DUP4 KECCAK256 PUSH20 0xFFFFFFFFFFFFFFFFFFFFFFFFFFFFFFFFFFFFFFFF DUP6 AND DUP5 MSTORE SWAP1 SWAP2 MSTORE SWAP1 KECCAK256 SLOAD PUSH1 0xFF AND ISZERO PUSH2 0xB60 JUMPI PUSH1 0x0 DUP3 DUP2 MSTORE PUSH1 0x1 PUSH1 0x20 SWAP1 DUP2 MSTORE PUSH1 0x40 DUP1 DUP4 KECCAK256 PUSH20 0xFFFFFFFFFFFFFFFFFFFFFFFFFFFFFFFFFFFFFFFF DUP6 AND DUP1 DUP6 MSTORE SWAP3 MSTORE DUP1 DUP4 KECCAK256 DUP1 SLOAD PUSH32 0xFFFFFFFFFFFFFFFFFFFFFFFFFFFFFFFFFFFFFFFFFFFFFFFFFFFFFFFFFFFFFF00 AND SWAP1 SSTORE MLOAD CALLER SWAP3 DUP6 SWAP2 PUSH32 0xF6391F5C32D9C69D2A47EA670B442974B53935D1EDC7FD64EB21E047A839171B SWAP2 SWAP1 LOG4 POP POP JUMP JUMPDEST PUSH1 0x0 PUSH2 0x1863 DUP5 DUP5 DUP5 PUSH2 0x1BB5 JUMP JUMPDEST SWAP5 SWAP4 POP POP POP POP JUMP JUMPDEST PUSH1 0x0 PUSH2 0x1863 DUP5 PUSH20 0xFFFFFFFFFFFFFFFFFFFFFFFFFFFFFFFFFFFFFFFF DUP6 AND DUP5 PUSH2 0x1C1B JUMP JUMPDEST PUSH1 0x0 PUSH2 0x1863 DUP5 DUP5 PUSH20 0xFFFFFFFFFFFFFFFFFFFFFFFFFFFFFFFFFFFFFFFF DUP6 AND PUSH2 0x1C1B JUMP JUMPDEST PUSH1 0x0 DUP1 DUP1 DUP1 PUSH2 0x18D6 DUP7 PUSH20 0xFFFFFFFFFFFFFFFFFFFFFFFFFFFFFFFFFFFFFFFF DUP8 AND PUSH2 0x1C38 JUMP JUMPDEST SWAP1 SWAP5 POP SWAP3 POP POP POP JUMPDEST SWAP3 POP SWAP3 SWAP1 POP JUMP JUMPDEST PUSH1 0x0 PUSH2 0x1863 DUP5 PUSH20 0xFFFFFFFFFFFFFFFFFFFFFFFFFFFFFFFFFFFFFFFF DUP6 AND DUP5 PUSH2 0x1BB5 JUMP JUMPDEST PUSH1 0x60 DUP2 PUSH1 0x0 SUB PUSH2 0x194B JUMPI POP POP PUSH1 0x40 DUP1 MLOAD DUP1 DUP3 ADD SWAP1 SWAP2 MSTORE PUSH1 0x1 DUP2 MSTORE PUSH32 0x3000000000000000000000000000000000000000000000000000000000000000 PUSH1 0x20 DUP3 ADD MSTORE SWAP1 JUMP JUMPDEST DUP2 PUSH1 0x0 JUMPDEST DUP2 ISZERO PUSH2 0x1975 JUMPI DUP1 PUSH2 0x195F DUP2 PUSH2 0x27AB JUMP JUMPDEST SWAP2 POP PUSH2 0x196E SWAP1 POP PUSH1 0xA DUP4 PUSH2 0x2812 JUMP JUMPDEST SWAP2 POP PUSH2 0x194F JUMP JUMPDEST PUSH1 0x0 DUP2 PUSH8 0xFFFFFFFFFFFFFFFF DUP2 GT ISZERO PUSH2 0x1990 JUMPI PUSH2 0x1990 PUSH2 0x217C JUMP JUMPDEST PUSH1 0x40 MLOAD SWAP1 DUP1 DUP3 MSTORE DUP1 PUSH1 0x1F ADD PUSH1 0x1F NOT AND PUSH1 0x20 ADD DUP3 ADD PUSH1 0x40 MSTORE DUP1 ISZERO PUSH2 0x19BA JUMPI PUSH1 0x20 DUP3 ADD DUP2 DUP1 CALLDATASIZE DUP4 CALLDATACOPY ADD SWAP1 POP JUMPDEST POP SWAP1 POP JUMPDEST DUP5 ISZERO PUSH2 0x1863 JUMPI PUSH2 0x19CF PUSH1 0x1 DUP4 PUSH2 0x2826 JUMP JUMPDEST SWAP2 POP PUSH2 0x19DC PUSH1 0xA DUP7 PUSH2 0x2839 JUMP JUMPDEST PUSH2 0x19E7 SWAP1 PUSH1 0x30 PUSH2 0x284D JUMP JUMPDEST PUSH1 0xF8 SHL DUP2 DUP4 DUP2 MLOAD DUP2 LT PUSH2 0x19FC JUMPI PUSH2 0x19FC PUSH2 0x23B3 JUMP JUMPDEST PUSH1 0x20 ADD ADD SWAP1 PUSH31 0xFFFFFFFFFFFFFFFFFFFFFFFFFFFFFFFFFFFFFFFFFFFFFFFFFFFFFFFFFFFFFF NOT AND SWAP1 DUP2 PUSH1 0x0 BYTE SWAP1 MSTORE8 POP PUSH2 0x1A36 PUSH1 0xA DUP7 PUSH2 0x2812 JUMP JUMPDEST SWAP5 POP PUSH2 0x19BE JUMP JUMPDEST PUSH1 0x0 PUSH2 0x15D6 DUP4 DUP4 PUSH2 0x1C72 JUMP JUMPDEST PUSH1 0x0 DUP2 DUP2 MSTORE PUSH1 0x2 DUP4 ADD PUSH1 0x20 MSTORE PUSH1 0x40 DUP2 KECCAK256 SLOAD DUP1 ISZERO ISZERO DUP1 PUSH2 0x1A6D JUMPI POP PUSH2 0x1A6D DUP5 DUP5 PUSH2 0x1A3D JUMP JUMPDEST PUSH2 0x15D6 JUMPI PUSH1 0x40 MLOAD PUSH32 0x8C379A000000000000000000000000000000000000000000000000000000000 DUP2 MSTORE PUSH1 0x20 PUSH1 0x4 DUP3 ADD MSTORE PUSH1 0x1E PUSH1 0x24 DUP3 ADD MSTORE PUSH32 0x456E756D657261626C654D61703A206E6F6E6578697374656E74206B65790000 PUSH1 0x44 DUP3 ADD MSTORE PUSH1 0x64 ADD PUSH2 0x499 JUMP JUMPDEST PUSH1 0x0 DUP2 DUP2 MSTORE PUSH1 0x2 DUP4 ADD PUSH1 0x20 MSTORE PUSH1 0x40 DUP2 KECCAK256 DUP2 SWAP1 SSTORE PUSH2 0x15D6 DUP4 DUP4 PUSH2 0x1C8A JUMP JUMPDEST PUSH1 0x0 PUSH2 0x711 DUP3 PUSH2 0x1C96 JUMP JUMPDEST PUSH1 0x0 DUP3 DUP2 MSTORE PUSH1 0x1 PUSH1 0x20 SWAP1 DUP2 MSTORE PUSH1 0x40 DUP1 DUP4 KECCAK256 PUSH20 0xFFFFFFFFFFFFFFFFFFFFFFFFFFFFFFFFFFFFFFFF DUP6 AND DUP5 MSTORE SWAP1 SWAP2 MSTORE SWAP1 KECCAK256 SLOAD PUSH1 0xFF AND PUSH2 0xB60 JUMPI PUSH2 0x1B3B DUP2 PUSH2 0x1CA0 JUMP JUMPDEST PUSH2 0x1B46 DUP4 PUSH1 0x20 PUSH2 0x1CBF JUMP JUMPDEST PUSH1 0x40 MLOAD PUSH1 0x20 ADD PUSH2 0x1B57 SWAP3 SWAP2 SWAP1 PUSH2 0x2860 JUMP JUMPDEST PUSH1 0x40 DUP1 MLOAD PUSH32 0xFFFFFFFFFFFFFFFFFFFFFFFFFFFFFFFFFFFFFFFFFFFFFFFFFFFFFFFFFFFFFFE0 DUP2 DUP5 SUB ADD DUP2 MSTORE SWAP1 DUP3 SWAP1 MSTORE PUSH32 0x8C379A000000000000000000000000000000000000000000000000000000000 DUP3 MSTORE PUSH2 0x499 SWAP2 PUSH1 0x4 ADD PUSH2 0x212B JUMP JUMPDEST PUSH1 0x0 DUP3 DUP2 MSTORE PUSH1 0x2 DUP5 ADD PUSH1 0x20 MSTORE PUSH1 0x40 DUP2 KECCAK256 SLOAD DUP1 ISZERO ISZERO DUP1 PUSH2 0x1BD9 JUMPI POP PUSH2 0x1BD9 DUP6 DUP6 PUSH2 0x1A3D JUMP JUMPDEST DUP4 SWAP1 PUSH2 0x1C12 JUMPI PUSH1 0x40 MLOAD PUSH32 0x8C379A000000000000000000000000000000000000000000000000000000000 DUP2 MSTORE PUSH1 0x4 ADD PUSH2 0x499 SWAP2 SWAP1 PUSH2 0x212B JUMP JUMPDEST POP SWAP5 SWAP4 POP POP POP POP JUMP JUMPDEST PUSH1 0x0 DUP3 DUP2 MSTORE PUSH1 0x2 DUP5 ADD PUSH1 0x20 MSTORE PUSH1 0x40 DUP2 KECCAK256 DUP3 SWAP1 SSTORE PUSH2 0x1863 DUP5 DUP5 PUSH2 0x1F02 JUMP JUMPDEST PUSH1 0x0 DUP2 DUP2 MSTORE PUSH1 0x2 DUP4 ADD PUSH1 0x20 MSTORE PUSH1 0x40 DUP2 KECCAK256 SLOAD DUP2 SWAP1 DUP1 PUSH2 0x1C67 JUMPI PUSH2 0x1C5A DUP6 DUP6 PUSH2 0x1A3D JUMP JUMPDEST SWAP3 POP PUSH1 0x0 SWAP2 POP PUSH2 0x18DE SWAP1 POP JUMP JUMPDEST PUSH1 0x1 SWAP3 POP SWAP1 POP PUSH2 0x18DE JUMP JUMPDEST PUSH1 0x0 DUP2 DUP2 MSTORE PUSH1 0x1 DUP4 ADD PUSH1 0x20 MSTORE PUSH1 0x40 DUP2 KECCAK256 SLOAD ISZERO ISZERO PUSH2 0x15D6 JUMP JUMPDEST PUSH1 0x0 PUSH2 0x15D6 DUP4 DUP4 PUSH2 0x1F0E JUMP JUMPDEST PUSH1 0x0 PUSH2 0x711 DUP3 SLOAD SWAP1 JUMP JUMPDEST PUSH1 0x60 PUSH2 0x711 PUSH20 0xFFFFFFFFFFFFFFFFFFFFFFFFFFFFFFFFFFFFFFFF DUP4 AND PUSH1 0x14 JUMPDEST PUSH1 0x60 PUSH1 0x0 PUSH2 0x1CCE DUP4 PUSH1 0x2 PUSH2 0x28E1 JUMP JUMPDEST PUSH2 0x1CD9 SWAP1 PUSH1 0x2 PUSH2 0x284D JUMP JUMPDEST PUSH8 0xFFFFFFFFFFFFFFFF DUP2 GT ISZERO PUSH2 0x1CF1 JUMPI PUSH2 0x1CF1 PUSH2 0x217C JUMP JUMPDEST PUSH1 0x40 MLOAD SWAP1 DUP1 DUP3 MSTORE DUP1 PUSH1 0x1F ADD PUSH1 0x1F NOT AND PUSH1 0x20 ADD DUP3 ADD PUSH1 0x40 MSTORE DUP1 ISZERO PUSH2 0x1D1B JUMPI PUSH1 0x20 DUP3 ADD DUP2 DUP1 CALLDATASIZE DUP4 CALLDATACOPY ADD SWAP1 POP JUMPDEST POP SWAP1 POP PUSH32 0x3000000000000000000000000000000000000000000000000000000000000000 DUP2 PUSH1 0x0 DUP2 MLOAD DUP2 LT PUSH2 0x1D52 JUMPI PUSH2 0x1D52 PUSH2 0x23B3 JUMP JUMPDEST PUSH1 0x20 ADD ADD SWAP1 PUSH31 0xFFFFFFFFFFFFFFFFFFFFFFFFFFFFFFFFFFFFFFFFFFFFFFFFFFFFFFFFFFFFFF NOT AND SWAP1 DUP2 PUSH1 0x0 BYTE SWAP1 MSTORE8 POP PUSH32 0x7800000000000000000000000000000000000000000000000000000000000000 DUP2 PUSH1 0x1 DUP2 MLOAD DUP2 LT PUSH2 0x1DB5 JUMPI PUSH2 0x1DB5 PUSH2 0x23B3 JUMP JUMPDEST PUSH1 0x20 ADD ADD SWAP1 PUSH31 0xFFFFFFFFFFFFFFFFFFFFFFFFFFFFFFFFFFFFFFFFFFFFFFFFFFFFFFFFFFFFFF NOT AND SWAP1 DUP2 PUSH1 0x0 BYTE SWAP1 MSTORE8 POP PUSH1 0x0 PUSH2 0x1DF1 DUP5 PUSH1 0x2 PUSH2 0x28E1 JUMP JUMPDEST PUSH2 0x1DFC SWAP1 PUSH1 0x1 PUSH2 0x284D JUMP JUMPDEST SWAP1 POP JUMPDEST PUSH1 0x1 DUP2 GT ISZERO PUSH2 0x1E99 JUMPI PUSH32 0x3031323334353637383961626364656600000000000000000000000000000000 DUP6 PUSH1 0xF AND PUSH1 0x10 DUP2 LT PUSH2 0x1E3D JUMPI PUSH2 0x1E3D PUSH2 0x23B3 JUMP JUMPDEST BYTE PUSH1 0xF8 SHL DUP3 DUP3 DUP2 MLOAD DUP2 LT PUSH2 0x1E53 JUMPI PUSH2 0x1E53 PUSH2 0x23B3 JUMP JUMPDEST PUSH1 0x20 ADD ADD SWAP1 PUSH31 0xFFFFFFFFFFFFFFFFFFFFFFFFFFFFFFFFFFFFFFFFFFFFFFFFFFFFFFFFFFFFFF NOT AND SWAP1 DUP2 PUSH1 0x0 BYTE SWAP1 MSTORE8 POP PUSH1 0x4 SWAP5 SWAP1 SWAP5 SHR SWAP4 PUSH2 0x1E92 DUP2 PUSH2 0x28F8 JUMP JUMPDEST SWAP1 POP PUSH2 0x1DFF JUMP JUMPDEST POP DUP4 ISZERO PUSH2 0x15D6 JUMPI PUSH1 0x40 MLOAD PUSH32 0x8C379A000000000000000000000000000000000000000000000000000000000 DUP2 MSTORE PUSH1 0x20 PUSH1 0x4 DUP3 ADD DUP2 SWAP1 MSTORE PUSH1 0x24 DUP3 ADD MSTORE PUSH32 0x537472696E67733A20686578206C656E67746820696E73756666696369656E74 PUSH1 0x44 DUP3 ADD MSTORE PUSH1 0x64 ADD PUSH2 0x499 JUMP JUMPDEST PUSH1 0x0 PUSH2 0x15D6 DUP4 DUP4 PUSH2 0x2001 JUMP JUMPDEST PUSH1 0x0 DUP2 DUP2 MSTORE PUSH1 0x1 DUP4 ADD PUSH1 0x20 MSTORE PUSH1 0x40 DUP2 KECCAK256 SLOAD DUP1 ISZERO PUSH2 0x1FF7 JUMPI PUSH1 0x0 PUSH2 0x1F32 PUSH1 0x1 DUP4 PUSH2 0x2826 JUMP JUMPDEST DUP6 SLOAD SWAP1 SWAP2 POP PUSH1 0x0 SWAP1 PUSH2 0x1F46 SWAP1 PUSH1 0x1 SWAP1 PUSH2 0x2826 JUMP JUMPDEST SWAP1 POP DUP2 DUP2 EQ PUSH2 0x1FAB JUMPI PUSH1 0x0 DUP7 PUSH1 0x0 ADD DUP3 DUP2 SLOAD DUP2 LT PUSH2 0x1F66 JUMPI PUSH2 0x1F66 PUSH2 0x23B3 JUMP JUMPDEST SWAP1 PUSH1 0x0 MSTORE PUSH1 0x20 PUSH1 0x0 KECCAK256 ADD SLOAD SWAP1 POP DUP1 DUP8 PUSH1 0x0 ADD DUP5 DUP2 SLOAD DUP2 LT PUSH2 0x1F89 JUMPI PUSH2 0x1F89 PUSH2 0x23B3 JUMP JUMPDEST PUSH1 0x0 SWAP2 DUP3 MSTORE PUSH1 0x20 DUP1 DUP4 KECCAK256 SWAP1 SWAP2 ADD SWAP3 SWAP1 SWAP3 SSTORE SWAP2 DUP3 MSTORE PUSH1 0x1 DUP9 ADD SWAP1 MSTORE PUSH1 0x40 SWAP1 KECCAK256 DUP4 SWAP1 SSTORE JUMPDEST DUP6 SLOAD DUP7 SWAP1 DUP1 PUSH2 0x1FBC JUMPI PUSH2 0x1FBC PUSH2 0x292D JUMP JUMPDEST PUSH1 0x1 SWAP1 SUB DUP2 DUP2 SWAP1 PUSH1 0x0 MSTORE PUSH1 0x20 PUSH1 0x0 KECCAK256 ADD PUSH1 0x0 SWAP1 SSTORE SWAP1 SSTORE DUP6 PUSH1 0x1 ADD PUSH1 0x0 DUP7 DUP2 MSTORE PUSH1 0x20 ADD SWAP1 DUP2 MSTORE PUSH1 0x20 ADD PUSH1 0x0 KECCAK256 PUSH1 0x0 SWAP1 SSTORE PUSH1 0x1 SWAP4 POP POP POP POP PUSH2 0x711 JUMP JUMPDEST PUSH1 0x0 SWAP2 POP POP PUSH2 0x711 JUMP JUMPDEST PUSH1 0x0 DUP2 DUP2 MSTORE PUSH1 0x1 DUP4 ADD PUSH1 0x20 MSTORE PUSH1 0x40 DUP2 KECCAK256 SLOAD PUSH2 0x2048 JUMPI POP DUP2 SLOAD PUSH1 0x1 DUP2 DUP2 ADD DUP5 SSTORE PUSH1 0x0 DUP5 DUP2 MSTORE PUSH1 0x20 DUP1 DUP3 KECCAK256 SWAP1 SWAP4 ADD DUP5 SWAP1 SSTORE DUP5 SLOAD DUP5 DUP3 MSTORE DUP3 DUP7 ADD SWAP1 SWAP4 MSTORE PUSH1 0x40 SWAP1 KECCAK256 SWAP2 SWAP1 SWAP2 SSTORE PUSH2 0x711 JUMP JUMPDEST POP PUSH1 0x0 PUSH2 0x711 JUMP JUMPDEST PUSH1 0x0 DUP1 PUSH1 0x20 DUP4 DUP6 SUB SLT ISZERO PUSH2 0x2063 JUMPI PUSH1 0x0 DUP1 REVERT JUMPDEST DUP3 CALLDATALOAD PUSH8 0xFFFFFFFFFFFFFFFF DUP1 DUP3 GT ISZERO PUSH2 0x207B JUMPI PUSH1 0x0 DUP1 REVERT JUMPDEST DUP2 DUP6 ADD SWAP2 POP DUP6 PUSH1 0x1F DUP4 ADD SLT PUSH2 0x208F JUMPI PUSH1 0x0 DUP1 REVERT JUMPDEST DUP2 CALLDATALOAD DUP2 DUP2 GT ISZERO PUSH2 0x209E JUMPI PUSH1 0x0 DUP1 REVERT JUMPDEST DUP7 PUSH1 0x20 DUP3 PUSH1 0x5 SHL DUP6 ADD ADD GT ISZERO PUSH2 0x20B3 JUMPI PUSH1 0x0 DUP1 REVERT JUMPDEST PUSH1 0x20 SWAP3 SWAP1 SWAP3 ADD SWAP7 SWAP2 SWAP6 POP SWAP1 SWAP4 POP POP POP POP JUMP JUMPDEST PUSH1 0x0 PUSH1 0x20 DUP3 DUP5 SUB SLT ISZERO PUSH2 0x20D7 JUMPI PUSH1 0x0 DUP1 REVERT JUMPDEST DUP2 CALLDATALOAD PUSH32 0xFFFFFFFF00000000000000000000000000000000000000000000000000000000 DUP2 AND DUP2 EQ PUSH2 0x15D6 JUMPI PUSH1 0x0 DUP1 REVERT JUMPDEST PUSH1 0x0 JUMPDEST DUP4 DUP2 LT ISZERO PUSH2 0x2122 JUMPI DUP2 DUP2 ADD MLOAD DUP4 DUP3 ADD MSTORE PUSH1 0x20 ADD PUSH2 0x210A JUMP JUMPDEST POP POP PUSH1 0x0 SWAP2 ADD MSTORE JUMP JUMPDEST PUSH1 0x20 DUP2 MSTORE PUSH1 0x0 DUP3 MLOAD DUP1 PUSH1 0x20 DUP5 ADD MSTORE PUSH2 0x214A DUP2 PUSH1 0x40 DUP6 ADD PUSH1 0x20 DUP8 ADD PUSH2 0x2107 JUMP JUMPDEST PUSH1 0x1F ADD PUSH32 0xFFFFFFFFFFFFFFFFFFFFFFFFFFFFFFFFFFFFFFFFFFFFFFFFFFFFFFFFFFFFFFE0 AND SWAP2 SWAP1 SWAP2 ADD PUSH1 0x40 ADD SWAP3 SWAP2 POP POP JUMP JUMPDEST PUSH32 0x4E487B7100000000000000000000000000000000000000000000000000000000 PUSH1 0x0 MSTORE PUSH1 0x41 PUSH1 0x4 MSTORE PUSH1 0x24 PUSH1 0x0 REVERT JUMPDEST PUSH1 0x0 DUP3 PUSH1 0x1F DUP4 ADD SLT PUSH2 0x21BC JUMPI PUSH1 0x0 DUP1 REVERT JUMPDEST DUP2 CALLDATALOAD PUSH8 0xFFFFFFFFFFFFFFFF DUP1 DUP3 GT ISZERO PUSH2 0x21D7 JUMPI PUSH2 0x21D7 PUSH2 0x217C JUMP JUMPDEST PUSH1 0x40 MLOAD PUSH1 0x1F DUP4 ADD PUSH32 0xFFFFFFFFFFFFFFFFFFFFFFFFFFFFFFFFFFFFFFFFFFFFFFFFFFFFFFFFFFFFFFE0 SWAP1 DUP2 AND PUSH1 0x3F ADD AND DUP2 ADD SWAP1 DUP3 DUP3 GT DUP2 DUP4 LT OR ISZERO PUSH2 0x221D JUMPI PUSH2 0x221D PUSH2 0x217C JUMP JUMPDEST DUP2 PUSH1 0x40 MSTORE DUP4 DUP2 MSTORE DUP7 PUSH1 0x20 DUP6 DUP9 ADD ADD GT ISZERO PUSH2 0x2236 JUMPI PUSH1 0x0 DUP1 REVERT JUMPDEST DUP4 PUSH1 0x20 DUP8 ADD PUSH1 0x20 DUP4 ADD CALLDATACOPY PUSH1 0x0 PUSH1 0x20 DUP6 DUP4 ADD ADD MSTORE DUP1 SWAP5 POP POP POP POP POP SWAP3 SWAP2 POP POP JUMP JUMPDEST DUP1 CALLDATALOAD PUSH20 0xFFFFFFFFFFFFFFFFFFFFFFFFFFFFFFFFFFFFFFFF DUP2 AND DUP2 EQ PUSH2 0x227A JUMPI PUSH1 0x0 DUP1 REVERT JUMPDEST SWAP2 SWAP1 POP JUMP JUMPDEST PUSH1 0x0 DUP1 PUSH1 0x0 PUSH1 0x60 DUP5 DUP7 SUB SLT ISZERO PUSH2 0x2294 JUMPI PUSH1 0x0 DUP1 REVERT JUMPDEST DUP4 CALLDATALOAD PUSH8 0xFFFFFFFFFFFFFFFF DUP1 DUP3 GT ISZERO PUSH2 0x22AC JUMPI PUSH1 0x0 DUP1 REVERT JUMPDEST PUSH2 0x22B8 DUP8 DUP4 DUP9 ADD PUSH2 0x21AB JUMP JUMPDEST SWAP5 POP PUSH1 0x20 DUP7 ADD CALLDATALOAD SWAP2 POP DUP1 DUP3 GT ISZERO PUSH2 0x22CE JUMPI PUSH1 0x0 DUP1 REVERT JUMPDEST POP PUSH2 0x22DB DUP7 DUP3 DUP8 ADD PUSH2 0x21AB JUMP JUMPDEST SWAP3 POP POP PUSH2 0x22EA PUSH1 0x40 DUP6 ADD PUSH2 0x2256 JUMP JUMPDEST SWAP1 POP SWAP3 POP SWAP3 POP SWAP3 JUMP JUMPDEST PUSH1 0x0 PUSH1 0x20 DUP3 DUP5 SUB SLT ISZERO PUSH2 0x2305 JUMPI PUSH1 0x0 DUP1 REVERT JUMPDEST POP CALLDATALOAD SWAP2 SWAP1 POP JUMP JUMPDEST PUSH1 0x0 PUSH1 0x20 DUP3 DUP5 SUB SLT ISZERO PUSH2 0x231E JUMPI PUSH1 0x0 DUP1 REVERT JUMPDEST PUSH2 0x15D6 DUP3 PUSH2 0x2256 JUMP JUMPDEST PUSH1 0x0 DUP1 PUSH1 0x40 DUP4 DUP6 SUB SLT ISZERO PUSH2 0x233A JUMPI PUSH1 0x0 DUP1 REVERT JUMPDEST DUP3 CALLDATALOAD SWAP2 POP PUSH2 0x234A PUSH1 0x20 DUP5 ADD PUSH2 0x2256 JUMP JUMPDEST SWAP1 POP SWAP3 POP SWAP3 SWAP1 POP JUMP JUMPDEST PUSH1 0x0 DUP1 PUSH1 0x20 DUP4 DUP6 SUB SLT ISZERO PUSH2 0x2366 JUMPI PUSH1 0x0 DUP1 REVERT JUMPDEST DUP3 CALLDATALOAD PUSH8 0xFFFFFFFFFFFFFFFF DUP1 DUP3 GT ISZERO PUSH2 0x237E JUMPI PUSH1 0x0 DUP1 REVERT JUMPDEST DUP2 DUP6 ADD SWAP2 POP DUP6 PUSH1 0x1F DUP4 ADD SLT PUSH2 0x2392 JUMPI PUSH1 0x0 DUP1 REVERT JUMPDEST DUP2 CALLDATALOAD DUP2 DUP2 GT ISZERO PUSH2 0x23A1 JUMPI PUSH1 0x0 DUP1 REVERT JUMPDEST DUP7 PUSH1 0x20 DUP3 DUP6 ADD ADD GT ISZERO PUSH2 0x20B3 JUMPI PUSH1 0x0 DUP1 REVERT JUMPDEST PUSH32 0x4E487B7100000000000000000000000000000000000000000000000000000000 PUSH1 0x0 MSTORE PUSH1 0x32 PUSH1 0x4 MSTORE PUSH1 0x24 PUSH1 0x0 REVERT JUMPDEST PUSH32 0x4E487B7100000000000000000000000000000000000000000000000000000000 PUSH1 0x0 MSTORE PUSH1 0x11 PUSH1 0x4 MSTORE PUSH1 0x24 PUSH1 0x0 REVERT JUMPDEST PUSH1 0x0 PUSH1 0xFF DUP3 AND PUSH1 0xFF DUP2 SUB PUSH2 0x2427 JUMPI PUSH2 0x2427 PUSH2 0x23E2 JUMP JUMPDEST PUSH1 0x1 ADD SWAP3 SWAP2 POP POP JUMP JUMPDEST PUSH1 0x1 DUP2 DUP2 SHR SWAP1 DUP3 AND DUP1 PUSH2 0x2444 JUMPI PUSH1 0x7F DUP3 AND SWAP2 POP JUMPDEST PUSH1 0x20 DUP3 LT DUP2 SUB PUSH2 0x247D JUMPI PUSH32 0x4E487B7100000000000000000000000000000000000000000000000000000000 PUSH1 0x0 MSTORE PUSH1 0x22 PUSH1 0x4 MSTORE PUSH1 0x24 PUSH1 0x0 REVERT JUMPDEST POP SWAP2 SWAP1 POP JUMP JUMPDEST PUSH1 0x1F DUP3 GT ISZERO PUSH2 0x9BB JUMPI PUSH1 0x0 DUP2 DUP2 MSTORE PUSH1 0x20 DUP2 KECCAK256 PUSH1 0x1F DUP6 ADD PUSH1 0x5 SHR DUP2 ADD PUSH1 0x20 DUP7 LT ISZERO PUSH2 0x24AA JUMPI POP DUP1 JUMPDEST PUSH1 0x1F DUP6 ADD PUSH1 0x5 SHR DUP3 ADD SWAP2 POP JUMPDEST DUP2 DUP2 LT ISZERO PUSH2 0x24C9 JUMPI DUP3 DUP2 SSTORE PUSH1 0x1 ADD PUSH2 0x24B6 JUMP JUMPDEST POP POP POP POP POP POP JUMP JUMPDEST DUP2 MLOAD PUSH8 0xFFFFFFFFFFFFFFFF DUP2 GT ISZERO PUSH2 0x24EB JUMPI PUSH2 0x24EB PUSH2 0x217C JUMP JUMPDEST PUSH2 0x24FF DUP2 PUSH2 0x24F9 DUP5 SLOAD PUSH2 0x2430 JUMP JUMPDEST DUP5 PUSH2 0x2483 JUMP JUMPDEST PUSH1 0x20 DUP1 PUSH1 0x1F DUP4 GT PUSH1 0x1 DUP2 EQ PUSH2 0x2552 JUMPI PUSH1 0x0 DUP5 ISZERO PUSH2 0x251C JUMPI POP DUP6 DUP4 ADD MLOAD JUMPDEST PUSH32 0xFFFFFFFFFFFFFFFFFFFFFFFFFFFFFFFFFFFFFFFFFFFFFFFFFFFFFFFFFFFFFFFF PUSH1 0x3 DUP7 SWAP1 SHL SHR NOT AND PUSH1 0x1 DUP6 SWAP1 SHL OR DUP6 SSTORE PUSH2 0x24C9 JUMP JUMPDEST PUSH1 0x0 DUP6 DUP2 MSTORE PUSH1 0x20 DUP2 KECCAK256 PUSH32 0xFFFFFFFFFFFFFFFFFFFFFFFFFFFFFFFFFFFFFFFFFFFFFFFFFFFFFFFFFFFFFFE0 DUP7 AND SWAP2 JUMPDEST DUP3 DUP2 LT ISZERO PUSH2 0x259F JUMPI DUP9 DUP7 ADD MLOAD DUP3 SSTORE SWAP5 DUP5 ADD SWAP5 PUSH1 0x1 SWAP1 SWAP2 ADD SWAP1 DUP5 ADD PUSH2 0x2580 JUMP JUMPDEST POP DUP6 DUP3 LT ISZERO PUSH2 0x25DB JUMPI DUP8 DUP6 ADD MLOAD PUSH32 0xFFFFFFFFFFFFFFFFFFFFFFFFFFFFFFFFFFFFFFFFFFFFFFFFFFFFFFFFFFFFFFFF PUSH1 0x3 DUP9 SWAP1 SHL PUSH1 0xF8 AND SHR NOT AND DUP2 SSTORE JUMPDEST POP POP POP POP POP PUSH1 0x1 SWAP1 DUP2 SHL ADD SWAP1 SSTORE POP JUMP JUMPDEST PUSH8 0xFFFFFFFFFFFFFFFF DUP4 GT ISZERO PUSH2 0x2603 JUMPI PUSH2 0x2603 PUSH2 0x217C JUMP JUMPDEST PUSH2 0x2617 DUP4 PUSH2 0x2611 DUP4 SLOAD PUSH2 0x2430 JUMP JUMPDEST DUP4 PUSH2 0x2483 JUMP JUMPDEST PUSH1 0x0 PUSH1 0x1F DUP5 GT PUSH1 0x1 DUP2 EQ PUSH2 0x2669 JUMPI PUSH1 0x0 DUP6 ISZERO PUSH2 0x2633 JUMPI POP DUP4 DUP3 ADD CALLDATALOAD JUMPDEST PUSH32 0xFFFFFFFFFFFFFFFFFFFFFFFFFFFFFFFFFFFFFFFFFFFFFFFFFFFFFFFFFFFFFFFF PUSH1 0x3 DUP8 SWAP1 SHL SHR NOT AND PUSH1 0x1 DUP7 SWAP1 SHL OR DUP4 SSTORE PUSH2 0x26FF JUMP JUMPDEST PUSH1 0x0 DUP4 DUP2 MSTORE PUSH1 0x20 SWAP1 KECCAK256 PUSH32 0xFFFFFFFFFFFFFFFFFFFFFFFFFFFFFFFFFFFFFFFFFFFFFFFFFFFFFFFFFFFFFFE0 DUP7 AND SWAP1 DUP4 JUMPDEST DUP3 DUP2 LT ISZERO PUSH2 0x26B8 JUMPI DUP7 DUP6 ADD CALLDATALOAD DUP3 SSTORE PUSH1 0x20 SWAP5 DUP6 ADD SWAP5 PUSH1 0x1 SWAP1 SWAP3 ADD SWAP2 ADD PUSH2 0x2698 JUMP JUMPDEST POP DUP7 DUP3 LT ISZERO PUSH2 0x26F3 JUMPI PUSH32 0xFFFFFFFFFFFFFFFFFFFFFFFFFFFFFFFFFFFFFFFFFFFFFFFFFFFFFFFFFFFFFFFF PUSH1 0xF8 DUP9 PUSH1 0x3 SHL AND SHR NOT DUP5 DUP8 ADD CALLDATALOAD AND DUP2 SSTORE JUMPDEST POP POP PUSH1 0x1 DUP6 PUSH1 0x1 SHL ADD DUP4 SSTORE JUMPDEST POP POP POP POP POP JUMP JUMPDEST PUSH1 0x0 DUP1 DUP5 SLOAD PUSH2 0x2714 DUP2 PUSH2 0x2430 JUMP JUMPDEST PUSH1 0x1 DUP3 DUP2 AND DUP1 ISZERO PUSH2 0x272C JUMPI PUSH1 0x1 DUP2 EQ PUSH2 0x275F JUMPI PUSH2 0x278E JUMP JUMPDEST PUSH32 0xFFFFFFFFFFFFFFFFFFFFFFFFFFFFFFFFFFFFFFFFFFFFFFFFFFFFFFFFFFFFFF00 DUP5 AND DUP8 MSTORE DUP3 ISZERO ISZERO DUP4 MUL DUP8 ADD SWAP5 POP PUSH2 0x278E JUMP JUMPDEST DUP9 PUSH1 0x0 MSTORE PUSH1 0x20 DUP1 PUSH1 0x0 KECCAK256 PUSH1 0x0 JUMPDEST DUP6 DUP2 LT ISZERO PUSH2 0x2785 JUMPI DUP2 SLOAD DUP11 DUP3 ADD MSTORE SWAP1 DUP5 ADD SWAP1 DUP3 ADD PUSH2 0x276C JUMP JUMPDEST POP POP POP DUP3 DUP8 ADD SWAP5 POP JUMPDEST POP POP POP POP DUP4 MLOAD PUSH2 0x27A2 DUP2 DUP4 PUSH1 0x20 DUP9 ADD PUSH2 0x2107 JUMP JUMPDEST ADD SWAP5 SWAP4 POP POP POP POP JUMP JUMPDEST PUSH1 0x0 PUSH32 0xFFFFFFFFFFFFFFFFFFFFFFFFFFFFFFFFFFFFFFFFFFFFFFFFFFFFFFFFFFFFFFFF DUP3 SUB PUSH2 0x27DC JUMPI PUSH2 0x27DC PUSH2 0x23E2 JUMP JUMPDEST POP PUSH1 0x1 ADD SWAP1 JUMP JUMPDEST PUSH32 0x4E487B7100000000000000000000000000000000000000000000000000000000 PUSH1 0x0 MSTORE PUSH1 0x12 PUSH1 0x4 MSTORE PUSH1 0x24 PUSH1 0x0 REVERT JUMPDEST PUSH1 0x0 DUP3 PUSH2 0x2821 JUMPI PUSH2 0x2821 PUSH2 0x27E3 JUMP JUMPDEST POP DIV SWAP1 JUMP JUMPDEST DUP2 DUP2 SUB DUP2 DUP2 GT ISZERO PUSH2 0x711 JUMPI PUSH2 0x711 PUSH2 0x23E2 JUMP JUMPDEST PUSH1 0x0 DUP3 PUSH2 0x2848 JUMPI PUSH2 0x2848 PUSH2 0x27E3 JUMP JUMPDEST POP MOD SWAP1 JUMP JUMPDEST DUP1 DUP3 ADD DUP1 DUP3 GT ISZERO PUSH2 0x711 JUMPI PUSH2 0x711 PUSH2 0x23E2 JUMP JUMPDEST PUSH32 0x416363657373436F6E74726F6C3A206163636F756E7420000000000000000000 DUP2 MSTORE PUSH1 0x0 DUP4 MLOAD PUSH2 0x2898 DUP2 PUSH1 0x17 DUP6 ADD PUSH1 0x20 DUP9 ADD PUSH2 0x2107 JUMP JUMPDEST PUSH32 0x206973206D697373696E6720726F6C6520000000000000000000000000000000 PUSH1 0x17 SWAP2 DUP5 ADD SWAP2 DUP3 ADD MSTORE DUP4 MLOAD PUSH2 0x28D5 DUP2 PUSH1 0x28 DUP5 ADD PUSH1 0x20 DUP9 ADD PUSH2 0x2107 JUMP JUMPDEST ADD PUSH1 0x28 ADD SWAP5 SWAP4 POP POP POP POP JUMP JUMPDEST DUP1 DUP3 MUL DUP2 ISZERO DUP3 DUP3 DIV DUP5 EQ OR PUSH2 0x711 JUMPI PUSH2 0x711 PUSH2 0x23E2 JUMP JUMPDEST PUSH1 0x0 DUP2 PUSH2 0x2907 JUMPI PUSH2 0x2907 PUSH2 0x23E2 JUMP JUMPDEST POP PUSH32 0xFFFFFFFFFFFFFFFFFFFFFFFFFFFFFFFFFFFFFFFFFFFFFFFFFFFFFFFFFFFFFFFF ADD SWAP1 JUMP JUMPDEST PUSH32 0x4E487B7100000000000000000000000000000000000000000000000000000000 PUSH1 0x0 MSTORE PUSH1 0x31 PUSH1 0x4 MSTORE PUSH1 0x24 PUSH1 0x0 REVERT INVALID SLOAD PUSH9 0x652077616C6C657420 PUSH9 0x6173206E6F74206174 PUSH21 0x657374656420616E7920534254A264697066735822 SLT KECCAK256 SWAP9 SUB 0xDB PUSH29 0x50CF1F1BD7AC059977CDF85BB3EF3F59B35C3B4491161959F80CD43864 PUSH20 0x6F6C634300081100330000000000000000000000 "
				},
				"gasEstimates": {
					"creation": {
						"codeDepositCost": "2135400",
						"executionCost": "2272",
						"totalCost": "2137672"
					},
					"external": {
						"DEFAULT_ADMIN_ROLE()": "262",
						"OPERATOR_ROLE()": "283",
						"attest(address)": "infinite",
						"balanceOf(address)": "infinite",
						"batchAttest(address[])": "infinite",
						"batchRevoke(address[])": "infinite",
						"burn()": "infinite",
						"getRoleAdmin(bytes32)": "2540",
						"grantRole(bytes32,address)": "infinite",
						"hasRole(bytes32,address)": "2707",
						"initialize(string,string,address)": "infinite",
						"isAdmin(address)": "2594",
						"isOperator(address)": "2616",
						"name()": "infinite",
						"ownerOf(uint256)": "infinite",
						"renounceRole(bytes32,address)": "28956",
						"revoke(address)": "infinite",
						"revokeRole(bytes32,address)": "infinite",
						"setBaseTokenURI(string)": "infinite",
						"supportsInterface(bytes4)": "infinite",
						"symbol()": "infinite",
						"tokenIdOf(address)": "infinite",
						"tokenURI(uint256)": "infinite",
						"totalSupply()": "infinite"
					}
				},
				"methodIdentifiers": {
					"DEFAULT_ADMIN_ROLE()": "a217fddf",
					"OPERATOR_ROLE()": "f5b541a6",
					"attest(address)": "eb31403f",
					"balanceOf(address)": "70a08231",
					"batchAttest(address[])": "6c60144a",
					"batchRevoke(address[])": "011002df",
					"burn()": "44df8e70",
					"getRoleAdmin(bytes32)": "248a9ca3",
					"grantRole(bytes32,address)": "2f2ff15d",
					"hasRole(bytes32,address)": "91d14854",
					"initialize(string,string,address)": "077f224a",
					"isAdmin(address)": "24d7806c",
					"isOperator(address)": "6d70f7ae",
					"name()": "06fdde03",
					"ownerOf(uint256)": "6352211e",
					"renounceRole(bytes32,address)": "36568abe",
					"revoke(address)": "74a8f103",
					"revokeRole(bytes32,address)": "d547741f",
					"setBaseTokenURI(string)": "30176e13",
					"supportsInterface(bytes4)": "01ffc9a7",
					"symbol()": "95d89b41",
					"tokenIdOf(address)": "773c02d4",
					"tokenURI(uint256)": "c87b56dd",
					"totalSupply()": "18160ddd"
				}
			},
			"storageLayout": {
				"storage": [
					{
						"astId": 3439,
						"contract": "source/BinanceBABT/contracts/SBT.sol:SBT",
						"label": "_initialized",
						"offset": 0,
						"slot": "0",
						"type": "t_uint8"
					},
					{
						"astId": 3442,
						"contract": "source/BinanceBABT/contracts/SBT.sol:SBT",
						"label": "_initializing",
						"offset": 1,
						"slot": "0",
						"type": "t_bool"
					},
					{
						"astId": 661,
						"contract": "source/BinanceBABT/contracts/SBT.sol:SBT",
						"label": "_roles",
						"offset": 0,
						"slot": "1",
						"type": "t_mapping(t_bytes32,t_struct(RoleData)656_storage)"
					},
					{
						"astId": 38,
						"contract": "source/BinanceBABT/contracts/SBT.sol:SBT",
						"label": "_ownerMap",
						"offset": 0,
						"slot": "2",
						"type": "t_struct(UintToAddressMap)2164_storage"
					},
					{
						"astId": 41,
						"contract": "source/BinanceBABT/contracts/SBT.sol:SBT",
						"label": "_tokenMap",
						"offset": 0,
						"slot": "5",
						"type": "t_struct(AddressToUintMap)2401_storage"
					},
					{
						"astId": 44,
						"contract": "source/BinanceBABT/contracts/SBT.sol:SBT",
						"label": "_tokenId",
						"offset": 0,
						"slot": "8",
						"type": "t_struct(Counter)1643_storage"
					},
					{
						"astId": 46,
						"contract": "source/BinanceBABT/contracts/SBT.sol:SBT",
						"label": "name",
						"offset": 0,
						"slot": "9",
						"type": "t_string_storage"
					},
					{
						"astId": 48,
						"contract": "source/BinanceBABT/contracts/SBT.sol:SBT",
						"label": "symbol",
						"offset": 0,
						"slot": "10",
						"type": "t_string_storage"
					},
					{
						"astId": 50,
						"contract": "source/BinanceBABT/contracts/SBT.sol:SBT",
						"label": "_baseTokenURI",
						"offset": 0,
						"slot": "11",
						"type": "t_string_storage"
					}
				],
				"types": {
					"t_address": {
						"encoding": "inplace",
						"label": "address",
						"numberOfBytes": "20"
					},
					"t_array(t_bytes32)dyn_storage": {
						"base": "t_bytes32",
						"encoding": "dynamic_array",
						"label": "bytes32[]",
						"numberOfBytes": "32"
					},
					"t_bool": {
						"encoding": "inplace",
						"label": "bool",
						"numberOfBytes": "1"
					},
					"t_bytes32": {
						"encoding": "inplace",
						"label": "bytes32",
						"numberOfBytes": "32"
					},
					"t_mapping(t_address,t_bool)": {
						"encoding": "mapping",
						"key": "t_address",
						"label": "mapping(address => bool)",
						"numberOfBytes": "32",
						"value": "t_bool"
					},
					"t_mapping(t_bytes32,t_bytes32)": {
						"encoding": "mapping",
						"key": "t_bytes32",
						"label": "mapping(bytes32 => bytes32)",
						"numberOfBytes": "32",
						"value": "t_bytes32"
					},
					"t_mapping(t_bytes32,t_struct(RoleData)656_storage)": {
						"encoding": "mapping",
						"key": "t_bytes32",
						"label": "mapping(bytes32 => struct AccessControl.RoleData)",
						"numberOfBytes": "32",
						"value": "t_struct(RoleData)656_storage"
					},
					"t_mapping(t_bytes32,t_uint256)": {
						"encoding": "mapping",
						"key": "t_bytes32",
						"label": "mapping(bytes32 => uint256)",
						"numberOfBytes": "32",
						"value": "t_uint256"
					},
					"t_string_storage": {
						"encoding": "bytes",
						"label": "string",
						"numberOfBytes": "32"
					},
					"t_struct(AddressToUintMap)2401_storage": {
						"encoding": "inplace",
						"label": "struct EnumerableMap.AddressToUintMap",
						"members": [
							{
								"astId": 2400,
								"contract": "source/BinanceBABT/contracts/SBT.sol:SBT",
								"label": "_inner",
								"offset": 0,
								"slot": "0",
								"type": "t_struct(Bytes32ToBytes32Map)1727_storage"
							}
						],
						"numberOfBytes": "96"
					},
					"t_struct(Bytes32Set)3038_storage": {
						"encoding": "inplace",
						"label": "struct EnumerableSet.Bytes32Set",
						"members": [
							{
								"astId": 3037,
								"contract": "source/BinanceBABT/contracts/SBT.sol:SBT",
								"label": "_inner",
								"offset": 0,
								"slot": "0",
								"type": "t_struct(Set)2844_storage"
							}
						],
						"numberOfBytes": "64"
					},
					"t_struct(Bytes32ToBytes32Map)1727_storage": {
						"encoding": "inplace",
						"label": "struct EnumerableMap.Bytes32ToBytes32Map",
						"members": [
							{
								"astId": 1722,
								"contract": "source/BinanceBABT/contracts/SBT.sol:SBT",
								"label": "_keys",
								"offset": 0,
								"slot": "0",
								"type": "t_struct(Bytes32Set)3038_storage"
							},
							{
								"astId": 1726,
								"contract": "source/BinanceBABT/contracts/SBT.sol:SBT",
								"label": "_values",
								"offset": 0,
								"slot": "2",
								"type": "t_mapping(t_bytes32,t_bytes32)"
							}
						],
						"numberOfBytes": "96"
					},
					"t_struct(Counter)1643_storage": {
						"encoding": "inplace",
						"label": "struct Counters.Counter",
						"members": [
							{
								"astId": 1642,
								"contract": "source/BinanceBABT/contracts/SBT.sol:SBT",
								"label": "_value",
								"offset": 0,
								"slot": "0",
								"type": "t_uint256"
							}
						],
						"numberOfBytes": "32"
					},
					"t_struct(RoleData)656_storage": {
						"encoding": "inplace",
						"label": "struct AccessControl.RoleData",
						"members": [
							{
								"astId": 653,
								"contract": "source/BinanceBABT/contracts/SBT.sol:SBT",
								"label": "members",
								"offset": 0,
								"slot": "0",
								"type": "t_mapping(t_address,t_bool)"
							},
							{
								"astId": 655,
								"contract": "source/BinanceBABT/contracts/SBT.sol:SBT",
								"label": "adminRole",
								"offset": 0,
								"slot": "1",
								"type": "t_bytes32"
							}
						],
						"numberOfBytes": "64"
					},
					"t_struct(Set)2844_storage": {
						"encoding": "inplace",
						"label": "struct EnumerableSet.Set",
						"members": [
							{
								"astId": 2839,
								"contract": "source/BinanceBABT/contracts/SBT.sol:SBT",
								"label": "_values",
								"offset": 0,
								"slot": "0",
								"type": "t_array(t_bytes32)dyn_storage"
							},
							{
								"astId": 2843,
								"contract": "source/BinanceBABT/contracts/SBT.sol:SBT",
								"label": "_indexes",
								"offset": 0,
								"slot": "1",
								"type": "t_mapping(t_bytes32,t_uint256)"
							}
						],
						"numberOfBytes": "64"
					},
					"t_struct(UintToAddressMap)2164_storage": {
						"encoding": "inplace",
						"label": "struct EnumerableMap.UintToAddressMap",
						"members": [
							{
								"astId": 2163,
								"contract": "source/BinanceBABT/contracts/SBT.sol:SBT",
								"label": "_inner",
								"offset": 0,
								"slot": "0",
								"type": "t_struct(Bytes32ToBytes32Map)1727_storage"
							}
						],
						"numberOfBytes": "96"
					},
					"t_uint256": {
						"encoding": "inplace",
						"label": "uint256",
						"numberOfBytes": "32"
					},
					"t_uint8": {
						"encoding": "inplace",
						"label": "uint8",
						"numberOfBytes": "1"
					}
				}
			},
			"userdoc": {
				"kind": "user",
				"methods": {
					"balanceOf(address)": {
						"notice": "Count all SBTs assigned to an owner"
					},
					"burn()": {
						"notice": "At any time, an SBT receiver must be able to  disassociate themselves from an SBT publicly through calling this  function. Emits a {Burn} event. Emits a {Transfer} event."
					},
					"ownerOf(uint256)": {
						"notice": "Find the address bound to a SBT"
					}
				},
				"notice": "An experiment in Soul Bound Tokens (SBT's) following Vitalik's co-authored whitepaper at: https://papers.ssrn.com/sol3/papers.cfm?abstract_id=4105763 I propose for a rename to Non-Transferable Tokens NTT's",
				"version": 1
			}
		}
	}
}